{
  "_format": "hh3-artifact-1",
  "contractName": "ArcMetaRouter",
  "sourceName": "core/ArcMetaRouter.sol",
  "abi": [
    {
      "inputs": [
        {
          "internalType": "address",
          "name": "_usdc",
          "type": "address"
        },
        {
          "internalType": "address",
          "name": "_eurc",
          "type": "address"
        },
        {
          "internalType": "address",
          "name": "_tokenMessenger",
          "type": "address"
        },
        {
          "internalType": "address",
          "name": "_gatewayWallet",
          "type": "address"
        },
        {
          "internalType": "uint16",
          "name": "_feeBps",
          "type": "uint16"
        },
        {
          "internalType": "address",
          "name": "_feeCollector",
          "type": "address"
        }
      ],
      "stateMutability": "nonpayable",
      "type": "constructor"
    },
    {
      "anonymous": false,
      "inputs": [
        {
          "indexed": false,
          "internalType": "address",
          "name": "ammFactory",
          "type": "address"
        }
      ],
      "name": "AMMFactoryUpdated",
      "type": "event"
    },
    {
      "anonymous": false,
      "inputs": [
        {
          "indexed": true,
          "internalType": "address",
          "name": "payer",
          "type": "address"
        },
        {
          "indexed": true,
          "internalType": "address",
          "name": "token",
          "type": "address"
        },
        {
          "indexed": false,
          "internalType": "uint256",
          "name": "amount",
          "type": "uint256"
        },
        {
          "indexed": false,
          "internalType": "uint32",
          "name": "destinationDomain",
          "type": "uint32"
        },
        {
          "indexed": false,
          "internalType": "bytes32",
          "name": "mintRecipient",
          "type": "bytes32"
        },
        {
          "indexed": false,
          "internalType": "uint64",
          "name": "nonce",
          "type": "uint64"
        },
        {
          "indexed": false,
          "internalType": "bytes",
          "name": "hookData",
          "type": "bytes"
        }
      ],
      "name": "CCTPTransferInitiated",
      "type": "event"
    },
    {
      "anonymous": false,
      "inputs": [
        {
          "indexed": false,
          "internalType": "uint16",
          "name": "feeBps",
          "type": "uint16"
        },
        {
          "indexed": false,
          "internalType": "address",
          "name": "feeCollector",
          "type": "address"
        }
      ],
      "name": "FeeUpdated",
      "type": "event"
    },
    {
      "anonymous": false,
      "inputs": [
        {
          "indexed": true,
          "internalType": "address",
          "name": "payer",
          "type": "address"
        },
        {
          "indexed": true,
          "internalType": "address",
          "name": "depositor",
          "type": "address"
        },
        {
          "indexed": true,
          "internalType": "address",
          "name": "token",
          "type": "address"
        },
        {
          "indexed": false,
          "internalType": "uint256",
          "name": "amount",
          "type": "uint256"
        }
      ],
      "name": "GatewayDeposit",
      "type": "event"
    },
    {
      "anonymous": false,
      "inputs": [
        {
          "indexed": false,
          "internalType": "address",
          "name": "gatewayWallet",
          "type": "address"
        }
      ],
      "name": "GatewayWalletUpdated",
      "type": "event"
    },
    {
      "anonymous": false,
      "inputs": [
        {
          "indexed": true,
          "internalType": "address",
          "name": "payer",
          "type": "address"
        },
        {
          "indexed": true,
          "internalType": "address",
          "name": "recipient",
          "type": "address"
        },
        {
          "indexed": true,
          "internalType": "address",
          "name": "token",
          "type": "address"
        },
        {
          "indexed": false,
          "internalType": "uint256",
          "name": "amount",
          "type": "uint256"
        },
        {
          "indexed": false,
          "internalType": "bytes32",
          "name": "paymentId",
          "type": "bytes32"
        }
      ],
      "name": "LocalPayment",
      "type": "event"
    },
    {
      "anonymous": false,
      "inputs": [
        {
          "indexed": true,
          "internalType": "address",
          "name": "sender",
          "type": "address"
        },
        {
          "indexed": true,
          "internalType": "address",
          "name": "tokenIn",
          "type": "address"
        },
        {
          "indexed": true,
          "internalType": "address",
          "name": "tokenOut",
          "type": "address"
        },
        {
          "indexed": false,
          "internalType": "uint256",
          "name": "amountIn",
          "type": "uint256"
        },
        {
          "indexed": false,
          "internalType": "uint256",
          "name": "amountOut",
          "type": "uint256"
        },
        {
          "indexed": false,
          "internalType": "address",
          "name": "recipient",
          "type": "address"
        }
      ],
      "name": "LocalSwap",
      "type": "event"
    },
    {
      "anonymous": false,
      "inputs": [
        {
          "indexed": true,
          "internalType": "address",
          "name": "previousOwner",
          "type": "address"
        },
        {
          "indexed": true,
          "internalType": "address",
          "name": "newOwner",
          "type": "address"
        }
      ],
      "name": "OwnershipTransferred",
      "type": "event"
    },
    {
      "anonymous": false,
      "inputs": [
        {
          "indexed": false,
          "internalType": "address",
          "name": "tokenMessenger",
          "type": "address"
        }
      ],
      "name": "TokenMessengerUpdated",
      "type": "event"
    },
    {
      "inputs": [],
      "name": "EURC",
      "outputs": [
        {
          "internalType": "contract IERC20",
          "name": "",
          "type": "address"
        }
      ],
      "stateMutability": "view",
      "type": "function"
    },
    {
      "inputs": [],
      "name": "USDC",
      "outputs": [
        {
          "internalType": "contract IERC20",
          "name": "",
          "type": "address"
        }
      ],
      "stateMutability": "view",
      "type": "function"
    },
    {
      "inputs": [],
      "name": "ammFactory",
      "outputs": [
        {
          "internalType": "contract IArcAMMFactory",
          "name": "",
          "type": "address"
        }
      ],
      "stateMutability": "view",
      "type": "function"
    },
    {
      "inputs": [],
      "name": "feeBps",
      "outputs": [
        {
          "internalType": "uint16",
          "name": "",
          "type": "uint16"
        }
      ],
      "stateMutability": "view",
      "type": "function"
    },
    {
      "inputs": [],
      "name": "feeCollector",
      "outputs": [
        {
          "internalType": "address",
          "name": "",
          "type": "address"
        }
      ],
      "stateMutability": "view",
      "type": "function"
    },
    {
      "inputs": [],
      "name": "gatewayWallet",
      "outputs": [
        {
          "internalType": "contract IGatewayWallet",
          "name": "",
          "type": "address"
        }
      ],
      "stateMutability": "view",
      "type": "function"
    },
    {
      "inputs": [],
      "name": "owner",
      "outputs": [
        {
          "internalType": "address",
          "name": "",
          "type": "address"
        }
      ],
      "stateMutability": "view",
      "type": "function"
    },
    {
      "inputs": [
        {
          "internalType": "address",
          "name": "token",
          "type": "address"
        },
        {
          "internalType": "address",
          "name": "recipient",
          "type": "address"
        },
        {
          "internalType": "uint256",
          "name": "amount",
          "type": "uint256"
        },
        {
          "internalType": "bytes32",
          "name": "paymentId",
          "type": "bytes32"
        }
      ],
      "name": "payLocal",
      "outputs": [],
      "stateMutability": "nonpayable",
      "type": "function"
    },
    {
      "inputs": [
        {
          "internalType": "uint256",
          "name": "amount",
          "type": "uint256"
        }
      ],
      "name": "previewFee",
      "outputs": [
        {
          "internalType": "uint256",
          "name": "",
          "type": "uint256"
        }
      ],
      "stateMutability": "view",
      "type": "function"
    },
    {
      "inputs": [
        {
          "internalType": "uint32",
          "name": "destinationDomain",
          "type": "uint32"
        },
        {
          "internalType": "bytes32",
          "name": "mintRecipient",
          "type": "bytes32"
        },
        {
          "internalType": "uint256",
          "name": "amount",
          "type": "uint256"
        },
        {
          "internalType": "bool",
          "name": "useHook",
          "type": "bool"
        },
        {
          "internalType": "bytes32",
          "name": "destinationCaller",
          "type": "bytes32"
        },
        {
          "internalType": "uint256",
          "name": "maxFee",
          "type": "uint256"
        },
        {
          "internalType": "uint32",
          "name": "minFinality",
          "type": "uint32"
        },
        {
          "internalType": "bytes",
          "name": "hookData",
          "type": "bytes"
        }
      ],
      "name": "routeCCTP",
      "outputs": [
        {
          "internalType": "uint64",
          "name": "nonce",
          "type": "uint64"
        }
      ],
      "stateMutability": "nonpayable",
      "type": "function"
    },
    {
      "inputs": [
        {
          "internalType": "address",
          "name": "token",
          "type": "address"
        },
        {
          "internalType": "uint256",
          "name": "amount",
          "type": "uint256"
        },
        {
          "internalType": "address",
          "name": "depositor",
          "type": "address"
        },
        {
          "internalType": "bool",
          "name": "useDepositFor",
          "type": "bool"
        }
      ],
      "name": "routeGatewayDeposit",
      "outputs": [],
      "stateMutability": "nonpayable",
      "type": "function"
    },
    {
      "inputs": [
        {
          "internalType": "address",
          "name": "_ammFactory",
          "type": "address"
        }
      ],
      "name": "setAMMFactory",
      "outputs": [],
      "stateMutability": "nonpayable",
      "type": "function"
    },
    {
      "inputs": [
        {
          "internalType": "uint16",
          "name": "_feeBps",
          "type": "uint16"
        },
        {
          "internalType": "address",
          "name": "_feeCollector",
          "type": "address"
        }
      ],
      "name": "setFeeConfig",
      "outputs": [],
      "stateMutability": "nonpayable",
      "type": "function"
    },
    {
      "inputs": [
        {
          "internalType": "address",
          "name": "_gatewayWallet",
          "type": "address"
        }
      ],
      "name": "setGatewayWallet",
      "outputs": [],
      "stateMutability": "nonpayable",
      "type": "function"
    },
    {
      "inputs": [
        {
          "internalType": "address",
          "name": "_tokenMessenger",
          "type": "address"
        }
      ],
      "name": "setTokenMessenger",
      "outputs": [],
      "stateMutability": "nonpayable",
      "type": "function"
    },
    {
      "inputs": [
        {
          "internalType": "address",
          "name": "_vaultFactory",
          "type": "address"
        }
      ],
      "name": "setVaultFactory",
      "outputs": [],
      "stateMutability": "nonpayable",
      "type": "function"
    },
    {
      "inputs": [
        {
          "internalType": "address",
          "name": "tokenIn",
          "type": "address"
        },
        {
          "internalType": "address",
          "name": "tokenOut",
          "type": "address"
        },
        {
          "internalType": "uint256",
          "name": "amountIn",
          "type": "uint256"
        },
        {
          "internalType": "uint256",
          "name": "minAmountOut",
          "type": "uint256"
        },
        {
          "internalType": "address",
          "name": "recipient",
          "type": "address"
        },
        {
          "internalType": "uint256",
          "name": "deadline",
          "type": "uint256"
        }
      ],
      "name": "swapLocal",
      "outputs": [
        {
          "internalType": "uint256",
          "name": "amountOut",
          "type": "uint256"
        }
      ],
      "stateMutability": "nonpayable",
      "type": "function"
    },
    {
      "inputs": [],
      "name": "tokenMessenger",
      "outputs": [
        {
          "internalType": "contract ITokenMessenger",
          "name": "",
          "type": "address"
        }
      ],
      "stateMutability": "view",
      "type": "function"
    },
    {
      "inputs": [
        {
          "internalType": "address",
          "name": "newOwner",
          "type": "address"
        }
      ],
      "name": "transferOwnership",
      "outputs": [],
      "stateMutability": "nonpayable",
      "type": "function"
    },
    {
      "inputs": [],
      "name": "vaultFactory",
      "outputs": [
        {
          "internalType": "contract IVaultFactory",
          "name": "",
          "type": "address"
        }
      ],
      "stateMutability": "view",
      "type": "function"
    }
  ],
  "bytecode": "0x60c034620002ea57601f62001c2538819003918201601f191683019291906001600160401b03841183851017620002ee578160c09284926040968752833981010312620002ea57620000518162000302565b6020916200006183820162000302565b906200006f85820162000302565b916200007e6060830162000302565b9260808301519461ffff861693848703620002ea5760a0620000a1910162000302565b5f8054336001600160a01b0319918216811783558b5196919593927f8be0079c531659141344cd1fd0a4f28419497f9722a3daafe3b4186f6b6457e08180a36001600160a01b03938416958615620002bc575083169081156200028c578316948515620002535794808a999895857f9e2f5c2330afb3c7cfcf473e62546420851afccbeaf15b45b799f048243170aa968e967fcdbce6c1426410c65374033254076f25f4fe27a9814df095590238327c6262ab9b967f7a3bb33d45e644591a57750d06ab2a57b66d5881c20c7447d4a32ac601657a119f9b60805260a05216978883600154161760015516998a8260025416176002556004549061ffff60a01b9060a01b169061ffff60a01b1916176004556005541617600555825191825285820152a18651908152a18351908152a15161190d908162000318823960805181818161028e015281816102d1015281816103000152818161035a01528181610402015281816104d901528181610554015281816107da01528181610f9601526116a0015260a051818181610d3201528181610d5e01528181610ddc01528181610e1001528181610eac015261170f0152f35b8a5162461bcd60e51b8152600481018b905260126024820152714645455f434f4c4c4543544f525f5a45524f60701b6044820152606490fd5b8a5162461bcd60e51b8152600481018b90526009602482015268455552435f5a45524f60b81b6044820152606490fd5b62461bcd60e51b8152600481018b90526009602482015268555344435f5a45524f60b81b6044820152606490fd5b5f80fd5b634e487b7160e01b5f52604160045260245ffd5b51906001600160a01b0382168203620002ea5756fe6080806040526004361015610012575f80fd5b5f90813560e01c908163131b4c0e14611383575080631c2236f11461130557806324a9d853146112e057806335e856f2146112b95780633ea7fbdb1461125f578063461178301461123657806362ce977b146111765780636b39cf7714610fc557806389a3027114610f805780638da5cb5b14610f59578063a92bb10f14610edb578063aabfa37d14610e96578063b78f6c2f1461076a578063c415b95c14610741578063cd1b7d6c14610613578063d8a06f73146105ea578063dacda92f146105c1578063edc421fd146101ef578063f2fde38b1461017a5763f586384f146100fa575f80fd5b34610177576020366003190112610177577fcdbce6c1426410c65374033254076f25f4fe27a9814df095590238327c6262ab60206101366113a8565b83546001600160a01b03919061014f90831633146113e3565b1661015b81151561141b565b600180546001600160a01b03191682179055604051908152a180f35b80fd5b5034610177576020366003190112610177576101946113a8565b81546001600160a01b03808216926101ad3385146113e3565b1680926101bb82151561141b565b7f8be0079c531659141344cd1fd0a4f28419497f9722a3daafe3b4186f6b6457e08580a36001600160a01b03191617815580f35b5034610177576101003660031901126101775760043563ffffffff80821682036105bd5761021b6113d4565b9160c4359180831683036105bd5767ffffffffffffffff60e435116105b95736602360e4350112156105b95767ffffffffffffffff60e43560040135116105b95736602460e4356004013560e4350101116105b95761027d6044351515611490565b6024351561057e57806102b26044357f00000000000000000000000000000000000000000000000000000000000000006115b6565b80959195610541575b506001546001600160a01b0396906102f59088167f00000000000000000000000000000000000000000000000000000000000000006117f0565b6103248688600154167f000000000000000000000000000000000000000000000000000000000000000061188e565b156104a357602090866001541660405193849263779b432d60e01b845288600485015281881660248501526024356044850152897f0000000000000000000000000000000000000000000000000000000000000000166064850152608435608485015260a43560a48501521660c483015261010060e48301528189816103ba610104820160e43560040135602460e43501611553565b03925af1908115610498579067ffffffffffffffff9392916020979161046b575b50915b60405194855216858401526024356040840152169182606083015260a060808301527f000000000000000000000000000000000000000000000000000000000000000016907f773e4baf733f3d3a4e9745cd20ff83b01f933c4eae9bbf01bde61275a11bc37e33918061046060a0820160e43560040135602460e43501611553565b0390a3604051908152f35b61048b9150873d8111610491575b61048381836114f2565b810190611533565b5f6103db565b503d610479565b6040513d88823e3d90fd5b505084602085600154166084604051809481936337e9a82760e11b8352896004840152878916602484015260243560448401528a7f00000000000000000000000000000000000000000000000000000000000000001660648401525af1908115610498579067ffffffffffffffff93929160209791610524575b50916103de565b61053b9150873d81116104915761048381836114f2565b5f61051d565b60055461057891906001600160a01b03167f0000000000000000000000000000000000000000000000000000000000000000611751565b5f6102bb565b60405162461bcd60e51b81526020600482015260136024820152724d494e545f524543495049454e545f5a45524f60681b6044820152606490fd5b8480fd5b5f80fd5b50346101775780600319360112610177576003546040516001600160a01b039091168152602090f35b50346101775780600319360112610177576004546040516001600160a01b039091168152602090f35b50346101775760403660031901126101775760043561ffff81169081810361073d5761063d6113be565b83546001600160a01b03919061065690831633146113e3565b16918215610703576103e881116106cf577f9e2f5c2330afb3c7cfcf473e62546420851afccbeaf15b45b799f048243170aa926040926004549061ffff60a01b9060a01b169061ffff60a01b191617600455806bffffffffffffffffffffffff60a01b600554161760055582519182526020820152a180f35b60405162461bcd60e51b815260206004820152600c60248201526b08c8a8abea89e9ebe90928e960a31b6044820152606490fd5b60405162461bcd60e51b81526020600482015260126024820152714645455f434f4c4c4543544f525f5a45524f60701b6044820152606490fd5b8280fd5b50346101775780600319360112610177576005546040516001600160a01b039091168152602090f35b50346101775760c0366003190112610177576107846113a8565b9061078d6113be565b6001600160a01b036084358181169492908590036105bd576107b0851515611453565b6044948535916107c1831515611490565b60a4354211610e6857831693831692838514610e3757807f000000000000000000000000000000000000000000000000000000000000000016958685149182159283610e0c575b8015610e03575b8015610dd8575b15610d9b5761082585876115b6565b80949194610d86575b50829882600454169182610c50575b505050878116928315610b0057604051634b60ce7760e01b8082526020939184816004818a5afa908115610498579083918791610ae3575b501689149182610a93575b82156109d6575b50501561099b578960848261089e85948d8c61188e565b8560405197889485936379f3754560e11b85528d60048601526024850152606435908401528960648401525af191821561098f579161095f575b506108e5915095846117f0565b60643585106109305760209550604051918252848683015260408201527f1898a1026b4cd267e5feda53dee6ee128febabf37bbeb28fe3c47eeea83c32c460603392a4604051908152f35b60405162461bcd60e51b8152602060048201526008602482015267534c49505041474560c01b81880152606490fd5b905081813d8311610988575b61097581836114f2565b810103126105bd576108e590515f6108d8565b503d61096b565b604051903d90823e3d90fd5b60405162461bcd60e51b81526004810183905260146024820152730ac82aa98a8bea89e968a9cbe9a92a69a82a886960631b818c0152606490fd5b604051631f209df760e11b81529192509084816004818a5afa908115610498579082918791610a76575b501689149182610a14575b50505f80610887565b9091506040519081528381600481895afa908115610a6b578591610a3e575b501688145f80610a0b565b610a5e9150843d8611610a64575b610a5681836114f2565b810190611514565b5f610a33565b503d610a4c565b6040513d87823e3d90fd5b610a8d9150863d8811610a6457610a5681836114f2565b5f610a00565b604051631f209df760e11b815290925084816004818a5afa908115610498579083918791610ac6575b50168a1491610880565b610add9150863d8811610a6457610a5681836114f2565b5f610abc565b610afa9150863d8811610a6457610a5681836114f2565b5f610875565b9193975080925060035416908115610c195760405192839263298d501f60e11b8452876004850152886024850152838b60209586935afa938415610a6b578594610bfa575b508316928315610bcc5790610b5c81849389611751565b60848a866040519687948593631ba0488760e21b85528c60048601528d60248601528401528c60648401525af192831561098f5792610b9e575b5050936108e5565b90809250813d8311610bc5575b610bb581836114f2565b810103126105bd57515f80610b96565b503d610bab565b60405162461bcd60e51b81526004810184905260076024820152661393d7d413d3d360ca1b818c0152606490fd5b610c12919450833d8511610a6457610a5681836114f2565b925f610b45565b60405162461bcd60e51b815260206004820152601060248201526f1393d7d59055531517d3d497d413d3d360821b818b0152606490fd5b9299919280610d5a575b15610cc15750506020602491604051928380926301d735e760e31b82528a60048301525afa908115610cb6578291610c98575b50965b5f808061083d565b610cb0915060203d8111610a6457610a5681836114f2565b5f610c8d565b6040513d84823e3d90fd5b8899929199141580610d2e575b610cd9575b50610c90565b6024919850602090604051928380926301d735e760e31b82528b60048301525afa908115610cb6578291610d10575b50965f610cd3565b610d28915060203d8111610a6457610a5681836114f2565b5f610d08565b50817f000000000000000000000000000000000000000000000000000000000000000016881415610cce565b50897f000000000000000000000000000000000000000000000000000000000000000016881415610c5a565b610d9590836005541689611751565b5f61082e565b60405162461bcd60e51b81526020600482015260166024820152754f4e455f4c45475f4d5553545f42455f535441424c4560501b818b0152606490fd5b50807f0000000000000000000000000000000000000000000000000000000000000000168714610816565b5087871461080f565b50807f0000000000000000000000000000000000000000000000000000000000000000168614610808565b60405162461bcd60e51b815260206004820152600a60248201526929a0a6a2afaa27a5a2a760b11b81890152606490fd5b60405162461bcd60e51b81526020600482015260076024820152661156141254915160ca1b81890152606490fd5b50346101775780600319360112610177576040517f00000000000000000000000000000000000000000000000000000000000000006001600160a01b03168152602090f35b5034610177576020366003190112610177577f7a3bb33d45e644591a57750d06ab2a57b66d5881c20c7447d4a32ac601657a116020610f186113a8565b83546001600160a01b039190610f3190831633146113e3565b16610f3d81151561141b565b600280546001600160a01b03191682179055604051908152a180f35b5034610177578060031936011261017757546040516001600160a01b039091168152602090f35b50346101775780600319360112610177576040517f00000000000000000000000000000000000000000000000000000000000000006001600160a01b03168152602090f35b503461017757608036600319011261017757610fdf6113a8565b60243590604435906001600160a01b0390818316908590828503611155576110056113d4565b9492611012871515611490565b61101b82611693565b1561116e575b61102e84821696876115b6565b80969196611159575b506110468560025416886117f0565b6110558686600254168961188e565b156110f2578360025416803b1561073d5760405163b3db428b60e01b81526001600160a01b03928316600482015291841660248301526044820186905282908290606490829084905af18015610cb6576110de575b50505b60405192835216907f921654b8c2158ebc05629d4c303a63347a5dd7e3bc284889db0cfe5fd962ba6a60203392a480f35b6110e7906114ca565b6105b957845f6110aa565b90836002541691823b15611155576040516311f9fbc960e21b81526001600160a01b0391909116600482015260248101869052918290604490829084905af1801561049857611142575b506110ad565b61114e909591956114ca565b935f61113c565b5080fd5b61116890866005541689611751565b5f611037565b339250611021565b5034610177576080366003190112610177576111906113a8565b6111986113be565b90604435916111ea60018060a01b03916111d783808316956111bb871515611453565b6111c6881515611490565b6111cf81611693565b1695866115b6565b909384929180611221575b505085611751565b60405190815260643560208201527fb9fcc4404867bc932fd7611431a17aaa3f95766eb5bd01d46c296ad8ce46840260403392a480f35b61122f916005541688611751565b5f806111e2565b50346101775780600319360112610177576001546040516001600160a01b039091168152602090f35b5034610177576020366003190112610177576112796113a8565b81546001600160a01b03919061129290831633146113e3565b1661129e81151561141b565b6bffffffffffffffffffffffff60a01b600454161760045580f35b50346101775760203660031901126101775760206112d8600435611573565b604051908152f35b5034610177578060031936011261017757602061ffff60045460a01c16604051908152f35b5034610177576020366003190112610177577fee6e8af5ea26ad906c28e6e8c421c990111039169988f75cab1fc2983f0ffda360206113426113a8565b83546001600160a01b03919061135b90831633146113e3565b1661136781151561141b565b600380546001600160a01b03191682179055604051908152a180f35b9050346111555781600319360112611155576002546001600160a01b03168152602090f35b600435906001600160a01b03821682036105bd57565b602435906001600160a01b03821682036105bd57565b6064359081151582036105bd57565b156113ea57565b60405162461bcd60e51b81526020600482015260096024820152682727aa2fa7aba722a960b91b6044820152606490fd5b1561142257565b60405162461bcd60e51b81526020600482015260096024820152682d22a927afa0a2222960b91b6044820152606490fd5b1561145a57565b60405162461bcd60e51b815260206004820152600e60248201526d524543495049454e545f5a45524f60901b6044820152606490fd5b1561149757565b60405162461bcd60e51b815260206004820152600b60248201526a414d4f554e545f5a45524f60a81b6044820152606490fd5b67ffffffffffffffff81116114de57604052565b634e487b7160e01b5f52604160045260245ffd5b90601f8019910116810190811067ffffffffffffffff8211176114de57604052565b908160209103126105bd57516001600160a01b03811681036105bd5790565b908160209103126105bd575167ffffffffffffffff811681036105bd5790565b908060209392818452848401375f828201840152601f01601f1916010190565b61ffff60045460a01c169081156115b05781810291818304149015171561159c57612710900490565b634e487b7160e01b5f52601160045260245ffd5b50505f90565b90916115c183611573565b918284039084821161159c576040516323b872dd60e01b81523360048201523060248201526044810195909552909390602090829060649082905f906001600160a01b03165af1908115611688575f9161165a575b501561161e57565b60405162461bcd60e51b81526020600482015260146024820152731514905394d1915497d19493d357d1905253115160621b6044820152606490fd5b61167b915060203d8111611681575b61167381836114f2565b810190611739565b5f611616565b503d611669565b6040513d5f823e3d90fd5b6001600160a01b039081167f00000000000000000000000000000000000000000000000000000000000000008216811491821561170d575b5050156116d457565b60405162461bcd60e51b81526020600482015260116024820152702aa729aaa82827a92a22a22faa27a5a2a760791b6044820152606490fd5b7f0000000000000000000000000000000000000000000000000000000000000000161490505f806116cb565b908160209103126105bd575180151581036105bd5790565b60405163a9059cbb60e01b81526001600160a01b0392831660048201526024810193909352602091839160449183915f91165af1908115611688575f916117d2575b501561179b57565b60405162461bcd60e51b815260206004820152600f60248201526e1514905394d1915497d19052531151608a1b6044820152606490fd5b6117ea915060203d81116116815761167381836114f2565b5f611793565b60405163095ea7b360e01b81526001600160a01b0392831660048201525f60248201819052909260209284926044928492165af1908115611688575f91611870575b501561183a57565b60405162461bcd60e51b815260206004820152600e60248201526d1054141493d59157d1905253115160921b6044820152606490fd5b611888915060203d81116116815761167381836114f2565b5f611832565b60405163095ea7b360e01b81526001600160a01b0392831660048201526024810193909352602091839160449183915f91165af1908115611688575f9161187057501561183a5756fea264697066735822122039465dbd7e590b8b818ca49da27bf0bcd811af2c16ee648b0e4565ea31eb2d7b64736f6c63430008140033",
  "linkReferences": {},
  "deployedLinkReferences": {},
  "immutableReferences": {
    "3484": [
      {
        "length": 32,
        "start": 654
      },
      {
        "length": 32,
        "start": 721
      },
      {
        "length": 32,
        "start": 768
      },
      {
        "length": 32,
        "start": 858
      },
      {
        "length": 32,
        "start": 1026
      },
      {
        "length": 32,
        "start": 1241
      },
      {
        "length": 32,
        "start": 1364
      },
      {
        "length": 32,
        "start": 2010
      },
      {
        "length": 32,
        "start": 3990
      },
      {
        "length": 32,
        "start": 5792
      }
    ],
    "3487": [
      {
        "length": 32,
        "start": 3378
      },
      {
        "length": 32,
        "start": 3422
      },
      {
        "length": 32,
        "start": 3548
      },
      {
        "length": 32,
        "start": 3600
      },
      {
        "length": 32,
        "start": 3756
      },
      {
        "length": 32,
        "start": 5903
      }
    ]
  },
  "inputSourceName": "project/core/ArcMetaRouter.sol",
  "buildInfoId": "solc-0_8_20-a8cbf2a69aedf980ee152c67bcdacb8ac43f79c8"
}