{
  "_format": "hh3-artifact-1",
  "contractName": "ArcMetaRouter",
  "sourceName": "core/ArcMetaRouter.sol",
  "abi": [
    {
      "inputs": [
        {
          "internalType": "address",
          "name": "_usdc",
          "type": "address"
        },
        {
          "internalType": "address",
          "name": "_eurc",
          "type": "address"
        },
        {
          "internalType": "address",
          "name": "_tokenMessenger",
          "type": "address"
        },
        {
          "internalType": "address",
          "name": "_gatewayWallet",
          "type": "address"
        },
        {
          "internalType": "uint16",
          "name": "_feeBps",
          "type": "uint16"
        },
        {
          "internalType": "address",
          "name": "_feeCollector",
          "type": "address"
        }
      ],
      "stateMutability": "nonpayable",
      "type": "constructor"
    },
    {
      "anonymous": false,
      "inputs": [
        {
          "indexed": false,
          "internalType": "address",
          "name": "ammFactory",
          "type": "address"
        }
      ],
      "name": "AMMFactoryUpdated",
      "type": "event"
    },
    {
      "anonymous": false,
      "inputs": [
        {
          "indexed": true,
          "internalType": "address",
          "name": "payer",
          "type": "address"
        },
        {
          "indexed": true,
          "internalType": "address",
          "name": "token",
          "type": "address"
        },
        {
          "indexed": false,
          "internalType": "uint256",
          "name": "amount",
          "type": "uint256"
        },
        {
          "indexed": false,
          "internalType": "uint32",
          "name": "destinationDomain",
          "type": "uint32"
        },
        {
          "indexed": false,
          "internalType": "bytes32",
          "name": "mintRecipient",
          "type": "bytes32"
        },
        {
          "indexed": false,
          "internalType": "uint64",
          "name": "nonce",
          "type": "uint64"
        },
        {
          "indexed": false,
          "internalType": "bytes",
          "name": "hookData",
          "type": "bytes"
        }
      ],
      "name": "CCTPTransferInitiated",
      "type": "event"
    },
    {
      "anonymous": false,
      "inputs": [
        {
          "indexed": false,
          "internalType": "uint16",
          "name": "feeBps",
          "type": "uint16"
        },
        {
          "indexed": false,
          "internalType": "address",
          "name": "feeCollector",
          "type": "address"
        }
      ],
      "name": "FeeUpdated",
      "type": "event"
    },
    {
      "anonymous": false,
      "inputs": [
        {
          "indexed": true,
          "internalType": "address",
          "name": "payer",
          "type": "address"
        },
        {
          "indexed": true,
          "internalType": "address",
          "name": "depositor",
          "type": "address"
        },
        {
          "indexed": true,
          "internalType": "address",
          "name": "token",
          "type": "address"
        },
        {
          "indexed": false,
          "internalType": "uint256",
          "name": "amount",
          "type": "uint256"
        }
      ],
      "name": "GatewayDeposit",
      "type": "event"
    },
    {
      "anonymous": false,
      "inputs": [
        {
          "indexed": false,
          "internalType": "address",
          "name": "gatewayWallet",
          "type": "address"
        }
      ],
      "name": "GatewayWalletUpdated",
      "type": "event"
    },
    {
      "anonymous": false,
      "inputs": [
        {
          "indexed": true,
          "internalType": "address",
          "name": "payer",
          "type": "address"
        },
        {
          "indexed": true,
          "internalType": "address",
          "name": "recipient",
          "type": "address"
        },
        {
          "indexed": true,
          "internalType": "address",
          "name": "token",
          "type": "address"
        },
        {
          "indexed": false,
          "internalType": "uint256",
          "name": "amount",
          "type": "uint256"
        },
        {
          "indexed": false,
          "internalType": "bytes32",
          "name": "paymentId",
          "type": "bytes32"
        }
      ],
      "name": "LocalPayment",
      "type": "event"
    },
    {
      "anonymous": false,
      "inputs": [
        {
          "indexed": true,
          "internalType": "address",
          "name": "sender",
          "type": "address"
        },
        {
          "indexed": true,
          "internalType": "address",
          "name": "tokenIn",
          "type": "address"
        },
        {
          "indexed": true,
          "internalType": "address",
          "name": "tokenOut",
          "type": "address"
        },
        {
          "indexed": false,
          "internalType": "uint256",
          "name": "amountIn",
          "type": "uint256"
        },
        {
          "indexed": false,
          "internalType": "uint256",
          "name": "amountOut",
          "type": "uint256"
        },
        {
          "indexed": false,
          "internalType": "address",
          "name": "recipient",
          "type": "address"
        }
      ],
      "name": "LocalSwap",
      "type": "event"
    },
    {
      "anonymous": false,
      "inputs": [
        {
          "indexed": true,
          "internalType": "address",
          "name": "previousOwner",
          "type": "address"
        },
        {
          "indexed": true,
          "internalType": "address",
          "name": "newOwner",
          "type": "address"
        }
      ],
      "name": "OwnershipTransferred",
      "type": "event"
    },
    {
      "anonymous": false,
      "inputs": [
        {
          "indexed": false,
          "internalType": "address",
          "name": "tokenMessenger",
          "type": "address"
        }
      ],
      "name": "TokenMessengerUpdated",
      "type": "event"
    },
    {
      "inputs": [],
      "name": "EURC",
      "outputs": [
        {
          "internalType": "contract IERC20",
          "name": "",
          "type": "address"
        }
      ],
      "stateMutability": "view",
      "type": "function"
    },
    {
      "inputs": [],
      "name": "USDC",
      "outputs": [
        {
          "internalType": "contract IERC20",
          "name": "",
          "type": "address"
        }
      ],
      "stateMutability": "view",
      "type": "function"
    },
    {
      "inputs": [],
      "name": "ammFactory",
      "outputs": [
        {
          "internalType": "contract IArcAMMFactory",
          "name": "",
          "type": "address"
        }
      ],
      "stateMutability": "view",
      "type": "function"
    },
    {
      "inputs": [],
      "name": "feeBps",
      "outputs": [
        {
          "internalType": "uint16",
          "name": "",
          "type": "uint16"
        }
      ],
      "stateMutability": "view",
      "type": "function"
    },
    {
      "inputs": [],
      "name": "feeCollector",
      "outputs": [
        {
          "internalType": "address",
          "name": "",
          "type": "address"
        }
      ],
      "stateMutability": "view",
      "type": "function"
    },
    {
      "inputs": [],
      "name": "gatewayWallet",
      "outputs": [
        {
          "internalType": "contract IGatewayWallet",
          "name": "",
          "type": "address"
        }
      ],
      "stateMutability": "view",
      "type": "function"
    },
    {
      "inputs": [
        {
          "internalType": "address",
          "name": "recipient",
          "type": "address"
        },
        {
          "internalType": "uint256",
          "name": "amount",
          "type": "uint256"
        }
      ],
      "name": "onCCTPReceived",
      "outputs": [],
      "stateMutability": "nonpayable",
      "type": "function"
    },
    {
      "inputs": [],
      "name": "owner",
      "outputs": [
        {
          "internalType": "address",
          "name": "",
          "type": "address"
        }
      ],
      "stateMutability": "view",
      "type": "function"
    },
    {
      "inputs": [
        {
          "internalType": "address",
          "name": "token",
          "type": "address"
        },
        {
          "internalType": "address",
          "name": "recipient",
          "type": "address"
        },
        {
          "internalType": "uint256",
          "name": "amount",
          "type": "uint256"
        },
        {
          "internalType": "bytes32",
          "name": "paymentId",
          "type": "bytes32"
        }
      ],
      "name": "payLocal",
      "outputs": [],
      "stateMutability": "nonpayable",
      "type": "function"
    },
    {
      "inputs": [
        {
          "internalType": "uint256",
          "name": "amount",
          "type": "uint256"
        }
      ],
      "name": "previewFee",
      "outputs": [
        {
          "internalType": "uint256",
          "name": "",
          "type": "uint256"
        }
      ],
      "stateMutability": "view",
      "type": "function"
    },
    {
      "inputs": [
        {
          "internalType": "uint32",
          "name": "destinationDomain",
          "type": "uint32"
        },
        {
          "internalType": "bytes32",
          "name": "mintRecipient",
          "type": "bytes32"
        },
        {
          "internalType": "uint256",
          "name": "amount",
          "type": "uint256"
        },
        {
          "internalType": "bool",
          "name": "useHook",
          "type": "bool"
        },
        {
          "internalType": "bytes32",
          "name": "destinationCaller",
          "type": "bytes32"
        },
        {
          "internalType": "uint256",
          "name": "maxFee",
          "type": "uint256"
        },
        {
          "internalType": "uint32",
          "name": "minFinality",
          "type": "uint32"
        },
        {
          "internalType": "bytes",
          "name": "hookData",
          "type": "bytes"
        }
      ],
      "name": "routeCCTP",
      "outputs": [
        {
          "internalType": "uint64",
          "name": "nonce",
          "type": "uint64"
        }
      ],
      "stateMutability": "nonpayable",
      "type": "function"
    },
    {
      "inputs": [
        {
          "internalType": "address",
          "name": "token",
          "type": "address"
        },
        {
          "internalType": "uint256",
          "name": "amount",
          "type": "uint256"
        },
        {
          "internalType": "address",
          "name": "depositor",
          "type": "address"
        },
        {
          "internalType": "bool",
          "name": "useDepositFor",
          "type": "bool"
        }
      ],
      "name": "routeGatewayDeposit",
      "outputs": [],
      "stateMutability": "nonpayable",
      "type": "function"
    },
    {
      "inputs": [
        {
          "internalType": "address",
          "name": "_ammFactory",
          "type": "address"
        }
      ],
      "name": "setAMMFactory",
      "outputs": [],
      "stateMutability": "nonpayable",
      "type": "function"
    },
    {
      "inputs": [
        {
          "internalType": "uint16",
          "name": "_feeBps",
          "type": "uint16"
        },
        {
          "internalType": "address",
          "name": "_feeCollector",
          "type": "address"
        }
      ],
      "name": "setFeeConfig",
      "outputs": [],
      "stateMutability": "nonpayable",
      "type": "function"
    },
    {
      "inputs": [
        {
          "internalType": "address",
          "name": "_gatewayWallet",
          "type": "address"
        }
      ],
      "name": "setGatewayWallet",
      "outputs": [],
      "stateMutability": "nonpayable",
      "type": "function"
    },
    {
      "inputs": [
        {
          "internalType": "address",
          "name": "_tokenMessenger",
          "type": "address"
        }
      ],
      "name": "setTokenMessenger",
      "outputs": [],
      "stateMutability": "nonpayable",
      "type": "function"
    },
    {
      "inputs": [
        {
          "internalType": "address",
          "name": "_vaultFactory",
          "type": "address"
        }
      ],
      "name": "setVaultFactory",
      "outputs": [],
      "stateMutability": "nonpayable",
      "type": "function"
    },
    {
      "inputs": [
        {
          "internalType": "address",
          "name": "tokenIn",
          "type": "address"
        },
        {
          "internalType": "address",
          "name": "tokenOut",
          "type": "address"
        },
        {
          "internalType": "uint256",
          "name": "amountIn",
          "type": "uint256"
        },
        {
          "internalType": "uint256",
          "name": "minAmountOut",
          "type": "uint256"
        },
        {
          "internalType": "address",
          "name": "recipient",
          "type": "address"
        },
        {
          "internalType": "uint256",
          "name": "deadline",
          "type": "uint256"
        }
      ],
      "name": "swapLocal",
      "outputs": [
        {
          "internalType": "uint256",
          "name": "amountOut",
          "type": "uint256"
        }
      ],
      "stateMutability": "nonpayable",
      "type": "function"
    },
    {
      "inputs": [],
      "name": "tokenMessenger",
      "outputs": [
        {
          "internalType": "contract ITokenMessenger",
          "name": "",
          "type": "address"
        }
      ],
      "stateMutability": "view",
      "type": "function"
    },
    {
      "inputs": [
        {
          "internalType": "address",
          "name": "newOwner",
          "type": "address"
        }
      ],
      "name": "transferOwnership",
      "outputs": [],
      "stateMutability": "nonpayable",
      "type": "function"
    },
    {
      "inputs": [],
      "name": "vaultFactory",
      "outputs": [
        {
          "internalType": "contract IVaultFactory",
          "name": "",
          "type": "address"
        }
      ],
      "stateMutability": "view",
      "type": "function"
    }
  ],
  "bytecode": "0x60c034620002f157601f62001ed038819003918201601f191683019291906001600160401b03841183851017620002f5578160c09284926040968752833981010312620002f157620000518162000309565b6020916200006183820162000309565b906200006f85820162000309565b916200007e6060830162000309565b9260808301519461ffff861693848703620002f15760a0620000a1910162000309565b5f8054336001600160a01b0319918216811783558b5196919593927f8be0079c531659141344cd1fd0a4f28419497f9722a3daafe3b4186f6b6457e08180a36001600160a01b03938416958615620002c357508316908115620002935783169485156200025a5794808a999895857f9e2f5c2330afb3c7cfcf473e62546420851afccbeaf15b45b799f048243170aa968e967fcdbce6c1426410c65374033254076f25f4fe27a9814df095590238327c6262ab9b967f7a3bb33d45e644591a57750d06ab2a57b66d5881c20c7447d4a32ac601657a119f9b60805260a05216978883600154161760015516998a8260025416176002556004549061ffff60a01b9060a01b169061ffff60a01b1916176004556005541617600555825191825285820152a18651908152a18351908152a151611bb190816200031f8239608051818181610297015281816102fc0152818161036a015281816103e501528181610494015281816105770152818161064b015281816106e7015281816109b6015281816112560152611a43015260a051818181610ff20152818161101e0152818161109c015281816110d00152818161116c0152611ab20152f35b8a5162461bcd60e51b8152600481018b905260126024820152714645455f434f4c4c4543544f525f5a45524f60701b6044820152606490fd5b8a5162461bcd60e51b8152600481018b90526009602482015268455552435f5a45524f60b81b6044820152606490fd5b62461bcd60e51b8152600481018b90526009602482015268555344435f5a45524f60b81b6044820152606490fd5b5f80fd5b634e487b7160e01b5f52604160045260245ffd5b51906001600160a01b0382168203620002f15756fe6080806040526004361015610012575f80fd5b5f90813560e01c908163131b4c0e1461171e575080631c2236f1146116a057806324a9d8531461167b57806335e856f2146116545780633ea7fbdb146115fa57806346117830146115d157806362ce977b146115115780636b39cf771461128557806389a30271146112405780638da5cb5b14611219578063a92bb10f1461119b578063aabfa37d14611156578063b78f6c2f14610946578063c415b95c1461091d578063cd1b7d6c146107ef578063d8a06f73146107c6578063dacda92f1461079d578063e0248ac1146106b8578063edc421fd146101fa578063f2fde38b146101855763f586384f14610105575f80fd5b34610182576020366003190112610182577fcdbce6c1426410c65374033254076f25f4fe27a9814df095590238327c6262ab6020610141611743565b83546001600160a01b03919061015a908316331461177e565b166101668115156117b6565b600180546001600160a01b03191682179055604051908152a180f35b80fd5b50346101825760203660031901126101825761019f611743565b81546001600160a01b03808216926101b833851461177e565b1680926101c68215156117b6565b7f8be0079c531659141344cd1fd0a4f28419497f9722a3daafe3b4186f6b6457e08580a36001600160a01b03191617815580f35b5034610182576101003660031901126101825763ffffffff60043581811681036106b4576044359161022a61176f565b60c4359382851685036106b45767ffffffffffffffff60e435116106b05736602360e4350112156106b05767ffffffffffffffff60e43560040135116106b05736602460e4356004013560e4350101116106b05761028981151561182b565b60243515610675576102bb907f0000000000000000000000000000000000000000000000000000000000000000611969565b80959195610638575b5060015460405163095ea7b360e01b81526001600160a01b039182166004820152602481018890529290602090849060449082908b907f0000000000000000000000000000000000000000000000000000000000000000165af192831561060e5761036593610619575b5060015460405163095ea7b360e01b81526001600160a01b0390911660048201526024810187905292602090849081906044820190565b03818a7f00000000000000000000000000000000000000000000000000000000000000006001600160a01b03165af192831561060e5784936105df575b50156105355760209060018060a01b036001541660405193849263779b432d60e01b84528860048501528188166024850152602435604485015260018060a01b037f0000000000000000000000000000000000000000000000000000000000000000166064850152608435608485015260a43560a48501521660c483015261010060e4830152818881610445610104820160e43560040135602460e43501611906565b03925af190811561052a579067ffffffffffffffff939291602096916104fd575b50915b60405194855216848401526024356040840152169081606082015260a0608082015260018060a01b037f000000000000000000000000000000000000000000000000000000000000000016907f773e4baf733f3d3a4e9745cd20ff83b01f933c4eae9bbf01bde61275a11bc37e3391806104f260a0820160e43560040135602460e43501611906565b0390a3604051908152f35b61051d9150863d8811610523575b610515818361188d565b8101906118e6565b5f610466565b503d61050b565b6040513d87823e3d90fd5b505083602060018060a01b03600154166084604051809481936337e9a82760e11b83528960048401528789166024840152602435604484015260018060a01b037f00000000000000000000000000000000000000000000000000000000000000001660648401525af190811561052a579067ffffffffffffffff939291602096916105c2575b5091610469565b6105d99150863d881161052357610515818361188d565b5f6105bb565b6106009060203d602011610607575b6105f8818361188d565b8101906118ce565b505f6103a2565b503d6105ee565b6040513d89823e3d90fd5b6106319060203d602011610607576105f8818361188d565b505f61032e565b60055461066f91906001600160a01b03167f0000000000000000000000000000000000000000000000000000000000000000611adc565b5f6102c4565b60405162461bcd60e51b81526020600482015260136024820152724d494e545f524543495049454e545f5a45524f60681b6044820152606490fd5b8580fd5b5f80fd5b5034610182576040366003190112610182576106d2611743565b6040516370a0823160e01b81523060048201527f00000000000000000000000000000000000000000000000000000000000000009160248035926001600160a01b03916020908290818589165afa8015610792578491879161075e575b5010159081610752575b50610742578380f35b61074b92611adc565b5f80808380f35b9050811615155f610739565b9150506020813d821161078a575b816107796020938361188d565b810103126106b4578390515f61072f565b3d915061076c565b6040513d88823e3d90fd5b50346101825780600319360112610182576003546040516001600160a01b039091168152602090f35b50346101825780600319360112610182576004546040516001600160a01b039091168152602090f35b50346101825760403660031901126101825760043561ffff81169081810361091957610819611759565b83546001600160a01b039190610832908316331461177e565b169182156108df576103e881116108ab577f9e2f5c2330afb3c7cfcf473e62546420851afccbeaf15b45b799f048243170aa926040926004549061ffff60a01b9060a01b169061ffff60a01b191617600455806bffffffffffffffffffffffff60a01b600554161760055582519182526020820152a180f35b60405162461bcd60e51b815260206004820152600c60248201526b08c8a8abea89e9ebe90928e960a31b6044820152606490fd5b60405162461bcd60e51b81526020600482015260126024820152714645455f434f4c4c4543544f525f5a45524f60701b6044820152606490fd5b8280fd5b50346101825780600319360112610182576005546040516001600160a01b039091168152602090f35b50346101825760c036600319011261018257610960611743565b90610969611759565b6001600160a01b036084358181169492908590036106b45761098c8515156117ee565b60449485359161099d83151561182b565b60a4354211611128578316938316928385146110f757807f00000000000000000000000000000000000000000000000000000000000000001680851496871597886110cc575b80156110c3575b8015611098575b1561105b57610a008587611969565b80999199611046575b50819284600454169182610f21575b505050818316978815610dd257604051634b60ce7760e01b8082526020959186816004818f5afa90811561052a579083918691610db5575b501689149182610d65575b8215610cac575b505015610c71576040519263095ea7b360e01b938481528a600482015283602482015285818d81878d5af18015610c6657610acb9287928592610c49575b506040518781526001600160a01b039091166004820152602481019190915291829081906044820190565b0381868c5af18015610c3e57610c21575b50604051906379f3754560e11b825287600483015260248201526064358a8201528460648201528381608481858d5af1908115610c16578291610be9575b5097604051928352600483015280602483015282828a81848a5af1908115610bdd5750610bbf575b50505b6064358510610b905760209550604051918252848683015260408201527f1898a1026b4cd267e5feda53dee6ee128febabf37bbeb28fe3c47eeea83c32c460603392a4604051908152f35b60405162461bcd60e51b8152602060048201526008602482015267534c49505041474560c01b81880152606490fd5b81610bd592903d10610607576105f8818361188d565b505f80610b42565b604051903d90823e3d90fd5b90508381813d8311610c0f575b610c00818361188d565b810103126106b457515f610b1a565b503d610bf6565b6040513d84823e3d90fd5b610c3790853d8711610607576105f8818361188d565b505f610adc565b6040513d85823e3d90fd5b610c5f90843d8611610607576105f8818361188d565b505f610aa0565b6040513d86823e3d90fd5b60405162461bcd60e51b81526004810185905260146024820152730ac82aa98a8bea89e968a9cbe9a92a69a82a886960631b818c0152606490fd5b604051631f209df760e11b81529192509086816004818f5afa90811561052a57828d9289928891610d48575b50168b149384610cee575b505050505f80610a62565b909192935060046040518094819382525afa908115610c66578491610d1b575b501688145f8a8682610ce3565b610d3b9150863d8811610d41575b610d33818361188d565b8101906118af565b5f610d0e565b503d610d29565b610d5f9150833d8511610d4157610d33818361188d565b5f610cd8565b604051631f209df760e11b815290925086816004818f5afa90811561052a579083918691610d98575b50168a1491610a5b565b610daf9150883d8a11610d4157610d33818361188d565b5f610d8e565b610dcc9150883d8a11610d4157610d33818361188d565b5f610a50565b91509296508160035416908115610eea5760405192839263298d501f60e11b8452876004850152886024850152838b60209586935afa93841561052a578594610ecb575b508316928315610e9d5790610e2d81849389611adc565b60848a866040519687948593631ba0488760e21b85528c60048601528d60248601528401528c60648401525af1928315610bdd5792610e6f575b505093610b45565b90809250813d8311610e96575b610e86818361188d565b810103126106b457515f80610e67565b503d610e7c565b60405162461bcd60e51b81526004810184905260076024820152661393d7d413d3d360ca1b818c0152606490fd5b610ee3919450833d8511610d4157610d33818361188d565b925f610e16565b60405162461bcd60e51b815260206004820152601060248201526f1393d7d59055531517d3d497d413d3d360821b818b0152606490fd5b8061101a575b15610f8557506024919250602090604051928380926301d735e760e31b82528a60048301525afa908115610c16578291610f67575b50905b5f8080610a18565b610f7f915060203d8111610d4157610d33818361188d565b5f610f5c565b88141580610fee575b610f99575b50610f5f565b6024919250602090604051928380926301d735e760e31b82528b60048301525afa908115610c16578291610fd0575b50905f610f93565b610fe8915060203d8111610d4157610d33818361188d565b5f610fc8565b50837f000000000000000000000000000000000000000000000000000000000000000016881415610f8e565b50847f000000000000000000000000000000000000000000000000000000000000000016881415610f27565b61105590856005541689611adc565b5f610a09565b60405162461bcd60e51b81526020600482015260166024820152754f4e455f4c45475f4d5553545f42455f535441424c4560501b818b0152606490fd5b50827f00000000000000000000000000000000000000000000000000000000000000001687146109f1565b508187146109ea565b50827f00000000000000000000000000000000000000000000000000000000000000001686146109e3565b60405162461bcd60e51b815260206004820152600a60248201526929a0a6a2afaa27a5a2a760b11b81890152606490fd5b60405162461bcd60e51b81526020600482015260076024820152661156141254915160ca1b81890152606490fd5b50346101825780600319360112610182576040517f00000000000000000000000000000000000000000000000000000000000000006001600160a01b03168152602090f35b5034610182576020366003190112610182577f7a3bb33d45e644591a57750d06ab2a57b66d5881c20c7447d4a32ac601657a1160206111d8611743565b83546001600160a01b0391906111f1908316331461177e565b166111fd8115156117b6565b600280546001600160a01b03191682179055604051908152a180f35b5034610182578060031936011261018257546040516001600160a01b039091168152602090f35b50346101825780600319360112610182576040517f00000000000000000000000000000000000000000000000000000000000000006001600160a01b03168152602090f35b50346101825760803660031901126101825761129f611743565b602435908290604435906001600160a01b038083169182840361150d5784906112c661176f565b94936112d388151561182b565b6112dc82611a36565b15611505575b6112ef8382169788611969565b809691966114f0575b5083600254166040519063095ea7b360e01b908183526004830152846024830152898260448160209c8d945af190811561052a5788928a926114d3575b5060025460405191825287166001600160a01b03166004820152602481019290925281604481878d5af18015610c66576114b6575b5015611407578260025416803b156109195760405163b3db428b60e01b81526001600160a01b03928316600482015291851660248301526044820186905282908290606490829084905af18015610c16576113f3575b50507f921654b8c2158ebc05629d4c303a63347a5dd7e3bc284889db0cfe5fd962ba6a915b60405193845216923392a480f35b6113fc90611865565b6106b057855f6113c0565b90826002949394541691823b156114b2576040516311f9fbc960e21b81526001600160a01b0391909116600482015260248101869052918290604490829084905af1801561060e5761147d575b50907f921654b8c2158ebc05629d4c303a63347a5dd7e3bc284889db0cfe5fd962ba6a916113e5565b956114aa7f921654b8c2158ebc05629d4c303a63347a5dd7e3bc284889db0cfe5fd962ba6a939297611865565b959091611454565b5080fd5b6114cc90883d8a11610607576105f8818361188d565b505f61136a565b6114e990833d8511610607576105f8818361188d565b505f611335565b6114ff9085600554168a611adc565b5f6112f8565b3393506112e2565b8480fd5b50346101825760803660031901126101825761152b611743565b611533611759565b906044359161158560018060a01b039161157283808316956115568715156117ee565b61156188151561182b565b61156a81611a36565b169586611969565b9093849291806115bc575b505085611adc565b60405190815260643560208201527fb9fcc4404867bc932fd7611431a17aaa3f95766eb5bd01d46c296ad8ce46840260403392a480f35b6115ca916005541688611adc565b5f8061157d565b50346101825780600319360112610182576001546040516001600160a01b039091168152602090f35b503461018257602036600319011261018257611614611743565b81546001600160a01b03919061162d908316331461177e565b166116398115156117b6565b6bffffffffffffffffffffffff60a01b600454161760045580f35b5034610182576020366003190112610182576020611673600435611926565b604051908152f35b5034610182578060031936011261018257602061ffff60045460a01c16604051908152f35b5034610182576020366003190112610182577fee6e8af5ea26ad906c28e6e8c421c990111039169988f75cab1fc2983f0ffda360206116dd611743565b83546001600160a01b0391906116f6908316331461177e565b166117028115156117b6565b600380546001600160a01b03191682179055604051908152a180f35b9050346114b257816003193601126114b2576002546001600160a01b03168152602090f35b600435906001600160a01b03821682036106b457565b602435906001600160a01b03821682036106b457565b6064359081151582036106b457565b1561178557565b60405162461bcd60e51b81526020600482015260096024820152682727aa2fa7aba722a960b91b6044820152606490fd5b156117bd57565b60405162461bcd60e51b81526020600482015260096024820152682d22a927afa0a2222960b91b6044820152606490fd5b156117f557565b60405162461bcd60e51b815260206004820152600e60248201526d524543495049454e545f5a45524f60901b6044820152606490fd5b1561183257565b60405162461bcd60e51b815260206004820152600b60248201526a414d4f554e545f5a45524f60a81b6044820152606490fd5b67ffffffffffffffff811161187957604052565b634e487b7160e01b5f52604160045260245ffd5b90601f8019910116810190811067ffffffffffffffff82111761187957604052565b908160209103126106b457516001600160a01b03811681036106b45790565b908160209103126106b4575180151581036106b45790565b908160209103126106b4575167ffffffffffffffff811681036106b45790565b908060209392818452848401375f828201840152601f01601f1916010190565b61ffff60045460a01c169081156119635781810291818304149015171561194f57612710900490565b634e487b7160e01b5f52601160045260245ffd5b50505f90565b909161197483611926565b918284039084821161194f576040516323b872dd60e01b81523360048201523060248201526044810195909552909390602090829060649082905f906001600160a01b03165af1908115611a2b575f91611a0d575b50156119d157565b60405162461bcd60e51b81526020600482015260146024820152731514905394d1915497d19493d357d1905253115160621b6044820152606490fd5b611a25915060203d8111610607576105f8818361188d565b5f6119c9565b6040513d5f823e3d90fd5b6001600160a01b039081167f000000000000000000000000000000000000000000000000000000000000000082168114918215611ab0575b505015611a7757565b60405162461bcd60e51b81526020600482015260116024820152702aa729aaa82827a92a22a22faa27a5a2a760791b6044820152606490fd5b7f0000000000000000000000000000000000000000000000000000000000000000161490505f80611a6e565b60405163a9059cbb60e01b81526001600160a01b0392831660048201526024810193909352602091839160449183915f91165af1908115611a2b575f91611b5d575b5015611b2657565b60405162461bcd60e51b815260206004820152600f60248201526e1514905394d1915497d19052531151608a1b6044820152606490fd5b611b75915060203d8111610607576105f8818361188d565b5f611b1e56fea2646970667358221220e8c9eacff51be6df434a684573d0047fd20272b947e38ceeb1272f9df9f4c6a564736f6c63430008140033",
  "linkReferences": {},
  "deployedLinkReferences": {},
  "immutableReferences": {
    "4063": [
      {
        "length": 32,
        "start": 663
      },
      {
        "length": 32,
        "start": 764
      },
      {
        "length": 32,
        "start": 874
      },
      {
        "length": 32,
        "start": 997
      },
      {
        "length": 32,
        "start": 1172
      },
      {
        "length": 32,
        "start": 1399
      },
      {
        "length": 32,
        "start": 1611
      },
      {
        "length": 32,
        "start": 1767
      },
      {
        "length": 32,
        "start": 2486
      },
      {
        "length": 32,
        "start": 4694
      },
      {
        "length": 32,
        "start": 6723
      }
    ],
    "4066": [
      {
        "length": 32,
        "start": 4082
      },
      {
        "length": 32,
        "start": 4126
      },
      {
        "length": 32,
        "start": 4252
      },
      {
        "length": 32,
        "start": 4304
      },
      {
        "length": 32,
        "start": 4460
      },
      {
        "length": 32,
        "start": 6834
      }
    ]
  },
  "inputSourceName": "project/core/ArcMetaRouter.sol",
  "buildInfoId": "solc-0_8_20-d28463d23b44ac532776f4a9192ef718a5c6bac4"
}