{"project/core/TokenRegistry.sol":{"TokenRegistry":{"abi":[{"inputs":[],"stateMutability":"nonpayable","type":"constructor"},{"inputs":[],"name":"ChainNotActive","type":"error"},{"inputs":[],"name":"InvalidAddress","type":"error"},{"inputs":[],"name":"InvalidChainId","type":"error"},{"inputs":[],"name":"OnlyGovernance","type":"error"},{"inputs":[],"name":"TokenAlreadyRegistered","type":"error"},{"inputs":[],"name":"TokenNotRegistered","type":"error"},{"anonymous":false,"inputs":[{"indexed":true,"internalType":"uint32","name":"chainId","type":"uint32"},{"indexed":false,"internalType":"address","name":"gatewayWallet","type":"address"}],"name":"ChainRegistered","type":"event"},{"anonymous":false,"inputs":[{"indexed":true,"internalType":"uint32","name":"chainId","type":"uint32"},{"indexed":false,"internalType":"bool","name":"active","type":"bool"},{"indexed":false,"internalType":"address","name":"gatewayWallet","type":"address"}],"name":"ChainUpdated","type":"event"},{"anonymous":false,"inputs":[{"indexed":true,"internalType":"address","name":"previousGovernance","type":"address"},{"indexed":true,"internalType":"address","name":"newGovernance","type":"address"}],"name":"GovernanceTransferred","type":"event"},{"anonymous":false,"inputs":[{"indexed":true,"internalType":"bytes32","name":"tokenId","type":"bytes32"},{"indexed":true,"internalType":"uint32","name":"chainId","type":"uint32"},{"indexed":false,"internalType":"address","name":"tokenAddress","type":"address"},{"indexed":false,"internalType":"address","name":"vaultAddress","type":"address"},{"indexed":false,"internalType":"string","name":"symbol","type":"string"}],"name":"TokenRegistered","type":"event"},{"anonymous":false,"inputs":[{"indexed":true,"internalType":"bytes32","name":"tokenId","type":"bytes32"},{"indexed":true,"internalType":"uint32","name":"chainId","type":"uint32"}],"name":"TokenUnregistered","type":"event"},{"anonymous":false,"inputs":[{"indexed":true,"internalType":"bytes32","name":"tokenId","type":"bytes32"},{"indexed":true,"internalType":"uint32","name":"chainId","type":"uint32"},{"indexed":false,"internalType":"address","name":"oldVault","type":"address"},{"indexed":false,"internalType":"address","name":"newVault","type":"address"}],"name":"VaultUpdated","type":"event"},{"inputs":[],"name":"acceptGovernance","outputs":[],"stateMutability":"nonpayable","type":"function"},{"inputs":[{"internalType":"uint256","name":"","type":"uint256"}],"name":"chainIds","outputs":[{"internalType":"uint32","name":"","type":"uint32"}],"stateMutability":"view","type":"function"},{"inputs":[{"internalType":"uint32","name":"","type":"uint32"}],"name":"chains","outputs":[{"internalType":"uint32","name":"chainId","type":"uint32"},{"internalType":"bool","name":"active","type":"bool"},{"internalType":"address","name":"gatewayWallet","type":"address"},{"internalType":"string","name":"rpcUrl","type":"string"}],"stateMutability":"view","type":"function"},{"inputs":[],"name":"getAllChains","outputs":[{"internalType":"uint32[]","name":"","type":"uint32[]"}],"stateMutability":"view","type":"function"},{"inputs":[],"name":"getAllTokens","outputs":[{"internalType":"bytes32[]","name":"","type":"bytes32[]"}],"stateMutability":"view","type":"function"},{"inputs":[{"internalType":"uint32","name":"chainId","type":"uint32"}],"name":"getGatewayWallet","outputs":[{"internalType":"address","name":"gatewayWallet","type":"address"}],"stateMutability":"view","type":"function"},{"inputs":[{"internalType":"bytes32","name":"tokenId","type":"bytes32"}],"name":"getTokenChains","outputs":[{"internalType":"uint32[]","name":"registeredChainIds","type":"uint32[]"}],"stateMutability":"view","type":"function"},{"inputs":[{"internalType":"string","name":"symbol","type":"string"}],"name":"getTokenId","outputs":[{"internalType":"bytes32","name":"","type":"bytes32"}],"stateMutability":"pure","type":"function"},{"inputs":[{"internalType":"bytes32","name":"tokenId","type":"bytes32"},{"internalType":"uint32","name":"chainId","type":"uint32"}],"name":"getTokenInfo","outputs":[{"components":[{"internalType":"bool","name":"registered","type":"bool"},{"internalType":"string","name":"symbol","type":"string"},{"internalType":"string","name":"name","type":"string"},{"internalType":"uint8","name":"decimals","type":"uint8"},{"internalType":"address","name":"vaultAddress","type":"address"}],"internalType":"struct TokenRegistry.TokenInfo","name":"info","type":"tuple"}],"stateMutability":"view","type":"function"},{"inputs":[{"internalType":"bytes32","name":"tokenId","type":"bytes32"},{"internalType":"uint32","name":"chainId","type":"uint32"}],"name":"getVault","outputs":[{"internalType":"address","name":"vaultAddress","type":"address"}],"stateMutability":"view","type":"function"},{"inputs":[],"name":"governance","outputs":[{"internalType":"address","name":"","type":"address"}],"stateMutability":"view","type":"function"},{"inputs":[{"internalType":"bytes32","name":"tokenId","type":"bytes32"},{"internalType":"uint32","name":"chainId","type":"uint32"}],"name":"isTokenRegistered","outputs":[{"internalType":"bool","name":"","type":"bool"}],"stateMutability":"view","type":"function"},{"inputs":[],"name":"pendingGovernance","outputs":[{"internalType":"address","name":"","type":"address"}],"stateMutability":"view","type":"function"},{"inputs":[{"internalType":"uint32","name":"chainId","type":"uint32"},{"internalType":"address","name":"gatewayWallet","type":"address"},{"internalType":"string","name":"rpcUrl","type":"string"}],"name":"registerChain","outputs":[],"stateMutability":"nonpayable","type":"function"},{"inputs":[{"internalType":"bytes32","name":"tokenId","type":"bytes32"},{"internalType":"uint32","name":"chainId","type":"uint32"},{"internalType":"address","name":"tokenAddress","type":"address"},{"internalType":"address","name":"vaultAddress","type":"address"},{"internalType":"string","name":"symbol","type":"string"},{"internalType":"string","name":"name","type":"string"},{"internalType":"uint8","name":"decimals","type":"uint8"}],"name":"registerToken","outputs":[],"stateMutability":"nonpayable","type":"function"},{"inputs":[{"internalType":"uint256","name":"","type":"uint256"}],"name":"tokenIds","outputs":[{"internalType":"bytes32","name":"","type":"bytes32"}],"stateMutability":"view","type":"function"},{"inputs":[{"internalType":"bytes32","name":"","type":"bytes32"},{"internalType":"uint32","name":"","type":"uint32"}],"name":"tokens","outputs":[{"internalType":"bool","name":"registered","type":"bool"},{"internalType":"string","name":"symbol","type":"string"},{"internalType":"string","name":"name","type":"string"},{"internalType":"uint8","name":"decimals","type":"uint8"},{"internalType":"address","name":"vaultAddress","type":"address"}],"stateMutability":"view","type":"function"},{"inputs":[{"internalType":"address","name":"newGovernance","type":"address"}],"name":"transferGovernance","outputs":[],"stateMutability":"nonpayable","type":"function"},{"inputs":[{"internalType":"bytes32","name":"tokenId","type":"bytes32"},{"internalType":"uint32","name":"chainId","type":"uint32"}],"name":"unregisterToken","outputs":[],"stateMutability":"nonpayable","type":"function"},{"inputs":[{"internalType":"uint32","name":"chainId","type":"uint32"},{"internalType":"bool","name":"active","type":"bool"},{"internalType":"address","name":"gatewayWallet","type":"address"}],"name":"updateChain","outputs":[],"stateMutability":"nonpayable","type":"function"},{"inputs":[{"internalType":"bytes32","name":"tokenId","type":"bytes32"},{"internalType":"uint32","name":"chainId","type":"uint32"},{"internalType":"address","name":"newVaultAddress","type":"address"}],"name":"updateVault","outputs":[],"stateMutability":"nonpayable","type":"function"}],"evm":{"bytecode":{"linkReferences":{},"object":"60808060405234610027575f80546001600160a01b0319163317905561191d908161002c8239f35b5f80fdfe60808060405260049081361015610014575f80fd5b60e0905f35821c9081630c0560191461152b575080631e7663bc146114cc57806321d930901461148f578063238efcbc1461141d5780632a5c792a1461136a5780635aa6e675146113435780636757572d146112d9578063761f301e146111865780638b203dd41461110f5780638f8bd31014611000578063961983c114610f015780639ca220dd14610d27578063a52b9d0c14610bf7578063afcb4b5b14610b4c578063cffb01eb14610a98578063d38bfff414610a26578063d4ca80bd146109a4578063d58778d61461096e578063f287dd281461066e578063f39c38a0146106465763ff556fd514610107575f80fd5b34610642573660031901126106425761011e61156e565b6101266117be565b606435906001600160a01b03821682036106425760843567ffffffffffffffff8111610642576101599036908601611594565b939060a43567ffffffffffffffff81116106425761017a9036908801611594565b9060c43560ff81168103610642575f546001600160a01b03163303610631576001600160a01b038616156106205763ffffffff85165f52600360205260ff60405f205460201c161561060f5788355f52600260205260405f2063ffffffff86165f5260205260ff60405f2054166105fe5761021960ff92604051946101fe8661168d565b6001865261020d368c89611809565b60208701523691611809565b604084015216606082015260018060a01b038516608082015286355f52600260205260405f2063ffffffff84165f5260205260405f208151151560ff80198354169116178155602082015180519067ffffffffffffffff821161053f5781906102856001850154611655565b601f81116105cb575b50602090601f831160011461055d575f92610552575b50508160011b915f199060031b1c19161760018201555b604082015180519067ffffffffffffffff821161053f579082916102e560028b9796950154611655565b601f8111610501575b50602090601f831160011461048c57918061035e9594926003945f92610481575b50508160011b915f1990851b1c19161760028201555b606083015191018054608090930151610100600160a81b0360089190911b1660ff9092166001600160a81b031990931692909217179055565b86355f52600660205260ff60405f205416156103e8575b604080516001600160a01b03958616815294909516602085015260609484018590529383018190527f151659ae539358f0cfa6dd1db120a40ed15867662cb099822a3b4bbd2d0becb793608092849263ffffffff92848601375f83880185015216953594601f01601f19168101030190a3005b90508554600160401b81101561046e57608092867f151659ae539358f0cfa6dd1db120a40ed15867662cb099822a3b4bbd2d0becb796959361043484600163ffffffff96018c556117d4565b81549060031b908c35821b915f19901b191617905589355f52600660205260405f20600160ff198254161790559250929495509250610375565b604187634e487b7160e01b5f525260245ffd5b015190505f8061030f565b90600284015f5260205f20915f5b601f19851681106104e657509261035e95949260019260039583601f198116106104cf575b505050811b016002820155610325565b01515f1983871b60f8161c191690555f80806104bf565b8183015184558c98506001909301926020928301920161049a565b61052f90600285015f5260205f20601f850160051c81019160208610610535575b601f0160051c019061184f565b5f6102ee565b9091508190610522565b60418a634e487b7160e01b5f525260245ffd5b015190505f806102a4565b9250600184015f5260205f20905f935b601f19841685106105b0576001945083601f19811610610598575b505050811b0160018201556102bb565b01515f1960f88460031b161c191690555f8080610588565b8181015183556020948501946001909301929091019061056d565b6105f890600186015f5260205f20601f850160051c8101916020861061053557601f0160051c019061184f565b5f61028e565b604051633ea7ffd960e11b81528990fd5b60405163296be49760e21b81528990fd5b60405163e6c4247b60e01b81528990fd5b6040516354348f0360e01b81528990fd5b5f80fd5b34610642575f366003190112610642576001546040516001600160a01b039091168152602090f35b823461064257606036600319011261064257610688611581565b906024356001600160a01b03818116918290036106425767ffffffffffffffff91604435838111610642576106c09036908601611594565b835f9792975416330361095d5763ffffffff80921694851561094c57604051976080890198808a10838b1117610939576107229596979899604052888152610791602098898301956107676001998a96878a5260408701938d85523691611809565b97606086019889528d5f5260038d528960405f2096511663ffffffff19875416178655511515859064ff00000000825491151560201b169064ff000000001916179055565b51835465010000000000600160c81b031916911660281b65010000000000600160c81b0316178255565b01915180519182116109395781906107a98454611655565b601f811161090b575b508790601f83116001146108ac575f926108a1575b50505f19600383901b1c191690841b1790555b845f526007845260ff60405f2054161561081c575b847faf4c7a1eaeb9cd699778ecd10669652bb003fffcf9ed1ef69012b632a22809248585604051908152a2005b60055495600160401b87101561088e575061085e86837faf4c7a1eaeb9cd699778ecd10669652bb003fffcf9ed1ef69012b632a22809249798016005556115c2565b819291549060031b9188831b921b1916179055845f526007835260405f209060ff198254161790558392856107ef565b604190634e487b7160e01b5f525260245ffd5b0151905089806107c7565b90869350601f19831691855f52895f20925f5b8b8282106108f557505084116108dd575b505050811b0190556107da565b01515f1960f88460031b161c191690558980806108d0565b8385015186558a979095019493840193016108bf565b61093390855f52895f20601f850160051c8101918b861061053557601f0160051c019061184f565b8a6107b2565b604189634e487b7160e01b5f525260245ffd5b604051633d23e4d160e11b81528790fd5b6040516354348f0360e01b81528690fd5b82346106425760203660031901126106425780359054811015610642576109966020916117d4565b90546040519160031b1c8152f35b82346106425760403660031901126106425780356109c061156e565b91815f52600260205263ffffffff60405f20931692835f5260205260ff60405f20541615610a1757505f52600260205260405f20905f52602052602060018060a01b03600360405f20015460081c16604051908152f35b60405163259ba1ad60e01b8152fd5b82346106425760203660031901126106425780356001600160a01b038181169291839003610642575f54163303610a89578115610a7a57506bffffffffffffffffffffffff60a01b60015416176001555f80f35b60405163e6c4247b60e01b8152fd5b6040516354348f0360e01b8152fd5b8234610642576040366003190112610642578035610ab461156e565b5f549092906001600160a01b03163303610a8957815f52600260205263ffffffff60405f20931692835f5260205260ff60405f20541615610a175750805f52600260205260405f20825f526020525f600360408220828155610b1860018201611865565b610b2460028201611865565b01557fcfb1e5ee9d13afeb8dbbc65301bcc2cc29e45f57d58ba5c5f833487d6565ae335f80a3005b823461064257604036600319011261064257610b6661156e565b90355f52600260205263ffffffff60405f2091165f5260205260405f2060ff815416610b94600183016116df565b91610bd66003610ba6600284016116df565b92015491610bc86040519586951515865260a0602087015260a0860190611780565b908482036040860152611780565b60ff8216606084015260089190911c6001600160a01b031660808301520390f35b8234610642576040366003190112610642578035610c1361156e565b9060405192610c218461168d565b5f84525f6080602095606087820152606060408201528260608201520152815f526002845263ffffffff60405f20931692835f52845260ff60405f20541615610a1757505f526002825260405f20905f52815260405f2060405190610c858261168d565b60ff81541615158252610c9a600182016116df565b8383019081526003610cae600284016116df565b926040850193845201549060ff610d1460608601948285168652610d01608088019460018060a01b03809760081c168652604051998a99818b52511515908a01525160a060408a015260c0890190611780565b9051878203601f19016060890152611780565b9351166080850152511660a08301520390f35b5034610642575f36600319011261064257604051600580548083525f91825260209384840192917f036b6384b5eca791c62761152d0c79bb0604c104a5fb6f4eb0703f3154bb3db05b816007850110610e9b5792610de09692610dd495928795549285828210610e85575b828210610e6d575b828210610e54575b828210610e3b575b828210610e22575b828210610e09575b828210610df0575b5010610de4575b5050905003826116bd565b60405191829182611615565b0390f35b1c815201808680610dc9565b6001919563ffffffff8660c01c16815201940185610dc2565b6001919563ffffffff8660a01c16815201940185610dba565b6001919563ffffffff8660801c16815201940185610db2565b6001919563ffffffff8660601c16815201940185610daa565b6001919563ffffffff8660401c16815201940185610da2565b6001919563ffffffff86831c16815201940185610d9a565b6001919563ffffffff8616815201940185610d92565b936001610100600892875463ffffffff808216835280828d1c168c840152808260401c16604084015260608183821c169084015260808183821c169084015260a08183821c169084015260c09082821c1690830152861c86820152019501930192610d70565b8234610642576060366003190112610642578035610f1d61156e565b91610f266117be565b5f549091906001600160a01b039081163303610ff057835f526020916002835263ffffffff60405f20961695865f52835260ff60405f20541615610a175750916040917f7cc512d405c355b34c92d270e81da2c062bb0011c2eb3ed93a6bcf27c21de04a93855f5260028252835f20875f528252806003855f20015460081c1692865f5260028352845f20885f528352610fe3816003875f200190815490610100600160a81b039060081b1690610100600160a81b031916179055565b84519384521690820152a3005b506040516354348f0360e01b8152fd5b82346106425760603660031901126106425761101a611581565b906024359081151591828103610642576110326117be565b5f5490926001600160a01b039182163303610a895763ffffffff80961695865f52600360205260405f205416156111005750917f4f66e46288b376a7d88aea92143990d3aad883e4728b6901cdd34e01be854dad9391604093865f5260036020526110b9855f2092839064ff00000000825491151560201b169064ff000000001916179055565b821691826110d1575b505082519182526020820152a2005b815465010000000000600160c81b03191660289190911b65010000000000600160c81b031617905585806110c2565b604051633d23e4d160e11b8152fd5b346106425760203660031901126106425763ffffffff8061112e611581565b165f52600360205260405f2090610de061114c6001845494016116df565b6040519384938116845260ff8160201c161515602085015260018060a01b039060281c166040840152608060608401526080830190611780565b82346106425760209081600319360112610642578035915f915f9160058054935b84811061128457506111b8856118cf565b946111c660405196876116bd565b8086526111d5601f19916118cf565b0136838701375f955f5b8581106111f45760405180610de08982611615565b815f526002845260405f20611208826115c2565b909163ffffffff809354600393841b1c165f52865260ff60405f20541661123a575b5050611235906118ad565b6111df565b611245839a936115c2565b9054911b1c1687518210156112715781611269918661123594871b8b0101526118ad565b97908961122a565b603286634e487b7160e01b5f525260245ffd5b865f526002835260405f2063ffffffff61129d836115c2565b90549060031b1c165f52835260ff60405f2054166112c4575b6112bf906118ad565b6111a7565b946112d16112bf916118ad565b9590506112b6565b82346106425760203660031901126106425763ffffffff6112f8611581565b1690815f52600360205260ff60405f205460201c161561133457505f526003602052602060018060a01b0360405f205460281c16604051908152f35b60405163296be49760e21b8152fd5b34610642575f366003190112610642575f546040516001600160a01b039091168152602090f35b8234610642575f36600319011261064257604051908190805480845260208094019081925f527f8a35acfbc15ff81a39ae7d344fd709f28e8600b4aa8c65c6b64bfe7fe36bd19b905f5b868282106114095786866113ca828803836116bd565b60405192839281840190828552518091526040840192915f5b8281106113f257505050500390f35b8351855286955093810193928101926001016113e3565b8354855290930192600192830192016113b4565b8234610642575f366003190112610642576001546001600160a01b038082169290919033849003610a8957505f54906bffffffffffffffffffffffff60a01b9084828416175f5516600155167f5f56bee8cffbe9a78652a74a60705edede02af10b0bbb888ca44b79a0d42ce805f80a3005b823461064257602036600319011261064257356005548110156106425763ffffffff6114bc6020926115c2565b9190546040519260031b1c168152f35b823461064257602036600319011261064257803567ffffffffffffffff8111610642576020916114fe91369101611594565b6115208360405183819483830196873781015f838201520380845201826116bd565b519020604051908152f35b8390346106425760403660031901126106425760209161154961156e565b90355f526002835263ffffffff60405f2091165f52825260ff60405f20541615158152f35b6024359063ffffffff8216820361064257565b6004359063ffffffff8216820361064257565b9181601f840112156106425782359167ffffffffffffffff8311610642576020838186019501011161064257565b906005548210156116015760055f52601c8260031c7f036b6384b5eca791c62761152d0c79bb0604c104a5fb6f4eb0703f3154bb3db0019260021b1690565b634e487b7160e01b5f52603260045260245ffd5b602090816040818301928281528551809452019301915f5b82811061163b575050505090565b835163ffffffff168552938101939281019260010161162d565b90600182811c92168015611683575b602083101461166f57565b634e487b7160e01b5f52602260045260245ffd5b91607f1691611664565b60a0810190811067ffffffffffffffff8211176116a957604052565b634e487b7160e01b5f52604160045260245ffd5b90601f8019910116810190811067ffffffffffffffff8211176116a957604052565b9060405191825f8254926116f284611655565b9081845260019485811690815f1461175d575060011461171d575b505061171b925003836116bd565b565b909391505f52602090815f20935f915b81831061174557505061171b93508201015f8061170d565b8554888401850152948501948794509183019161172d565b91505061171b94506020925060ff191682840152151560051b8201015f8061170d565b91908251928382525f5b8481106117aa575050825f602080949584010152601f8019910116010190565b60208183018101518483018201520161178a565b604435906001600160a01b038216820361064257565b6004548110156116015760045f527f8a35acfbc15ff81a39ae7d344fd709f28e8600b4aa8c65c6b64bfe7fe36bd19b01905f90565b92919267ffffffffffffffff82116116a95760405191611833601f8201601f1916602001846116bd565b829481845281830111610642578281602093845f960137010152565b81811061185a575050565b5f815560010161184f565b61186f8154611655565b9081611879575050565b81601f5f931160011461188a575055565b9080839182526118a9601f60208420940160051c84016001850161184f565b5555565b5f1981146118bb5760010190565b634e487b7160e01b5f52601160045260245ffd5b67ffffffffffffffff81116116a95760051b6020019056fea2646970667358221220d7f63385d56e2da818b4aabbe38a8d3041ee44e8fddb3c86a51f661b1873d0bf64736f6c63430008140033","opcodes":"PUSH1 0x80 DUP1 PUSH1 0x40 MSTORE CALLVALUE PUSH2 0x27 JUMPI PUSH0 DUP1 SLOAD PUSH1 0x1 PUSH1 0x1 PUSH1 0xA0 SHL SUB NOT AND CALLER OR SWAP1 SSTORE PUSH2 0x191D SWAP1 DUP2 PUSH2 0x2C DUP3 CODECOPY RETURN JUMPDEST PUSH0 DUP1 REVERT INVALID PUSH1 0x80 DUP1 PUSH1 0x40 MSTORE PUSH1 0x4 SWAP1 DUP2 CALLDATASIZE LT ISZERO PUSH2 0x14 JUMPI PUSH0 DUP1 REVERT JUMPDEST PUSH1 0xE0 SWAP1 PUSH0 CALLDATALOAD DUP3 SHR SWAP1 DUP2 PUSH4 0xC056019 EQ PUSH2 0x152B JUMPI POP DUP1 PUSH4 0x1E7663BC EQ PUSH2 0x14CC JUMPI DUP1 PUSH4 0x21D93090 EQ PUSH2 0x148F JUMPI DUP1 PUSH4 0x238EFCBC EQ PUSH2 0x141D JUMPI DUP1 PUSH4 0x2A5C792A EQ PUSH2 0x136A JUMPI DUP1 PUSH4 0x5AA6E675 EQ PUSH2 0x1343 JUMPI DUP1 PUSH4 0x6757572D EQ PUSH2 0x12D9 JUMPI DUP1 PUSH4 0x761F301E EQ PUSH2 0x1186 JUMPI DUP1 PUSH4 0x8B203DD4 EQ PUSH2 0x110F JUMPI DUP1 PUSH4 0x8F8BD310 EQ PUSH2 0x1000 JUMPI DUP1 PUSH4 0x961983C1 EQ PUSH2 0xF01 JUMPI DUP1 PUSH4 0x9CA220DD EQ PUSH2 0xD27 JUMPI DUP1 PUSH4 0xA52B9D0C EQ PUSH2 0xBF7 JUMPI DUP1 PUSH4 0xAFCB4B5B EQ PUSH2 0xB4C JUMPI DUP1 PUSH4 0xCFFB01EB EQ PUSH2 0xA98 JUMPI DUP1 PUSH4 0xD38BFFF4 EQ PUSH2 0xA26 JUMPI DUP1 PUSH4 0xD4CA80BD EQ PUSH2 0x9A4 JUMPI DUP1 PUSH4 0xD58778D6 EQ PUSH2 0x96E JUMPI DUP1 PUSH4 0xF287DD28 EQ PUSH2 0x66E JUMPI DUP1 PUSH4 0xF39C38A0 EQ PUSH2 0x646 JUMPI PUSH4 0xFF556FD5 EQ PUSH2 0x107 JUMPI PUSH0 DUP1 REVERT JUMPDEST CALLVALUE PUSH2 0x642 JUMPI CALLDATASIZE PUSH1 0x3 NOT ADD SLT PUSH2 0x642 JUMPI PUSH2 0x11E PUSH2 0x156E JUMP JUMPDEST PUSH2 0x126 PUSH2 0x17BE JUMP JUMPDEST PUSH1 0x64 CALLDATALOAD SWAP1 PUSH1 0x1 PUSH1 0x1 PUSH1 0xA0 SHL SUB DUP3 AND DUP3 SUB PUSH2 0x642 JUMPI PUSH1 0x84 CALLDATALOAD PUSH8 0xFFFFFFFFFFFFFFFF DUP2 GT PUSH2 0x642 JUMPI PUSH2 0x159 SWAP1 CALLDATASIZE SWAP1 DUP7 ADD PUSH2 0x1594 JUMP JUMPDEST SWAP4 SWAP1 PUSH1 0xA4 CALLDATALOAD PUSH8 0xFFFFFFFFFFFFFFFF DUP2 GT PUSH2 0x642 JUMPI PUSH2 0x17A SWAP1 CALLDATASIZE SWAP1 DUP9 ADD PUSH2 0x1594 JUMP JUMPDEST SWAP1 PUSH1 0xC4 CALLDATALOAD PUSH1 0xFF DUP2 AND DUP2 SUB PUSH2 0x642 JUMPI PUSH0 SLOAD PUSH1 0x1 PUSH1 0x1 PUSH1 0xA0 SHL SUB AND CALLER SUB PUSH2 0x631 JUMPI PUSH1 0x1 PUSH1 0x1 PUSH1 0xA0 SHL SUB DUP7 AND ISZERO PUSH2 0x620 JUMPI PUSH4 0xFFFFFFFF DUP6 AND PUSH0 MSTORE PUSH1 0x3 PUSH1 0x20 MSTORE PUSH1 0xFF PUSH1 0x40 PUSH0 KECCAK256 SLOAD PUSH1 0x20 SHR AND ISZERO PUSH2 0x60F JUMPI DUP9 CALLDATALOAD PUSH0 MSTORE PUSH1 0x2 PUSH1 0x20 MSTORE PUSH1 0x40 PUSH0 KECCAK256 PUSH4 0xFFFFFFFF DUP7 AND PUSH0 MSTORE PUSH1 0x20 MSTORE PUSH1 0xFF PUSH1 0x40 PUSH0 KECCAK256 SLOAD AND PUSH2 0x5FE JUMPI PUSH2 0x219 PUSH1 0xFF SWAP3 PUSH1 0x40 MLOAD SWAP5 PUSH2 0x1FE DUP7 PUSH2 0x168D JUMP JUMPDEST PUSH1 0x1 DUP7 MSTORE PUSH2 0x20D CALLDATASIZE DUP13 DUP10 PUSH2 0x1809 JUMP JUMPDEST PUSH1 0x20 DUP8 ADD MSTORE CALLDATASIZE SWAP2 PUSH2 0x1809 JUMP JUMPDEST PUSH1 0x40 DUP5 ADD MSTORE AND PUSH1 0x60 DUP3 ADD MSTORE PUSH1 0x1 DUP1 PUSH1 0xA0 SHL SUB DUP6 AND PUSH1 0x80 DUP3 ADD MSTORE DUP7 CALLDATALOAD PUSH0 MSTORE PUSH1 0x2 PUSH1 0x20 MSTORE PUSH1 0x40 PUSH0 KECCAK256 PUSH4 0xFFFFFFFF DUP5 AND PUSH0 MSTORE PUSH1 0x20 MSTORE PUSH1 0x40 PUSH0 KECCAK256 DUP2 MLOAD ISZERO ISZERO PUSH1 0xFF DUP1 NOT DUP4 SLOAD AND SWAP2 AND OR DUP2 SSTORE PUSH1 0x20 DUP3 ADD MLOAD DUP1 MLOAD SWAP1 PUSH8 0xFFFFFFFFFFFFFFFF DUP3 GT PUSH2 0x53F JUMPI DUP2 SWAP1 PUSH2 0x285 PUSH1 0x1 DUP6 ADD SLOAD PUSH2 0x1655 JUMP JUMPDEST PUSH1 0x1F DUP2 GT PUSH2 0x5CB JUMPI JUMPDEST POP PUSH1 0x20 SWAP1 PUSH1 0x1F DUP4 GT PUSH1 0x1 EQ PUSH2 0x55D JUMPI PUSH0 SWAP3 PUSH2 0x552 JUMPI JUMPDEST POP POP DUP2 PUSH1 0x1 SHL SWAP2 PUSH0 NOT SWAP1 PUSH1 0x3 SHL SHR NOT AND OR PUSH1 0x1 DUP3 ADD SSTORE JUMPDEST PUSH1 0x40 DUP3 ADD MLOAD DUP1 MLOAD SWAP1 PUSH8 0xFFFFFFFFFFFFFFFF DUP3 GT PUSH2 0x53F JUMPI SWAP1 DUP3 SWAP2 PUSH2 0x2E5 PUSH1 0x2 DUP12 SWAP8 SWAP7 SWAP6 ADD SLOAD PUSH2 0x1655 JUMP JUMPDEST PUSH1 0x1F DUP2 GT PUSH2 0x501 JUMPI JUMPDEST POP PUSH1 0x20 SWAP1 PUSH1 0x1F DUP4 GT PUSH1 0x1 EQ PUSH2 0x48C JUMPI SWAP2 DUP1 PUSH2 0x35E SWAP6 SWAP5 SWAP3 PUSH1 0x3 SWAP5 PUSH0 SWAP3 PUSH2 0x481 JUMPI JUMPDEST POP POP DUP2 PUSH1 0x1 SHL SWAP2 PUSH0 NOT SWAP1 DUP6 SHL SHR NOT AND OR PUSH1 0x2 DUP3 ADD SSTORE JUMPDEST PUSH1 0x60 DUP4 ADD MLOAD SWAP2 ADD DUP1 SLOAD PUSH1 0x80 SWAP1 SWAP4 ADD MLOAD PUSH2 0x100 PUSH1 0x1 PUSH1 0xA8 SHL SUB PUSH1 0x8 SWAP2 SWAP1 SWAP2 SHL AND PUSH1 0xFF SWAP1 SWAP3 AND PUSH1 0x1 PUSH1 0x1 PUSH1 0xA8 SHL SUB NOT SWAP1 SWAP4 AND SWAP3 SWAP1 SWAP3 OR OR SWAP1 SSTORE JUMP JUMPDEST DUP7 CALLDATALOAD PUSH0 MSTORE PUSH1 0x6 PUSH1 0x20 MSTORE PUSH1 0xFF PUSH1 0x40 PUSH0 KECCAK256 SLOAD AND ISZERO PUSH2 0x3E8 JUMPI JUMPDEST PUSH1 0x40 DUP1 MLOAD PUSH1 0x1 PUSH1 0x1 PUSH1 0xA0 SHL SUB SWAP6 DUP7 AND DUP2 MSTORE SWAP5 SWAP1 SWAP6 AND PUSH1 0x20 DUP6 ADD MSTORE PUSH1 0x60 SWAP5 DUP5 ADD DUP6 SWAP1 MSTORE SWAP4 DUP4 ADD DUP2 SWAP1 MSTORE PUSH32 0x151659AE539358F0CFA6DD1DB120A40ED15867662CB099822A3B4BBD2D0BECB7 SWAP4 PUSH1 0x80 SWAP3 DUP5 SWAP3 PUSH4 0xFFFFFFFF SWAP3 DUP5 DUP7 ADD CALLDATACOPY PUSH0 DUP4 DUP9 ADD DUP6 ADD MSTORE AND SWAP6 CALLDATALOAD SWAP5 PUSH1 0x1F ADD PUSH1 0x1F NOT AND DUP2 ADD SUB ADD SWAP1 LOG3 STOP JUMPDEST SWAP1 POP DUP6 SLOAD PUSH1 0x1 PUSH1 0x40 SHL DUP2 LT ISZERO PUSH2 0x46E JUMPI PUSH1 0x80 SWAP3 DUP7 PUSH32 0x151659AE539358F0CFA6DD1DB120A40ED15867662CB099822A3B4BBD2D0BECB7 SWAP7 SWAP6 SWAP4 PUSH2 0x434 DUP5 PUSH1 0x1 PUSH4 0xFFFFFFFF SWAP7 ADD DUP13 SSTORE PUSH2 0x17D4 JUMP JUMPDEST DUP2 SLOAD SWAP1 PUSH1 0x3 SHL SWAP1 DUP13 CALLDATALOAD DUP3 SHL SWAP2 PUSH0 NOT SWAP1 SHL NOT AND OR SWAP1 SSTORE DUP10 CALLDATALOAD PUSH0 MSTORE PUSH1 0x6 PUSH1 0x20 MSTORE PUSH1 0x40 PUSH0 KECCAK256 PUSH1 0x1 PUSH1 0xFF NOT DUP3 SLOAD AND OR SWAP1 SSTORE SWAP3 POP SWAP3 SWAP5 SWAP6 POP SWAP3 POP PUSH2 0x375 JUMP JUMPDEST PUSH1 0x41 DUP8 PUSH4 0x4E487B71 PUSH1 0xE0 SHL PUSH0 MSTORE MSTORE PUSH1 0x24 PUSH0 REVERT JUMPDEST ADD MLOAD SWAP1 POP PUSH0 DUP1 PUSH2 0x30F JUMP JUMPDEST SWAP1 PUSH1 0x2 DUP5 ADD PUSH0 MSTORE PUSH1 0x20 PUSH0 KECCAK256 SWAP2 PUSH0 JUMPDEST PUSH1 0x1F NOT DUP6 AND DUP2 LT PUSH2 0x4E6 JUMPI POP SWAP3 PUSH2 0x35E SWAP6 SWAP5 SWAP3 PUSH1 0x1 SWAP3 PUSH1 0x3 SWAP6 DUP4 PUSH1 0x1F NOT DUP2 AND LT PUSH2 0x4CF JUMPI JUMPDEST POP POP POP DUP2 SHL ADD PUSH1 0x2 DUP3 ADD SSTORE PUSH2 0x325 JUMP JUMPDEST ADD MLOAD PUSH0 NOT DUP4 DUP8 SHL PUSH1 0xF8 AND SHR NOT AND SWAP1 SSTORE PUSH0 DUP1 DUP1 PUSH2 0x4BF JUMP JUMPDEST DUP2 DUP4 ADD MLOAD DUP5 SSTORE DUP13 SWAP9 POP PUSH1 0x1 SWAP1 SWAP4 ADD SWAP3 PUSH1 0x20 SWAP3 DUP4 ADD SWAP3 ADD PUSH2 0x49A JUMP JUMPDEST PUSH2 0x52F SWAP1 PUSH1 0x2 DUP6 ADD PUSH0 MSTORE PUSH1 0x20 PUSH0 KECCAK256 PUSH1 0x1F DUP6 ADD PUSH1 0x5 SHR DUP2 ADD SWAP2 PUSH1 0x20 DUP7 LT PUSH2 0x535 JUMPI JUMPDEST PUSH1 0x1F ADD PUSH1 0x5 SHR ADD SWAP1 PUSH2 0x184F JUMP JUMPDEST PUSH0 PUSH2 0x2EE JUMP JUMPDEST SWAP1 SWAP2 POP DUP2 SWAP1 PUSH2 0x522 JUMP JUMPDEST PUSH1 0x41 DUP11 PUSH4 0x4E487B71 PUSH1 0xE0 SHL PUSH0 MSTORE MSTORE PUSH1 0x24 PUSH0 REVERT JUMPDEST ADD MLOAD SWAP1 POP PUSH0 DUP1 PUSH2 0x2A4 JUMP JUMPDEST SWAP3 POP PUSH1 0x1 DUP5 ADD PUSH0 MSTORE PUSH1 0x20 PUSH0 KECCAK256 SWAP1 PUSH0 SWAP4 JUMPDEST PUSH1 0x1F NOT DUP5 AND DUP6 LT PUSH2 0x5B0 JUMPI PUSH1 0x1 SWAP5 POP DUP4 PUSH1 0x1F NOT DUP2 AND LT PUSH2 0x598 JUMPI JUMPDEST POP POP POP DUP2 SHL ADD PUSH1 0x1 DUP3 ADD SSTORE PUSH2 0x2BB JUMP JUMPDEST ADD MLOAD PUSH0 NOT PUSH1 0xF8 DUP5 PUSH1 0x3 SHL AND SHR NOT AND SWAP1 SSTORE PUSH0 DUP1 DUP1 PUSH2 0x588 JUMP JUMPDEST DUP2 DUP2 ADD MLOAD DUP4 SSTORE PUSH1 0x20 SWAP5 DUP6 ADD SWAP5 PUSH1 0x1 SWAP1 SWAP4 ADD SWAP3 SWAP1 SWAP2 ADD SWAP1 PUSH2 0x56D JUMP JUMPDEST PUSH2 0x5F8 SWAP1 PUSH1 0x1 DUP7 ADD PUSH0 MSTORE PUSH1 0x20 PUSH0 KECCAK256 PUSH1 0x1F DUP6 ADD PUSH1 0x5 SHR DUP2 ADD SWAP2 PUSH1 0x20 DUP7 LT PUSH2 0x535 JUMPI PUSH1 0x1F ADD PUSH1 0x5 SHR ADD SWAP1 PUSH2 0x184F JUMP JUMPDEST PUSH0 PUSH2 0x28E JUMP JUMPDEST PUSH1 0x40 MLOAD PUSH4 0x3EA7FFD9 PUSH1 0xE1 SHL DUP2 MSTORE DUP10 SWAP1 REVERT JUMPDEST PUSH1 0x40 MLOAD PUSH4 0x296BE497 PUSH1 0xE2 SHL DUP2 MSTORE DUP10 SWAP1 REVERT JUMPDEST PUSH1 0x40 MLOAD PUSH4 0xE6C4247B PUSH1 0xE0 SHL DUP2 MSTORE DUP10 SWAP1 REVERT JUMPDEST PUSH1 0x40 MLOAD PUSH4 0x54348F03 PUSH1 0xE0 SHL DUP2 MSTORE DUP10 SWAP1 REVERT JUMPDEST PUSH0 DUP1 REVERT JUMPDEST CALLVALUE PUSH2 0x642 JUMPI PUSH0 CALLDATASIZE PUSH1 0x3 NOT ADD SLT PUSH2 0x642 JUMPI PUSH1 0x1 SLOAD PUSH1 0x40 MLOAD PUSH1 0x1 PUSH1 0x1 PUSH1 0xA0 SHL SUB SWAP1 SWAP2 AND DUP2 MSTORE PUSH1 0x20 SWAP1 RETURN JUMPDEST DUP3 CALLVALUE PUSH2 0x642 JUMPI PUSH1 0x60 CALLDATASIZE PUSH1 0x3 NOT ADD SLT PUSH2 0x642 JUMPI PUSH2 0x688 PUSH2 0x1581 JUMP JUMPDEST SWAP1 PUSH1 0x24 CALLDATALOAD PUSH1 0x1 PUSH1 0x1 PUSH1 0xA0 SHL SUB DUP2 DUP2 AND SWAP2 DUP3 SWAP1 SUB PUSH2 0x642 JUMPI PUSH8 0xFFFFFFFFFFFFFFFF SWAP2 PUSH1 0x44 CALLDATALOAD DUP4 DUP2 GT PUSH2 0x642 JUMPI PUSH2 0x6C0 SWAP1 CALLDATASIZE SWAP1 DUP7 ADD PUSH2 0x1594 JUMP JUMPDEST DUP4 PUSH0 SWAP8 SWAP3 SWAP8 SLOAD AND CALLER SUB PUSH2 0x95D JUMPI PUSH4 0xFFFFFFFF DUP1 SWAP3 AND SWAP5 DUP6 ISZERO PUSH2 0x94C JUMPI PUSH1 0x40 MLOAD SWAP8 PUSH1 0x80 DUP10 ADD SWAP9 DUP1 DUP11 LT DUP4 DUP12 GT OR PUSH2 0x939 JUMPI PUSH2 0x722 SWAP6 SWAP7 SWAP8 SWAP9 SWAP10 PUSH1 0x40 MSTORE DUP9 DUP2 MSTORE PUSH2 0x791 PUSH1 0x20 SWAP9 DUP10 DUP4 ADD SWAP6 PUSH2 0x767 PUSH1 0x1 SWAP10 DUP11 SWAP7 DUP8 DUP11 MSTORE PUSH1 0x40 DUP8 ADD SWAP4 DUP14 DUP6 MSTORE CALLDATASIZE SWAP2 PUSH2 0x1809 JUMP JUMPDEST SWAP8 PUSH1 0x60 DUP7 ADD SWAP9 DUP10 MSTORE DUP14 PUSH0 MSTORE PUSH1 0x3 DUP14 MSTORE DUP10 PUSH1 0x40 PUSH0 KECCAK256 SWAP7 MLOAD AND PUSH4 0xFFFFFFFF NOT DUP8 SLOAD AND OR DUP7 SSTORE MLOAD ISZERO ISZERO DUP6 SWAP1 PUSH5 0xFF00000000 DUP3 SLOAD SWAP2 ISZERO ISZERO PUSH1 0x20 SHL AND SWAP1 PUSH5 0xFF00000000 NOT AND OR SWAP1 SSTORE JUMP JUMPDEST MLOAD DUP4 SLOAD PUSH6 0x10000000000 PUSH1 0x1 PUSH1 0xC8 SHL SUB NOT AND SWAP2 AND PUSH1 0x28 SHL PUSH6 0x10000000000 PUSH1 0x1 PUSH1 0xC8 SHL SUB AND OR DUP3 SSTORE JUMP JUMPDEST ADD SWAP2 MLOAD DUP1 MLOAD SWAP2 DUP3 GT PUSH2 0x939 JUMPI DUP2 SWAP1 PUSH2 0x7A9 DUP5 SLOAD PUSH2 0x1655 JUMP JUMPDEST PUSH1 0x1F DUP2 GT PUSH2 0x90B JUMPI JUMPDEST POP DUP8 SWAP1 PUSH1 0x1F DUP4 GT PUSH1 0x1 EQ PUSH2 0x8AC JUMPI PUSH0 SWAP3 PUSH2 0x8A1 JUMPI JUMPDEST POP POP PUSH0 NOT PUSH1 0x3 DUP4 SWAP1 SHL SHR NOT AND SWAP1 DUP5 SHL OR SWAP1 SSTORE JUMPDEST DUP5 PUSH0 MSTORE PUSH1 0x7 DUP5 MSTORE PUSH1 0xFF PUSH1 0x40 PUSH0 KECCAK256 SLOAD AND ISZERO PUSH2 0x81C JUMPI JUMPDEST DUP5 PUSH32 0xAF4C7A1EAEB9CD699778ECD10669652BB003FFFCF9ED1EF69012B632A2280924 DUP6 DUP6 PUSH1 0x40 MLOAD SWAP1 DUP2 MSTORE LOG2 STOP JUMPDEST PUSH1 0x5 SLOAD SWAP6 PUSH1 0x1 PUSH1 0x40 SHL DUP8 LT ISZERO PUSH2 0x88E JUMPI POP PUSH2 0x85E DUP7 DUP4 PUSH32 0xAF4C7A1EAEB9CD699778ECD10669652BB003FFFCF9ED1EF69012B632A2280924 SWAP8 SWAP9 ADD PUSH1 0x5 SSTORE PUSH2 0x15C2 JUMP JUMPDEST DUP2 SWAP3 SWAP2 SLOAD SWAP1 PUSH1 0x3 SHL SWAP2 DUP9 DUP4 SHL SWAP3 SHL NOT AND OR SWAP1 SSTORE DUP5 PUSH0 MSTORE PUSH1 0x7 DUP4 MSTORE PUSH1 0x40 PUSH0 KECCAK256 SWAP1 PUSH1 0xFF NOT DUP3 SLOAD AND OR SWAP1 SSTORE DUP4 SWAP3 DUP6 PUSH2 0x7EF JUMP JUMPDEST PUSH1 0x41 SWAP1 PUSH4 0x4E487B71 PUSH1 0xE0 SHL PUSH0 MSTORE MSTORE PUSH1 0x24 PUSH0 REVERT JUMPDEST ADD MLOAD SWAP1 POP DUP10 DUP1 PUSH2 0x7C7 JUMP JUMPDEST SWAP1 DUP7 SWAP4 POP PUSH1 0x1F NOT DUP4 AND SWAP2 DUP6 PUSH0 MSTORE DUP10 PUSH0 KECCAK256 SWAP3 PUSH0 JUMPDEST DUP12 DUP3 DUP3 LT PUSH2 0x8F5 JUMPI POP POP DUP5 GT PUSH2 0x8DD JUMPI JUMPDEST POP POP POP DUP2 SHL ADD SWAP1 SSTORE PUSH2 0x7DA JUMP JUMPDEST ADD MLOAD PUSH0 NOT PUSH1 0xF8 DUP5 PUSH1 0x3 SHL AND SHR NOT AND SWAP1 SSTORE DUP10 DUP1 DUP1 PUSH2 0x8D0 JUMP JUMPDEST DUP4 DUP6 ADD MLOAD DUP7 SSTORE DUP11 SWAP8 SWAP1 SWAP6 ADD SWAP5 SWAP4 DUP5 ADD SWAP4 ADD PUSH2 0x8BF JUMP JUMPDEST PUSH2 0x933 SWAP1 DUP6 PUSH0 MSTORE DUP10 PUSH0 KECCAK256 PUSH1 0x1F DUP6 ADD PUSH1 0x5 SHR DUP2 ADD SWAP2 DUP12 DUP7 LT PUSH2 0x535 JUMPI PUSH1 0x1F ADD PUSH1 0x5 SHR ADD SWAP1 PUSH2 0x184F JUMP JUMPDEST DUP11 PUSH2 0x7B2 JUMP JUMPDEST PUSH1 0x41 DUP10 PUSH4 0x4E487B71 PUSH1 0xE0 SHL PUSH0 MSTORE MSTORE PUSH1 0x24 PUSH0 REVERT JUMPDEST PUSH1 0x40 MLOAD PUSH4 0x3D23E4D1 PUSH1 0xE1 SHL DUP2 MSTORE DUP8 SWAP1 REVERT JUMPDEST PUSH1 0x40 MLOAD PUSH4 0x54348F03 PUSH1 0xE0 SHL DUP2 MSTORE DUP7 SWAP1 REVERT JUMPDEST DUP3 CALLVALUE PUSH2 0x642 JUMPI PUSH1 0x20 CALLDATASIZE PUSH1 0x3 NOT ADD SLT PUSH2 0x642 JUMPI DUP1 CALLDATALOAD SWAP1 SLOAD DUP2 LT ISZERO PUSH2 0x642 JUMPI PUSH2 0x996 PUSH1 0x20 SWAP2 PUSH2 0x17D4 JUMP JUMPDEST SWAP1 SLOAD PUSH1 0x40 MLOAD SWAP2 PUSH1 0x3 SHL SHR DUP2 MSTORE RETURN JUMPDEST DUP3 CALLVALUE PUSH2 0x642 JUMPI PUSH1 0x40 CALLDATASIZE PUSH1 0x3 NOT ADD SLT PUSH2 0x642 JUMPI DUP1 CALLDATALOAD PUSH2 0x9C0 PUSH2 0x156E JUMP JUMPDEST SWAP2 DUP2 PUSH0 MSTORE PUSH1 0x2 PUSH1 0x20 MSTORE PUSH4 0xFFFFFFFF PUSH1 0x40 PUSH0 KECCAK256 SWAP4 AND SWAP3 DUP4 PUSH0 MSTORE PUSH1 0x20 MSTORE PUSH1 0xFF PUSH1 0x40 PUSH0 KECCAK256 SLOAD AND ISZERO PUSH2 0xA17 JUMPI POP PUSH0 MSTORE PUSH1 0x2 PUSH1 0x20 MSTORE PUSH1 0x40 PUSH0 KECCAK256 SWAP1 PUSH0 MSTORE PUSH1 0x20 MSTORE PUSH1 0x20 PUSH1 0x1 DUP1 PUSH1 0xA0 SHL SUB PUSH1 0x3 PUSH1 0x40 PUSH0 KECCAK256 ADD SLOAD PUSH1 0x8 SHR AND PUSH1 0x40 MLOAD SWAP1 DUP2 MSTORE RETURN JUMPDEST PUSH1 0x40 MLOAD PUSH4 0x259BA1AD PUSH1 0xE0 SHL DUP2 MSTORE REVERT JUMPDEST DUP3 CALLVALUE PUSH2 0x642 JUMPI PUSH1 0x20 CALLDATASIZE PUSH1 0x3 NOT ADD SLT PUSH2 0x642 JUMPI DUP1 CALLDATALOAD PUSH1 0x1 PUSH1 0x1 PUSH1 0xA0 SHL SUB DUP2 DUP2 AND SWAP3 SWAP2 DUP4 SWAP1 SUB PUSH2 0x642 JUMPI PUSH0 SLOAD AND CALLER SUB PUSH2 0xA89 JUMPI DUP2 ISZERO PUSH2 0xA7A JUMPI POP PUSH12 0xFFFFFFFFFFFFFFFFFFFFFFFF PUSH1 0xA0 SHL PUSH1 0x1 SLOAD AND OR PUSH1 0x1 SSTORE PUSH0 DUP1 RETURN JUMPDEST PUSH1 0x40 MLOAD PUSH4 0xE6C4247B PUSH1 0xE0 SHL DUP2 MSTORE REVERT JUMPDEST PUSH1 0x40 MLOAD PUSH4 0x54348F03 PUSH1 0xE0 SHL DUP2 MSTORE REVERT JUMPDEST DUP3 CALLVALUE PUSH2 0x642 JUMPI PUSH1 0x40 CALLDATASIZE PUSH1 0x3 NOT ADD SLT PUSH2 0x642 JUMPI DUP1 CALLDATALOAD PUSH2 0xAB4 PUSH2 0x156E JUMP JUMPDEST PUSH0 SLOAD SWAP1 SWAP3 SWAP1 PUSH1 0x1 PUSH1 0x1 PUSH1 0xA0 SHL SUB AND CALLER SUB PUSH2 0xA89 JUMPI DUP2 PUSH0 MSTORE PUSH1 0x2 PUSH1 0x20 MSTORE PUSH4 0xFFFFFFFF PUSH1 0x40 PUSH0 KECCAK256 SWAP4 AND SWAP3 DUP4 PUSH0 MSTORE PUSH1 0x20 MSTORE PUSH1 0xFF PUSH1 0x40 PUSH0 KECCAK256 SLOAD AND ISZERO PUSH2 0xA17 JUMPI POP DUP1 PUSH0 MSTORE PUSH1 0x2 PUSH1 0x20 MSTORE PUSH1 0x40 PUSH0 KECCAK256 DUP3 PUSH0 MSTORE PUSH1 0x20 MSTORE PUSH0 PUSH1 0x3 PUSH1 0x40 DUP3 KECCAK256 DUP3 DUP2 SSTORE PUSH2 0xB18 PUSH1 0x1 DUP3 ADD PUSH2 0x1865 JUMP JUMPDEST PUSH2 0xB24 PUSH1 0x2 DUP3 ADD PUSH2 0x1865 JUMP JUMPDEST ADD SSTORE PUSH32 0xCFB1E5EE9D13AFEB8DBBC65301BCC2CC29E45F57D58BA5C5F833487D6565AE33 PUSH0 DUP1 LOG3 STOP JUMPDEST DUP3 CALLVALUE PUSH2 0x642 JUMPI PUSH1 0x40 CALLDATASIZE PUSH1 0x3 NOT ADD SLT PUSH2 0x642 JUMPI PUSH2 0xB66 PUSH2 0x156E JUMP JUMPDEST SWAP1 CALLDATALOAD PUSH0 MSTORE PUSH1 0x2 PUSH1 0x20 MSTORE PUSH4 0xFFFFFFFF PUSH1 0x40 PUSH0 KECCAK256 SWAP2 AND PUSH0 MSTORE PUSH1 0x20 MSTORE PUSH1 0x40 PUSH0 KECCAK256 PUSH1 0xFF DUP2 SLOAD AND PUSH2 0xB94 PUSH1 0x1 DUP4 ADD PUSH2 0x16DF JUMP JUMPDEST SWAP2 PUSH2 0xBD6 PUSH1 0x3 PUSH2 0xBA6 PUSH1 0x2 DUP5 ADD PUSH2 0x16DF JUMP JUMPDEST SWAP3 ADD SLOAD SWAP2 PUSH2 0xBC8 PUSH1 0x40 MLOAD SWAP6 DUP7 SWAP6 ISZERO ISZERO DUP7 MSTORE PUSH1 0xA0 PUSH1 0x20 DUP8 ADD MSTORE PUSH1 0xA0 DUP7 ADD SWAP1 PUSH2 0x1780 JUMP JUMPDEST SWAP1 DUP5 DUP3 SUB PUSH1 0x40 DUP7 ADD MSTORE PUSH2 0x1780 JUMP JUMPDEST PUSH1 0xFF DUP3 AND PUSH1 0x60 DUP5 ADD MSTORE PUSH1 0x8 SWAP2 SWAP1 SWAP2 SHR PUSH1 0x1 PUSH1 0x1 PUSH1 0xA0 SHL SUB AND PUSH1 0x80 DUP4 ADD MSTORE SUB SWAP1 RETURN JUMPDEST DUP3 CALLVALUE PUSH2 0x642 JUMPI PUSH1 0x40 CALLDATASIZE PUSH1 0x3 NOT ADD SLT PUSH2 0x642 JUMPI DUP1 CALLDATALOAD PUSH2 0xC13 PUSH2 0x156E JUMP JUMPDEST SWAP1 PUSH1 0x40 MLOAD SWAP3 PUSH2 0xC21 DUP5 PUSH2 0x168D JUMP JUMPDEST PUSH0 DUP5 MSTORE PUSH0 PUSH1 0x80 PUSH1 0x20 SWAP6 PUSH1 0x60 DUP8 DUP3 ADD MSTORE PUSH1 0x60 PUSH1 0x40 DUP3 ADD MSTORE DUP3 PUSH1 0x60 DUP3 ADD MSTORE ADD MSTORE DUP2 PUSH0 MSTORE PUSH1 0x2 DUP5 MSTORE PUSH4 0xFFFFFFFF PUSH1 0x40 PUSH0 KECCAK256 SWAP4 AND SWAP3 DUP4 PUSH0 MSTORE DUP5 MSTORE PUSH1 0xFF PUSH1 0x40 PUSH0 KECCAK256 SLOAD AND ISZERO PUSH2 0xA17 JUMPI POP PUSH0 MSTORE PUSH1 0x2 DUP3 MSTORE PUSH1 0x40 PUSH0 KECCAK256 SWAP1 PUSH0 MSTORE DUP2 MSTORE PUSH1 0x40 PUSH0 KECCAK256 PUSH1 0x40 MLOAD SWAP1 PUSH2 0xC85 DUP3 PUSH2 0x168D JUMP JUMPDEST PUSH1 0xFF DUP2 SLOAD AND ISZERO ISZERO DUP3 MSTORE PUSH2 0xC9A PUSH1 0x1 DUP3 ADD PUSH2 0x16DF JUMP JUMPDEST DUP4 DUP4 ADD SWAP1 DUP2 MSTORE PUSH1 0x3 PUSH2 0xCAE PUSH1 0x2 DUP5 ADD PUSH2 0x16DF JUMP JUMPDEST SWAP3 PUSH1 0x40 DUP6 ADD SWAP4 DUP5 MSTORE ADD SLOAD SWAP1 PUSH1 0xFF PUSH2 0xD14 PUSH1 0x60 DUP7 ADD SWAP5 DUP3 DUP6 AND DUP7 MSTORE PUSH2 0xD01 PUSH1 0x80 DUP9 ADD SWAP5 PUSH1 0x1 DUP1 PUSH1 0xA0 SHL SUB DUP1 SWAP8 PUSH1 0x8 SHR AND DUP7 MSTORE PUSH1 0x40 MLOAD SWAP10 DUP11 SWAP10 DUP2 DUP12 MSTORE MLOAD ISZERO ISZERO SWAP1 DUP11 ADD MSTORE MLOAD PUSH1 0xA0 PUSH1 0x40 DUP11 ADD MSTORE PUSH1 0xC0 DUP10 ADD SWAP1 PUSH2 0x1780 JUMP JUMPDEST SWAP1 MLOAD DUP8 DUP3 SUB PUSH1 0x1F NOT ADD PUSH1 0x60 DUP10 ADD MSTORE PUSH2 0x1780 JUMP JUMPDEST SWAP4 MLOAD AND PUSH1 0x80 DUP6 ADD MSTORE MLOAD AND PUSH1 0xA0 DUP4 ADD MSTORE SUB SWAP1 RETURN JUMPDEST POP CALLVALUE PUSH2 0x642 JUMPI PUSH0 CALLDATASIZE PUSH1 0x3 NOT ADD SLT PUSH2 0x642 JUMPI PUSH1 0x40 MLOAD PUSH1 0x5 DUP1 SLOAD DUP1 DUP4 MSTORE PUSH0 SWAP2 DUP3 MSTORE PUSH1 0x20 SWAP4 DUP5 DUP5 ADD SWAP3 SWAP2 PUSH32 0x36B6384B5ECA791C62761152D0C79BB0604C104A5FB6F4EB0703F3154BB3DB0 JUMPDEST DUP2 PUSH1 0x7 DUP6 ADD LT PUSH2 0xE9B JUMPI SWAP3 PUSH2 0xDE0 SWAP7 SWAP3 PUSH2 0xDD4 SWAP6 SWAP3 DUP8 SWAP6 SLOAD SWAP3 DUP6 DUP3 DUP3 LT PUSH2 0xE85 JUMPI JUMPDEST DUP3 DUP3 LT PUSH2 0xE6D JUMPI JUMPDEST DUP3 DUP3 LT PUSH2 0xE54 JUMPI JUMPDEST DUP3 DUP3 LT PUSH2 0xE3B JUMPI JUMPDEST DUP3 DUP3 LT PUSH2 0xE22 JUMPI JUMPDEST DUP3 DUP3 LT PUSH2 0xE09 JUMPI JUMPDEST DUP3 DUP3 LT PUSH2 0xDF0 JUMPI JUMPDEST POP LT PUSH2 0xDE4 JUMPI JUMPDEST POP POP SWAP1 POP SUB DUP3 PUSH2 0x16BD JUMP JUMPDEST PUSH1 0x40 MLOAD SWAP2 DUP3 SWAP2 DUP3 PUSH2 0x1615 JUMP JUMPDEST SUB SWAP1 RETURN JUMPDEST SHR DUP2 MSTORE ADD DUP1 DUP7 DUP1 PUSH2 0xDC9 JUMP JUMPDEST PUSH1 0x1 SWAP2 SWAP6 PUSH4 0xFFFFFFFF DUP7 PUSH1 0xC0 SHR AND DUP2 MSTORE ADD SWAP5 ADD DUP6 PUSH2 0xDC2 JUMP JUMPDEST PUSH1 0x1 SWAP2 SWAP6 PUSH4 0xFFFFFFFF DUP7 PUSH1 0xA0 SHR AND DUP2 MSTORE ADD SWAP5 ADD DUP6 PUSH2 0xDBA JUMP JUMPDEST PUSH1 0x1 SWAP2 SWAP6 PUSH4 0xFFFFFFFF DUP7 PUSH1 0x80 SHR AND DUP2 MSTORE ADD SWAP5 ADD DUP6 PUSH2 0xDB2 JUMP JUMPDEST PUSH1 0x1 SWAP2 SWAP6 PUSH4 0xFFFFFFFF DUP7 PUSH1 0x60 SHR AND DUP2 MSTORE ADD SWAP5 ADD DUP6 PUSH2 0xDAA JUMP JUMPDEST PUSH1 0x1 SWAP2 SWAP6 PUSH4 0xFFFFFFFF DUP7 PUSH1 0x40 SHR AND DUP2 MSTORE ADD SWAP5 ADD DUP6 PUSH2 0xDA2 JUMP JUMPDEST PUSH1 0x1 SWAP2 SWAP6 PUSH4 0xFFFFFFFF DUP7 DUP4 SHR AND DUP2 MSTORE ADD SWAP5 ADD DUP6 PUSH2 0xD9A JUMP JUMPDEST PUSH1 0x1 SWAP2 SWAP6 PUSH4 0xFFFFFFFF DUP7 AND DUP2 MSTORE ADD SWAP5 ADD DUP6 PUSH2 0xD92 JUMP JUMPDEST SWAP4 PUSH1 0x1 PUSH2 0x100 PUSH1 0x8 SWAP3 DUP8 SLOAD PUSH4 0xFFFFFFFF DUP1 DUP3 AND DUP4 MSTORE DUP1 DUP3 DUP14 SHR AND DUP13 DUP5 ADD MSTORE DUP1 DUP3 PUSH1 0x40 SHR AND PUSH1 0x40 DUP5 ADD MSTORE PUSH1 0x60 DUP2 DUP4 DUP3 SHR AND SWAP1 DUP5 ADD MSTORE PUSH1 0x80 DUP2 DUP4 DUP3 SHR AND SWAP1 DUP5 ADD MSTORE PUSH1 0xA0 DUP2 DUP4 DUP3 SHR AND SWAP1 DUP5 ADD MSTORE PUSH1 0xC0 SWAP1 DUP3 DUP3 SHR AND SWAP1 DUP4 ADD MSTORE DUP7 SHR DUP7 DUP3 ADD MSTORE ADD SWAP6 ADD SWAP4 ADD SWAP3 PUSH2 0xD70 JUMP JUMPDEST DUP3 CALLVALUE PUSH2 0x642 JUMPI PUSH1 0x60 CALLDATASIZE PUSH1 0x3 NOT ADD SLT PUSH2 0x642 JUMPI DUP1 CALLDATALOAD PUSH2 0xF1D PUSH2 0x156E JUMP JUMPDEST SWAP2 PUSH2 0xF26 PUSH2 0x17BE JUMP JUMPDEST PUSH0 SLOAD SWAP1 SWAP2 SWAP1 PUSH1 0x1 PUSH1 0x1 PUSH1 0xA0 SHL SUB SWAP1 DUP2 AND CALLER SUB PUSH2 0xFF0 JUMPI DUP4 PUSH0 MSTORE PUSH1 0x20 SWAP2 PUSH1 0x2 DUP4 MSTORE PUSH4 0xFFFFFFFF PUSH1 0x40 PUSH0 KECCAK256 SWAP7 AND SWAP6 DUP7 PUSH0 MSTORE DUP4 MSTORE PUSH1 0xFF PUSH1 0x40 PUSH0 KECCAK256 SLOAD AND ISZERO PUSH2 0xA17 JUMPI POP SWAP2 PUSH1 0x40 SWAP2 PUSH32 0x7CC512D405C355B34C92D270E81DA2C062BB0011C2EB3ED93A6BCF27C21DE04A SWAP4 DUP6 PUSH0 MSTORE PUSH1 0x2 DUP3 MSTORE DUP4 PUSH0 KECCAK256 DUP8 PUSH0 MSTORE DUP3 MSTORE DUP1 PUSH1 0x3 DUP6 PUSH0 KECCAK256 ADD SLOAD PUSH1 0x8 SHR AND SWAP3 DUP7 PUSH0 MSTORE PUSH1 0x2 DUP4 MSTORE DUP5 PUSH0 KECCAK256 DUP9 PUSH0 MSTORE DUP4 MSTORE PUSH2 0xFE3 DUP2 PUSH1 0x3 DUP8 PUSH0 KECCAK256 ADD SWAP1 DUP2 SLOAD SWAP1 PUSH2 0x100 PUSH1 0x1 PUSH1 0xA8 SHL SUB SWAP1 PUSH1 0x8 SHL AND SWAP1 PUSH2 0x100 PUSH1 0x1 PUSH1 0xA8 SHL SUB NOT AND OR SWAP1 SSTORE JUMP JUMPDEST DUP5 MLOAD SWAP4 DUP5 MSTORE AND SWAP1 DUP3 ADD MSTORE LOG3 STOP JUMPDEST POP PUSH1 0x40 MLOAD PUSH4 0x54348F03 PUSH1 0xE0 SHL DUP2 MSTORE REVERT JUMPDEST DUP3 CALLVALUE PUSH2 0x642 JUMPI PUSH1 0x60 CALLDATASIZE PUSH1 0x3 NOT ADD SLT PUSH2 0x642 JUMPI PUSH2 0x101A PUSH2 0x1581 JUMP JUMPDEST SWAP1 PUSH1 0x24 CALLDATALOAD SWAP1 DUP2 ISZERO ISZERO SWAP2 DUP3 DUP2 SUB PUSH2 0x642 JUMPI PUSH2 0x1032 PUSH2 0x17BE JUMP JUMPDEST PUSH0 SLOAD SWAP1 SWAP3 PUSH1 0x1 PUSH1 0x1 PUSH1 0xA0 SHL SUB SWAP2 DUP3 AND CALLER SUB PUSH2 0xA89 JUMPI PUSH4 0xFFFFFFFF DUP1 SWAP7 AND SWAP6 DUP7 PUSH0 MSTORE PUSH1 0x3 PUSH1 0x20 MSTORE PUSH1 0x40 PUSH0 KECCAK256 SLOAD AND ISZERO PUSH2 0x1100 JUMPI POP SWAP2 PUSH32 0x4F66E46288B376A7D88AEA92143990D3AAD883E4728B6901CDD34E01BE854DAD SWAP4 SWAP2 PUSH1 0x40 SWAP4 DUP7 PUSH0 MSTORE PUSH1 0x3 PUSH1 0x20 MSTORE PUSH2 0x10B9 DUP6 PUSH0 KECCAK256 SWAP3 DUP4 SWAP1 PUSH5 0xFF00000000 DUP3 SLOAD SWAP2 ISZERO ISZERO PUSH1 0x20 SHL AND SWAP1 PUSH5 0xFF00000000 NOT AND OR SWAP1 SSTORE JUMP JUMPDEST DUP3 AND SWAP2 DUP3 PUSH2 0x10D1 JUMPI JUMPDEST POP POP DUP3 MLOAD SWAP2 DUP3 MSTORE PUSH1 0x20 DUP3 ADD MSTORE LOG2 STOP JUMPDEST DUP2 SLOAD PUSH6 0x10000000000 PUSH1 0x1 PUSH1 0xC8 SHL SUB NOT AND PUSH1 0x28 SWAP2 SWAP1 SWAP2 SHL PUSH6 0x10000000000 PUSH1 0x1 PUSH1 0xC8 SHL SUB AND OR SWAP1 SSTORE DUP6 DUP1 PUSH2 0x10C2 JUMP JUMPDEST PUSH1 0x40 MLOAD PUSH4 0x3D23E4D1 PUSH1 0xE1 SHL DUP2 MSTORE REVERT JUMPDEST CALLVALUE PUSH2 0x642 JUMPI PUSH1 0x20 CALLDATASIZE PUSH1 0x3 NOT ADD SLT PUSH2 0x642 JUMPI PUSH4 0xFFFFFFFF DUP1 PUSH2 0x112E PUSH2 0x1581 JUMP JUMPDEST AND PUSH0 MSTORE PUSH1 0x3 PUSH1 0x20 MSTORE PUSH1 0x40 PUSH0 KECCAK256 SWAP1 PUSH2 0xDE0 PUSH2 0x114C PUSH1 0x1 DUP5 SLOAD SWAP5 ADD PUSH2 0x16DF JUMP JUMPDEST PUSH1 0x40 MLOAD SWAP4 DUP5 SWAP4 DUP2 AND DUP5 MSTORE PUSH1 0xFF DUP2 PUSH1 0x20 SHR AND ISZERO ISZERO PUSH1 0x20 DUP6 ADD MSTORE PUSH1 0x1 DUP1 PUSH1 0xA0 SHL SUB SWAP1 PUSH1 0x28 SHR AND PUSH1 0x40 DUP5 ADD MSTORE PUSH1 0x80 PUSH1 0x60 DUP5 ADD MSTORE PUSH1 0x80 DUP4 ADD SWAP1 PUSH2 0x1780 JUMP JUMPDEST DUP3 CALLVALUE PUSH2 0x642 JUMPI PUSH1 0x20 SWAP1 DUP2 PUSH1 0x3 NOT CALLDATASIZE ADD SLT PUSH2 0x642 JUMPI DUP1 CALLDATALOAD SWAP2 PUSH0 SWAP2 PUSH0 SWAP2 PUSH1 0x5 DUP1 SLOAD SWAP4 JUMPDEST DUP5 DUP2 LT PUSH2 0x1284 JUMPI POP PUSH2 0x11B8 DUP6 PUSH2 0x18CF JUMP JUMPDEST SWAP5 PUSH2 0x11C6 PUSH1 0x40 MLOAD SWAP7 DUP8 PUSH2 0x16BD JUMP JUMPDEST DUP1 DUP7 MSTORE PUSH2 0x11D5 PUSH1 0x1F NOT SWAP2 PUSH2 0x18CF JUMP JUMPDEST ADD CALLDATASIZE DUP4 DUP8 ADD CALLDATACOPY PUSH0 SWAP6 PUSH0 JUMPDEST DUP6 DUP2 LT PUSH2 0x11F4 JUMPI PUSH1 0x40 MLOAD DUP1 PUSH2 0xDE0 DUP10 DUP3 PUSH2 0x1615 JUMP JUMPDEST DUP2 PUSH0 MSTORE PUSH1 0x2 DUP5 MSTORE PUSH1 0x40 PUSH0 KECCAK256 PUSH2 0x1208 DUP3 PUSH2 0x15C2 JUMP JUMPDEST SWAP1 SWAP2 PUSH4 0xFFFFFFFF DUP1 SWAP4 SLOAD PUSH1 0x3 SWAP4 DUP5 SHL SHR AND PUSH0 MSTORE DUP7 MSTORE PUSH1 0xFF PUSH1 0x40 PUSH0 KECCAK256 SLOAD AND PUSH2 0x123A JUMPI JUMPDEST POP POP PUSH2 0x1235 SWAP1 PUSH2 0x18AD JUMP JUMPDEST PUSH2 0x11DF JUMP JUMPDEST PUSH2 0x1245 DUP4 SWAP11 SWAP4 PUSH2 0x15C2 JUMP JUMPDEST SWAP1 SLOAD SWAP2 SHL SHR AND DUP8 MLOAD DUP3 LT ISZERO PUSH2 0x1271 JUMPI DUP2 PUSH2 0x1269 SWAP2 DUP7 PUSH2 0x1235 SWAP5 DUP8 SHL DUP12 ADD ADD MSTORE PUSH2 0x18AD JUMP JUMPDEST SWAP8 SWAP1 DUP10 PUSH2 0x122A JUMP JUMPDEST PUSH1 0x32 DUP7 PUSH4 0x4E487B71 PUSH1 0xE0 SHL PUSH0 MSTORE MSTORE PUSH1 0x24 PUSH0 REVERT JUMPDEST DUP7 PUSH0 MSTORE PUSH1 0x2 DUP4 MSTORE PUSH1 0x40 PUSH0 KECCAK256 PUSH4 0xFFFFFFFF PUSH2 0x129D DUP4 PUSH2 0x15C2 JUMP JUMPDEST SWAP1 SLOAD SWAP1 PUSH1 0x3 SHL SHR AND PUSH0 MSTORE DUP4 MSTORE PUSH1 0xFF PUSH1 0x40 PUSH0 KECCAK256 SLOAD AND PUSH2 0x12C4 JUMPI JUMPDEST PUSH2 0x12BF SWAP1 PUSH2 0x18AD JUMP JUMPDEST PUSH2 0x11A7 JUMP JUMPDEST SWAP5 PUSH2 0x12D1 PUSH2 0x12BF SWAP2 PUSH2 0x18AD JUMP JUMPDEST SWAP6 SWAP1 POP PUSH2 0x12B6 JUMP JUMPDEST DUP3 CALLVALUE PUSH2 0x642 JUMPI PUSH1 0x20 CALLDATASIZE PUSH1 0x3 NOT ADD SLT PUSH2 0x642 JUMPI PUSH4 0xFFFFFFFF PUSH2 0x12F8 PUSH2 0x1581 JUMP JUMPDEST AND SWAP1 DUP2 PUSH0 MSTORE PUSH1 0x3 PUSH1 0x20 MSTORE PUSH1 0xFF PUSH1 0x40 PUSH0 KECCAK256 SLOAD PUSH1 0x20 SHR AND ISZERO PUSH2 0x1334 JUMPI POP PUSH0 MSTORE PUSH1 0x3 PUSH1 0x20 MSTORE PUSH1 0x20 PUSH1 0x1 DUP1 PUSH1 0xA0 SHL SUB PUSH1 0x40 PUSH0 KECCAK256 SLOAD PUSH1 0x28 SHR AND PUSH1 0x40 MLOAD SWAP1 DUP2 MSTORE RETURN JUMPDEST PUSH1 0x40 MLOAD PUSH4 0x296BE497 PUSH1 0xE2 SHL DUP2 MSTORE REVERT JUMPDEST CALLVALUE PUSH2 0x642 JUMPI PUSH0 CALLDATASIZE PUSH1 0x3 NOT ADD SLT PUSH2 0x642 JUMPI PUSH0 SLOAD PUSH1 0x40 MLOAD PUSH1 0x1 PUSH1 0x1 PUSH1 0xA0 SHL SUB SWAP1 SWAP2 AND DUP2 MSTORE PUSH1 0x20 SWAP1 RETURN JUMPDEST DUP3 CALLVALUE PUSH2 0x642 JUMPI PUSH0 CALLDATASIZE PUSH1 0x3 NOT ADD SLT PUSH2 0x642 JUMPI PUSH1 0x40 MLOAD SWAP1 DUP2 SWAP1 DUP1 SLOAD DUP1 DUP5 MSTORE PUSH1 0x20 DUP1 SWAP5 ADD SWAP1 DUP2 SWAP3 PUSH0 MSTORE PUSH32 0x8A35ACFBC15FF81A39AE7D344FD709F28E8600B4AA8C65C6B64BFE7FE36BD19B SWAP1 PUSH0 JUMPDEST DUP7 DUP3 DUP3 LT PUSH2 0x1409 JUMPI DUP7 DUP7 PUSH2 0x13CA DUP3 DUP9 SUB DUP4 PUSH2 0x16BD JUMP JUMPDEST PUSH1 0x40 MLOAD SWAP3 DUP4 SWAP3 DUP2 DUP5 ADD SWAP1 DUP3 DUP6 MSTORE MLOAD DUP1 SWAP2 MSTORE PUSH1 0x40 DUP5 ADD SWAP3 SWAP2 PUSH0 JUMPDEST DUP3 DUP2 LT PUSH2 0x13F2 JUMPI POP POP POP POP SUB SWAP1 RETURN JUMPDEST DUP4 MLOAD DUP6 MSTORE DUP7 SWAP6 POP SWAP4 DUP2 ADD SWAP4 SWAP3 DUP2 ADD SWAP3 PUSH1 0x1 ADD PUSH2 0x13E3 JUMP JUMPDEST DUP4 SLOAD DUP6 MSTORE SWAP1 SWAP4 ADD SWAP3 PUSH1 0x1 SWAP3 DUP4 ADD SWAP3 ADD PUSH2 0x13B4 JUMP JUMPDEST DUP3 CALLVALUE PUSH2 0x642 JUMPI PUSH0 CALLDATASIZE PUSH1 0x3 NOT ADD SLT PUSH2 0x642 JUMPI PUSH1 0x1 SLOAD PUSH1 0x1 PUSH1 0x1 PUSH1 0xA0 SHL SUB DUP1 DUP3 AND SWAP3 SWAP1 SWAP2 SWAP1 CALLER DUP5 SWAP1 SUB PUSH2 0xA89 JUMPI POP PUSH0 SLOAD SWAP1 PUSH12 0xFFFFFFFFFFFFFFFFFFFFFFFF PUSH1 0xA0 SHL SWAP1 DUP5 DUP3 DUP5 AND OR PUSH0 SSTORE AND PUSH1 0x1 SSTORE AND PUSH32 0x5F56BEE8CFFBE9A78652A74A60705EDEDE02AF10B0BBB888CA44B79A0D42CE80 PUSH0 DUP1 LOG3 STOP JUMPDEST DUP3 CALLVALUE PUSH2 0x642 JUMPI PUSH1 0x20 CALLDATASIZE PUSH1 0x3 NOT ADD SLT PUSH2 0x642 JUMPI CALLDATALOAD PUSH1 0x5 SLOAD DUP2 LT ISZERO PUSH2 0x642 JUMPI PUSH4 0xFFFFFFFF PUSH2 0x14BC PUSH1 0x20 SWAP3 PUSH2 0x15C2 JUMP JUMPDEST SWAP2 SWAP1 SLOAD PUSH1 0x40 MLOAD SWAP3 PUSH1 0x3 SHL SHR AND DUP2 MSTORE RETURN JUMPDEST DUP3 CALLVALUE PUSH2 0x642 JUMPI PUSH1 0x20 CALLDATASIZE PUSH1 0x3 NOT ADD SLT PUSH2 0x642 JUMPI DUP1 CALLDATALOAD PUSH8 0xFFFFFFFFFFFFFFFF DUP2 GT PUSH2 0x642 JUMPI PUSH1 0x20 SWAP2 PUSH2 0x14FE SWAP2 CALLDATASIZE SWAP2 ADD PUSH2 0x1594 JUMP JUMPDEST PUSH2 0x1520 DUP4 PUSH1 0x40 MLOAD DUP4 DUP2 SWAP5 DUP4 DUP4 ADD SWAP7 DUP8 CALLDATACOPY DUP2 ADD PUSH0 DUP4 DUP3 ADD MSTORE SUB DUP1 DUP5 MSTORE ADD DUP3 PUSH2 0x16BD JUMP JUMPDEST MLOAD SWAP1 KECCAK256 PUSH1 0x40 MLOAD SWAP1 DUP2 MSTORE RETURN JUMPDEST DUP4 SWAP1 CALLVALUE PUSH2 0x642 JUMPI PUSH1 0x40 CALLDATASIZE PUSH1 0x3 NOT ADD SLT PUSH2 0x642 JUMPI PUSH1 0x20 SWAP2 PUSH2 0x1549 PUSH2 0x156E JUMP JUMPDEST SWAP1 CALLDATALOAD PUSH0 MSTORE PUSH1 0x2 DUP4 MSTORE PUSH4 0xFFFFFFFF PUSH1 0x40 PUSH0 KECCAK256 SWAP2 AND PUSH0 MSTORE DUP3 MSTORE PUSH1 0xFF PUSH1 0x40 PUSH0 KECCAK256 SLOAD AND ISZERO ISZERO DUP2 MSTORE RETURN JUMPDEST PUSH1 0x24 CALLDATALOAD SWAP1 PUSH4 0xFFFFFFFF DUP3 AND DUP3 SUB PUSH2 0x642 JUMPI JUMP JUMPDEST PUSH1 0x4 CALLDATALOAD SWAP1 PUSH4 0xFFFFFFFF DUP3 AND DUP3 SUB PUSH2 0x642 JUMPI JUMP JUMPDEST SWAP2 DUP2 PUSH1 0x1F DUP5 ADD SLT ISZERO PUSH2 0x642 JUMPI DUP3 CALLDATALOAD SWAP2 PUSH8 0xFFFFFFFFFFFFFFFF DUP4 GT PUSH2 0x642 JUMPI PUSH1 0x20 DUP4 DUP2 DUP7 ADD SWAP6 ADD ADD GT PUSH2 0x642 JUMPI JUMP JUMPDEST SWAP1 PUSH1 0x5 SLOAD DUP3 LT ISZERO PUSH2 0x1601 JUMPI PUSH1 0x5 PUSH0 MSTORE PUSH1 0x1C DUP3 PUSH1 0x3 SHR PUSH32 0x36B6384B5ECA791C62761152D0C79BB0604C104A5FB6F4EB0703F3154BB3DB0 ADD SWAP3 PUSH1 0x2 SHL AND SWAP1 JUMP JUMPDEST PUSH4 0x4E487B71 PUSH1 0xE0 SHL PUSH0 MSTORE PUSH1 0x32 PUSH1 0x4 MSTORE PUSH1 0x24 PUSH0 REVERT JUMPDEST PUSH1 0x20 SWAP1 DUP2 PUSH1 0x40 DUP2 DUP4 ADD SWAP3 DUP3 DUP2 MSTORE DUP6 MLOAD DUP1 SWAP5 MSTORE ADD SWAP4 ADD SWAP2 PUSH0 JUMPDEST DUP3 DUP2 LT PUSH2 0x163B JUMPI POP POP POP POP SWAP1 JUMP JUMPDEST DUP4 MLOAD PUSH4 0xFFFFFFFF AND DUP6 MSTORE SWAP4 DUP2 ADD SWAP4 SWAP3 DUP2 ADD SWAP3 PUSH1 0x1 ADD PUSH2 0x162D JUMP JUMPDEST SWAP1 PUSH1 0x1 DUP3 DUP2 SHR SWAP3 AND DUP1 ISZERO PUSH2 0x1683 JUMPI JUMPDEST PUSH1 0x20 DUP4 LT EQ PUSH2 0x166F JUMPI JUMP JUMPDEST PUSH4 0x4E487B71 PUSH1 0xE0 SHL PUSH0 MSTORE PUSH1 0x22 PUSH1 0x4 MSTORE PUSH1 0x24 PUSH0 REVERT JUMPDEST SWAP2 PUSH1 0x7F AND SWAP2 PUSH2 0x1664 JUMP JUMPDEST PUSH1 0xA0 DUP2 ADD SWAP1 DUP2 LT PUSH8 0xFFFFFFFFFFFFFFFF DUP3 GT OR PUSH2 0x16A9 JUMPI PUSH1 0x40 MSTORE JUMP JUMPDEST PUSH4 0x4E487B71 PUSH1 0xE0 SHL PUSH0 MSTORE PUSH1 0x41 PUSH1 0x4 MSTORE PUSH1 0x24 PUSH0 REVERT JUMPDEST SWAP1 PUSH1 0x1F DUP1 NOT SWAP2 ADD AND DUP2 ADD SWAP1 DUP2 LT PUSH8 0xFFFFFFFFFFFFFFFF DUP3 GT OR PUSH2 0x16A9 JUMPI PUSH1 0x40 MSTORE JUMP JUMPDEST SWAP1 PUSH1 0x40 MLOAD SWAP2 DUP3 PUSH0 DUP3 SLOAD SWAP3 PUSH2 0x16F2 DUP5 PUSH2 0x1655 JUMP JUMPDEST SWAP1 DUP2 DUP5 MSTORE PUSH1 0x1 SWAP5 DUP6 DUP2 AND SWAP1 DUP2 PUSH0 EQ PUSH2 0x175D JUMPI POP PUSH1 0x1 EQ PUSH2 0x171D JUMPI JUMPDEST POP POP PUSH2 0x171B SWAP3 POP SUB DUP4 PUSH2 0x16BD JUMP JUMPDEST JUMP JUMPDEST SWAP1 SWAP4 SWAP2 POP PUSH0 MSTORE PUSH1 0x20 SWAP1 DUP2 PUSH0 KECCAK256 SWAP4 PUSH0 SWAP2 JUMPDEST DUP2 DUP4 LT PUSH2 0x1745 JUMPI POP POP PUSH2 0x171B SWAP4 POP DUP3 ADD ADD PUSH0 DUP1 PUSH2 0x170D JUMP JUMPDEST DUP6 SLOAD DUP9 DUP5 ADD DUP6 ADD MSTORE SWAP5 DUP6 ADD SWAP5 DUP8 SWAP5 POP SWAP2 DUP4 ADD SWAP2 PUSH2 0x172D JUMP JUMPDEST SWAP2 POP POP PUSH2 0x171B SWAP5 POP PUSH1 0x20 SWAP3 POP PUSH1 0xFF NOT AND DUP3 DUP5 ADD MSTORE ISZERO ISZERO PUSH1 0x5 SHL DUP3 ADD ADD PUSH0 DUP1 PUSH2 0x170D JUMP JUMPDEST SWAP2 SWAP1 DUP3 MLOAD SWAP3 DUP4 DUP3 MSTORE PUSH0 JUMPDEST DUP5 DUP2 LT PUSH2 0x17AA JUMPI POP POP DUP3 PUSH0 PUSH1 0x20 DUP1 SWAP5 SWAP6 DUP5 ADD ADD MSTORE PUSH1 0x1F DUP1 NOT SWAP2 ADD AND ADD ADD SWAP1 JUMP JUMPDEST PUSH1 0x20 DUP2 DUP4 ADD DUP2 ADD MLOAD DUP5 DUP4 ADD DUP3 ADD MSTORE ADD PUSH2 0x178A JUMP JUMPDEST PUSH1 0x44 CALLDATALOAD SWAP1 PUSH1 0x1 PUSH1 0x1 PUSH1 0xA0 SHL SUB DUP3 AND DUP3 SUB PUSH2 0x642 JUMPI JUMP JUMPDEST PUSH1 0x4 SLOAD DUP2 LT ISZERO PUSH2 0x1601 JUMPI PUSH1 0x4 PUSH0 MSTORE PUSH32 0x8A35ACFBC15FF81A39AE7D344FD709F28E8600B4AA8C65C6B64BFE7FE36BD19B ADD SWAP1 PUSH0 SWAP1 JUMP JUMPDEST SWAP3 SWAP2 SWAP3 PUSH8 0xFFFFFFFFFFFFFFFF DUP3 GT PUSH2 0x16A9 JUMPI PUSH1 0x40 MLOAD SWAP2 PUSH2 0x1833 PUSH1 0x1F DUP3 ADD PUSH1 0x1F NOT AND PUSH1 0x20 ADD DUP5 PUSH2 0x16BD JUMP JUMPDEST DUP3 SWAP5 DUP2 DUP5 MSTORE DUP2 DUP4 ADD GT PUSH2 0x642 JUMPI DUP3 DUP2 PUSH1 0x20 SWAP4 DUP5 PUSH0 SWAP7 ADD CALLDATACOPY ADD ADD MSTORE JUMP JUMPDEST DUP2 DUP2 LT PUSH2 0x185A JUMPI POP POP JUMP JUMPDEST PUSH0 DUP2 SSTORE PUSH1 0x1 ADD PUSH2 0x184F JUMP JUMPDEST PUSH2 0x186F DUP2 SLOAD PUSH2 0x1655 JUMP JUMPDEST SWAP1 DUP2 PUSH2 0x1879 JUMPI POP POP JUMP JUMPDEST DUP2 PUSH1 0x1F PUSH0 SWAP4 GT PUSH1 0x1 EQ PUSH2 0x188A JUMPI POP SSTORE JUMP JUMPDEST SWAP1 DUP1 DUP4 SWAP2 DUP3 MSTORE PUSH2 0x18A9 PUSH1 0x1F PUSH1 0x20 DUP5 KECCAK256 SWAP5 ADD PUSH1 0x5 SHR DUP5 ADD PUSH1 0x1 DUP6 ADD PUSH2 0x184F JUMP JUMPDEST SSTORE SSTORE JUMP JUMPDEST PUSH0 NOT DUP2 EQ PUSH2 0x18BB JUMPI PUSH1 0x1 ADD SWAP1 JUMP JUMPDEST PUSH4 0x4E487B71 PUSH1 0xE0 SHL PUSH0 MSTORE PUSH1 0x11 PUSH1 0x4 MSTORE PUSH1 0x24 PUSH0 REVERT JUMPDEST PUSH8 0xFFFFFFFFFFFFFFFF DUP2 GT PUSH2 0x16A9 JUMPI PUSH1 0x5 SHL PUSH1 0x20 ADD SWAP1 JUMP INVALID LOG2 PUSH5 0x6970667358 0x22 SLT KECCAK256 0xD7 0xF6 CALLER DUP6 0xD5 PUSH15 0x2DA818B4AABBE38A8D3041EE44E8FD 0xDB EXTCODECOPY DUP7 0xA5 0x1F PUSH7 0x1B1873D0BF6473 PUSH16 0x6C634300081400330000000000000000 "},"methodIdentifiers":{"acceptGovernance()":"238efcbc","chainIds(uint256)":"21d93090","chains(uint32)":"8b203dd4","getAllChains()":"9ca220dd","getAllTokens()":"2a5c792a","getGatewayWallet(uint32)":"6757572d","getTokenChains(bytes32)":"761f301e","getTokenId(string)":"1e7663bc","getTokenInfo(bytes32,uint32)":"a52b9d0c","getVault(bytes32,uint32)":"d4ca80bd","governance()":"5aa6e675","isTokenRegistered(bytes32,uint32)":"0c056019","pendingGovernance()":"f39c38a0","registerChain(uint32,address,string)":"f287dd28","registerToken(bytes32,uint32,address,address,string,string,uint8)":"ff556fd5","tokenIds(uint256)":"d58778d6","tokens(bytes32,uint32)":"afcb4b5b","transferGovernance(address)":"d38bfff4","unregisterToken(bytes32,uint32)":"cffb01eb","updateChain(uint32,bool,address)":"8f8bd310","updateVault(bytes32,uint32,address)":"961983c1"}}}}}