{"project/core/FluxaSwapRouter.sol":{"FluxaSwapRouter":{"abi":[{"inputs":[{"internalType":"address","name":"_localPool","type":"address"},{"internalType":"address","name":"_arcRouter","type":"address"},{"internalType":"address","name":"_lzEndpoint","type":"address"},{"internalType":"uint32","name":"_chainId","type":"uint32"}],"stateMutability":"nonpayable","type":"constructor"},{"inputs":[{"internalType":"address","name":"owner","type":"address"}],"name":"OwnableInvalidOwner","type":"error"},{"inputs":[{"internalType":"address","name":"account","type":"address"}],"name":"OwnableUnauthorizedAccount","type":"error"},{"inputs":[],"name":"ReentrancyGuardReentrantCall","type":"error"},{"inputs":[{"internalType":"address","name":"token","type":"address"}],"name":"SafeERC20FailedOperation","type":"error"},{"anonymous":false,"inputs":[{"indexed":true,"internalType":"bytes32","name":"requestId","type":"bytes32"},{"indexed":true,"internalType":"address","name":"user","type":"address"},{"indexed":false,"internalType":"address","name":"tokenOut","type":"address"},{"indexed":false,"internalType":"uint256","name":"amountOut","type":"uint256"}],"name":"ArcSwapCompleted","type":"event"},{"anonymous":false,"inputs":[{"indexed":true,"internalType":"bytes32","name":"requestId","type":"bytes32"},{"indexed":true,"internalType":"address","name":"user","type":"address"},{"indexed":false,"internalType":"uint32","name":"arcChainId","type":"uint32"}],"name":"ArcSwapInitiated","type":"event"},{"anonymous":false,"inputs":[{"indexed":true,"internalType":"address","name":"previousOwner","type":"address"},{"indexed":true,"internalType":"address","name":"newOwner","type":"address"}],"name":"OwnershipTransferred","type":"event"},{"anonymous":false,"inputs":[{"indexed":true,"internalType":"bytes32","name":"requestId","type":"bytes32"},{"indexed":true,"internalType":"address","name":"user","type":"address"},{"indexed":false,"internalType":"address","name":"tokenOut","type":"address"},{"indexed":false,"internalType":"uint256","name":"amountOut","type":"uint256"},{"indexed":false,"internalType":"enum FluxaSwapRouter.SwapStrategy","name":"strategy","type":"uint8"}],"name":"SwapExecuted","type":"event"},{"anonymous":false,"inputs":[{"indexed":true,"internalType":"bytes32","name":"requestId","type":"bytes32"},{"indexed":true,"internalType":"address","name":"user","type":"address"},{"indexed":false,"internalType":"address","name":"tokenIn","type":"address"},{"indexed":false,"internalType":"address","name":"tokenOut","type":"address"},{"indexed":false,"internalType":"uint256","name":"amountIn","type":"uint256"},{"indexed":false,"internalType":"uint256","name":"minAmountOut","type":"uint256"}],"name":"SwapRequested","type":"event"},{"inputs":[],"name":"ARC_CHAIN_ID","outputs":[{"internalType":"uint32","name":"","type":"uint32"}],"stateMutability":"view","type":"function"},{"inputs":[],"name":"arcRouter","outputs":[{"internalType":"address","name":"","type":"address"}],"stateMutability":"view","type":"function"},{"inputs":[],"name":"chainId","outputs":[{"internalType":"uint32","name":"","type":"uint32"}],"stateMutability":"view","type":"function"},{"inputs":[{"internalType":"bytes32","name":"requestId","type":"bytes32"},{"internalType":"address","name":"tokenOut","type":"address"},{"internalType":"uint256","name":"amountOut","type":"uint256"}],"name":"completeArcSwap","outputs":[],"stateMutability":"nonpayable","type":"function"},{"inputs":[{"internalType":"bytes32","name":"requestId","type":"bytes32"},{"components":[{"internalType":"bytes32","name":"requestId","type":"bytes32"},{"internalType":"address","name":"user","type":"address"},{"internalType":"uint32","name":"userChainId","type":"uint32"},{"internalType":"address","name":"tokenIn","type":"address"},{"internalType":"address","name":"tokenOut","type":"address"},{"internalType":"uint256","name":"amountIn","type":"uint256"},{"internalType":"uint256","name":"minAmountOut","type":"uint256"},{"internalType":"bool","name":"useArc","type":"bool"}],"internalType":"struct FluxaSwapRouter.RoutePlan","name":"routePlan","type":"tuple"}],"name":"confirmRouteAndSend","outputs":[],"stateMutability":"nonpayable","type":"function"},{"inputs":[{"internalType":"bytes32","name":"requestId","type":"bytes32"}],"name":"getSwapRequest","outputs":[{"components":[{"internalType":"address","name":"user","type":"address"},{"internalType":"address","name":"tokenIn","type":"address"},{"internalType":"address","name":"tokenOut","type":"address"},{"internalType":"uint256","name":"amountIn","type":"uint256"},{"internalType":"uint256","name":"minAmountOut","type":"uint256"},{"internalType":"enum FluxaSwapRouter.SwapStrategy","name":"strategy","type":"uint8"},{"internalType":"bool","name":"completed","type":"bool"}],"internalType":"struct FluxaSwapRouter.SwapRequest","name":"","type":"tuple"}],"stateMutability":"view","type":"function"},{"inputs":[],"name":"localPool","outputs":[{"internalType":"address","name":"","type":"address"}],"stateMutability":"view","type":"function"},{"inputs":[],"name":"lzEndpoint","outputs":[{"internalType":"address","name":"","type":"address"}],"stateMutability":"view","type":"function"},{"inputs":[],"name":"owner","outputs":[{"internalType":"address","name":"","type":"address"}],"stateMutability":"view","type":"function"},{"inputs":[{"internalType":"bytes32","name":"","type":"bytes32"}],"name":"pendingSwaps","outputs":[{"internalType":"address","name":"user","type":"address"},{"internalType":"address","name":"tokenIn","type":"address"},{"internalType":"address","name":"tokenOut","type":"address"},{"internalType":"uint256","name":"amountIn","type":"uint256"},{"internalType":"uint256","name":"minAmountOut","type":"uint256"},{"internalType":"enum FluxaSwapRouter.SwapStrategy","name":"strategy","type":"uint8"},{"internalType":"bool","name":"completed","type":"bool"}],"stateMutability":"view","type":"function"},{"inputs":[],"name":"renounceOwnership","outputs":[],"stateMutability":"nonpayable","type":"function"},{"inputs":[],"name":"requestIdCounter","outputs":[{"internalType":"uint256","name":"","type":"uint256"}],"stateMutability":"view","type":"function"},{"inputs":[{"internalType":"address","name":"_arcRouter","type":"address"}],"name":"setArcRouter","outputs":[],"stateMutability":"nonpayable","type":"function"},{"inputs":[{"internalType":"address","name":"_lzEndpoint","type":"address"}],"name":"setLZEndpoint","outputs":[],"stateMutability":"nonpayable","type":"function"},{"inputs":[{"internalType":"address","name":"_localPool","type":"address"}],"name":"setLocalPool","outputs":[],"stateMutability":"nonpayable","type":"function"},{"inputs":[{"internalType":"address","name":"tokenIn","type":"address"},{"internalType":"address","name":"tokenOut","type":"address"},{"internalType":"uint256","name":"amountIn","type":"uint256"},{"internalType":"uint256","name":"minAmountOut","type":"uint256"}],"name":"swap","outputs":[{"internalType":"bytes32","name":"requestId","type":"bytes32"}],"stateMutability":"nonpayable","type":"function"},{"inputs":[{"internalType":"address","name":"newOwner","type":"address"}],"name":"transferOwnership","outputs":[],"stateMutability":"nonpayable","type":"function"}],"evm":{"bytecode":{"linkReferences":{},"object":"60a03461019157601f6200124138819003918201601f191683019291906001600160401b038411838510176101955781608092849260409687528339810103126101915761004c816101a9565b90610059602082016101a9565b9060606100678583016101a9565b9101519263ffffffff8416840361019157331561017a575f549260018060a01b03199233848616175f5586519460018060a01b03938491823391167f8be0079c531659141344cd1fd0a4f28419497f9722a3daafe3b4186f6b6457e05f80a3600180551694851561014c5750821693841561011857836002541617600255168160035416176003556004541617600455608052516110839081620001be823960805181818161073701526109460152f35b865162461bcd60e51b815260206004820152600d60248201526c16915493d7d153911413d25395609a1b6044820152606490fd5b62461bcd60e51b815260206004820152600960248201526816915493d7d413d3d360ba1b6044820152606490fd5b8451631e4fbdf760e01b81525f6004820152602490fd5b5f80fd5b634e487b7160e01b5f52604160045260245ffd5b51906001600160a01b03821682036101915756fe6080604081815260049182361015610015575f80fd5b5f92833560e01c9182630f57864e14610b185750816333788beb14610acc5781634b40f1bf14610a835781635019067814610a5a5781636517202814610a0e578163715018a6146109b15781638da5cb5b146109895781638db5888a1461096a5781639a8a059214610929578163a18f9aec14610900578163b288f5bd146106b6578163b353aaa71461068e578163cfa4b42d14610544578163e22ae4cd14610424578163f2fde38b14610399578163fe029156146100fd575063fe2e29ad146100dd575f80fd5b346100f957816003193601126100f95760209051624cef528152f35b5080fd5b8383346100f95760803660031901126100f957610118610bbe565b91610121610bd8565b906044356064803592610132610d04565b6001600160a01b03968716948515158061038e575b1561035f57831561032f5787169182861461030257600654985f198a146102ef5760018a0160065587519260209a848c80960191428352438c8301523360601b606083015260748201526074815261019e81610c49565b51902089516323b872dd60e01b86820152336024820152306044820152808501889052938452998a936101d081610c49565b6101da908a610c9f565b878a8051926101e884610c19565b3384528784018c8152828501918a83528060608701948d86526080880196875260a088019b898d5260c089019b8a8d528a52600590528820965116916001600160601b0360a01b92838854161787558160018801915116838254161790556002860192511690825416179055516003830155518382015560050193519160028310156102dc57505061027a9083610c87565b51151561ff0082549160081b169061ff001916179055845193845286840152838301526060820152827f4d9d88bfb3cd5ee5f3fc27d53bd07f0e888e4130afff58d4330e307cca82ed4c60803393a36102d282610dae565b6001805551908152f35b634e487b7160e01b825260219052602490fd5b634e487b7160e01b835260119052602482fd5b865162461bcd60e51b81526020818b0152600a60248201526929a0a6a2afaa27a5a2a760b11b6044820152fd5b865162461bcd60e51b81526020818b0152600b60248201526a16915493d7d05353d5539560aa1b60448201528390fd5b865162461bcd60e51b81526020818b0152600a6024820152692d22a927afaa27a5a2a760b11b60448201528390fd5b508781161515610147565b905034610420576020366003190112610420576103b4610bbe565b906103bd610bee565b6001600160a01b0391821692831561040a57505082546001600160a01b0319811683178455167f8be0079c531659141344cd1fd0a4f28419497f9722a3daafe3b4186f6b6457e08380a380f35b51631e4fbdf760e01b8152908101849052602490fd5b8280fd5b8383346100f95760203660031901126100f9578160c0825161044581610c19565b82815282602082015282848201528260608201528260808201528260a082015201528235825260056020528082209181519261048084610c19565b60018060a01b038082541685528060018301541693602086019485528160028401541691818701928352600384015492606088019384526005898601549560808a0196875201549660ff881660a08a019760028210156105315760e08b8b6105278c8c8c8c8c8c818d8d885260ff60c08c019a60081c1615158a528185519b51168b52511660208a01525116908701525160608601525160808501525160a0840190610b9d565b51151560c0820152f35b634e487b7160e01b815260218c52602490fd5b90503461042057606036600319011261042057803590610562610bd8565b926044359361056f610d04565b8386526005602052818620600581019061059060ff835460081c1615610d27565b60028101546001600160a01b0384811696909391841687900361065d5793877ff0a677e20b308102f4000b5131ca3c7eeaa02a61318f5c55657c59e8e8f9e3b2600195858c9561060a7fb2f1a9cc2835277632ae6e85c71e8b17845261648803472e98d3be0cf9f9167c9c9a60609c990154881015610d77565b61061887848454168c610fcf565b805461ff0019166101001790555486516001600160a01b03959095168552602085019c909c52909a16998a92604090a381519384526020840152820152a36001805580f35b606490602087519162461bcd60e51b8352820152600b60248201526a2ba927a723afaa27a5a2a760a91b6044820152fd5b9050346104205782600319360112610420575490516001600160a01b03909116815260209150f35b8383346100f95761012090816003193601126104205783359061010090816023193601126108fc576106e6610bee565b6106ee610d04565b828552602091600583528186209160018060a01b039283815416156108c7576005019561072260ff885460081c1615610d27565b6064359663ffffffff808916809903610870577f00000000000000000000000000000000000000000000000000000000000000001688036108965761077690610769610d67565b1561088f57600190610c87565b61077e610d67565b156108785785885260058552818820926107a5856001860154166003860154903090610fcf565b825197602435878a015260443586811680910361087457848a0152606089015260843585811680910361087057608089015260a4358581168091036108705760a089015260c43560c089015260e43560e08901526101043580151580910361087057818901528752860195861067ffffffffffffffff87111761085d5785969750947f2831fedcd0fadee11ee5ac972d19b0fad77e6b9f802fc8e303e9551dca664db1949552541693624cef528152a35b6001805580f35b634e487b7160e01b875260418852602487fd5b8980fd5b8a80fd5b5050505050905061088a919250610dae565b610856565b8990610c87565b825162461bcd60e51b8152808b01879052600b60248201526a2ba927a723afa1a420a4a760a91b6044820152606490fd5b815162461bcd60e51b8152808a01869052600f60248201526e1253959053125117d49154555154d5608a1b6044820152606490fd5b8480fd5b5050346100f957816003193601126100f95760025490516001600160a01b039091168152602090f35b5050346100f957816003193601126100f9576020905163ffffffff7f0000000000000000000000000000000000000000000000000000000000000000168152f35b5050346100f957816003193601126100f9576020906006549051908152f35b5050346100f957816003193601126100f957905490516001600160a01b039091168152602090f35b8334610a0b5780600319360112610a0b576109ca610bee565b80546001600160a01b03198116825581906001600160a01b03167f8be0079c531659141344cd1fd0a4f28419497f9722a3daafe3b4186f6b6457e08280a380f35b80fd5b8334610a0b576020366003190112610a0b57610a28610bbe565b610a30610bee565b6001600160a01b0316610a44811515611012565b6001600160601b0360a01b600254161760025580f35b5050346100f957816003193601126100f95760035490516001600160a01b039091168152602090f35b8390346100f95760203660031901126100f957610a9e610bbe565b610aa6610bee565b6001600160a01b0316610aba811515611012565b81546001600160a01b03191617905580f35b8334610a0b576020366003190112610a0b57610ae6610bbe565b610aee610bee565b6001600160a01b0316610b02811515611012565b6001600160601b0360a01b600354161760035580f35b92915034610b99576020366003190112610b995790818160e09560ff943581526005602052209060018060a01b0380835416938160018501541691600285015416916005600386015494860154950154958852602088015286015260608501526080840152610b8c60a08401838316610b9d565b60081c16151560c0820152f35b8380fd5b906002821015610baa5752565b634e487b7160e01b5f52602160045260245ffd5b600435906001600160a01b0382168203610bd457565b5f80fd5b602435906001600160a01b0382168203610bd457565b5f546001600160a01b03163303610c0157565b60405163118cdaa760e01b8152336004820152602490fd5b60e0810190811067ffffffffffffffff821117610c3557604052565b634e487b7160e01b5f52604160045260245ffd5b60a0810190811067ffffffffffffffff821117610c3557604052565b90601f8019910116810190811067ffffffffffffffff821117610c3557604052565b906002811015610baa5760ff80198354169116179055565b905f602091828151910182855af115610cf9575f513d610cf057506001600160a01b0381163b155b610cce5750565b604051635274afe760e01b81526001600160a01b039091166004820152602490fd5b60011415610cc7565b6040513d5f823e3d90fd5b600260015414610d15576002600155565b604051633ee5aeb560e01b8152600490fd5b15610d2e57565b60405162461bcd60e51b81526020600482015260116024820152701053149150511657d0d3d3541311551151607a1b6044820152606490fd5b610104358015158103610bd45790565b15610d7e57565b60405162461bcd60e51b8152602060048201526008602482015267534c49505041474560c01b6044820152606490fd5b805f526005602052604090815f2091610dd160ff600585015460081c1615610d27565b600183018054600254600386018054855163095ea7b360e01b81526001600160a01b0393841660048201526024810191909152909493929091602091839160449183915f91165af18015610fc557610f8d575b506002805491549086015493546004870180548854865163d5bcb9b560e01b602082019081526001600160a01b039687166024830152988616604482015260648101949094526084840191909152831660a4808401919091528252945f93849316918390610e9181610c19565b51925af1913d15610f85573d9267ffffffffffffffff8411610c3557825193610ec4601f8201601f191660200186610c65565b84523d5f602086013e5b15610f5357602083805181010312610bd4575f606092610f1760207fb2f1a9cc2835277632ae6e85c71e8b17845261648803472e98d3be0cf9f9167c9601519354841015610d77565b61010061ff001960058901541617600588015560018060a01b0387541696600260018060a01b03910154169281519384526020840152820152a3565b815162461bcd60e51b815260206004820152600b60248201526a14d5d05417d1905253115160aa1b6044820152606490fd5b606092610ece565b6020813d602011610fbd575b81610fa660209383610c65565b81010312610bd4575180151503610bd4575f610e24565b3d9150610f99565b83513d5f823e3d90fd5b60405163a9059cbb60e01b60208201526001600160a01b039290921660248301526044808301939093529181526110109161100b606483610c65565b610c9f565b565b1561101957565b60405162461bcd60e51b815260206004820152600c60248201526b5a45524f5f4144445245535360a01b6044820152606490fdfea2646970667358221220845e8c64fc6bd4dac53aa233216966c48ad08c139245435bc8aadd19ea5c01b264736f6c63430008140033","opcodes":"PUSH1 0xA0 CALLVALUE PUSH2 0x191 JUMPI PUSH1 0x1F PUSH3 0x1241 CODESIZE DUP2 SWAP1 SUB SWAP2 DUP3 ADD PUSH1 0x1F NOT AND DUP4 ADD SWAP3 SWAP2 SWAP1 PUSH1 0x1 PUSH1 0x1 PUSH1 0x40 SHL SUB DUP5 GT DUP4 DUP6 LT OR PUSH2 0x195 JUMPI DUP2 PUSH1 0x80 SWAP3 DUP5 SWAP3 PUSH1 0x40 SWAP7 DUP8 MSTORE DUP4 CODECOPY DUP2 ADD SUB SLT PUSH2 0x191 JUMPI PUSH2 0x4C DUP2 PUSH2 0x1A9 JUMP JUMPDEST SWAP1 PUSH2 0x59 PUSH1 0x20 DUP3 ADD PUSH2 0x1A9 JUMP JUMPDEST SWAP1 PUSH1 0x60 PUSH2 0x67 DUP6 DUP4 ADD PUSH2 0x1A9 JUMP JUMPDEST SWAP2 ADD MLOAD SWAP3 PUSH4 0xFFFFFFFF DUP5 AND DUP5 SUB PUSH2 0x191 JUMPI CALLER ISZERO PUSH2 0x17A JUMPI PUSH0 SLOAD SWAP3 PUSH1 0x1 DUP1 PUSH1 0xA0 SHL SUB NOT SWAP3 CALLER DUP5 DUP7 AND OR PUSH0 SSTORE DUP7 MLOAD SWAP5 PUSH1 0x1 DUP1 PUSH1 0xA0 SHL SUB SWAP4 DUP5 SWAP2 DUP3 CALLER SWAP2 AND PUSH32 0x8BE0079C531659141344CD1FD0A4F28419497F9722A3DAAFE3B4186F6B6457E0 PUSH0 DUP1 LOG3 PUSH1 0x1 DUP1 SSTORE AND SWAP5 DUP6 ISZERO PUSH2 0x14C JUMPI POP DUP3 AND SWAP4 DUP5 ISZERO PUSH2 0x118 JUMPI DUP4 PUSH1 0x2 SLOAD AND OR PUSH1 0x2 SSTORE AND DUP2 PUSH1 0x3 SLOAD AND OR PUSH1 0x3 SSTORE PUSH1 0x4 SLOAD AND OR PUSH1 0x4 SSTORE PUSH1 0x80 MSTORE MLOAD PUSH2 0x1083 SWAP1 DUP2 PUSH3 0x1BE DUP3 CODECOPY PUSH1 0x80 MLOAD DUP2 DUP2 DUP2 PUSH2 0x737 ADD MSTORE PUSH2 0x946 ADD MSTORE RETURN JUMPDEST DUP7 MLOAD PUSH3 0x461BCD PUSH1 0xE5 SHL DUP2 MSTORE PUSH1 0x20 PUSH1 0x4 DUP3 ADD MSTORE PUSH1 0xD PUSH1 0x24 DUP3 ADD MSTORE PUSH13 0x16915493D7D153911413D25395 PUSH1 0x9A SHL PUSH1 0x44 DUP3 ADD MSTORE PUSH1 0x64 SWAP1 REVERT JUMPDEST PUSH3 0x461BCD PUSH1 0xE5 SHL DUP2 MSTORE PUSH1 0x20 PUSH1 0x4 DUP3 ADD MSTORE PUSH1 0x9 PUSH1 0x24 DUP3 ADD MSTORE PUSH9 0x16915493D7D413D3D3 PUSH1 0xBA SHL PUSH1 0x44 DUP3 ADD MSTORE PUSH1 0x64 SWAP1 REVERT JUMPDEST DUP5 MLOAD PUSH4 0x1E4FBDF7 PUSH1 0xE0 SHL DUP2 MSTORE PUSH0 PUSH1 0x4 DUP3 ADD MSTORE PUSH1 0x24 SWAP1 REVERT JUMPDEST PUSH0 DUP1 REVERT JUMPDEST PUSH4 0x4E487B71 PUSH1 0xE0 SHL PUSH0 MSTORE PUSH1 0x41 PUSH1 0x4 MSTORE PUSH1 0x24 PUSH0 REVERT JUMPDEST MLOAD SWAP1 PUSH1 0x1 PUSH1 0x1 PUSH1 0xA0 SHL SUB DUP3 AND DUP3 SUB PUSH2 0x191 JUMPI JUMP INVALID PUSH1 0x80 PUSH1 0x40 DUP2 DUP2 MSTORE PUSH1 0x4 SWAP2 DUP3 CALLDATASIZE LT ISZERO PUSH2 0x15 JUMPI PUSH0 DUP1 REVERT JUMPDEST PUSH0 SWAP3 DUP4 CALLDATALOAD PUSH1 0xE0 SHR SWAP2 DUP3 PUSH4 0xF57864E EQ PUSH2 0xB18 JUMPI POP DUP2 PUSH4 0x33788BEB EQ PUSH2 0xACC JUMPI DUP2 PUSH4 0x4B40F1BF EQ PUSH2 0xA83 JUMPI DUP2 PUSH4 0x50190678 EQ PUSH2 0xA5A JUMPI DUP2 PUSH4 0x65172028 EQ PUSH2 0xA0E JUMPI DUP2 PUSH4 0x715018A6 EQ PUSH2 0x9B1 JUMPI DUP2 PUSH4 0x8DA5CB5B EQ PUSH2 0x989 JUMPI DUP2 PUSH4 0x8DB5888A EQ PUSH2 0x96A JUMPI DUP2 PUSH4 0x9A8A0592 EQ PUSH2 0x929 JUMPI DUP2 PUSH4 0xA18F9AEC EQ PUSH2 0x900 JUMPI DUP2 PUSH4 0xB288F5BD EQ PUSH2 0x6B6 JUMPI DUP2 PUSH4 0xB353AAA7 EQ PUSH2 0x68E JUMPI DUP2 PUSH4 0xCFA4B42D EQ PUSH2 0x544 JUMPI DUP2 PUSH4 0xE22AE4CD EQ PUSH2 0x424 JUMPI DUP2 PUSH4 0xF2FDE38B EQ PUSH2 0x399 JUMPI DUP2 PUSH4 0xFE029156 EQ PUSH2 0xFD JUMPI POP PUSH4 0xFE2E29AD EQ PUSH2 0xDD JUMPI PUSH0 DUP1 REVERT JUMPDEST CALLVALUE PUSH2 0xF9 JUMPI DUP2 PUSH1 0x3 NOT CALLDATASIZE ADD SLT PUSH2 0xF9 JUMPI PUSH1 0x20 SWAP1 MLOAD PUSH3 0x4CEF52 DUP2 MSTORE RETURN JUMPDEST POP DUP1 REVERT JUMPDEST DUP4 DUP4 CALLVALUE PUSH2 0xF9 JUMPI PUSH1 0x80 CALLDATASIZE PUSH1 0x3 NOT ADD SLT PUSH2 0xF9 JUMPI PUSH2 0x118 PUSH2 0xBBE JUMP JUMPDEST SWAP2 PUSH2 0x121 PUSH2 0xBD8 JUMP JUMPDEST SWAP1 PUSH1 0x44 CALLDATALOAD PUSH1 0x64 DUP1 CALLDATALOAD SWAP3 PUSH2 0x132 PUSH2 0xD04 JUMP JUMPDEST PUSH1 0x1 PUSH1 0x1 PUSH1 0xA0 SHL SUB SWAP7 DUP8 AND SWAP5 DUP6 ISZERO ISZERO DUP1 PUSH2 0x38E JUMPI JUMPDEST ISZERO PUSH2 0x35F JUMPI DUP4 ISZERO PUSH2 0x32F JUMPI DUP8 AND SWAP2 DUP3 DUP7 EQ PUSH2 0x302 JUMPI PUSH1 0x6 SLOAD SWAP9 PUSH0 NOT DUP11 EQ PUSH2 0x2EF JUMPI PUSH1 0x1 DUP11 ADD PUSH1 0x6 SSTORE DUP8 MLOAD SWAP3 PUSH1 0x20 SWAP11 DUP5 DUP13 DUP1 SWAP7 ADD SWAP2 TIMESTAMP DUP4 MSTORE NUMBER DUP13 DUP4 ADD MSTORE CALLER PUSH1 0x60 SHL PUSH1 0x60 DUP4 ADD MSTORE PUSH1 0x74 DUP3 ADD MSTORE PUSH1 0x74 DUP2 MSTORE PUSH2 0x19E DUP2 PUSH2 0xC49 JUMP JUMPDEST MLOAD SWAP1 KECCAK256 DUP10 MLOAD PUSH4 0x23B872DD PUSH1 0xE0 SHL DUP7 DUP3 ADD MSTORE CALLER PUSH1 0x24 DUP3 ADD MSTORE ADDRESS PUSH1 0x44 DUP3 ADD MSTORE DUP1 DUP6 ADD DUP9 SWAP1 MSTORE SWAP4 DUP5 MSTORE SWAP10 DUP11 SWAP4 PUSH2 0x1D0 DUP2 PUSH2 0xC49 JUMP JUMPDEST PUSH2 0x1DA SWAP1 DUP11 PUSH2 0xC9F JUMP JUMPDEST DUP8 DUP11 DUP1 MLOAD SWAP3 PUSH2 0x1E8 DUP5 PUSH2 0xC19 JUMP JUMPDEST CALLER DUP5 MSTORE DUP8 DUP5 ADD DUP13 DUP2 MSTORE DUP3 DUP6 ADD SWAP2 DUP11 DUP4 MSTORE DUP1 PUSH1 0x60 DUP8 ADD SWAP5 DUP14 DUP7 MSTORE PUSH1 0x80 DUP9 ADD SWAP7 DUP8 MSTORE PUSH1 0xA0 DUP9 ADD SWAP12 DUP10 DUP14 MSTORE PUSH1 0xC0 DUP10 ADD SWAP12 DUP11 DUP14 MSTORE DUP11 MSTORE PUSH1 0x5 SWAP1 MSTORE DUP9 KECCAK256 SWAP7 MLOAD AND SWAP2 PUSH1 0x1 PUSH1 0x1 PUSH1 0x60 SHL SUB PUSH1 0xA0 SHL SWAP3 DUP4 DUP9 SLOAD AND OR DUP8 SSTORE DUP2 PUSH1 0x1 DUP9 ADD SWAP2 MLOAD AND DUP4 DUP3 SLOAD AND OR SWAP1 SSTORE PUSH1 0x2 DUP7 ADD SWAP3 MLOAD AND SWAP1 DUP3 SLOAD AND OR SWAP1 SSTORE MLOAD PUSH1 0x3 DUP4 ADD SSTORE MLOAD DUP4 DUP3 ADD SSTORE PUSH1 0x5 ADD SWAP4 MLOAD SWAP2 PUSH1 0x2 DUP4 LT ISZERO PUSH2 0x2DC JUMPI POP POP PUSH2 0x27A SWAP1 DUP4 PUSH2 0xC87 JUMP JUMPDEST MLOAD ISZERO ISZERO PUSH2 0xFF00 DUP3 SLOAD SWAP2 PUSH1 0x8 SHL AND SWAP1 PUSH2 0xFF00 NOT AND OR SWAP1 SSTORE DUP5 MLOAD SWAP4 DUP5 MSTORE DUP7 DUP5 ADD MSTORE DUP4 DUP4 ADD MSTORE PUSH1 0x60 DUP3 ADD MSTORE DUP3 PUSH32 0x4D9D88BFB3CD5EE5F3FC27D53BD07F0E888E4130AFFF58D4330E307CCA82ED4C PUSH1 0x80 CALLER SWAP4 LOG3 PUSH2 0x2D2 DUP3 PUSH2 0xDAE JUMP JUMPDEST PUSH1 0x1 DUP1 SSTORE MLOAD SWAP1 DUP2 MSTORE RETURN JUMPDEST PUSH4 0x4E487B71 PUSH1 0xE0 SHL DUP3 MSTORE PUSH1 0x21 SWAP1 MSTORE PUSH1 0x24 SWAP1 REVERT JUMPDEST PUSH4 0x4E487B71 PUSH1 0xE0 SHL DUP4 MSTORE PUSH1 0x11 SWAP1 MSTORE PUSH1 0x24 DUP3 REVERT JUMPDEST DUP7 MLOAD PUSH3 0x461BCD PUSH1 0xE5 SHL DUP2 MSTORE PUSH1 0x20 DUP2 DUP12 ADD MSTORE PUSH1 0xA PUSH1 0x24 DUP3 ADD MSTORE PUSH10 0x29A0A6A2AFAA27A5A2A7 PUSH1 0xB1 SHL PUSH1 0x44 DUP3 ADD MSTORE REVERT JUMPDEST DUP7 MLOAD PUSH3 0x461BCD PUSH1 0xE5 SHL DUP2 MSTORE PUSH1 0x20 DUP2 DUP12 ADD MSTORE PUSH1 0xB PUSH1 0x24 DUP3 ADD MSTORE PUSH11 0x16915493D7D05353D55395 PUSH1 0xAA SHL PUSH1 0x44 DUP3 ADD MSTORE DUP4 SWAP1 REVERT JUMPDEST DUP7 MLOAD PUSH3 0x461BCD PUSH1 0xE5 SHL DUP2 MSTORE PUSH1 0x20 DUP2 DUP12 ADD MSTORE PUSH1 0xA PUSH1 0x24 DUP3 ADD MSTORE PUSH10 0x2D22A927AFAA27A5A2A7 PUSH1 0xB1 SHL PUSH1 0x44 DUP3 ADD MSTORE DUP4 SWAP1 REVERT JUMPDEST POP DUP8 DUP2 AND ISZERO ISZERO PUSH2 0x147 JUMP JUMPDEST SWAP1 POP CALLVALUE PUSH2 0x420 JUMPI PUSH1 0x20 CALLDATASIZE PUSH1 0x3 NOT ADD SLT PUSH2 0x420 JUMPI PUSH2 0x3B4 PUSH2 0xBBE JUMP JUMPDEST SWAP1 PUSH2 0x3BD PUSH2 0xBEE JUMP JUMPDEST PUSH1 0x1 PUSH1 0x1 PUSH1 0xA0 SHL SUB SWAP2 DUP3 AND SWAP3 DUP4 ISZERO PUSH2 0x40A JUMPI POP POP DUP3 SLOAD PUSH1 0x1 PUSH1 0x1 PUSH1 0xA0 SHL SUB NOT DUP2 AND DUP4 OR DUP5 SSTORE AND PUSH32 0x8BE0079C531659141344CD1FD0A4F28419497F9722A3DAAFE3B4186F6B6457E0 DUP4 DUP1 LOG3 DUP1 RETURN JUMPDEST MLOAD PUSH4 0x1E4FBDF7 PUSH1 0xE0 SHL DUP2 MSTORE SWAP1 DUP2 ADD DUP5 SWAP1 MSTORE PUSH1 0x24 SWAP1 REVERT JUMPDEST DUP3 DUP1 REVERT JUMPDEST DUP4 DUP4 CALLVALUE PUSH2 0xF9 JUMPI PUSH1 0x20 CALLDATASIZE PUSH1 0x3 NOT ADD SLT PUSH2 0xF9 JUMPI DUP2 PUSH1 0xC0 DUP3 MLOAD PUSH2 0x445 DUP2 PUSH2 0xC19 JUMP JUMPDEST DUP3 DUP2 MSTORE DUP3 PUSH1 0x20 DUP3 ADD MSTORE DUP3 DUP5 DUP3 ADD MSTORE DUP3 PUSH1 0x60 DUP3 ADD MSTORE DUP3 PUSH1 0x80 DUP3 ADD MSTORE DUP3 PUSH1 0xA0 DUP3 ADD MSTORE ADD MSTORE DUP3 CALLDATALOAD DUP3 MSTORE PUSH1 0x5 PUSH1 0x20 MSTORE DUP1 DUP3 KECCAK256 SWAP2 DUP2 MLOAD SWAP3 PUSH2 0x480 DUP5 PUSH2 0xC19 JUMP JUMPDEST PUSH1 0x1 DUP1 PUSH1 0xA0 SHL SUB DUP1 DUP3 SLOAD AND DUP6 MSTORE DUP1 PUSH1 0x1 DUP4 ADD SLOAD AND SWAP4 PUSH1 0x20 DUP7 ADD SWAP5 DUP6 MSTORE DUP2 PUSH1 0x2 DUP5 ADD SLOAD AND SWAP2 DUP2 DUP8 ADD SWAP3 DUP4 MSTORE PUSH1 0x3 DUP5 ADD SLOAD SWAP3 PUSH1 0x60 DUP9 ADD SWAP4 DUP5 MSTORE PUSH1 0x5 DUP10 DUP7 ADD SLOAD SWAP6 PUSH1 0x80 DUP11 ADD SWAP7 DUP8 MSTORE ADD SLOAD SWAP7 PUSH1 0xFF DUP9 AND PUSH1 0xA0 DUP11 ADD SWAP8 PUSH1 0x2 DUP3 LT ISZERO PUSH2 0x531 JUMPI PUSH1 0xE0 DUP12 DUP12 PUSH2 0x527 DUP13 DUP13 DUP13 DUP13 DUP13 DUP13 DUP2 DUP14 DUP14 DUP9 MSTORE PUSH1 0xFF PUSH1 0xC0 DUP13 ADD SWAP11 PUSH1 0x8 SHR AND ISZERO ISZERO DUP11 MSTORE DUP2 DUP6 MLOAD SWAP12 MLOAD AND DUP12 MSTORE MLOAD AND PUSH1 0x20 DUP11 ADD MSTORE MLOAD AND SWAP1 DUP8 ADD MSTORE MLOAD PUSH1 0x60 DUP7 ADD MSTORE MLOAD PUSH1 0x80 DUP6 ADD MSTORE MLOAD PUSH1 0xA0 DUP5 ADD SWAP1 PUSH2 0xB9D JUMP JUMPDEST MLOAD ISZERO ISZERO PUSH1 0xC0 DUP3 ADD MSTORE RETURN JUMPDEST PUSH4 0x4E487B71 PUSH1 0xE0 SHL DUP2 MSTORE PUSH1 0x21 DUP13 MSTORE PUSH1 0x24 SWAP1 REVERT JUMPDEST SWAP1 POP CALLVALUE PUSH2 0x420 JUMPI PUSH1 0x60 CALLDATASIZE PUSH1 0x3 NOT ADD SLT PUSH2 0x420 JUMPI DUP1 CALLDATALOAD SWAP1 PUSH2 0x562 PUSH2 0xBD8 JUMP JUMPDEST SWAP3 PUSH1 0x44 CALLDATALOAD SWAP4 PUSH2 0x56F PUSH2 0xD04 JUMP JUMPDEST DUP4 DUP7 MSTORE PUSH1 0x5 PUSH1 0x20 MSTORE DUP2 DUP7 KECCAK256 PUSH1 0x5 DUP2 ADD SWAP1 PUSH2 0x590 PUSH1 0xFF DUP4 SLOAD PUSH1 0x8 SHR AND ISZERO PUSH2 0xD27 JUMP JUMPDEST PUSH1 0x2 DUP2 ADD SLOAD PUSH1 0x1 PUSH1 0x1 PUSH1 0xA0 SHL SUB DUP5 DUP2 AND SWAP7 SWAP1 SWAP4 SWAP2 DUP5 AND DUP8 SWAP1 SUB PUSH2 0x65D JUMPI SWAP4 DUP8 PUSH32 0xF0A677E20B308102F4000B5131CA3C7EEAA02A61318F5C55657C59E8E8F9E3B2 PUSH1 0x1 SWAP6 DUP6 DUP13 SWAP6 PUSH2 0x60A PUSH32 0xB2F1A9CC2835277632AE6E85C71E8B17845261648803472E98D3BE0CF9F9167C SWAP13 SWAP11 PUSH1 0x60 SWAP13 SWAP10 ADD SLOAD DUP9 LT ISZERO PUSH2 0xD77 JUMP JUMPDEST PUSH2 0x618 DUP8 DUP5 DUP5 SLOAD AND DUP13 PUSH2 0xFCF JUMP JUMPDEST DUP1 SLOAD PUSH2 0xFF00 NOT AND PUSH2 0x100 OR SWAP1 SSTORE SLOAD DUP7 MLOAD PUSH1 0x1 PUSH1 0x1 PUSH1 0xA0 SHL SUB SWAP6 SWAP1 SWAP6 AND DUP6 MSTORE PUSH1 0x20 DUP6 ADD SWAP13 SWAP1 SWAP13 MSTORE SWAP1 SWAP11 AND SWAP10 DUP11 SWAP3 PUSH1 0x40 SWAP1 LOG3 DUP2 MLOAD SWAP4 DUP5 MSTORE PUSH1 0x20 DUP5 ADD MSTORE DUP3 ADD MSTORE LOG3 PUSH1 0x1 DUP1 SSTORE DUP1 RETURN JUMPDEST PUSH1 0x64 SWAP1 PUSH1 0x20 DUP8 MLOAD SWAP2 PUSH3 0x461BCD PUSH1 0xE5 SHL DUP4 MSTORE DUP3 ADD MSTORE PUSH1 0xB PUSH1 0x24 DUP3 ADD MSTORE PUSH11 0x2BA927A723AFAA27A5A2A7 PUSH1 0xA9 SHL PUSH1 0x44 DUP3 ADD MSTORE REVERT JUMPDEST SWAP1 POP CALLVALUE PUSH2 0x420 JUMPI DUP3 PUSH1 0x3 NOT CALLDATASIZE ADD SLT PUSH2 0x420 JUMPI SLOAD SWAP1 MLOAD PUSH1 0x1 PUSH1 0x1 PUSH1 0xA0 SHL SUB SWAP1 SWAP2 AND DUP2 MSTORE PUSH1 0x20 SWAP2 POP RETURN JUMPDEST DUP4 DUP4 CALLVALUE PUSH2 0xF9 JUMPI PUSH2 0x120 SWAP1 DUP2 PUSH1 0x3 NOT CALLDATASIZE ADD SLT PUSH2 0x420 JUMPI DUP4 CALLDATALOAD SWAP1 PUSH2 0x100 SWAP1 DUP2 PUSH1 0x23 NOT CALLDATASIZE ADD SLT PUSH2 0x8FC JUMPI PUSH2 0x6E6 PUSH2 0xBEE JUMP JUMPDEST PUSH2 0x6EE PUSH2 0xD04 JUMP JUMPDEST DUP3 DUP6 MSTORE PUSH1 0x20 SWAP2 PUSH1 0x5 DUP4 MSTORE DUP2 DUP7 KECCAK256 SWAP2 PUSH1 0x1 DUP1 PUSH1 0xA0 SHL SUB SWAP3 DUP4 DUP2 SLOAD AND ISZERO PUSH2 0x8C7 JUMPI PUSH1 0x5 ADD SWAP6 PUSH2 0x722 PUSH1 0xFF DUP9 SLOAD PUSH1 0x8 SHR AND ISZERO PUSH2 0xD27 JUMP JUMPDEST PUSH1 0x64 CALLDATALOAD SWAP7 PUSH4 0xFFFFFFFF DUP1 DUP10 AND DUP1 SWAP10 SUB PUSH2 0x870 JUMPI PUSH32 0x0 AND DUP9 SUB PUSH2 0x896 JUMPI PUSH2 0x776 SWAP1 PUSH2 0x769 PUSH2 0xD67 JUMP JUMPDEST ISZERO PUSH2 0x88F JUMPI PUSH1 0x1 SWAP1 PUSH2 0xC87 JUMP JUMPDEST PUSH2 0x77E PUSH2 0xD67 JUMP JUMPDEST ISZERO PUSH2 0x878 JUMPI DUP6 DUP9 MSTORE PUSH1 0x5 DUP6 MSTORE DUP2 DUP9 KECCAK256 SWAP3 PUSH2 0x7A5 DUP6 PUSH1 0x1 DUP7 ADD SLOAD AND PUSH1 0x3 DUP7 ADD SLOAD SWAP1 ADDRESS SWAP1 PUSH2 0xFCF JUMP JUMPDEST DUP3 MLOAD SWAP8 PUSH1 0x24 CALLDATALOAD DUP8 DUP11 ADD MSTORE PUSH1 0x44 CALLDATALOAD DUP7 DUP2 AND DUP1 SWAP2 SUB PUSH2 0x874 JUMPI DUP5 DUP11 ADD MSTORE PUSH1 0x60 DUP10 ADD MSTORE PUSH1 0x84 CALLDATALOAD DUP6 DUP2 AND DUP1 SWAP2 SUB PUSH2 0x870 JUMPI PUSH1 0x80 DUP10 ADD MSTORE PUSH1 0xA4 CALLDATALOAD DUP6 DUP2 AND DUP1 SWAP2 SUB PUSH2 0x870 JUMPI PUSH1 0xA0 DUP10 ADD MSTORE PUSH1 0xC4 CALLDATALOAD PUSH1 0xC0 DUP10 ADD MSTORE PUSH1 0xE4 CALLDATALOAD PUSH1 0xE0 DUP10 ADD MSTORE PUSH2 0x104 CALLDATALOAD DUP1 ISZERO ISZERO DUP1 SWAP2 SUB PUSH2 0x870 JUMPI DUP2 DUP10 ADD MSTORE DUP8 MSTORE DUP7 ADD SWAP6 DUP7 LT PUSH8 0xFFFFFFFFFFFFFFFF DUP8 GT OR PUSH2 0x85D JUMPI DUP6 SWAP7 SWAP8 POP SWAP5 PUSH32 0x2831FEDCD0FADEE11EE5AC972D19B0FAD77E6B9F802FC8E303E9551DCA664DB1 SWAP5 SWAP6 MSTORE SLOAD AND SWAP4 PUSH3 0x4CEF52 DUP2 MSTORE LOG3 JUMPDEST PUSH1 0x1 DUP1 SSTORE DUP1 RETURN JUMPDEST PUSH4 0x4E487B71 PUSH1 0xE0 SHL DUP8 MSTORE PUSH1 0x41 DUP9 MSTORE PUSH1 0x24 DUP8 REVERT JUMPDEST DUP10 DUP1 REVERT JUMPDEST DUP11 DUP1 REVERT JUMPDEST POP POP POP POP POP SWAP1 POP PUSH2 0x88A SWAP2 SWAP3 POP PUSH2 0xDAE JUMP JUMPDEST PUSH2 0x856 JUMP JUMPDEST DUP10 SWAP1 PUSH2 0xC87 JUMP JUMPDEST DUP3 MLOAD PUSH3 0x461BCD PUSH1 0xE5 SHL DUP2 MSTORE DUP1 DUP12 ADD DUP8 SWAP1 MSTORE PUSH1 0xB PUSH1 0x24 DUP3 ADD MSTORE PUSH11 0x2BA927A723AFA1A420A4A7 PUSH1 0xA9 SHL PUSH1 0x44 DUP3 ADD MSTORE PUSH1 0x64 SWAP1 REVERT JUMPDEST DUP2 MLOAD PUSH3 0x461BCD PUSH1 0xE5 SHL DUP2 MSTORE DUP1 DUP11 ADD DUP7 SWAP1 MSTORE PUSH1 0xF PUSH1 0x24 DUP3 ADD MSTORE PUSH15 0x1253959053125117D49154555154D5 PUSH1 0x8A SHL PUSH1 0x44 DUP3 ADD MSTORE PUSH1 0x64 SWAP1 REVERT JUMPDEST DUP5 DUP1 REVERT JUMPDEST POP POP CALLVALUE PUSH2 0xF9 JUMPI DUP2 PUSH1 0x3 NOT CALLDATASIZE ADD SLT PUSH2 0xF9 JUMPI PUSH1 0x2 SLOAD SWAP1 MLOAD PUSH1 0x1 PUSH1 0x1 PUSH1 0xA0 SHL SUB SWAP1 SWAP2 AND DUP2 MSTORE PUSH1 0x20 SWAP1 RETURN JUMPDEST POP POP CALLVALUE PUSH2 0xF9 JUMPI DUP2 PUSH1 0x3 NOT CALLDATASIZE ADD SLT PUSH2 0xF9 JUMPI PUSH1 0x20 SWAP1 MLOAD PUSH4 0xFFFFFFFF PUSH32 0x0 AND DUP2 MSTORE RETURN JUMPDEST POP POP CALLVALUE PUSH2 0xF9 JUMPI DUP2 PUSH1 0x3 NOT CALLDATASIZE ADD SLT PUSH2 0xF9 JUMPI PUSH1 0x20 SWAP1 PUSH1 0x6 SLOAD SWAP1 MLOAD SWAP1 DUP2 MSTORE RETURN JUMPDEST POP POP CALLVALUE PUSH2 0xF9 JUMPI DUP2 PUSH1 0x3 NOT CALLDATASIZE ADD SLT PUSH2 0xF9 JUMPI SWAP1 SLOAD SWAP1 MLOAD PUSH1 0x1 PUSH1 0x1 PUSH1 0xA0 SHL SUB SWAP1 SWAP2 AND DUP2 MSTORE PUSH1 0x20 SWAP1 RETURN JUMPDEST DUP4 CALLVALUE PUSH2 0xA0B JUMPI DUP1 PUSH1 0x3 NOT CALLDATASIZE ADD SLT PUSH2 0xA0B JUMPI PUSH2 0x9CA PUSH2 0xBEE JUMP JUMPDEST DUP1 SLOAD PUSH1 0x1 PUSH1 0x1 PUSH1 0xA0 SHL SUB NOT DUP2 AND DUP3 SSTORE DUP2 SWAP1 PUSH1 0x1 PUSH1 0x1 PUSH1 0xA0 SHL SUB AND PUSH32 0x8BE0079C531659141344CD1FD0A4F28419497F9722A3DAAFE3B4186F6B6457E0 DUP3 DUP1 LOG3 DUP1 RETURN JUMPDEST DUP1 REVERT JUMPDEST DUP4 CALLVALUE PUSH2 0xA0B JUMPI PUSH1 0x20 CALLDATASIZE PUSH1 0x3 NOT ADD SLT PUSH2 0xA0B JUMPI PUSH2 0xA28 PUSH2 0xBBE JUMP JUMPDEST PUSH2 0xA30 PUSH2 0xBEE JUMP JUMPDEST PUSH1 0x1 PUSH1 0x1 PUSH1 0xA0 SHL SUB AND PUSH2 0xA44 DUP2 ISZERO ISZERO PUSH2 0x1012 JUMP JUMPDEST PUSH1 0x1 PUSH1 0x1 PUSH1 0x60 SHL SUB PUSH1 0xA0 SHL PUSH1 0x2 SLOAD AND OR PUSH1 0x2 SSTORE DUP1 RETURN JUMPDEST POP POP CALLVALUE PUSH2 0xF9 JUMPI DUP2 PUSH1 0x3 NOT CALLDATASIZE ADD SLT PUSH2 0xF9 JUMPI PUSH1 0x3 SLOAD SWAP1 MLOAD PUSH1 0x1 PUSH1 0x1 PUSH1 0xA0 SHL SUB SWAP1 SWAP2 AND DUP2 MSTORE PUSH1 0x20 SWAP1 RETURN JUMPDEST DUP4 SWAP1 CALLVALUE PUSH2 0xF9 JUMPI PUSH1 0x20 CALLDATASIZE PUSH1 0x3 NOT ADD SLT PUSH2 0xF9 JUMPI PUSH2 0xA9E PUSH2 0xBBE JUMP JUMPDEST PUSH2 0xAA6 PUSH2 0xBEE JUMP JUMPDEST PUSH1 0x1 PUSH1 0x1 PUSH1 0xA0 SHL SUB AND PUSH2 0xABA DUP2 ISZERO ISZERO PUSH2 0x1012 JUMP JUMPDEST DUP2 SLOAD PUSH1 0x1 PUSH1 0x1 PUSH1 0xA0 SHL SUB NOT AND OR SWAP1 SSTORE DUP1 RETURN JUMPDEST DUP4 CALLVALUE PUSH2 0xA0B JUMPI PUSH1 0x20 CALLDATASIZE PUSH1 0x3 NOT ADD SLT PUSH2 0xA0B JUMPI PUSH2 0xAE6 PUSH2 0xBBE JUMP JUMPDEST PUSH2 0xAEE PUSH2 0xBEE JUMP JUMPDEST PUSH1 0x1 PUSH1 0x1 PUSH1 0xA0 SHL SUB AND PUSH2 0xB02 DUP2 ISZERO ISZERO PUSH2 0x1012 JUMP JUMPDEST PUSH1 0x1 PUSH1 0x1 PUSH1 0x60 SHL SUB PUSH1 0xA0 SHL PUSH1 0x3 SLOAD AND OR PUSH1 0x3 SSTORE DUP1 RETURN JUMPDEST SWAP3 SWAP2 POP CALLVALUE PUSH2 0xB99 JUMPI PUSH1 0x20 CALLDATASIZE PUSH1 0x3 NOT ADD SLT PUSH2 0xB99 JUMPI SWAP1 DUP2 DUP2 PUSH1 0xE0 SWAP6 PUSH1 0xFF SWAP5 CALLDATALOAD DUP2 MSTORE PUSH1 0x5 PUSH1 0x20 MSTORE KECCAK256 SWAP1 PUSH1 0x1 DUP1 PUSH1 0xA0 SHL SUB DUP1 DUP4 SLOAD AND SWAP4 DUP2 PUSH1 0x1 DUP6 ADD SLOAD AND SWAP2 PUSH1 0x2 DUP6 ADD SLOAD AND SWAP2 PUSH1 0x5 PUSH1 0x3 DUP7 ADD SLOAD SWAP5 DUP7 ADD SLOAD SWAP6 ADD SLOAD SWAP6 DUP9 MSTORE PUSH1 0x20 DUP9 ADD MSTORE DUP7 ADD MSTORE PUSH1 0x60 DUP6 ADD MSTORE PUSH1 0x80 DUP5 ADD MSTORE PUSH2 0xB8C PUSH1 0xA0 DUP5 ADD DUP4 DUP4 AND PUSH2 0xB9D JUMP JUMPDEST PUSH1 0x8 SHR AND ISZERO ISZERO PUSH1 0xC0 DUP3 ADD MSTORE RETURN JUMPDEST DUP4 DUP1 REVERT JUMPDEST SWAP1 PUSH1 0x2 DUP3 LT ISZERO PUSH2 0xBAA JUMPI MSTORE JUMP JUMPDEST PUSH4 0x4E487B71 PUSH1 0xE0 SHL PUSH0 MSTORE PUSH1 0x21 PUSH1 0x4 MSTORE PUSH1 0x24 PUSH0 REVERT JUMPDEST PUSH1 0x4 CALLDATALOAD SWAP1 PUSH1 0x1 PUSH1 0x1 PUSH1 0xA0 SHL SUB DUP3 AND DUP3 SUB PUSH2 0xBD4 JUMPI JUMP JUMPDEST PUSH0 DUP1 REVERT JUMPDEST PUSH1 0x24 CALLDATALOAD SWAP1 PUSH1 0x1 PUSH1 0x1 PUSH1 0xA0 SHL SUB DUP3 AND DUP3 SUB PUSH2 0xBD4 JUMPI JUMP JUMPDEST PUSH0 SLOAD PUSH1 0x1 PUSH1 0x1 PUSH1 0xA0 SHL SUB AND CALLER SUB PUSH2 0xC01 JUMPI JUMP JUMPDEST PUSH1 0x40 MLOAD PUSH4 0x118CDAA7 PUSH1 0xE0 SHL DUP2 MSTORE CALLER PUSH1 0x4 DUP3 ADD MSTORE PUSH1 0x24 SWAP1 REVERT JUMPDEST PUSH1 0xE0 DUP2 ADD SWAP1 DUP2 LT PUSH8 0xFFFFFFFFFFFFFFFF DUP3 GT OR PUSH2 0xC35 JUMPI PUSH1 0x40 MSTORE JUMP JUMPDEST PUSH4 0x4E487B71 PUSH1 0xE0 SHL PUSH0 MSTORE PUSH1 0x41 PUSH1 0x4 MSTORE PUSH1 0x24 PUSH0 REVERT JUMPDEST PUSH1 0xA0 DUP2 ADD SWAP1 DUP2 LT PUSH8 0xFFFFFFFFFFFFFFFF DUP3 GT OR PUSH2 0xC35 JUMPI PUSH1 0x40 MSTORE JUMP JUMPDEST SWAP1 PUSH1 0x1F DUP1 NOT SWAP2 ADD AND DUP2 ADD SWAP1 DUP2 LT PUSH8 0xFFFFFFFFFFFFFFFF DUP3 GT OR PUSH2 0xC35 JUMPI PUSH1 0x40 MSTORE JUMP JUMPDEST SWAP1 PUSH1 0x2 DUP2 LT ISZERO PUSH2 0xBAA JUMPI PUSH1 0xFF DUP1 NOT DUP4 SLOAD AND SWAP2 AND OR SWAP1 SSTORE JUMP JUMPDEST SWAP1 PUSH0 PUSH1 0x20 SWAP2 DUP3 DUP2 MLOAD SWAP2 ADD DUP3 DUP6 GAS CALL ISZERO PUSH2 0xCF9 JUMPI PUSH0 MLOAD RETURNDATASIZE PUSH2 0xCF0 JUMPI POP PUSH1 0x1 PUSH1 0x1 PUSH1 0xA0 SHL SUB DUP2 AND EXTCODESIZE ISZERO JUMPDEST PUSH2 0xCCE JUMPI POP JUMP JUMPDEST PUSH1 0x40 MLOAD PUSH4 0x5274AFE7 PUSH1 0xE0 SHL DUP2 MSTORE PUSH1 0x1 PUSH1 0x1 PUSH1 0xA0 SHL SUB SWAP1 SWAP2 AND PUSH1 0x4 DUP3 ADD MSTORE PUSH1 0x24 SWAP1 REVERT JUMPDEST PUSH1 0x1 EQ ISZERO PUSH2 0xCC7 JUMP JUMPDEST PUSH1 0x40 MLOAD RETURNDATASIZE PUSH0 DUP3 RETURNDATACOPY RETURNDATASIZE SWAP1 REVERT JUMPDEST PUSH1 0x2 PUSH1 0x1 SLOAD EQ PUSH2 0xD15 JUMPI PUSH1 0x2 PUSH1 0x1 SSTORE JUMP JUMPDEST PUSH1 0x40 MLOAD PUSH4 0x3EE5AEB5 PUSH1 0xE0 SHL DUP2 MSTORE PUSH1 0x4 SWAP1 REVERT JUMPDEST ISZERO PUSH2 0xD2E JUMPI JUMP JUMPDEST PUSH1 0x40 MLOAD PUSH3 0x461BCD PUSH1 0xE5 SHL DUP2 MSTORE PUSH1 0x20 PUSH1 0x4 DUP3 ADD MSTORE PUSH1 0x11 PUSH1 0x24 DUP3 ADD MSTORE PUSH17 0x1053149150511657D0D3D3541311551151 PUSH1 0x7A SHL PUSH1 0x44 DUP3 ADD MSTORE PUSH1 0x64 SWAP1 REVERT JUMPDEST PUSH2 0x104 CALLDATALOAD DUP1 ISZERO ISZERO DUP2 SUB PUSH2 0xBD4 JUMPI SWAP1 JUMP JUMPDEST ISZERO PUSH2 0xD7E JUMPI JUMP JUMPDEST PUSH1 0x40 MLOAD PUSH3 0x461BCD PUSH1 0xE5 SHL DUP2 MSTORE PUSH1 0x20 PUSH1 0x4 DUP3 ADD MSTORE PUSH1 0x8 PUSH1 0x24 DUP3 ADD MSTORE PUSH8 0x534C495050414745 PUSH1 0xC0 SHL PUSH1 0x44 DUP3 ADD MSTORE PUSH1 0x64 SWAP1 REVERT JUMPDEST DUP1 PUSH0 MSTORE PUSH1 0x5 PUSH1 0x20 MSTORE PUSH1 0x40 SWAP1 DUP2 PUSH0 KECCAK256 SWAP2 PUSH2 0xDD1 PUSH1 0xFF PUSH1 0x5 DUP6 ADD SLOAD PUSH1 0x8 SHR AND ISZERO PUSH2 0xD27 JUMP JUMPDEST PUSH1 0x1 DUP4 ADD DUP1 SLOAD PUSH1 0x2 SLOAD PUSH1 0x3 DUP7 ADD DUP1 SLOAD DUP6 MLOAD PUSH4 0x95EA7B3 PUSH1 0xE0 SHL DUP2 MSTORE PUSH1 0x1 PUSH1 0x1 PUSH1 0xA0 SHL SUB SWAP4 DUP5 AND PUSH1 0x4 DUP3 ADD MSTORE PUSH1 0x24 DUP2 ADD SWAP2 SWAP1 SWAP2 MSTORE SWAP1 SWAP5 SWAP4 SWAP3 SWAP1 SWAP2 PUSH1 0x20 SWAP2 DUP4 SWAP2 PUSH1 0x44 SWAP2 DUP4 SWAP2 PUSH0 SWAP2 AND GAS CALL DUP1 ISZERO PUSH2 0xFC5 JUMPI PUSH2 0xF8D JUMPI JUMPDEST POP PUSH1 0x2 DUP1 SLOAD SWAP2 SLOAD SWAP1 DUP7 ADD SLOAD SWAP4 SLOAD PUSH1 0x4 DUP8 ADD DUP1 SLOAD DUP9 SLOAD DUP7 MLOAD PUSH4 0xD5BCB9B5 PUSH1 0xE0 SHL PUSH1 0x20 DUP3 ADD SWAP1 DUP2 MSTORE PUSH1 0x1 PUSH1 0x1 PUSH1 0xA0 SHL SUB SWAP7 DUP8 AND PUSH1 0x24 DUP4 ADD MSTORE SWAP9 DUP7 AND PUSH1 0x44 DUP3 ADD MSTORE PUSH1 0x64 DUP2 ADD SWAP5 SWAP1 SWAP5 MSTORE PUSH1 0x84 DUP5 ADD SWAP2 SWAP1 SWAP2 MSTORE DUP4 AND PUSH1 0xA4 DUP1 DUP5 ADD SWAP2 SWAP1 SWAP2 MSTORE DUP3 MSTORE SWAP5 PUSH0 SWAP4 DUP5 SWAP4 AND SWAP2 DUP4 SWAP1 PUSH2 0xE91 DUP2 PUSH2 0xC19 JUMP JUMPDEST MLOAD SWAP3 GAS CALL SWAP2 RETURNDATASIZE ISZERO PUSH2 0xF85 JUMPI RETURNDATASIZE SWAP3 PUSH8 0xFFFFFFFFFFFFFFFF DUP5 GT PUSH2 0xC35 JUMPI DUP3 MLOAD SWAP4 PUSH2 0xEC4 PUSH1 0x1F DUP3 ADD PUSH1 0x1F NOT AND PUSH1 0x20 ADD DUP7 PUSH2 0xC65 JUMP JUMPDEST DUP5 MSTORE RETURNDATASIZE PUSH0 PUSH1 0x20 DUP7 ADD RETURNDATACOPY JUMPDEST ISZERO PUSH2 0xF53 JUMPI PUSH1 0x20 DUP4 DUP1 MLOAD DUP2 ADD SUB SLT PUSH2 0xBD4 JUMPI PUSH0 PUSH1 0x60 SWAP3 PUSH2 0xF17 PUSH1 0x20 PUSH32 0xB2F1A9CC2835277632AE6E85C71E8B17845261648803472E98D3BE0CF9F9167C SWAP7 ADD MLOAD SWAP4 SLOAD DUP5 LT ISZERO PUSH2 0xD77 JUMP JUMPDEST PUSH2 0x100 PUSH2 0xFF00 NOT PUSH1 0x5 DUP10 ADD SLOAD AND OR PUSH1 0x5 DUP9 ADD SSTORE PUSH1 0x1 DUP1 PUSH1 0xA0 SHL SUB DUP8 SLOAD AND SWAP7 PUSH1 0x2 PUSH1 0x1 DUP1 PUSH1 0xA0 SHL SUB SWAP2 ADD SLOAD AND SWAP3 DUP2 MLOAD SWAP4 DUP5 MSTORE PUSH1 0x20 DUP5 ADD MSTORE DUP3 ADD MSTORE LOG3 JUMP JUMPDEST DUP2 MLOAD PUSH3 0x461BCD PUSH1 0xE5 SHL DUP2 MSTORE PUSH1 0x20 PUSH1 0x4 DUP3 ADD MSTORE PUSH1 0xB PUSH1 0x24 DUP3 ADD MSTORE PUSH11 0x14D5D05417D19052531151 PUSH1 0xAA SHL PUSH1 0x44 DUP3 ADD MSTORE PUSH1 0x64 SWAP1 REVERT JUMPDEST PUSH1 0x60 SWAP3 PUSH2 0xECE JUMP JUMPDEST PUSH1 0x20 DUP2 RETURNDATASIZE PUSH1 0x20 GT PUSH2 0xFBD JUMPI JUMPDEST DUP2 PUSH2 0xFA6 PUSH1 0x20 SWAP4 DUP4 PUSH2 0xC65 JUMP JUMPDEST DUP2 ADD SUB SLT PUSH2 0xBD4 JUMPI MLOAD DUP1 ISZERO ISZERO SUB PUSH2 0xBD4 JUMPI PUSH0 PUSH2 0xE24 JUMP JUMPDEST RETURNDATASIZE SWAP2 POP PUSH2 0xF99 JUMP JUMPDEST DUP4 MLOAD RETURNDATASIZE PUSH0 DUP3 RETURNDATACOPY RETURNDATASIZE SWAP1 REVERT JUMPDEST PUSH1 0x40 MLOAD PUSH4 0xA9059CBB PUSH1 0xE0 SHL PUSH1 0x20 DUP3 ADD MSTORE PUSH1 0x1 PUSH1 0x1 PUSH1 0xA0 SHL SUB SWAP3 SWAP1 SWAP3 AND PUSH1 0x24 DUP4 ADD MSTORE PUSH1 0x44 DUP1 DUP4 ADD SWAP4 SWAP1 SWAP4 MSTORE SWAP2 DUP2 MSTORE PUSH2 0x1010 SWAP2 PUSH2 0x100B PUSH1 0x64 DUP4 PUSH2 0xC65 JUMP JUMPDEST PUSH2 0xC9F JUMP JUMPDEST JUMP JUMPDEST ISZERO PUSH2 0x1019 JUMPI JUMP JUMPDEST PUSH1 0x40 MLOAD PUSH3 0x461BCD PUSH1 0xE5 SHL DUP2 MSTORE PUSH1 0x20 PUSH1 0x4 DUP3 ADD MSTORE PUSH1 0xC PUSH1 0x24 DUP3 ADD MSTORE PUSH12 0x5A45524F5F41444452455353 PUSH1 0xA0 SHL PUSH1 0x44 DUP3 ADD MSTORE PUSH1 0x64 SWAP1 REVERT INVALID LOG2 PUSH5 0x6970667358 0x22 SLT KECCAK256 DUP5 0x5E DUP13 PUSH5 0xFC6BD4DAC5 GASPRICE LOG2 CALLER 0x21 PUSH10 0x66C48AD08C139245435B 0xC8 0xAA 0xDD NOT 0xEA 0x5C ADD 0xB2 PUSH5 0x736F6C6343 STOP ADDMOD EQ STOP CALLER "},"methodIdentifiers":{"ARC_CHAIN_ID()":"fe2e29ad","arcRouter()":"50190678","chainId()":"9a8a0592","completeArcSwap(bytes32,address,uint256)":"cfa4b42d","confirmRouteAndSend(bytes32,(bytes32,address,uint32,address,address,uint256,uint256,bool))":"b288f5bd","getSwapRequest(bytes32)":"e22ae4cd","localPool()":"a18f9aec","lzEndpoint()":"b353aaa7","owner()":"8da5cb5b","pendingSwaps(bytes32)":"0f57864e","renounceOwnership()":"715018a6","requestIdCounter()":"8db5888a","setArcRouter(address)":"33788beb","setLZEndpoint(address)":"4b40f1bf","setLocalPool(address)":"65172028","swap(address,address,uint256,uint256)":"fe029156","transferOwnership(address)":"f2fde38b"}}}}}