{"project/core/ArcMetaRouter.sol":{"ArcMetaRouter":{"abi":[{"inputs":[{"internalType":"address","name":"_usdc","type":"address"},{"internalType":"address","name":"_eurc","type":"address"},{"internalType":"address","name":"_tokenMessenger","type":"address"},{"internalType":"address","name":"_gatewayWallet","type":"address"},{"internalType":"uint16","name":"_feeBps","type":"uint16"},{"internalType":"address","name":"_feeCollector","type":"address"}],"stateMutability":"nonpayable","type":"constructor"},{"anonymous":false,"inputs":[{"indexed":false,"internalType":"address","name":"ammFactory","type":"address"}],"name":"AMMFactoryUpdated","type":"event"},{"anonymous":false,"inputs":[{"indexed":true,"internalType":"address","name":"payer","type":"address"},{"indexed":true,"internalType":"address","name":"token","type":"address"},{"indexed":false,"internalType":"uint256","name":"amount","type":"uint256"},{"indexed":false,"internalType":"uint32","name":"destinationDomain","type":"uint32"},{"indexed":false,"internalType":"bytes32","name":"mintRecipient","type":"bytes32"},{"indexed":false,"internalType":"uint64","name":"nonce","type":"uint64"},{"indexed":false,"internalType":"bytes","name":"hookData","type":"bytes"}],"name":"CCTPTransferInitiated","type":"event"},{"anonymous":false,"inputs":[{"indexed":false,"internalType":"uint16","name":"feeBps","type":"uint16"},{"indexed":false,"internalType":"address","name":"feeCollector","type":"address"}],"name":"FeeUpdated","type":"event"},{"anonymous":false,"inputs":[{"indexed":true,"internalType":"address","name":"payer","type":"address"},{"indexed":true,"internalType":"address","name":"depositor","type":"address"},{"indexed":true,"internalType":"address","name":"token","type":"address"},{"indexed":false,"internalType":"uint256","name":"amount","type":"uint256"}],"name":"GatewayDeposit","type":"event"},{"anonymous":false,"inputs":[{"indexed":false,"internalType":"address","name":"gatewayWallet","type":"address"}],"name":"GatewayWalletUpdated","type":"event"},{"anonymous":false,"inputs":[{"indexed":true,"internalType":"address","name":"payer","type":"address"},{"indexed":true,"internalType":"address","name":"recipient","type":"address"},{"indexed":true,"internalType":"address","name":"token","type":"address"},{"indexed":false,"internalType":"uint256","name":"amount","type":"uint256"},{"indexed":false,"internalType":"bytes32","name":"paymentId","type":"bytes32"}],"name":"LocalPayment","type":"event"},{"anonymous":false,"inputs":[{"indexed":true,"internalType":"address","name":"sender","type":"address"},{"indexed":true,"internalType":"address","name":"tokenIn","type":"address"},{"indexed":true,"internalType":"address","name":"tokenOut","type":"address"},{"indexed":false,"internalType":"uint256","name":"amountIn","type":"uint256"},{"indexed":false,"internalType":"uint256","name":"amountOut","type":"uint256"},{"indexed":false,"internalType":"address","name":"recipient","type":"address"}],"name":"LocalSwap","type":"event"},{"anonymous":false,"inputs":[{"indexed":true,"internalType":"address","name":"previousOwner","type":"address"},{"indexed":true,"internalType":"address","name":"newOwner","type":"address"}],"name":"OwnershipTransferred","type":"event"},{"anonymous":false,"inputs":[{"indexed":false,"internalType":"address","name":"tokenMessenger","type":"address"}],"name":"TokenMessengerUpdated","type":"event"},{"inputs":[],"name":"EURC","outputs":[{"internalType":"contract IERC20","name":"","type":"address"}],"stateMutability":"view","type":"function"},{"inputs":[],"name":"USDC","outputs":[{"internalType":"contract IERC20","name":"","type":"address"}],"stateMutability":"view","type":"function"},{"inputs":[],"name":"ammFactory","outputs":[{"internalType":"contract IArcAMMFactory","name":"","type":"address"}],"stateMutability":"view","type":"function"},{"inputs":[],"name":"feeBps","outputs":[{"internalType":"uint16","name":"","type":"uint16"}],"stateMutability":"view","type":"function"},{"inputs":[],"name":"feeCollector","outputs":[{"internalType":"address","name":"","type":"address"}],"stateMutability":"view","type":"function"},{"inputs":[],"name":"gatewayWallet","outputs":[{"internalType":"contract IGatewayWallet","name":"","type":"address"}],"stateMutability":"view","type":"function"},{"inputs":[{"internalType":"address","name":"recipient","type":"address"},{"internalType":"uint256","name":"amount","type":"uint256"}],"name":"onCCTPReceived","outputs":[],"stateMutability":"nonpayable","type":"function"},{"inputs":[],"name":"owner","outputs":[{"internalType":"address","name":"","type":"address"}],"stateMutability":"view","type":"function"},{"inputs":[{"internalType":"address","name":"token","type":"address"},{"internalType":"address","name":"recipient","type":"address"},{"internalType":"uint256","name":"amount","type":"uint256"},{"internalType":"bytes32","name":"paymentId","type":"bytes32"}],"name":"payLocal","outputs":[],"stateMutability":"nonpayable","type":"function"},{"inputs":[{"internalType":"uint256","name":"amount","type":"uint256"}],"name":"previewFee","outputs":[{"internalType":"uint256","name":"","type":"uint256"}],"stateMutability":"view","type":"function"},{"inputs":[{"internalType":"uint32","name":"destinationDomain","type":"uint32"},{"internalType":"bytes32","name":"mintRecipient","type":"bytes32"},{"internalType":"uint256","name":"amount","type":"uint256"},{"internalType":"bool","name":"useHook","type":"bool"},{"internalType":"bytes32","name":"destinationCaller","type":"bytes32"},{"internalType":"uint256","name":"maxFee","type":"uint256"},{"internalType":"uint32","name":"minFinality","type":"uint32"},{"internalType":"bytes","name":"hookData","type":"bytes"}],"name":"routeCCTP","outputs":[{"internalType":"uint64","name":"nonce","type":"uint64"}],"stateMutability":"nonpayable","type":"function"},{"inputs":[{"internalType":"address","name":"token","type":"address"},{"internalType":"uint256","name":"amount","type":"uint256"},{"internalType":"address","name":"depositor","type":"address"},{"internalType":"bool","name":"useDepositFor","type":"bool"}],"name":"routeGatewayDeposit","outputs":[],"stateMutability":"nonpayable","type":"function"},{"inputs":[{"internalType":"address","name":"_ammFactory","type":"address"}],"name":"setAMMFactory","outputs":[],"stateMutability":"nonpayable","type":"function"},{"inputs":[{"internalType":"uint16","name":"_feeBps","type":"uint16"},{"internalType":"address","name":"_feeCollector","type":"address"}],"name":"setFeeConfig","outputs":[],"stateMutability":"nonpayable","type":"function"},{"inputs":[{"internalType":"address","name":"_gatewayWallet","type":"address"}],"name":"setGatewayWallet","outputs":[],"stateMutability":"nonpayable","type":"function"},{"inputs":[{"internalType":"address","name":"_tokenMessenger","type":"address"}],"name":"setTokenMessenger","outputs":[],"stateMutability":"nonpayable","type":"function"},{"inputs":[{"internalType":"address","name":"_vaultFactory","type":"address"}],"name":"setVaultFactory","outputs":[],"stateMutability":"nonpayable","type":"function"},{"inputs":[{"internalType":"address","name":"tokenIn","type":"address"},{"internalType":"address","name":"tokenOut","type":"address"},{"internalType":"uint256","name":"amountIn","type":"uint256"},{"internalType":"uint256","name":"minAmountOut","type":"uint256"},{"internalType":"address","name":"recipient","type":"address"},{"internalType":"uint256","name":"deadline","type":"uint256"}],"name":"swapLocal","outputs":[{"internalType":"uint256","name":"amountOut","type":"uint256"}],"stateMutability":"nonpayable","type":"function"},{"inputs":[],"name":"tokenMessenger","outputs":[{"internalType":"contract ITokenMessenger","name":"","type":"address"}],"stateMutability":"view","type":"function"},{"inputs":[{"internalType":"address","name":"newOwner","type":"address"}],"name":"transferOwnership","outputs":[],"stateMutability":"nonpayable","type":"function"},{"inputs":[],"name":"vaultFactory","outputs":[{"internalType":"contract IVaultFactory","name":"","type":"address"}],"stateMutability":"view","type":"function"}],"evm":{"bytecode":{"linkReferences":{},"object":"60c034620002f157601f62001ed038819003918201601f191683019291906001600160401b03841183851017620002f5578160c09284926040968752833981010312620002f157620000518162000309565b6020916200006183820162000309565b906200006f85820162000309565b916200007e6060830162000309565b9260808301519461ffff861693848703620002f15760a0620000a1910162000309565b5f8054336001600160a01b0319918216811783558b5196919593927f8be0079c531659141344cd1fd0a4f28419497f9722a3daafe3b4186f6b6457e08180a36001600160a01b03938416958615620002c357508316908115620002935783169485156200025a5794808a999895857f9e2f5c2330afb3c7cfcf473e62546420851afccbeaf15b45b799f048243170aa968e967fcdbce6c1426410c65374033254076f25f4fe27a9814df095590238327c6262ab9b967f7a3bb33d45e644591a57750d06ab2a57b66d5881c20c7447d4a32ac601657a119f9b60805260a05216978883600154161760015516998a8260025416176002556004549061ffff60a01b9060a01b169061ffff60a01b1916176004556005541617600555825191825285820152a18651908152a18351908152a151611bb190816200031f8239608051818181610297015281816102fc0152818161036a015281816103e501528181610494015281816105770152818161064b015281816106e7015281816109b6015281816112560152611a43015260a051818181610ff20152818161101e0152818161109c015281816110d00152818161116c0152611ab20152f35b8a5162461bcd60e51b8152600481018b905260126024820152714645455f434f4c4c4543544f525f5a45524f60701b6044820152606490fd5b8a5162461bcd60e51b8152600481018b90526009602482015268455552435f5a45524f60b81b6044820152606490fd5b62461bcd60e51b8152600481018b90526009602482015268555344435f5a45524f60b81b6044820152606490fd5b5f80fd5b634e487b7160e01b5f52604160045260245ffd5b51906001600160a01b0382168203620002f15756fe6080806040526004361015610012575f80fd5b5f90813560e01c908163131b4c0e1461171e575080631c2236f1146116a057806324a9d8531461167b57806335e856f2146116545780633ea7fbdb146115fa57806346117830146115d157806362ce977b146115115780636b39cf771461128557806389a30271146112405780638da5cb5b14611219578063a92bb10f1461119b578063aabfa37d14611156578063b78f6c2f14610946578063c415b95c1461091d578063cd1b7d6c146107ef578063d8a06f73146107c6578063dacda92f1461079d578063e0248ac1146106b8578063edc421fd146101fa578063f2fde38b146101855763f586384f14610105575f80fd5b34610182576020366003190112610182577fcdbce6c1426410c65374033254076f25f4fe27a9814df095590238327c6262ab6020610141611743565b83546001600160a01b03919061015a908316331461177e565b166101668115156117b6565b600180546001600160a01b03191682179055604051908152a180f35b80fd5b50346101825760203660031901126101825761019f611743565b81546001600160a01b03808216926101b833851461177e565b1680926101c68215156117b6565b7f8be0079c531659141344cd1fd0a4f28419497f9722a3daafe3b4186f6b6457e08580a36001600160a01b03191617815580f35b5034610182576101003660031901126101825763ffffffff60043581811681036106b4576044359161022a61176f565b60c4359382851685036106b45767ffffffffffffffff60e435116106b05736602360e4350112156106b05767ffffffffffffffff60e43560040135116106b05736602460e4356004013560e4350101116106b05761028981151561182b565b60243515610675576102bb907f0000000000000000000000000000000000000000000000000000000000000000611969565b80959195610638575b5060015460405163095ea7b360e01b81526001600160a01b039182166004820152602481018890529290602090849060449082908b907f0000000000000000000000000000000000000000000000000000000000000000165af192831561060e5761036593610619575b5060015460405163095ea7b360e01b81526001600160a01b0390911660048201526024810187905292602090849081906044820190565b03818a7f00000000000000000000000000000000000000000000000000000000000000006001600160a01b03165af192831561060e5784936105df575b50156105355760209060018060a01b036001541660405193849263779b432d60e01b84528860048501528188166024850152602435604485015260018060a01b037f0000000000000000000000000000000000000000000000000000000000000000166064850152608435608485015260a43560a48501521660c483015261010060e4830152818881610445610104820160e43560040135602460e43501611906565b03925af190811561052a579067ffffffffffffffff939291602096916104fd575b50915b60405194855216848401526024356040840152169081606082015260a0608082015260018060a01b037f000000000000000000000000000000000000000000000000000000000000000016907f773e4baf733f3d3a4e9745cd20ff83b01f933c4eae9bbf01bde61275a11bc37e3391806104f260a0820160e43560040135602460e43501611906565b0390a3604051908152f35b61051d9150863d8811610523575b610515818361188d565b8101906118e6565b5f610466565b503d61050b565b6040513d87823e3d90fd5b505083602060018060a01b03600154166084604051809481936337e9a82760e11b83528960048401528789166024840152602435604484015260018060a01b037f00000000000000000000000000000000000000000000000000000000000000001660648401525af190811561052a579067ffffffffffffffff939291602096916105c2575b5091610469565b6105d99150863d881161052357610515818361188d565b5f6105bb565b6106009060203d602011610607575b6105f8818361188d565b8101906118ce565b505f6103a2565b503d6105ee565b6040513d89823e3d90fd5b6106319060203d602011610607576105f8818361188d565b505f61032e565b60055461066f91906001600160a01b03167f0000000000000000000000000000000000000000000000000000000000000000611adc565b5f6102c4565b60405162461bcd60e51b81526020600482015260136024820152724d494e545f524543495049454e545f5a45524f60681b6044820152606490fd5b8580fd5b5f80fd5b5034610182576040366003190112610182576106d2611743565b6040516370a0823160e01b81523060048201527f00000000000000000000000000000000000000000000000000000000000000009160248035926001600160a01b03916020908290818589165afa8015610792578491879161075e575b5010159081610752575b50610742578380f35b61074b92611adc565b5f80808380f35b9050811615155f610739565b9150506020813d821161078a575b816107796020938361188d565b810103126106b4578390515f61072f565b3d915061076c565b6040513d88823e3d90fd5b50346101825780600319360112610182576003546040516001600160a01b039091168152602090f35b50346101825780600319360112610182576004546040516001600160a01b039091168152602090f35b50346101825760403660031901126101825760043561ffff81169081810361091957610819611759565b83546001600160a01b039190610832908316331461177e565b169182156108df576103e881116108ab577f9e2f5c2330afb3c7cfcf473e62546420851afccbeaf15b45b799f048243170aa926040926004549061ffff60a01b9060a01b169061ffff60a01b191617600455806bffffffffffffffffffffffff60a01b600554161760055582519182526020820152a180f35b60405162461bcd60e51b815260206004820152600c60248201526b08c8a8abea89e9ebe90928e960a31b6044820152606490fd5b60405162461bcd60e51b81526020600482015260126024820152714645455f434f4c4c4543544f525f5a45524f60701b6044820152606490fd5b8280fd5b50346101825780600319360112610182576005546040516001600160a01b039091168152602090f35b50346101825760c036600319011261018257610960611743565b90610969611759565b6001600160a01b036084358181169492908590036106b45761098c8515156117ee565b60449485359161099d83151561182b565b60a4354211611128578316938316928385146110f757807f00000000000000000000000000000000000000000000000000000000000000001680851496871597886110cc575b80156110c3575b8015611098575b1561105b57610a008587611969565b80999199611046575b50819284600454169182610f21575b505050818316978815610dd257604051634b60ce7760e01b8082526020959186816004818f5afa90811561052a579083918691610db5575b501689149182610d65575b8215610cac575b505015610c71576040519263095ea7b360e01b938481528a600482015283602482015285818d81878d5af18015610c6657610acb9287928592610c49575b506040518781526001600160a01b039091166004820152602481019190915291829081906044820190565b0381868c5af18015610c3e57610c21575b50604051906379f3754560e11b825287600483015260248201526064358a8201528460648201528381608481858d5af1908115610c16578291610be9575b5097604051928352600483015280602483015282828a81848a5af1908115610bdd5750610bbf575b50505b6064358510610b905760209550604051918252848683015260408201527f1898a1026b4cd267e5feda53dee6ee128febabf37bbeb28fe3c47eeea83c32c460603392a4604051908152f35b60405162461bcd60e51b8152602060048201526008602482015267534c49505041474560c01b81880152606490fd5b81610bd592903d10610607576105f8818361188d565b505f80610b42565b604051903d90823e3d90fd5b90508381813d8311610c0f575b610c00818361188d565b810103126106b457515f610b1a565b503d610bf6565b6040513d84823e3d90fd5b610c3790853d8711610607576105f8818361188d565b505f610adc565b6040513d85823e3d90fd5b610c5f90843d8611610607576105f8818361188d565b505f610aa0565b6040513d86823e3d90fd5b60405162461bcd60e51b81526004810185905260146024820152730ac82aa98a8bea89e968a9cbe9a92a69a82a886960631b818c0152606490fd5b604051631f209df760e11b81529192509086816004818f5afa90811561052a57828d9289928891610d48575b50168b149384610cee575b505050505f80610a62565b909192935060046040518094819382525afa908115610c66578491610d1b575b501688145f8a8682610ce3565b610d3b9150863d8811610d41575b610d33818361188d565b8101906118af565b5f610d0e565b503d610d29565b610d5f9150833d8511610d4157610d33818361188d565b5f610cd8565b604051631f209df760e11b815290925086816004818f5afa90811561052a579083918691610d98575b50168a1491610a5b565b610daf9150883d8a11610d4157610d33818361188d565b5f610d8e565b610dcc9150883d8a11610d4157610d33818361188d565b5f610a50565b91509296508160035416908115610eea5760405192839263298d501f60e11b8452876004850152886024850152838b60209586935afa93841561052a578594610ecb575b508316928315610e9d5790610e2d81849389611adc565b60848a866040519687948593631ba0488760e21b85528c60048601528d60248601528401528c60648401525af1928315610bdd5792610e6f575b505093610b45565b90809250813d8311610e96575b610e86818361188d565b810103126106b457515f80610e67565b503d610e7c565b60405162461bcd60e51b81526004810184905260076024820152661393d7d413d3d360ca1b818c0152606490fd5b610ee3919450833d8511610d4157610d33818361188d565b925f610e16565b60405162461bcd60e51b815260206004820152601060248201526f1393d7d59055531517d3d497d413d3d360821b818b0152606490fd5b8061101a575b15610f8557506024919250602090604051928380926301d735e760e31b82528a60048301525afa908115610c16578291610f67575b50905b5f8080610a18565b610f7f915060203d8111610d4157610d33818361188d565b5f610f5c565b88141580610fee575b610f99575b50610f5f565b6024919250602090604051928380926301d735e760e31b82528b60048301525afa908115610c16578291610fd0575b50905f610f93565b610fe8915060203d8111610d4157610d33818361188d565b5f610fc8565b50837f000000000000000000000000000000000000000000000000000000000000000016881415610f8e565b50847f000000000000000000000000000000000000000000000000000000000000000016881415610f27565b61105590856005541689611adc565b5f610a09565b60405162461bcd60e51b81526020600482015260166024820152754f4e455f4c45475f4d5553545f42455f535441424c4560501b818b0152606490fd5b50827f00000000000000000000000000000000000000000000000000000000000000001687146109f1565b508187146109ea565b50827f00000000000000000000000000000000000000000000000000000000000000001686146109e3565b60405162461bcd60e51b815260206004820152600a60248201526929a0a6a2afaa27a5a2a760b11b81890152606490fd5b60405162461bcd60e51b81526020600482015260076024820152661156141254915160ca1b81890152606490fd5b50346101825780600319360112610182576040517f00000000000000000000000000000000000000000000000000000000000000006001600160a01b03168152602090f35b5034610182576020366003190112610182577f7a3bb33d45e644591a57750d06ab2a57b66d5881c20c7447d4a32ac601657a1160206111d8611743565b83546001600160a01b0391906111f1908316331461177e565b166111fd8115156117b6565b600280546001600160a01b03191682179055604051908152a180f35b5034610182578060031936011261018257546040516001600160a01b039091168152602090f35b50346101825780600319360112610182576040517f00000000000000000000000000000000000000000000000000000000000000006001600160a01b03168152602090f35b50346101825760803660031901126101825761129f611743565b602435908290604435906001600160a01b038083169182840361150d5784906112c661176f565b94936112d388151561182b565b6112dc82611a36565b15611505575b6112ef8382169788611969565b809691966114f0575b5083600254166040519063095ea7b360e01b908183526004830152846024830152898260448160209c8d945af190811561052a5788928a926114d3575b5060025460405191825287166001600160a01b03166004820152602481019290925281604481878d5af18015610c66576114b6575b5015611407578260025416803b156109195760405163b3db428b60e01b81526001600160a01b03928316600482015291851660248301526044820186905282908290606490829084905af18015610c16576113f3575b50507f921654b8c2158ebc05629d4c303a63347a5dd7e3bc284889db0cfe5fd962ba6a915b60405193845216923392a480f35b6113fc90611865565b6106b057855f6113c0565b90826002949394541691823b156114b2576040516311f9fbc960e21b81526001600160a01b0391909116600482015260248101869052918290604490829084905af1801561060e5761147d575b50907f921654b8c2158ebc05629d4c303a63347a5dd7e3bc284889db0cfe5fd962ba6a916113e5565b956114aa7f921654b8c2158ebc05629d4c303a63347a5dd7e3bc284889db0cfe5fd962ba6a939297611865565b959091611454565b5080fd5b6114cc90883d8a11610607576105f8818361188d565b505f61136a565b6114e990833d8511610607576105f8818361188d565b505f611335565b6114ff9085600554168a611adc565b5f6112f8565b3393506112e2565b8480fd5b50346101825760803660031901126101825761152b611743565b611533611759565b906044359161158560018060a01b039161157283808316956115568715156117ee565b61156188151561182b565b61156a81611a36565b169586611969565b9093849291806115bc575b505085611adc565b60405190815260643560208201527fb9fcc4404867bc932fd7611431a17aaa3f95766eb5bd01d46c296ad8ce46840260403392a480f35b6115ca916005541688611adc565b5f8061157d565b50346101825780600319360112610182576001546040516001600160a01b039091168152602090f35b503461018257602036600319011261018257611614611743565b81546001600160a01b03919061162d908316331461177e565b166116398115156117b6565b6bffffffffffffffffffffffff60a01b600454161760045580f35b5034610182576020366003190112610182576020611673600435611926565b604051908152f35b5034610182578060031936011261018257602061ffff60045460a01c16604051908152f35b5034610182576020366003190112610182577fee6e8af5ea26ad906c28e6e8c421c990111039169988f75cab1fc2983f0ffda360206116dd611743565b83546001600160a01b0391906116f6908316331461177e565b166117028115156117b6565b600380546001600160a01b03191682179055604051908152a180f35b9050346114b257816003193601126114b2576002546001600160a01b03168152602090f35b600435906001600160a01b03821682036106b457565b602435906001600160a01b03821682036106b457565b6064359081151582036106b457565b1561178557565b60405162461bcd60e51b81526020600482015260096024820152682727aa2fa7aba722a960b91b6044820152606490fd5b156117bd57565b60405162461bcd60e51b81526020600482015260096024820152682d22a927afa0a2222960b91b6044820152606490fd5b156117f557565b60405162461bcd60e51b815260206004820152600e60248201526d524543495049454e545f5a45524f60901b6044820152606490fd5b1561183257565b60405162461bcd60e51b815260206004820152600b60248201526a414d4f554e545f5a45524f60a81b6044820152606490fd5b67ffffffffffffffff811161187957604052565b634e487b7160e01b5f52604160045260245ffd5b90601f8019910116810190811067ffffffffffffffff82111761187957604052565b908160209103126106b457516001600160a01b03811681036106b45790565b908160209103126106b4575180151581036106b45790565b908160209103126106b4575167ffffffffffffffff811681036106b45790565b908060209392818452848401375f828201840152601f01601f1916010190565b61ffff60045460a01c169081156119635781810291818304149015171561194f57612710900490565b634e487b7160e01b5f52601160045260245ffd5b50505f90565b909161197483611926565b918284039084821161194f576040516323b872dd60e01b81523360048201523060248201526044810195909552909390602090829060649082905f906001600160a01b03165af1908115611a2b575f91611a0d575b50156119d157565b60405162461bcd60e51b81526020600482015260146024820152731514905394d1915497d19493d357d1905253115160621b6044820152606490fd5b611a25915060203d8111610607576105f8818361188d565b5f6119c9565b6040513d5f823e3d90fd5b6001600160a01b039081167f000000000000000000000000000000000000000000000000000000000000000082168114918215611ab0575b505015611a7757565b60405162461bcd60e51b81526020600482015260116024820152702aa729aaa82827a92a22a22faa27a5a2a760791b6044820152606490fd5b7f0000000000000000000000000000000000000000000000000000000000000000161490505f80611a6e565b60405163a9059cbb60e01b81526001600160a01b0392831660048201526024810193909352602091839160449183915f91165af1908115611a2b575f91611b5d575b5015611b2657565b60405162461bcd60e51b815260206004820152600f60248201526e1514905394d1915497d19052531151608a1b6044820152606490fd5b611b75915060203d8111610607576105f8818361188d565b5f611b1e56fea2646970667358221220e8c9eacff51be6df434a684573d0047fd20272b947e38ceeb1272f9df9f4c6a564736f6c63430008140033","opcodes":"PUSH1 0xC0 CALLVALUE PUSH3 0x2F1 JUMPI PUSH1 0x1F PUSH3 0x1ED0 CODESIZE DUP2 SWAP1 SUB SWAP2 DUP3 ADD PUSH1 0x1F NOT AND DUP4 ADD SWAP3 SWAP2 SWAP1 PUSH1 0x1 PUSH1 0x1 PUSH1 0x40 SHL SUB DUP5 GT DUP4 DUP6 LT OR PUSH3 0x2F5 JUMPI DUP2 PUSH1 0xC0 SWAP3 DUP5 SWAP3 PUSH1 0x40 SWAP7 DUP8 MSTORE DUP4 CODECOPY DUP2 ADD SUB SLT PUSH3 0x2F1 JUMPI PUSH3 0x51 DUP2 PUSH3 0x309 JUMP JUMPDEST PUSH1 0x20 SWAP2 PUSH3 0x61 DUP4 DUP3 ADD PUSH3 0x309 JUMP JUMPDEST SWAP1 PUSH3 0x6F DUP6 DUP3 ADD PUSH3 0x309 JUMP JUMPDEST SWAP2 PUSH3 0x7E PUSH1 0x60 DUP4 ADD PUSH3 0x309 JUMP JUMPDEST SWAP3 PUSH1 0x80 DUP4 ADD MLOAD SWAP5 PUSH2 0xFFFF DUP7 AND SWAP4 DUP5 DUP8 SUB PUSH3 0x2F1 JUMPI PUSH1 0xA0 PUSH3 0xA1 SWAP2 ADD PUSH3 0x309 JUMP JUMPDEST PUSH0 DUP1 SLOAD CALLER PUSH1 0x1 PUSH1 0x1 PUSH1 0xA0 SHL SUB NOT SWAP2 DUP3 AND DUP2 OR DUP4 SSTORE DUP12 MLOAD SWAP7 SWAP2 SWAP6 SWAP4 SWAP3 PUSH32 0x8BE0079C531659141344CD1FD0A4F28419497F9722A3DAAFE3B4186F6B6457E0 DUP2 DUP1 LOG3 PUSH1 0x1 PUSH1 0x1 PUSH1 0xA0 SHL SUB SWAP4 DUP5 AND SWAP6 DUP7 ISZERO PUSH3 0x2C3 JUMPI POP DUP4 AND SWAP1 DUP2 ISZERO PUSH3 0x293 JUMPI DUP4 AND SWAP5 DUP6 ISZERO PUSH3 0x25A JUMPI SWAP5 DUP1 DUP11 SWAP10 SWAP9 SWAP6 DUP6 PUSH32 0x9E2F5C2330AFB3C7CFCF473E62546420851AFCCBEAF15B45B799F048243170AA SWAP7 DUP15 SWAP7 PUSH32 0xCDBCE6C1426410C65374033254076F25F4FE27A9814DF095590238327C6262AB SWAP12 SWAP7 PUSH32 0x7A3BB33D45E644591A57750D06AB2A57B66D5881C20C7447D4A32AC601657A11 SWAP16 SWAP12 PUSH1 0x80 MSTORE PUSH1 0xA0 MSTORE AND SWAP8 DUP9 DUP4 PUSH1 0x1 SLOAD AND OR PUSH1 0x1 SSTORE AND SWAP10 DUP11 DUP3 PUSH1 0x2 SLOAD AND OR PUSH1 0x2 SSTORE PUSH1 0x4 SLOAD SWAP1 PUSH2 0xFFFF PUSH1 0xA0 SHL SWAP1 PUSH1 0xA0 SHL AND SWAP1 PUSH2 0xFFFF PUSH1 0xA0 SHL NOT AND OR PUSH1 0x4 SSTORE PUSH1 0x5 SLOAD AND OR PUSH1 0x5 SSTORE DUP3 MLOAD SWAP2 DUP3 MSTORE DUP6 DUP3 ADD MSTORE LOG1 DUP7 MLOAD SWAP1 DUP2 MSTORE LOG1 DUP4 MLOAD SWAP1 DUP2 MSTORE LOG1 MLOAD PUSH2 0x1BB1 SWAP1 DUP2 PUSH3 0x31F DUP3 CODECOPY PUSH1 0x80 MLOAD DUP2 DUP2 DUP2 PUSH2 0x297 ADD MSTORE DUP2 DUP2 PUSH2 0x2FC ADD MSTORE DUP2 DUP2 PUSH2 0x36A ADD MSTORE DUP2 DUP2 PUSH2 0x3E5 ADD MSTORE DUP2 DUP2 PUSH2 0x494 ADD MSTORE DUP2 DUP2 PUSH2 0x577 ADD MSTORE DUP2 DUP2 PUSH2 0x64B ADD MSTORE DUP2 DUP2 PUSH2 0x6E7 ADD MSTORE DUP2 DUP2 PUSH2 0x9B6 ADD MSTORE DUP2 DUP2 PUSH2 0x1256 ADD MSTORE PUSH2 0x1A43 ADD MSTORE PUSH1 0xA0 MLOAD DUP2 DUP2 DUP2 PUSH2 0xFF2 ADD MSTORE DUP2 DUP2 PUSH2 0x101E ADD MSTORE DUP2 DUP2 PUSH2 0x109C ADD MSTORE DUP2 DUP2 PUSH2 0x10D0 ADD MSTORE DUP2 DUP2 PUSH2 0x116C ADD MSTORE PUSH2 0x1AB2 ADD MSTORE RETURN JUMPDEST DUP11 MLOAD PUSH3 0x461BCD PUSH1 0xE5 SHL DUP2 MSTORE PUSH1 0x4 DUP2 ADD DUP12 SWAP1 MSTORE PUSH1 0x12 PUSH1 0x24 DUP3 ADD MSTORE PUSH18 0x4645455F434F4C4C4543544F525F5A45524F PUSH1 0x70 SHL PUSH1 0x44 DUP3 ADD MSTORE PUSH1 0x64 SWAP1 REVERT JUMPDEST DUP11 MLOAD PUSH3 0x461BCD PUSH1 0xE5 SHL DUP2 MSTORE PUSH1 0x4 DUP2 ADD DUP12 SWAP1 MSTORE PUSH1 0x9 PUSH1 0x24 DUP3 ADD MSTORE PUSH9 0x455552435F5A45524F PUSH1 0xB8 SHL PUSH1 0x44 DUP3 ADD MSTORE PUSH1 0x64 SWAP1 REVERT JUMPDEST PUSH3 0x461BCD PUSH1 0xE5 SHL DUP2 MSTORE PUSH1 0x4 DUP2 ADD DUP12 SWAP1 MSTORE PUSH1 0x9 PUSH1 0x24 DUP3 ADD MSTORE PUSH9 0x555344435F5A45524F PUSH1 0xB8 SHL PUSH1 0x44 DUP3 ADD MSTORE PUSH1 0x64 SWAP1 REVERT JUMPDEST PUSH0 DUP1 REVERT JUMPDEST PUSH4 0x4E487B71 PUSH1 0xE0 SHL PUSH0 MSTORE PUSH1 0x41 PUSH1 0x4 MSTORE PUSH1 0x24 PUSH0 REVERT JUMPDEST MLOAD SWAP1 PUSH1 0x1 PUSH1 0x1 PUSH1 0xA0 SHL SUB DUP3 AND DUP3 SUB PUSH3 0x2F1 JUMPI JUMP INVALID PUSH1 0x80 DUP1 PUSH1 0x40 MSTORE PUSH1 0x4 CALLDATASIZE LT ISZERO PUSH2 0x12 JUMPI PUSH0 DUP1 REVERT JUMPDEST PUSH0 SWAP1 DUP2 CALLDATALOAD PUSH1 0xE0 SHR SWAP1 DUP2 PUSH4 0x131B4C0E EQ PUSH2 0x171E JUMPI POP DUP1 PUSH4 0x1C2236F1 EQ PUSH2 0x16A0 JUMPI DUP1 PUSH4 0x24A9D853 EQ PUSH2 0x167B JUMPI DUP1 PUSH4 0x35E856F2 EQ PUSH2 0x1654 JUMPI DUP1 PUSH4 0x3EA7FBDB EQ PUSH2 0x15FA JUMPI DUP1 PUSH4 0x46117830 EQ PUSH2 0x15D1 JUMPI DUP1 PUSH4 0x62CE977B EQ PUSH2 0x1511 JUMPI DUP1 PUSH4 0x6B39CF77 EQ PUSH2 0x1285 JUMPI DUP1 PUSH4 0x89A30271 EQ PUSH2 0x1240 JUMPI DUP1 PUSH4 0x8DA5CB5B EQ PUSH2 0x1219 JUMPI DUP1 PUSH4 0xA92BB10F EQ PUSH2 0x119B JUMPI DUP1 PUSH4 0xAABFA37D EQ PUSH2 0x1156 JUMPI DUP1 PUSH4 0xB78F6C2F EQ PUSH2 0x946 JUMPI DUP1 PUSH4 0xC415B95C EQ PUSH2 0x91D JUMPI DUP1 PUSH4 0xCD1B7D6C EQ PUSH2 0x7EF JUMPI DUP1 PUSH4 0xD8A06F73 EQ PUSH2 0x7C6 JUMPI DUP1 PUSH4 0xDACDA92F EQ PUSH2 0x79D JUMPI DUP1 PUSH4 0xE0248AC1 EQ PUSH2 0x6B8 JUMPI DUP1 PUSH4 0xEDC421FD EQ PUSH2 0x1FA JUMPI DUP1 PUSH4 0xF2FDE38B EQ PUSH2 0x185 JUMPI PUSH4 0xF586384F EQ PUSH2 0x105 JUMPI PUSH0 DUP1 REVERT JUMPDEST CALLVALUE PUSH2 0x182 JUMPI PUSH1 0x20 CALLDATASIZE PUSH1 0x3 NOT ADD SLT PUSH2 0x182 JUMPI PUSH32 0xCDBCE6C1426410C65374033254076F25F4FE27A9814DF095590238327C6262AB PUSH1 0x20 PUSH2 0x141 PUSH2 0x1743 JUMP JUMPDEST DUP4 SLOAD PUSH1 0x1 PUSH1 0x1 PUSH1 0xA0 SHL SUB SWAP2 SWAP1 PUSH2 0x15A SWAP1 DUP4 AND CALLER EQ PUSH2 0x177E JUMP JUMPDEST AND PUSH2 0x166 DUP2 ISZERO ISZERO PUSH2 0x17B6 JUMP JUMPDEST PUSH1 0x1 DUP1 SLOAD PUSH1 0x1 PUSH1 0x1 PUSH1 0xA0 SHL SUB NOT AND DUP3 OR SWAP1 SSTORE PUSH1 0x40 MLOAD SWAP1 DUP2 MSTORE LOG1 DUP1 RETURN JUMPDEST DUP1 REVERT JUMPDEST POP CALLVALUE PUSH2 0x182 JUMPI PUSH1 0x20 CALLDATASIZE PUSH1 0x3 NOT ADD SLT PUSH2 0x182 JUMPI PUSH2 0x19F PUSH2 0x1743 JUMP JUMPDEST DUP2 SLOAD PUSH1 0x1 PUSH1 0x1 PUSH1 0xA0 SHL SUB DUP1 DUP3 AND SWAP3 PUSH2 0x1B8 CALLER DUP6 EQ PUSH2 0x177E JUMP JUMPDEST AND DUP1 SWAP3 PUSH2 0x1C6 DUP3 ISZERO ISZERO PUSH2 0x17B6 JUMP JUMPDEST PUSH32 0x8BE0079C531659141344CD1FD0A4F28419497F9722A3DAAFE3B4186F6B6457E0 DUP6 DUP1 LOG3 PUSH1 0x1 PUSH1 0x1 PUSH1 0xA0 SHL SUB NOT AND OR DUP2 SSTORE DUP1 RETURN JUMPDEST POP CALLVALUE PUSH2 0x182 JUMPI PUSH2 0x100 CALLDATASIZE PUSH1 0x3 NOT ADD SLT PUSH2 0x182 JUMPI PUSH4 0xFFFFFFFF PUSH1 0x4 CALLDATALOAD DUP2 DUP2 AND DUP2 SUB PUSH2 0x6B4 JUMPI PUSH1 0x44 CALLDATALOAD SWAP2 PUSH2 0x22A PUSH2 0x176F JUMP JUMPDEST PUSH1 0xC4 CALLDATALOAD SWAP4 DUP3 DUP6 AND DUP6 SUB PUSH2 0x6B4 JUMPI PUSH8 0xFFFFFFFFFFFFFFFF PUSH1 0xE4 CALLDATALOAD GT PUSH2 0x6B0 JUMPI CALLDATASIZE PUSH1 0x23 PUSH1 0xE4 CALLDATALOAD ADD SLT ISZERO PUSH2 0x6B0 JUMPI PUSH8 0xFFFFFFFFFFFFFFFF PUSH1 0xE4 CALLDATALOAD PUSH1 0x4 ADD CALLDATALOAD GT PUSH2 0x6B0 JUMPI CALLDATASIZE PUSH1 0x24 PUSH1 0xE4 CALLDATALOAD PUSH1 0x4 ADD CALLDATALOAD PUSH1 0xE4 CALLDATALOAD ADD ADD GT PUSH2 0x6B0 JUMPI PUSH2 0x289 DUP2 ISZERO ISZERO PUSH2 0x182B JUMP JUMPDEST PUSH1 0x24 CALLDATALOAD ISZERO PUSH2 0x675 JUMPI PUSH2 0x2BB SWAP1 PUSH32 0x0 PUSH2 0x1969 JUMP JUMPDEST DUP1 SWAP6 SWAP2 SWAP6 PUSH2 0x638 JUMPI JUMPDEST POP PUSH1 0x1 SLOAD PUSH1 0x40 MLOAD PUSH4 0x95EA7B3 PUSH1 0xE0 SHL DUP2 MSTORE PUSH1 0x1 PUSH1 0x1 PUSH1 0xA0 SHL SUB SWAP2 DUP3 AND PUSH1 0x4 DUP3 ADD MSTORE PUSH1 0x24 DUP2 ADD DUP9 SWAP1 MSTORE SWAP3 SWAP1 PUSH1 0x20 SWAP1 DUP5 SWAP1 PUSH1 0x44 SWAP1 DUP3 SWAP1 DUP12 SWAP1 PUSH32 0x0 AND GAS CALL SWAP3 DUP4 ISZERO PUSH2 0x60E JUMPI PUSH2 0x365 SWAP4 PUSH2 0x619 JUMPI JUMPDEST POP PUSH1 0x1 SLOAD PUSH1 0x40 MLOAD PUSH4 0x95EA7B3 PUSH1 0xE0 SHL DUP2 MSTORE PUSH1 0x1 PUSH1 0x1 PUSH1 0xA0 SHL SUB SWAP1 SWAP2 AND PUSH1 0x4 DUP3 ADD MSTORE PUSH1 0x24 DUP2 ADD DUP8 SWAP1 MSTORE SWAP3 PUSH1 0x20 SWAP1 DUP5 SWAP1 DUP2 SWAP1 PUSH1 0x44 DUP3 ADD SWAP1 JUMP JUMPDEST SUB DUP2 DUP11 PUSH32 0x0 PUSH1 0x1 PUSH1 0x1 PUSH1 0xA0 SHL SUB AND GAS CALL SWAP3 DUP4 ISZERO PUSH2 0x60E JUMPI DUP5 SWAP4 PUSH2 0x5DF JUMPI JUMPDEST POP ISZERO PUSH2 0x535 JUMPI PUSH1 0x20 SWAP1 PUSH1 0x1 DUP1 PUSH1 0xA0 SHL SUB PUSH1 0x1 SLOAD AND PUSH1 0x40 MLOAD SWAP4 DUP5 SWAP3 PUSH4 0x779B432D PUSH1 0xE0 SHL DUP5 MSTORE DUP9 PUSH1 0x4 DUP6 ADD MSTORE DUP2 DUP9 AND PUSH1 0x24 DUP6 ADD MSTORE PUSH1 0x24 CALLDATALOAD PUSH1 0x44 DUP6 ADD MSTORE PUSH1 0x1 DUP1 PUSH1 0xA0 SHL SUB PUSH32 0x0 AND PUSH1 0x64 DUP6 ADD MSTORE PUSH1 0x84 CALLDATALOAD PUSH1 0x84 DUP6 ADD MSTORE PUSH1 0xA4 CALLDATALOAD PUSH1 0xA4 DUP6 ADD MSTORE AND PUSH1 0xC4 DUP4 ADD MSTORE PUSH2 0x100 PUSH1 0xE4 DUP4 ADD MSTORE DUP2 DUP9 DUP2 PUSH2 0x445 PUSH2 0x104 DUP3 ADD PUSH1 0xE4 CALLDATALOAD PUSH1 0x4 ADD CALLDATALOAD PUSH1 0x24 PUSH1 0xE4 CALLDATALOAD ADD PUSH2 0x1906 JUMP JUMPDEST SUB SWAP3 GAS CALL SWAP1 DUP2 ISZERO PUSH2 0x52A JUMPI SWAP1 PUSH8 0xFFFFFFFFFFFFFFFF SWAP4 SWAP3 SWAP2 PUSH1 0x20 SWAP7 SWAP2 PUSH2 0x4FD JUMPI JUMPDEST POP SWAP2 JUMPDEST PUSH1 0x40 MLOAD SWAP5 DUP6 MSTORE AND DUP5 DUP5 ADD MSTORE PUSH1 0x24 CALLDATALOAD PUSH1 0x40 DUP5 ADD MSTORE AND SWAP1 DUP2 PUSH1 0x60 DUP3 ADD MSTORE PUSH1 0xA0 PUSH1 0x80 DUP3 ADD MSTORE PUSH1 0x1 DUP1 PUSH1 0xA0 SHL SUB PUSH32 0x0 AND SWAP1 PUSH32 0x773E4BAF733F3D3A4E9745CD20FF83B01F933C4EAE9BBF01BDE61275A11BC37E CALLER SWAP2 DUP1 PUSH2 0x4F2 PUSH1 0xA0 DUP3 ADD PUSH1 0xE4 CALLDATALOAD PUSH1 0x4 ADD CALLDATALOAD PUSH1 0x24 PUSH1 0xE4 CALLDATALOAD ADD PUSH2 0x1906 JUMP JUMPDEST SUB SWAP1 LOG3 PUSH1 0x40 MLOAD SWAP1 DUP2 MSTORE RETURN JUMPDEST PUSH2 0x51D SWAP2 POP DUP7 RETURNDATASIZE DUP9 GT PUSH2 0x523 JUMPI JUMPDEST PUSH2 0x515 DUP2 DUP4 PUSH2 0x188D JUMP JUMPDEST DUP2 ADD SWAP1 PUSH2 0x18E6 JUMP JUMPDEST PUSH0 PUSH2 0x466 JUMP JUMPDEST POP RETURNDATASIZE PUSH2 0x50B JUMP JUMPDEST PUSH1 0x40 MLOAD RETURNDATASIZE DUP8 DUP3 RETURNDATACOPY RETURNDATASIZE SWAP1 REVERT JUMPDEST POP POP DUP4 PUSH1 0x20 PUSH1 0x1 DUP1 PUSH1 0xA0 SHL SUB PUSH1 0x1 SLOAD AND PUSH1 0x84 PUSH1 0x40 MLOAD DUP1 SWAP5 DUP2 SWAP4 PUSH4 0x37E9A827 PUSH1 0xE1 SHL DUP4 MSTORE DUP10 PUSH1 0x4 DUP5 ADD MSTORE DUP8 DUP10 AND PUSH1 0x24 DUP5 ADD MSTORE PUSH1 0x24 CALLDATALOAD PUSH1 0x44 DUP5 ADD MSTORE PUSH1 0x1 DUP1 PUSH1 0xA0 SHL SUB PUSH32 0x0 AND PUSH1 0x64 DUP5 ADD MSTORE GAS CALL SWAP1 DUP2 ISZERO PUSH2 0x52A JUMPI SWAP1 PUSH8 0xFFFFFFFFFFFFFFFF SWAP4 SWAP3 SWAP2 PUSH1 0x20 SWAP7 SWAP2 PUSH2 0x5C2 JUMPI JUMPDEST POP SWAP2 PUSH2 0x469 JUMP JUMPDEST PUSH2 0x5D9 SWAP2 POP DUP7 RETURNDATASIZE DUP9 GT PUSH2 0x523 JUMPI PUSH2 0x515 DUP2 DUP4 PUSH2 0x188D JUMP JUMPDEST PUSH0 PUSH2 0x5BB JUMP JUMPDEST PUSH2 0x600 SWAP1 PUSH1 0x20 RETURNDATASIZE PUSH1 0x20 GT PUSH2 0x607 JUMPI JUMPDEST PUSH2 0x5F8 DUP2 DUP4 PUSH2 0x188D JUMP JUMPDEST DUP2 ADD SWAP1 PUSH2 0x18CE JUMP JUMPDEST POP PUSH0 PUSH2 0x3A2 JUMP JUMPDEST POP RETURNDATASIZE PUSH2 0x5EE JUMP JUMPDEST PUSH1 0x40 MLOAD RETURNDATASIZE DUP10 DUP3 RETURNDATACOPY RETURNDATASIZE SWAP1 REVERT JUMPDEST PUSH2 0x631 SWAP1 PUSH1 0x20 RETURNDATASIZE PUSH1 0x20 GT PUSH2 0x607 JUMPI PUSH2 0x5F8 DUP2 DUP4 PUSH2 0x188D JUMP JUMPDEST POP PUSH0 PUSH2 0x32E JUMP JUMPDEST PUSH1 0x5 SLOAD PUSH2 0x66F SWAP2 SWAP1 PUSH1 0x1 PUSH1 0x1 PUSH1 0xA0 SHL SUB AND PUSH32 0x0 PUSH2 0x1ADC JUMP JUMPDEST PUSH0 PUSH2 0x2C4 JUMP JUMPDEST PUSH1 0x40 MLOAD PUSH3 0x461BCD PUSH1 0xE5 SHL DUP2 MSTORE PUSH1 0x20 PUSH1 0x4 DUP3 ADD MSTORE PUSH1 0x13 PUSH1 0x24 DUP3 ADD MSTORE PUSH19 0x4D494E545F524543495049454E545F5A45524F PUSH1 0x68 SHL PUSH1 0x44 DUP3 ADD MSTORE PUSH1 0x64 SWAP1 REVERT JUMPDEST DUP6 DUP1 REVERT JUMPDEST PUSH0 DUP1 REVERT JUMPDEST POP CALLVALUE PUSH2 0x182 JUMPI PUSH1 0x40 CALLDATASIZE PUSH1 0x3 NOT ADD SLT PUSH2 0x182 JUMPI PUSH2 0x6D2 PUSH2 0x1743 JUMP JUMPDEST PUSH1 0x40 MLOAD PUSH4 0x70A08231 PUSH1 0xE0 SHL DUP2 MSTORE ADDRESS PUSH1 0x4 DUP3 ADD MSTORE PUSH32 0x0 SWAP2 PUSH1 0x24 DUP1 CALLDATALOAD SWAP3 PUSH1 0x1 PUSH1 0x1 PUSH1 0xA0 SHL SUB SWAP2 PUSH1 0x20 SWAP1 DUP3 SWAP1 DUP2 DUP6 DUP10 AND GAS STATICCALL DUP1 ISZERO PUSH2 0x792 JUMPI DUP5 SWAP2 DUP8 SWAP2 PUSH2 0x75E JUMPI JUMPDEST POP LT ISZERO SWAP1 DUP2 PUSH2 0x752 JUMPI JUMPDEST POP PUSH2 0x742 JUMPI DUP4 DUP1 RETURN JUMPDEST PUSH2 0x74B SWAP3 PUSH2 0x1ADC JUMP JUMPDEST PUSH0 DUP1 DUP1 DUP4 DUP1 RETURN JUMPDEST SWAP1 POP DUP2 AND ISZERO ISZERO PUSH0 PUSH2 0x739 JUMP JUMPDEST SWAP2 POP POP PUSH1 0x20 DUP2 RETURNDATASIZE DUP3 GT PUSH2 0x78A JUMPI JUMPDEST DUP2 PUSH2 0x779 PUSH1 0x20 SWAP4 DUP4 PUSH2 0x188D JUMP JUMPDEST DUP2 ADD SUB SLT PUSH2 0x6B4 JUMPI DUP4 SWAP1 MLOAD PUSH0 PUSH2 0x72F JUMP JUMPDEST RETURNDATASIZE SWAP2 POP PUSH2 0x76C JUMP JUMPDEST PUSH1 0x40 MLOAD RETURNDATASIZE DUP9 DUP3 RETURNDATACOPY RETURNDATASIZE SWAP1 REVERT JUMPDEST POP CALLVALUE PUSH2 0x182 JUMPI DUP1 PUSH1 0x3 NOT CALLDATASIZE ADD SLT PUSH2 0x182 JUMPI PUSH1 0x3 SLOAD PUSH1 0x40 MLOAD PUSH1 0x1 PUSH1 0x1 PUSH1 0xA0 SHL SUB SWAP1 SWAP2 AND DUP2 MSTORE PUSH1 0x20 SWAP1 RETURN JUMPDEST POP CALLVALUE PUSH2 0x182 JUMPI DUP1 PUSH1 0x3 NOT CALLDATASIZE ADD SLT PUSH2 0x182 JUMPI PUSH1 0x4 SLOAD PUSH1 0x40 MLOAD PUSH1 0x1 PUSH1 0x1 PUSH1 0xA0 SHL SUB SWAP1 SWAP2 AND DUP2 MSTORE PUSH1 0x20 SWAP1 RETURN JUMPDEST POP CALLVALUE PUSH2 0x182 JUMPI PUSH1 0x40 CALLDATASIZE PUSH1 0x3 NOT ADD SLT PUSH2 0x182 JUMPI PUSH1 0x4 CALLDATALOAD PUSH2 0xFFFF DUP2 AND SWAP1 DUP2 DUP2 SUB PUSH2 0x919 JUMPI PUSH2 0x819 PUSH2 0x1759 JUMP JUMPDEST DUP4 SLOAD PUSH1 0x1 PUSH1 0x1 PUSH1 0xA0 SHL SUB SWAP2 SWAP1 PUSH2 0x832 SWAP1 DUP4 AND CALLER EQ PUSH2 0x177E JUMP JUMPDEST AND SWAP2 DUP3 ISZERO PUSH2 0x8DF JUMPI PUSH2 0x3E8 DUP2 GT PUSH2 0x8AB JUMPI PUSH32 0x9E2F5C2330AFB3C7CFCF473E62546420851AFCCBEAF15B45B799F048243170AA SWAP3 PUSH1 0x40 SWAP3 PUSH1 0x4 SLOAD SWAP1 PUSH2 0xFFFF PUSH1 0xA0 SHL SWAP1 PUSH1 0xA0 SHL AND SWAP1 PUSH2 0xFFFF PUSH1 0xA0 SHL NOT AND OR PUSH1 0x4 SSTORE DUP1 PUSH12 0xFFFFFFFFFFFFFFFFFFFFFFFF PUSH1 0xA0 SHL PUSH1 0x5 SLOAD AND OR PUSH1 0x5 SSTORE DUP3 MLOAD SWAP2 DUP3 MSTORE PUSH1 0x20 DUP3 ADD MSTORE LOG1 DUP1 RETURN JUMPDEST PUSH1 0x40 MLOAD PUSH3 0x461BCD PUSH1 0xE5 SHL DUP2 MSTORE PUSH1 0x20 PUSH1 0x4 DUP3 ADD MSTORE PUSH1 0xC PUSH1 0x24 DUP3 ADD MSTORE PUSH12 0x8C8A8ABEA89E9EBE90928E9 PUSH1 0xA3 SHL PUSH1 0x44 DUP3 ADD MSTORE PUSH1 0x64 SWAP1 REVERT JUMPDEST PUSH1 0x40 MLOAD PUSH3 0x461BCD PUSH1 0xE5 SHL DUP2 MSTORE PUSH1 0x20 PUSH1 0x4 DUP3 ADD MSTORE PUSH1 0x12 PUSH1 0x24 DUP3 ADD MSTORE PUSH18 0x4645455F434F4C4C4543544F525F5A45524F PUSH1 0x70 SHL PUSH1 0x44 DUP3 ADD MSTORE PUSH1 0x64 SWAP1 REVERT JUMPDEST DUP3 DUP1 REVERT JUMPDEST POP CALLVALUE PUSH2 0x182 JUMPI DUP1 PUSH1 0x3 NOT CALLDATASIZE ADD SLT PUSH2 0x182 JUMPI PUSH1 0x5 SLOAD PUSH1 0x40 MLOAD PUSH1 0x1 PUSH1 0x1 PUSH1 0xA0 SHL SUB SWAP1 SWAP2 AND DUP2 MSTORE PUSH1 0x20 SWAP1 RETURN JUMPDEST POP CALLVALUE PUSH2 0x182 JUMPI PUSH1 0xC0 CALLDATASIZE PUSH1 0x3 NOT ADD SLT PUSH2 0x182 JUMPI PUSH2 0x960 PUSH2 0x1743 JUMP JUMPDEST SWAP1 PUSH2 0x969 PUSH2 0x1759 JUMP JUMPDEST PUSH1 0x1 PUSH1 0x1 PUSH1 0xA0 SHL SUB PUSH1 0x84 CALLDATALOAD DUP2 DUP2 AND SWAP5 SWAP3 SWAP1 DUP6 SWAP1 SUB PUSH2 0x6B4 JUMPI PUSH2 0x98C DUP6 ISZERO ISZERO PUSH2 0x17EE JUMP JUMPDEST PUSH1 0x44 SWAP5 DUP6 CALLDATALOAD SWAP2 PUSH2 0x99D DUP4 ISZERO ISZERO PUSH2 0x182B JUMP JUMPDEST PUSH1 0xA4 CALLDATALOAD TIMESTAMP GT PUSH2 0x1128 JUMPI DUP4 AND SWAP4 DUP4 AND SWAP3 DUP4 DUP6 EQ PUSH2 0x10F7 JUMPI DUP1 PUSH32 0x0 AND DUP1 DUP6 EQ SWAP7 DUP8 ISZERO SWAP8 DUP9 PUSH2 0x10CC JUMPI JUMPDEST DUP1 ISZERO PUSH2 0x10C3 JUMPI JUMPDEST DUP1 ISZERO PUSH2 0x1098 JUMPI JUMPDEST ISZERO PUSH2 0x105B JUMPI PUSH2 0xA00 DUP6 DUP8 PUSH2 0x1969 JUMP JUMPDEST DUP1 SWAP10 SWAP2 SWAP10 PUSH2 0x1046 JUMPI JUMPDEST POP DUP2 SWAP3 DUP5 PUSH1 0x4 SLOAD AND SWAP2 DUP3 PUSH2 0xF21 JUMPI JUMPDEST POP POP POP DUP2 DUP4 AND SWAP8 DUP9 ISZERO PUSH2 0xDD2 JUMPI PUSH1 0x40 MLOAD PUSH4 0x4B60CE77 PUSH1 0xE0 SHL DUP1 DUP3 MSTORE PUSH1 0x20 SWAP6 SWAP2 DUP7 DUP2 PUSH1 0x4 DUP2 DUP16 GAS STATICCALL SWAP1 DUP2 ISZERO PUSH2 0x52A JUMPI SWAP1 DUP4 SWAP2 DUP7 SWAP2 PUSH2 0xDB5 JUMPI JUMPDEST POP AND DUP10 EQ SWAP2 DUP3 PUSH2 0xD65 JUMPI JUMPDEST DUP3 ISZERO PUSH2 0xCAC JUMPI JUMPDEST POP POP ISZERO PUSH2 0xC71 JUMPI PUSH1 0x40 MLOAD SWAP3 PUSH4 0x95EA7B3 PUSH1 0xE0 SHL SWAP4 DUP5 DUP2 MSTORE DUP11 PUSH1 0x4 DUP3 ADD MSTORE DUP4 PUSH1 0x24 DUP3 ADD MSTORE DUP6 DUP2 DUP14 DUP2 DUP8 DUP14 GAS CALL DUP1 ISZERO PUSH2 0xC66 JUMPI PUSH2 0xACB SWAP3 DUP8 SWAP3 DUP6 SWAP3 PUSH2 0xC49 JUMPI JUMPDEST POP PUSH1 0x40 MLOAD DUP8 DUP2 MSTORE PUSH1 0x1 PUSH1 0x1 PUSH1 0xA0 SHL SUB SWAP1 SWAP2 AND PUSH1 0x4 DUP3 ADD MSTORE PUSH1 0x24 DUP2 ADD SWAP2 SWAP1 SWAP2 MSTORE SWAP2 DUP3 SWAP1 DUP2 SWAP1 PUSH1 0x44 DUP3 ADD SWAP1 JUMP JUMPDEST SUB DUP2 DUP7 DUP13 GAS CALL DUP1 ISZERO PUSH2 0xC3E JUMPI PUSH2 0xC21 JUMPI JUMPDEST POP PUSH1 0x40 MLOAD SWAP1 PUSH4 0x79F37545 PUSH1 0xE1 SHL DUP3 MSTORE DUP8 PUSH1 0x4 DUP4 ADD MSTORE PUSH1 0x24 DUP3 ADD MSTORE PUSH1 0x64 CALLDATALOAD DUP11 DUP3 ADD MSTORE DUP5 PUSH1 0x64 DUP3 ADD MSTORE DUP4 DUP2 PUSH1 0x84 DUP2 DUP6 DUP14 GAS CALL SWAP1 DUP2 ISZERO PUSH2 0xC16 JUMPI DUP3 SWAP2 PUSH2 0xBE9 JUMPI JUMPDEST POP SWAP8 PUSH1 0x40 MLOAD SWAP3 DUP4 MSTORE PUSH1 0x4 DUP4 ADD MSTORE DUP1 PUSH1 0x24 DUP4 ADD MSTORE DUP3 DUP3 DUP11 DUP2 DUP5 DUP11 GAS CALL SWAP1 DUP2 ISZERO PUSH2 0xBDD JUMPI POP PUSH2 0xBBF JUMPI JUMPDEST POP POP JUMPDEST PUSH1 0x64 CALLDATALOAD DUP6 LT PUSH2 0xB90 JUMPI PUSH1 0x20 SWAP6 POP PUSH1 0x40 MLOAD SWAP2 DUP3 MSTORE DUP5 DUP7 DUP4 ADD MSTORE PUSH1 0x40 DUP3 ADD MSTORE PUSH32 0x1898A1026B4CD267E5FEDA53DEE6EE128FEBABF37BBEB28FE3C47EEEA83C32C4 PUSH1 0x60 CALLER SWAP3 LOG4 PUSH1 0x40 MLOAD SWAP1 DUP2 MSTORE RETURN JUMPDEST PUSH1 0x40 MLOAD PUSH3 0x461BCD PUSH1 0xE5 SHL DUP2 MSTORE PUSH1 0x20 PUSH1 0x4 DUP3 ADD MSTORE PUSH1 0x8 PUSH1 0x24 DUP3 ADD MSTORE PUSH8 0x534C495050414745 PUSH1 0xC0 SHL DUP2 DUP9 ADD MSTORE PUSH1 0x64 SWAP1 REVERT JUMPDEST DUP2 PUSH2 0xBD5 SWAP3 SWAP1 RETURNDATASIZE LT PUSH2 0x607 JUMPI PUSH2 0x5F8 DUP2 DUP4 PUSH2 0x188D JUMP JUMPDEST POP PUSH0 DUP1 PUSH2 0xB42 JUMP JUMPDEST PUSH1 0x40 MLOAD SWAP1 RETURNDATASIZE SWAP1 DUP3 RETURNDATACOPY RETURNDATASIZE SWAP1 REVERT JUMPDEST SWAP1 POP DUP4 DUP2 DUP2 RETURNDATASIZE DUP4 GT PUSH2 0xC0F JUMPI JUMPDEST PUSH2 0xC00 DUP2 DUP4 PUSH2 0x188D JUMP JUMPDEST DUP2 ADD SUB SLT PUSH2 0x6B4 JUMPI MLOAD PUSH0 PUSH2 0xB1A JUMP JUMPDEST POP RETURNDATASIZE PUSH2 0xBF6 JUMP JUMPDEST PUSH1 0x40 MLOAD RETURNDATASIZE DUP5 DUP3 RETURNDATACOPY RETURNDATASIZE SWAP1 REVERT JUMPDEST PUSH2 0xC37 SWAP1 DUP6 RETURNDATASIZE DUP8 GT PUSH2 0x607 JUMPI PUSH2 0x5F8 DUP2 DUP4 PUSH2 0x188D JUMP JUMPDEST POP PUSH0 PUSH2 0xADC JUMP JUMPDEST PUSH1 0x40 MLOAD RETURNDATASIZE DUP6 DUP3 RETURNDATACOPY RETURNDATASIZE SWAP1 REVERT JUMPDEST PUSH2 0xC5F SWAP1 DUP5 RETURNDATASIZE DUP7 GT PUSH2 0x607 JUMPI PUSH2 0x5F8 DUP2 DUP4 PUSH2 0x188D JUMP JUMPDEST POP PUSH0 PUSH2 0xAA0 JUMP JUMPDEST PUSH1 0x40 MLOAD RETURNDATASIZE DUP7 DUP3 RETURNDATACOPY RETURNDATASIZE SWAP1 REVERT JUMPDEST PUSH1 0x40 MLOAD PUSH3 0x461BCD PUSH1 0xE5 SHL DUP2 MSTORE PUSH1 0x4 DUP2 ADD DUP6 SWAP1 MSTORE PUSH1 0x14 PUSH1 0x24 DUP3 ADD MSTORE PUSH20 0xAC82AA98A8BEA89E968A9CBE9A92A69A82A8869 PUSH1 0x63 SHL DUP2 DUP13 ADD MSTORE PUSH1 0x64 SWAP1 REVERT JUMPDEST PUSH1 0x40 MLOAD PUSH4 0x1F209DF7 PUSH1 0xE1 SHL DUP2 MSTORE SWAP2 SWAP3 POP SWAP1 DUP7 DUP2 PUSH1 0x4 DUP2 DUP16 GAS STATICCALL SWAP1 DUP2 ISZERO PUSH2 0x52A JUMPI DUP3 DUP14 SWAP3 DUP10 SWAP3 DUP9 SWAP2 PUSH2 0xD48 JUMPI JUMPDEST POP AND DUP12 EQ SWAP4 DUP5 PUSH2 0xCEE JUMPI JUMPDEST POP POP POP POP PUSH0 DUP1 PUSH2 0xA62 JUMP JUMPDEST SWAP1 SWAP2 SWAP3 SWAP4 POP PUSH1 0x4 PUSH1 0x40 MLOAD DUP1 SWAP5 DUP2 SWAP4 DUP3 MSTORE GAS STATICCALL SWAP1 DUP2 ISZERO PUSH2 0xC66 JUMPI DUP5 SWAP2 PUSH2 0xD1B JUMPI JUMPDEST POP AND DUP9 EQ PUSH0 DUP11 DUP7 DUP3 PUSH2 0xCE3 JUMP JUMPDEST PUSH2 0xD3B SWAP2 POP DUP7 RETURNDATASIZE DUP9 GT PUSH2 0xD41 JUMPI JUMPDEST PUSH2 0xD33 DUP2 DUP4 PUSH2 0x188D JUMP JUMPDEST DUP2 ADD SWAP1 PUSH2 0x18AF JUMP JUMPDEST PUSH0 PUSH2 0xD0E JUMP JUMPDEST POP RETURNDATASIZE PUSH2 0xD29 JUMP JUMPDEST PUSH2 0xD5F SWAP2 POP DUP4 RETURNDATASIZE DUP6 GT PUSH2 0xD41 JUMPI PUSH2 0xD33 DUP2 DUP4 PUSH2 0x188D JUMP JUMPDEST PUSH0 PUSH2 0xCD8 JUMP JUMPDEST PUSH1 0x40 MLOAD PUSH4 0x1F209DF7 PUSH1 0xE1 SHL DUP2 MSTORE SWAP1 SWAP3 POP DUP7 DUP2 PUSH1 0x4 DUP2 DUP16 GAS STATICCALL SWAP1 DUP2 ISZERO PUSH2 0x52A JUMPI SWAP1 DUP4 SWAP2 DUP7 SWAP2 PUSH2 0xD98 JUMPI JUMPDEST POP AND DUP11 EQ SWAP2 PUSH2 0xA5B JUMP JUMPDEST PUSH2 0xDAF SWAP2 POP DUP9 RETURNDATASIZE DUP11 GT PUSH2 0xD41 JUMPI PUSH2 0xD33 DUP2 DUP4 PUSH2 0x188D JUMP JUMPDEST PUSH0 PUSH2 0xD8E JUMP JUMPDEST PUSH2 0xDCC SWAP2 POP DUP9 RETURNDATASIZE DUP11 GT PUSH2 0xD41 JUMPI PUSH2 0xD33 DUP2 DUP4 PUSH2 0x188D JUMP JUMPDEST PUSH0 PUSH2 0xA50 JUMP JUMPDEST SWAP2 POP SWAP3 SWAP7 POP DUP2 PUSH1 0x3 SLOAD AND SWAP1 DUP2 ISZERO PUSH2 0xEEA JUMPI PUSH1 0x40 MLOAD SWAP3 DUP4 SWAP3 PUSH4 0x298D501F PUSH1 0xE1 SHL DUP5 MSTORE DUP8 PUSH1 0x4 DUP6 ADD MSTORE DUP9 PUSH1 0x24 DUP6 ADD MSTORE DUP4 DUP12 PUSH1 0x20 SWAP6 DUP7 SWAP4 GAS STATICCALL SWAP4 DUP5 ISZERO PUSH2 0x52A JUMPI DUP6 SWAP5 PUSH2 0xECB JUMPI JUMPDEST POP DUP4 AND SWAP3 DUP4 ISZERO PUSH2 0xE9D JUMPI SWAP1 PUSH2 0xE2D DUP2 DUP5 SWAP4 DUP10 PUSH2 0x1ADC JUMP JUMPDEST PUSH1 0x84 DUP11 DUP7 PUSH1 0x40 MLOAD SWAP7 DUP8 SWAP5 DUP6 SWAP4 PUSH4 0x1BA04887 PUSH1 0xE2 SHL DUP6 MSTORE DUP13 PUSH1 0x4 DUP7 ADD MSTORE DUP14 PUSH1 0x24 DUP7 ADD MSTORE DUP5 ADD MSTORE DUP13 PUSH1 0x64 DUP5 ADD MSTORE GAS CALL SWAP3 DUP4 ISZERO PUSH2 0xBDD JUMPI SWAP3 PUSH2 0xE6F JUMPI JUMPDEST POP POP SWAP4 PUSH2 0xB45 JUMP JUMPDEST SWAP1 DUP1 SWAP3 POP DUP2 RETURNDATASIZE DUP4 GT PUSH2 0xE96 JUMPI JUMPDEST PUSH2 0xE86 DUP2 DUP4 PUSH2 0x188D JUMP JUMPDEST DUP2 ADD SUB SLT PUSH2 0x6B4 JUMPI MLOAD PUSH0 DUP1 PUSH2 0xE67 JUMP JUMPDEST POP RETURNDATASIZE PUSH2 0xE7C JUMP JUMPDEST PUSH1 0x40 MLOAD PUSH3 0x461BCD PUSH1 0xE5 SHL DUP2 MSTORE PUSH1 0x4 DUP2 ADD DUP5 SWAP1 MSTORE PUSH1 0x7 PUSH1 0x24 DUP3 ADD MSTORE PUSH7 0x1393D7D413D3D3 PUSH1 0xCA SHL DUP2 DUP13 ADD MSTORE PUSH1 0x64 SWAP1 REVERT JUMPDEST PUSH2 0xEE3 SWAP2 SWAP5 POP DUP4 RETURNDATASIZE DUP6 GT PUSH2 0xD41 JUMPI PUSH2 0xD33 DUP2 DUP4 PUSH2 0x188D JUMP JUMPDEST SWAP3 PUSH0 PUSH2 0xE16 JUMP JUMPDEST PUSH1 0x40 MLOAD PUSH3 0x461BCD PUSH1 0xE5 SHL DUP2 MSTORE PUSH1 0x20 PUSH1 0x4 DUP3 ADD MSTORE PUSH1 0x10 PUSH1 0x24 DUP3 ADD MSTORE PUSH16 0x1393D7D59055531517D3D497D413D3D3 PUSH1 0x82 SHL DUP2 DUP12 ADD MSTORE PUSH1 0x64 SWAP1 REVERT JUMPDEST DUP1 PUSH2 0x101A JUMPI JUMPDEST ISZERO PUSH2 0xF85 JUMPI POP PUSH1 0x24 SWAP2 SWAP3 POP PUSH1 0x20 SWAP1 PUSH1 0x40 MLOAD SWAP3 DUP4 DUP1 SWAP3 PUSH4 0x1D735E7 PUSH1 0xE3 SHL DUP3 MSTORE DUP11 PUSH1 0x4 DUP4 ADD MSTORE GAS STATICCALL SWAP1 DUP2 ISZERO PUSH2 0xC16 JUMPI DUP3 SWAP2 PUSH2 0xF67 JUMPI JUMPDEST POP SWAP1 JUMPDEST PUSH0 DUP1 DUP1 PUSH2 0xA18 JUMP JUMPDEST PUSH2 0xF7F SWAP2 POP PUSH1 0x20 RETURNDATASIZE DUP2 GT PUSH2 0xD41 JUMPI PUSH2 0xD33 DUP2 DUP4 PUSH2 0x188D JUMP JUMPDEST PUSH0 PUSH2 0xF5C JUMP JUMPDEST DUP9 EQ ISZERO DUP1 PUSH2 0xFEE JUMPI JUMPDEST PUSH2 0xF99 JUMPI JUMPDEST POP PUSH2 0xF5F JUMP JUMPDEST PUSH1 0x24 SWAP2 SWAP3 POP PUSH1 0x20 SWAP1 PUSH1 0x40 MLOAD SWAP3 DUP4 DUP1 SWAP3 PUSH4 0x1D735E7 PUSH1 0xE3 SHL DUP3 MSTORE DUP12 PUSH1 0x4 DUP4 ADD MSTORE GAS STATICCALL SWAP1 DUP2 ISZERO PUSH2 0xC16 JUMPI DUP3 SWAP2 PUSH2 0xFD0 JUMPI JUMPDEST POP SWAP1 PUSH0 PUSH2 0xF93 JUMP JUMPDEST PUSH2 0xFE8 SWAP2 POP PUSH1 0x20 RETURNDATASIZE DUP2 GT PUSH2 0xD41 JUMPI PUSH2 0xD33 DUP2 DUP4 PUSH2 0x188D JUMP JUMPDEST PUSH0 PUSH2 0xFC8 JUMP JUMPDEST POP DUP4 PUSH32 0x0 AND DUP9 EQ ISZERO PUSH2 0xF8E JUMP JUMPDEST POP DUP5 PUSH32 0x0 AND DUP9 EQ ISZERO PUSH2 0xF27 JUMP JUMPDEST PUSH2 0x1055 SWAP1 DUP6 PUSH1 0x5 SLOAD AND DUP10 PUSH2 0x1ADC JUMP JUMPDEST PUSH0 PUSH2 0xA09 JUMP JUMPDEST PUSH1 0x40 MLOAD PUSH3 0x461BCD PUSH1 0xE5 SHL DUP2 MSTORE PUSH1 0x20 PUSH1 0x4 DUP3 ADD MSTORE PUSH1 0x16 PUSH1 0x24 DUP3 ADD MSTORE PUSH22 0x4F4E455F4C45475F4D5553545F42455F535441424C45 PUSH1 0x50 SHL DUP2 DUP12 ADD MSTORE PUSH1 0x64 SWAP1 REVERT JUMPDEST POP DUP3 PUSH32 0x0 AND DUP8 EQ PUSH2 0x9F1 JUMP JUMPDEST POP DUP2 DUP8 EQ PUSH2 0x9EA JUMP JUMPDEST POP DUP3 PUSH32 0x0 AND DUP7 EQ PUSH2 0x9E3 JUMP JUMPDEST PUSH1 0x40 MLOAD PUSH3 0x461BCD PUSH1 0xE5 SHL DUP2 MSTORE PUSH1 0x20 PUSH1 0x4 DUP3 ADD MSTORE PUSH1 0xA PUSH1 0x24 DUP3 ADD MSTORE PUSH10 0x29A0A6A2AFAA27A5A2A7 PUSH1 0xB1 SHL DUP2 DUP10 ADD MSTORE PUSH1 0x64 SWAP1 REVERT JUMPDEST PUSH1 0x40 MLOAD PUSH3 0x461BCD PUSH1 0xE5 SHL DUP2 MSTORE PUSH1 0x20 PUSH1 0x4 DUP3 ADD MSTORE PUSH1 0x7 PUSH1 0x24 DUP3 ADD MSTORE PUSH7 0x11561412549151 PUSH1 0xCA SHL DUP2 DUP10 ADD MSTORE PUSH1 0x64 SWAP1 REVERT JUMPDEST POP CALLVALUE PUSH2 0x182 JUMPI DUP1 PUSH1 0x3 NOT CALLDATASIZE ADD SLT PUSH2 0x182 JUMPI PUSH1 0x40 MLOAD PUSH32 0x0 PUSH1 0x1 PUSH1 0x1 PUSH1 0xA0 SHL SUB AND DUP2 MSTORE PUSH1 0x20 SWAP1 RETURN JUMPDEST POP CALLVALUE PUSH2 0x182 JUMPI PUSH1 0x20 CALLDATASIZE PUSH1 0x3 NOT ADD SLT PUSH2 0x182 JUMPI PUSH32 0x7A3BB33D45E644591A57750D06AB2A57B66D5881C20C7447D4A32AC601657A11 PUSH1 0x20 PUSH2 0x11D8 PUSH2 0x1743 JUMP JUMPDEST DUP4 SLOAD PUSH1 0x1 PUSH1 0x1 PUSH1 0xA0 SHL SUB SWAP2 SWAP1 PUSH2 0x11F1 SWAP1 DUP4 AND CALLER EQ PUSH2 0x177E JUMP JUMPDEST AND PUSH2 0x11FD DUP2 ISZERO ISZERO PUSH2 0x17B6 JUMP JUMPDEST PUSH1 0x2 DUP1 SLOAD PUSH1 0x1 PUSH1 0x1 PUSH1 0xA0 SHL SUB NOT AND DUP3 OR SWAP1 SSTORE PUSH1 0x40 MLOAD SWAP1 DUP2 MSTORE LOG1 DUP1 RETURN JUMPDEST POP CALLVALUE PUSH2 0x182 JUMPI DUP1 PUSH1 0x3 NOT CALLDATASIZE ADD SLT PUSH2 0x182 JUMPI SLOAD PUSH1 0x40 MLOAD PUSH1 0x1 PUSH1 0x1 PUSH1 0xA0 SHL SUB SWAP1 SWAP2 AND DUP2 MSTORE PUSH1 0x20 SWAP1 RETURN JUMPDEST POP CALLVALUE PUSH2 0x182 JUMPI DUP1 PUSH1 0x3 NOT CALLDATASIZE ADD SLT PUSH2 0x182 JUMPI PUSH1 0x40 MLOAD PUSH32 0x0 PUSH1 0x1 PUSH1 0x1 PUSH1 0xA0 SHL SUB AND DUP2 MSTORE PUSH1 0x20 SWAP1 RETURN JUMPDEST POP CALLVALUE PUSH2 0x182 JUMPI PUSH1 0x80 CALLDATASIZE PUSH1 0x3 NOT ADD SLT PUSH2 0x182 JUMPI PUSH2 0x129F PUSH2 0x1743 JUMP JUMPDEST PUSH1 0x24 CALLDATALOAD SWAP1 DUP3 SWAP1 PUSH1 0x44 CALLDATALOAD SWAP1 PUSH1 0x1 PUSH1 0x1 PUSH1 0xA0 SHL SUB DUP1 DUP4 AND SWAP2 DUP3 DUP5 SUB PUSH2 0x150D JUMPI DUP5 SWAP1 PUSH2 0x12C6 PUSH2 0x176F JUMP JUMPDEST SWAP5 SWAP4 PUSH2 0x12D3 DUP9 ISZERO ISZERO PUSH2 0x182B JUMP JUMPDEST PUSH2 0x12DC DUP3 PUSH2 0x1A36 JUMP JUMPDEST ISZERO PUSH2 0x1505 JUMPI JUMPDEST PUSH2 0x12EF DUP4 DUP3 AND SWAP8 DUP9 PUSH2 0x1969 JUMP JUMPDEST DUP1 SWAP7 SWAP2 SWAP7 PUSH2 0x14F0 JUMPI JUMPDEST POP DUP4 PUSH1 0x2 SLOAD AND PUSH1 0x40 MLOAD SWAP1 PUSH4 0x95EA7B3 PUSH1 0xE0 SHL SWAP1 DUP2 DUP4 MSTORE PUSH1 0x4 DUP4 ADD MSTORE DUP5 PUSH1 0x24 DUP4 ADD MSTORE DUP10 DUP3 PUSH1 0x44 DUP2 PUSH1 0x20 SWAP13 DUP14 SWAP5 GAS CALL SWAP1 DUP2 ISZERO PUSH2 0x52A JUMPI DUP9 SWAP3 DUP11 SWAP3 PUSH2 0x14D3 JUMPI JUMPDEST POP PUSH1 0x2 SLOAD PUSH1 0x40 MLOAD SWAP2 DUP3 MSTORE DUP8 AND PUSH1 0x1 PUSH1 0x1 PUSH1 0xA0 SHL SUB AND PUSH1 0x4 DUP3 ADD MSTORE PUSH1 0x24 DUP2 ADD SWAP3 SWAP1 SWAP3 MSTORE DUP2 PUSH1 0x44 DUP2 DUP8 DUP14 GAS CALL DUP1 ISZERO PUSH2 0xC66 JUMPI PUSH2 0x14B6 JUMPI JUMPDEST POP ISZERO PUSH2 0x1407 JUMPI DUP3 PUSH1 0x2 SLOAD AND DUP1 EXTCODESIZE ISZERO PUSH2 0x919 JUMPI PUSH1 0x40 MLOAD PUSH4 0xB3DB428B PUSH1 0xE0 SHL DUP2 MSTORE PUSH1 0x1 PUSH1 0x1 PUSH1 0xA0 SHL SUB SWAP3 DUP4 AND PUSH1 0x4 DUP3 ADD MSTORE SWAP2 DUP6 AND PUSH1 0x24 DUP4 ADD MSTORE PUSH1 0x44 DUP3 ADD DUP7 SWAP1 MSTORE DUP3 SWAP1 DUP3 SWAP1 PUSH1 0x64 SWAP1 DUP3 SWAP1 DUP5 SWAP1 GAS CALL DUP1 ISZERO PUSH2 0xC16 JUMPI PUSH2 0x13F3 JUMPI JUMPDEST POP POP PUSH32 0x921654B8C2158EBC05629D4C303A63347A5DD7E3BC284889DB0CFE5FD962BA6A SWAP2 JUMPDEST PUSH1 0x40 MLOAD SWAP4 DUP5 MSTORE AND SWAP3 CALLER SWAP3 LOG4 DUP1 RETURN JUMPDEST PUSH2 0x13FC SWAP1 PUSH2 0x1865 JUMP JUMPDEST PUSH2 0x6B0 JUMPI DUP6 PUSH0 PUSH2 0x13C0 JUMP JUMPDEST SWAP1 DUP3 PUSH1 0x2 SWAP5 SWAP4 SWAP5 SLOAD AND SWAP2 DUP3 EXTCODESIZE ISZERO PUSH2 0x14B2 JUMPI PUSH1 0x40 MLOAD PUSH4 0x11F9FBC9 PUSH1 0xE2 SHL DUP2 MSTORE PUSH1 0x1 PUSH1 0x1 PUSH1 0xA0 SHL SUB SWAP2 SWAP1 SWAP2 AND PUSH1 0x4 DUP3 ADD MSTORE PUSH1 0x24 DUP2 ADD DUP7 SWAP1 MSTORE SWAP2 DUP3 SWAP1 PUSH1 0x44 SWAP1 DUP3 SWAP1 DUP5 SWAP1 GAS CALL DUP1 ISZERO PUSH2 0x60E JUMPI PUSH2 0x147D JUMPI JUMPDEST POP SWAP1 PUSH32 0x921654B8C2158EBC05629D4C303A63347A5DD7E3BC284889DB0CFE5FD962BA6A SWAP2 PUSH2 0x13E5 JUMP JUMPDEST SWAP6 PUSH2 0x14AA PUSH32 0x921654B8C2158EBC05629D4C303A63347A5DD7E3BC284889DB0CFE5FD962BA6A SWAP4 SWAP3 SWAP8 PUSH2 0x1865 JUMP JUMPDEST SWAP6 SWAP1 SWAP2 PUSH2 0x1454 JUMP JUMPDEST POP DUP1 REVERT JUMPDEST PUSH2 0x14CC SWAP1 DUP9 RETURNDATASIZE DUP11 GT PUSH2 0x607 JUMPI PUSH2 0x5F8 DUP2 DUP4 PUSH2 0x188D JUMP JUMPDEST POP PUSH0 PUSH2 0x136A JUMP JUMPDEST PUSH2 0x14E9 SWAP1 DUP4 RETURNDATASIZE DUP6 GT PUSH2 0x607 JUMPI PUSH2 0x5F8 DUP2 DUP4 PUSH2 0x188D JUMP JUMPDEST POP PUSH0 PUSH2 0x1335 JUMP JUMPDEST PUSH2 0x14FF SWAP1 DUP6 PUSH1 0x5 SLOAD AND DUP11 PUSH2 0x1ADC JUMP JUMPDEST PUSH0 PUSH2 0x12F8 JUMP JUMPDEST CALLER SWAP4 POP PUSH2 0x12E2 JUMP JUMPDEST DUP5 DUP1 REVERT JUMPDEST POP CALLVALUE PUSH2 0x182 JUMPI PUSH1 0x80 CALLDATASIZE PUSH1 0x3 NOT ADD SLT PUSH2 0x182 JUMPI PUSH2 0x152B PUSH2 0x1743 JUMP JUMPDEST PUSH2 0x1533 PUSH2 0x1759 JUMP JUMPDEST SWAP1 PUSH1 0x44 CALLDATALOAD SWAP2 PUSH2 0x1585 PUSH1 0x1 DUP1 PUSH1 0xA0 SHL SUB SWAP2 PUSH2 0x1572 DUP4 DUP1 DUP4 AND SWAP6 PUSH2 0x1556 DUP8 ISZERO ISZERO PUSH2 0x17EE JUMP JUMPDEST PUSH2 0x1561 DUP9 ISZERO ISZERO PUSH2 0x182B JUMP JUMPDEST PUSH2 0x156A DUP2 PUSH2 0x1A36 JUMP JUMPDEST AND SWAP6 DUP7 PUSH2 0x1969 JUMP JUMPDEST SWAP1 SWAP4 DUP5 SWAP3 SWAP2 DUP1 PUSH2 0x15BC JUMPI JUMPDEST POP POP DUP6 PUSH2 0x1ADC JUMP JUMPDEST PUSH1 0x40 MLOAD SWAP1 DUP2 MSTORE PUSH1 0x64 CALLDATALOAD PUSH1 0x20 DUP3 ADD MSTORE PUSH32 0xB9FCC4404867BC932FD7611431A17AAA3F95766EB5BD01D46C296AD8CE468402 PUSH1 0x40 CALLER SWAP3 LOG4 DUP1 RETURN JUMPDEST PUSH2 0x15CA SWAP2 PUSH1 0x5 SLOAD AND DUP9 PUSH2 0x1ADC JUMP JUMPDEST PUSH0 DUP1 PUSH2 0x157D JUMP JUMPDEST POP CALLVALUE PUSH2 0x182 JUMPI DUP1 PUSH1 0x3 NOT CALLDATASIZE ADD SLT PUSH2 0x182 JUMPI PUSH1 0x1 SLOAD PUSH1 0x40 MLOAD PUSH1 0x1 PUSH1 0x1 PUSH1 0xA0 SHL SUB SWAP1 SWAP2 AND DUP2 MSTORE PUSH1 0x20 SWAP1 RETURN JUMPDEST POP CALLVALUE PUSH2 0x182 JUMPI PUSH1 0x20 CALLDATASIZE PUSH1 0x3 NOT ADD SLT PUSH2 0x182 JUMPI PUSH2 0x1614 PUSH2 0x1743 JUMP JUMPDEST DUP2 SLOAD PUSH1 0x1 PUSH1 0x1 PUSH1 0xA0 SHL SUB SWAP2 SWAP1 PUSH2 0x162D SWAP1 DUP4 AND CALLER EQ PUSH2 0x177E JUMP JUMPDEST AND PUSH2 0x1639 DUP2 ISZERO ISZERO PUSH2 0x17B6 JUMP JUMPDEST PUSH12 0xFFFFFFFFFFFFFFFFFFFFFFFF PUSH1 0xA0 SHL PUSH1 0x4 SLOAD AND OR PUSH1 0x4 SSTORE DUP1 RETURN JUMPDEST POP CALLVALUE PUSH2 0x182 JUMPI PUSH1 0x20 CALLDATASIZE PUSH1 0x3 NOT ADD SLT PUSH2 0x182 JUMPI PUSH1 0x20 PUSH2 0x1673 PUSH1 0x4 CALLDATALOAD PUSH2 0x1926 JUMP JUMPDEST PUSH1 0x40 MLOAD SWAP1 DUP2 MSTORE RETURN JUMPDEST POP CALLVALUE PUSH2 0x182 JUMPI DUP1 PUSH1 0x3 NOT CALLDATASIZE ADD SLT PUSH2 0x182 JUMPI PUSH1 0x20 PUSH2 0xFFFF PUSH1 0x4 SLOAD PUSH1 0xA0 SHR AND PUSH1 0x40 MLOAD SWAP1 DUP2 MSTORE RETURN JUMPDEST POP CALLVALUE PUSH2 0x182 JUMPI PUSH1 0x20 CALLDATASIZE PUSH1 0x3 NOT ADD SLT PUSH2 0x182 JUMPI PUSH32 0xEE6E8AF5EA26AD906C28E6E8C421C990111039169988F75CAB1FC2983F0FFDA3 PUSH1 0x20 PUSH2 0x16DD PUSH2 0x1743 JUMP JUMPDEST DUP4 SLOAD PUSH1 0x1 PUSH1 0x1 PUSH1 0xA0 SHL SUB SWAP2 SWAP1 PUSH2 0x16F6 SWAP1 DUP4 AND CALLER EQ PUSH2 0x177E JUMP JUMPDEST AND PUSH2 0x1702 DUP2 ISZERO ISZERO PUSH2 0x17B6 JUMP JUMPDEST PUSH1 0x3 DUP1 SLOAD PUSH1 0x1 PUSH1 0x1 PUSH1 0xA0 SHL SUB NOT AND DUP3 OR SWAP1 SSTORE PUSH1 0x40 MLOAD SWAP1 DUP2 MSTORE LOG1 DUP1 RETURN JUMPDEST SWAP1 POP CALLVALUE PUSH2 0x14B2 JUMPI DUP2 PUSH1 0x3 NOT CALLDATASIZE ADD SLT PUSH2 0x14B2 JUMPI PUSH1 0x2 SLOAD PUSH1 0x1 PUSH1 0x1 PUSH1 0xA0 SHL SUB AND DUP2 MSTORE PUSH1 0x20 SWAP1 RETURN JUMPDEST PUSH1 0x4 CALLDATALOAD SWAP1 PUSH1 0x1 PUSH1 0x1 PUSH1 0xA0 SHL SUB DUP3 AND DUP3 SUB PUSH2 0x6B4 JUMPI JUMP JUMPDEST PUSH1 0x24 CALLDATALOAD SWAP1 PUSH1 0x1 PUSH1 0x1 PUSH1 0xA0 SHL SUB DUP3 AND DUP3 SUB PUSH2 0x6B4 JUMPI JUMP JUMPDEST PUSH1 0x64 CALLDATALOAD SWAP1 DUP2 ISZERO ISZERO DUP3 SUB PUSH2 0x6B4 JUMPI JUMP JUMPDEST ISZERO PUSH2 0x1785 JUMPI JUMP JUMPDEST PUSH1 0x40 MLOAD PUSH3 0x461BCD PUSH1 0xE5 SHL DUP2 MSTORE PUSH1 0x20 PUSH1 0x4 DUP3 ADD MSTORE PUSH1 0x9 PUSH1 0x24 DUP3 ADD MSTORE PUSH9 0x2727AA2FA7ABA722A9 PUSH1 0xB9 SHL PUSH1 0x44 DUP3 ADD MSTORE PUSH1 0x64 SWAP1 REVERT JUMPDEST ISZERO PUSH2 0x17BD JUMPI JUMP JUMPDEST PUSH1 0x40 MLOAD PUSH3 0x461BCD PUSH1 0xE5 SHL DUP2 MSTORE PUSH1 0x20 PUSH1 0x4 DUP3 ADD MSTORE PUSH1 0x9 PUSH1 0x24 DUP3 ADD MSTORE PUSH9 0x2D22A927AFA0A22229 PUSH1 0xB9 SHL PUSH1 0x44 DUP3 ADD MSTORE PUSH1 0x64 SWAP1 REVERT JUMPDEST ISZERO PUSH2 0x17F5 JUMPI JUMP JUMPDEST PUSH1 0x40 MLOAD PUSH3 0x461BCD PUSH1 0xE5 SHL DUP2 MSTORE PUSH1 0x20 PUSH1 0x4 DUP3 ADD MSTORE PUSH1 0xE PUSH1 0x24 DUP3 ADD MSTORE PUSH14 0x524543495049454E545F5A45524F PUSH1 0x90 SHL PUSH1 0x44 DUP3 ADD MSTORE PUSH1 0x64 SWAP1 REVERT JUMPDEST ISZERO PUSH2 0x1832 JUMPI JUMP JUMPDEST PUSH1 0x40 MLOAD PUSH3 0x461BCD PUSH1 0xE5 SHL DUP2 MSTORE PUSH1 0x20 PUSH1 0x4 DUP3 ADD MSTORE PUSH1 0xB PUSH1 0x24 DUP3 ADD MSTORE PUSH11 0x414D4F554E545F5A45524F PUSH1 0xA8 SHL PUSH1 0x44 DUP3 ADD MSTORE PUSH1 0x64 SWAP1 REVERT JUMPDEST PUSH8 0xFFFFFFFFFFFFFFFF DUP2 GT PUSH2 0x1879 JUMPI PUSH1 0x40 MSTORE JUMP JUMPDEST PUSH4 0x4E487B71 PUSH1 0xE0 SHL PUSH0 MSTORE PUSH1 0x41 PUSH1 0x4 MSTORE PUSH1 0x24 PUSH0 REVERT JUMPDEST SWAP1 PUSH1 0x1F DUP1 NOT SWAP2 ADD AND DUP2 ADD SWAP1 DUP2 LT PUSH8 0xFFFFFFFFFFFFFFFF DUP3 GT OR PUSH2 0x1879 JUMPI PUSH1 0x40 MSTORE JUMP JUMPDEST SWAP1 DUP2 PUSH1 0x20 SWAP2 SUB SLT PUSH2 0x6B4 JUMPI MLOAD PUSH1 0x1 PUSH1 0x1 PUSH1 0xA0 SHL SUB DUP2 AND DUP2 SUB PUSH2 0x6B4 JUMPI SWAP1 JUMP JUMPDEST SWAP1 DUP2 PUSH1 0x20 SWAP2 SUB SLT PUSH2 0x6B4 JUMPI MLOAD DUP1 ISZERO ISZERO DUP2 SUB PUSH2 0x6B4 JUMPI SWAP1 JUMP JUMPDEST SWAP1 DUP2 PUSH1 0x20 SWAP2 SUB SLT PUSH2 0x6B4 JUMPI MLOAD PUSH8 0xFFFFFFFFFFFFFFFF DUP2 AND DUP2 SUB PUSH2 0x6B4 JUMPI SWAP1 JUMP JUMPDEST SWAP1 DUP1 PUSH1 0x20 SWAP4 SWAP3 DUP2 DUP5 MSTORE DUP5 DUP5 ADD CALLDATACOPY PUSH0 DUP3 DUP3 ADD DUP5 ADD MSTORE PUSH1 0x1F ADD PUSH1 0x1F NOT AND ADD ADD SWAP1 JUMP JUMPDEST PUSH2 0xFFFF PUSH1 0x4 SLOAD PUSH1 0xA0 SHR AND SWAP1 DUP2 ISZERO PUSH2 0x1963 JUMPI DUP2 DUP2 MUL SWAP2 DUP2 DUP4 DIV EQ SWAP1 ISZERO OR ISZERO PUSH2 0x194F JUMPI PUSH2 0x2710 SWAP1 DIV SWAP1 JUMP JUMPDEST PUSH4 0x4E487B71 PUSH1 0xE0 SHL PUSH0 MSTORE PUSH1 0x11 PUSH1 0x4 MSTORE PUSH1 0x24 PUSH0 REVERT JUMPDEST POP POP PUSH0 SWAP1 JUMP JUMPDEST SWAP1 SWAP2 PUSH2 0x1974 DUP4 PUSH2 0x1926 JUMP JUMPDEST SWAP2 DUP3 DUP5 SUB SWAP1 DUP5 DUP3 GT PUSH2 0x194F JUMPI PUSH1 0x40 MLOAD PUSH4 0x23B872DD PUSH1 0xE0 SHL DUP2 MSTORE CALLER PUSH1 0x4 DUP3 ADD MSTORE ADDRESS PUSH1 0x24 DUP3 ADD MSTORE PUSH1 0x44 DUP2 ADD SWAP6 SWAP1 SWAP6 MSTORE SWAP1 SWAP4 SWAP1 PUSH1 0x20 SWAP1 DUP3 SWAP1 PUSH1 0x64 SWAP1 DUP3 SWAP1 PUSH0 SWAP1 PUSH1 0x1 PUSH1 0x1 PUSH1 0xA0 SHL SUB AND GAS CALL SWAP1 DUP2 ISZERO PUSH2 0x1A2B JUMPI PUSH0 SWAP2 PUSH2 0x1A0D JUMPI JUMPDEST POP ISZERO PUSH2 0x19D1 JUMPI JUMP JUMPDEST PUSH1 0x40 MLOAD PUSH3 0x461BCD PUSH1 0xE5 SHL DUP2 MSTORE PUSH1 0x20 PUSH1 0x4 DUP3 ADD MSTORE PUSH1 0x14 PUSH1 0x24 DUP3 ADD MSTORE PUSH20 0x1514905394D1915497D19493D357D19052531151 PUSH1 0x62 SHL PUSH1 0x44 DUP3 ADD MSTORE PUSH1 0x64 SWAP1 REVERT JUMPDEST PUSH2 0x1A25 SWAP2 POP PUSH1 0x20 RETURNDATASIZE DUP2 GT PUSH2 0x607 JUMPI PUSH2 0x5F8 DUP2 DUP4 PUSH2 0x188D JUMP JUMPDEST PUSH0 PUSH2 0x19C9 JUMP JUMPDEST PUSH1 0x40 MLOAD RETURNDATASIZE PUSH0 DUP3 RETURNDATACOPY RETURNDATASIZE SWAP1 REVERT JUMPDEST PUSH1 0x1 PUSH1 0x1 PUSH1 0xA0 SHL SUB SWAP1 DUP2 AND PUSH32 0x0 DUP3 AND DUP2 EQ SWAP2 DUP3 ISZERO PUSH2 0x1AB0 JUMPI JUMPDEST POP POP ISZERO PUSH2 0x1A77 JUMPI JUMP JUMPDEST PUSH1 0x40 MLOAD PUSH3 0x461BCD PUSH1 0xE5 SHL DUP2 MSTORE PUSH1 0x20 PUSH1 0x4 DUP3 ADD MSTORE PUSH1 0x11 PUSH1 0x24 DUP3 ADD MSTORE PUSH17 0x2AA729AAA82827A92A22A22FAA27A5A2A7 PUSH1 0x79 SHL PUSH1 0x44 DUP3 ADD MSTORE PUSH1 0x64 SWAP1 REVERT JUMPDEST PUSH32 0x0 AND EQ SWAP1 POP PUSH0 DUP1 PUSH2 0x1A6E JUMP JUMPDEST PUSH1 0x40 MLOAD PUSH4 0xA9059CBB PUSH1 0xE0 SHL DUP2 MSTORE PUSH1 0x1 PUSH1 0x1 PUSH1 0xA0 SHL SUB SWAP3 DUP4 AND PUSH1 0x4 DUP3 ADD MSTORE PUSH1 0x24 DUP2 ADD SWAP4 SWAP1 SWAP4 MSTORE PUSH1 0x20 SWAP2 DUP4 SWAP2 PUSH1 0x44 SWAP2 DUP4 SWAP2 PUSH0 SWAP2 AND GAS CALL SWAP1 DUP2 ISZERO PUSH2 0x1A2B JUMPI PUSH0 SWAP2 PUSH2 0x1B5D JUMPI JUMPDEST POP ISZERO PUSH2 0x1B26 JUMPI JUMP JUMPDEST PUSH1 0x40 MLOAD PUSH3 0x461BCD PUSH1 0xE5 SHL DUP2 MSTORE PUSH1 0x20 PUSH1 0x4 DUP3 ADD MSTORE PUSH1 0xF PUSH1 0x24 DUP3 ADD MSTORE PUSH15 0x1514905394D1915497D19052531151 PUSH1 0x8A SHL PUSH1 0x44 DUP3 ADD MSTORE PUSH1 0x64 SWAP1 REVERT JUMPDEST PUSH2 0x1B75 SWAP2 POP PUSH1 0x20 RETURNDATASIZE DUP2 GT PUSH2 0x607 JUMPI PUSH2 0x5F8 DUP2 DUP4 PUSH2 0x188D JUMP JUMPDEST PUSH0 PUSH2 0x1B1E JUMP INVALID LOG2 PUSH5 0x6970667358 0x22 SLT KECCAK256 0xE8 0xC9 0xEA 0xCF CREATE2 SHL 0xE6 0xDF NUMBER 0x4A PUSH9 0x4573D0047FD20272B9 SELFBALANCE 0xE3 DUP13 0xEE 0xB1 0x27 0x2F SWAP14 0xF9 DELEGATECALL 0xC6 0xA5 PUSH5 0x736F6C6343 STOP ADDMOD EQ STOP CALLER "},"methodIdentifiers":{"EURC()":"aabfa37d","USDC()":"89a30271","ammFactory()":"dacda92f","feeBps()":"24a9d853","feeCollector()":"c415b95c","gatewayWallet()":"131b4c0e","onCCTPReceived(address,uint256)":"e0248ac1","owner()":"8da5cb5b","payLocal(address,address,uint256,bytes32)":"62ce977b","previewFee(uint256)":"35e856f2","routeCCTP(uint32,bytes32,uint256,bool,bytes32,uint256,uint32,bytes)":"edc421fd","routeGatewayDeposit(address,uint256,address,bool)":"6b39cf77","setAMMFactory(address)":"1c2236f1","setFeeConfig(uint16,address)":"cd1b7d6c","setGatewayWallet(address)":"a92bb10f","setTokenMessenger(address)":"f586384f","setVaultFactory(address)":"3ea7fbdb","swapLocal(address,address,uint256,uint256,address,uint256)":"b78f6c2f","tokenMessenger()":"46117830","transferOwnership(address)":"f2fde38b","vaultFactory()":"d8a06f73"}}}}}