{"project/core/ArcMetaRouter.sol":{"ArcMetaRouter":{"abi":[{"inputs":[{"internalType":"address","name":"_usdc","type":"address"},{"internalType":"address","name":"_eurc","type":"address"},{"internalType":"address","name":"_tokenMessenger","type":"address"},{"internalType":"address","name":"_gatewayWallet","type":"address"},{"internalType":"uint16","name":"_feeBps","type":"uint16"},{"internalType":"address","name":"_feeCollector","type":"address"}],"stateMutability":"nonpayable","type":"constructor"},{"anonymous":false,"inputs":[{"indexed":false,"internalType":"address","name":"ammFactory","type":"address"}],"name":"AMMFactoryUpdated","type":"event"},{"anonymous":false,"inputs":[{"indexed":true,"internalType":"address","name":"payer","type":"address"},{"indexed":true,"internalType":"address","name":"token","type":"address"},{"indexed":false,"internalType":"uint256","name":"amount","type":"uint256"},{"indexed":false,"internalType":"uint32","name":"destinationDomain","type":"uint32"},{"indexed":false,"internalType":"bytes32","name":"mintRecipient","type":"bytes32"},{"indexed":false,"internalType":"uint64","name":"nonce","type":"uint64"},{"indexed":false,"internalType":"bytes","name":"hookData","type":"bytes"}],"name":"CCTPTransferInitiated","type":"event"},{"anonymous":false,"inputs":[{"indexed":false,"internalType":"uint16","name":"feeBps","type":"uint16"},{"indexed":false,"internalType":"address","name":"feeCollector","type":"address"}],"name":"FeeUpdated","type":"event"},{"anonymous":false,"inputs":[{"indexed":true,"internalType":"address","name":"payer","type":"address"},{"indexed":true,"internalType":"address","name":"depositor","type":"address"},{"indexed":true,"internalType":"address","name":"token","type":"address"},{"indexed":false,"internalType":"uint256","name":"amount","type":"uint256"}],"name":"GatewayDeposit","type":"event"},{"anonymous":false,"inputs":[{"indexed":false,"internalType":"address","name":"gatewayWallet","type":"address"}],"name":"GatewayWalletUpdated","type":"event"},{"anonymous":false,"inputs":[{"indexed":true,"internalType":"address","name":"payer","type":"address"},{"indexed":true,"internalType":"address","name":"recipient","type":"address"},{"indexed":true,"internalType":"address","name":"token","type":"address"},{"indexed":false,"internalType":"uint256","name":"amount","type":"uint256"},{"indexed":false,"internalType":"bytes32","name":"paymentId","type":"bytes32"}],"name":"LocalPayment","type":"event"},{"anonymous":false,"inputs":[{"indexed":true,"internalType":"address","name":"sender","type":"address"},{"indexed":true,"internalType":"address","name":"tokenIn","type":"address"},{"indexed":true,"internalType":"address","name":"tokenOut","type":"address"},{"indexed":false,"internalType":"uint256","name":"amountIn","type":"uint256"},{"indexed":false,"internalType":"uint256","name":"amountOut","type":"uint256"},{"indexed":false,"internalType":"address","name":"recipient","type":"address"}],"name":"LocalSwap","type":"event"},{"anonymous":false,"inputs":[{"indexed":true,"internalType":"address","name":"previousOwner","type":"address"},{"indexed":true,"internalType":"address","name":"newOwner","type":"address"}],"name":"OwnershipTransferred","type":"event"},{"anonymous":false,"inputs":[{"indexed":false,"internalType":"address","name":"tokenMessenger","type":"address"}],"name":"TokenMessengerUpdated","type":"event"},{"inputs":[],"name":"EURC","outputs":[{"internalType":"contract IERC20","name":"","type":"address"}],"stateMutability":"view","type":"function"},{"inputs":[],"name":"USDC","outputs":[{"internalType":"contract IERC20","name":"","type":"address"}],"stateMutability":"view","type":"function"},{"inputs":[],"name":"ammFactory","outputs":[{"internalType":"contract IArcAMMFactory","name":"","type":"address"}],"stateMutability":"view","type":"function"},{"inputs":[],"name":"feeBps","outputs":[{"internalType":"uint16","name":"","type":"uint16"}],"stateMutability":"view","type":"function"},{"inputs":[],"name":"feeCollector","outputs":[{"internalType":"address","name":"","type":"address"}],"stateMutability":"view","type":"function"},{"inputs":[],"name":"gatewayWallet","outputs":[{"internalType":"contract IGatewayWallet","name":"","type":"address"}],"stateMutability":"view","type":"function"},{"inputs":[{"internalType":"address","name":"recipient","type":"address"},{"internalType":"uint256","name":"amount","type":"uint256"}],"name":"onCCTPReceived","outputs":[],"stateMutability":"nonpayable","type":"function"},{"inputs":[],"name":"owner","outputs":[{"internalType":"address","name":"","type":"address"}],"stateMutability":"view","type":"function"},{"inputs":[{"internalType":"address","name":"token","type":"address"},{"internalType":"address","name":"recipient","type":"address"},{"internalType":"uint256","name":"amount","type":"uint256"},{"internalType":"bytes32","name":"paymentId","type":"bytes32"}],"name":"payLocal","outputs":[],"stateMutability":"nonpayable","type":"function"},{"inputs":[{"internalType":"uint256","name":"amount","type":"uint256"}],"name":"previewFee","outputs":[{"internalType":"uint256","name":"","type":"uint256"}],"stateMutability":"view","type":"function"},{"inputs":[{"internalType":"uint32","name":"destinationDomain","type":"uint32"},{"internalType":"bytes32","name":"mintRecipient","type":"bytes32"},{"internalType":"uint256","name":"amount","type":"uint256"},{"internalType":"bool","name":"useHook","type":"bool"},{"internalType":"bytes32","name":"destinationCaller","type":"bytes32"},{"internalType":"uint256","name":"maxFee","type":"uint256"},{"internalType":"uint32","name":"minFinality","type":"uint32"},{"internalType":"bytes","name":"hookData","type":"bytes"}],"name":"routeCCTP","outputs":[{"internalType":"uint64","name":"nonce","type":"uint64"}],"stateMutability":"nonpayable","type":"function"},{"inputs":[{"internalType":"address","name":"token","type":"address"},{"internalType":"uint256","name":"amount","type":"uint256"},{"internalType":"address","name":"depositor","type":"address"},{"internalType":"bool","name":"useDepositFor","type":"bool"}],"name":"routeGatewayDeposit","outputs":[],"stateMutability":"nonpayable","type":"function"},{"inputs":[{"internalType":"address","name":"_ammFactory","type":"address"}],"name":"setAMMFactory","outputs":[],"stateMutability":"nonpayable","type":"function"},{"inputs":[{"internalType":"uint16","name":"_feeBps","type":"uint16"},{"internalType":"address","name":"_feeCollector","type":"address"}],"name":"setFeeConfig","outputs":[],"stateMutability":"nonpayable","type":"function"},{"inputs":[{"internalType":"address","name":"_gatewayWallet","type":"address"}],"name":"setGatewayWallet","outputs":[],"stateMutability":"nonpayable","type":"function"},{"inputs":[{"internalType":"address","name":"_tokenMessenger","type":"address"}],"name":"setTokenMessenger","outputs":[],"stateMutability":"nonpayable","type":"function"},{"inputs":[{"internalType":"address","name":"_vaultFactory","type":"address"}],"name":"setVaultFactory","outputs":[],"stateMutability":"nonpayable","type":"function"},{"inputs":[{"internalType":"address","name":"tokenIn","type":"address"},{"internalType":"address","name":"tokenOut","type":"address"},{"internalType":"uint256","name":"amountIn","type":"uint256"},{"internalType":"uint256","name":"minAmountOut","type":"uint256"},{"internalType":"address","name":"recipient","type":"address"},{"internalType":"uint256","name":"deadline","type":"uint256"}],"name":"swapLocal","outputs":[{"internalType":"uint256","name":"amountOut","type":"uint256"}],"stateMutability":"nonpayable","type":"function"},{"inputs":[],"name":"tokenMessenger","outputs":[{"internalType":"contract ITokenMessenger","name":"","type":"address"}],"stateMutability":"view","type":"function"},{"inputs":[{"internalType":"address","name":"newOwner","type":"address"}],"name":"transferOwnership","outputs":[],"stateMutability":"nonpayable","type":"function"},{"inputs":[],"name":"vaultFactory","outputs":[{"internalType":"contract IVaultFactory","name":"","type":"address"}],"stateMutability":"view","type":"function"}],"evm":{"bytecode":{"linkReferences":{},"object":"60c034620002f157601f62001d1b38819003918201601f191683019291906001600160401b03841183851017620002f5578160c09284926040968752833981010312620002f157620000518162000309565b6020916200006183820162000309565b906200006f85820162000309565b916200007e6060830162000309565b9260808301519461ffff861693848703620002f15760a0620000a1910162000309565b5f8054336001600160a01b0319918216811783558b5196919593927f8be0079c531659141344cd1fd0a4f28419497f9722a3daafe3b4186f6b6457e08180a36001600160a01b03938416958615620002c357508316908115620002935783169485156200025a5794808a999895857f9e2f5c2330afb3c7cfcf473e62546420851afccbeaf15b45b799f048243170aa968e967fcdbce6c1426410c65374033254076f25f4fe27a9814df095590238327c6262ab9b967f7a3bb33d45e644591a57750d06ab2a57b66d5881c20c7447d4a32ac601657a119f9b60805260a05216978883600154161760015516998a8260025416176002556004549061ffff60a01b9060a01b169061ffff60a01b1916176004556005541617600555825191825285820152a18651908152a18351908152a1516119fc90816200031f8239608051818181610299015281816102dc0152818161030b015281816103650152818161040d015281816104e40152818161055f015281816105fb015281816108bf01528181611085015261178f015260a051818181610e2101528181610e4d01528181610ecb01528181610eff01528181610f9b01526117fe0152f35b8a5162461bcd60e51b8152600481018b905260126024820152714645455f434f4c4c4543544f525f5a45524f60701b6044820152606490fd5b8a5162461bcd60e51b8152600481018b90526009602482015268455552435f5a45524f60b81b6044820152606490fd5b62461bcd60e51b8152600481018b90526009602482015268555344435f5a45524f60b81b6044820152606490fd5b5f80fd5b634e487b7160e01b5f52604160045260245ffd5b51906001600160a01b0382168203620002f15756fe6080806040526004361015610012575f80fd5b5f90813560e01c908163131b4c0e14611472575080631c2236f1146113f457806324a9d853146113cf57806335e856f2146113a85780633ea7fbdb1461134e578063461178301461132557806362ce977b146112655780636b39cf77146110b457806389a302711461106f5780638da5cb5b14611048578063a92bb10f14610fca578063aabfa37d14610f85578063b78f6c2f1461084f578063c415b95c14610826578063cd1b7d6c146106f8578063d8a06f73146106cf578063dacda92f146106a6578063e0248ac1146105cc578063edc421fd146101fa578063f2fde38b146101855763f586384f14610105575f80fd5b34610182576020366003190112610182577fcdbce6c1426410c65374033254076f25f4fe27a9814df095590238327c6262ab6020610141611497565b83546001600160a01b03919061015a90831633146114d2565b1661016681151561150a565b600180546001600160a01b03191682179055604051908152a180f35b80fd5b50346101825760203660031901126101825761019f611497565b81546001600160a01b03808216926101b83385146114d2565b1680926101c682151561150a565b7f8be0079c531659141344cd1fd0a4f28419497f9722a3daafe3b4186f6b6457e08580a36001600160a01b03191617815580f35b5034610182576101003660031901126101825760043563ffffffff80821682036105c8576102266114c3565b9160c4359180831683036105c85767ffffffffffffffff60e435116105c45736602360e4350112156105c45767ffffffffffffffff60e43560040135116105c45736602460e4356004013560e4350101116105c457610288604435151561157f565b6024351561058957806102bd6044357f00000000000000000000000000000000000000000000000000000000000000006116a5565b8095919561054c575b506001546001600160a01b0396906103009088167f00000000000000000000000000000000000000000000000000000000000000006118df565b61032f8688600154167f000000000000000000000000000000000000000000000000000000000000000061197d565b156104ae57602090866001541660405193849263779b432d60e01b845288600485015281881660248501526024356044850152897f0000000000000000000000000000000000000000000000000000000000000000166064850152608435608485015260a43560a48501521660c483015261010060e48301528189816103c5610104820160e43560040135602460e43501611642565b03925af19081156104a3579067ffffffffffffffff93929160209791610476575b50915b60405194855216858401526024356040840152169182606083015260a060808301527f000000000000000000000000000000000000000000000000000000000000000016907f773e4baf733f3d3a4e9745cd20ff83b01f933c4eae9bbf01bde61275a11bc37e33918061046b60a0820160e43560040135602460e43501611642565b0390a3604051908152f35b6104969150873d811161049c575b61048e81836115e1565b810190611622565b5f6103e6565b503d610484565b6040513d88823e3d90fd5b505084602085600154166084604051809481936337e9a82760e11b8352896004840152878916602484015260243560448401528a7f00000000000000000000000000000000000000000000000000000000000000001660648401525af19081156104a3579067ffffffffffffffff9392916020979161052f575b50916103e9565b6105469150873d811161049c5761048e81836115e1565b5f610528565b60055461058391906001600160a01b03167f0000000000000000000000000000000000000000000000000000000000000000611840565b5f6102c6565b60405162461bcd60e51b81526020600482015260136024820152724d494e545f524543495049454e545f5a45524f60681b6044820152606490fd5b8480fd5b5f80fd5b5034610182576040366003190112610182576105e6611497565b6040516370a0823160e01b81523060048201527f00000000000000000000000000000000000000000000000000000000000000009160248035926001600160a01b03916020908290818589165afa80156104a35784918791610672575b5010159081610666575b50610656578380f35b61065f92611840565b5f80808380f35b9050811615155f61064d565b9150506020813d821161069e575b8161068d602093836115e1565b810103126105c8578390515f610643565b3d9150610680565b50346101825780600319360112610182576003546040516001600160a01b039091168152602090f35b50346101825780600319360112610182576004546040516001600160a01b039091168152602090f35b50346101825760403660031901126101825760043561ffff811690818103610822576107226114ad565b83546001600160a01b03919061073b90831633146114d2565b169182156107e8576103e881116107b4577f9e2f5c2330afb3c7cfcf473e62546420851afccbeaf15b45b799f048243170aa926040926004549061ffff60a01b9060a01b169061ffff60a01b191617600455806bffffffffffffffffffffffff60a01b600554161760055582519182526020820152a180f35b60405162461bcd60e51b815260206004820152600c60248201526b08c8a8abea89e9ebe90928e960a31b6044820152606490fd5b60405162461bcd60e51b81526020600482015260126024820152714645455f434f4c4c4543544f525f5a45524f60701b6044820152606490fd5b8280fd5b50346101825780600319360112610182576005546040516001600160a01b039091168152602090f35b50346101825760c036600319011261018257610869611497565b906108726114ad565b6001600160a01b036084358181169492908590036105c857610895851515611542565b6044948535916108a683151561157f565b60a4354211610f5757831693831692838514610f2657807f000000000000000000000000000000000000000000000000000000000000000016958685149182159283610efb575b8015610ef2575b8015610ec7575b15610e8a5761090a85876116a5565b80949194610e75575b50829882600454169182610d3f575b505050878116928315610bef57604051634b60ce7760e01b8082526020939184816004818a5afa9081156104a3579083918791610bd2575b501689149182610b82575b8215610ac5575b505015610a8a5789608483926109828c8b6118df565b61098d818d8c61197d565b8560405197889485936379f3754560e11b85528d60048601526024850152606435908401528960648401525af1918215610a7e5791610a4e575b506109d4915095846118df565b6064358510610a1f5760209550604051918252848683015260408201527f1898a1026b4cd267e5feda53dee6ee128febabf37bbeb28fe3c47eeea83c32c460603392a4604051908152f35b60405162461bcd60e51b8152602060048201526008602482015267534c49505041474560c01b81880152606490fd5b905081813d8311610a77575b610a6481836115e1565b810103126105c8576109d490515f6109c7565b503d610a5a565b604051903d90823e3d90fd5b60405162461bcd60e51b81526004810183905260146024820152730ac82aa98a8bea89e968a9cbe9a92a69a82a886960631b818c0152606490fd5b604051631f209df760e11b81529192509084816004818a5afa9081156104a3579082918791610b65575b501689149182610b03575b50505f8061096c565b9091506040519081528381600481895afa908115610b5a578591610b2d575b501688145f80610afa565b610b4d9150843d8611610b53575b610b4581836115e1565b810190611603565b5f610b22565b503d610b3b565b6040513d87823e3d90fd5b610b7c9150863d8811610b5357610b4581836115e1565b5f610aef565b604051631f209df760e11b815290925084816004818a5afa9081156104a3579083918791610bb5575b50168a1491610965565b610bcc9150863d8811610b5357610b4581836115e1565b5f610bab565b610be99150863d8811610b5357610b4581836115e1565b5f61095a565b9193975080925060035416908115610d085760405192839263298d501f60e11b8452876004850152886024850152838b60209586935afa938415610b5a578594610ce9575b508316928315610cbb5790610c4b81849389611840565b60848a866040519687948593631ba0488760e21b85528c60048601528d60248601528401528c60648401525af1928315610a7e5792610c8d575b5050936109d4565b90809250813d8311610cb4575b610ca481836115e1565b810103126105c857515f80610c85565b503d610c9a565b60405162461bcd60e51b81526004810184905260076024820152661393d7d413d3d360ca1b818c0152606490fd5b610d01919450833d8511610b5357610b4581836115e1565b925f610c34565b60405162461bcd60e51b815260206004820152601060248201526f1393d7d59055531517d3d497d413d3d360821b818b0152606490fd5b9299919280610e49575b15610db05750506020602491604051928380926301d735e760e31b82528a60048301525afa908115610da5578291610d87575b50965b5f8080610922565b610d9f915060203d8111610b5357610b4581836115e1565b5f610d7c565b6040513d84823e3d90fd5b8899929199141580610e1d575b610dc8575b50610d7f565b6024919850602090604051928380926301d735e760e31b82528b60048301525afa908115610da5578291610dff575b50965f610dc2565b610e17915060203d8111610b5357610b4581836115e1565b5f610df7565b50817f000000000000000000000000000000000000000000000000000000000000000016881415610dbd565b50897f000000000000000000000000000000000000000000000000000000000000000016881415610d49565b610e8490836005541689611840565b5f610913565b60405162461bcd60e51b81526020600482015260166024820152754f4e455f4c45475f4d5553545f42455f535441424c4560501b818b0152606490fd5b50807f00000000000000000000000000000000000000000000000000000000000000001687146108fb565b508787146108f4565b50807f00000000000000000000000000000000000000000000000000000000000000001686146108ed565b60405162461bcd60e51b815260206004820152600a60248201526929a0a6a2afaa27a5a2a760b11b81890152606490fd5b60405162461bcd60e51b81526020600482015260076024820152661156141254915160ca1b81890152606490fd5b50346101825780600319360112610182576040517f00000000000000000000000000000000000000000000000000000000000000006001600160a01b03168152602090f35b5034610182576020366003190112610182577f7a3bb33d45e644591a57750d06ab2a57b66d5881c20c7447d4a32ac601657a116020611007611497565b83546001600160a01b03919061102090831633146114d2565b1661102c81151561150a565b600280546001600160a01b03191682179055604051908152a180f35b5034610182578060031936011261018257546040516001600160a01b039091168152602090f35b50346101825780600319360112610182576040517f00000000000000000000000000000000000000000000000000000000000000006001600160a01b03168152602090f35b5034610182576080366003190112610182576110ce611497565b60243590604435906001600160a01b0390818316908590828503611244576110f46114c3565b949261110187151561157f565b61110a82611782565b1561125d575b61111d84821696876116a5565b80969196611248575b506111358560025416886118df565b6111448686600254168961197d565b156111e1578360025416803b156108225760405163b3db428b60e01b81526001600160a01b03928316600482015291841660248301526044820186905282908290606490829084905af18015610da5576111cd575b50505b60405192835216907f921654b8c2158ebc05629d4c303a63347a5dd7e3bc284889db0cfe5fd962ba6a60203392a480f35b6111d6906115b9565b6105c457845f611199565b90836002541691823b15611244576040516311f9fbc960e21b81526001600160a01b0391909116600482015260248101869052918290604490829084905af180156104a357611231575b5061119c565b61123d909591956115b9565b935f61122b565b5080fd5b61125790866005541689611840565b5f611126565b339250611110565b50346101825760803660031901126101825761127f611497565b6112876114ad565b90604435916112d960018060a01b03916112c683808316956112aa871515611542565b6112b588151561157f565b6112be81611782565b1695866116a5565b909384929180611310575b505085611840565b60405190815260643560208201527fb9fcc4404867bc932fd7611431a17aaa3f95766eb5bd01d46c296ad8ce46840260403392a480f35b61131e916005541688611840565b5f806112d1565b50346101825780600319360112610182576001546040516001600160a01b039091168152602090f35b503461018257602036600319011261018257611368611497565b81546001600160a01b03919061138190831633146114d2565b1661138d81151561150a565b6bffffffffffffffffffffffff60a01b600454161760045580f35b50346101825760203660031901126101825760206113c7600435611662565b604051908152f35b5034610182578060031936011261018257602061ffff60045460a01c16604051908152f35b5034610182576020366003190112610182577fee6e8af5ea26ad906c28e6e8c421c990111039169988f75cab1fc2983f0ffda36020611431611497565b83546001600160a01b03919061144a90831633146114d2565b1661145681151561150a565b600380546001600160a01b03191682179055604051908152a180f35b9050346112445781600319360112611244576002546001600160a01b03168152602090f35b600435906001600160a01b03821682036105c857565b602435906001600160a01b03821682036105c857565b6064359081151582036105c857565b156114d957565b60405162461bcd60e51b81526020600482015260096024820152682727aa2fa7aba722a960b91b6044820152606490fd5b1561151157565b60405162461bcd60e51b81526020600482015260096024820152682d22a927afa0a2222960b91b6044820152606490fd5b1561154957565b60405162461bcd60e51b815260206004820152600e60248201526d524543495049454e545f5a45524f60901b6044820152606490fd5b1561158657565b60405162461bcd60e51b815260206004820152600b60248201526a414d4f554e545f5a45524f60a81b6044820152606490fd5b67ffffffffffffffff81116115cd57604052565b634e487b7160e01b5f52604160045260245ffd5b90601f8019910116810190811067ffffffffffffffff8211176115cd57604052565b908160209103126105c857516001600160a01b03811681036105c85790565b908160209103126105c8575167ffffffffffffffff811681036105c85790565b908060209392818452848401375f828201840152601f01601f1916010190565b61ffff60045460a01c1690811561169f5781810291818304149015171561168b57612710900490565b634e487b7160e01b5f52601160045260245ffd5b50505f90565b90916116b083611662565b918284039084821161168b576040516323b872dd60e01b81523360048201523060248201526044810195909552909390602090829060649082905f906001600160a01b03165af1908115611777575f91611749575b501561170d57565b60405162461bcd60e51b81526020600482015260146024820152731514905394d1915497d19493d357d1905253115160621b6044820152606490fd5b61176a915060203d8111611770575b61176281836115e1565b810190611828565b5f611705565b503d611758565b6040513d5f823e3d90fd5b6001600160a01b039081167f0000000000000000000000000000000000000000000000000000000000000000821681149182156117fc575b5050156117c357565b60405162461bcd60e51b81526020600482015260116024820152702aa729aaa82827a92a22a22faa27a5a2a760791b6044820152606490fd5b7f0000000000000000000000000000000000000000000000000000000000000000161490505f806117ba565b908160209103126105c8575180151581036105c85790565b60405163a9059cbb60e01b81526001600160a01b0392831660048201526024810193909352602091839160449183915f91165af1908115611777575f916118c1575b501561188a57565b60405162461bcd60e51b815260206004820152600f60248201526e1514905394d1915497d19052531151608a1b6044820152606490fd5b6118d9915060203d81116117705761176281836115e1565b5f611882565b60405163095ea7b360e01b81526001600160a01b0392831660048201525f60248201819052909260209284926044928492165af1908115611777575f9161195f575b501561192957565b60405162461bcd60e51b815260206004820152600e60248201526d1054141493d59157d1905253115160921b6044820152606490fd5b611977915060203d81116117705761176281836115e1565b5f611921565b60405163095ea7b360e01b81526001600160a01b0392831660048201526024810193909352602091839160449183915f91165af1908115611777575f9161195f5750156119295756fea2646970667358221220b102aa014df07acb291fcac3d77d1810db341618c0e7ae7f61b703421d30356664736f6c63430008140033","opcodes":"PUSH1 0xC0 CALLVALUE PUSH3 0x2F1 JUMPI PUSH1 0x1F PUSH3 0x1D1B CODESIZE DUP2 SWAP1 SUB SWAP2 DUP3 ADD PUSH1 0x1F NOT AND DUP4 ADD SWAP3 SWAP2 SWAP1 PUSH1 0x1 PUSH1 0x1 PUSH1 0x40 SHL SUB DUP5 GT DUP4 DUP6 LT OR PUSH3 0x2F5 JUMPI DUP2 PUSH1 0xC0 SWAP3 DUP5 SWAP3 PUSH1 0x40 SWAP7 DUP8 MSTORE DUP4 CODECOPY DUP2 ADD SUB SLT PUSH3 0x2F1 JUMPI PUSH3 0x51 DUP2 PUSH3 0x309 JUMP JUMPDEST PUSH1 0x20 SWAP2 PUSH3 0x61 DUP4 DUP3 ADD PUSH3 0x309 JUMP JUMPDEST SWAP1 PUSH3 0x6F DUP6 DUP3 ADD PUSH3 0x309 JUMP JUMPDEST SWAP2 PUSH3 0x7E PUSH1 0x60 DUP4 ADD PUSH3 0x309 JUMP JUMPDEST SWAP3 PUSH1 0x80 DUP4 ADD MLOAD SWAP5 PUSH2 0xFFFF DUP7 AND SWAP4 DUP5 DUP8 SUB PUSH3 0x2F1 JUMPI PUSH1 0xA0 PUSH3 0xA1 SWAP2 ADD PUSH3 0x309 JUMP JUMPDEST PUSH0 DUP1 SLOAD CALLER PUSH1 0x1 PUSH1 0x1 PUSH1 0xA0 SHL SUB NOT SWAP2 DUP3 AND DUP2 OR DUP4 SSTORE DUP12 MLOAD SWAP7 SWAP2 SWAP6 SWAP4 SWAP3 PUSH32 0x8BE0079C531659141344CD1FD0A4F28419497F9722A3DAAFE3B4186F6B6457E0 DUP2 DUP1 LOG3 PUSH1 0x1 PUSH1 0x1 PUSH1 0xA0 SHL SUB SWAP4 DUP5 AND SWAP6 DUP7 ISZERO PUSH3 0x2C3 JUMPI POP DUP4 AND SWAP1 DUP2 ISZERO PUSH3 0x293 JUMPI DUP4 AND SWAP5 DUP6 ISZERO PUSH3 0x25A JUMPI SWAP5 DUP1 DUP11 SWAP10 SWAP9 SWAP6 DUP6 PUSH32 0x9E2F5C2330AFB3C7CFCF473E62546420851AFCCBEAF15B45B799F048243170AA SWAP7 DUP15 SWAP7 PUSH32 0xCDBCE6C1426410C65374033254076F25F4FE27A9814DF095590238327C6262AB SWAP12 SWAP7 PUSH32 0x7A3BB33D45E644591A57750D06AB2A57B66D5881C20C7447D4A32AC601657A11 SWAP16 SWAP12 PUSH1 0x80 MSTORE PUSH1 0xA0 MSTORE AND SWAP8 DUP9 DUP4 PUSH1 0x1 SLOAD AND OR PUSH1 0x1 SSTORE AND SWAP10 DUP11 DUP3 PUSH1 0x2 SLOAD AND OR PUSH1 0x2 SSTORE PUSH1 0x4 SLOAD SWAP1 PUSH2 0xFFFF PUSH1 0xA0 SHL SWAP1 PUSH1 0xA0 SHL AND SWAP1 PUSH2 0xFFFF PUSH1 0xA0 SHL NOT AND OR PUSH1 0x4 SSTORE PUSH1 0x5 SLOAD AND OR PUSH1 0x5 SSTORE DUP3 MLOAD SWAP2 DUP3 MSTORE DUP6 DUP3 ADD MSTORE LOG1 DUP7 MLOAD SWAP1 DUP2 MSTORE LOG1 DUP4 MLOAD SWAP1 DUP2 MSTORE LOG1 MLOAD PUSH2 0x19FC SWAP1 DUP2 PUSH3 0x31F DUP3 CODECOPY PUSH1 0x80 MLOAD DUP2 DUP2 DUP2 PUSH2 0x299 ADD MSTORE DUP2 DUP2 PUSH2 0x2DC ADD MSTORE DUP2 DUP2 PUSH2 0x30B ADD MSTORE DUP2 DUP2 PUSH2 0x365 ADD MSTORE DUP2 DUP2 PUSH2 0x40D ADD MSTORE DUP2 DUP2 PUSH2 0x4E4 ADD MSTORE DUP2 DUP2 PUSH2 0x55F ADD MSTORE DUP2 DUP2 PUSH2 0x5FB ADD MSTORE DUP2 DUP2 PUSH2 0x8BF ADD MSTORE DUP2 DUP2 PUSH2 0x1085 ADD MSTORE PUSH2 0x178F ADD MSTORE PUSH1 0xA0 MLOAD DUP2 DUP2 DUP2 PUSH2 0xE21 ADD MSTORE DUP2 DUP2 PUSH2 0xE4D ADD MSTORE DUP2 DUP2 PUSH2 0xECB ADD MSTORE DUP2 DUP2 PUSH2 0xEFF ADD MSTORE DUP2 DUP2 PUSH2 0xF9B ADD MSTORE PUSH2 0x17FE ADD MSTORE RETURN JUMPDEST DUP11 MLOAD PUSH3 0x461BCD PUSH1 0xE5 SHL DUP2 MSTORE PUSH1 0x4 DUP2 ADD DUP12 SWAP1 MSTORE PUSH1 0x12 PUSH1 0x24 DUP3 ADD MSTORE PUSH18 0x4645455F434F4C4C4543544F525F5A45524F PUSH1 0x70 SHL PUSH1 0x44 DUP3 ADD MSTORE PUSH1 0x64 SWAP1 REVERT JUMPDEST DUP11 MLOAD PUSH3 0x461BCD PUSH1 0xE5 SHL DUP2 MSTORE PUSH1 0x4 DUP2 ADD DUP12 SWAP1 MSTORE PUSH1 0x9 PUSH1 0x24 DUP3 ADD MSTORE PUSH9 0x455552435F5A45524F PUSH1 0xB8 SHL PUSH1 0x44 DUP3 ADD MSTORE PUSH1 0x64 SWAP1 REVERT JUMPDEST PUSH3 0x461BCD PUSH1 0xE5 SHL DUP2 MSTORE PUSH1 0x4 DUP2 ADD DUP12 SWAP1 MSTORE PUSH1 0x9 PUSH1 0x24 DUP3 ADD MSTORE PUSH9 0x555344435F5A45524F PUSH1 0xB8 SHL PUSH1 0x44 DUP3 ADD MSTORE PUSH1 0x64 SWAP1 REVERT JUMPDEST PUSH0 DUP1 REVERT JUMPDEST PUSH4 0x4E487B71 PUSH1 0xE0 SHL PUSH0 MSTORE PUSH1 0x41 PUSH1 0x4 MSTORE PUSH1 0x24 PUSH0 REVERT JUMPDEST MLOAD SWAP1 PUSH1 0x1 PUSH1 0x1 PUSH1 0xA0 SHL SUB DUP3 AND DUP3 SUB PUSH3 0x2F1 JUMPI JUMP INVALID PUSH1 0x80 DUP1 PUSH1 0x40 MSTORE PUSH1 0x4 CALLDATASIZE LT ISZERO PUSH2 0x12 JUMPI PUSH0 DUP1 REVERT JUMPDEST PUSH0 SWAP1 DUP2 CALLDATALOAD PUSH1 0xE0 SHR SWAP1 DUP2 PUSH4 0x131B4C0E EQ PUSH2 0x1472 JUMPI POP DUP1 PUSH4 0x1C2236F1 EQ PUSH2 0x13F4 JUMPI DUP1 PUSH4 0x24A9D853 EQ PUSH2 0x13CF JUMPI DUP1 PUSH4 0x35E856F2 EQ PUSH2 0x13A8 JUMPI DUP1 PUSH4 0x3EA7FBDB EQ PUSH2 0x134E JUMPI DUP1 PUSH4 0x46117830 EQ PUSH2 0x1325 JUMPI DUP1 PUSH4 0x62CE977B EQ PUSH2 0x1265 JUMPI DUP1 PUSH4 0x6B39CF77 EQ PUSH2 0x10B4 JUMPI DUP1 PUSH4 0x89A30271 EQ PUSH2 0x106F JUMPI DUP1 PUSH4 0x8DA5CB5B EQ PUSH2 0x1048 JUMPI DUP1 PUSH4 0xA92BB10F EQ PUSH2 0xFCA JUMPI DUP1 PUSH4 0xAABFA37D EQ PUSH2 0xF85 JUMPI DUP1 PUSH4 0xB78F6C2F EQ PUSH2 0x84F JUMPI DUP1 PUSH4 0xC415B95C EQ PUSH2 0x826 JUMPI DUP1 PUSH4 0xCD1B7D6C EQ PUSH2 0x6F8 JUMPI DUP1 PUSH4 0xD8A06F73 EQ PUSH2 0x6CF JUMPI DUP1 PUSH4 0xDACDA92F EQ PUSH2 0x6A6 JUMPI DUP1 PUSH4 0xE0248AC1 EQ PUSH2 0x5CC JUMPI DUP1 PUSH4 0xEDC421FD EQ PUSH2 0x1FA JUMPI DUP1 PUSH4 0xF2FDE38B EQ PUSH2 0x185 JUMPI PUSH4 0xF586384F EQ PUSH2 0x105 JUMPI PUSH0 DUP1 REVERT JUMPDEST CALLVALUE PUSH2 0x182 JUMPI PUSH1 0x20 CALLDATASIZE PUSH1 0x3 NOT ADD SLT PUSH2 0x182 JUMPI PUSH32 0xCDBCE6C1426410C65374033254076F25F4FE27A9814DF095590238327C6262AB PUSH1 0x20 PUSH2 0x141 PUSH2 0x1497 JUMP JUMPDEST DUP4 SLOAD PUSH1 0x1 PUSH1 0x1 PUSH1 0xA0 SHL SUB SWAP2 SWAP1 PUSH2 0x15A SWAP1 DUP4 AND CALLER EQ PUSH2 0x14D2 JUMP JUMPDEST AND PUSH2 0x166 DUP2 ISZERO ISZERO PUSH2 0x150A JUMP JUMPDEST PUSH1 0x1 DUP1 SLOAD PUSH1 0x1 PUSH1 0x1 PUSH1 0xA0 SHL SUB NOT AND DUP3 OR SWAP1 SSTORE PUSH1 0x40 MLOAD SWAP1 DUP2 MSTORE LOG1 DUP1 RETURN JUMPDEST DUP1 REVERT JUMPDEST POP CALLVALUE PUSH2 0x182 JUMPI PUSH1 0x20 CALLDATASIZE PUSH1 0x3 NOT ADD SLT PUSH2 0x182 JUMPI PUSH2 0x19F PUSH2 0x1497 JUMP JUMPDEST DUP2 SLOAD PUSH1 0x1 PUSH1 0x1 PUSH1 0xA0 SHL SUB DUP1 DUP3 AND SWAP3 PUSH2 0x1B8 CALLER DUP6 EQ PUSH2 0x14D2 JUMP JUMPDEST AND DUP1 SWAP3 PUSH2 0x1C6 DUP3 ISZERO ISZERO PUSH2 0x150A JUMP JUMPDEST PUSH32 0x8BE0079C531659141344CD1FD0A4F28419497F9722A3DAAFE3B4186F6B6457E0 DUP6 DUP1 LOG3 PUSH1 0x1 PUSH1 0x1 PUSH1 0xA0 SHL SUB NOT AND OR DUP2 SSTORE DUP1 RETURN JUMPDEST POP CALLVALUE PUSH2 0x182 JUMPI PUSH2 0x100 CALLDATASIZE PUSH1 0x3 NOT ADD SLT PUSH2 0x182 JUMPI PUSH1 0x4 CALLDATALOAD PUSH4 0xFFFFFFFF DUP1 DUP3 AND DUP3 SUB PUSH2 0x5C8 JUMPI PUSH2 0x226 PUSH2 0x14C3 JUMP JUMPDEST SWAP2 PUSH1 0xC4 CALLDATALOAD SWAP2 DUP1 DUP4 AND DUP4 SUB PUSH2 0x5C8 JUMPI PUSH8 0xFFFFFFFFFFFFFFFF PUSH1 0xE4 CALLDATALOAD GT PUSH2 0x5C4 JUMPI CALLDATASIZE PUSH1 0x23 PUSH1 0xE4 CALLDATALOAD ADD SLT ISZERO PUSH2 0x5C4 JUMPI PUSH8 0xFFFFFFFFFFFFFFFF PUSH1 0xE4 CALLDATALOAD PUSH1 0x4 ADD CALLDATALOAD GT PUSH2 0x5C4 JUMPI CALLDATASIZE PUSH1 0x24 PUSH1 0xE4 CALLDATALOAD PUSH1 0x4 ADD CALLDATALOAD PUSH1 0xE4 CALLDATALOAD ADD ADD GT PUSH2 0x5C4 JUMPI PUSH2 0x288 PUSH1 0x44 CALLDATALOAD ISZERO ISZERO PUSH2 0x157F JUMP JUMPDEST PUSH1 0x24 CALLDATALOAD ISZERO PUSH2 0x589 JUMPI DUP1 PUSH2 0x2BD PUSH1 0x44 CALLDATALOAD PUSH32 0x0 PUSH2 0x16A5 JUMP JUMPDEST DUP1 SWAP6 SWAP2 SWAP6 PUSH2 0x54C JUMPI JUMPDEST POP PUSH1 0x1 SLOAD PUSH1 0x1 PUSH1 0x1 PUSH1 0xA0 SHL SUB SWAP7 SWAP1 PUSH2 0x300 SWAP1 DUP9 AND PUSH32 0x0 PUSH2 0x18DF JUMP JUMPDEST PUSH2 0x32F DUP7 DUP9 PUSH1 0x1 SLOAD AND PUSH32 0x0 PUSH2 0x197D JUMP JUMPDEST ISZERO PUSH2 0x4AE JUMPI PUSH1 0x20 SWAP1 DUP7 PUSH1 0x1 SLOAD AND PUSH1 0x40 MLOAD SWAP4 DUP5 SWAP3 PUSH4 0x779B432D PUSH1 0xE0 SHL DUP5 MSTORE DUP9 PUSH1 0x4 DUP6 ADD MSTORE DUP2 DUP9 AND PUSH1 0x24 DUP6 ADD MSTORE PUSH1 0x24 CALLDATALOAD PUSH1 0x44 DUP6 ADD MSTORE DUP10 PUSH32 0x0 AND PUSH1 0x64 DUP6 ADD MSTORE PUSH1 0x84 CALLDATALOAD PUSH1 0x84 DUP6 ADD MSTORE PUSH1 0xA4 CALLDATALOAD PUSH1 0xA4 DUP6 ADD MSTORE AND PUSH1 0xC4 DUP4 ADD MSTORE PUSH2 0x100 PUSH1 0xE4 DUP4 ADD MSTORE DUP2 DUP10 DUP2 PUSH2 0x3C5 PUSH2 0x104 DUP3 ADD PUSH1 0xE4 CALLDATALOAD PUSH1 0x4 ADD CALLDATALOAD PUSH1 0x24 PUSH1 0xE4 CALLDATALOAD ADD PUSH2 0x1642 JUMP JUMPDEST SUB SWAP3 GAS CALL SWAP1 DUP2 ISZERO PUSH2 0x4A3 JUMPI SWAP1 PUSH8 0xFFFFFFFFFFFFFFFF SWAP4 SWAP3 SWAP2 PUSH1 0x20 SWAP8 SWAP2 PUSH2 0x476 JUMPI JUMPDEST POP SWAP2 JUMPDEST PUSH1 0x40 MLOAD SWAP5 DUP6 MSTORE AND DUP6 DUP5 ADD MSTORE PUSH1 0x24 CALLDATALOAD PUSH1 0x40 DUP5 ADD MSTORE AND SWAP2 DUP3 PUSH1 0x60 DUP4 ADD MSTORE PUSH1 0xA0 PUSH1 0x80 DUP4 ADD MSTORE PUSH32 0x0 AND SWAP1 PUSH32 0x773E4BAF733F3D3A4E9745CD20FF83B01F933C4EAE9BBF01BDE61275A11BC37E CALLER SWAP2 DUP1 PUSH2 0x46B PUSH1 0xA0 DUP3 ADD PUSH1 0xE4 CALLDATALOAD PUSH1 0x4 ADD CALLDATALOAD PUSH1 0x24 PUSH1 0xE4 CALLDATALOAD ADD PUSH2 0x1642 JUMP JUMPDEST SUB SWAP1 LOG3 PUSH1 0x40 MLOAD SWAP1 DUP2 MSTORE RETURN JUMPDEST PUSH2 0x496 SWAP2 POP DUP8 RETURNDATASIZE DUP2 GT PUSH2 0x49C JUMPI JUMPDEST PUSH2 0x48E DUP2 DUP4 PUSH2 0x15E1 JUMP JUMPDEST DUP2 ADD SWAP1 PUSH2 0x1622 JUMP JUMPDEST PUSH0 PUSH2 0x3E6 JUMP JUMPDEST POP RETURNDATASIZE PUSH2 0x484 JUMP JUMPDEST PUSH1 0x40 MLOAD RETURNDATASIZE DUP9 DUP3 RETURNDATACOPY RETURNDATASIZE SWAP1 REVERT JUMPDEST POP POP DUP5 PUSH1 0x20 DUP6 PUSH1 0x1 SLOAD AND PUSH1 0x84 PUSH1 0x40 MLOAD DUP1 SWAP5 DUP2 SWAP4 PUSH4 0x37E9A827 PUSH1 0xE1 SHL DUP4 MSTORE DUP10 PUSH1 0x4 DUP5 ADD MSTORE DUP8 DUP10 AND PUSH1 0x24 DUP5 ADD MSTORE PUSH1 0x24 CALLDATALOAD PUSH1 0x44 DUP5 ADD MSTORE DUP11 PUSH32 0x0 AND PUSH1 0x64 DUP5 ADD MSTORE GAS CALL SWAP1 DUP2 ISZERO PUSH2 0x4A3 JUMPI SWAP1 PUSH8 0xFFFFFFFFFFFFFFFF SWAP4 SWAP3 SWAP2 PUSH1 0x20 SWAP8 SWAP2 PUSH2 0x52F JUMPI JUMPDEST POP SWAP2 PUSH2 0x3E9 JUMP JUMPDEST PUSH2 0x546 SWAP2 POP DUP8 RETURNDATASIZE DUP2 GT PUSH2 0x49C JUMPI PUSH2 0x48E DUP2 DUP4 PUSH2 0x15E1 JUMP JUMPDEST PUSH0 PUSH2 0x528 JUMP JUMPDEST PUSH1 0x5 SLOAD PUSH2 0x583 SWAP2 SWAP1 PUSH1 0x1 PUSH1 0x1 PUSH1 0xA0 SHL SUB AND PUSH32 0x0 PUSH2 0x1840 JUMP JUMPDEST PUSH0 PUSH2 0x2C6 JUMP JUMPDEST PUSH1 0x40 MLOAD PUSH3 0x461BCD PUSH1 0xE5 SHL DUP2 MSTORE PUSH1 0x20 PUSH1 0x4 DUP3 ADD MSTORE PUSH1 0x13 PUSH1 0x24 DUP3 ADD MSTORE PUSH19 0x4D494E545F524543495049454E545F5A45524F PUSH1 0x68 SHL PUSH1 0x44 DUP3 ADD MSTORE PUSH1 0x64 SWAP1 REVERT JUMPDEST DUP5 DUP1 REVERT JUMPDEST PUSH0 DUP1 REVERT JUMPDEST POP CALLVALUE PUSH2 0x182 JUMPI PUSH1 0x40 CALLDATASIZE PUSH1 0x3 NOT ADD SLT PUSH2 0x182 JUMPI PUSH2 0x5E6 PUSH2 0x1497 JUMP JUMPDEST PUSH1 0x40 MLOAD PUSH4 0x70A08231 PUSH1 0xE0 SHL DUP2 MSTORE ADDRESS PUSH1 0x4 DUP3 ADD MSTORE PUSH32 0x0 SWAP2 PUSH1 0x24 DUP1 CALLDATALOAD SWAP3 PUSH1 0x1 PUSH1 0x1 PUSH1 0xA0 SHL SUB SWAP2 PUSH1 0x20 SWAP1 DUP3 SWAP1 DUP2 DUP6 DUP10 AND GAS STATICCALL DUP1 ISZERO PUSH2 0x4A3 JUMPI DUP5 SWAP2 DUP8 SWAP2 PUSH2 0x672 JUMPI JUMPDEST POP LT ISZERO SWAP1 DUP2 PUSH2 0x666 JUMPI JUMPDEST POP PUSH2 0x656 JUMPI DUP4 DUP1 RETURN JUMPDEST PUSH2 0x65F SWAP3 PUSH2 0x1840 JUMP JUMPDEST PUSH0 DUP1 DUP1 DUP4 DUP1 RETURN JUMPDEST SWAP1 POP DUP2 AND ISZERO ISZERO PUSH0 PUSH2 0x64D JUMP JUMPDEST SWAP2 POP POP PUSH1 0x20 DUP2 RETURNDATASIZE DUP3 GT PUSH2 0x69E JUMPI JUMPDEST DUP2 PUSH2 0x68D PUSH1 0x20 SWAP4 DUP4 PUSH2 0x15E1 JUMP JUMPDEST DUP2 ADD SUB SLT PUSH2 0x5C8 JUMPI DUP4 SWAP1 MLOAD PUSH0 PUSH2 0x643 JUMP JUMPDEST RETURNDATASIZE SWAP2 POP PUSH2 0x680 JUMP JUMPDEST POP CALLVALUE PUSH2 0x182 JUMPI DUP1 PUSH1 0x3 NOT CALLDATASIZE ADD SLT PUSH2 0x182 JUMPI PUSH1 0x3 SLOAD PUSH1 0x40 MLOAD PUSH1 0x1 PUSH1 0x1 PUSH1 0xA0 SHL SUB SWAP1 SWAP2 AND DUP2 MSTORE PUSH1 0x20 SWAP1 RETURN JUMPDEST POP CALLVALUE PUSH2 0x182 JUMPI DUP1 PUSH1 0x3 NOT CALLDATASIZE ADD SLT PUSH2 0x182 JUMPI PUSH1 0x4 SLOAD PUSH1 0x40 MLOAD PUSH1 0x1 PUSH1 0x1 PUSH1 0xA0 SHL SUB SWAP1 SWAP2 AND DUP2 MSTORE PUSH1 0x20 SWAP1 RETURN JUMPDEST POP CALLVALUE PUSH2 0x182 JUMPI PUSH1 0x40 CALLDATASIZE PUSH1 0x3 NOT ADD SLT PUSH2 0x182 JUMPI PUSH1 0x4 CALLDATALOAD PUSH2 0xFFFF DUP2 AND SWAP1 DUP2 DUP2 SUB PUSH2 0x822 JUMPI PUSH2 0x722 PUSH2 0x14AD JUMP JUMPDEST DUP4 SLOAD PUSH1 0x1 PUSH1 0x1 PUSH1 0xA0 SHL SUB SWAP2 SWAP1 PUSH2 0x73B SWAP1 DUP4 AND CALLER EQ PUSH2 0x14D2 JUMP JUMPDEST AND SWAP2 DUP3 ISZERO PUSH2 0x7E8 JUMPI PUSH2 0x3E8 DUP2 GT PUSH2 0x7B4 JUMPI PUSH32 0x9E2F5C2330AFB3C7CFCF473E62546420851AFCCBEAF15B45B799F048243170AA SWAP3 PUSH1 0x40 SWAP3 PUSH1 0x4 SLOAD SWAP1 PUSH2 0xFFFF PUSH1 0xA0 SHL SWAP1 PUSH1 0xA0 SHL AND SWAP1 PUSH2 0xFFFF PUSH1 0xA0 SHL NOT AND OR PUSH1 0x4 SSTORE DUP1 PUSH12 0xFFFFFFFFFFFFFFFFFFFFFFFF PUSH1 0xA0 SHL PUSH1 0x5 SLOAD AND OR PUSH1 0x5 SSTORE DUP3 MLOAD SWAP2 DUP3 MSTORE PUSH1 0x20 DUP3 ADD MSTORE LOG1 DUP1 RETURN JUMPDEST PUSH1 0x40 MLOAD PUSH3 0x461BCD PUSH1 0xE5 SHL DUP2 MSTORE PUSH1 0x20 PUSH1 0x4 DUP3 ADD MSTORE PUSH1 0xC PUSH1 0x24 DUP3 ADD MSTORE PUSH12 0x8C8A8ABEA89E9EBE90928E9 PUSH1 0xA3 SHL PUSH1 0x44 DUP3 ADD MSTORE PUSH1 0x64 SWAP1 REVERT JUMPDEST PUSH1 0x40 MLOAD PUSH3 0x461BCD PUSH1 0xE5 SHL DUP2 MSTORE PUSH1 0x20 PUSH1 0x4 DUP3 ADD MSTORE PUSH1 0x12 PUSH1 0x24 DUP3 ADD MSTORE PUSH18 0x4645455F434F4C4C4543544F525F5A45524F PUSH1 0x70 SHL PUSH1 0x44 DUP3 ADD MSTORE PUSH1 0x64 SWAP1 REVERT JUMPDEST DUP3 DUP1 REVERT JUMPDEST POP CALLVALUE PUSH2 0x182 JUMPI DUP1 PUSH1 0x3 NOT CALLDATASIZE ADD SLT PUSH2 0x182 JUMPI PUSH1 0x5 SLOAD PUSH1 0x40 MLOAD PUSH1 0x1 PUSH1 0x1 PUSH1 0xA0 SHL SUB SWAP1 SWAP2 AND DUP2 MSTORE PUSH1 0x20 SWAP1 RETURN JUMPDEST POP CALLVALUE PUSH2 0x182 JUMPI PUSH1 0xC0 CALLDATASIZE PUSH1 0x3 NOT ADD SLT PUSH2 0x182 JUMPI PUSH2 0x869 PUSH2 0x1497 JUMP JUMPDEST SWAP1 PUSH2 0x872 PUSH2 0x14AD JUMP JUMPDEST PUSH1 0x1 PUSH1 0x1 PUSH1 0xA0 SHL SUB PUSH1 0x84 CALLDATALOAD DUP2 DUP2 AND SWAP5 SWAP3 SWAP1 DUP6 SWAP1 SUB PUSH2 0x5C8 JUMPI PUSH2 0x895 DUP6 ISZERO ISZERO PUSH2 0x1542 JUMP JUMPDEST PUSH1 0x44 SWAP5 DUP6 CALLDATALOAD SWAP2 PUSH2 0x8A6 DUP4 ISZERO ISZERO PUSH2 0x157F JUMP JUMPDEST PUSH1 0xA4 CALLDATALOAD TIMESTAMP GT PUSH2 0xF57 JUMPI DUP4 AND SWAP4 DUP4 AND SWAP3 DUP4 DUP6 EQ PUSH2 0xF26 JUMPI DUP1 PUSH32 0x0 AND SWAP6 DUP7 DUP6 EQ SWAP2 DUP3 ISZERO SWAP3 DUP4 PUSH2 0xEFB JUMPI JUMPDEST DUP1 ISZERO PUSH2 0xEF2 JUMPI JUMPDEST DUP1 ISZERO PUSH2 0xEC7 JUMPI JUMPDEST ISZERO PUSH2 0xE8A JUMPI PUSH2 0x90A DUP6 DUP8 PUSH2 0x16A5 JUMP JUMPDEST DUP1 SWAP5 SWAP2 SWAP5 PUSH2 0xE75 JUMPI JUMPDEST POP DUP3 SWAP9 DUP3 PUSH1 0x4 SLOAD AND SWAP2 DUP3 PUSH2 0xD3F JUMPI JUMPDEST POP POP POP DUP8 DUP2 AND SWAP3 DUP4 ISZERO PUSH2 0xBEF JUMPI PUSH1 0x40 MLOAD PUSH4 0x4B60CE77 PUSH1 0xE0 SHL DUP1 DUP3 MSTORE PUSH1 0x20 SWAP4 SWAP2 DUP5 DUP2 PUSH1 0x4 DUP2 DUP11 GAS STATICCALL SWAP1 DUP2 ISZERO PUSH2 0x4A3 JUMPI SWAP1 DUP4 SWAP2 DUP8 SWAP2 PUSH2 0xBD2 JUMPI JUMPDEST POP AND DUP10 EQ SWAP2 DUP3 PUSH2 0xB82 JUMPI JUMPDEST DUP3 ISZERO PUSH2 0xAC5 JUMPI JUMPDEST POP POP ISZERO PUSH2 0xA8A JUMPI DUP10 PUSH1 0x84 DUP4 SWAP3 PUSH2 0x982 DUP13 DUP12 PUSH2 0x18DF JUMP JUMPDEST PUSH2 0x98D DUP2 DUP14 DUP13 PUSH2 0x197D JUMP JUMPDEST DUP6 PUSH1 0x40 MLOAD SWAP8 DUP9 SWAP5 DUP6 SWAP4 PUSH4 0x79F37545 PUSH1 0xE1 SHL DUP6 MSTORE DUP14 PUSH1 0x4 DUP7 ADD MSTORE PUSH1 0x24 DUP6 ADD MSTORE PUSH1 0x64 CALLDATALOAD SWAP1 DUP5 ADD MSTORE DUP10 PUSH1 0x64 DUP5 ADD MSTORE GAS CALL SWAP2 DUP3 ISZERO PUSH2 0xA7E JUMPI SWAP2 PUSH2 0xA4E JUMPI JUMPDEST POP PUSH2 0x9D4 SWAP2 POP SWAP6 DUP5 PUSH2 0x18DF JUMP JUMPDEST PUSH1 0x64 CALLDATALOAD DUP6 LT PUSH2 0xA1F JUMPI PUSH1 0x20 SWAP6 POP PUSH1 0x40 MLOAD SWAP2 DUP3 MSTORE DUP5 DUP7 DUP4 ADD MSTORE PUSH1 0x40 DUP3 ADD MSTORE PUSH32 0x1898A1026B4CD267E5FEDA53DEE6EE128FEBABF37BBEB28FE3C47EEEA83C32C4 PUSH1 0x60 CALLER SWAP3 LOG4 PUSH1 0x40 MLOAD SWAP1 DUP2 MSTORE RETURN JUMPDEST PUSH1 0x40 MLOAD PUSH3 0x461BCD PUSH1 0xE5 SHL DUP2 MSTORE PUSH1 0x20 PUSH1 0x4 DUP3 ADD MSTORE PUSH1 0x8 PUSH1 0x24 DUP3 ADD MSTORE PUSH8 0x534C495050414745 PUSH1 0xC0 SHL DUP2 DUP9 ADD MSTORE PUSH1 0x64 SWAP1 REVERT JUMPDEST SWAP1 POP DUP2 DUP2 RETURNDATASIZE DUP4 GT PUSH2 0xA77 JUMPI JUMPDEST PUSH2 0xA64 DUP2 DUP4 PUSH2 0x15E1 JUMP JUMPDEST DUP2 ADD SUB SLT PUSH2 0x5C8 JUMPI PUSH2 0x9D4 SWAP1 MLOAD PUSH0 PUSH2 0x9C7 JUMP JUMPDEST POP RETURNDATASIZE PUSH2 0xA5A JUMP JUMPDEST PUSH1 0x40 MLOAD SWAP1 RETURNDATASIZE SWAP1 DUP3 RETURNDATACOPY RETURNDATASIZE SWAP1 REVERT JUMPDEST PUSH1 0x40 MLOAD PUSH3 0x461BCD PUSH1 0xE5 SHL DUP2 MSTORE PUSH1 0x4 DUP2 ADD DUP4 SWAP1 MSTORE PUSH1 0x14 PUSH1 0x24 DUP3 ADD MSTORE PUSH20 0xAC82AA98A8BEA89E968A9CBE9A92A69A82A8869 PUSH1 0x63 SHL DUP2 DUP13 ADD MSTORE PUSH1 0x64 SWAP1 REVERT JUMPDEST PUSH1 0x40 MLOAD PUSH4 0x1F209DF7 PUSH1 0xE1 SHL DUP2 MSTORE SWAP2 SWAP3 POP SWAP1 DUP5 DUP2 PUSH1 0x4 DUP2 DUP11 GAS STATICCALL SWAP1 DUP2 ISZERO PUSH2 0x4A3 JUMPI SWAP1 DUP3 SWAP2 DUP8 SWAP2 PUSH2 0xB65 JUMPI JUMPDEST POP AND DUP10 EQ SWAP2 DUP3 PUSH2 0xB03 JUMPI JUMPDEST POP POP PUSH0 DUP1 PUSH2 0x96C JUMP JUMPDEST SWAP1 SWAP2 POP PUSH1 0x40 MLOAD SWAP1 DUP2 MSTORE DUP4 DUP2 PUSH1 0x4 DUP2 DUP10 GAS STATICCALL SWAP1 DUP2 ISZERO PUSH2 0xB5A JUMPI DUP6 SWAP2 PUSH2 0xB2D JUMPI JUMPDEST POP AND DUP9 EQ PUSH0 DUP1 PUSH2 0xAFA JUMP JUMPDEST PUSH2 0xB4D SWAP2 POP DUP5 RETURNDATASIZE DUP7 GT PUSH2 0xB53 JUMPI JUMPDEST PUSH2 0xB45 DUP2 DUP4 PUSH2 0x15E1 JUMP JUMPDEST DUP2 ADD SWAP1 PUSH2 0x1603 JUMP JUMPDEST PUSH0 PUSH2 0xB22 JUMP JUMPDEST POP RETURNDATASIZE PUSH2 0xB3B JUMP JUMPDEST PUSH1 0x40 MLOAD RETURNDATASIZE DUP8 DUP3 RETURNDATACOPY RETURNDATASIZE SWAP1 REVERT JUMPDEST PUSH2 0xB7C SWAP2 POP DUP7 RETURNDATASIZE DUP9 GT PUSH2 0xB53 JUMPI PUSH2 0xB45 DUP2 DUP4 PUSH2 0x15E1 JUMP JUMPDEST PUSH0 PUSH2 0xAEF JUMP JUMPDEST PUSH1 0x40 MLOAD PUSH4 0x1F209DF7 PUSH1 0xE1 SHL DUP2 MSTORE SWAP1 SWAP3 POP DUP5 DUP2 PUSH1 0x4 DUP2 DUP11 GAS STATICCALL SWAP1 DUP2 ISZERO PUSH2 0x4A3 JUMPI SWAP1 DUP4 SWAP2 DUP8 SWAP2 PUSH2 0xBB5 JUMPI JUMPDEST POP AND DUP11 EQ SWAP2 PUSH2 0x965 JUMP JUMPDEST PUSH2 0xBCC SWAP2 POP DUP7 RETURNDATASIZE DUP9 GT PUSH2 0xB53 JUMPI PUSH2 0xB45 DUP2 DUP4 PUSH2 0x15E1 JUMP JUMPDEST PUSH0 PUSH2 0xBAB JUMP JUMPDEST PUSH2 0xBE9 SWAP2 POP DUP7 RETURNDATASIZE DUP9 GT PUSH2 0xB53 JUMPI PUSH2 0xB45 DUP2 DUP4 PUSH2 0x15E1 JUMP JUMPDEST PUSH0 PUSH2 0x95A JUMP JUMPDEST SWAP2 SWAP4 SWAP8 POP DUP1 SWAP3 POP PUSH1 0x3 SLOAD AND SWAP1 DUP2 ISZERO PUSH2 0xD08 JUMPI PUSH1 0x40 MLOAD SWAP3 DUP4 SWAP3 PUSH4 0x298D501F PUSH1 0xE1 SHL DUP5 MSTORE DUP8 PUSH1 0x4 DUP6 ADD MSTORE DUP9 PUSH1 0x24 DUP6 ADD MSTORE DUP4 DUP12 PUSH1 0x20 SWAP6 DUP7 SWAP4 GAS STATICCALL SWAP4 DUP5 ISZERO PUSH2 0xB5A JUMPI DUP6 SWAP5 PUSH2 0xCE9 JUMPI JUMPDEST POP DUP4 AND SWAP3 DUP4 ISZERO PUSH2 0xCBB JUMPI SWAP1 PUSH2 0xC4B DUP2 DUP5 SWAP4 DUP10 PUSH2 0x1840 JUMP JUMPDEST PUSH1 0x84 DUP11 DUP7 PUSH1 0x40 MLOAD SWAP7 DUP8 SWAP5 DUP6 SWAP4 PUSH4 0x1BA04887 PUSH1 0xE2 SHL DUP6 MSTORE DUP13 PUSH1 0x4 DUP7 ADD MSTORE DUP14 PUSH1 0x24 DUP7 ADD MSTORE DUP5 ADD MSTORE DUP13 PUSH1 0x64 DUP5 ADD MSTORE GAS CALL SWAP3 DUP4 ISZERO PUSH2 0xA7E JUMPI SWAP3 PUSH2 0xC8D JUMPI JUMPDEST POP POP SWAP4 PUSH2 0x9D4 JUMP JUMPDEST SWAP1 DUP1 SWAP3 POP DUP2 RETURNDATASIZE DUP4 GT PUSH2 0xCB4 JUMPI JUMPDEST PUSH2 0xCA4 DUP2 DUP4 PUSH2 0x15E1 JUMP JUMPDEST DUP2 ADD SUB SLT PUSH2 0x5C8 JUMPI MLOAD PUSH0 DUP1 PUSH2 0xC85 JUMP JUMPDEST POP RETURNDATASIZE PUSH2 0xC9A JUMP JUMPDEST PUSH1 0x40 MLOAD PUSH3 0x461BCD PUSH1 0xE5 SHL DUP2 MSTORE PUSH1 0x4 DUP2 ADD DUP5 SWAP1 MSTORE PUSH1 0x7 PUSH1 0x24 DUP3 ADD MSTORE PUSH7 0x1393D7D413D3D3 PUSH1 0xCA SHL DUP2 DUP13 ADD MSTORE PUSH1 0x64 SWAP1 REVERT JUMPDEST PUSH2 0xD01 SWAP2 SWAP5 POP DUP4 RETURNDATASIZE DUP6 GT PUSH2 0xB53 JUMPI PUSH2 0xB45 DUP2 DUP4 PUSH2 0x15E1 JUMP JUMPDEST SWAP3 PUSH0 PUSH2 0xC34 JUMP JUMPDEST PUSH1 0x40 MLOAD PUSH3 0x461BCD PUSH1 0xE5 SHL DUP2 MSTORE PUSH1 0x20 PUSH1 0x4 DUP3 ADD MSTORE PUSH1 0x10 PUSH1 0x24 DUP3 ADD MSTORE PUSH16 0x1393D7D59055531517D3D497D413D3D3 PUSH1 0x82 SHL DUP2 DUP12 ADD MSTORE PUSH1 0x64 SWAP1 REVERT JUMPDEST SWAP3 SWAP10 SWAP2 SWAP3 DUP1 PUSH2 0xE49 JUMPI JUMPDEST ISZERO PUSH2 0xDB0 JUMPI POP POP PUSH1 0x20 PUSH1 0x24 SWAP2 PUSH1 0x40 MLOAD SWAP3 DUP4 DUP1 SWAP3 PUSH4 0x1D735E7 PUSH1 0xE3 SHL DUP3 MSTORE DUP11 PUSH1 0x4 DUP4 ADD MSTORE GAS STATICCALL SWAP1 DUP2 ISZERO PUSH2 0xDA5 JUMPI DUP3 SWAP2 PUSH2 0xD87 JUMPI JUMPDEST POP SWAP7 JUMPDEST PUSH0 DUP1 DUP1 PUSH2 0x922 JUMP JUMPDEST PUSH2 0xD9F SWAP2 POP PUSH1 0x20 RETURNDATASIZE DUP2 GT PUSH2 0xB53 JUMPI PUSH2 0xB45 DUP2 DUP4 PUSH2 0x15E1 JUMP JUMPDEST PUSH0 PUSH2 0xD7C JUMP JUMPDEST PUSH1 0x40 MLOAD RETURNDATASIZE DUP5 DUP3 RETURNDATACOPY RETURNDATASIZE SWAP1 REVERT JUMPDEST DUP9 SWAP10 SWAP3 SWAP2 SWAP10 EQ ISZERO DUP1 PUSH2 0xE1D JUMPI JUMPDEST PUSH2 0xDC8 JUMPI JUMPDEST POP PUSH2 0xD7F JUMP JUMPDEST PUSH1 0x24 SWAP2 SWAP9 POP PUSH1 0x20 SWAP1 PUSH1 0x40 MLOAD SWAP3 DUP4 DUP1 SWAP3 PUSH4 0x1D735E7 PUSH1 0xE3 SHL DUP3 MSTORE DUP12 PUSH1 0x4 DUP4 ADD MSTORE GAS STATICCALL SWAP1 DUP2 ISZERO PUSH2 0xDA5 JUMPI DUP3 SWAP2 PUSH2 0xDFF JUMPI JUMPDEST POP SWAP7 PUSH0 PUSH2 0xDC2 JUMP JUMPDEST PUSH2 0xE17 SWAP2 POP PUSH1 0x20 RETURNDATASIZE DUP2 GT PUSH2 0xB53 JUMPI PUSH2 0xB45 DUP2 DUP4 PUSH2 0x15E1 JUMP JUMPDEST PUSH0 PUSH2 0xDF7 JUMP JUMPDEST POP DUP2 PUSH32 0x0 AND DUP9 EQ ISZERO PUSH2 0xDBD JUMP JUMPDEST POP DUP10 PUSH32 0x0 AND DUP9 EQ ISZERO PUSH2 0xD49 JUMP JUMPDEST PUSH2 0xE84 SWAP1 DUP4 PUSH1 0x5 SLOAD AND DUP10 PUSH2 0x1840 JUMP JUMPDEST PUSH0 PUSH2 0x913 JUMP JUMPDEST PUSH1 0x40 MLOAD PUSH3 0x461BCD PUSH1 0xE5 SHL DUP2 MSTORE PUSH1 0x20 PUSH1 0x4 DUP3 ADD MSTORE PUSH1 0x16 PUSH1 0x24 DUP3 ADD MSTORE PUSH22 0x4F4E455F4C45475F4D5553545F42455F535441424C45 PUSH1 0x50 SHL DUP2 DUP12 ADD MSTORE PUSH1 0x64 SWAP1 REVERT JUMPDEST POP DUP1 PUSH32 0x0 AND DUP8 EQ PUSH2 0x8FB JUMP JUMPDEST POP DUP8 DUP8 EQ PUSH2 0x8F4 JUMP JUMPDEST POP DUP1 PUSH32 0x0 AND DUP7 EQ PUSH2 0x8ED JUMP JUMPDEST PUSH1 0x40 MLOAD PUSH3 0x461BCD PUSH1 0xE5 SHL DUP2 MSTORE PUSH1 0x20 PUSH1 0x4 DUP3 ADD MSTORE PUSH1 0xA PUSH1 0x24 DUP3 ADD MSTORE PUSH10 0x29A0A6A2AFAA27A5A2A7 PUSH1 0xB1 SHL DUP2 DUP10 ADD MSTORE PUSH1 0x64 SWAP1 REVERT JUMPDEST PUSH1 0x40 MLOAD PUSH3 0x461BCD PUSH1 0xE5 SHL DUP2 MSTORE PUSH1 0x20 PUSH1 0x4 DUP3 ADD MSTORE PUSH1 0x7 PUSH1 0x24 DUP3 ADD MSTORE PUSH7 0x11561412549151 PUSH1 0xCA SHL DUP2 DUP10 ADD MSTORE PUSH1 0x64 SWAP1 REVERT JUMPDEST POP CALLVALUE PUSH2 0x182 JUMPI DUP1 PUSH1 0x3 NOT CALLDATASIZE ADD SLT PUSH2 0x182 JUMPI PUSH1 0x40 MLOAD PUSH32 0x0 PUSH1 0x1 PUSH1 0x1 PUSH1 0xA0 SHL SUB AND DUP2 MSTORE PUSH1 0x20 SWAP1 RETURN JUMPDEST POP CALLVALUE PUSH2 0x182 JUMPI PUSH1 0x20 CALLDATASIZE PUSH1 0x3 NOT ADD SLT PUSH2 0x182 JUMPI PUSH32 0x7A3BB33D45E644591A57750D06AB2A57B66D5881C20C7447D4A32AC601657A11 PUSH1 0x20 PUSH2 0x1007 PUSH2 0x1497 JUMP JUMPDEST DUP4 SLOAD PUSH1 0x1 PUSH1 0x1 PUSH1 0xA0 SHL SUB SWAP2 SWAP1 PUSH2 0x1020 SWAP1 DUP4 AND CALLER EQ PUSH2 0x14D2 JUMP JUMPDEST AND PUSH2 0x102C DUP2 ISZERO ISZERO PUSH2 0x150A JUMP JUMPDEST PUSH1 0x2 DUP1 SLOAD PUSH1 0x1 PUSH1 0x1 PUSH1 0xA0 SHL SUB NOT AND DUP3 OR SWAP1 SSTORE PUSH1 0x40 MLOAD SWAP1 DUP2 MSTORE LOG1 DUP1 RETURN JUMPDEST POP CALLVALUE PUSH2 0x182 JUMPI DUP1 PUSH1 0x3 NOT CALLDATASIZE ADD SLT PUSH2 0x182 JUMPI SLOAD PUSH1 0x40 MLOAD PUSH1 0x1 PUSH1 0x1 PUSH1 0xA0 SHL SUB SWAP1 SWAP2 AND DUP2 MSTORE PUSH1 0x20 SWAP1 RETURN JUMPDEST POP CALLVALUE PUSH2 0x182 JUMPI DUP1 PUSH1 0x3 NOT CALLDATASIZE ADD SLT PUSH2 0x182 JUMPI PUSH1 0x40 MLOAD PUSH32 0x0 PUSH1 0x1 PUSH1 0x1 PUSH1 0xA0 SHL SUB AND DUP2 MSTORE PUSH1 0x20 SWAP1 RETURN JUMPDEST POP CALLVALUE PUSH2 0x182 JUMPI PUSH1 0x80 CALLDATASIZE PUSH1 0x3 NOT ADD SLT PUSH2 0x182 JUMPI PUSH2 0x10CE PUSH2 0x1497 JUMP JUMPDEST PUSH1 0x24 CALLDATALOAD SWAP1 PUSH1 0x44 CALLDATALOAD SWAP1 PUSH1 0x1 PUSH1 0x1 PUSH1 0xA0 SHL SUB SWAP1 DUP2 DUP4 AND SWAP1 DUP6 SWAP1 DUP3 DUP6 SUB PUSH2 0x1244 JUMPI PUSH2 0x10F4 PUSH2 0x14C3 JUMP JUMPDEST SWAP5 SWAP3 PUSH2 0x1101 DUP8 ISZERO ISZERO PUSH2 0x157F JUMP JUMPDEST PUSH2 0x110A DUP3 PUSH2 0x1782 JUMP JUMPDEST ISZERO PUSH2 0x125D JUMPI JUMPDEST PUSH2 0x111D DUP5 DUP3 AND SWAP7 DUP8 PUSH2 0x16A5 JUMP JUMPDEST DUP1 SWAP7 SWAP2 SWAP7 PUSH2 0x1248 JUMPI JUMPDEST POP PUSH2 0x1135 DUP6 PUSH1 0x2 SLOAD AND DUP9 PUSH2 0x18DF JUMP JUMPDEST PUSH2 0x1144 DUP7 DUP7 PUSH1 0x2 SLOAD AND DUP10 PUSH2 0x197D JUMP JUMPDEST ISZERO PUSH2 0x11E1 JUMPI DUP4 PUSH1 0x2 SLOAD AND DUP1 EXTCODESIZE ISZERO PUSH2 0x822 JUMPI PUSH1 0x40 MLOAD PUSH4 0xB3DB428B PUSH1 0xE0 SHL DUP2 MSTORE PUSH1 0x1 PUSH1 0x1 PUSH1 0xA0 SHL SUB SWAP3 DUP4 AND PUSH1 0x4 DUP3 ADD MSTORE SWAP2 DUP5 AND PUSH1 0x24 DUP4 ADD MSTORE PUSH1 0x44 DUP3 ADD DUP7 SWAP1 MSTORE DUP3 SWAP1 DUP3 SWAP1 PUSH1 0x64 SWAP1 DUP3 SWAP1 DUP5 SWAP1 GAS CALL DUP1 ISZERO PUSH2 0xDA5 JUMPI PUSH2 0x11CD JUMPI JUMPDEST POP POP JUMPDEST PUSH1 0x40 MLOAD SWAP3 DUP4 MSTORE AND SWAP1 PUSH32 0x921654B8C2158EBC05629D4C303A63347A5DD7E3BC284889DB0CFE5FD962BA6A PUSH1 0x20 CALLER SWAP3 LOG4 DUP1 RETURN JUMPDEST PUSH2 0x11D6 SWAP1 PUSH2 0x15B9 JUMP JUMPDEST PUSH2 0x5C4 JUMPI DUP5 PUSH0 PUSH2 0x1199 JUMP JUMPDEST SWAP1 DUP4 PUSH1 0x2 SLOAD AND SWAP2 DUP3 EXTCODESIZE ISZERO PUSH2 0x1244 JUMPI PUSH1 0x40 MLOAD PUSH4 0x11F9FBC9 PUSH1 0xE2 SHL DUP2 MSTORE PUSH1 0x1 PUSH1 0x1 PUSH1 0xA0 SHL SUB SWAP2 SWAP1 SWAP2 AND PUSH1 0x4 DUP3 ADD MSTORE PUSH1 0x24 DUP2 ADD DUP7 SWAP1 MSTORE SWAP2 DUP3 SWAP1 PUSH1 0x44 SWAP1 DUP3 SWAP1 DUP5 SWAP1 GAS CALL DUP1 ISZERO PUSH2 0x4A3 JUMPI PUSH2 0x1231 JUMPI JUMPDEST POP PUSH2 0x119C JUMP JUMPDEST PUSH2 0x123D SWAP1 SWAP6 SWAP2 SWAP6 PUSH2 0x15B9 JUMP JUMPDEST SWAP4 PUSH0 PUSH2 0x122B JUMP JUMPDEST POP DUP1 REVERT JUMPDEST PUSH2 0x1257 SWAP1 DUP7 PUSH1 0x5 SLOAD AND DUP10 PUSH2 0x1840 JUMP JUMPDEST PUSH0 PUSH2 0x1126 JUMP JUMPDEST CALLER SWAP3 POP PUSH2 0x1110 JUMP JUMPDEST POP CALLVALUE PUSH2 0x182 JUMPI PUSH1 0x80 CALLDATASIZE PUSH1 0x3 NOT ADD SLT PUSH2 0x182 JUMPI PUSH2 0x127F PUSH2 0x1497 JUMP JUMPDEST PUSH2 0x1287 PUSH2 0x14AD JUMP JUMPDEST SWAP1 PUSH1 0x44 CALLDATALOAD SWAP2 PUSH2 0x12D9 PUSH1 0x1 DUP1 PUSH1 0xA0 SHL SUB SWAP2 PUSH2 0x12C6 DUP4 DUP1 DUP4 AND SWAP6 PUSH2 0x12AA DUP8 ISZERO ISZERO PUSH2 0x1542 JUMP JUMPDEST PUSH2 0x12B5 DUP9 ISZERO ISZERO PUSH2 0x157F JUMP JUMPDEST PUSH2 0x12BE DUP2 PUSH2 0x1782 JUMP JUMPDEST AND SWAP6 DUP7 PUSH2 0x16A5 JUMP JUMPDEST SWAP1 SWAP4 DUP5 SWAP3 SWAP2 DUP1 PUSH2 0x1310 JUMPI JUMPDEST POP POP DUP6 PUSH2 0x1840 JUMP JUMPDEST PUSH1 0x40 MLOAD SWAP1 DUP2 MSTORE PUSH1 0x64 CALLDATALOAD PUSH1 0x20 DUP3 ADD MSTORE PUSH32 0xB9FCC4404867BC932FD7611431A17AAA3F95766EB5BD01D46C296AD8CE468402 PUSH1 0x40 CALLER SWAP3 LOG4 DUP1 RETURN JUMPDEST PUSH2 0x131E SWAP2 PUSH1 0x5 SLOAD AND DUP9 PUSH2 0x1840 JUMP JUMPDEST PUSH0 DUP1 PUSH2 0x12D1 JUMP JUMPDEST POP CALLVALUE PUSH2 0x182 JUMPI DUP1 PUSH1 0x3 NOT CALLDATASIZE ADD SLT PUSH2 0x182 JUMPI PUSH1 0x1 SLOAD PUSH1 0x40 MLOAD PUSH1 0x1 PUSH1 0x1 PUSH1 0xA0 SHL SUB SWAP1 SWAP2 AND DUP2 MSTORE PUSH1 0x20 SWAP1 RETURN JUMPDEST POP CALLVALUE PUSH2 0x182 JUMPI PUSH1 0x20 CALLDATASIZE PUSH1 0x3 NOT ADD SLT PUSH2 0x182 JUMPI PUSH2 0x1368 PUSH2 0x1497 JUMP JUMPDEST DUP2 SLOAD PUSH1 0x1 PUSH1 0x1 PUSH1 0xA0 SHL SUB SWAP2 SWAP1 PUSH2 0x1381 SWAP1 DUP4 AND CALLER EQ PUSH2 0x14D2 JUMP JUMPDEST AND PUSH2 0x138D DUP2 ISZERO ISZERO PUSH2 0x150A JUMP JUMPDEST PUSH12 0xFFFFFFFFFFFFFFFFFFFFFFFF PUSH1 0xA0 SHL PUSH1 0x4 SLOAD AND OR PUSH1 0x4 SSTORE DUP1 RETURN JUMPDEST POP CALLVALUE PUSH2 0x182 JUMPI PUSH1 0x20 CALLDATASIZE PUSH1 0x3 NOT ADD SLT PUSH2 0x182 JUMPI PUSH1 0x20 PUSH2 0x13C7 PUSH1 0x4 CALLDATALOAD PUSH2 0x1662 JUMP JUMPDEST PUSH1 0x40 MLOAD SWAP1 DUP2 MSTORE RETURN JUMPDEST POP CALLVALUE PUSH2 0x182 JUMPI DUP1 PUSH1 0x3 NOT CALLDATASIZE ADD SLT PUSH2 0x182 JUMPI PUSH1 0x20 PUSH2 0xFFFF PUSH1 0x4 SLOAD PUSH1 0xA0 SHR AND PUSH1 0x40 MLOAD SWAP1 DUP2 MSTORE RETURN JUMPDEST POP CALLVALUE PUSH2 0x182 JUMPI PUSH1 0x20 CALLDATASIZE PUSH1 0x3 NOT ADD SLT PUSH2 0x182 JUMPI PUSH32 0xEE6E8AF5EA26AD906C28E6E8C421C990111039169988F75CAB1FC2983F0FFDA3 PUSH1 0x20 PUSH2 0x1431 PUSH2 0x1497 JUMP JUMPDEST DUP4 SLOAD PUSH1 0x1 PUSH1 0x1 PUSH1 0xA0 SHL SUB SWAP2 SWAP1 PUSH2 0x144A SWAP1 DUP4 AND CALLER EQ PUSH2 0x14D2 JUMP JUMPDEST AND PUSH2 0x1456 DUP2 ISZERO ISZERO PUSH2 0x150A JUMP JUMPDEST PUSH1 0x3 DUP1 SLOAD PUSH1 0x1 PUSH1 0x1 PUSH1 0xA0 SHL SUB NOT AND DUP3 OR SWAP1 SSTORE PUSH1 0x40 MLOAD SWAP1 DUP2 MSTORE LOG1 DUP1 RETURN JUMPDEST SWAP1 POP CALLVALUE PUSH2 0x1244 JUMPI DUP2 PUSH1 0x3 NOT CALLDATASIZE ADD SLT PUSH2 0x1244 JUMPI PUSH1 0x2 SLOAD PUSH1 0x1 PUSH1 0x1 PUSH1 0xA0 SHL SUB AND DUP2 MSTORE PUSH1 0x20 SWAP1 RETURN JUMPDEST PUSH1 0x4 CALLDATALOAD SWAP1 PUSH1 0x1 PUSH1 0x1 PUSH1 0xA0 SHL SUB DUP3 AND DUP3 SUB PUSH2 0x5C8 JUMPI JUMP JUMPDEST PUSH1 0x24 CALLDATALOAD SWAP1 PUSH1 0x1 PUSH1 0x1 PUSH1 0xA0 SHL SUB DUP3 AND DUP3 SUB PUSH2 0x5C8 JUMPI JUMP JUMPDEST PUSH1 0x64 CALLDATALOAD SWAP1 DUP2 ISZERO ISZERO DUP3 SUB PUSH2 0x5C8 JUMPI JUMP JUMPDEST ISZERO PUSH2 0x14D9 JUMPI JUMP JUMPDEST PUSH1 0x40 MLOAD PUSH3 0x461BCD PUSH1 0xE5 SHL DUP2 MSTORE PUSH1 0x20 PUSH1 0x4 DUP3 ADD MSTORE PUSH1 0x9 PUSH1 0x24 DUP3 ADD MSTORE PUSH9 0x2727AA2FA7ABA722A9 PUSH1 0xB9 SHL PUSH1 0x44 DUP3 ADD MSTORE PUSH1 0x64 SWAP1 REVERT JUMPDEST ISZERO PUSH2 0x1511 JUMPI JUMP JUMPDEST PUSH1 0x40 MLOAD PUSH3 0x461BCD PUSH1 0xE5 SHL DUP2 MSTORE PUSH1 0x20 PUSH1 0x4 DUP3 ADD MSTORE PUSH1 0x9 PUSH1 0x24 DUP3 ADD MSTORE PUSH9 0x2D22A927AFA0A22229 PUSH1 0xB9 SHL PUSH1 0x44 DUP3 ADD MSTORE PUSH1 0x64 SWAP1 REVERT JUMPDEST ISZERO PUSH2 0x1549 JUMPI JUMP JUMPDEST PUSH1 0x40 MLOAD PUSH3 0x461BCD PUSH1 0xE5 SHL DUP2 MSTORE PUSH1 0x20 PUSH1 0x4 DUP3 ADD MSTORE PUSH1 0xE PUSH1 0x24 DUP3 ADD MSTORE PUSH14 0x524543495049454E545F5A45524F PUSH1 0x90 SHL PUSH1 0x44 DUP3 ADD MSTORE PUSH1 0x64 SWAP1 REVERT JUMPDEST ISZERO PUSH2 0x1586 JUMPI JUMP JUMPDEST PUSH1 0x40 MLOAD PUSH3 0x461BCD PUSH1 0xE5 SHL DUP2 MSTORE PUSH1 0x20 PUSH1 0x4 DUP3 ADD MSTORE PUSH1 0xB PUSH1 0x24 DUP3 ADD MSTORE PUSH11 0x414D4F554E545F5A45524F PUSH1 0xA8 SHL PUSH1 0x44 DUP3 ADD MSTORE PUSH1 0x64 SWAP1 REVERT JUMPDEST PUSH8 0xFFFFFFFFFFFFFFFF DUP2 GT PUSH2 0x15CD JUMPI PUSH1 0x40 MSTORE JUMP JUMPDEST PUSH4 0x4E487B71 PUSH1 0xE0 SHL PUSH0 MSTORE PUSH1 0x41 PUSH1 0x4 MSTORE PUSH1 0x24 PUSH0 REVERT JUMPDEST SWAP1 PUSH1 0x1F DUP1 NOT SWAP2 ADD AND DUP2 ADD SWAP1 DUP2 LT PUSH8 0xFFFFFFFFFFFFFFFF DUP3 GT OR PUSH2 0x15CD JUMPI PUSH1 0x40 MSTORE JUMP JUMPDEST SWAP1 DUP2 PUSH1 0x20 SWAP2 SUB SLT PUSH2 0x5C8 JUMPI MLOAD PUSH1 0x1 PUSH1 0x1 PUSH1 0xA0 SHL SUB DUP2 AND DUP2 SUB PUSH2 0x5C8 JUMPI SWAP1 JUMP JUMPDEST SWAP1 DUP2 PUSH1 0x20 SWAP2 SUB SLT PUSH2 0x5C8 JUMPI MLOAD PUSH8 0xFFFFFFFFFFFFFFFF DUP2 AND DUP2 SUB PUSH2 0x5C8 JUMPI SWAP1 JUMP JUMPDEST SWAP1 DUP1 PUSH1 0x20 SWAP4 SWAP3 DUP2 DUP5 MSTORE DUP5 DUP5 ADD CALLDATACOPY PUSH0 DUP3 DUP3 ADD DUP5 ADD MSTORE PUSH1 0x1F ADD PUSH1 0x1F NOT AND ADD ADD SWAP1 JUMP JUMPDEST PUSH2 0xFFFF PUSH1 0x4 SLOAD PUSH1 0xA0 SHR AND SWAP1 DUP2 ISZERO PUSH2 0x169F JUMPI DUP2 DUP2 MUL SWAP2 DUP2 DUP4 DIV EQ SWAP1 ISZERO OR ISZERO PUSH2 0x168B JUMPI PUSH2 0x2710 SWAP1 DIV SWAP1 JUMP JUMPDEST PUSH4 0x4E487B71 PUSH1 0xE0 SHL PUSH0 MSTORE PUSH1 0x11 PUSH1 0x4 MSTORE PUSH1 0x24 PUSH0 REVERT JUMPDEST POP POP PUSH0 SWAP1 JUMP JUMPDEST SWAP1 SWAP2 PUSH2 0x16B0 DUP4 PUSH2 0x1662 JUMP JUMPDEST SWAP2 DUP3 DUP5 SUB SWAP1 DUP5 DUP3 GT PUSH2 0x168B JUMPI PUSH1 0x40 MLOAD PUSH4 0x23B872DD PUSH1 0xE0 SHL DUP2 MSTORE CALLER PUSH1 0x4 DUP3 ADD MSTORE ADDRESS PUSH1 0x24 DUP3 ADD MSTORE PUSH1 0x44 DUP2 ADD SWAP6 SWAP1 SWAP6 MSTORE SWAP1 SWAP4 SWAP1 PUSH1 0x20 SWAP1 DUP3 SWAP1 PUSH1 0x64 SWAP1 DUP3 SWAP1 PUSH0 SWAP1 PUSH1 0x1 PUSH1 0x1 PUSH1 0xA0 SHL SUB AND GAS CALL SWAP1 DUP2 ISZERO PUSH2 0x1777 JUMPI PUSH0 SWAP2 PUSH2 0x1749 JUMPI JUMPDEST POP ISZERO PUSH2 0x170D JUMPI JUMP JUMPDEST PUSH1 0x40 MLOAD PUSH3 0x461BCD PUSH1 0xE5 SHL DUP2 MSTORE PUSH1 0x20 PUSH1 0x4 DUP3 ADD MSTORE PUSH1 0x14 PUSH1 0x24 DUP3 ADD MSTORE PUSH20 0x1514905394D1915497D19493D357D19052531151 PUSH1 0x62 SHL PUSH1 0x44 DUP3 ADD MSTORE PUSH1 0x64 SWAP1 REVERT JUMPDEST PUSH2 0x176A SWAP2 POP PUSH1 0x20 RETURNDATASIZE DUP2 GT PUSH2 0x1770 JUMPI JUMPDEST PUSH2 0x1762 DUP2 DUP4 PUSH2 0x15E1 JUMP JUMPDEST DUP2 ADD SWAP1 PUSH2 0x1828 JUMP JUMPDEST PUSH0 PUSH2 0x1705 JUMP JUMPDEST POP RETURNDATASIZE PUSH2 0x1758 JUMP JUMPDEST PUSH1 0x40 MLOAD RETURNDATASIZE PUSH0 DUP3 RETURNDATACOPY RETURNDATASIZE SWAP1 REVERT JUMPDEST PUSH1 0x1 PUSH1 0x1 PUSH1 0xA0 SHL SUB SWAP1 DUP2 AND PUSH32 0x0 DUP3 AND DUP2 EQ SWAP2 DUP3 ISZERO PUSH2 0x17FC JUMPI JUMPDEST POP POP ISZERO PUSH2 0x17C3 JUMPI JUMP JUMPDEST PUSH1 0x40 MLOAD PUSH3 0x461BCD PUSH1 0xE5 SHL DUP2 MSTORE PUSH1 0x20 PUSH1 0x4 DUP3 ADD MSTORE PUSH1 0x11 PUSH1 0x24 DUP3 ADD MSTORE PUSH17 0x2AA729AAA82827A92A22A22FAA27A5A2A7 PUSH1 0x79 SHL PUSH1 0x44 DUP3 ADD MSTORE PUSH1 0x64 SWAP1 REVERT JUMPDEST PUSH32 0x0 AND EQ SWAP1 POP PUSH0 DUP1 PUSH2 0x17BA JUMP JUMPDEST SWAP1 DUP2 PUSH1 0x20 SWAP2 SUB SLT PUSH2 0x5C8 JUMPI MLOAD DUP1 ISZERO ISZERO DUP2 SUB PUSH2 0x5C8 JUMPI SWAP1 JUMP JUMPDEST PUSH1 0x40 MLOAD PUSH4 0xA9059CBB PUSH1 0xE0 SHL DUP2 MSTORE PUSH1 0x1 PUSH1 0x1 PUSH1 0xA0 SHL SUB SWAP3 DUP4 AND PUSH1 0x4 DUP3 ADD MSTORE PUSH1 0x24 DUP2 ADD SWAP4 SWAP1 SWAP4 MSTORE PUSH1 0x20 SWAP2 DUP4 SWAP2 PUSH1 0x44 SWAP2 DUP4 SWAP2 PUSH0 SWAP2 AND GAS CALL SWAP1 DUP2 ISZERO PUSH2 0x1777 JUMPI PUSH0 SWAP2 PUSH2 0x18C1 JUMPI JUMPDEST POP ISZERO PUSH2 0x188A JUMPI JUMP JUMPDEST PUSH1 0x40 MLOAD PUSH3 0x461BCD PUSH1 0xE5 SHL DUP2 MSTORE PUSH1 0x20 PUSH1 0x4 DUP3 ADD MSTORE PUSH1 0xF PUSH1 0x24 DUP3 ADD MSTORE PUSH15 0x1514905394D1915497D19052531151 PUSH1 0x8A SHL PUSH1 0x44 DUP3 ADD MSTORE PUSH1 0x64 SWAP1 REVERT JUMPDEST PUSH2 0x18D9 SWAP2 POP PUSH1 0x20 RETURNDATASIZE DUP2 GT PUSH2 0x1770 JUMPI PUSH2 0x1762 DUP2 DUP4 PUSH2 0x15E1 JUMP JUMPDEST PUSH0 PUSH2 0x1882 JUMP JUMPDEST PUSH1 0x40 MLOAD PUSH4 0x95EA7B3 PUSH1 0xE0 SHL DUP2 MSTORE PUSH1 0x1 PUSH1 0x1 PUSH1 0xA0 SHL SUB SWAP3 DUP4 AND PUSH1 0x4 DUP3 ADD MSTORE PUSH0 PUSH1 0x24 DUP3 ADD DUP2 SWAP1 MSTORE SWAP1 SWAP3 PUSH1 0x20 SWAP3 DUP5 SWAP3 PUSH1 0x44 SWAP3 DUP5 SWAP3 AND GAS CALL SWAP1 DUP2 ISZERO PUSH2 0x1777 JUMPI PUSH0 SWAP2 PUSH2 0x195F JUMPI JUMPDEST POP ISZERO PUSH2 0x1929 JUMPI JUMP JUMPDEST PUSH1 0x40 MLOAD PUSH3 0x461BCD PUSH1 0xE5 SHL DUP2 MSTORE PUSH1 0x20 PUSH1 0x4 DUP3 ADD MSTORE PUSH1 0xE PUSH1 0x24 DUP3 ADD MSTORE PUSH14 0x1054141493D59157D19052531151 PUSH1 0x92 SHL PUSH1 0x44 DUP3 ADD MSTORE PUSH1 0x64 SWAP1 REVERT JUMPDEST PUSH2 0x1977 SWAP2 POP PUSH1 0x20 RETURNDATASIZE DUP2 GT PUSH2 0x1770 JUMPI PUSH2 0x1762 DUP2 DUP4 PUSH2 0x15E1 JUMP JUMPDEST PUSH0 PUSH2 0x1921 JUMP JUMPDEST PUSH1 0x40 MLOAD PUSH4 0x95EA7B3 PUSH1 0xE0 SHL DUP2 MSTORE PUSH1 0x1 PUSH1 0x1 PUSH1 0xA0 SHL SUB SWAP3 DUP4 AND PUSH1 0x4 DUP3 ADD MSTORE PUSH1 0x24 DUP2 ADD SWAP4 SWAP1 SWAP4 MSTORE PUSH1 0x20 SWAP2 DUP4 SWAP2 PUSH1 0x44 SWAP2 DUP4 SWAP2 PUSH0 SWAP2 AND GAS CALL SWAP1 DUP2 ISZERO PUSH2 0x1777 JUMPI PUSH0 SWAP2 PUSH2 0x195F JUMPI POP ISZERO PUSH2 0x1929 JUMPI JUMP INVALID LOG2 PUSH5 0x6970667358 0x22 SLT KECCAK256 0xB1 MUL 0xAA ADD 0x4D CREATE PUSH27 0xCB291FCAC3D77D1810DB341618C0E7AE7F61B703421D3035666473 PUSH16 0x6C634300081400330000000000000000 "},"methodIdentifiers":{"EURC()":"aabfa37d","USDC()":"89a30271","ammFactory()":"dacda92f","feeBps()":"24a9d853","feeCollector()":"c415b95c","gatewayWallet()":"131b4c0e","onCCTPReceived(address,uint256)":"e0248ac1","owner()":"8da5cb5b","payLocal(address,address,uint256,bytes32)":"62ce977b","previewFee(uint256)":"35e856f2","routeCCTP(uint32,bytes32,uint256,bool,bytes32,uint256,uint32,bytes)":"edc421fd","routeGatewayDeposit(address,uint256,address,bool)":"6b39cf77","setAMMFactory(address)":"1c2236f1","setFeeConfig(uint16,address)":"cd1b7d6c","setGatewayWallet(address)":"a92bb10f","setTokenMessenger(address)":"f586384f","setVaultFactory(address)":"3ea7fbdb","swapLocal(address,address,uint256,uint256,address,uint256)":"b78f6c2f","tokenMessenger()":"46117830","transferOwnership(address)":"f2fde38b","vaultFactory()":"d8a06f73"}}}}}