{"project/core/VaultFactory.sol":{"VaultFactory":{"abi":[{"inputs":[{"internalType":"address","name":"_usdc","type":"address"},{"internalType":"address","name":"_feeRecipient","type":"address"},{"internalType":"uint24","name":"_swapFeeBps","type":"uint24"}],"stateMutability":"nonpayable","type":"constructor"},{"inputs":[],"name":"FeeTooHigh","type":"error"},{"inputs":[],"name":"InvalidAddress","type":"error"},{"inputs":[],"name":"OnlyGovernance","type":"error"},{"inputs":[],"name":"VaultExists","type":"error"},{"anonymous":false,"inputs":[{"indexed":true,"internalType":"address","name":"newFeeRecipient","type":"address"}],"name":"FeeRecipientUpdated","type":"event"},{"anonymous":false,"inputs":[{"indexed":true,"internalType":"address","name":"previousGovernance","type":"address"},{"indexed":true,"internalType":"address","name":"newGovernance","type":"address"}],"name":"GovernanceTransferred","type":"event"},{"anonymous":false,"inputs":[{"indexed":false,"internalType":"uint256","name":"newFeeBps","type":"uint256"}],"name":"ProtocolFeeUpdated","type":"event"},{"anonymous":false,"inputs":[{"indexed":true,"internalType":"address","name":"projectToken","type":"address"},{"indexed":true,"internalType":"address","name":"vault","type":"address"},{"indexed":false,"internalType":"uint256","name":"index","type":"uint256"}],"name":"VaultCreated","type":"event"},{"inputs":[],"name":"acceptGovernance","outputs":[],"stateMutability":"nonpayable","type":"function"},{"inputs":[{"internalType":"uint256","name":"","type":"uint256"}],"name":"allVaults","outputs":[{"internalType":"address","name":"","type":"address"}],"stateMutability":"view","type":"function"},{"inputs":[],"name":"allVaultsLength","outputs":[{"internalType":"uint256","name":"","type":"uint256"}],"stateMutability":"view","type":"function"},{"inputs":[{"internalType":"address","name":"projectToken","type":"address"},{"internalType":"string","name":"name","type":"string"},{"internalType":"string","name":"symbol","type":"string"}],"name":"createVault","outputs":[{"internalType":"address","name":"vault","type":"address"}],"stateMutability":"nonpayable","type":"function"},{"inputs":[],"name":"feeRecipient","outputs":[{"internalType":"address","name":"","type":"address"}],"stateMutability":"view","type":"function"},{"inputs":[{"internalType":"address","name":"","type":"address"}],"name":"getVault","outputs":[{"internalType":"address","name":"","type":"address"}],"stateMutability":"view","type":"function"},{"inputs":[{"internalType":"uint256","name":"index","type":"uint256"}],"name":"getVaultByIndex","outputs":[{"internalType":"address","name":"vault","type":"address"},{"internalType":"address","name":"projectToken","type":"address"}],"stateMutability":"view","type":"function"},{"inputs":[],"name":"governance","outputs":[{"internalType":"address","name":"","type":"address"}],"stateMutability":"view","type":"function"},{"inputs":[],"name":"pendingGovernance","outputs":[{"internalType":"address","name":"","type":"address"}],"stateMutability":"view","type":"function"},{"inputs":[],"name":"protocolFeeBps","outputs":[{"internalType":"uint256","name":"","type":"uint256"}],"stateMutability":"view","type":"function"},{"inputs":[{"internalType":"address","name":"newFeeRecipient","type":"address"}],"name":"setFeeRecipient","outputs":[],"stateMutability":"nonpayable","type":"function"},{"inputs":[{"internalType":"uint256","name":"newFeeBps","type":"uint256"}],"name":"setProtocolFee","outputs":[],"stateMutability":"nonpayable","type":"function"},{"inputs":[],"name":"swapFeeBps","outputs":[{"internalType":"uint24","name":"","type":"uint24"}],"stateMutability":"view","type":"function"},{"inputs":[{"internalType":"address","name":"newGovernance","type":"address"}],"name":"transferGovernance","outputs":[],"stateMutability":"nonpayable","type":"function"},{"inputs":[],"name":"usdc","outputs":[{"internalType":"address","name":"","type":"address"}],"stateMutability":"view","type":"function"}],"evm":{"bytecode":{"linkReferences":{},"object":"60a0346100f057601f612c0338819003918201601f19168301916001600160401b038311848410176100f4578084926060946040528339810103126100f05761004781610108565b604061005560208401610108565b9201519162ffffff83168093036100f0576001600160a01b03908282161580156100e6575b6100d45760018060a01b03199233845f5416175f5560805216906004541617600455600a60055562ffffff196006541617600655604051612ae6908161011d8239608051818181610483015281816105f2015261067c0152f35b60405163e6c4247b60e01b8152600490fd5b508181161561007a565b5f80fd5b634e487b7160e01b5f52604160045260245ffd5b51906001600160a01b03821682036100f05756fe608060408181526004918236101562000016575f80fd5b5f92833560e01c9182630eb9af38146200077057508163238efcbc14620006f25781632ffdaf8914620006cc57816335659fb814620006ab5781633e413bee146200066557816346904840146200063b5781634cd18577146200061a578163515d61ec14620003a55781635aa6e675146200037b578163787dce3d14620002f75781638c3d6090146200023d5781639094a91e14620001f4578163d38bfff4146200019a578163e74b981b1462000104575063f39c38a014620000d7575f80fd5b34620001005781600319360112620001005760015490516001600160a01b039091168152602090f35b5080fd5b90503462000196576020366003190112620001965762000123620007ac565b83546001600160a01b0391908216330362000186571691821562000179575080546001600160a01b031916821790557f7a7b5a0a132f9e0581eb8527f66eae9ee89c2a3e79d4ac7e41a1f1f4d48a7fc28280a280f35b5163e6c4247b60e01b8152fd5b83516354348f0360e01b81528390fd5b8280fd5b905034620001965760203660031901126200019657620001b9620007ac565b83546001600160a01b03919082163303620001865716918215620001795750506bffffffffffffffffffffffff60a01b600154161760015580f35b90503462000196576020366003190112620001965735916003548310156200023a57506200022460209262000859565b60018060a01b0391549060031b1c169051908152f35b80fd5b83915034620001005760209081600319360112620001965762000261813562000859565b90548551634b60ce7760e01b815260039290921b1c6001600160a01b039081169490928490839081885afa918215620002eb578192620002aa575b505084519384521690820152f35b9091508381813d8311620002e3575b620002c58183620007c7565b810103126200010057519082821682036200023a575085806200029c565b503d620002b9565b508551903d90823e3d90fd5b919050346200019657602036600319011262000196578254823592906001600160a01b031633036200036d576103e883116200035f5750816020917fd10d75876659a287a59a6ccfa2e3fff42f84d94b542837acd30bc184d562de409360055551908152a180f35b905163cd4e616760e01b8152fd5b90516354348f0360e01b8152fd5b5050346200010057816003193601126200010057905490516001600160a01b039091168152602090f35b838334620001005760603660031901126200010057620003c4620007ac565b9167ffffffffffffffff906024358281116200010057620003e99036908701620007fe565b916044358181116200019657620004049036908801620007fe565b6001600160a01b039586169384158015620005ee575b620005de578484526002602052868685205416620005ce57868454169262ffffff806006541693898b54169160055416938951966121cd8089019589871090871117620005ba5792620004bd60e09593620004cc938f8f908f8e9d9c9b998e620008e4903989527f0000000000000000000000000000000000000000000000000000000000000000166020890152870152610100806060880152860190620008a3565b908482036080860152620008a3565b9460a083015260c08201520152039082f08015620005ae578416938282526002602052838220856bffffffffffffffffffffffff60a01b825416179055600354680100000000000000008110156200059b5780600162000530920160035562000859565b819291549060031b9187831b921b1916179055600354905f19820191821162000588576020858581867f0b045af6aff86dd2cda5342fd0329a354dc66759ff1eda00d7ecf13a76c7fb3b85888551908152a351908152f35b634e487b7160e01b815260118652602490fd5b634e487b7160e01b835260418752602483fd5b508251903d90823e3d90fd5b50634e487b7160e01b895260418d52602489fd5b855163108e5c5f60e21b81528890fd5b855163e6c4247b60e01b81528890fd5b50867f00000000000000000000000000000000000000000000000000000000000000001685146200041a565b50503462000100578160031936011262000100576020906003549051908152f35b90503462000196578260031936011262000196575490516001600160a01b03909116815260209150f35b5050346200010057816003193601126200010057517f00000000000000000000000000000000000000000000000000000000000000006001600160a01b03168152602090f35b50503462000100578160031936011262000100576020906005549051908152f35b505034620001005781600319360112620001005760209062ffffff600654169051908152f35b90503462000196578260031936011262000196576001546001600160a01b0380821693909290338590036200076357505083546001600160a01b031980821685178655909116600155167f5f56bee8cffbe9a78652a74a60705edede02af10b0bbb888ca44b79a0d42ce808380a380f35b516354348f0360e01b8152fd5b849084346200019657602036600319011262000196576020926001600160a01b039190826200079e620007ac565b168152600285522054168152f35b600435906001600160a01b0382168203620007c357565b5f80fd5b90601f8019910116810190811067ffffffffffffffff821117620007ea57604052565b634e487b7160e01b5f52604160045260245ffd5b81601f82011215620007c35780359067ffffffffffffffff8211620007ea576040519262000837601f8401601f191660200185620007c7565b82845260208383010111620007c357815f926020809301838601378301015290565b6003548110156200088f5760035f527fc2575a0e9e593c00f959f8c92f12db2869c3395a3b0502d05e2516446f71f85b01905f90565b634e487b7160e01b5f52603260045260245ffd5b91908251928382525f5b848110620008ce575050825f602080949584010152601f8019910116010190565b602081830181015184830182015201620008ad56fe60406101408152346200052857620021cd908138038062000020816200052c565b93843982019061010092838184031262000528576200003f8162000552565b9260206200004f81840162000552565b6200005c85850162000552565b60608501516001600160401b0397919291908881116200052857856200008491880162000567565b946080870151908982116200052857620000a091880162000567565b620000ae60a08801620005d7565b95620000cb60e0620000c360c08b0162000552565b9901620005d7565b9981518181116200042e576003908154906001948583811c931680156200051d575b8b841014620005095781908b601f94858111620004b3575b50508b908483116001146200044e575f9262000442575b50505f1982851b1c191690851b1782555b84519283116200042e5760049485548581811c9116801562000423575b8b82101462000410579081838695949311620003b9575b508a91841160011462000352575f9362000346575b505082841b925f19911b1c19161782555b6005556001600160a01b03948286161580156200033b575b801562000330575b620003215761271062ffffff81818a161015620002ef578b1611620002ad57505060805260a0521660018060a01b031960065416176006553360c05260e05283526101209182525190611be49283620005e984396080518381816101dc015281816107a301528181610abc01528181610c5601528181610fde0152818161119301526116e0015260a051838181610234015281816105c9015281816107f101528181610ae101528181610c8001528181611155015281816111d7015261170c015260c05183610706015260e05183818161029201526112ae0152518281816102d7015281816104980152610f080152518181816104fa015281816105340152610e980152f35b885162461bcd60e51b815291820152601760248201527f50524f544f434f4c5f53484152455f544f4f5f48494748000000000000000000604482015260649150fd5b8a5162461bcd60e51b8152808501849052600c60248201526b08c8a8abea89e9ebe90928e960a31b6044820152606490fd5b50875163e6c4247b60e01b8152fd5b5085851615620001a7565b50858416156200019f565b015191505f8062000176565b9190859450601f19841692875f528b5f20935f5b8d828210620003a2575050851162000388575b50505050811b01825562000187565b01519060f8845f19921b161c191690555f80808062000379565b838501518755899890960195938401930162000366565b9091929350865f528a5f208380870160051c8201928d881062000406575b9188918897969594930160051c01915b828110620003f757505062000161565b5f8155879650889101620003e7565b92508192620003d7565b602287634e487b7160e01b5f525260245ffd5b90607f16906200014a565b634e487b7160e01b5f52604160045260245ffd5b015190505f806200011c565b5f8681528d8120899550929190601f198516908f5b8282106200049b575050841162000483575b505050811b0182556200012d565b01515f1983871b60f8161c191690555f808062000475565b8385015186558b979095019493840193018f62000463565b90919250855f5284825f209181860160051c8301938610620004ff575b918991869594930160051c01915b828110620004f057508d915062000105565b5f8155859450899101620004de565b92508192620004d0565b634e487b7160e01b5f52602260045260245ffd5b92607f1692620000ed565b5f80fd5b6040519190601f01601f191682016001600160401b038111838210176200042e57604052565b51906001600160a01b03821682036200052857565b919080601f84011215620005285782516001600160401b0381116200042e576020906200059d601f8201601f191683016200052c565b9281845282828701011162000528575f5b818110620005c35750825f9394955001015290565b8581018301518482018401528201620005ae565b519062ffffff82168203620005285756fe60806040526004361015610011575f80fd5b5f3560e01c8062aeef8a1461164c57806306fdde031461158e5780630902f1ac1461156a578063095ea7b3146114e85780630a28a477146114ca57806318160ddd146114ad5780631c481e2d146114415780631dec151514611424578063238efcbc146113bc57806323b872dd146112d25780632ffdaf8914611293578063313ce5671461127857806333a100ca146112065780633e413bee146111c25780634b60ce771461117e5780634cc15d6414610f9e57806354d1886414610f815780635aa6e67514610f5957806360da3e8314610f3757806364df049e14610ef357806370a0823114610ebc5780639040f86614610e7d57806395d89b4114610d76578063974d8c9314610d4c578063a41fe49f14610b61578063a8c62e7614610b39578063a9059cbb14610b08578063aa6ca80814610a9e578063b269add314610735578063c45a0155146106f1578063d38bfff41461068e578063dd62ed3e14610641578063e1e158a514610625578063f39c38a0146105fd5763f3e6ea8a14610199575f80fd5b346105f95760803660031901126105f9576101b26118e8565b606435906001600160a01b03821682036105f9576101ce611ad4565b6001600160a01b03908116917f0000000000000000000000000000000000000000000000000000000000000000918216831415806105c6575b6105b4576001600160a01b038116156105a25760243515610590576001600160a01b0382168303610589577f0000000000000000000000000000000000000000000000000000000000000000925b6001600160a01b038316810361058057600954925b6001600160a01b038116820361057757600a54935b8015801561056f575b61044e5762ffffff7f00000000000000000000000000000000000000000000000000000000000000001661271003612710811161055b576102ce612710916024356119ee565b5f9691900491907f00000000000000000000000000000000000000000000000000000000000000006001600160a01b031615158061052d575b6104d5575b906103248361031e61032a94826119ee565b926119e1565b90611a01565b9460443586106104c35785156104c357610348602435303387611a1f565b80610492575b506001600160a01b03821683036104605761036b906009546119e1565b6009558361037b81600a54611af7565b80600a551061044e5761039b84846020975b6001600160a01b0316611b04565b6001600160a01b031603610400576040519060243582525f848301525f604083015282606083015260018060a01b0316907fd78ad95fa46c994b6551d0da85fc275fe613ce37657fb8d5e3d130840159d82260803392a35b6001600555604051908152f35b604051905f8252602435848301528260408301525f606083015260018060a01b0316907fd78ad95fa46c994b6551d0da85fc275fe613ce37657fb8d5e3d130840159d82260803392a36103f3565b60405163bb55fd2760e01b8152600490fd5b61046c90600a546119e1565b600a558361047c81600954611af7565b806009551061044e5761039b848460209761038d565b6104bd907f000000000000000000000000000000000000000000000000000000000000000085611b04565b5f61034e565b60405163bb2875c360e01b8152600490fd5b955061032a906103248361031e6127106105206104f484602435611af7565b62ffffff7f000000000000000000000000000000000000000000000000000000000000000016906119ee565b049993945050505061030c565b5062ffffff7f0000000000000000000000000000000000000000000000000000000000000000161515610307565b634e487b7160e01b5f52601160045260245ffd5b508415610288565b6009549361027f565b600a549261026a565b8192610255565b604051632ca2f52b60e11b8152600490fd5b60405163e6c4247b60e01b8152600490fd5b60405163c1ab6dc160e01b8152600490fd5b507f00000000000000000000000000000000000000000000000000000000000000006001600160a01b0316831415610207565b5f80fd5b346105f9575f3660031901126105f9576007546040516001600160a01b039091168152602090f35b346105f9575f3660031901126105f95760206040516103e88152f35b346105f95760403660031901126105f95761065a6118e8565b6106626118fe565b9060018060a01b038091165f52600160205260405f2091165f52602052602060405f2054604051908152f35b346105f95760203660031901126105f9576106a76118e8565b6006546001600160a01b039190821633036106df571680156105a2576bffffffffffffffffffffffff60a01b60075416176007555f80f35b6040516354348f0360e01b8152600490fd5b346105f9575f3660031901126105f9576040517f00000000000000000000000000000000000000000000000000000000000000006001600160a01b03168152602090f35b346105f9576020806003193601126105f95767ffffffffffffffff906004358281116105f957366023820112156105f95780600401358381116105f957602491368383830101116105f9576006546001600160a01b0390811633036106df5780600854169081156105a257807f000000000000000000000000000000000000000000000000000000000000000016604051926370a0823160e01b9283855230600486015288858981865afa9485156109a3575f95610a6f575b507f000000000000000000000000000000000000000000000000000000000000000016946040519084825230600483015289828a818a5afa9788156109a35789925f99610a36575b50915f809492848295604051948593018337810182815203925af13d15610a2d573d988911610a1a5760405198610876601f8201601f19168a018b611914565b89523d5f898b013e5b156109df5790868692604051938480928582523060048301525afa9586156109a35787925f976109ae575b506040518095819382523060048301525afa9182156109a3575f92610952575b509083604093927f8f9497c27f572ff1a65e8b2c7a0706d466466ae0b5efc78462b5f0021da669569560095582600a558082115f146109495761090c91611af7565b915b808211156109415761091f91611af7565b825191825284820152a161093d6040519282849384528301906118aa565b0390f35b50505f61091f565b50505f9161090e565b9291508483813d831161099c575b61096a8183611914565b810103126105f957915190917f8f9497c27f572ff1a65e8b2c7a0706d466466ae0b5efc78462b5f0021da669566108ca565b503d610960565b6040513d5f823e3d90fd5b8381949298503d83116109d8575b6109c68183611914565b810103126105f95786915195896108aa565b503d6109bc565b60405162461bcd60e51b8152600481018890526014818801527314dd1c985d1959de4818d85b1b0819985a5b195960621b6044820152606490fd5b86634e487b7160e01b5f5260416004525ffd5b6060985061087f565b8b80929a508194509492943d8311610a68575b610a538183611914565b810103126105f957905196909188915f610836565b503d610a49565b9094508881813d8311610a97575b610a878183611914565b810103126105f95751938a6107ee565b503d610a7d565b346105f9575f3660031901126105f957604080516001600160a01b037f0000000000000000000000000000000000000000000000000000000000000000811682527f0000000000000000000000000000000000000000000000000000000000000000166020820152f35b346105f95760403660031901126105f957610b2e610b246118e8565b6024359033611936565b602060405160018152f35b346105f9575f3660031901126105f9576008546040516001600160a01b039091168152602090f35b346105f957610b6f36611890565b90610b78611ad4565b821561059057335f525f6020528260405f205410610d3a57600254600954610ba982610ba483886119ee565b611a01565b93610bbb600a5493610ba485896119ee565b938510908115610d30575b5061059057610be291610bda858593611af7565b600955611af7565b600a553315610d1857335f525f60205260405f2054838110610cf1579280604094335f525f60205203845f205580600254036002555f84518281527fddf252ad1be2c89b69c2b068fc378daa952ba7f163c4a11628f55a4df523b3ef60203392a3610ca5826001600160a01b03610c7c86337f00000000000000000000000000000000000000000000000000000000000000008416611b04565b33907f000000000000000000000000000000000000000000000000000000000000000016611b04565b8351908152602081018390526040810182905233907f75e161b3e824b114fc1a33274bd7091918dd4e639cede50b78b15a4eea956a2190606090a2600160055582519182526020820152f35b60405163391434e360e21b8152336004820152602481019190915260448101849052606490fd5b604051634b637e8f60e11b81525f6004820152602490fd5b9050831086610bc6565b604051633999656760e01b8152600490fd5b346105f95760203660031901126105f9576040610d6a600435611b85565b82519182526020820152f35b346105f9575f3660031901126105f9576040515f60045490600182811c91818416918215610e73575b6020948585108414610e5f5785879486865291825f14610e3f575050600114610de4575b50610dd092500383611914565b61093d6040519282849384528301906118aa565b84915060045f527f8a35acfbc15ff81a39ae7d344fd709f28e8600b4aa8c65c6b64bfe7fe36bd19b905f915b858310610e27575050610dd0935082010185610dc3565b80548389018501528794508693909201918101610e10565b60ff191685820152610dd095151560051b8501019250879150610dc39050565b634e487b7160e01b5f52602260045260245ffd5b92607f1692610d9f565b346105f9575f3660031901126105f957602060405162ffffff7f0000000000000000000000000000000000000000000000000000000000000000168152f35b346105f95760203660031901126105f9576001600160a01b03610edd6118e8565b165f525f602052602060405f2054604051908152f35b346105f9575f3660031901126105f9576040517f00000000000000000000000000000000000000000000000000000000000000006001600160a01b03168152602090f35b346105f9575f3660031901126105f957602060ff600b54166040519015158152f35b346105f9575f3660031901126105f9576006546040516001600160a01b039091168152602090f35b346105f9575f3660031901126105f9576020600954604051908152f35b346105f95760403660031901126105f957610fb76118e8565b6006546001600160a01b039190821633036106df5781600854169081156105a257821691807f0000000000000000000000000000000000000000000000000000000000000000168314159081611151575b506105a257604051636eb1769f60e11b81523060048201526001600160a01b0382166024820152602092908381604481855afa80156109a3575f90611122575b6110569150602435906119e1565b60405163095ea7b360e01b8582018181526001600160a01b038616602484015260448084019490945292825290939185905f90611094606488611914565b86519082875af15f513d82611106575b5050156110ad57005b6040519485015260248401525f6044840152604483526080830183811067ffffffffffffffff8211176110f2576110f0936110eb9160405282611a7a565b611a7a565b005b634e487b7160e01b5f52604160045260245ffd5b90915061111a5750823b15155b86806110a4565b600114611113565b508381813d831161114a575b6111388183611914565b810103126105f9576110569051611048565b503d61112e565b90507f00000000000000000000000000000000000000000000000000000000000000001682141583611008565b346105f9575f3660031901126105f9576040517f00000000000000000000000000000000000000000000000000000000000000006001600160a01b03168152602090f35b346105f9575f3660031901126105f9576040517f00000000000000000000000000000000000000000000000000000000000000006001600160a01b03168152602090f35b346105f95760203660031901126105f95761121f6118e8565b6006546001600160a01b0390811633036106df5780600854921691826bffffffffffffffffffffffff60a01b821617600855167fe4cec16b1a7e6b7979e923da619a8b1e5fd0f0fb6e5c1cf647f350430ee61ca95f80a3005b346105f9575f3660031901126105f957602060405160128152f35b346105f9575f3660031901126105f957602060405162ffffff7f0000000000000000000000000000000000000000000000000000000000000000168152f35b346105f95760603660031901126105f9576112eb6118e8565b6112f36118fe565b6001600160a01b0382165f8181526001602090815260408083203384529091529020549260443592915f198510611330575b50610b2e9350611936565b83851061139657801561137e57331561136657610b2e9484915f52600160205260405f20335f526020520360405f205584611325565b604051634a1406b160e11b81525f6004820152602490fd5b60405163e602df0560e01b81525f6004820152602490fd5b604051637dc7a0d960e11b81523360048201526024810186905260448101859052606490fd5b346105f9575f3660031901126105f9576007546001600160a01b0380821691338390036106df57600680546001600160a01b031980821686179092559116600755167f5f56bee8cffbe9a78652a74a60705edede02af10b0bbb888ca44b79a0d42ce805f80a3005b346105f9575f3660031901126105f9576020600a54604051908152f35b346105f95760203660031901126105f9576004358015158091036105f9576006546001600160a01b031633036106df5760207f9723f28d4abaff5df0f62bfb2418f2aac4a739b259edf209b8dc9944fa85aa789160ff19600b541660ff821617600b55604051908152a1005b346105f9575f3660031901126105f9576020600254604051908152f35b346105f95760203660031901126105f9576040610d6a600435611b40565b346105f95760403660031901126105f9576115016118e8565b60243590331561137e576001600160a01b031690811561136657335f52600160205260405f20825f526020528060405f20556040519081527f8c5be1e5ebec7d5bd14f71427d1e84f3dd0314c0f7b2291e5b200ac8c7c3b92560203392a3602060405160018152f35b346105f9575f3660031901126105f9576040600954600a5482519182526020820152f35b346105f9575f3660031901126105f9576040515f60035490600182811c91818416918215611642575b6020948585108414610e5f5785879486865291825f14610e3f5750506001146115e75750610dd092500383611914565b84915060035f527fc2575a0e9e593c00f959f8c92f12db2869c3395a3b0502d05e2516446f71f85b905f915b85831061162a575050610dd0935082010185610dc3565b80548389018501528794508693909201918101611613565b92607f16926115b7565b346105f95761165a36611890565b9091611664611ad4565b60ff600b541661187e576103e8808210908115611874575b506105905760025480611831575061169483826119ee565b915f600384111561182257508260019080821c82810180911161055b5791905b858310611802575050505b8215610590575b8210610d3a57611731836001600160a01b036117068430337f00000000000000000000000000000000000000000000000000000000000000008516611a1f565b309033907f000000000000000000000000000000000000000000000000000000000000000016611a1f565b61173d816009546119e1565b60095561174c83600a546119e1565b600a5533156117ea577f91ede45f04a37a7c170f5c1207df3b6bc748dc1e04ad5e917a241d0f52feada382602094611786826002546119e1565b600255335f525f865260405f208281540190556040518281525f7fddf252ad1be2c89b69c2b068fc378daa952ba7f163c4a11628f55a4df523b3ef883393a36040805194855260208501919091528301523391606090a26001600555604051908152f35b60405163ec442f0560e01b81525f6004820152602490fd5b90919450611819856118148184611a01565b6119e1565b821c91906116b4565b92156116bf57600192506116bf565b61185d61185461184d61184484866119ee565b60095490611a01565b92866119ee565b600a5490611a01565b8082101561186d57505b916116c6565b9050611867565b905083108461167c565b60405163deeb694360e01b8152600490fd5b60609060031901126105f957600435906024359060443590565b91908251928382525f5b8481106118d4575050825f602080949584010152601f8019910116010190565b6020818301810151848301820152016118b4565b600435906001600160a01b03821682036105f957565b602435906001600160a01b03821682036105f957565b90601f8019910116810190811067ffffffffffffffff8211176110f257604052565b916001600160a01b03808416928315610d1857169283156117ea575f90838252816020526040822054908382106119af575091604082827fddf252ad1be2c89b69c2b068fc378daa952ba7f163c4a11628f55a4df523b3ef958760209652828652038282205586815220818154019055604051908152a3565b60405163391434e360e21b81526001600160a01b03919091166004820152602481019190915260448101839052606490fd5b9190820180921161055b57565b8181029291811591840414171561055b57565b8115611a0b570490565b634e487b7160e01b5f52601260045260245ffd5b6040516323b872dd60e01b60208201526001600160a01b03928316602482015292909116604483015260648083019390935291815260a081019181831067ffffffffffffffff8411176110f257611a7892604052611a7a565b565b905f602091828151910182855af1156109a3575f513d611acb57506001600160a01b0381163b155b611aa95750565b604051635274afe760e01b81526001600160a01b039091166004820152602490fd5b60011415611aa2565b600260055414611ae5576002600555565b604051633ee5aeb560e01b8152600490fd5b9190820391821161055b57565b60405163a9059cbb60e01b60208201526001600160a01b03929092166024830152604480830193909352918152611a78916110eb606483611914565b9081158015611b7b575b611b7457611b71600254610ba4611b6782610ba4600954886119ee565b94600a54906119ee565b90565b5f91508190565b5060025415611b4a565b906002548015611ba65780610ba4611b67611b7193610ba4600954886119ee565b505f9150819056fea264697066735822122009b3f31d5545bca965d7915df7f023bc4b8e6ff16685128007ce5b3af257e66664736f6c63430008140033a26469706673582212200785c6b2e36e3c9b827427ba7b270a4a34b7781c720e78efdf60062f5af0d04c64736f6c63430008140033","opcodes":"PUSH1 0xA0 CALLVALUE PUSH2 0xF0 JUMPI PUSH1 0x1F PUSH2 0x2C03 CODESIZE DUP2 SWAP1 SUB SWAP2 DUP3 ADD PUSH1 0x1F NOT AND DUP4 ADD SWAP2 PUSH1 0x1 PUSH1 0x1 PUSH1 0x40 SHL SUB DUP4 GT DUP5 DUP5 LT OR PUSH2 0xF4 JUMPI DUP1 DUP5 SWAP3 PUSH1 0x60 SWAP5 PUSH1 0x40 MSTORE DUP4 CODECOPY DUP2 ADD SUB SLT PUSH2 0xF0 JUMPI PUSH2 0x47 DUP2 PUSH2 0x108 JUMP JUMPDEST PUSH1 0x40 PUSH2 0x55 PUSH1 0x20 DUP5 ADD PUSH2 0x108 JUMP JUMPDEST SWAP3 ADD MLOAD SWAP2 PUSH3 0xFFFFFF DUP4 AND DUP1 SWAP4 SUB PUSH2 0xF0 JUMPI PUSH1 0x1 PUSH1 0x1 PUSH1 0xA0 SHL SUB SWAP1 DUP3 DUP3 AND ISZERO DUP1 ISZERO PUSH2 0xE6 JUMPI JUMPDEST PUSH2 0xD4 JUMPI PUSH1 0x1 DUP1 PUSH1 0xA0 SHL SUB NOT SWAP3 CALLER DUP5 PUSH0 SLOAD AND OR PUSH0 SSTORE PUSH1 0x80 MSTORE AND SWAP1 PUSH1 0x4 SLOAD AND OR PUSH1 0x4 SSTORE PUSH1 0xA PUSH1 0x5 SSTORE PUSH3 0xFFFFFF NOT PUSH1 0x6 SLOAD AND OR PUSH1 0x6 SSTORE PUSH1 0x40 MLOAD PUSH2 0x2AE6 SWAP1 DUP2 PUSH2 0x11D DUP3 CODECOPY PUSH1 0x80 MLOAD DUP2 DUP2 DUP2 PUSH2 0x483 ADD MSTORE DUP2 DUP2 PUSH2 0x5F2 ADD MSTORE PUSH2 0x67C ADD MSTORE RETURN JUMPDEST PUSH1 0x40 MLOAD PUSH4 0xE6C4247B PUSH1 0xE0 SHL DUP2 MSTORE PUSH1 0x4 SWAP1 REVERT JUMPDEST POP DUP2 DUP2 AND ISZERO PUSH2 0x7A JUMP JUMPDEST PUSH0 DUP1 REVERT JUMPDEST PUSH4 0x4E487B71 PUSH1 0xE0 SHL PUSH0 MSTORE PUSH1 0x41 PUSH1 0x4 MSTORE PUSH1 0x24 PUSH0 REVERT JUMPDEST MLOAD SWAP1 PUSH1 0x1 PUSH1 0x1 PUSH1 0xA0 SHL SUB DUP3 AND DUP3 SUB PUSH2 0xF0 JUMPI JUMP INVALID PUSH1 0x80 PUSH1 0x40 DUP2 DUP2 MSTORE PUSH1 0x4 SWAP2 DUP3 CALLDATASIZE LT ISZERO PUSH3 0x16 JUMPI PUSH0 DUP1 REVERT JUMPDEST PUSH0 SWAP3 DUP4 CALLDATALOAD PUSH1 0xE0 SHR SWAP2 DUP3 PUSH4 0xEB9AF38 EQ PUSH3 0x770 JUMPI POP DUP2 PUSH4 0x238EFCBC EQ PUSH3 0x6F2 JUMPI DUP2 PUSH4 0x2FFDAF89 EQ PUSH3 0x6CC JUMPI DUP2 PUSH4 0x35659FB8 EQ PUSH3 0x6AB JUMPI DUP2 PUSH4 0x3E413BEE EQ PUSH3 0x665 JUMPI DUP2 PUSH4 0x46904840 EQ PUSH3 0x63B JUMPI DUP2 PUSH4 0x4CD18577 EQ PUSH3 0x61A JUMPI DUP2 PUSH4 0x515D61EC EQ PUSH3 0x3A5 JUMPI DUP2 PUSH4 0x5AA6E675 EQ PUSH3 0x37B JUMPI DUP2 PUSH4 0x787DCE3D EQ PUSH3 0x2F7 JUMPI DUP2 PUSH4 0x8C3D6090 EQ PUSH3 0x23D JUMPI DUP2 PUSH4 0x9094A91E EQ PUSH3 0x1F4 JUMPI DUP2 PUSH4 0xD38BFFF4 EQ PUSH3 0x19A JUMPI DUP2 PUSH4 0xE74B981B EQ PUSH3 0x104 JUMPI POP PUSH4 0xF39C38A0 EQ PUSH3 0xD7 JUMPI PUSH0 DUP1 REVERT JUMPDEST CALLVALUE PUSH3 0x100 JUMPI DUP2 PUSH1 0x3 NOT CALLDATASIZE ADD SLT PUSH3 0x100 JUMPI PUSH1 0x1 SLOAD SWAP1 MLOAD PUSH1 0x1 PUSH1 0x1 PUSH1 0xA0 SHL SUB SWAP1 SWAP2 AND DUP2 MSTORE PUSH1 0x20 SWAP1 RETURN JUMPDEST POP DUP1 REVERT JUMPDEST SWAP1 POP CALLVALUE PUSH3 0x196 JUMPI PUSH1 0x20 CALLDATASIZE PUSH1 0x3 NOT ADD SLT PUSH3 0x196 JUMPI PUSH3 0x123 PUSH3 0x7AC JUMP JUMPDEST DUP4 SLOAD PUSH1 0x1 PUSH1 0x1 PUSH1 0xA0 SHL SUB SWAP2 SWAP1 DUP3 AND CALLER SUB PUSH3 0x186 JUMPI AND SWAP2 DUP3 ISZERO PUSH3 0x179 JUMPI POP DUP1 SLOAD PUSH1 0x1 PUSH1 0x1 PUSH1 0xA0 SHL SUB NOT AND DUP3 OR SWAP1 SSTORE PUSH32 0x7A7B5A0A132F9E0581EB8527F66EAE9EE89C2A3E79D4AC7E41A1F1F4D48A7FC2 DUP3 DUP1 LOG2 DUP1 RETURN JUMPDEST MLOAD PUSH4 0xE6C4247B PUSH1 0xE0 SHL DUP2 MSTORE REVERT JUMPDEST DUP4 MLOAD PUSH4 0x54348F03 PUSH1 0xE0 SHL DUP2 MSTORE DUP4 SWAP1 REVERT JUMPDEST DUP3 DUP1 REVERT JUMPDEST SWAP1 POP CALLVALUE PUSH3 0x196 JUMPI PUSH1 0x20 CALLDATASIZE PUSH1 0x3 NOT ADD SLT PUSH3 0x196 JUMPI PUSH3 0x1B9 PUSH3 0x7AC JUMP JUMPDEST DUP4 SLOAD PUSH1 0x1 PUSH1 0x1 PUSH1 0xA0 SHL SUB SWAP2 SWAP1 DUP3 AND CALLER SUB PUSH3 0x186 JUMPI AND SWAP2 DUP3 ISZERO PUSH3 0x179 JUMPI POP POP PUSH12 0xFFFFFFFFFFFFFFFFFFFFFFFF PUSH1 0xA0 SHL PUSH1 0x1 SLOAD AND OR PUSH1 0x1 SSTORE DUP1 RETURN JUMPDEST SWAP1 POP CALLVALUE PUSH3 0x196 JUMPI PUSH1 0x20 CALLDATASIZE PUSH1 0x3 NOT ADD SLT PUSH3 0x196 JUMPI CALLDATALOAD SWAP2 PUSH1 0x3 SLOAD DUP4 LT ISZERO PUSH3 0x23A JUMPI POP PUSH3 0x224 PUSH1 0x20 SWAP3 PUSH3 0x859 JUMP JUMPDEST PUSH1 0x1 DUP1 PUSH1 0xA0 SHL SUB SWAP2 SLOAD SWAP1 PUSH1 0x3 SHL SHR AND SWAP1 MLOAD SWAP1 DUP2 MSTORE RETURN JUMPDEST DUP1 REVERT JUMPDEST DUP4 SWAP2 POP CALLVALUE PUSH3 0x100 JUMPI PUSH1 0x20 SWAP1 DUP2 PUSH1 0x3 NOT CALLDATASIZE ADD SLT PUSH3 0x196 JUMPI PUSH3 0x261 DUP2 CALLDATALOAD PUSH3 0x859 JUMP JUMPDEST SWAP1 SLOAD DUP6 MLOAD PUSH4 0x4B60CE77 PUSH1 0xE0 SHL DUP2 MSTORE PUSH1 0x3 SWAP3 SWAP1 SWAP3 SHL SHR PUSH1 0x1 PUSH1 0x1 PUSH1 0xA0 SHL SUB SWAP1 DUP2 AND SWAP5 SWAP1 SWAP3 DUP5 SWAP1 DUP4 SWAP1 DUP2 DUP9 GAS STATICCALL SWAP2 DUP3 ISZERO PUSH3 0x2EB JUMPI DUP2 SWAP3 PUSH3 0x2AA JUMPI JUMPDEST POP POP DUP5 MLOAD SWAP4 DUP5 MSTORE AND SWAP1 DUP3 ADD MSTORE RETURN JUMPDEST SWAP1 SWAP2 POP DUP4 DUP2 DUP2 RETURNDATASIZE DUP4 GT PUSH3 0x2E3 JUMPI JUMPDEST PUSH3 0x2C5 DUP2 DUP4 PUSH3 0x7C7 JUMP JUMPDEST DUP2 ADD SUB SLT PUSH3 0x100 JUMPI MLOAD SWAP1 DUP3 DUP3 AND DUP3 SUB PUSH3 0x23A JUMPI POP DUP6 DUP1 PUSH3 0x29C JUMP JUMPDEST POP RETURNDATASIZE PUSH3 0x2B9 JUMP JUMPDEST POP DUP6 MLOAD SWAP1 RETURNDATASIZE SWAP1 DUP3 RETURNDATACOPY RETURNDATASIZE SWAP1 REVERT JUMPDEST SWAP2 SWAP1 POP CALLVALUE PUSH3 0x196 JUMPI PUSH1 0x20 CALLDATASIZE PUSH1 0x3 NOT ADD SLT PUSH3 0x196 JUMPI DUP3 SLOAD DUP3 CALLDATALOAD SWAP3 SWAP1 PUSH1 0x1 PUSH1 0x1 PUSH1 0xA0 SHL SUB AND CALLER SUB PUSH3 0x36D JUMPI PUSH2 0x3E8 DUP4 GT PUSH3 0x35F JUMPI POP DUP2 PUSH1 0x20 SWAP2 PUSH32 0xD10D75876659A287A59A6CCFA2E3FFF42F84D94B542837ACD30BC184D562DE40 SWAP4 PUSH1 0x5 SSTORE MLOAD SWAP1 DUP2 MSTORE LOG1 DUP1 RETURN JUMPDEST SWAP1 MLOAD PUSH4 0xCD4E6167 PUSH1 0xE0 SHL DUP2 MSTORE REVERT JUMPDEST SWAP1 MLOAD PUSH4 0x54348F03 PUSH1 0xE0 SHL DUP2 MSTORE REVERT JUMPDEST POP POP CALLVALUE PUSH3 0x100 JUMPI DUP2 PUSH1 0x3 NOT CALLDATASIZE ADD SLT PUSH3 0x100 JUMPI SWAP1 SLOAD SWAP1 MLOAD PUSH1 0x1 PUSH1 0x1 PUSH1 0xA0 SHL SUB SWAP1 SWAP2 AND DUP2 MSTORE PUSH1 0x20 SWAP1 RETURN JUMPDEST DUP4 DUP4 CALLVALUE PUSH3 0x100 JUMPI PUSH1 0x60 CALLDATASIZE PUSH1 0x3 NOT ADD SLT PUSH3 0x100 JUMPI PUSH3 0x3C4 PUSH3 0x7AC JUMP JUMPDEST SWAP2 PUSH8 0xFFFFFFFFFFFFFFFF SWAP1 PUSH1 0x24 CALLDATALOAD DUP3 DUP2 GT PUSH3 0x100 JUMPI PUSH3 0x3E9 SWAP1 CALLDATASIZE SWAP1 DUP8 ADD PUSH3 0x7FE JUMP JUMPDEST SWAP2 PUSH1 0x44 CALLDATALOAD DUP2 DUP2 GT PUSH3 0x196 JUMPI PUSH3 0x404 SWAP1 CALLDATASIZE SWAP1 DUP9 ADD PUSH3 0x7FE JUMP JUMPDEST PUSH1 0x1 PUSH1 0x1 PUSH1 0xA0 SHL SUB SWAP6 DUP7 AND SWAP4 DUP5 ISZERO DUP1 ISZERO PUSH3 0x5EE JUMPI JUMPDEST PUSH3 0x5DE JUMPI DUP5 DUP5 MSTORE PUSH1 0x2 PUSH1 0x20 MSTORE DUP7 DUP7 DUP6 KECCAK256 SLOAD AND PUSH3 0x5CE JUMPI DUP7 DUP5 SLOAD AND SWAP3 PUSH3 0xFFFFFF DUP1 PUSH1 0x6 SLOAD AND SWAP4 DUP10 DUP12 SLOAD AND SWAP2 PUSH1 0x5 SLOAD AND SWAP4 DUP10 MLOAD SWAP7 PUSH2 0x21CD DUP1 DUP10 ADD SWAP6 DUP10 DUP8 LT SWAP1 DUP8 GT OR PUSH3 0x5BA JUMPI SWAP3 PUSH3 0x4BD PUSH1 0xE0 SWAP6 SWAP4 PUSH3 0x4CC SWAP4 DUP16 DUP16 SWAP1 DUP16 DUP15 SWAP14 SWAP13 SWAP12 SWAP10 DUP15 PUSH3 0x8E4 SWAP1 CODECOPY DUP10 MSTORE PUSH32 0x0 AND PUSH1 0x20 DUP10 ADD MSTORE DUP8 ADD MSTORE PUSH2 0x100 DUP1 PUSH1 0x60 DUP9 ADD MSTORE DUP7 ADD SWAP1 PUSH3 0x8A3 JUMP JUMPDEST SWAP1 DUP5 DUP3 SUB PUSH1 0x80 DUP7 ADD MSTORE PUSH3 0x8A3 JUMP JUMPDEST SWAP5 PUSH1 0xA0 DUP4 ADD MSTORE PUSH1 0xC0 DUP3 ADD MSTORE ADD MSTORE SUB SWAP1 DUP3 CREATE DUP1 ISZERO PUSH3 0x5AE JUMPI DUP5 AND SWAP4 DUP3 DUP3 MSTORE PUSH1 0x2 PUSH1 0x20 MSTORE DUP4 DUP3 KECCAK256 DUP6 PUSH12 0xFFFFFFFFFFFFFFFFFFFFFFFF PUSH1 0xA0 SHL DUP3 SLOAD AND OR SWAP1 SSTORE PUSH1 0x3 SLOAD PUSH9 0x10000000000000000 DUP2 LT ISZERO PUSH3 0x59B JUMPI DUP1 PUSH1 0x1 PUSH3 0x530 SWAP3 ADD PUSH1 0x3 SSTORE PUSH3 0x859 JUMP JUMPDEST DUP2 SWAP3 SWAP2 SLOAD SWAP1 PUSH1 0x3 SHL SWAP2 DUP8 DUP4 SHL SWAP3 SHL NOT AND OR SWAP1 SSTORE PUSH1 0x3 SLOAD SWAP1 PUSH0 NOT DUP3 ADD SWAP2 DUP3 GT PUSH3 0x588 JUMPI PUSH1 0x20 DUP6 DUP6 DUP2 DUP7 PUSH32 0xB045AF6AFF86DD2CDA5342FD0329A354DC66759FF1EDA00D7ECF13A76C7FB3B DUP6 DUP9 DUP6 MLOAD SWAP1 DUP2 MSTORE LOG3 MLOAD SWAP1 DUP2 MSTORE RETURN JUMPDEST PUSH4 0x4E487B71 PUSH1 0xE0 SHL DUP2 MSTORE PUSH1 0x11 DUP7 MSTORE PUSH1 0x24 SWAP1 REVERT JUMPDEST PUSH4 0x4E487B71 PUSH1 0xE0 SHL DUP4 MSTORE PUSH1 0x41 DUP8 MSTORE PUSH1 0x24 DUP4 REVERT JUMPDEST POP DUP3 MLOAD SWAP1 RETURNDATASIZE SWAP1 DUP3 RETURNDATACOPY RETURNDATASIZE SWAP1 REVERT JUMPDEST POP PUSH4 0x4E487B71 PUSH1 0xE0 SHL DUP10 MSTORE PUSH1 0x41 DUP14 MSTORE PUSH1 0x24 DUP10 REVERT JUMPDEST DUP6 MLOAD PUSH4 0x108E5C5F PUSH1 0xE2 SHL DUP2 MSTORE DUP9 SWAP1 REVERT JUMPDEST DUP6 MLOAD PUSH4 0xE6C4247B PUSH1 0xE0 SHL DUP2 MSTORE DUP9 SWAP1 REVERT JUMPDEST POP DUP7 PUSH32 0x0 AND DUP6 EQ PUSH3 0x41A JUMP JUMPDEST POP POP CALLVALUE PUSH3 0x100 JUMPI DUP2 PUSH1 0x3 NOT CALLDATASIZE ADD SLT PUSH3 0x100 JUMPI PUSH1 0x20 SWAP1 PUSH1 0x3 SLOAD SWAP1 MLOAD SWAP1 DUP2 MSTORE RETURN JUMPDEST SWAP1 POP CALLVALUE PUSH3 0x196 JUMPI DUP3 PUSH1 0x3 NOT CALLDATASIZE ADD SLT PUSH3 0x196 JUMPI SLOAD SWAP1 MLOAD PUSH1 0x1 PUSH1 0x1 PUSH1 0xA0 SHL SUB SWAP1 SWAP2 AND DUP2 MSTORE PUSH1 0x20 SWAP2 POP RETURN JUMPDEST POP POP CALLVALUE PUSH3 0x100 JUMPI DUP2 PUSH1 0x3 NOT CALLDATASIZE ADD SLT PUSH3 0x100 JUMPI MLOAD PUSH32 0x0 PUSH1 0x1 PUSH1 0x1 PUSH1 0xA0 SHL SUB AND DUP2 MSTORE PUSH1 0x20 SWAP1 RETURN JUMPDEST POP POP CALLVALUE PUSH3 0x100 JUMPI DUP2 PUSH1 0x3 NOT CALLDATASIZE ADD SLT PUSH3 0x100 JUMPI PUSH1 0x20 SWAP1 PUSH1 0x5 SLOAD SWAP1 MLOAD SWAP1 DUP2 MSTORE RETURN JUMPDEST POP POP CALLVALUE PUSH3 0x100 JUMPI DUP2 PUSH1 0x3 NOT CALLDATASIZE ADD SLT PUSH3 0x100 JUMPI PUSH1 0x20 SWAP1 PUSH3 0xFFFFFF PUSH1 0x6 SLOAD AND SWAP1 MLOAD SWAP1 DUP2 MSTORE RETURN JUMPDEST SWAP1 POP CALLVALUE PUSH3 0x196 JUMPI DUP3 PUSH1 0x3 NOT CALLDATASIZE ADD SLT PUSH3 0x196 JUMPI PUSH1 0x1 SLOAD PUSH1 0x1 PUSH1 0x1 PUSH1 0xA0 SHL SUB DUP1 DUP3 AND SWAP4 SWAP1 SWAP3 SWAP1 CALLER DUP6 SWAP1 SUB PUSH3 0x763 JUMPI POP POP DUP4 SLOAD PUSH1 0x1 PUSH1 0x1 PUSH1 0xA0 SHL SUB NOT DUP1 DUP3 AND DUP6 OR DUP7 SSTORE SWAP1 SWAP2 AND PUSH1 0x1 SSTORE AND PUSH32 0x5F56BEE8CFFBE9A78652A74A60705EDEDE02AF10B0BBB888CA44B79A0D42CE80 DUP4 DUP1 LOG3 DUP1 RETURN JUMPDEST MLOAD PUSH4 0x54348F03 PUSH1 0xE0 SHL DUP2 MSTORE REVERT JUMPDEST DUP5 SWAP1 DUP5 CALLVALUE PUSH3 0x196 JUMPI PUSH1 0x20 CALLDATASIZE PUSH1 0x3 NOT ADD SLT PUSH3 0x196 JUMPI PUSH1 0x20 SWAP3 PUSH1 0x1 PUSH1 0x1 PUSH1 0xA0 SHL SUB SWAP2 SWAP1 DUP3 PUSH3 0x79E PUSH3 0x7AC JUMP JUMPDEST AND DUP2 MSTORE PUSH1 0x2 DUP6 MSTORE KECCAK256 SLOAD AND DUP2 MSTORE RETURN JUMPDEST PUSH1 0x4 CALLDATALOAD SWAP1 PUSH1 0x1 PUSH1 0x1 PUSH1 0xA0 SHL SUB DUP3 AND DUP3 SUB PUSH3 0x7C3 JUMPI JUMP JUMPDEST PUSH0 DUP1 REVERT JUMPDEST SWAP1 PUSH1 0x1F DUP1 NOT SWAP2 ADD AND DUP2 ADD SWAP1 DUP2 LT PUSH8 0xFFFFFFFFFFFFFFFF DUP3 GT OR PUSH3 0x7EA JUMPI PUSH1 0x40 MSTORE JUMP JUMPDEST PUSH4 0x4E487B71 PUSH1 0xE0 SHL PUSH0 MSTORE PUSH1 0x41 PUSH1 0x4 MSTORE PUSH1 0x24 PUSH0 REVERT JUMPDEST DUP2 PUSH1 0x1F DUP3 ADD SLT ISZERO PUSH3 0x7C3 JUMPI DUP1 CALLDATALOAD SWAP1 PUSH8 0xFFFFFFFFFFFFFFFF DUP3 GT PUSH3 0x7EA JUMPI PUSH1 0x40 MLOAD SWAP3 PUSH3 0x837 PUSH1 0x1F DUP5 ADD PUSH1 0x1F NOT AND PUSH1 0x20 ADD DUP6 PUSH3 0x7C7 JUMP JUMPDEST DUP3 DUP5 MSTORE PUSH1 0x20 DUP4 DUP4 ADD ADD GT PUSH3 0x7C3 JUMPI DUP2 PUSH0 SWAP3 PUSH1 0x20 DUP1 SWAP4 ADD DUP4 DUP7 ADD CALLDATACOPY DUP4 ADD ADD MSTORE SWAP1 JUMP JUMPDEST PUSH1 0x3 SLOAD DUP2 LT ISZERO PUSH3 0x88F JUMPI PUSH1 0x3 PUSH0 MSTORE PUSH32 0xC2575A0E9E593C00F959F8C92F12DB2869C3395A3B0502D05E2516446F71F85B ADD SWAP1 PUSH0 SWAP1 JUMP JUMPDEST PUSH4 0x4E487B71 PUSH1 0xE0 SHL PUSH0 MSTORE PUSH1 0x32 PUSH1 0x4 MSTORE PUSH1 0x24 PUSH0 REVERT JUMPDEST SWAP2 SWAP1 DUP3 MLOAD SWAP3 DUP4 DUP3 MSTORE PUSH0 JUMPDEST DUP5 DUP2 LT PUSH3 0x8CE JUMPI POP POP DUP3 PUSH0 PUSH1 0x20 DUP1 SWAP5 SWAP6 DUP5 ADD ADD MSTORE PUSH1 0x1F DUP1 NOT SWAP2 ADD AND ADD ADD SWAP1 JUMP JUMPDEST PUSH1 0x20 DUP2 DUP4 ADD DUP2 ADD MLOAD DUP5 DUP4 ADD DUP3 ADD MSTORE ADD PUSH3 0x8AD JUMP INVALID PUSH1 0x40 PUSH2 0x140 DUP2 MSTORE CALLVALUE PUSH3 0x528 JUMPI PUSH3 0x21CD SWAP1 DUP2 CODESIZE SUB DUP1 PUSH3 0x20 DUP2 PUSH3 0x52C JUMP JUMPDEST SWAP4 DUP5 CODECOPY DUP3 ADD SWAP1 PUSH2 0x100 SWAP3 DUP4 DUP2 DUP5 SUB SLT PUSH3 0x528 JUMPI PUSH3 0x3F DUP2 PUSH3 0x552 JUMP JUMPDEST SWAP3 PUSH1 0x20 PUSH3 0x4F DUP2 DUP5 ADD PUSH3 0x552 JUMP JUMPDEST PUSH3 0x5C DUP6 DUP6 ADD PUSH3 0x552 JUMP JUMPDEST PUSH1 0x60 DUP6 ADD MLOAD PUSH1 0x1 PUSH1 0x1 PUSH1 0x40 SHL SUB SWAP8 SWAP2 SWAP3 SWAP2 SWAP1 DUP9 DUP2 GT PUSH3 0x528 JUMPI DUP6 PUSH3 0x84 SWAP2 DUP9 ADD PUSH3 0x567 JUMP JUMPDEST SWAP5 PUSH1 0x80 DUP8 ADD MLOAD SWAP1 DUP10 DUP3 GT PUSH3 0x528 JUMPI PUSH3 0xA0 SWAP2 DUP9 ADD PUSH3 0x567 JUMP JUMPDEST PUSH3 0xAE PUSH1 0xA0 DUP9 ADD PUSH3 0x5D7 JUMP JUMPDEST SWAP6 PUSH3 0xCB PUSH1 0xE0 PUSH3 0xC3 PUSH1 0xC0 DUP12 ADD PUSH3 0x552 JUMP JUMPDEST SWAP10 ADD PUSH3 0x5D7 JUMP JUMPDEST SWAP10 DUP2 MLOAD DUP2 DUP2 GT PUSH3 0x42E JUMPI PUSH1 0x3 SWAP1 DUP2 SLOAD SWAP1 PUSH1 0x1 SWAP5 DUP6 DUP4 DUP2 SHR SWAP4 AND DUP1 ISZERO PUSH3 0x51D JUMPI JUMPDEST DUP12 DUP5 LT EQ PUSH3 0x509 JUMPI DUP2 SWAP1 DUP12 PUSH1 0x1F SWAP5 DUP6 DUP2 GT PUSH3 0x4B3 JUMPI JUMPDEST POP POP DUP12 SWAP1 DUP5 DUP4 GT PUSH1 0x1 EQ PUSH3 0x44E JUMPI PUSH0 SWAP3 PUSH3 0x442 JUMPI JUMPDEST POP POP PUSH0 NOT DUP3 DUP6 SHL SHR NOT AND SWAP1 DUP6 SHL OR DUP3 SSTORE JUMPDEST DUP5 MLOAD SWAP3 DUP4 GT PUSH3 0x42E JUMPI PUSH1 0x4 SWAP5 DUP6 SLOAD DUP6 DUP2 DUP2 SHR SWAP2 AND DUP1 ISZERO PUSH3 0x423 JUMPI JUMPDEST DUP12 DUP3 LT EQ PUSH3 0x410 JUMPI SWAP1 DUP2 DUP4 DUP7 SWAP6 SWAP5 SWAP4 GT PUSH3 0x3B9 JUMPI JUMPDEST POP DUP11 SWAP2 DUP5 GT PUSH1 0x1 EQ PUSH3 0x352 JUMPI PUSH0 SWAP4 PUSH3 0x346 JUMPI JUMPDEST POP POP DUP3 DUP5 SHL SWAP3 PUSH0 NOT SWAP2 SHL SHR NOT AND OR DUP3 SSTORE JUMPDEST PUSH1 0x5 SSTORE PUSH1 0x1 PUSH1 0x1 PUSH1 0xA0 SHL SUB SWAP5 DUP3 DUP7 AND ISZERO DUP1 ISZERO PUSH3 0x33B JUMPI JUMPDEST DUP1 ISZERO PUSH3 0x330 JUMPI JUMPDEST PUSH3 0x321 JUMPI PUSH2 0x2710 PUSH3 0xFFFFFF DUP2 DUP2 DUP11 AND LT ISZERO PUSH3 0x2EF JUMPI DUP12 AND GT PUSH3 0x2AD JUMPI POP POP PUSH1 0x80 MSTORE PUSH1 0xA0 MSTORE AND PUSH1 0x1 DUP1 PUSH1 0xA0 SHL SUB NOT PUSH1 0x6 SLOAD AND OR PUSH1 0x6 SSTORE CALLER PUSH1 0xC0 MSTORE PUSH1 0xE0 MSTORE DUP4 MSTORE PUSH2 0x120 SWAP2 DUP3 MSTORE MLOAD SWAP1 PUSH2 0x1BE4 SWAP3 DUP4 PUSH3 0x5E9 DUP5 CODECOPY PUSH1 0x80 MLOAD DUP4 DUP2 DUP2 PUSH2 0x1DC ADD MSTORE DUP2 DUP2 PUSH2 0x7A3 ADD MSTORE DUP2 DUP2 PUSH2 0xABC ADD MSTORE DUP2 DUP2 PUSH2 0xC56 ADD MSTORE DUP2 DUP2 PUSH2 0xFDE ADD MSTORE DUP2 DUP2 PUSH2 0x1193 ADD MSTORE PUSH2 0x16E0 ADD MSTORE PUSH1 0xA0 MLOAD DUP4 DUP2 DUP2 PUSH2 0x234 ADD MSTORE DUP2 DUP2 PUSH2 0x5C9 ADD MSTORE DUP2 DUP2 PUSH2 0x7F1 ADD MSTORE DUP2 DUP2 PUSH2 0xAE1 ADD MSTORE DUP2 DUP2 PUSH2 0xC80 ADD MSTORE DUP2 DUP2 PUSH2 0x1155 ADD MSTORE DUP2 DUP2 PUSH2 0x11D7 ADD MSTORE PUSH2 0x170C ADD MSTORE PUSH1 0xC0 MLOAD DUP4 PUSH2 0x706 ADD MSTORE PUSH1 0xE0 MLOAD DUP4 DUP2 DUP2 PUSH2 0x292 ADD MSTORE PUSH2 0x12AE ADD MSTORE MLOAD DUP3 DUP2 DUP2 PUSH2 0x2D7 ADD MSTORE DUP2 DUP2 PUSH2 0x498 ADD MSTORE PUSH2 0xF08 ADD MSTORE MLOAD DUP2 DUP2 DUP2 PUSH2 0x4FA ADD MSTORE DUP2 DUP2 PUSH2 0x534 ADD MSTORE PUSH2 0xE98 ADD MSTORE RETURN JUMPDEST DUP9 MLOAD PUSH3 0x461BCD PUSH1 0xE5 SHL DUP2 MSTORE SWAP2 DUP3 ADD MSTORE PUSH1 0x17 PUSH1 0x24 DUP3 ADD MSTORE PUSH32 0x50524F544F434F4C5F53484152455F544F4F5F48494748000000000000000000 PUSH1 0x44 DUP3 ADD MSTORE PUSH1 0x64 SWAP2 POP REVERT JUMPDEST DUP11 MLOAD PUSH3 0x461BCD PUSH1 0xE5 SHL DUP2 MSTORE DUP1 DUP6 ADD DUP5 SWAP1 MSTORE PUSH1 0xC PUSH1 0x24 DUP3 ADD MSTORE PUSH12 0x8C8A8ABEA89E9EBE90928E9 PUSH1 0xA3 SHL PUSH1 0x44 DUP3 ADD MSTORE PUSH1 0x64 SWAP1 REVERT JUMPDEST POP DUP8 MLOAD PUSH4 0xE6C4247B PUSH1 0xE0 SHL DUP2 MSTORE REVERT JUMPDEST POP DUP6 DUP6 AND ISZERO PUSH3 0x1A7 JUMP JUMPDEST POP DUP6 DUP5 AND ISZERO PUSH3 0x19F JUMP JUMPDEST ADD MLOAD SWAP2 POP PUSH0 DUP1 PUSH3 0x176 JUMP JUMPDEST SWAP2 SWAP1 DUP6 SWAP5 POP PUSH1 0x1F NOT DUP5 AND SWAP3 DUP8 PUSH0 MSTORE DUP12 PUSH0 KECCAK256 SWAP4 PUSH0 JUMPDEST DUP14 DUP3 DUP3 LT PUSH3 0x3A2 JUMPI POP POP DUP6 GT PUSH3 0x388 JUMPI JUMPDEST POP POP POP POP DUP2 SHL ADD DUP3 SSTORE PUSH3 0x187 JUMP JUMPDEST ADD MLOAD SWAP1 PUSH1 0xF8 DUP5 PUSH0 NOT SWAP3 SHL AND SHR NOT AND SWAP1 SSTORE PUSH0 DUP1 DUP1 DUP1 PUSH3 0x379 JUMP JUMPDEST DUP4 DUP6 ADD MLOAD DUP8 SSTORE DUP10 SWAP9 SWAP1 SWAP7 ADD SWAP6 SWAP4 DUP5 ADD SWAP4 ADD PUSH3 0x366 JUMP JUMPDEST SWAP1 SWAP2 SWAP3 SWAP4 POP DUP7 PUSH0 MSTORE DUP11 PUSH0 KECCAK256 DUP4 DUP1 DUP8 ADD PUSH1 0x5 SHR DUP3 ADD SWAP3 DUP14 DUP9 LT PUSH3 0x406 JUMPI JUMPDEST SWAP2 DUP9 SWAP2 DUP9 SWAP8 SWAP7 SWAP6 SWAP5 SWAP4 ADD PUSH1 0x5 SHR ADD SWAP2 JUMPDEST DUP3 DUP2 LT PUSH3 0x3F7 JUMPI POP POP PUSH3 0x161 JUMP JUMPDEST PUSH0 DUP2 SSTORE DUP8 SWAP7 POP DUP9 SWAP2 ADD PUSH3 0x3E7 JUMP JUMPDEST SWAP3 POP DUP2 SWAP3 PUSH3 0x3D7 JUMP JUMPDEST PUSH1 0x22 DUP8 PUSH4 0x4E487B71 PUSH1 0xE0 SHL PUSH0 MSTORE MSTORE PUSH1 0x24 PUSH0 REVERT JUMPDEST SWAP1 PUSH1 0x7F AND SWAP1 PUSH3 0x14A JUMP JUMPDEST PUSH4 0x4E487B71 PUSH1 0xE0 SHL PUSH0 MSTORE PUSH1 0x41 PUSH1 0x4 MSTORE PUSH1 0x24 PUSH0 REVERT JUMPDEST ADD MLOAD SWAP1 POP PUSH0 DUP1 PUSH3 0x11C JUMP JUMPDEST PUSH0 DUP7 DUP2 MSTORE DUP14 DUP2 KECCAK256 DUP10 SWAP6 POP SWAP3 SWAP2 SWAP1 PUSH1 0x1F NOT DUP6 AND SWAP1 DUP16 JUMPDEST DUP3 DUP3 LT PUSH3 0x49B JUMPI POP POP DUP5 GT PUSH3 0x483 JUMPI JUMPDEST POP POP POP DUP2 SHL ADD DUP3 SSTORE PUSH3 0x12D JUMP JUMPDEST ADD MLOAD PUSH0 NOT DUP4 DUP8 SHL PUSH1 0xF8 AND SHR NOT AND SWAP1 SSTORE PUSH0 DUP1 DUP1 PUSH3 0x475 JUMP JUMPDEST DUP4 DUP6 ADD MLOAD DUP7 SSTORE DUP12 SWAP8 SWAP1 SWAP6 ADD SWAP5 SWAP4 DUP5 ADD SWAP4 ADD DUP16 PUSH3 0x463 JUMP JUMPDEST SWAP1 SWAP2 SWAP3 POP DUP6 PUSH0 MSTORE DUP5 DUP3 PUSH0 KECCAK256 SWAP2 DUP2 DUP7 ADD PUSH1 0x5 SHR DUP4 ADD SWAP4 DUP7 LT PUSH3 0x4FF JUMPI JUMPDEST SWAP2 DUP10 SWAP2 DUP7 SWAP6 SWAP5 SWAP4 ADD PUSH1 0x5 SHR ADD SWAP2 JUMPDEST DUP3 DUP2 LT PUSH3 0x4F0 JUMPI POP DUP14 SWAP2 POP PUSH3 0x105 JUMP JUMPDEST PUSH0 DUP2 SSTORE DUP6 SWAP5 POP DUP10 SWAP2 ADD PUSH3 0x4DE JUMP JUMPDEST SWAP3 POP DUP2 SWAP3 PUSH3 0x4D0 JUMP JUMPDEST PUSH4 0x4E487B71 PUSH1 0xE0 SHL PUSH0 MSTORE PUSH1 0x22 PUSH1 0x4 MSTORE PUSH1 0x24 PUSH0 REVERT JUMPDEST SWAP3 PUSH1 0x7F AND SWAP3 PUSH3 0xED JUMP JUMPDEST PUSH0 DUP1 REVERT JUMPDEST PUSH1 0x40 MLOAD SWAP2 SWAP1 PUSH1 0x1F ADD PUSH1 0x1F NOT AND DUP3 ADD PUSH1 0x1 PUSH1 0x1 PUSH1 0x40 SHL SUB DUP2 GT DUP4 DUP3 LT OR PUSH3 0x42E JUMPI PUSH1 0x40 MSTORE JUMP JUMPDEST MLOAD SWAP1 PUSH1 0x1 PUSH1 0x1 PUSH1 0xA0 SHL SUB DUP3 AND DUP3 SUB PUSH3 0x528 JUMPI JUMP JUMPDEST SWAP2 SWAP1 DUP1 PUSH1 0x1F DUP5 ADD SLT ISZERO PUSH3 0x528 JUMPI DUP3 MLOAD PUSH1 0x1 PUSH1 0x1 PUSH1 0x40 SHL SUB DUP2 GT PUSH3 0x42E JUMPI PUSH1 0x20 SWAP1 PUSH3 0x59D PUSH1 0x1F DUP3 ADD PUSH1 0x1F NOT AND DUP4 ADD PUSH3 0x52C JUMP JUMPDEST SWAP3 DUP2 DUP5 MSTORE DUP3 DUP3 DUP8 ADD ADD GT PUSH3 0x528 JUMPI PUSH0 JUMPDEST DUP2 DUP2 LT PUSH3 0x5C3 JUMPI POP DUP3 PUSH0 SWAP4 SWAP5 SWAP6 POP ADD ADD MSTORE SWAP1 JUMP JUMPDEST DUP6 DUP2 ADD DUP4 ADD MLOAD DUP5 DUP3 ADD DUP5 ADD MSTORE DUP3 ADD PUSH3 0x5AE JUMP JUMPDEST MLOAD SWAP1 PUSH3 0xFFFFFF DUP3 AND DUP3 SUB PUSH3 0x528 JUMPI JUMP INVALID PUSH1 0x80 PUSH1 0x40 MSTORE PUSH1 0x4 CALLDATASIZE LT ISZERO PUSH2 0x11 JUMPI PUSH0 DUP1 REVERT JUMPDEST PUSH0 CALLDATALOAD PUSH1 0xE0 SHR DUP1 PUSH3 0xAEEF8A EQ PUSH2 0x164C JUMPI DUP1 PUSH4 0x6FDDE03 EQ PUSH2 0x158E JUMPI DUP1 PUSH4 0x902F1AC EQ PUSH2 0x156A JUMPI DUP1 PUSH4 0x95EA7B3 EQ PUSH2 0x14E8 JUMPI DUP1 PUSH4 0xA28A477 EQ PUSH2 0x14CA JUMPI DUP1 PUSH4 0x18160DDD EQ PUSH2 0x14AD JUMPI DUP1 PUSH4 0x1C481E2D EQ PUSH2 0x1441 JUMPI DUP1 PUSH4 0x1DEC1515 EQ PUSH2 0x1424 JUMPI DUP1 PUSH4 0x238EFCBC EQ PUSH2 0x13BC JUMPI DUP1 PUSH4 0x23B872DD EQ PUSH2 0x12D2 JUMPI DUP1 PUSH4 0x2FFDAF89 EQ PUSH2 0x1293 JUMPI DUP1 PUSH4 0x313CE567 EQ PUSH2 0x1278 JUMPI DUP1 PUSH4 0x33A100CA EQ PUSH2 0x1206 JUMPI DUP1 PUSH4 0x3E413BEE EQ PUSH2 0x11C2 JUMPI DUP1 PUSH4 0x4B60CE77 EQ PUSH2 0x117E JUMPI DUP1 PUSH4 0x4CC15D64 EQ PUSH2 0xF9E JUMPI DUP1 PUSH4 0x54D18864 EQ PUSH2 0xF81 JUMPI DUP1 PUSH4 0x5AA6E675 EQ PUSH2 0xF59 JUMPI DUP1 PUSH4 0x60DA3E83 EQ PUSH2 0xF37 JUMPI DUP1 PUSH4 0x64DF049E EQ PUSH2 0xEF3 JUMPI DUP1 PUSH4 0x70A08231 EQ PUSH2 0xEBC JUMPI DUP1 PUSH4 0x9040F866 EQ PUSH2 0xE7D JUMPI DUP1 PUSH4 0x95D89B41 EQ PUSH2 0xD76 JUMPI DUP1 PUSH4 0x974D8C93 EQ PUSH2 0xD4C JUMPI DUP1 PUSH4 0xA41FE49F EQ PUSH2 0xB61 JUMPI DUP1 PUSH4 0xA8C62E76 EQ PUSH2 0xB39 JUMPI DUP1 PUSH4 0xA9059CBB EQ PUSH2 0xB08 JUMPI DUP1 PUSH4 0xAA6CA808 EQ PUSH2 0xA9E JUMPI DUP1 PUSH4 0xB269ADD3 EQ PUSH2 0x735 JUMPI DUP1 PUSH4 0xC45A0155 EQ PUSH2 0x6F1 JUMPI DUP1 PUSH4 0xD38BFFF4 EQ PUSH2 0x68E JUMPI DUP1 PUSH4 0xDD62ED3E EQ PUSH2 0x641 JUMPI DUP1 PUSH4 0xE1E158A5 EQ PUSH2 0x625 JUMPI DUP1 PUSH4 0xF39C38A0 EQ PUSH2 0x5FD JUMPI PUSH4 0xF3E6EA8A EQ PUSH2 0x199 JUMPI PUSH0 DUP1 REVERT JUMPDEST CALLVALUE PUSH2 0x5F9 JUMPI PUSH1 0x80 CALLDATASIZE PUSH1 0x3 NOT ADD SLT PUSH2 0x5F9 JUMPI PUSH2 0x1B2 PUSH2 0x18E8 JUMP JUMPDEST PUSH1 0x64 CALLDATALOAD SWAP1 PUSH1 0x1 PUSH1 0x1 PUSH1 0xA0 SHL SUB DUP3 AND DUP3 SUB PUSH2 0x5F9 JUMPI PUSH2 0x1CE PUSH2 0x1AD4 JUMP JUMPDEST PUSH1 0x1 PUSH1 0x1 PUSH1 0xA0 SHL SUB SWAP1 DUP2 AND SWAP2 PUSH32 0x0 SWAP2 DUP3 AND DUP4 EQ ISZERO DUP1 PUSH2 0x5C6 JUMPI JUMPDEST PUSH2 0x5B4 JUMPI PUSH1 0x1 PUSH1 0x1 PUSH1 0xA0 SHL SUB DUP2 AND ISZERO PUSH2 0x5A2 JUMPI PUSH1 0x24 CALLDATALOAD ISZERO PUSH2 0x590 JUMPI PUSH1 0x1 PUSH1 0x1 PUSH1 0xA0 SHL SUB DUP3 AND DUP4 SUB PUSH2 0x589 JUMPI PUSH32 0x0 SWAP3 JUMPDEST PUSH1 0x1 PUSH1 0x1 PUSH1 0xA0 SHL SUB DUP4 AND DUP2 SUB PUSH2 0x580 JUMPI PUSH1 0x9 SLOAD SWAP3 JUMPDEST PUSH1 0x1 PUSH1 0x1 PUSH1 0xA0 SHL SUB DUP2 AND DUP3 SUB PUSH2 0x577 JUMPI PUSH1 0xA SLOAD SWAP4 JUMPDEST DUP1 ISZERO DUP1 ISZERO PUSH2 0x56F JUMPI JUMPDEST PUSH2 0x44E JUMPI PUSH3 0xFFFFFF PUSH32 0x0 AND PUSH2 0x2710 SUB PUSH2 0x2710 DUP2 GT PUSH2 0x55B JUMPI PUSH2 0x2CE PUSH2 0x2710 SWAP2 PUSH1 0x24 CALLDATALOAD PUSH2 0x19EE JUMP JUMPDEST PUSH0 SWAP7 SWAP2 SWAP1 DIV SWAP2 SWAP1 PUSH32 0x0 PUSH1 0x1 PUSH1 0x1 PUSH1 0xA0 SHL SUB AND ISZERO ISZERO DUP1 PUSH2 0x52D JUMPI JUMPDEST PUSH2 0x4D5 JUMPI JUMPDEST SWAP1 PUSH2 0x324 DUP4 PUSH2 0x31E PUSH2 0x32A SWAP5 DUP3 PUSH2 0x19EE JUMP JUMPDEST SWAP3 PUSH2 0x19E1 JUMP JUMPDEST SWAP1 PUSH2 0x1A01 JUMP JUMPDEST SWAP5 PUSH1 0x44 CALLDATALOAD DUP7 LT PUSH2 0x4C3 JUMPI DUP6 ISZERO PUSH2 0x4C3 JUMPI PUSH2 0x348 PUSH1 0x24 CALLDATALOAD ADDRESS CALLER DUP8 PUSH2 0x1A1F JUMP JUMPDEST DUP1 PUSH2 0x492 JUMPI JUMPDEST POP PUSH1 0x1 PUSH1 0x1 PUSH1 0xA0 SHL SUB DUP3 AND DUP4 SUB PUSH2 0x460 JUMPI PUSH2 0x36B SWAP1 PUSH1 0x9 SLOAD PUSH2 0x19E1 JUMP JUMPDEST PUSH1 0x9 SSTORE DUP4 PUSH2 0x37B DUP2 PUSH1 0xA SLOAD PUSH2 0x1AF7 JUMP JUMPDEST DUP1 PUSH1 0xA SSTORE LT PUSH2 0x44E JUMPI PUSH2 0x39B DUP5 DUP5 PUSH1 0x20 SWAP8 JUMPDEST PUSH1 0x1 PUSH1 0x1 PUSH1 0xA0 SHL SUB AND PUSH2 0x1B04 JUMP JUMPDEST PUSH1 0x1 PUSH1 0x1 PUSH1 0xA0 SHL SUB AND SUB PUSH2 0x400 JUMPI PUSH1 0x40 MLOAD SWAP1 PUSH1 0x24 CALLDATALOAD DUP3 MSTORE PUSH0 DUP5 DUP4 ADD MSTORE PUSH0 PUSH1 0x40 DUP4 ADD MSTORE DUP3 PUSH1 0x60 DUP4 ADD MSTORE PUSH1 0x1 DUP1 PUSH1 0xA0 SHL SUB AND SWAP1 PUSH32 0xD78AD95FA46C994B6551D0DA85FC275FE613CE37657FB8D5E3D130840159D822 PUSH1 0x80 CALLER SWAP3 LOG3 JUMPDEST PUSH1 0x1 PUSH1 0x5 SSTORE PUSH1 0x40 MLOAD SWAP1 DUP2 MSTORE RETURN JUMPDEST PUSH1 0x40 MLOAD SWAP1 PUSH0 DUP3 MSTORE PUSH1 0x24 CALLDATALOAD DUP5 DUP4 ADD MSTORE DUP3 PUSH1 0x40 DUP4 ADD MSTORE PUSH0 PUSH1 0x60 DUP4 ADD MSTORE PUSH1 0x1 DUP1 PUSH1 0xA0 SHL SUB AND SWAP1 PUSH32 0xD78AD95FA46C994B6551D0DA85FC275FE613CE37657FB8D5E3D130840159D822 PUSH1 0x80 CALLER SWAP3 LOG3 PUSH2 0x3F3 JUMP JUMPDEST PUSH1 0x40 MLOAD PUSH4 0xBB55FD27 PUSH1 0xE0 SHL DUP2 MSTORE PUSH1 0x4 SWAP1 REVERT JUMPDEST PUSH2 0x46C SWAP1 PUSH1 0xA SLOAD PUSH2 0x19E1 JUMP JUMPDEST PUSH1 0xA SSTORE DUP4 PUSH2 0x47C DUP2 PUSH1 0x9 SLOAD PUSH2 0x1AF7 JUMP JUMPDEST DUP1 PUSH1 0x9 SSTORE LT PUSH2 0x44E JUMPI PUSH2 0x39B DUP5 DUP5 PUSH1 0x20 SWAP8 PUSH2 0x38D JUMP JUMPDEST PUSH2 0x4BD SWAP1 PUSH32 0x0 DUP6 PUSH2 0x1B04 JUMP JUMPDEST PUSH0 PUSH2 0x34E JUMP JUMPDEST PUSH1 0x40 MLOAD PUSH4 0xBB2875C3 PUSH1 0xE0 SHL DUP2 MSTORE PUSH1 0x4 SWAP1 REVERT JUMPDEST SWAP6 POP PUSH2 0x32A SWAP1 PUSH2 0x324 DUP4 PUSH2 0x31E PUSH2 0x2710 PUSH2 0x520 PUSH2 0x4F4 DUP5 PUSH1 0x24 CALLDATALOAD PUSH2 0x1AF7 JUMP JUMPDEST PUSH3 0xFFFFFF PUSH32 0x0 AND SWAP1 PUSH2 0x19EE JUMP JUMPDEST DIV SWAP10 SWAP4 SWAP5 POP POP POP POP PUSH2 0x30C JUMP JUMPDEST POP PUSH3 0xFFFFFF PUSH32 0x0 AND ISZERO ISZERO PUSH2 0x307 JUMP JUMPDEST PUSH4 0x4E487B71 PUSH1 0xE0 SHL PUSH0 MSTORE PUSH1 0x11 PUSH1 0x4 MSTORE PUSH1 0x24 PUSH0 REVERT JUMPDEST POP DUP5 ISZERO PUSH2 0x288 JUMP JUMPDEST PUSH1 0x9 SLOAD SWAP4 PUSH2 0x27F JUMP JUMPDEST PUSH1 0xA SLOAD SWAP3 PUSH2 0x26A JUMP JUMPDEST DUP2 SWAP3 PUSH2 0x255 JUMP JUMPDEST PUSH1 0x40 MLOAD PUSH4 0x2CA2F52B PUSH1 0xE1 SHL DUP2 MSTORE PUSH1 0x4 SWAP1 REVERT JUMPDEST PUSH1 0x40 MLOAD PUSH4 0xE6C4247B PUSH1 0xE0 SHL DUP2 MSTORE PUSH1 0x4 SWAP1 REVERT JUMPDEST PUSH1 0x40 MLOAD PUSH4 0xC1AB6DC1 PUSH1 0xE0 SHL DUP2 MSTORE PUSH1 0x4 SWAP1 REVERT JUMPDEST POP PUSH32 0x0 PUSH1 0x1 PUSH1 0x1 PUSH1 0xA0 SHL SUB AND DUP4 EQ ISZERO PUSH2 0x207 JUMP JUMPDEST PUSH0 DUP1 REVERT JUMPDEST CALLVALUE PUSH2 0x5F9 JUMPI PUSH0 CALLDATASIZE PUSH1 0x3 NOT ADD SLT PUSH2 0x5F9 JUMPI PUSH1 0x7 SLOAD PUSH1 0x40 MLOAD PUSH1 0x1 PUSH1 0x1 PUSH1 0xA0 SHL SUB SWAP1 SWAP2 AND DUP2 MSTORE PUSH1 0x20 SWAP1 RETURN JUMPDEST CALLVALUE PUSH2 0x5F9 JUMPI PUSH0 CALLDATASIZE PUSH1 0x3 NOT ADD SLT PUSH2 0x5F9 JUMPI PUSH1 0x20 PUSH1 0x40 MLOAD PUSH2 0x3E8 DUP2 MSTORE RETURN JUMPDEST CALLVALUE PUSH2 0x5F9 JUMPI PUSH1 0x40 CALLDATASIZE PUSH1 0x3 NOT ADD SLT PUSH2 0x5F9 JUMPI PUSH2 0x65A PUSH2 0x18E8 JUMP JUMPDEST PUSH2 0x662 PUSH2 0x18FE JUMP JUMPDEST SWAP1 PUSH1 0x1 DUP1 PUSH1 0xA0 SHL SUB DUP1 SWAP2 AND PUSH0 MSTORE PUSH1 0x1 PUSH1 0x20 MSTORE PUSH1 0x40 PUSH0 KECCAK256 SWAP2 AND PUSH0 MSTORE PUSH1 0x20 MSTORE PUSH1 0x20 PUSH1 0x40 PUSH0 KECCAK256 SLOAD PUSH1 0x40 MLOAD SWAP1 DUP2 MSTORE RETURN JUMPDEST CALLVALUE PUSH2 0x5F9 JUMPI PUSH1 0x20 CALLDATASIZE PUSH1 0x3 NOT ADD SLT PUSH2 0x5F9 JUMPI PUSH2 0x6A7 PUSH2 0x18E8 JUMP JUMPDEST PUSH1 0x6 SLOAD PUSH1 0x1 PUSH1 0x1 PUSH1 0xA0 SHL SUB SWAP2 SWAP1 DUP3 AND CALLER SUB PUSH2 0x6DF JUMPI AND DUP1 ISZERO PUSH2 0x5A2 JUMPI PUSH12 0xFFFFFFFFFFFFFFFFFFFFFFFF PUSH1 0xA0 SHL PUSH1 0x7 SLOAD AND OR PUSH1 0x7 SSTORE PUSH0 DUP1 RETURN JUMPDEST PUSH1 0x40 MLOAD PUSH4 0x54348F03 PUSH1 0xE0 SHL DUP2 MSTORE PUSH1 0x4 SWAP1 REVERT JUMPDEST CALLVALUE PUSH2 0x5F9 JUMPI PUSH0 CALLDATASIZE PUSH1 0x3 NOT ADD SLT PUSH2 0x5F9 JUMPI PUSH1 0x40 MLOAD PUSH32 0x0 PUSH1 0x1 PUSH1 0x1 PUSH1 0xA0 SHL SUB AND DUP2 MSTORE PUSH1 0x20 SWAP1 RETURN JUMPDEST CALLVALUE PUSH2 0x5F9 JUMPI PUSH1 0x20 DUP1 PUSH1 0x3 NOT CALLDATASIZE ADD SLT PUSH2 0x5F9 JUMPI PUSH8 0xFFFFFFFFFFFFFFFF SWAP1 PUSH1 0x4 CALLDATALOAD DUP3 DUP2 GT PUSH2 0x5F9 JUMPI CALLDATASIZE PUSH1 0x23 DUP3 ADD SLT ISZERO PUSH2 0x5F9 JUMPI DUP1 PUSH1 0x4 ADD CALLDATALOAD DUP4 DUP2 GT PUSH2 0x5F9 JUMPI PUSH1 0x24 SWAP2 CALLDATASIZE DUP4 DUP4 DUP4 ADD ADD GT PUSH2 0x5F9 JUMPI PUSH1 0x6 SLOAD PUSH1 0x1 PUSH1 0x1 PUSH1 0xA0 SHL SUB SWAP1 DUP2 AND CALLER SUB PUSH2 0x6DF JUMPI DUP1 PUSH1 0x8 SLOAD AND SWAP1 DUP2 ISZERO PUSH2 0x5A2 JUMPI DUP1 PUSH32 0x0 AND PUSH1 0x40 MLOAD SWAP3 PUSH4 0x70A08231 PUSH1 0xE0 SHL SWAP3 DUP4 DUP6 MSTORE ADDRESS PUSH1 0x4 DUP7 ADD MSTORE DUP9 DUP6 DUP10 DUP2 DUP7 GAS STATICCALL SWAP5 DUP6 ISZERO PUSH2 0x9A3 JUMPI PUSH0 SWAP6 PUSH2 0xA6F JUMPI JUMPDEST POP PUSH32 0x0 AND SWAP5 PUSH1 0x40 MLOAD SWAP1 DUP5 DUP3 MSTORE ADDRESS PUSH1 0x4 DUP4 ADD MSTORE DUP10 DUP3 DUP11 DUP2 DUP11 GAS STATICCALL SWAP8 DUP9 ISZERO PUSH2 0x9A3 JUMPI DUP10 SWAP3 PUSH0 SWAP10 PUSH2 0xA36 JUMPI JUMPDEST POP SWAP2 PUSH0 DUP1 SWAP5 SWAP3 DUP5 DUP3 SWAP6 PUSH1 0x40 MLOAD SWAP5 DUP6 SWAP4 ADD DUP4 CALLDATACOPY DUP2 ADD DUP3 DUP2 MSTORE SUB SWAP3 GAS CALL RETURNDATASIZE ISZERO PUSH2 0xA2D JUMPI RETURNDATASIZE SWAP9 DUP10 GT PUSH2 0xA1A JUMPI PUSH1 0x40 MLOAD SWAP9 PUSH2 0x876 PUSH1 0x1F DUP3 ADD PUSH1 0x1F NOT AND DUP11 ADD DUP12 PUSH2 0x1914 JUMP JUMPDEST DUP10 MSTORE RETURNDATASIZE PUSH0 DUP10 DUP12 ADD RETURNDATACOPY JUMPDEST ISZERO PUSH2 0x9DF JUMPI SWAP1 DUP7 DUP7 SWAP3 PUSH1 0x40 MLOAD SWAP4 DUP5 DUP1 SWAP3 DUP6 DUP3 MSTORE ADDRESS PUSH1 0x4 DUP4 ADD MSTORE GAS STATICCALL SWAP6 DUP7 ISZERO PUSH2 0x9A3 JUMPI DUP8 SWAP3 PUSH0 SWAP8 PUSH2 0x9AE JUMPI JUMPDEST POP PUSH1 0x40 MLOAD DUP1 SWAP6 DUP2 SWAP4 DUP3 MSTORE ADDRESS PUSH1 0x4 DUP4 ADD MSTORE GAS STATICCALL SWAP2 DUP3 ISZERO PUSH2 0x9A3 JUMPI PUSH0 SWAP3 PUSH2 0x952 JUMPI JUMPDEST POP SWAP1 DUP4 PUSH1 0x40 SWAP4 SWAP3 PUSH32 0x8F9497C27F572FF1A65E8B2C7A0706D466466AE0B5EFC78462B5F0021DA66956 SWAP6 PUSH1 0x9 SSTORE DUP3 PUSH1 0xA SSTORE DUP1 DUP3 GT PUSH0 EQ PUSH2 0x949 JUMPI PUSH2 0x90C SWAP2 PUSH2 0x1AF7 JUMP JUMPDEST SWAP2 JUMPDEST DUP1 DUP3 GT ISZERO PUSH2 0x941 JUMPI PUSH2 0x91F SWAP2 PUSH2 0x1AF7 JUMP JUMPDEST DUP3 MLOAD SWAP2 DUP3 MSTORE DUP5 DUP3 ADD MSTORE LOG1 PUSH2 0x93D PUSH1 0x40 MLOAD SWAP3 DUP3 DUP5 SWAP4 DUP5 MSTORE DUP4 ADD SWAP1 PUSH2 0x18AA JUMP JUMPDEST SUB SWAP1 RETURN JUMPDEST POP POP PUSH0 PUSH2 0x91F JUMP JUMPDEST POP POP PUSH0 SWAP2 PUSH2 0x90E JUMP JUMPDEST SWAP3 SWAP2 POP DUP5 DUP4 DUP2 RETURNDATASIZE DUP4 GT PUSH2 0x99C JUMPI JUMPDEST PUSH2 0x96A DUP2 DUP4 PUSH2 0x1914 JUMP JUMPDEST DUP2 ADD SUB SLT PUSH2 0x5F9 JUMPI SWAP2 MLOAD SWAP1 SWAP2 PUSH32 0x8F9497C27F572FF1A65E8B2C7A0706D466466AE0B5EFC78462B5F0021DA66956 PUSH2 0x8CA JUMP JUMPDEST POP RETURNDATASIZE PUSH2 0x960 JUMP JUMPDEST PUSH1 0x40 MLOAD RETURNDATASIZE PUSH0 DUP3 RETURNDATACOPY RETURNDATASIZE SWAP1 REVERT JUMPDEST DUP4 DUP2 SWAP5 SWAP3 SWAP9 POP RETURNDATASIZE DUP4 GT PUSH2 0x9D8 JUMPI JUMPDEST PUSH2 0x9C6 DUP2 DUP4 PUSH2 0x1914 JUMP JUMPDEST DUP2 ADD SUB SLT PUSH2 0x5F9 JUMPI DUP7 SWAP2 MLOAD SWAP6 DUP10 PUSH2 0x8AA JUMP JUMPDEST POP RETURNDATASIZE PUSH2 0x9BC JUMP JUMPDEST PUSH1 0x40 MLOAD PUSH3 0x461BCD PUSH1 0xE5 SHL DUP2 MSTORE PUSH1 0x4 DUP2 ADD DUP9 SWAP1 MSTORE PUSH1 0x14 DUP2 DUP9 ADD MSTORE PUSH20 0x14DD1C985D1959DE4818D85B1B0819985A5B1959 PUSH1 0x62 SHL PUSH1 0x44 DUP3 ADD MSTORE PUSH1 0x64 SWAP1 REVERT JUMPDEST DUP7 PUSH4 0x4E487B71 PUSH1 0xE0 SHL PUSH0 MSTORE PUSH1 0x41 PUSH1 0x4 MSTORE PUSH0 REVERT JUMPDEST PUSH1 0x60 SWAP9 POP PUSH2 0x87F JUMP JUMPDEST DUP12 DUP1 SWAP3 SWAP11 POP DUP2 SWAP5 POP SWAP5 SWAP3 SWAP5 RETURNDATASIZE DUP4 GT PUSH2 0xA68 JUMPI JUMPDEST PUSH2 0xA53 DUP2 DUP4 PUSH2 0x1914 JUMP JUMPDEST DUP2 ADD SUB SLT PUSH2 0x5F9 JUMPI SWAP1 MLOAD SWAP7 SWAP1 SWAP2 DUP9 SWAP2 PUSH0 PUSH2 0x836 JUMP JUMPDEST POP RETURNDATASIZE PUSH2 0xA49 JUMP JUMPDEST SWAP1 SWAP5 POP DUP9 DUP2 DUP2 RETURNDATASIZE DUP4 GT PUSH2 0xA97 JUMPI JUMPDEST PUSH2 0xA87 DUP2 DUP4 PUSH2 0x1914 JUMP JUMPDEST DUP2 ADD SUB SLT PUSH2 0x5F9 JUMPI MLOAD SWAP4 DUP11 PUSH2 0x7EE JUMP JUMPDEST POP RETURNDATASIZE PUSH2 0xA7D JUMP JUMPDEST CALLVALUE PUSH2 0x5F9 JUMPI PUSH0 CALLDATASIZE PUSH1 0x3 NOT ADD SLT PUSH2 0x5F9 JUMPI PUSH1 0x40 DUP1 MLOAD PUSH1 0x1 PUSH1 0x1 PUSH1 0xA0 SHL SUB PUSH32 0x0 DUP2 AND DUP3 MSTORE PUSH32 0x0 AND PUSH1 0x20 DUP3 ADD MSTORE RETURN JUMPDEST CALLVALUE PUSH2 0x5F9 JUMPI PUSH1 0x40 CALLDATASIZE PUSH1 0x3 NOT ADD SLT PUSH2 0x5F9 JUMPI PUSH2 0xB2E PUSH2 0xB24 PUSH2 0x18E8 JUMP JUMPDEST PUSH1 0x24 CALLDATALOAD SWAP1 CALLER PUSH2 0x1936 JUMP JUMPDEST PUSH1 0x20 PUSH1 0x40 MLOAD PUSH1 0x1 DUP2 MSTORE RETURN JUMPDEST CALLVALUE PUSH2 0x5F9 JUMPI PUSH0 CALLDATASIZE PUSH1 0x3 NOT ADD SLT PUSH2 0x5F9 JUMPI PUSH1 0x8 SLOAD PUSH1 0x40 MLOAD PUSH1 0x1 PUSH1 0x1 PUSH1 0xA0 SHL SUB SWAP1 SWAP2 AND DUP2 MSTORE PUSH1 0x20 SWAP1 RETURN JUMPDEST CALLVALUE PUSH2 0x5F9 JUMPI PUSH2 0xB6F CALLDATASIZE PUSH2 0x1890 JUMP JUMPDEST SWAP1 PUSH2 0xB78 PUSH2 0x1AD4 JUMP JUMPDEST DUP3 ISZERO PUSH2 0x590 JUMPI CALLER PUSH0 MSTORE PUSH0 PUSH1 0x20 MSTORE DUP3 PUSH1 0x40 PUSH0 KECCAK256 SLOAD LT PUSH2 0xD3A JUMPI PUSH1 0x2 SLOAD PUSH1 0x9 SLOAD PUSH2 0xBA9 DUP3 PUSH2 0xBA4 DUP4 DUP9 PUSH2 0x19EE JUMP JUMPDEST PUSH2 0x1A01 JUMP JUMPDEST SWAP4 PUSH2 0xBBB PUSH1 0xA SLOAD SWAP4 PUSH2 0xBA4 DUP6 DUP10 PUSH2 0x19EE JUMP JUMPDEST SWAP4 DUP6 LT SWAP1 DUP2 ISZERO PUSH2 0xD30 JUMPI JUMPDEST POP PUSH2 0x590 JUMPI PUSH2 0xBE2 SWAP2 PUSH2 0xBDA DUP6 DUP6 SWAP4 PUSH2 0x1AF7 JUMP JUMPDEST PUSH1 0x9 SSTORE PUSH2 0x1AF7 JUMP JUMPDEST PUSH1 0xA SSTORE CALLER ISZERO PUSH2 0xD18 JUMPI CALLER PUSH0 MSTORE PUSH0 PUSH1 0x20 MSTORE PUSH1 0x40 PUSH0 KECCAK256 SLOAD DUP4 DUP2 LT PUSH2 0xCF1 JUMPI SWAP3 DUP1 PUSH1 0x40 SWAP5 CALLER PUSH0 MSTORE PUSH0 PUSH1 0x20 MSTORE SUB DUP5 PUSH0 KECCAK256 SSTORE DUP1 PUSH1 0x2 SLOAD SUB PUSH1 0x2 SSTORE PUSH0 DUP5 MLOAD DUP3 DUP2 MSTORE PUSH32 0xDDF252AD1BE2C89B69C2B068FC378DAA952BA7F163C4A11628F55A4DF523B3EF PUSH1 0x20 CALLER SWAP3 LOG3 PUSH2 0xCA5 DUP3 PUSH1 0x1 PUSH1 0x1 PUSH1 0xA0 SHL SUB PUSH2 0xC7C DUP7 CALLER PUSH32 0x0 DUP5 AND PUSH2 0x1B04 JUMP JUMPDEST CALLER SWAP1 PUSH32 0x0 AND PUSH2 0x1B04 JUMP JUMPDEST DUP4 MLOAD SWAP1 DUP2 MSTORE PUSH1 0x20 DUP2 ADD DUP4 SWAP1 MSTORE PUSH1 0x40 DUP2 ADD DUP3 SWAP1 MSTORE CALLER SWAP1 PUSH32 0x75E161B3E824B114FC1A33274BD7091918DD4E639CEDE50B78B15A4EEA956A21 SWAP1 PUSH1 0x60 SWAP1 LOG2 PUSH1 0x1 PUSH1 0x5 SSTORE DUP3 MLOAD SWAP2 DUP3 MSTORE PUSH1 0x20 DUP3 ADD MSTORE RETURN JUMPDEST PUSH1 0x40 MLOAD PUSH4 0x391434E3 PUSH1 0xE2 SHL DUP2 MSTORE CALLER PUSH1 0x4 DUP3 ADD MSTORE PUSH1 0x24 DUP2 ADD SWAP2 SWAP1 SWAP2 MSTORE PUSH1 0x44 DUP2 ADD DUP5 SWAP1 MSTORE PUSH1 0x64 SWAP1 REVERT JUMPDEST PUSH1 0x40 MLOAD PUSH4 0x4B637E8F PUSH1 0xE1 SHL DUP2 MSTORE PUSH0 PUSH1 0x4 DUP3 ADD MSTORE PUSH1 0x24 SWAP1 REVERT JUMPDEST SWAP1 POP DUP4 LT DUP7 PUSH2 0xBC6 JUMP JUMPDEST PUSH1 0x40 MLOAD PUSH4 0x39996567 PUSH1 0xE0 SHL DUP2 MSTORE PUSH1 0x4 SWAP1 REVERT JUMPDEST CALLVALUE PUSH2 0x5F9 JUMPI PUSH1 0x20 CALLDATASIZE PUSH1 0x3 NOT ADD SLT PUSH2 0x5F9 JUMPI PUSH1 0x40 PUSH2 0xD6A PUSH1 0x4 CALLDATALOAD PUSH2 0x1B85 JUMP JUMPDEST DUP3 MLOAD SWAP2 DUP3 MSTORE PUSH1 0x20 DUP3 ADD MSTORE RETURN JUMPDEST CALLVALUE PUSH2 0x5F9 JUMPI PUSH0 CALLDATASIZE PUSH1 0x3 NOT ADD SLT PUSH2 0x5F9 JUMPI PUSH1 0x40 MLOAD PUSH0 PUSH1 0x4 SLOAD SWAP1 PUSH1 0x1 DUP3 DUP2 SHR SWAP2 DUP2 DUP5 AND SWAP2 DUP3 ISZERO PUSH2 0xE73 JUMPI JUMPDEST PUSH1 0x20 SWAP5 DUP6 DUP6 LT DUP5 EQ PUSH2 0xE5F JUMPI DUP6 DUP8 SWAP5 DUP7 DUP7 MSTORE SWAP2 DUP3 PUSH0 EQ PUSH2 0xE3F JUMPI POP POP PUSH1 0x1 EQ PUSH2 0xDE4 JUMPI JUMPDEST POP PUSH2 0xDD0 SWAP3 POP SUB DUP4 PUSH2 0x1914 JUMP JUMPDEST PUSH2 0x93D PUSH1 0x40 MLOAD SWAP3 DUP3 DUP5 SWAP4 DUP5 MSTORE DUP4 ADD SWAP1 PUSH2 0x18AA JUMP JUMPDEST DUP5 SWAP2 POP PUSH1 0x4 PUSH0 MSTORE PUSH32 0x8A35ACFBC15FF81A39AE7D344FD709F28E8600B4AA8C65C6B64BFE7FE36BD19B SWAP1 PUSH0 SWAP2 JUMPDEST DUP6 DUP4 LT PUSH2 0xE27 JUMPI POP POP PUSH2 0xDD0 SWAP4 POP DUP3 ADD ADD DUP6 PUSH2 0xDC3 JUMP JUMPDEST DUP1 SLOAD DUP4 DUP10 ADD DUP6 ADD MSTORE DUP8 SWAP5 POP DUP7 SWAP4 SWAP1 SWAP3 ADD SWAP2 DUP2 ADD PUSH2 0xE10 JUMP JUMPDEST PUSH1 0xFF NOT AND DUP6 DUP3 ADD MSTORE PUSH2 0xDD0 SWAP6 ISZERO ISZERO PUSH1 0x5 SHL DUP6 ADD ADD SWAP3 POP DUP8 SWAP2 POP PUSH2 0xDC3 SWAP1 POP JUMP JUMPDEST PUSH4 0x4E487B71 PUSH1 0xE0 SHL PUSH0 MSTORE PUSH1 0x22 PUSH1 0x4 MSTORE PUSH1 0x24 PUSH0 REVERT JUMPDEST SWAP3 PUSH1 0x7F AND SWAP3 PUSH2 0xD9F JUMP JUMPDEST CALLVALUE PUSH2 0x5F9 JUMPI PUSH0 CALLDATASIZE PUSH1 0x3 NOT ADD SLT PUSH2 0x5F9 JUMPI PUSH1 0x20 PUSH1 0x40 MLOAD PUSH3 0xFFFFFF PUSH32 0x0 AND DUP2 MSTORE RETURN JUMPDEST CALLVALUE PUSH2 0x5F9 JUMPI PUSH1 0x20 CALLDATASIZE PUSH1 0x3 NOT ADD SLT PUSH2 0x5F9 JUMPI PUSH1 0x1 PUSH1 0x1 PUSH1 0xA0 SHL SUB PUSH2 0xEDD PUSH2 0x18E8 JUMP JUMPDEST AND PUSH0 MSTORE PUSH0 PUSH1 0x20 MSTORE PUSH1 0x20 PUSH1 0x40 PUSH0 KECCAK256 SLOAD PUSH1 0x40 MLOAD SWAP1 DUP2 MSTORE RETURN JUMPDEST CALLVALUE PUSH2 0x5F9 JUMPI PUSH0 CALLDATASIZE PUSH1 0x3 NOT ADD SLT PUSH2 0x5F9 JUMPI PUSH1 0x40 MLOAD PUSH32 0x0 PUSH1 0x1 PUSH1 0x1 PUSH1 0xA0 SHL SUB AND DUP2 MSTORE PUSH1 0x20 SWAP1 RETURN JUMPDEST CALLVALUE PUSH2 0x5F9 JUMPI PUSH0 CALLDATASIZE PUSH1 0x3 NOT ADD SLT PUSH2 0x5F9 JUMPI PUSH1 0x20 PUSH1 0xFF PUSH1 0xB SLOAD AND PUSH1 0x40 MLOAD SWAP1 ISZERO ISZERO DUP2 MSTORE RETURN JUMPDEST CALLVALUE PUSH2 0x5F9 JUMPI PUSH0 CALLDATASIZE PUSH1 0x3 NOT ADD SLT PUSH2 0x5F9 JUMPI PUSH1 0x6 SLOAD PUSH1 0x40 MLOAD PUSH1 0x1 PUSH1 0x1 PUSH1 0xA0 SHL SUB SWAP1 SWAP2 AND DUP2 MSTORE PUSH1 0x20 SWAP1 RETURN JUMPDEST CALLVALUE PUSH2 0x5F9 JUMPI PUSH0 CALLDATASIZE PUSH1 0x3 NOT ADD SLT PUSH2 0x5F9 JUMPI PUSH1 0x20 PUSH1 0x9 SLOAD PUSH1 0x40 MLOAD SWAP1 DUP2 MSTORE RETURN JUMPDEST CALLVALUE PUSH2 0x5F9 JUMPI PUSH1 0x40 CALLDATASIZE PUSH1 0x3 NOT ADD SLT PUSH2 0x5F9 JUMPI PUSH2 0xFB7 PUSH2 0x18E8 JUMP JUMPDEST PUSH1 0x6 SLOAD PUSH1 0x1 PUSH1 0x1 PUSH1 0xA0 SHL SUB SWAP2 SWAP1 DUP3 AND CALLER SUB PUSH2 0x6DF JUMPI DUP2 PUSH1 0x8 SLOAD AND SWAP1 DUP2 ISZERO PUSH2 0x5A2 JUMPI DUP3 AND SWAP2 DUP1 PUSH32 0x0 AND DUP4 EQ ISZERO SWAP1 DUP2 PUSH2 0x1151 JUMPI JUMPDEST POP PUSH2 0x5A2 JUMPI PUSH1 0x40 MLOAD PUSH4 0x6EB1769F PUSH1 0xE1 SHL DUP2 MSTORE ADDRESS PUSH1 0x4 DUP3 ADD MSTORE PUSH1 0x1 PUSH1 0x1 PUSH1 0xA0 SHL SUB DUP3 AND PUSH1 0x24 DUP3 ADD MSTORE PUSH1 0x20 SWAP3 SWAP1 DUP4 DUP2 PUSH1 0x44 DUP2 DUP6 GAS STATICCALL DUP1 ISZERO PUSH2 0x9A3 JUMPI PUSH0 SWAP1 PUSH2 0x1122 JUMPI JUMPDEST PUSH2 0x1056 SWAP2 POP PUSH1 0x24 CALLDATALOAD SWAP1 PUSH2 0x19E1 JUMP JUMPDEST PUSH1 0x40 MLOAD PUSH4 0x95EA7B3 PUSH1 0xE0 SHL DUP6 DUP3 ADD DUP2 DUP2 MSTORE PUSH1 0x1 PUSH1 0x1 PUSH1 0xA0 SHL SUB DUP7 AND PUSH1 0x24 DUP5 ADD MSTORE PUSH1 0x44 DUP1 DUP5 ADD SWAP5 SWAP1 SWAP5 MSTORE SWAP3 DUP3 MSTORE SWAP1 SWAP4 SWAP2 DUP6 SWAP1 PUSH0 SWAP1 PUSH2 0x1094 PUSH1 0x64 DUP9 PUSH2 0x1914 JUMP JUMPDEST DUP7 MLOAD SWAP1 DUP3 DUP8 GAS CALL PUSH0 MLOAD RETURNDATASIZE DUP3 PUSH2 0x1106 JUMPI JUMPDEST POP POP ISZERO PUSH2 0x10AD JUMPI STOP JUMPDEST PUSH1 0x40 MLOAD SWAP5 DUP6 ADD MSTORE PUSH1 0x24 DUP5 ADD MSTORE PUSH0 PUSH1 0x44 DUP5 ADD MSTORE PUSH1 0x44 DUP4 MSTORE PUSH1 0x80 DUP4 ADD DUP4 DUP2 LT PUSH8 0xFFFFFFFFFFFFFFFF DUP3 GT OR PUSH2 0x10F2 JUMPI PUSH2 0x10F0 SWAP4 PUSH2 0x10EB SWAP2 PUSH1 0x40 MSTORE DUP3 PUSH2 0x1A7A JUMP JUMPDEST PUSH2 0x1A7A JUMP JUMPDEST STOP JUMPDEST PUSH4 0x4E487B71 PUSH1 0xE0 SHL PUSH0 MSTORE PUSH1 0x41 PUSH1 0x4 MSTORE PUSH1 0x24 PUSH0 REVERT JUMPDEST SWAP1 SWAP2 POP PUSH2 0x111A JUMPI POP DUP3 EXTCODESIZE ISZERO ISZERO JUMPDEST DUP7 DUP1 PUSH2 0x10A4 JUMP JUMPDEST PUSH1 0x1 EQ PUSH2 0x1113 JUMP JUMPDEST POP DUP4 DUP2 DUP2 RETURNDATASIZE DUP4 GT PUSH2 0x114A JUMPI JUMPDEST PUSH2 0x1138 DUP2 DUP4 PUSH2 0x1914 JUMP JUMPDEST DUP2 ADD SUB SLT PUSH2 0x5F9 JUMPI PUSH2 0x1056 SWAP1 MLOAD PUSH2 0x1048 JUMP JUMPDEST POP RETURNDATASIZE PUSH2 0x112E JUMP JUMPDEST SWAP1 POP PUSH32 0x0 AND DUP3 EQ ISZERO DUP4 PUSH2 0x1008 JUMP JUMPDEST CALLVALUE PUSH2 0x5F9 JUMPI PUSH0 CALLDATASIZE PUSH1 0x3 NOT ADD SLT PUSH2 0x5F9 JUMPI PUSH1 0x40 MLOAD PUSH32 0x0 PUSH1 0x1 PUSH1 0x1 PUSH1 0xA0 SHL SUB AND DUP2 MSTORE PUSH1 0x20 SWAP1 RETURN JUMPDEST CALLVALUE PUSH2 0x5F9 JUMPI PUSH0 CALLDATASIZE PUSH1 0x3 NOT ADD SLT PUSH2 0x5F9 JUMPI PUSH1 0x40 MLOAD PUSH32 0x0 PUSH1 0x1 PUSH1 0x1 PUSH1 0xA0 SHL SUB AND DUP2 MSTORE PUSH1 0x20 SWAP1 RETURN JUMPDEST CALLVALUE PUSH2 0x5F9 JUMPI PUSH1 0x20 CALLDATASIZE PUSH1 0x3 NOT ADD SLT PUSH2 0x5F9 JUMPI PUSH2 0x121F PUSH2 0x18E8 JUMP JUMPDEST PUSH1 0x6 SLOAD PUSH1 0x1 PUSH1 0x1 PUSH1 0xA0 SHL SUB SWAP1 DUP2 AND CALLER SUB PUSH2 0x6DF JUMPI DUP1 PUSH1 0x8 SLOAD SWAP3 AND SWAP2 DUP3 PUSH12 0xFFFFFFFFFFFFFFFFFFFFFFFF PUSH1 0xA0 SHL DUP3 AND OR PUSH1 0x8 SSTORE AND PUSH32 0xE4CEC16B1A7E6B7979E923DA619A8B1E5FD0F0FB6E5C1CF647F350430EE61CA9 PUSH0 DUP1 LOG3 STOP JUMPDEST CALLVALUE PUSH2 0x5F9 JUMPI PUSH0 CALLDATASIZE PUSH1 0x3 NOT ADD SLT PUSH2 0x5F9 JUMPI PUSH1 0x20 PUSH1 0x40 MLOAD PUSH1 0x12 DUP2 MSTORE RETURN JUMPDEST CALLVALUE PUSH2 0x5F9 JUMPI PUSH0 CALLDATASIZE PUSH1 0x3 NOT ADD SLT PUSH2 0x5F9 JUMPI PUSH1 0x20 PUSH1 0x40 MLOAD PUSH3 0xFFFFFF PUSH32 0x0 AND DUP2 MSTORE RETURN JUMPDEST CALLVALUE PUSH2 0x5F9 JUMPI PUSH1 0x60 CALLDATASIZE PUSH1 0x3 NOT ADD SLT PUSH2 0x5F9 JUMPI PUSH2 0x12EB PUSH2 0x18E8 JUMP JUMPDEST PUSH2 0x12F3 PUSH2 0x18FE JUMP JUMPDEST PUSH1 0x1 PUSH1 0x1 PUSH1 0xA0 SHL SUB DUP3 AND PUSH0 DUP2 DUP2 MSTORE PUSH1 0x1 PUSH1 0x20 SWAP1 DUP2 MSTORE PUSH1 0x40 DUP1 DUP4 KECCAK256 CALLER DUP5 MSTORE SWAP1 SWAP2 MSTORE SWAP1 KECCAK256 SLOAD SWAP3 PUSH1 0x44 CALLDATALOAD SWAP3 SWAP2 PUSH0 NOT DUP6 LT PUSH2 0x1330 JUMPI JUMPDEST POP PUSH2 0xB2E SWAP4 POP PUSH2 0x1936 JUMP JUMPDEST DUP4 DUP6 LT PUSH2 0x1396 JUMPI DUP1 ISZERO PUSH2 0x137E JUMPI CALLER ISZERO PUSH2 0x1366 JUMPI PUSH2 0xB2E SWAP5 DUP5 SWAP2 PUSH0 MSTORE PUSH1 0x1 PUSH1 0x20 MSTORE PUSH1 0x40 PUSH0 KECCAK256 CALLER PUSH0 MSTORE PUSH1 0x20 MSTORE SUB PUSH1 0x40 PUSH0 KECCAK256 SSTORE DUP5 PUSH2 0x1325 JUMP JUMPDEST PUSH1 0x40 MLOAD PUSH4 0x4A1406B1 PUSH1 0xE1 SHL DUP2 MSTORE PUSH0 PUSH1 0x4 DUP3 ADD MSTORE PUSH1 0x24 SWAP1 REVERT JUMPDEST PUSH1 0x40 MLOAD PUSH4 0xE602DF05 PUSH1 0xE0 SHL DUP2 MSTORE PUSH0 PUSH1 0x4 DUP3 ADD MSTORE PUSH1 0x24 SWAP1 REVERT JUMPDEST PUSH1 0x40 MLOAD PUSH4 0x7DC7A0D9 PUSH1 0xE1 SHL DUP2 MSTORE CALLER PUSH1 0x4 DUP3 ADD MSTORE PUSH1 0x24 DUP2 ADD DUP7 SWAP1 MSTORE PUSH1 0x44 DUP2 ADD DUP6 SWAP1 MSTORE PUSH1 0x64 SWAP1 REVERT JUMPDEST CALLVALUE PUSH2 0x5F9 JUMPI PUSH0 CALLDATASIZE PUSH1 0x3 NOT ADD SLT PUSH2 0x5F9 JUMPI PUSH1 0x7 SLOAD PUSH1 0x1 PUSH1 0x1 PUSH1 0xA0 SHL SUB DUP1 DUP3 AND SWAP2 CALLER DUP4 SWAP1 SUB PUSH2 0x6DF JUMPI PUSH1 0x6 DUP1 SLOAD PUSH1 0x1 PUSH1 0x1 PUSH1 0xA0 SHL SUB NOT DUP1 DUP3 AND DUP7 OR SWAP1 SWAP3 SSTORE SWAP2 AND PUSH1 0x7 SSTORE AND PUSH32 0x5F56BEE8CFFBE9A78652A74A60705EDEDE02AF10B0BBB888CA44B79A0D42CE80 PUSH0 DUP1 LOG3 STOP JUMPDEST CALLVALUE PUSH2 0x5F9 JUMPI PUSH0 CALLDATASIZE PUSH1 0x3 NOT ADD SLT PUSH2 0x5F9 JUMPI PUSH1 0x20 PUSH1 0xA SLOAD PUSH1 0x40 MLOAD SWAP1 DUP2 MSTORE RETURN JUMPDEST CALLVALUE PUSH2 0x5F9 JUMPI PUSH1 0x20 CALLDATASIZE PUSH1 0x3 NOT ADD SLT PUSH2 0x5F9 JUMPI PUSH1 0x4 CALLDATALOAD DUP1 ISZERO ISZERO DUP1 SWAP2 SUB PUSH2 0x5F9 JUMPI PUSH1 0x6 SLOAD PUSH1 0x1 PUSH1 0x1 PUSH1 0xA0 SHL SUB AND CALLER SUB PUSH2 0x6DF JUMPI PUSH1 0x20 PUSH32 0x9723F28D4ABAFF5DF0F62BFB2418F2AAC4A739B259EDF209B8DC9944FA85AA78 SWAP2 PUSH1 0xFF NOT PUSH1 0xB SLOAD AND PUSH1 0xFF DUP3 AND OR PUSH1 0xB SSTORE PUSH1 0x40 MLOAD SWAP1 DUP2 MSTORE LOG1 STOP JUMPDEST CALLVALUE PUSH2 0x5F9 JUMPI PUSH0 CALLDATASIZE PUSH1 0x3 NOT ADD SLT PUSH2 0x5F9 JUMPI PUSH1 0x20 PUSH1 0x2 SLOAD PUSH1 0x40 MLOAD SWAP1 DUP2 MSTORE RETURN JUMPDEST CALLVALUE PUSH2 0x5F9 JUMPI PUSH1 0x20 CALLDATASIZE PUSH1 0x3 NOT ADD SLT PUSH2 0x5F9 JUMPI PUSH1 0x40 PUSH2 0xD6A PUSH1 0x4 CALLDATALOAD PUSH2 0x1B40 JUMP JUMPDEST CALLVALUE PUSH2 0x5F9 JUMPI PUSH1 0x40 CALLDATASIZE PUSH1 0x3 NOT ADD SLT PUSH2 0x5F9 JUMPI PUSH2 0x1501 PUSH2 0x18E8 JUMP JUMPDEST PUSH1 0x24 CALLDATALOAD SWAP1 CALLER ISZERO PUSH2 0x137E JUMPI PUSH1 0x1 PUSH1 0x1 PUSH1 0xA0 SHL SUB AND SWAP1 DUP2 ISZERO PUSH2 0x1366 JUMPI CALLER PUSH0 MSTORE PUSH1 0x1 PUSH1 0x20 MSTORE PUSH1 0x40 PUSH0 KECCAK256 DUP3 PUSH0 MSTORE PUSH1 0x20 MSTORE DUP1 PUSH1 0x40 PUSH0 KECCAK256 SSTORE PUSH1 0x40 MLOAD SWAP1 DUP2 MSTORE PUSH32 0x8C5BE1E5EBEC7D5BD14F71427D1E84F3DD0314C0F7B2291E5B200AC8C7C3B925 PUSH1 0x20 CALLER SWAP3 LOG3 PUSH1 0x20 PUSH1 0x40 MLOAD PUSH1 0x1 DUP2 MSTORE RETURN JUMPDEST CALLVALUE PUSH2 0x5F9 JUMPI PUSH0 CALLDATASIZE PUSH1 0x3 NOT ADD SLT PUSH2 0x5F9 JUMPI PUSH1 0x40 PUSH1 0x9 SLOAD PUSH1 0xA SLOAD DUP3 MLOAD SWAP2 DUP3 MSTORE PUSH1 0x20 DUP3 ADD MSTORE RETURN JUMPDEST CALLVALUE PUSH2 0x5F9 JUMPI PUSH0 CALLDATASIZE PUSH1 0x3 NOT ADD SLT PUSH2 0x5F9 JUMPI PUSH1 0x40 MLOAD PUSH0 PUSH1 0x3 SLOAD SWAP1 PUSH1 0x1 DUP3 DUP2 SHR SWAP2 DUP2 DUP5 AND SWAP2 DUP3 ISZERO PUSH2 0x1642 JUMPI JUMPDEST PUSH1 0x20 SWAP5 DUP6 DUP6 LT DUP5 EQ PUSH2 0xE5F JUMPI DUP6 DUP8 SWAP5 DUP7 DUP7 MSTORE SWAP2 DUP3 PUSH0 EQ PUSH2 0xE3F JUMPI POP POP PUSH1 0x1 EQ PUSH2 0x15E7 JUMPI POP PUSH2 0xDD0 SWAP3 POP SUB DUP4 PUSH2 0x1914 JUMP JUMPDEST DUP5 SWAP2 POP PUSH1 0x3 PUSH0 MSTORE PUSH32 0xC2575A0E9E593C00F959F8C92F12DB2869C3395A3B0502D05E2516446F71F85B SWAP1 PUSH0 SWAP2 JUMPDEST DUP6 DUP4 LT PUSH2 0x162A JUMPI POP POP PUSH2 0xDD0 SWAP4 POP DUP3 ADD ADD DUP6 PUSH2 0xDC3 JUMP JUMPDEST DUP1 SLOAD DUP4 DUP10 ADD DUP6 ADD MSTORE DUP8 SWAP5 POP DUP7 SWAP4 SWAP1 SWAP3 ADD SWAP2 DUP2 ADD PUSH2 0x1613 JUMP JUMPDEST SWAP3 PUSH1 0x7F AND SWAP3 PUSH2 0x15B7 JUMP JUMPDEST CALLVALUE PUSH2 0x5F9 JUMPI PUSH2 0x165A CALLDATASIZE PUSH2 0x1890 JUMP JUMPDEST SWAP1 SWAP2 PUSH2 0x1664 PUSH2 0x1AD4 JUMP JUMPDEST PUSH1 0xFF PUSH1 0xB SLOAD AND PUSH2 0x187E JUMPI PUSH2 0x3E8 DUP1 DUP3 LT SWAP1 DUP2 ISZERO PUSH2 0x1874 JUMPI JUMPDEST POP PUSH2 0x590 JUMPI PUSH1 0x2 SLOAD DUP1 PUSH2 0x1831 JUMPI POP PUSH2 0x1694 DUP4 DUP3 PUSH2 0x19EE JUMP JUMPDEST SWAP2 PUSH0 PUSH1 0x3 DUP5 GT ISZERO PUSH2 0x1822 JUMPI POP DUP3 PUSH1 0x1 SWAP1 DUP1 DUP3 SHR DUP3 DUP2 ADD DUP1 SWAP2 GT PUSH2 0x55B JUMPI SWAP2 SWAP1 JUMPDEST DUP6 DUP4 LT PUSH2 0x1802 JUMPI POP POP POP JUMPDEST DUP3 ISZERO PUSH2 0x590 JUMPI JUMPDEST DUP3 LT PUSH2 0xD3A JUMPI PUSH2 0x1731 DUP4 PUSH1 0x1 PUSH1 0x1 PUSH1 0xA0 SHL SUB PUSH2 0x1706 DUP5 ADDRESS CALLER PUSH32 0x0 DUP6 AND PUSH2 0x1A1F JUMP JUMPDEST ADDRESS SWAP1 CALLER SWAP1 PUSH32 0x0 AND PUSH2 0x1A1F JUMP JUMPDEST PUSH2 0x173D DUP2 PUSH1 0x9 SLOAD PUSH2 0x19E1 JUMP JUMPDEST PUSH1 0x9 SSTORE PUSH2 0x174C DUP4 PUSH1 0xA SLOAD PUSH2 0x19E1 JUMP JUMPDEST PUSH1 0xA SSTORE CALLER ISZERO PUSH2 0x17EA JUMPI PUSH32 0x91EDE45F04A37A7C170F5C1207DF3B6BC748DC1E04AD5E917A241D0F52FEADA3 DUP3 PUSH1 0x20 SWAP5 PUSH2 0x1786 DUP3 PUSH1 0x2 SLOAD PUSH2 0x19E1 JUMP JUMPDEST PUSH1 0x2 SSTORE CALLER PUSH0 MSTORE PUSH0 DUP7 MSTORE PUSH1 0x40 PUSH0 KECCAK256 DUP3 DUP2 SLOAD ADD SWAP1 SSTORE PUSH1 0x40 MLOAD DUP3 DUP2 MSTORE PUSH0 PUSH32 0xDDF252AD1BE2C89B69C2B068FC378DAA952BA7F163C4A11628F55A4DF523B3EF DUP9 CALLER SWAP4 LOG3 PUSH1 0x40 DUP1 MLOAD SWAP5 DUP6 MSTORE PUSH1 0x20 DUP6 ADD SWAP2 SWAP1 SWAP2 MSTORE DUP4 ADD MSTORE CALLER SWAP2 PUSH1 0x60 SWAP1 LOG2 PUSH1 0x1 PUSH1 0x5 SSTORE PUSH1 0x40 MLOAD SWAP1 DUP2 MSTORE RETURN JUMPDEST PUSH1 0x40 MLOAD PUSH4 0xEC442F05 PUSH1 0xE0 SHL DUP2 MSTORE PUSH0 PUSH1 0x4 DUP3 ADD MSTORE PUSH1 0x24 SWAP1 REVERT JUMPDEST SWAP1 SWAP2 SWAP5 POP PUSH2 0x1819 DUP6 PUSH2 0x1814 DUP2 DUP5 PUSH2 0x1A01 JUMP JUMPDEST PUSH2 0x19E1 JUMP JUMPDEST DUP3 SHR SWAP2 SWAP1 PUSH2 0x16B4 JUMP JUMPDEST SWAP3 ISZERO PUSH2 0x16BF JUMPI PUSH1 0x1 SWAP3 POP PUSH2 0x16BF JUMP JUMPDEST PUSH2 0x185D PUSH2 0x1854 PUSH2 0x184D PUSH2 0x1844 DUP5 DUP7 PUSH2 0x19EE JUMP JUMPDEST PUSH1 0x9 SLOAD SWAP1 PUSH2 0x1A01 JUMP JUMPDEST SWAP3 DUP7 PUSH2 0x19EE JUMP JUMPDEST PUSH1 0xA SLOAD SWAP1 PUSH2 0x1A01 JUMP JUMPDEST DUP1 DUP3 LT ISZERO PUSH2 0x186D JUMPI POP JUMPDEST SWAP2 PUSH2 0x16C6 JUMP JUMPDEST SWAP1 POP PUSH2 0x1867 JUMP JUMPDEST SWAP1 POP DUP4 LT DUP5 PUSH2 0x167C JUMP JUMPDEST PUSH1 0x40 MLOAD PUSH4 0xDEEB6943 PUSH1 0xE0 SHL DUP2 MSTORE PUSH1 0x4 SWAP1 REVERT JUMPDEST PUSH1 0x60 SWAP1 PUSH1 0x3 NOT ADD SLT PUSH2 0x5F9 JUMPI PUSH1 0x4 CALLDATALOAD SWAP1 PUSH1 0x24 CALLDATALOAD SWAP1 PUSH1 0x44 CALLDATALOAD SWAP1 JUMP JUMPDEST SWAP2 SWAP1 DUP3 MLOAD SWAP3 DUP4 DUP3 MSTORE PUSH0 JUMPDEST DUP5 DUP2 LT PUSH2 0x18D4 JUMPI POP POP DUP3 PUSH0 PUSH1 0x20 DUP1 SWAP5 SWAP6 DUP5 ADD ADD MSTORE PUSH1 0x1F DUP1 NOT SWAP2 ADD AND ADD ADD SWAP1 JUMP JUMPDEST PUSH1 0x20 DUP2 DUP4 ADD DUP2 ADD MLOAD DUP5 DUP4 ADD DUP3 ADD MSTORE ADD PUSH2 0x18B4 JUMP JUMPDEST PUSH1 0x4 CALLDATALOAD SWAP1 PUSH1 0x1 PUSH1 0x1 PUSH1 0xA0 SHL SUB DUP3 AND DUP3 SUB PUSH2 0x5F9 JUMPI JUMP JUMPDEST PUSH1 0x24 CALLDATALOAD SWAP1 PUSH1 0x1 PUSH1 0x1 PUSH1 0xA0 SHL SUB DUP3 AND DUP3 SUB PUSH2 0x5F9 JUMPI JUMP JUMPDEST SWAP1 PUSH1 0x1F DUP1 NOT SWAP2 ADD AND DUP2 ADD SWAP1 DUP2 LT PUSH8 0xFFFFFFFFFFFFFFFF DUP3 GT OR PUSH2 0x10F2 JUMPI PUSH1 0x40 MSTORE JUMP JUMPDEST SWAP2 PUSH1 0x1 PUSH1 0x1 PUSH1 0xA0 SHL SUB DUP1 DUP5 AND SWAP3 DUP4 ISZERO PUSH2 0xD18 JUMPI AND SWAP3 DUP4 ISZERO PUSH2 0x17EA JUMPI PUSH0 SWAP1 DUP4 DUP3 MSTORE DUP2 PUSH1 0x20 MSTORE PUSH1 0x40 DUP3 KECCAK256 SLOAD SWAP1 DUP4 DUP3 LT PUSH2 0x19AF JUMPI POP SWAP2 PUSH1 0x40 DUP3 DUP3 PUSH32 0xDDF252AD1BE2C89B69C2B068FC378DAA952BA7F163C4A11628F55A4DF523B3EF SWAP6 DUP8 PUSH1 0x20 SWAP7 MSTORE DUP3 DUP7 MSTORE SUB DUP3 DUP3 KECCAK256 SSTORE DUP7 DUP2 MSTORE KECCAK256 DUP2 DUP2 SLOAD ADD SWAP1 SSTORE PUSH1 0x40 MLOAD SWAP1 DUP2 MSTORE LOG3 JUMP JUMPDEST PUSH1 0x40 MLOAD PUSH4 0x391434E3 PUSH1 0xE2 SHL DUP2 MSTORE PUSH1 0x1 PUSH1 0x1 PUSH1 0xA0 SHL SUB SWAP2 SWAP1 SWAP2 AND PUSH1 0x4 DUP3 ADD MSTORE PUSH1 0x24 DUP2 ADD SWAP2 SWAP1 SWAP2 MSTORE PUSH1 0x44 DUP2 ADD DUP4 SWAP1 MSTORE PUSH1 0x64 SWAP1 REVERT JUMPDEST SWAP2 SWAP1 DUP3 ADD DUP1 SWAP3 GT PUSH2 0x55B JUMPI JUMP JUMPDEST DUP2 DUP2 MUL SWAP3 SWAP2 DUP2 ISZERO SWAP2 DUP5 DIV EQ OR ISZERO PUSH2 0x55B JUMPI JUMP JUMPDEST DUP2 ISZERO PUSH2 0x1A0B JUMPI DIV SWAP1 JUMP JUMPDEST PUSH4 0x4E487B71 PUSH1 0xE0 SHL PUSH0 MSTORE PUSH1 0x12 PUSH1 0x4 MSTORE PUSH1 0x24 PUSH0 REVERT JUMPDEST PUSH1 0x40 MLOAD PUSH4 0x23B872DD PUSH1 0xE0 SHL PUSH1 0x20 DUP3 ADD MSTORE PUSH1 0x1 PUSH1 0x1 PUSH1 0xA0 SHL SUB SWAP3 DUP4 AND PUSH1 0x24 DUP3 ADD MSTORE SWAP3 SWAP1 SWAP2 AND PUSH1 0x44 DUP4 ADD MSTORE PUSH1 0x64 DUP1 DUP4 ADD SWAP4 SWAP1 SWAP4 MSTORE SWAP2 DUP2 MSTORE PUSH1 0xA0 DUP2 ADD SWAP2 DUP2 DUP4 LT PUSH8 0xFFFFFFFFFFFFFFFF DUP5 GT OR PUSH2 0x10F2 JUMPI PUSH2 0x1A78 SWAP3 PUSH1 0x40 MSTORE PUSH2 0x1A7A JUMP JUMPDEST JUMP JUMPDEST SWAP1 PUSH0 PUSH1 0x20 SWAP2 DUP3 DUP2 MLOAD SWAP2 ADD DUP3 DUP6 GAS CALL ISZERO PUSH2 0x9A3 JUMPI PUSH0 MLOAD RETURNDATASIZE PUSH2 0x1ACB JUMPI POP PUSH1 0x1 PUSH1 0x1 PUSH1 0xA0 SHL SUB DUP2 AND EXTCODESIZE ISZERO JUMPDEST PUSH2 0x1AA9 JUMPI POP JUMP JUMPDEST PUSH1 0x40 MLOAD PUSH4 0x5274AFE7 PUSH1 0xE0 SHL DUP2 MSTORE PUSH1 0x1 PUSH1 0x1 PUSH1 0xA0 SHL SUB SWAP1 SWAP2 AND PUSH1 0x4 DUP3 ADD MSTORE PUSH1 0x24 SWAP1 REVERT JUMPDEST PUSH1 0x1 EQ ISZERO PUSH2 0x1AA2 JUMP JUMPDEST PUSH1 0x2 PUSH1 0x5 SLOAD EQ PUSH2 0x1AE5 JUMPI PUSH1 0x2 PUSH1 0x5 SSTORE JUMP JUMPDEST PUSH1 0x40 MLOAD PUSH4 0x3EE5AEB5 PUSH1 0xE0 SHL DUP2 MSTORE PUSH1 0x4 SWAP1 REVERT JUMPDEST SWAP2 SWAP1 DUP3 SUB SWAP2 DUP3 GT PUSH2 0x55B JUMPI JUMP JUMPDEST PUSH1 0x40 MLOAD PUSH4 0xA9059CBB PUSH1 0xE0 SHL PUSH1 0x20 DUP3 ADD MSTORE PUSH1 0x1 PUSH1 0x1 PUSH1 0xA0 SHL SUB SWAP3 SWAP1 SWAP3 AND PUSH1 0x24 DUP4 ADD MSTORE PUSH1 0x44 DUP1 DUP4 ADD SWAP4 SWAP1 SWAP4 MSTORE SWAP2 DUP2 MSTORE PUSH2 0x1A78 SWAP2 PUSH2 0x10EB PUSH1 0x64 DUP4 PUSH2 0x1914 JUMP JUMPDEST SWAP1 DUP2 ISZERO DUP1 ISZERO PUSH2 0x1B7B JUMPI JUMPDEST PUSH2 0x1B74 JUMPI PUSH2 0x1B71 PUSH1 0x2 SLOAD PUSH2 0xBA4 PUSH2 0x1B67 DUP3 PUSH2 0xBA4 PUSH1 0x9 SLOAD DUP9 PUSH2 0x19EE JUMP JUMPDEST SWAP5 PUSH1 0xA SLOAD SWAP1 PUSH2 0x19EE JUMP JUMPDEST SWAP1 JUMP JUMPDEST PUSH0 SWAP2 POP DUP2 SWAP1 JUMP JUMPDEST POP PUSH1 0x2 SLOAD ISZERO PUSH2 0x1B4A JUMP JUMPDEST SWAP1 PUSH1 0x2 SLOAD DUP1 ISZERO PUSH2 0x1BA6 JUMPI DUP1 PUSH2 0xBA4 PUSH2 0x1B67 PUSH2 0x1B71 SWAP4 PUSH2 0xBA4 PUSH1 0x9 SLOAD DUP9 PUSH2 0x19EE JUMP JUMPDEST POP PUSH0 SWAP2 POP DUP2 SWAP1 JUMP INVALID LOG2 PUSH5 0x6970667358 0x22 SLT KECCAK256 MULMOD 0xB3 RETURN SAR SSTORE GASLIMIT 0xBC 0xA9 PUSH6 0xD7915DF7F023 0xBC 0x4B DUP15 PUSH16 0xF16685128007CE5B3AF257E66664736F PUSH13 0x63430008140033A26469706673 PC 0x22 SLT KECCAK256 SMOD DUP6 0xC6 0xB2 0xE3 PUSH15 0x3C9B827427BA7B270A4A34B7781C72 0xE PUSH25 0xEFDF60062F5AF0D04C64736F6C634300081400330000000000 "},"methodIdentifiers":{"acceptGovernance()":"238efcbc","allVaults(uint256)":"9094a91e","allVaultsLength()":"4cd18577","createVault(address,string,string)":"515d61ec","feeRecipient()":"46904840","getVault(address)":"0eb9af38","getVaultByIndex(uint256)":"8c3d6090","governance()":"5aa6e675","pendingGovernance()":"f39c38a0","protocolFeeBps()":"35659fb8","setFeeRecipient(address)":"e74b981b","setProtocolFee(uint256)":"787dce3d","swapFeeBps()":"2ffdaf89","transferGovernance(address)":"d38bfff4","usdc()":"3e413bee"}}}}}