{"project/core/ArcAMMPool.sol":{"ArcAMMPool":{"abi":[{"inputs":[{"internalType":"address","name":"_tokenA","type":"address"},{"internalType":"address","name":"_tokenB","type":"address"},{"internalType":"uint24","name":"_swapFeeBps","type":"uint24"},{"internalType":"address","name":"_protocolFeeRecipient","type":"address"},{"internalType":"uint24","name":"_protocolFeeShareBps","type":"uint24"}],"stateMutability":"nonpayable","type":"constructor"},{"inputs":[{"internalType":"address","name":"spender","type":"address"},{"internalType":"uint256","name":"allowance","type":"uint256"},{"internalType":"uint256","name":"needed","type":"uint256"}],"name":"ERC20InsufficientAllowance","type":"error"},{"inputs":[{"internalType":"address","name":"sender","type":"address"},{"internalType":"uint256","name":"balance","type":"uint256"},{"internalType":"uint256","name":"needed","type":"uint256"}],"name":"ERC20InsufficientBalance","type":"error"},{"inputs":[{"internalType":"address","name":"approver","type":"address"}],"name":"ERC20InvalidApprover","type":"error"},{"inputs":[{"internalType":"address","name":"receiver","type":"address"}],"name":"ERC20InvalidReceiver","type":"error"},{"inputs":[{"internalType":"address","name":"sender","type":"address"}],"name":"ERC20InvalidSender","type":"error"},{"inputs":[{"internalType":"address","name":"spender","type":"address"}],"name":"ERC20InvalidSpender","type":"error"},{"inputs":[],"name":"ReentrancyGuardReentrantCall","type":"error"},{"inputs":[{"internalType":"address","name":"token","type":"address"}],"name":"SafeERC20FailedOperation","type":"error"},{"anonymous":false,"inputs":[{"indexed":true,"internalType":"address","name":"owner","type":"address"},{"indexed":true,"internalType":"address","name":"spender","type":"address"},{"indexed":false,"internalType":"uint256","name":"value","type":"uint256"}],"name":"Approval","type":"event"},{"anonymous":false,"inputs":[{"indexed":true,"internalType":"address","name":"sender","type":"address"},{"indexed":false,"internalType":"uint256","name":"amount0","type":"uint256"},{"indexed":false,"internalType":"uint256","name":"amount1","type":"uint256"},{"indexed":true,"internalType":"address","name":"to","type":"address"}],"name":"Burn","type":"event"},{"anonymous":false,"inputs":[{"indexed":true,"internalType":"address","name":"sender","type":"address"},{"indexed":false,"internalType":"uint256","name":"amount0","type":"uint256"},{"indexed":false,"internalType":"uint256","name":"amount1","type":"uint256"},{"indexed":false,"internalType":"uint256","name":"liquidity","type":"uint256"}],"name":"Mint","type":"event"},{"anonymous":false,"inputs":[{"indexed":true,"internalType":"address","name":"sender","type":"address"},{"indexed":false,"internalType":"uint256","name":"amount0In","type":"uint256"},{"indexed":false,"internalType":"uint256","name":"amount1In","type":"uint256"},{"indexed":false,"internalType":"uint256","name":"amount0Out","type":"uint256"},{"indexed":false,"internalType":"uint256","name":"amount1Out","type":"uint256"},{"indexed":true,"internalType":"address","name":"to","type":"address"}],"name":"Swap","type":"event"},{"anonymous":false,"inputs":[{"indexed":false,"internalType":"uint112","name":"reserve0","type":"uint112"},{"indexed":false,"internalType":"uint112","name":"reserve1","type":"uint112"}],"name":"Sync","type":"event"},{"anonymous":false,"inputs":[{"indexed":true,"internalType":"address","name":"from","type":"address"},{"indexed":true,"internalType":"address","name":"to","type":"address"},{"indexed":false,"internalType":"uint256","name":"value","type":"uint256"}],"name":"Transfer","type":"event"},{"inputs":[{"internalType":"uint256","name":"amount0Desired","type":"uint256"},{"internalType":"uint256","name":"amount1Desired","type":"uint256"},{"internalType":"uint256","name":"amount0Min","type":"uint256"},{"internalType":"uint256","name":"amount1Min","type":"uint256"},{"internalType":"address","name":"to","type":"address"}],"name":"addLiquidity","outputs":[{"internalType":"uint256","name":"liquidity","type":"uint256"},{"internalType":"uint256","name":"amount0","type":"uint256"},{"internalType":"uint256","name":"amount1","type":"uint256"}],"stateMutability":"nonpayable","type":"function"},{"inputs":[{"internalType":"address","name":"owner","type":"address"},{"internalType":"address","name":"spender","type":"address"}],"name":"allowance","outputs":[{"internalType":"uint256","name":"","type":"uint256"}],"stateMutability":"view","type":"function"},{"inputs":[{"internalType":"address","name":"spender","type":"address"},{"internalType":"uint256","name":"value","type":"uint256"}],"name":"approve","outputs":[{"internalType":"bool","name":"","type":"bool"}],"stateMutability":"nonpayable","type":"function"},{"inputs":[{"internalType":"address","name":"account","type":"address"}],"name":"balanceOf","outputs":[{"internalType":"uint256","name":"","type":"uint256"}],"stateMutability":"view","type":"function"},{"inputs":[],"name":"decimals","outputs":[{"internalType":"uint8","name":"","type":"uint8"}],"stateMutability":"view","type":"function"},{"inputs":[],"name":"factory","outputs":[{"internalType":"address","name":"","type":"address"}],"stateMutability":"view","type":"function"},{"inputs":[],"name":"getReserves","outputs":[{"internalType":"uint112","name":"_reserve0","type":"uint112"},{"internalType":"uint112","name":"_reserve1","type":"uint112"}],"stateMutability":"view","type":"function"},{"inputs":[],"name":"getTokens","outputs":[{"internalType":"address","name":"","type":"address"},{"internalType":"address","name":"","type":"address"}],"stateMutability":"view","type":"function"},{"inputs":[],"name":"name","outputs":[{"internalType":"string","name":"","type":"string"}],"stateMutability":"view","type":"function"},{"inputs":[],"name":"protocolFeeRecipient","outputs":[{"internalType":"address","name":"","type":"address"}],"stateMutability":"view","type":"function"},{"inputs":[],"name":"protocolFeeShareBps","outputs":[{"internalType":"uint24","name":"","type":"uint24"}],"stateMutability":"view","type":"function"},{"inputs":[{"internalType":"uint256","name":"liquidity","type":"uint256"},{"internalType":"uint256","name":"amount0Min","type":"uint256"},{"internalType":"uint256","name":"amount1Min","type":"uint256"},{"internalType":"address","name":"to","type":"address"}],"name":"removeLiquidity","outputs":[{"internalType":"uint256","name":"amount0","type":"uint256"},{"internalType":"uint256","name":"amount1","type":"uint256"}],"stateMutability":"nonpayable","type":"function"},{"inputs":[{"internalType":"address","name":"to","type":"address"}],"name":"skim","outputs":[],"stateMutability":"nonpayable","type":"function"},{"inputs":[{"internalType":"uint256","name":"amount0Out","type":"uint256"},{"internalType":"uint256","name":"amount1Out","type":"uint256"},{"internalType":"address","name":"to","type":"address"}],"name":"swap","outputs":[],"stateMutability":"nonpayable","type":"function"},{"inputs":[{"internalType":"address","name":"tokenIn","type":"address"},{"internalType":"address","name":"tokenOut","type":"address"},{"internalType":"uint256","name":"amountIn","type":"uint256"},{"internalType":"address","name":"to","type":"address"}],"name":"swap","outputs":[{"internalType":"uint256","name":"amountOut","type":"uint256"}],"stateMutability":"nonpayable","type":"function"},{"inputs":[],"name":"swapFeeBps","outputs":[{"internalType":"uint24","name":"","type":"uint24"}],"stateMutability":"view","type":"function"},{"inputs":[],"name":"symbol","outputs":[{"internalType":"string","name":"","type":"string"}],"stateMutability":"view","type":"function"},{"inputs":[],"name":"sync","outputs":[],"stateMutability":"nonpayable","type":"function"},{"inputs":[],"name":"token0","outputs":[{"internalType":"address","name":"","type":"address"}],"stateMutability":"view","type":"function"},{"inputs":[],"name":"token1","outputs":[{"internalType":"address","name":"","type":"address"}],"stateMutability":"view","type":"function"},{"inputs":[],"name":"totalSupply","outputs":[{"internalType":"uint256","name":"","type":"uint256"}],"stateMutability":"view","type":"function"},{"inputs":[{"internalType":"address","name":"to","type":"address"},{"internalType":"uint256","name":"value","type":"uint256"}],"name":"transfer","outputs":[{"internalType":"bool","name":"","type":"bool"}],"stateMutability":"nonpayable","type":"function"},{"inputs":[{"internalType":"address","name":"from","type":"address"},{"internalType":"address","name":"to","type":"address"},{"internalType":"uint256","name":"value","type":"uint256"}],"name":"transferFrom","outputs":[{"internalType":"bool","name":"","type":"bool"}],"stateMutability":"nonpayable","type":"function"}],"evm":{"bytecode":{"linkReferences":{},"object":"61014034620005d4576001600160401b03601f6200279338819003828101601f199081168601939290919085851187861017620004e3578160a09288926040978852833981010312620005d4576200005785620005f8565b60209162000067838801620005f8565b92620000758689016200060d565b946200009260806200008a60608c01620005f8565b9a016200060d565b976200009d620005d8565b91600a835269041726320414d4d204c560b41b84840152620000be620005d8565b90600682526504152432d4c560d41b85830152835191838311620004e35760039283546001968782811c92168015620005c9575b89831014620005b557818584931162000562575b50889085831160011462000503575f92620004f7575b50505f1982861b1c191690861b1783555b8051938411620004e35760049687548681811c91168015620004d8575b88821014620004c5579081848796959493116200046c575b50879285116001146200040857505f93620003fc575b505082841b925f19911b1c19161783555b6005556001600160a01b038481169290841691828414620003ba5782151580620003b0575b156200037f5761271062ffffff81818a1610156200034d578a16116200030b57505033608052101562000304575b60a05260c05260e052610100928352610120918252519061217492836200061f843960805183818161098101526109d5015260a0518381816101590152818161029d0152818161056a01528181610a3e01528181610bb001528181610e0001528181610e5d01528181610fef0152818161125101528181611366015281816114440152611996015260c0518381816101a0015281816102c00152818161058d0152818161093d01528181610a1a01528181610bd501528181610e8e0152818161104301528181611287015281816112f3015281816113a90152611467015260e051838181610f2401528181610f6e01528181611562015281816115ac01526118560152518281816117f10152611fd9015251818181610d440152818161202201526120660152f35b90620001dc565b875162461bcd60e51b815291820152601760248201527f50524f544f434f4c5f53484152455f544f4f5f48494748000000000000000000604482015260649150fd5b895162461bcd60e51b8152808501849052600c60248201526b08c8a8abea89e9ebe90928e960a31b6044820152606490fd5b875162461bcd60e51b815291820152600c60248201526b5a45524f5f4144445245535360a01b604482015260649150fd5b50831515620001ae565b875162461bcd60e51b815291820152601360248201527f4944454e544943414c5f41444452455353455300000000000000000000000000604482015260649150fd5b015191505f8062000178565b8695939291931692885f52875f20935f5b898282106200045557505085116200043b575b50505050811b01835562000189565b01519060f8845f19921b161c191690555f8080806200042c565b838501518755899890960195938401930162000419565b909192939450885f52875f208480880160051c8201928a8910620004bb575b918991899897969594930160051c01915b828110620004ac57505062000162565b5f81558897508991016200049c565b925081926200048b565b602289634e487b7160e01b5f525260245ffd5b90607f16906200014a565b634e487b7160e01b5f52604160045260245ffd5b015190505f806200011c565b908a89941691875f528a5f20925f5b8c8282106200054b575050841162000533575b505050811b0183556200012d565b01515f1983881b60f8161c191690555f808062000525565b8385015186558c9790950194938401930162000512565b909150855f52885f208580850160051c8201928b8610620005ab575b918a91869594930160051c01915b8281106200059c57505062000106565b5f81558594508a91016200058c565b925081926200057e565b634e487b7160e01b5f52602260045260245ffd5b91607f1691620000f2565b5f80fd5b60408051919082016001600160401b03811183821017620004e357604052565b51906001600160a01b0382168203620005d457565b519062ffffff82168203620005d45756fe6080806040526004361015610012575f80fd5b5f3560e01c90816306fdde0314611a7c575080630902f1ac14611a47578063095ea7b3146119c55780630dfe16811461198157806318160ddd1461196457806323b872dd1461187a5780632ffdaf891461183b578063313ce5671461182057806364df049e146117dc5780636d9a640a146113d15780636e81221c14610d9f57806370a0823114610d685780639040f86614610d2957806395d89b4114610c2d578063a9059cbb14610bfc578063aa6ca80814610b92578063bc25cf77146109b0578063c45a01551461096c578063d21220a714610928578063dd62ed3e146108db578063e0ab0772146104fc578063e39b0eb5146102535763fff6cae914610119575f80fd5b3461020c575f36600319011261020c57610131611eea565b6040516370a0823160e01b8082523060048301526001600160a01b03916020919082816024817f000000000000000000000000000000000000000000000000000000000000000088165afa9182156102175783915f93610222575b5060246040518096819382523060048301527f0000000000000000000000000000000000000000000000000000000000000000165afa918215610217575f926101e1575b6101da8383611f0d565b6001600555005b90915082813d8311610210575b6101f88183611bbd565b8101031261020c576101da9151905f6101d0565b5f80fd5b503d6101ee565b6040513d5f823e3d90fd5b8281939294503d831161024c575b61023a8183611bbd565b8101031261020c57829051915f61018c565b503d610230565b3461020c57608036600319011261020c5760043561026f611ba7565b90610278611eea565b6001600160a01b039180831691610290831515611cb0565b80156104c65760065492847f000000000000000000000000000000000000000000000000000000000000000016947f00000000000000000000000000000000000000000000000000000000000000001660025433156104ae57335f526020935f855260405f20548181106104865791610350826103609361038f95335f525f8a520360405f205580600254036002555f6040518281525f8051602061211f8339815191528a3392a36001600160701b0361035584610350838e1685611d27565b611d3a565b9a60701c1690611d27565b8095610370602435891015611d58565b61037e604435831015611d9b565b61038988828b61208c565b8361208c565b6040519583876024816370a0823160e01b948582523060048301525afa968715610217575f97610457575b50839060246040518094819382523060048301525afa908115610217575f91610429575b506103eb90604096611f0d565b845184815283838201527fdccd412f0b1252819cb1fd330b93224ca42612892bb3f4f789976e6d81936496863392a360016005558351928352820152f35b90508281813d8311610450575b6104408183611bbd565b8101031261020c575160406103de565b503d610436565b9096508381813d831161047f575b61046f8183611bbd565b8101031261020c575195836103ba565b503d610465565b60405163391434e360e21b815233600482015260248101919091526044810191909152606490fd5b604051634b637e8f60e11b81525f6004820152602490fd5b60405162461bcd60e51b815260206004820152600e60248201526d5a45524f5f4c495155494449545960901b6044820152606490fd5b3461020c5760a036600319011261020c576024803590600435906001600160a01b03906084359082821680830361020c5761054090610539611eea565b1515611cb0565b831515806108d2575b61055290611ce6565b600654936001600160701b038086169560701c1692847f000000000000000000000000000000000000000000000000000000000000000016947f000000000000000000000000000000000000000000000000000000000000000016918615806108ca575b1561087f5796935b6105ca88303389611e35565b6105d685303386611e35565b60025496876108495750506105eb8488611d27565b5f600382111561083b57508060019080821c8281018091116108285791905b838310610808575050505b6103e71981019081116107f557956103e8908181018091116107e2575f8051602061211f83398151915260206001935f9360025584845283825260408420818154019055604051908152a35b851561079e578561067a9161067582611fd7565b611deb565b6040519384926370a0823160e01b91828552306004860152848260209687935afa958615610217575f9661076d575b509083916040518094819382523060048301525afa918215610217575f9261073d575b50506106db9061073993611f0d565b604080518581526020810183905290810184905233907fb4c03061fb5b7fed76389d5af8f2e0ddb09f8c70d1333abbb62582835e10accb90606090a26001600555604051938493846040919493926060820195825260208201520152565b0390f35b90809250813d8311610766575b6107548183611bbd565b8101031261020c5751826106db6106cc565b503d61074a565b919095508382813d8311610797575b6107868183611bbd565b8101031261020c57905194836106a9565b503d61077c565b60405162461bcd60e51b815260206004820152601d818501527f494e53554646494349454e545f4c49515549444954595f4d494e5445440000006044820152606490fd5b84634e487b7160e01b5f5260116004525ffd5b83634e487b7160e01b5f5260116004525ffd5b9091925061081f8361081a8184611d3a565b611ca3565b821c919061060a565b86634e487b7160e01b5f5260116004525ffd5b901561061557506001610615565b90610350610861610868936103508b8d9c979c611d27565b9387611d27565b8082101561087857505b94610661565b9050610872565b61088d876103508784611d27565b978089116108ab57506108a4606435891015611d9b565b96936105be565b9750506108bc84610350888a611d27565b6108a4604435821015611d58565b5084156105b6565b50841515610549565b3461020c57604036600319011261020c576108f4611b7b565b6108fc611b91565b9060018060a01b038091165f52600160205260405f2091165f52602052602060405f2054604051908152f35b3461020c575f36600319011261020c576040517f00000000000000000000000000000000000000000000000000000000000000006001600160a01b03168152602090f35b3461020c575f36600319011261020c576040517f00000000000000000000000000000000000000000000000000000000000000006001600160a01b03168152602090f35b3461020c5760208060031936011261020c576109ca611b7b565b6001600160a01b03907f000000000000000000000000000000000000000000000000000000000000000082163303610b5e57610a04611eea565b6040516370a0823160e01b8082523060048301527f00000000000000000000000000000000000000000000000000000000000000008416937f00000000000000000000000000000000000000000000000000000000000000001691908582602481865afa918215610217575f92610b2f575b506040519081523060048201528581602481885afa958615610217575f96610aff575b50506001600160701b039183836006541692838111610ae9575b5050505060065460701c1692838111610acd576001600555005b610ae093610ada91611dde565b9161208c565b808080806101da565b610af693610ada91611dde565b84808381610ab3565b9080929650813d8311610b28575b610b178183611bbd565b8101031261020c5751938580610a99565b503d610b0d565b9091508581813d8311610b57575b610b478183611bbd565b8101031261020c57519086610a76565b503d610b3d565b60405162461bcd60e51b815260048101849052600c60248201526b4f4e4c595f464143544f525960a01b6044820152606490fd5b3461020c575f36600319011261020c57604080516001600160a01b037f0000000000000000000000000000000000000000000000000000000000000000811682527f0000000000000000000000000000000000000000000000000000000000000000166020820152f35b3461020c57604036600319011261020c57610c22610c18611b7b565b6024359033611bf3565b602060405160018152f35b3461020c575f36600319011261020c576040515f90600454600181811c90808316928315610d1f575b6020938484108114610d0b57838652908115610ceb5750600114610c91575b61073984610c8581880382611bbd565b60405191829182611b34565b60045f9081529294507f8a35acfbc15ff81a39ae7d344fd709f28e8600b4aa8c65c6b64bfe7fe36bd19b5b828410610cd8575050508161073993610c859282010193610c75565b8054858501870152928501928101610cbc565b60ff1916858501525050151560051b8201019150610c8581610739610c75565b634e487b7160e01b5f52602260045260245ffd5b91607f1691610c56565b3461020c575f36600319011261020c57602060405162ffffff7f0000000000000000000000000000000000000000000000000000000000000000168152f35b3461020c57602036600319011261020c576001600160a01b03610d89611b7b565b165f525f602052602060405f2054604051908152f35b3461020c57608036600319011261020c57610db8611b7b565b610dc0611b91565b610dc8611ba7565b91610dd1611eea565b610de56001600160a01b0384161515611cb0565b610df26044351515611ce6565b6001600160a01b03908116907f00000000000000000000000000000000000000000000000000000000000000001681148061139b575b156112f15750506001905b600654906001600160701b038083169260701c16821515806112e8575b156112b4578315611285577f00000000000000000000000000000000000000000000000000000000000000006001600160a01b03165b841561124f577f00000000000000000000000000000000000000000000000000000000000000006001600160a01b0316916024906020905b871561124857865b88156112405750925b6040516370a0823160e01b815230600482015292839182906001600160a01b03165afa908115610217575f9161120e575b50610f166044356001600160701b038716611ca3565b116111d45761271062ffffff7f0000000000000000000000000000000000000000000000000000000000000000168103116111c05782610fd392610fbb610fce96610fb56001600160701b03612710610f9862ffffff7f0000000000000000000000000000000000000000000000000000000000000000168203604435611d27565b049616956001600160701b03610fae8883611d27565b9316611ca3565b90611d3a565b95869384151590816111b6575b506120dc565b61208c565b6040516370a0823160e01b8152306004820152926020846024817f00000000000000000000000000000000000000000000000000000000000000006001600160a01b03165afa938415610217575f94611182575b506040516370a0823160e01b81523060048201526020816024817f00000000000000000000000000000000000000000000000000000000000000006001600160a01b03165afa908115610217575f9161114f575b5061108890602095611f0d565b8015611127577fd78ad95fa46c994b6551d0da85fc275fe613ce37657fb8d5e3d130840159d822604435915b801561111e575f935b8115611117575f915b1561110e576110fe865b60405193849360018060a01b0316973397859094939260609260808301968352602083015260408201520152565b0390a36001600555604051908152f35b6110fe5f6110d0565b85916110c6565b604435936110bd565b7fd78ad95fa46c994b6551d0da85fc275fe613ce37657fb8d5e3d130840159d8225f916110b4565b90506020813d60201161117a575b8161116a60209383611bbd565b8101031261020c5751602061107b565b3d915061115d565b9093506020813d6020116111ae575b8161119e60209383611bbd565b8101031261020c57519284611027565b3d9150611191565b9050841089610fc8565b634e487b7160e01b5f52601160045260245ffd5b60405162461bcd60e51b8152602060048201526012602482015271125394155517d393d517d49150d15255915160721b6044820152606490fd5b90506020813d602011611238575b8161122960209383611bbd565b8101031261020c575186610f00565b3d915061121c565b905092610ecf565b8096610ec6565b7f00000000000000000000000000000000000000000000000000000000000000006001600160a01b031691602490602090610ebe565b7f00000000000000000000000000000000000000000000000000000000000000006001600160a01b0316610e86565b60405162461bcd60e51b815260206004820152600c60248201526b4e4f5f4c495155494449545960a01b6044820152606490fd5b50801515610e50565b7f00000000000000000000000000000000000000000000000000000000000000006001600160a01b0316149081611364575b5015611330575f90610e33565b60405162461bcd60e51b815260206004820152600c60248201526b24a72b20a624a22fa820a4a960a11b6044820152606490fd5b7f00000000000000000000000000000000000000000000000000000000000000006001600160a01b03908116911614905082611323565b506001600160a01b038281167f000000000000000000000000000000000000000000000000000000000000000090911614610e28565b3461020c57606036600319011261020c576001600160a01b036044358181169081810361020c57611400611eea565b6004358015801580916117d1575b611417906120dc565b611422841515611cb0565b600654926001600160701b039182851692838510806117c1575b1561178357877f000000000000000000000000000000000000000000000000000000000000000016977f00000000000000000000000000000000000000000000000000000000000000001691611773575b6024978835938480611762575b50506040519182916370a0823160e01b90818452306004850152838c60209586935afa938415610217575f94611733575b5082908b6040518097819382523060048301525afa938415610217575f94611704575b506114f98787611dde565b8311156116fd5761151361150d8888611dde565b84611dde565b975b60701c16946115248587611dde565b8411156116f65761153e6115388688611dde565b85611dde565b955b8815801580916116ed575b61155490611ce6565b156116e65761271062ffffff7f00000000000000000000000000000000000000000000000000000000000000001681038181116116d357611595908b611d27565b04905b868989156116b75750506127109162ffffff7f0000000000000000000000000000000000000000000000000000000000000000168303908382116116a45761160b896115ff6116048e6115ff8f996115f6611611996116179c611d27565b04965b8b611ca3565b611dde565b9386611ca3565b90611d27565b92611d27565b1161167d57509161164e611673927fd78ad95fa46c994b6551d0da85fc275fe613ce37657fb8d5e3d130840159d822969594611f0d565b6040519384933397859094939260609260808301968352602083015260408201520152565b0390a36001600555005b60649060018a6040519262461bcd60e51b84526004840152820152604b60f81b6044820152fd5b8d634e487b7160e01b5f5260116004525ffd5b9261160b611611926115ff611604611617976115ff5f966115f9565b8c634e487b7160e01b5f5260116004525ffd5b5f90611598565b5087151561154b565b5f95611540565b5f97611515565b9093508181813d831161172c575b61171c8183611bbd565b8101031261020c5751928a6114ee565b503d611712565b9093508281813d831161175b575b61174b8183611bbd565b8101031261020c575192826114cb565b503d611741565b61176c918561208c565b898461149a565b61177e85848a61208c565b61148d565b60405162461bcd60e51b8152602060048201526016602482015275494e53554646494349454e545f4c495155494449545960501b6044820152606490fd5b50808660701c166024351061143c565b50602435151561140e565b3461020c575f36600319011261020c576040517f00000000000000000000000000000000000000000000000000000000000000006001600160a01b03168152602090f35b3461020c575f36600319011261020c57602060405160128152f35b3461020c575f36600319011261020c57602060405162ffffff7f0000000000000000000000000000000000000000000000000000000000000000168152f35b3461020c57606036600319011261020c57611893611b7b565b61189b611b91565b6001600160a01b0382165f8181526001602090815260408083203384529091529020549260443592915f1985106118d8575b50610c229350611bf3565b83851061193e57801561192657331561190e57610c229484915f52600160205260405f20335f526020520360405f2055846118cd565b604051634a1406b160e11b81525f6004820152602490fd5b60405163e602df0560e01b81525f6004820152602490fd5b604051637dc7a0d960e11b81523360048201526024810186905260448101859052606490fd5b3461020c575f36600319011261020c576020600254604051908152f35b3461020c575f36600319011261020c576040517f00000000000000000000000000000000000000000000000000000000000000006001600160a01b03168152602090f35b3461020c57604036600319011261020c576119de611b7b565b602435903315611926576001600160a01b031690811561190e57335f52600160205260405f20825f526020528060405f20556040519081527f8c5be1e5ebec7d5bd14f71427d1e84f3dd0314c0f7b2291e5b200ac8c7c3b92560203392a3602060405160018152f35b3461020c575f36600319011261020c57600654604080516001600160701b03808416825260709390931c909216602083015290f35b3461020c575f36600319011261020c575f90600354600181811c90808316928315611b2a575b6020938484108114610d0b57838652908115610ceb5750600114611ad05761073984610c8581880382611bbd565b60035f9081529294507fc2575a0e9e593c00f959f8c92f12db2869c3395a3b0502d05e2516446f71f85b5b828410611b17575050508161073993610c859282010193610c75565b8054858501870152928501928101611afb565b91607f1691611aa2565b602080825282518183018190529093925f5b828110611b6757505060409293505f838284010152601f8019910116010190565b818101860151848201604001528501611b46565b600435906001600160a01b038216820361020c57565b602435906001600160a01b038216820361020c57565b606435906001600160a01b038216820361020c57565b90601f8019910116810190811067ffffffffffffffff821117611bdf57604052565b634e487b7160e01b5f52604160045260245ffd5b916001600160a01b038084169283156104ae5716928315611c8b575f9083825281602052604082205490838210611c59575091604082825f8051602061211f833981519152958760209652828652038282205586815220818154019055604051908152a3565b60405163391434e360e21b81526001600160a01b03919091166004820152602481019190915260448101839052606490fd5b60405163ec442f0560e01b81525f6004820152602490fd5b919082018092116111c057565b15611cb757565b60405162461bcd60e51b81526020600482015260076024820152665a45524f5f544f60c81b6044820152606490fd5b15611ced57565b60405162461bcd60e51b8152602060048201526012602482015271125394d551919250d251539517d25394155560721b6044820152606490fd5b818102929181159184041417156111c057565b8115611d44570490565b634e487b7160e01b5f52601260045260245ffd5b15611d5f57565b60405162461bcd60e51b81526020600482015260146024820152730494e53554646494349454e545f414d4f554e54360641b6044820152606490fd5b15611da257565b60405162461bcd60e51b8152602060048201526014602482015273494e53554646494349454e545f414d4f554e543160601b6044820152606490fd5b919082039182116111c057565b6001600160a01b0316908115611c8b575f8051602061211f833981519152602082611e195f94600254611ca3565b60025584845283825260408420818154019055604051908152a3565b6040516323b872dd60e01b60208201526001600160a01b03928316602482015292909116604483015260648083019390935291815260a081019181831067ffffffffffffffff841117611bdf57611e8e92604052611e90565b565b905f602091828151910182855af115610217575f513d611ee157506001600160a01b0381163b155b611ebf5750565b604051635274afe760e01b81526001600160a01b039091166004820152602490fd5b60011415611eb8565b600260055414611efb576002600555565b604051633ee5aeb560e01b8152600490fd5b906001600160701b03908183111580611fcd575b15611f9d57600680546001600160e01b031916938316938417607092831b6dffffffffffffffffffffffffffff60701b161790819055604080516001600160701b0395861681529190921c90921690921660208201527f1c411e9a96e071241c2f21f7726b17ae89e3cab4c78be50e062b03a9fffbbad19190a1565b60405162461bcd60e51b81526020600482015260086024820152674f564552464c4f5760c01b6044820152606490fd5b5081811115611f21565b7f0000000000000000000000000000000000000000000000000000000000000000906001600160a01b03821615801561205f575b61205b57801561205b576120486127109162ffffff7f00000000000000000000000000000000000000000000000000000000000000001690611d27565b0480612052575050565b611e8e91611deb565b5050565b5062ffffff7f0000000000000000000000000000000000000000000000000000000000000000161561200b565b60405163a9059cbb60e01b60208201526001600160a01b039092166024830152604480830193909352918152608081019167ffffffffffffffff831182841017611bdf57611e8e92604052611e90565b156120e357565b60405162461bcd60e51b8152602060048201526013602482015272125394d551919250d251539517d3d555141555606a1b6044820152606490fdfeddf252ad1be2c89b69c2b068fc378daa952ba7f163c4a11628f55a4df523b3efa2646970667358221220b33f5c50c89135c6d7fd5b0017291037608cf74a538517dfbbbcf4b5ab364a2d64736f6c63430008140033","opcodes":"PUSH2 0x140 CALLVALUE PUSH3 0x5D4 JUMPI PUSH1 0x1 PUSH1 0x1 PUSH1 0x40 SHL SUB PUSH1 0x1F PUSH3 0x2793 CODESIZE DUP2 SWAP1 SUB DUP3 DUP2 ADD PUSH1 0x1F NOT SWAP1 DUP2 AND DUP7 ADD SWAP4 SWAP3 SWAP1 SWAP2 SWAP1 DUP6 DUP6 GT DUP8 DUP7 LT OR PUSH3 0x4E3 JUMPI DUP2 PUSH1 0xA0 SWAP3 DUP9 SWAP3 PUSH1 0x40 SWAP8 DUP9 MSTORE DUP4 CODECOPY DUP2 ADD SUB SLT PUSH3 0x5D4 JUMPI PUSH3 0x57 DUP6 PUSH3 0x5F8 JUMP JUMPDEST PUSH1 0x20 SWAP2 PUSH3 0x67 DUP4 DUP9 ADD PUSH3 0x5F8 JUMP JUMPDEST SWAP3 PUSH3 0x75 DUP7 DUP10 ADD PUSH3 0x60D JUMP JUMPDEST SWAP5 PUSH3 0x92 PUSH1 0x80 PUSH3 0x8A PUSH1 0x60 DUP13 ADD PUSH3 0x5F8 JUMP JUMPDEST SWAP11 ADD PUSH3 0x60D JUMP JUMPDEST SWAP8 PUSH3 0x9D PUSH3 0x5D8 JUMP JUMPDEST SWAP2 PUSH1 0xA DUP4 MSTORE PUSH10 0x41726320414D4D204C5 PUSH1 0xB4 SHL DUP5 DUP5 ADD MSTORE PUSH3 0xBE PUSH3 0x5D8 JUMP JUMPDEST SWAP1 PUSH1 0x6 DUP3 MSTORE PUSH6 0x4152432D4C5 PUSH1 0xD4 SHL DUP6 DUP4 ADD MSTORE DUP4 MLOAD SWAP2 DUP4 DUP4 GT PUSH3 0x4E3 JUMPI PUSH1 0x3 SWAP3 DUP4 SLOAD PUSH1 0x1 SWAP7 DUP8 DUP3 DUP2 SHR SWAP3 AND DUP1 ISZERO PUSH3 0x5C9 JUMPI JUMPDEST DUP10 DUP4 LT EQ PUSH3 0x5B5 JUMPI DUP2 DUP6 DUP5 SWAP4 GT PUSH3 0x562 JUMPI JUMPDEST POP DUP9 SWAP1 DUP6 DUP4 GT PUSH1 0x1 EQ PUSH3 0x503 JUMPI PUSH0 SWAP3 PUSH3 0x4F7 JUMPI JUMPDEST POP POP PUSH0 NOT DUP3 DUP7 SHL SHR NOT AND SWAP1 DUP7 SHL OR DUP4 SSTORE JUMPDEST DUP1 MLOAD SWAP4 DUP5 GT PUSH3 0x4E3 JUMPI PUSH1 0x4 SWAP7 DUP8 SLOAD DUP7 DUP2 DUP2 SHR SWAP2 AND DUP1 ISZERO PUSH3 0x4D8 JUMPI JUMPDEST DUP9 DUP3 LT EQ PUSH3 0x4C5 JUMPI SWAP1 DUP2 DUP5 DUP8 SWAP7 SWAP6 SWAP5 SWAP4 GT PUSH3 0x46C JUMPI JUMPDEST POP DUP8 SWAP3 DUP6 GT PUSH1 0x1 EQ PUSH3 0x408 JUMPI POP PUSH0 SWAP4 PUSH3 0x3FC JUMPI JUMPDEST POP POP DUP3 DUP5 SHL SWAP3 PUSH0 NOT SWAP2 SHL SHR NOT AND OR DUP4 SSTORE JUMPDEST PUSH1 0x5 SSTORE PUSH1 0x1 PUSH1 0x1 PUSH1 0xA0 SHL SUB DUP5 DUP2 AND SWAP3 SWAP1 DUP5 AND SWAP2 DUP3 DUP5 EQ PUSH3 0x3BA JUMPI DUP3 ISZERO ISZERO DUP1 PUSH3 0x3B0 JUMPI JUMPDEST ISZERO PUSH3 0x37F JUMPI PUSH2 0x2710 PUSH3 0xFFFFFF DUP2 DUP2 DUP11 AND LT ISZERO PUSH3 0x34D JUMPI DUP11 AND GT PUSH3 0x30B JUMPI POP POP CALLER PUSH1 0x80 MSTORE LT ISZERO PUSH3 0x304 JUMPI JUMPDEST PUSH1 0xA0 MSTORE PUSH1 0xC0 MSTORE PUSH1 0xE0 MSTORE PUSH2 0x100 SWAP3 DUP4 MSTORE PUSH2 0x120 SWAP2 DUP3 MSTORE MLOAD SWAP1 PUSH2 0x2174 SWAP3 DUP4 PUSH3 0x61F DUP5 CODECOPY PUSH1 0x80 MLOAD DUP4 DUP2 DUP2 PUSH2 0x981 ADD MSTORE PUSH2 0x9D5 ADD MSTORE PUSH1 0xA0 MLOAD DUP4 DUP2 DUP2 PUSH2 0x159 ADD MSTORE DUP2 DUP2 PUSH2 0x29D ADD MSTORE DUP2 DUP2 PUSH2 0x56A ADD MSTORE DUP2 DUP2 PUSH2 0xA3E ADD MSTORE DUP2 DUP2 PUSH2 0xBB0 ADD MSTORE DUP2 DUP2 PUSH2 0xE00 ADD MSTORE DUP2 DUP2 PUSH2 0xE5D ADD MSTORE DUP2 DUP2 PUSH2 0xFEF ADD MSTORE DUP2 DUP2 PUSH2 0x1251 ADD MSTORE DUP2 DUP2 PUSH2 0x1366 ADD MSTORE DUP2 DUP2 PUSH2 0x1444 ADD MSTORE PUSH2 0x1996 ADD MSTORE PUSH1 0xC0 MLOAD DUP4 DUP2 DUP2 PUSH2 0x1A0 ADD MSTORE DUP2 DUP2 PUSH2 0x2C0 ADD MSTORE DUP2 DUP2 PUSH2 0x58D ADD MSTORE DUP2 DUP2 PUSH2 0x93D ADD MSTORE DUP2 DUP2 PUSH2 0xA1A ADD MSTORE DUP2 DUP2 PUSH2 0xBD5 ADD MSTORE DUP2 DUP2 PUSH2 0xE8E ADD MSTORE DUP2 DUP2 PUSH2 0x1043 ADD MSTORE DUP2 DUP2 PUSH2 0x1287 ADD MSTORE DUP2 DUP2 PUSH2 0x12F3 ADD MSTORE DUP2 DUP2 PUSH2 0x13A9 ADD MSTORE PUSH2 0x1467 ADD MSTORE PUSH1 0xE0 MLOAD DUP4 DUP2 DUP2 PUSH2 0xF24 ADD MSTORE DUP2 DUP2 PUSH2 0xF6E ADD MSTORE DUP2 DUP2 PUSH2 0x1562 ADD MSTORE DUP2 DUP2 PUSH2 0x15AC ADD MSTORE PUSH2 0x1856 ADD MSTORE MLOAD DUP3 DUP2 DUP2 PUSH2 0x17F1 ADD MSTORE PUSH2 0x1FD9 ADD MSTORE MLOAD DUP2 DUP2 DUP2 PUSH2 0xD44 ADD MSTORE DUP2 DUP2 PUSH2 0x2022 ADD MSTORE PUSH2 0x2066 ADD MSTORE RETURN JUMPDEST SWAP1 PUSH3 0x1DC JUMP JUMPDEST DUP8 MLOAD PUSH3 0x461BCD PUSH1 0xE5 SHL DUP2 MSTORE SWAP2 DUP3 ADD MSTORE PUSH1 0x17 PUSH1 0x24 DUP3 ADD MSTORE PUSH32 0x50524F544F434F4C5F53484152455F544F4F5F48494748000000000000000000 PUSH1 0x44 DUP3 ADD MSTORE PUSH1 0x64 SWAP2 POP REVERT JUMPDEST DUP10 MLOAD PUSH3 0x461BCD PUSH1 0xE5 SHL DUP2 MSTORE DUP1 DUP6 ADD DUP5 SWAP1 MSTORE PUSH1 0xC PUSH1 0x24 DUP3 ADD MSTORE PUSH12 0x8C8A8ABEA89E9EBE90928E9 PUSH1 0xA3 SHL PUSH1 0x44 DUP3 ADD MSTORE PUSH1 0x64 SWAP1 REVERT JUMPDEST DUP8 MLOAD PUSH3 0x461BCD PUSH1 0xE5 SHL DUP2 MSTORE SWAP2 DUP3 ADD MSTORE PUSH1 0xC PUSH1 0x24 DUP3 ADD MSTORE PUSH12 0x5A45524F5F41444452455353 PUSH1 0xA0 SHL PUSH1 0x44 DUP3 ADD MSTORE PUSH1 0x64 SWAP2 POP REVERT JUMPDEST POP DUP4 ISZERO ISZERO PUSH3 0x1AE JUMP JUMPDEST DUP8 MLOAD PUSH3 0x461BCD PUSH1 0xE5 SHL DUP2 MSTORE SWAP2 DUP3 ADD MSTORE PUSH1 0x13 PUSH1 0x24 DUP3 ADD MSTORE PUSH32 0x4944454E544943414C5F41444452455353455300000000000000000000000000 PUSH1 0x44 DUP3 ADD MSTORE PUSH1 0x64 SWAP2 POP REVERT JUMPDEST ADD MLOAD SWAP2 POP PUSH0 DUP1 PUSH3 0x178 JUMP JUMPDEST DUP7 SWAP6 SWAP4 SWAP3 SWAP2 SWAP4 AND SWAP3 DUP9 PUSH0 MSTORE DUP8 PUSH0 KECCAK256 SWAP4 PUSH0 JUMPDEST DUP10 DUP3 DUP3 LT PUSH3 0x455 JUMPI POP POP DUP6 GT PUSH3 0x43B JUMPI JUMPDEST POP POP POP POP DUP2 SHL ADD DUP4 SSTORE PUSH3 0x189 JUMP JUMPDEST ADD MLOAD SWAP1 PUSH1 0xF8 DUP5 PUSH0 NOT SWAP3 SHL AND SHR NOT AND SWAP1 SSTORE PUSH0 DUP1 DUP1 DUP1 PUSH3 0x42C JUMP JUMPDEST DUP4 DUP6 ADD MLOAD DUP8 SSTORE DUP10 SWAP9 SWAP1 SWAP7 ADD SWAP6 SWAP4 DUP5 ADD SWAP4 ADD PUSH3 0x419 JUMP JUMPDEST SWAP1 SWAP2 SWAP3 SWAP4 SWAP5 POP DUP9 PUSH0 MSTORE DUP8 PUSH0 KECCAK256 DUP5 DUP1 DUP9 ADD PUSH1 0x5 SHR DUP3 ADD SWAP3 DUP11 DUP10 LT PUSH3 0x4BB JUMPI JUMPDEST SWAP2 DUP10 SWAP2 DUP10 SWAP9 SWAP8 SWAP7 SWAP6 SWAP5 SWAP4 ADD PUSH1 0x5 SHR ADD SWAP2 JUMPDEST DUP3 DUP2 LT PUSH3 0x4AC JUMPI POP POP PUSH3 0x162 JUMP JUMPDEST PUSH0 DUP2 SSTORE DUP9 SWAP8 POP DUP10 SWAP2 ADD PUSH3 0x49C JUMP JUMPDEST SWAP3 POP DUP2 SWAP3 PUSH3 0x48B JUMP JUMPDEST PUSH1 0x22 DUP10 PUSH4 0x4E487B71 PUSH1 0xE0 SHL PUSH0 MSTORE MSTORE PUSH1 0x24 PUSH0 REVERT JUMPDEST SWAP1 PUSH1 0x7F AND SWAP1 PUSH3 0x14A JUMP JUMPDEST PUSH4 0x4E487B71 PUSH1 0xE0 SHL PUSH0 MSTORE PUSH1 0x41 PUSH1 0x4 MSTORE PUSH1 0x24 PUSH0 REVERT JUMPDEST ADD MLOAD SWAP1 POP PUSH0 DUP1 PUSH3 0x11C JUMP JUMPDEST SWAP1 DUP11 DUP10 SWAP5 AND SWAP2 DUP8 PUSH0 MSTORE DUP11 PUSH0 KECCAK256 SWAP3 PUSH0 JUMPDEST DUP13 DUP3 DUP3 LT PUSH3 0x54B JUMPI POP POP DUP5 GT PUSH3 0x533 JUMPI JUMPDEST POP POP POP DUP2 SHL ADD DUP4 SSTORE PUSH3 0x12D JUMP JUMPDEST ADD MLOAD PUSH0 NOT DUP4 DUP9 SHL PUSH1 0xF8 AND SHR NOT AND SWAP1 SSTORE PUSH0 DUP1 DUP1 PUSH3 0x525 JUMP JUMPDEST DUP4 DUP6 ADD MLOAD DUP7 SSTORE DUP13 SWAP8 SWAP1 SWAP6 ADD SWAP5 SWAP4 DUP5 ADD SWAP4 ADD PUSH3 0x512 JUMP JUMPDEST SWAP1 SWAP2 POP DUP6 PUSH0 MSTORE DUP9 PUSH0 KECCAK256 DUP6 DUP1 DUP6 ADD PUSH1 0x5 SHR DUP3 ADD SWAP3 DUP12 DUP7 LT PUSH3 0x5AB JUMPI JUMPDEST SWAP2 DUP11 SWAP2 DUP7 SWAP6 SWAP5 SWAP4 ADD PUSH1 0x5 SHR ADD SWAP2 JUMPDEST DUP3 DUP2 LT PUSH3 0x59C JUMPI POP POP PUSH3 0x106 JUMP JUMPDEST PUSH0 DUP2 SSTORE DUP6 SWAP5 POP DUP11 SWAP2 ADD PUSH3 0x58C JUMP JUMPDEST SWAP3 POP DUP2 SWAP3 PUSH3 0x57E JUMP JUMPDEST PUSH4 0x4E487B71 PUSH1 0xE0 SHL PUSH0 MSTORE PUSH1 0x22 PUSH1 0x4 MSTORE PUSH1 0x24 PUSH0 REVERT JUMPDEST SWAP2 PUSH1 0x7F AND SWAP2 PUSH3 0xF2 JUMP JUMPDEST PUSH0 DUP1 REVERT JUMPDEST PUSH1 0x40 DUP1 MLOAD SWAP2 SWAP1 DUP3 ADD PUSH1 0x1 PUSH1 0x1 PUSH1 0x40 SHL SUB DUP2 GT DUP4 DUP3 LT OR PUSH3 0x4E3 JUMPI PUSH1 0x40 MSTORE JUMP JUMPDEST MLOAD SWAP1 PUSH1 0x1 PUSH1 0x1 PUSH1 0xA0 SHL SUB DUP3 AND DUP3 SUB PUSH3 0x5D4 JUMPI JUMP JUMPDEST MLOAD SWAP1 PUSH3 0xFFFFFF DUP3 AND DUP3 SUB PUSH3 0x5D4 JUMPI JUMP INVALID PUSH1 0x80 DUP1 PUSH1 0x40 MSTORE PUSH1 0x4 CALLDATASIZE LT ISZERO PUSH2 0x12 JUMPI PUSH0 DUP1 REVERT JUMPDEST PUSH0 CALLDATALOAD PUSH1 0xE0 SHR SWAP1 DUP2 PUSH4 0x6FDDE03 EQ PUSH2 0x1A7C JUMPI POP DUP1 PUSH4 0x902F1AC EQ PUSH2 0x1A47 JUMPI DUP1 PUSH4 0x95EA7B3 EQ PUSH2 0x19C5 JUMPI DUP1 PUSH4 0xDFE1681 EQ PUSH2 0x1981 JUMPI DUP1 PUSH4 0x18160DDD EQ PUSH2 0x1964 JUMPI DUP1 PUSH4 0x23B872DD EQ PUSH2 0x187A JUMPI DUP1 PUSH4 0x2FFDAF89 EQ PUSH2 0x183B JUMPI DUP1 PUSH4 0x313CE567 EQ PUSH2 0x1820 JUMPI DUP1 PUSH4 0x64DF049E EQ PUSH2 0x17DC JUMPI DUP1 PUSH4 0x6D9A640A EQ PUSH2 0x13D1 JUMPI DUP1 PUSH4 0x6E81221C EQ PUSH2 0xD9F JUMPI DUP1 PUSH4 0x70A08231 EQ PUSH2 0xD68 JUMPI DUP1 PUSH4 0x9040F866 EQ PUSH2 0xD29 JUMPI DUP1 PUSH4 0x95D89B41 EQ PUSH2 0xC2D JUMPI DUP1 PUSH4 0xA9059CBB EQ PUSH2 0xBFC JUMPI DUP1 PUSH4 0xAA6CA808 EQ PUSH2 0xB92 JUMPI DUP1 PUSH4 0xBC25CF77 EQ PUSH2 0x9B0 JUMPI DUP1 PUSH4 0xC45A0155 EQ PUSH2 0x96C JUMPI DUP1 PUSH4 0xD21220A7 EQ PUSH2 0x928 JUMPI DUP1 PUSH4 0xDD62ED3E EQ PUSH2 0x8DB JUMPI DUP1 PUSH4 0xE0AB0772 EQ PUSH2 0x4FC JUMPI DUP1 PUSH4 0xE39B0EB5 EQ PUSH2 0x253 JUMPI PUSH4 0xFFF6CAE9 EQ PUSH2 0x119 JUMPI PUSH0 DUP1 REVERT JUMPDEST CALLVALUE PUSH2 0x20C JUMPI PUSH0 CALLDATASIZE PUSH1 0x3 NOT ADD SLT PUSH2 0x20C JUMPI PUSH2 0x131 PUSH2 0x1EEA JUMP JUMPDEST PUSH1 0x40 MLOAD PUSH4 0x70A08231 PUSH1 0xE0 SHL DUP1 DUP3 MSTORE ADDRESS PUSH1 0x4 DUP4 ADD MSTORE PUSH1 0x1 PUSH1 0x1 PUSH1 0xA0 SHL SUB SWAP2 PUSH1 0x20 SWAP2 SWAP1 DUP3 DUP2 PUSH1 0x24 DUP2 PUSH32 0x0 DUP9 AND GAS STATICCALL SWAP2 DUP3 ISZERO PUSH2 0x217 JUMPI DUP4 SWAP2 PUSH0 SWAP4 PUSH2 0x222 JUMPI JUMPDEST POP PUSH1 0x24 PUSH1 0x40 MLOAD DUP1 SWAP7 DUP2 SWAP4 DUP3 MSTORE ADDRESS PUSH1 0x4 DUP4 ADD MSTORE PUSH32 0x0 AND GAS STATICCALL SWAP2 DUP3 ISZERO PUSH2 0x217 JUMPI PUSH0 SWAP3 PUSH2 0x1E1 JUMPI JUMPDEST PUSH2 0x1DA DUP4 DUP4 PUSH2 0x1F0D JUMP JUMPDEST PUSH1 0x1 PUSH1 0x5 SSTORE STOP JUMPDEST SWAP1 SWAP2 POP DUP3 DUP2 RETURNDATASIZE DUP4 GT PUSH2 0x210 JUMPI JUMPDEST PUSH2 0x1F8 DUP2 DUP4 PUSH2 0x1BBD JUMP JUMPDEST DUP2 ADD SUB SLT PUSH2 0x20C JUMPI PUSH2 0x1DA SWAP2 MLOAD SWAP1 PUSH0 PUSH2 0x1D0 JUMP JUMPDEST PUSH0 DUP1 REVERT JUMPDEST POP RETURNDATASIZE PUSH2 0x1EE JUMP JUMPDEST PUSH1 0x40 MLOAD RETURNDATASIZE PUSH0 DUP3 RETURNDATACOPY RETURNDATASIZE SWAP1 REVERT JUMPDEST DUP3 DUP2 SWAP4 SWAP3 SWAP5 POP RETURNDATASIZE DUP4 GT PUSH2 0x24C JUMPI JUMPDEST PUSH2 0x23A DUP2 DUP4 PUSH2 0x1BBD JUMP JUMPDEST DUP2 ADD SUB SLT PUSH2 0x20C JUMPI DUP3 SWAP1 MLOAD SWAP2 PUSH0 PUSH2 0x18C JUMP JUMPDEST POP RETURNDATASIZE PUSH2 0x230 JUMP JUMPDEST CALLVALUE PUSH2 0x20C JUMPI PUSH1 0x80 CALLDATASIZE PUSH1 0x3 NOT ADD SLT PUSH2 0x20C JUMPI PUSH1 0x4 CALLDATALOAD PUSH2 0x26F PUSH2 0x1BA7 JUMP JUMPDEST SWAP1 PUSH2 0x278 PUSH2 0x1EEA JUMP JUMPDEST PUSH1 0x1 PUSH1 0x1 PUSH1 0xA0 SHL SUB SWAP2 DUP1 DUP4 AND SWAP2 PUSH2 0x290 DUP4 ISZERO ISZERO PUSH2 0x1CB0 JUMP JUMPDEST DUP1 ISZERO PUSH2 0x4C6 JUMPI PUSH1 0x6 SLOAD SWAP3 DUP5 PUSH32 0x0 AND SWAP5 PUSH32 0x0 AND PUSH1 0x2 SLOAD CALLER ISZERO PUSH2 0x4AE JUMPI CALLER PUSH0 MSTORE PUSH1 0x20 SWAP4 PUSH0 DUP6 MSTORE PUSH1 0x40 PUSH0 KECCAK256 SLOAD DUP2 DUP2 LT PUSH2 0x486 JUMPI SWAP2 PUSH2 0x350 DUP3 PUSH2 0x360 SWAP4 PUSH2 0x38F SWAP6 CALLER PUSH0 MSTORE PUSH0 DUP11 MSTORE SUB PUSH1 0x40 PUSH0 KECCAK256 SSTORE DUP1 PUSH1 0x2 SLOAD SUB PUSH1 0x2 SSTORE PUSH0 PUSH1 0x40 MLOAD DUP3 DUP2 MSTORE PUSH0 DUP1 MLOAD PUSH1 0x20 PUSH2 0x211F DUP4 CODECOPY DUP2 MLOAD SWAP2 MSTORE DUP11 CALLER SWAP3 LOG3 PUSH1 0x1 PUSH1 0x1 PUSH1 0x70 SHL SUB PUSH2 0x355 DUP5 PUSH2 0x350 DUP4 DUP15 AND DUP6 PUSH2 0x1D27 JUMP JUMPDEST PUSH2 0x1D3A JUMP JUMPDEST SWAP11 PUSH1 0x70 SHR AND SWAP1 PUSH2 0x1D27 JUMP JUMPDEST DUP1 SWAP6 PUSH2 0x370 PUSH1 0x24 CALLDATALOAD DUP10 LT ISZERO PUSH2 0x1D58 JUMP JUMPDEST PUSH2 0x37E PUSH1 0x44 CALLDATALOAD DUP4 LT ISZERO PUSH2 0x1D9B JUMP JUMPDEST PUSH2 0x389 DUP9 DUP3 DUP12 PUSH2 0x208C JUMP JUMPDEST DUP4 PUSH2 0x208C JUMP JUMPDEST PUSH1 0x40 MLOAD SWAP6 DUP4 DUP8 PUSH1 0x24 DUP2 PUSH4 0x70A08231 PUSH1 0xE0 SHL SWAP5 DUP6 DUP3 MSTORE ADDRESS PUSH1 0x4 DUP4 ADD MSTORE GAS STATICCALL SWAP7 DUP8 ISZERO PUSH2 0x217 JUMPI PUSH0 SWAP8 PUSH2 0x457 JUMPI JUMPDEST POP DUP4 SWAP1 PUSH1 0x24 PUSH1 0x40 MLOAD DUP1 SWAP5 DUP2 SWAP4 DUP3 MSTORE ADDRESS PUSH1 0x4 DUP4 ADD MSTORE GAS STATICCALL SWAP1 DUP2 ISZERO PUSH2 0x217 JUMPI PUSH0 SWAP2 PUSH2 0x429 JUMPI JUMPDEST POP PUSH2 0x3EB SWAP1 PUSH1 0x40 SWAP7 PUSH2 0x1F0D JUMP JUMPDEST DUP5 MLOAD DUP5 DUP2 MSTORE DUP4 DUP4 DUP3 ADD MSTORE PUSH32 0xDCCD412F0B1252819CB1FD330B93224CA42612892BB3F4F789976E6D81936496 DUP7 CALLER SWAP3 LOG3 PUSH1 0x1 PUSH1 0x5 SSTORE DUP4 MLOAD SWAP3 DUP4 MSTORE DUP3 ADD MSTORE RETURN JUMPDEST SWAP1 POP DUP3 DUP2 DUP2 RETURNDATASIZE DUP4 GT PUSH2 0x450 JUMPI JUMPDEST PUSH2 0x440 DUP2 DUP4 PUSH2 0x1BBD JUMP JUMPDEST DUP2 ADD SUB SLT PUSH2 0x20C JUMPI MLOAD PUSH1 0x40 PUSH2 0x3DE JUMP JUMPDEST POP RETURNDATASIZE PUSH2 0x436 JUMP JUMPDEST SWAP1 SWAP7 POP DUP4 DUP2 DUP2 RETURNDATASIZE DUP4 GT PUSH2 0x47F JUMPI JUMPDEST PUSH2 0x46F DUP2 DUP4 PUSH2 0x1BBD JUMP JUMPDEST DUP2 ADD SUB SLT PUSH2 0x20C JUMPI MLOAD SWAP6 DUP4 PUSH2 0x3BA JUMP JUMPDEST POP RETURNDATASIZE PUSH2 0x465 JUMP JUMPDEST PUSH1 0x40 MLOAD PUSH4 0x391434E3 PUSH1 0xE2 SHL DUP2 MSTORE CALLER PUSH1 0x4 DUP3 ADD MSTORE PUSH1 0x24 DUP2 ADD SWAP2 SWAP1 SWAP2 MSTORE PUSH1 0x44 DUP2 ADD SWAP2 SWAP1 SWAP2 MSTORE PUSH1 0x64 SWAP1 REVERT JUMPDEST PUSH1 0x40 MLOAD PUSH4 0x4B637E8F PUSH1 0xE1 SHL DUP2 MSTORE PUSH0 PUSH1 0x4 DUP3 ADD MSTORE PUSH1 0x24 SWAP1 REVERT JUMPDEST PUSH1 0x40 MLOAD PUSH3 0x461BCD PUSH1 0xE5 SHL DUP2 MSTORE PUSH1 0x20 PUSH1 0x4 DUP3 ADD MSTORE PUSH1 0xE PUSH1 0x24 DUP3 ADD MSTORE PUSH14 0x5A45524F5F4C4951554944495459 PUSH1 0x90 SHL PUSH1 0x44 DUP3 ADD MSTORE PUSH1 0x64 SWAP1 REVERT JUMPDEST CALLVALUE PUSH2 0x20C JUMPI PUSH1 0xA0 CALLDATASIZE PUSH1 0x3 NOT ADD SLT PUSH2 0x20C JUMPI PUSH1 0x24 DUP1 CALLDATALOAD SWAP1 PUSH1 0x4 CALLDATALOAD SWAP1 PUSH1 0x1 PUSH1 0x1 PUSH1 0xA0 SHL SUB SWAP1 PUSH1 0x84 CALLDATALOAD SWAP1 DUP3 DUP3 AND DUP1 DUP4 SUB PUSH2 0x20C JUMPI PUSH2 0x540 SWAP1 PUSH2 0x539 PUSH2 0x1EEA JUMP JUMPDEST ISZERO ISZERO PUSH2 0x1CB0 JUMP JUMPDEST DUP4 ISZERO ISZERO DUP1 PUSH2 0x8D2 JUMPI JUMPDEST PUSH2 0x552 SWAP1 PUSH2 0x1CE6 JUMP JUMPDEST PUSH1 0x6 SLOAD SWAP4 PUSH1 0x1 PUSH1 0x1 PUSH1 0x70 SHL SUB DUP1 DUP7 AND SWAP6 PUSH1 0x70 SHR AND SWAP3 DUP5 PUSH32 0x0 AND SWAP5 PUSH32 0x0 AND SWAP2 DUP7 ISZERO DUP1 PUSH2 0x8CA JUMPI JUMPDEST ISZERO PUSH2 0x87F JUMPI SWAP7 SWAP4 JUMPDEST PUSH2 0x5CA DUP9 ADDRESS CALLER DUP10 PUSH2 0x1E35 JUMP JUMPDEST PUSH2 0x5D6 DUP6 ADDRESS CALLER DUP7 PUSH2 0x1E35 JUMP JUMPDEST PUSH1 0x2 SLOAD SWAP7 DUP8 PUSH2 0x849 JUMPI POP POP PUSH2 0x5EB DUP5 DUP9 PUSH2 0x1D27 JUMP JUMPDEST PUSH0 PUSH1 0x3 DUP3 GT ISZERO PUSH2 0x83B JUMPI POP DUP1 PUSH1 0x1 SWAP1 DUP1 DUP3 SHR DUP3 DUP2 ADD DUP1 SWAP2 GT PUSH2 0x828 JUMPI SWAP2 SWAP1 JUMPDEST DUP4 DUP4 LT PUSH2 0x808 JUMPI POP POP POP JUMPDEST PUSH2 0x3E7 NOT DUP2 ADD SWAP1 DUP2 GT PUSH2 0x7F5 JUMPI SWAP6 PUSH2 0x3E8 SWAP1 DUP2 DUP2 ADD DUP1 SWAP2 GT PUSH2 0x7E2 JUMPI PUSH0 DUP1 MLOAD PUSH1 0x20 PUSH2 0x211F DUP4 CODECOPY DUP2 MLOAD SWAP2 MSTORE PUSH1 0x20 PUSH1 0x1 SWAP4 PUSH0 SWAP4 PUSH1 0x2 SSTORE DUP5 DUP5 MSTORE DUP4 DUP3 MSTORE PUSH1 0x40 DUP5 KECCAK256 DUP2 DUP2 SLOAD ADD SWAP1 SSTORE PUSH1 0x40 MLOAD SWAP1 DUP2 MSTORE LOG3 JUMPDEST DUP6 ISZERO PUSH2 0x79E JUMPI DUP6 PUSH2 0x67A SWAP2 PUSH2 0x675 DUP3 PUSH2 0x1FD7 JUMP JUMPDEST PUSH2 0x1DEB JUMP JUMPDEST PUSH1 0x40 MLOAD SWAP4 DUP5 SWAP3 PUSH4 0x70A08231 PUSH1 0xE0 SHL SWAP2 DUP3 DUP6 MSTORE ADDRESS PUSH1 0x4 DUP7 ADD MSTORE DUP5 DUP3 PUSH1 0x20 SWAP7 DUP8 SWAP4 GAS STATICCALL SWAP6 DUP7 ISZERO PUSH2 0x217 JUMPI PUSH0 SWAP7 PUSH2 0x76D JUMPI JUMPDEST POP SWAP1 DUP4 SWAP2 PUSH1 0x40 MLOAD DUP1 SWAP5 DUP2 SWAP4 DUP3 MSTORE ADDRESS PUSH1 0x4 DUP4 ADD MSTORE GAS STATICCALL SWAP2 DUP3 ISZERO PUSH2 0x217 JUMPI PUSH0 SWAP3 PUSH2 0x73D JUMPI JUMPDEST POP POP PUSH2 0x6DB SWAP1 PUSH2 0x739 SWAP4 PUSH2 0x1F0D JUMP JUMPDEST PUSH1 0x40 DUP1 MLOAD DUP6 DUP2 MSTORE PUSH1 0x20 DUP2 ADD DUP4 SWAP1 MSTORE SWAP1 DUP2 ADD DUP5 SWAP1 MSTORE CALLER SWAP1 PUSH32 0xB4C03061FB5B7FED76389D5AF8F2E0DDB09F8C70D1333ABBB62582835E10ACCB SWAP1 PUSH1 0x60 SWAP1 LOG2 PUSH1 0x1 PUSH1 0x5 SSTORE PUSH1 0x40 MLOAD SWAP4 DUP5 SWAP4 DUP5 PUSH1 0x40 SWAP2 SWAP5 SWAP4 SWAP3 PUSH1 0x60 DUP3 ADD SWAP6 DUP3 MSTORE PUSH1 0x20 DUP3 ADD MSTORE ADD MSTORE JUMP JUMPDEST SUB SWAP1 RETURN JUMPDEST SWAP1 DUP1 SWAP3 POP DUP2 RETURNDATASIZE DUP4 GT PUSH2 0x766 JUMPI JUMPDEST PUSH2 0x754 DUP2 DUP4 PUSH2 0x1BBD JUMP JUMPDEST DUP2 ADD SUB SLT PUSH2 0x20C JUMPI MLOAD DUP3 PUSH2 0x6DB PUSH2 0x6CC JUMP JUMPDEST POP RETURNDATASIZE PUSH2 0x74A JUMP JUMPDEST SWAP2 SWAP1 SWAP6 POP DUP4 DUP3 DUP2 RETURNDATASIZE DUP4 GT PUSH2 0x797 JUMPI JUMPDEST PUSH2 0x786 DUP2 DUP4 PUSH2 0x1BBD JUMP JUMPDEST DUP2 ADD SUB SLT PUSH2 0x20C JUMPI SWAP1 MLOAD SWAP5 DUP4 PUSH2 0x6A9 JUMP JUMPDEST POP RETURNDATASIZE PUSH2 0x77C JUMP JUMPDEST PUSH1 0x40 MLOAD PUSH3 0x461BCD PUSH1 0xE5 SHL DUP2 MSTORE PUSH1 0x20 PUSH1 0x4 DUP3 ADD MSTORE PUSH1 0x1D DUP2 DUP6 ADD MSTORE PUSH32 0x494E53554646494349454E545F4C49515549444954595F4D494E544544000000 PUSH1 0x44 DUP3 ADD MSTORE PUSH1 0x64 SWAP1 REVERT JUMPDEST DUP5 PUSH4 0x4E487B71 PUSH1 0xE0 SHL PUSH0 MSTORE PUSH1 0x11 PUSH1 0x4 MSTORE PUSH0 REVERT JUMPDEST DUP4 PUSH4 0x4E487B71 PUSH1 0xE0 SHL PUSH0 MSTORE PUSH1 0x11 PUSH1 0x4 MSTORE PUSH0 REVERT JUMPDEST SWAP1 SWAP2 SWAP3 POP PUSH2 0x81F DUP4 PUSH2 0x81A DUP2 DUP5 PUSH2 0x1D3A JUMP JUMPDEST PUSH2 0x1CA3 JUMP JUMPDEST DUP3 SHR SWAP2 SWAP1 PUSH2 0x60A JUMP JUMPDEST DUP7 PUSH4 0x4E487B71 PUSH1 0xE0 SHL PUSH0 MSTORE PUSH1 0x11 PUSH1 0x4 MSTORE PUSH0 REVERT JUMPDEST SWAP1 ISZERO PUSH2 0x615 JUMPI POP PUSH1 0x1 PUSH2 0x615 JUMP JUMPDEST SWAP1 PUSH2 0x350 PUSH2 0x861 PUSH2 0x868 SWAP4 PUSH2 0x350 DUP12 DUP14 SWAP13 SWAP8 SWAP13 PUSH2 0x1D27 JUMP JUMPDEST SWAP4 DUP8 PUSH2 0x1D27 JUMP JUMPDEST DUP1 DUP3 LT ISZERO PUSH2 0x878 JUMPI POP JUMPDEST SWAP5 PUSH2 0x661 JUMP JUMPDEST SWAP1 POP PUSH2 0x872 JUMP JUMPDEST PUSH2 0x88D DUP8 PUSH2 0x350 DUP8 DUP5 PUSH2 0x1D27 JUMP JUMPDEST SWAP8 DUP1 DUP10 GT PUSH2 0x8AB JUMPI POP PUSH2 0x8A4 PUSH1 0x64 CALLDATALOAD DUP10 LT ISZERO PUSH2 0x1D9B JUMP JUMPDEST SWAP7 SWAP4 PUSH2 0x5BE JUMP JUMPDEST SWAP8 POP POP PUSH2 0x8BC DUP5 PUSH2 0x350 DUP9 DUP11 PUSH2 0x1D27 JUMP JUMPDEST PUSH2 0x8A4 PUSH1 0x44 CALLDATALOAD DUP3 LT ISZERO PUSH2 0x1D58 JUMP JUMPDEST POP DUP5 ISZERO PUSH2 0x5B6 JUMP JUMPDEST POP DUP5 ISZERO ISZERO PUSH2 0x549 JUMP JUMPDEST CALLVALUE PUSH2 0x20C JUMPI PUSH1 0x40 CALLDATASIZE PUSH1 0x3 NOT ADD SLT PUSH2 0x20C JUMPI PUSH2 0x8F4 PUSH2 0x1B7B JUMP JUMPDEST PUSH2 0x8FC PUSH2 0x1B91 JUMP JUMPDEST SWAP1 PUSH1 0x1 DUP1 PUSH1 0xA0 SHL SUB DUP1 SWAP2 AND PUSH0 MSTORE PUSH1 0x1 PUSH1 0x20 MSTORE PUSH1 0x40 PUSH0 KECCAK256 SWAP2 AND PUSH0 MSTORE PUSH1 0x20 MSTORE PUSH1 0x20 PUSH1 0x40 PUSH0 KECCAK256 SLOAD PUSH1 0x40 MLOAD SWAP1 DUP2 MSTORE RETURN JUMPDEST CALLVALUE PUSH2 0x20C JUMPI PUSH0 CALLDATASIZE PUSH1 0x3 NOT ADD SLT PUSH2 0x20C JUMPI PUSH1 0x40 MLOAD PUSH32 0x0 PUSH1 0x1 PUSH1 0x1 PUSH1 0xA0 SHL SUB AND DUP2 MSTORE PUSH1 0x20 SWAP1 RETURN JUMPDEST CALLVALUE PUSH2 0x20C JUMPI PUSH0 CALLDATASIZE PUSH1 0x3 NOT ADD SLT PUSH2 0x20C JUMPI PUSH1 0x40 MLOAD PUSH32 0x0 PUSH1 0x1 PUSH1 0x1 PUSH1 0xA0 SHL SUB AND DUP2 MSTORE PUSH1 0x20 SWAP1 RETURN JUMPDEST CALLVALUE PUSH2 0x20C JUMPI PUSH1 0x20 DUP1 PUSH1 0x3 NOT CALLDATASIZE ADD SLT PUSH2 0x20C JUMPI PUSH2 0x9CA PUSH2 0x1B7B JUMP JUMPDEST PUSH1 0x1 PUSH1 0x1 PUSH1 0xA0 SHL SUB SWAP1 PUSH32 0x0 DUP3 AND CALLER SUB PUSH2 0xB5E JUMPI PUSH2 0xA04 PUSH2 0x1EEA JUMP JUMPDEST PUSH1 0x40 MLOAD PUSH4 0x70A08231 PUSH1 0xE0 SHL DUP1 DUP3 MSTORE ADDRESS PUSH1 0x4 DUP4 ADD MSTORE PUSH32 0x0 DUP5 AND SWAP4 PUSH32 0x0 AND SWAP2 SWAP1 DUP6 DUP3 PUSH1 0x24 DUP2 DUP7 GAS STATICCALL SWAP2 DUP3 ISZERO PUSH2 0x217 JUMPI PUSH0 SWAP3 PUSH2 0xB2F JUMPI JUMPDEST POP PUSH1 0x40 MLOAD SWAP1 DUP2 MSTORE ADDRESS PUSH1 0x4 DUP3 ADD MSTORE DUP6 DUP2 PUSH1 0x24 DUP2 DUP9 GAS STATICCALL SWAP6 DUP7 ISZERO PUSH2 0x217 JUMPI PUSH0 SWAP7 PUSH2 0xAFF JUMPI JUMPDEST POP POP PUSH1 0x1 PUSH1 0x1 PUSH1 0x70 SHL SUB SWAP2 DUP4 DUP4 PUSH1 0x6 SLOAD AND SWAP3 DUP4 DUP2 GT PUSH2 0xAE9 JUMPI JUMPDEST POP POP POP POP PUSH1 0x6 SLOAD PUSH1 0x70 SHR AND SWAP3 DUP4 DUP2 GT PUSH2 0xACD JUMPI PUSH1 0x1 PUSH1 0x5 SSTORE STOP JUMPDEST PUSH2 0xAE0 SWAP4 PUSH2 0xADA SWAP2 PUSH2 0x1DDE JUMP JUMPDEST SWAP2 PUSH2 0x208C JUMP JUMPDEST DUP1 DUP1 DUP1 DUP1 PUSH2 0x1DA JUMP JUMPDEST PUSH2 0xAF6 SWAP4 PUSH2 0xADA SWAP2 PUSH2 0x1DDE JUMP JUMPDEST DUP5 DUP1 DUP4 DUP2 PUSH2 0xAB3 JUMP JUMPDEST SWAP1 DUP1 SWAP3 SWAP7 POP DUP2 RETURNDATASIZE DUP4 GT PUSH2 0xB28 JUMPI JUMPDEST PUSH2 0xB17 DUP2 DUP4 PUSH2 0x1BBD JUMP JUMPDEST DUP2 ADD SUB SLT PUSH2 0x20C JUMPI MLOAD SWAP4 DUP6 DUP1 PUSH2 0xA99 JUMP JUMPDEST POP RETURNDATASIZE PUSH2 0xB0D JUMP JUMPDEST SWAP1 SWAP2 POP DUP6 DUP2 DUP2 RETURNDATASIZE DUP4 GT PUSH2 0xB57 JUMPI JUMPDEST PUSH2 0xB47 DUP2 DUP4 PUSH2 0x1BBD JUMP JUMPDEST DUP2 ADD SUB SLT PUSH2 0x20C JUMPI MLOAD SWAP1 DUP7 PUSH2 0xA76 JUMP JUMPDEST POP RETURNDATASIZE PUSH2 0xB3D JUMP JUMPDEST PUSH1 0x40 MLOAD PUSH3 0x461BCD PUSH1 0xE5 SHL DUP2 MSTORE PUSH1 0x4 DUP2 ADD DUP5 SWAP1 MSTORE PUSH1 0xC PUSH1 0x24 DUP3 ADD MSTORE PUSH12 0x4F4E4C595F464143544F5259 PUSH1 0xA0 SHL PUSH1 0x44 DUP3 ADD MSTORE PUSH1 0x64 SWAP1 REVERT JUMPDEST CALLVALUE PUSH2 0x20C JUMPI PUSH0 CALLDATASIZE PUSH1 0x3 NOT ADD SLT PUSH2 0x20C JUMPI PUSH1 0x40 DUP1 MLOAD PUSH1 0x1 PUSH1 0x1 PUSH1 0xA0 SHL SUB PUSH32 0x0 DUP2 AND DUP3 MSTORE PUSH32 0x0 AND PUSH1 0x20 DUP3 ADD MSTORE RETURN JUMPDEST CALLVALUE PUSH2 0x20C JUMPI PUSH1 0x40 CALLDATASIZE PUSH1 0x3 NOT ADD SLT PUSH2 0x20C JUMPI PUSH2 0xC22 PUSH2 0xC18 PUSH2 0x1B7B JUMP JUMPDEST PUSH1 0x24 CALLDATALOAD SWAP1 CALLER PUSH2 0x1BF3 JUMP JUMPDEST PUSH1 0x20 PUSH1 0x40 MLOAD PUSH1 0x1 DUP2 MSTORE RETURN JUMPDEST CALLVALUE PUSH2 0x20C JUMPI PUSH0 CALLDATASIZE PUSH1 0x3 NOT ADD SLT PUSH2 0x20C JUMPI PUSH1 0x40 MLOAD PUSH0 SWAP1 PUSH1 0x4 SLOAD PUSH1 0x1 DUP2 DUP2 SHR SWAP1 DUP1 DUP4 AND SWAP3 DUP4 ISZERO PUSH2 0xD1F JUMPI JUMPDEST PUSH1 0x20 SWAP4 DUP5 DUP5 LT DUP2 EQ PUSH2 0xD0B JUMPI DUP4 DUP7 MSTORE SWAP1 DUP2 ISZERO PUSH2 0xCEB JUMPI POP PUSH1 0x1 EQ PUSH2 0xC91 JUMPI JUMPDEST PUSH2 0x739 DUP5 PUSH2 0xC85 DUP2 DUP9 SUB DUP3 PUSH2 0x1BBD JUMP JUMPDEST PUSH1 0x40 MLOAD SWAP2 DUP3 SWAP2 DUP3 PUSH2 0x1B34 JUMP JUMPDEST PUSH1 0x4 PUSH0 SWAP1 DUP2 MSTORE SWAP3 SWAP5 POP PUSH32 0x8A35ACFBC15FF81A39AE7D344FD709F28E8600B4AA8C65C6B64BFE7FE36BD19B JUMPDEST DUP3 DUP5 LT PUSH2 0xCD8 JUMPI POP POP POP DUP2 PUSH2 0x739 SWAP4 PUSH2 0xC85 SWAP3 DUP3 ADD ADD SWAP4 PUSH2 0xC75 JUMP JUMPDEST DUP1 SLOAD DUP6 DUP6 ADD DUP8 ADD MSTORE SWAP3 DUP6 ADD SWAP3 DUP2 ADD PUSH2 0xCBC JUMP JUMPDEST PUSH1 0xFF NOT AND DUP6 DUP6 ADD MSTORE POP POP ISZERO ISZERO PUSH1 0x5 SHL DUP3 ADD ADD SWAP2 POP PUSH2 0xC85 DUP2 PUSH2 0x739 PUSH2 0xC75 JUMP JUMPDEST PUSH4 0x4E487B71 PUSH1 0xE0 SHL PUSH0 MSTORE PUSH1 0x22 PUSH1 0x4 MSTORE PUSH1 0x24 PUSH0 REVERT JUMPDEST SWAP2 PUSH1 0x7F AND SWAP2 PUSH2 0xC56 JUMP JUMPDEST CALLVALUE PUSH2 0x20C JUMPI PUSH0 CALLDATASIZE PUSH1 0x3 NOT ADD SLT PUSH2 0x20C JUMPI PUSH1 0x20 PUSH1 0x40 MLOAD PUSH3 0xFFFFFF PUSH32 0x0 AND DUP2 MSTORE RETURN JUMPDEST CALLVALUE PUSH2 0x20C JUMPI PUSH1 0x20 CALLDATASIZE PUSH1 0x3 NOT ADD SLT PUSH2 0x20C JUMPI PUSH1 0x1 PUSH1 0x1 PUSH1 0xA0 SHL SUB PUSH2 0xD89 PUSH2 0x1B7B JUMP JUMPDEST AND PUSH0 MSTORE PUSH0 PUSH1 0x20 MSTORE PUSH1 0x20 PUSH1 0x40 PUSH0 KECCAK256 SLOAD PUSH1 0x40 MLOAD SWAP1 DUP2 MSTORE RETURN JUMPDEST CALLVALUE PUSH2 0x20C JUMPI PUSH1 0x80 CALLDATASIZE PUSH1 0x3 NOT ADD SLT PUSH2 0x20C JUMPI PUSH2 0xDB8 PUSH2 0x1B7B JUMP JUMPDEST PUSH2 0xDC0 PUSH2 0x1B91 JUMP JUMPDEST PUSH2 0xDC8 PUSH2 0x1BA7 JUMP JUMPDEST SWAP2 PUSH2 0xDD1 PUSH2 0x1EEA JUMP JUMPDEST PUSH2 0xDE5 PUSH1 0x1 PUSH1 0x1 PUSH1 0xA0 SHL SUB DUP5 AND ISZERO ISZERO PUSH2 0x1CB0 JUMP JUMPDEST PUSH2 0xDF2 PUSH1 0x44 CALLDATALOAD ISZERO ISZERO PUSH2 0x1CE6 JUMP JUMPDEST PUSH1 0x1 PUSH1 0x1 PUSH1 0xA0 SHL SUB SWAP1 DUP2 AND SWAP1 PUSH32 0x0 AND DUP2 EQ DUP1 PUSH2 0x139B JUMPI JUMPDEST ISZERO PUSH2 0x12F1 JUMPI POP POP PUSH1 0x1 SWAP1 JUMPDEST PUSH1 0x6 SLOAD SWAP1 PUSH1 0x1 PUSH1 0x1 PUSH1 0x70 SHL SUB DUP1 DUP4 AND SWAP3 PUSH1 0x70 SHR AND DUP3 ISZERO ISZERO DUP1 PUSH2 0x12E8 JUMPI JUMPDEST ISZERO PUSH2 0x12B4 JUMPI DUP4 ISZERO PUSH2 0x1285 JUMPI PUSH32 0x0 PUSH1 0x1 PUSH1 0x1 PUSH1 0xA0 SHL SUB AND JUMPDEST DUP5 ISZERO PUSH2 0x124F JUMPI PUSH32 0x0 PUSH1 0x1 PUSH1 0x1 PUSH1 0xA0 SHL SUB AND SWAP2 PUSH1 0x24 SWAP1 PUSH1 0x20 SWAP1 JUMPDEST DUP8 ISZERO PUSH2 0x1248 JUMPI DUP7 JUMPDEST DUP9 ISZERO PUSH2 0x1240 JUMPI POP SWAP3 JUMPDEST PUSH1 0x40 MLOAD PUSH4 0x70A08231 PUSH1 0xE0 SHL DUP2 MSTORE ADDRESS PUSH1 0x4 DUP3 ADD MSTORE SWAP3 DUP4 SWAP2 DUP3 SWAP1 PUSH1 0x1 PUSH1 0x1 PUSH1 0xA0 SHL SUB AND GAS STATICCALL SWAP1 DUP2 ISZERO PUSH2 0x217 JUMPI PUSH0 SWAP2 PUSH2 0x120E JUMPI JUMPDEST POP PUSH2 0xF16 PUSH1 0x44 CALLDATALOAD PUSH1 0x1 PUSH1 0x1 PUSH1 0x70 SHL SUB DUP8 AND PUSH2 0x1CA3 JUMP JUMPDEST GT PUSH2 0x11D4 JUMPI PUSH2 0x2710 PUSH3 0xFFFFFF PUSH32 0x0 AND DUP2 SUB GT PUSH2 0x11C0 JUMPI DUP3 PUSH2 0xFD3 SWAP3 PUSH2 0xFBB PUSH2 0xFCE SWAP7 PUSH2 0xFB5 PUSH1 0x1 PUSH1 0x1 PUSH1 0x70 SHL SUB PUSH2 0x2710 PUSH2 0xF98 PUSH3 0xFFFFFF PUSH32 0x0 AND DUP3 SUB PUSH1 0x44 CALLDATALOAD PUSH2 0x1D27 JUMP JUMPDEST DIV SWAP7 AND SWAP6 PUSH1 0x1 PUSH1 0x1 PUSH1 0x70 SHL SUB PUSH2 0xFAE DUP9 DUP4 PUSH2 0x1D27 JUMP JUMPDEST SWAP4 AND PUSH2 0x1CA3 JUMP JUMPDEST SWAP1 PUSH2 0x1D3A JUMP JUMPDEST SWAP6 DUP7 SWAP4 DUP5 ISZERO ISZERO SWAP1 DUP2 PUSH2 0x11B6 JUMPI JUMPDEST POP PUSH2 0x20DC JUMP JUMPDEST PUSH2 0x208C JUMP JUMPDEST PUSH1 0x40 MLOAD PUSH4 0x70A08231 PUSH1 0xE0 SHL DUP2 MSTORE ADDRESS PUSH1 0x4 DUP3 ADD MSTORE SWAP3 PUSH1 0x20 DUP5 PUSH1 0x24 DUP2 PUSH32 0x0 PUSH1 0x1 PUSH1 0x1 PUSH1 0xA0 SHL SUB AND GAS STATICCALL SWAP4 DUP5 ISZERO PUSH2 0x217 JUMPI PUSH0 SWAP5 PUSH2 0x1182 JUMPI JUMPDEST POP PUSH1 0x40 MLOAD PUSH4 0x70A08231 PUSH1 0xE0 SHL DUP2 MSTORE ADDRESS PUSH1 0x4 DUP3 ADD MSTORE PUSH1 0x20 DUP2 PUSH1 0x24 DUP2 PUSH32 0x0 PUSH1 0x1 PUSH1 0x1 PUSH1 0xA0 SHL SUB AND GAS STATICCALL SWAP1 DUP2 ISZERO PUSH2 0x217 JUMPI PUSH0 SWAP2 PUSH2 0x114F JUMPI JUMPDEST POP PUSH2 0x1088 SWAP1 PUSH1 0x20 SWAP6 PUSH2 0x1F0D JUMP JUMPDEST DUP1 ISZERO PUSH2 0x1127 JUMPI PUSH32 0xD78AD95FA46C994B6551D0DA85FC275FE613CE37657FB8D5E3D130840159D822 PUSH1 0x44 CALLDATALOAD SWAP2 JUMPDEST DUP1 ISZERO PUSH2 0x111E JUMPI PUSH0 SWAP4 JUMPDEST DUP2 ISZERO PUSH2 0x1117 JUMPI PUSH0 SWAP2 JUMPDEST ISZERO PUSH2 0x110E JUMPI PUSH2 0x10FE DUP7 JUMPDEST PUSH1 0x40 MLOAD SWAP4 DUP5 SWAP4 PUSH1 0x1 DUP1 PUSH1 0xA0 SHL SUB AND SWAP8 CALLER SWAP8 DUP6 SWAP1 SWAP5 SWAP4 SWAP3 PUSH1 0x60 SWAP3 PUSH1 0x80 DUP4 ADD SWAP7 DUP4 MSTORE PUSH1 0x20 DUP4 ADD MSTORE PUSH1 0x40 DUP3 ADD MSTORE ADD MSTORE JUMP JUMPDEST SUB SWAP1 LOG3 PUSH1 0x1 PUSH1 0x5 SSTORE PUSH1 0x40 MLOAD SWAP1 DUP2 MSTORE RETURN JUMPDEST PUSH2 0x10FE PUSH0 PUSH2 0x10D0 JUMP JUMPDEST DUP6 SWAP2 PUSH2 0x10C6 JUMP JUMPDEST PUSH1 0x44 CALLDATALOAD SWAP4 PUSH2 0x10BD JUMP JUMPDEST PUSH32 0xD78AD95FA46C994B6551D0DA85FC275FE613CE37657FB8D5E3D130840159D822 PUSH0 SWAP2 PUSH2 0x10B4 JUMP JUMPDEST SWAP1 POP PUSH1 0x20 DUP2 RETURNDATASIZE PUSH1 0x20 GT PUSH2 0x117A JUMPI JUMPDEST DUP2 PUSH2 0x116A PUSH1 0x20 SWAP4 DUP4 PUSH2 0x1BBD JUMP JUMPDEST DUP2 ADD SUB SLT PUSH2 0x20C JUMPI MLOAD PUSH1 0x20 PUSH2 0x107B JUMP JUMPDEST RETURNDATASIZE SWAP2 POP PUSH2 0x115D JUMP JUMPDEST SWAP1 SWAP4 POP PUSH1 0x20 DUP2 RETURNDATASIZE PUSH1 0x20 GT PUSH2 0x11AE JUMPI JUMPDEST DUP2 PUSH2 0x119E PUSH1 0x20 SWAP4 DUP4 PUSH2 0x1BBD JUMP JUMPDEST DUP2 ADD SUB SLT PUSH2 0x20C JUMPI MLOAD SWAP3 DUP5 PUSH2 0x1027 JUMP JUMPDEST RETURNDATASIZE SWAP2 POP PUSH2 0x1191 JUMP JUMPDEST SWAP1 POP DUP5 LT DUP10 PUSH2 0xFC8 JUMP JUMPDEST PUSH4 0x4E487B71 PUSH1 0xE0 SHL PUSH0 MSTORE PUSH1 0x11 PUSH1 0x4 MSTORE PUSH1 0x24 PUSH0 REVERT JUMPDEST PUSH1 0x40 MLOAD PUSH3 0x461BCD PUSH1 0xE5 SHL DUP2 MSTORE PUSH1 0x20 PUSH1 0x4 DUP3 ADD MSTORE PUSH1 0x12 PUSH1 0x24 DUP3 ADD MSTORE PUSH18 0x125394155517D393D517D49150D152559151 PUSH1 0x72 SHL PUSH1 0x44 DUP3 ADD MSTORE PUSH1 0x64 SWAP1 REVERT JUMPDEST SWAP1 POP PUSH1 0x20 DUP2 RETURNDATASIZE PUSH1 0x20 GT PUSH2 0x1238 JUMPI JUMPDEST DUP2 PUSH2 0x1229 PUSH1 0x20 SWAP4 DUP4 PUSH2 0x1BBD JUMP JUMPDEST DUP2 ADD SUB SLT PUSH2 0x20C JUMPI MLOAD DUP7 PUSH2 0xF00 JUMP JUMPDEST RETURNDATASIZE SWAP2 POP PUSH2 0x121C JUMP JUMPDEST SWAP1 POP SWAP3 PUSH2 0xECF JUMP JUMPDEST DUP1 SWAP7 PUSH2 0xEC6 JUMP JUMPDEST PUSH32 0x0 PUSH1 0x1 PUSH1 0x1 PUSH1 0xA0 SHL SUB AND SWAP2 PUSH1 0x24 SWAP1 PUSH1 0x20 SWAP1 PUSH2 0xEBE JUMP JUMPDEST PUSH32 0x0 PUSH1 0x1 PUSH1 0x1 PUSH1 0xA0 SHL SUB AND PUSH2 0xE86 JUMP JUMPDEST PUSH1 0x40 MLOAD PUSH3 0x461BCD PUSH1 0xE5 SHL DUP2 MSTORE PUSH1 0x20 PUSH1 0x4 DUP3 ADD MSTORE PUSH1 0xC PUSH1 0x24 DUP3 ADD MSTORE PUSH12 0x4E4F5F4C4951554944495459 PUSH1 0xA0 SHL PUSH1 0x44 DUP3 ADD MSTORE PUSH1 0x64 SWAP1 REVERT JUMPDEST POP DUP1 ISZERO ISZERO PUSH2 0xE50 JUMP JUMPDEST PUSH32 0x0 PUSH1 0x1 PUSH1 0x1 PUSH1 0xA0 SHL SUB AND EQ SWAP1 DUP2 PUSH2 0x1364 JUMPI JUMPDEST POP ISZERO PUSH2 0x1330 JUMPI PUSH0 SWAP1 PUSH2 0xE33 JUMP JUMPDEST PUSH1 0x40 MLOAD PUSH3 0x461BCD PUSH1 0xE5 SHL DUP2 MSTORE PUSH1 0x20 PUSH1 0x4 DUP3 ADD MSTORE PUSH1 0xC PUSH1 0x24 DUP3 ADD MSTORE PUSH12 0x24A72B20A624A22FA820A4A9 PUSH1 0xA1 SHL PUSH1 0x44 DUP3 ADD MSTORE PUSH1 0x64 SWAP1 REVERT JUMPDEST PUSH32 0x0 PUSH1 0x1 PUSH1 0x1 PUSH1 0xA0 SHL SUB SWAP1 DUP2 AND SWAP2 AND EQ SWAP1 POP DUP3 PUSH2 0x1323 JUMP JUMPDEST POP PUSH1 0x1 PUSH1 0x1 PUSH1 0xA0 SHL SUB DUP3 DUP2 AND PUSH32 0x0 SWAP1 SWAP2 AND EQ PUSH2 0xE28 JUMP JUMPDEST CALLVALUE PUSH2 0x20C JUMPI PUSH1 0x60 CALLDATASIZE PUSH1 0x3 NOT ADD SLT PUSH2 0x20C JUMPI PUSH1 0x1 PUSH1 0x1 PUSH1 0xA0 SHL SUB PUSH1 0x44 CALLDATALOAD DUP2 DUP2 AND SWAP1 DUP2 DUP2 SUB PUSH2 0x20C JUMPI PUSH2 0x1400 PUSH2 0x1EEA JUMP JUMPDEST PUSH1 0x4 CALLDATALOAD DUP1 ISZERO DUP1 ISZERO DUP1 SWAP2 PUSH2 0x17D1 JUMPI JUMPDEST PUSH2 0x1417 SWAP1 PUSH2 0x20DC JUMP JUMPDEST PUSH2 0x1422 DUP5 ISZERO ISZERO PUSH2 0x1CB0 JUMP JUMPDEST PUSH1 0x6 SLOAD SWAP3 PUSH1 0x1 PUSH1 0x1 PUSH1 0x70 SHL SUB SWAP2 DUP3 DUP6 AND SWAP3 DUP4 DUP6 LT DUP1 PUSH2 0x17C1 JUMPI JUMPDEST ISZERO PUSH2 0x1783 JUMPI DUP8 PUSH32 0x0 AND SWAP8 PUSH32 0x0 AND SWAP2 PUSH2 0x1773 JUMPI JUMPDEST PUSH1 0x24 SWAP8 DUP9 CALLDATALOAD SWAP4 DUP5 DUP1 PUSH2 0x1762 JUMPI JUMPDEST POP POP PUSH1 0x40 MLOAD SWAP2 DUP3 SWAP2 PUSH4 0x70A08231 PUSH1 0xE0 SHL SWAP1 DUP2 DUP5 MSTORE ADDRESS PUSH1 0x4 DUP6 ADD MSTORE DUP4 DUP13 PUSH1 0x20 SWAP6 DUP7 SWAP4 GAS STATICCALL SWAP4 DUP5 ISZERO PUSH2 0x217 JUMPI PUSH0 SWAP5 PUSH2 0x1733 JUMPI JUMPDEST POP DUP3 SWAP1 DUP12 PUSH1 0x40 MLOAD DUP1 SWAP8 DUP2 SWAP4 DUP3 MSTORE ADDRESS PUSH1 0x4 DUP4 ADD MSTORE GAS STATICCALL SWAP4 DUP5 ISZERO PUSH2 0x217 JUMPI PUSH0 SWAP5 PUSH2 0x1704 JUMPI JUMPDEST POP PUSH2 0x14F9 DUP8 DUP8 PUSH2 0x1DDE JUMP JUMPDEST DUP4 GT ISZERO PUSH2 0x16FD JUMPI PUSH2 0x1513 PUSH2 0x150D DUP9 DUP9 PUSH2 0x1DDE JUMP JUMPDEST DUP5 PUSH2 0x1DDE JUMP JUMPDEST SWAP8 JUMPDEST PUSH1 0x70 SHR AND SWAP5 PUSH2 0x1524 DUP6 DUP8 PUSH2 0x1DDE JUMP JUMPDEST DUP5 GT ISZERO PUSH2 0x16F6 JUMPI PUSH2 0x153E PUSH2 0x1538 DUP7 DUP9 PUSH2 0x1DDE JUMP JUMPDEST DUP6 PUSH2 0x1DDE JUMP JUMPDEST SWAP6 JUMPDEST DUP9 ISZERO DUP1 ISZERO DUP1 SWAP2 PUSH2 0x16ED JUMPI JUMPDEST PUSH2 0x1554 SWAP1 PUSH2 0x1CE6 JUMP JUMPDEST ISZERO PUSH2 0x16E6 JUMPI PUSH2 0x2710 PUSH3 0xFFFFFF PUSH32 0x0 AND DUP2 SUB DUP2 DUP2 GT PUSH2 0x16D3 JUMPI PUSH2 0x1595 SWAP1 DUP12 PUSH2 0x1D27 JUMP JUMPDEST DIV SWAP1 JUMPDEST DUP7 DUP10 DUP10 ISZERO PUSH2 0x16B7 JUMPI POP POP PUSH2 0x2710 SWAP2 PUSH3 0xFFFFFF PUSH32 0x0 AND DUP4 SUB SWAP1 DUP4 DUP3 GT PUSH2 0x16A4 JUMPI PUSH2 0x160B DUP10 PUSH2 0x15FF PUSH2 0x1604 DUP15 PUSH2 0x15FF DUP16 SWAP10 PUSH2 0x15F6 PUSH2 0x1611 SWAP10 PUSH2 0x1617 SWAP13 PUSH2 0x1D27 JUMP JUMPDEST DIV SWAP7 JUMPDEST DUP12 PUSH2 0x1CA3 JUMP JUMPDEST PUSH2 0x1DDE JUMP JUMPDEST SWAP4 DUP7 PUSH2 0x1CA3 JUMP JUMPDEST SWAP1 PUSH2 0x1D27 JUMP JUMPDEST SWAP3 PUSH2 0x1D27 JUMP JUMPDEST GT PUSH2 0x167D JUMPI POP SWAP2 PUSH2 0x164E PUSH2 0x1673 SWAP3 PUSH32 0xD78AD95FA46C994B6551D0DA85FC275FE613CE37657FB8D5E3D130840159D822 SWAP7 SWAP6 SWAP5 PUSH2 0x1F0D JUMP JUMPDEST PUSH1 0x40 MLOAD SWAP4 DUP5 SWAP4 CALLER SWAP8 DUP6 SWAP1 SWAP5 SWAP4 SWAP3 PUSH1 0x60 SWAP3 PUSH1 0x80 DUP4 ADD SWAP7 DUP4 MSTORE PUSH1 0x20 DUP4 ADD MSTORE PUSH1 0x40 DUP3 ADD MSTORE ADD MSTORE JUMP JUMPDEST SUB SWAP1 LOG3 PUSH1 0x1 PUSH1 0x5 SSTORE STOP JUMPDEST PUSH1 0x64 SWAP1 PUSH1 0x1 DUP11 PUSH1 0x40 MLOAD SWAP3 PUSH3 0x461BCD PUSH1 0xE5 SHL DUP5 MSTORE PUSH1 0x4 DUP5 ADD MSTORE DUP3 ADD MSTORE PUSH1 0x4B PUSH1 0xF8 SHL PUSH1 0x44 DUP3 ADD MSTORE REVERT JUMPDEST DUP14 PUSH4 0x4E487B71 PUSH1 0xE0 SHL PUSH0 MSTORE PUSH1 0x11 PUSH1 0x4 MSTORE PUSH0 REVERT JUMPDEST SWAP3 PUSH2 0x160B PUSH2 0x1611 SWAP3 PUSH2 0x15FF PUSH2 0x1604 PUSH2 0x1617 SWAP8 PUSH2 0x15FF PUSH0 SWAP7 PUSH2 0x15F9 JUMP JUMPDEST DUP13 PUSH4 0x4E487B71 PUSH1 0xE0 SHL PUSH0 MSTORE PUSH1 0x11 PUSH1 0x4 MSTORE PUSH0 REVERT JUMPDEST PUSH0 SWAP1 PUSH2 0x1598 JUMP JUMPDEST POP DUP8 ISZERO ISZERO PUSH2 0x154B JUMP JUMPDEST PUSH0 SWAP6 PUSH2 0x1540 JUMP JUMPDEST PUSH0 SWAP8 PUSH2 0x1515 JUMP JUMPDEST SWAP1 SWAP4 POP DUP2 DUP2 DUP2 RETURNDATASIZE DUP4 GT PUSH2 0x172C JUMPI JUMPDEST PUSH2 0x171C DUP2 DUP4 PUSH2 0x1BBD JUMP JUMPDEST DUP2 ADD SUB SLT PUSH2 0x20C JUMPI MLOAD SWAP3 DUP11 PUSH2 0x14EE JUMP JUMPDEST POP RETURNDATASIZE PUSH2 0x1712 JUMP JUMPDEST SWAP1 SWAP4 POP DUP3 DUP2 DUP2 RETURNDATASIZE DUP4 GT PUSH2 0x175B JUMPI JUMPDEST PUSH2 0x174B DUP2 DUP4 PUSH2 0x1BBD JUMP JUMPDEST DUP2 ADD SUB SLT PUSH2 0x20C JUMPI MLOAD SWAP3 DUP3 PUSH2 0x14CB JUMP JUMPDEST POP RETURNDATASIZE PUSH2 0x1741 JUMP JUMPDEST PUSH2 0x176C SWAP2 DUP6 PUSH2 0x208C JUMP JUMPDEST DUP10 DUP5 PUSH2 0x149A JUMP JUMPDEST PUSH2 0x177E DUP6 DUP5 DUP11 PUSH2 0x208C JUMP JUMPDEST PUSH2 0x148D JUMP JUMPDEST PUSH1 0x40 MLOAD PUSH3 0x461BCD PUSH1 0xE5 SHL DUP2 MSTORE PUSH1 0x20 PUSH1 0x4 DUP3 ADD MSTORE PUSH1 0x16 PUSH1 0x24 DUP3 ADD MSTORE PUSH22 0x494E53554646494349454E545F4C4951554944495459 PUSH1 0x50 SHL PUSH1 0x44 DUP3 ADD MSTORE PUSH1 0x64 SWAP1 REVERT JUMPDEST POP DUP1 DUP7 PUSH1 0x70 SHR AND PUSH1 0x24 CALLDATALOAD LT PUSH2 0x143C JUMP JUMPDEST POP PUSH1 0x24 CALLDATALOAD ISZERO ISZERO PUSH2 0x140E JUMP JUMPDEST CALLVALUE PUSH2 0x20C JUMPI PUSH0 CALLDATASIZE PUSH1 0x3 NOT ADD SLT PUSH2 0x20C JUMPI PUSH1 0x40 MLOAD PUSH32 0x0 PUSH1 0x1 PUSH1 0x1 PUSH1 0xA0 SHL SUB AND DUP2 MSTORE PUSH1 0x20 SWAP1 RETURN JUMPDEST CALLVALUE PUSH2 0x20C JUMPI PUSH0 CALLDATASIZE PUSH1 0x3 NOT ADD SLT PUSH2 0x20C JUMPI PUSH1 0x20 PUSH1 0x40 MLOAD PUSH1 0x12 DUP2 MSTORE RETURN JUMPDEST CALLVALUE PUSH2 0x20C JUMPI PUSH0 CALLDATASIZE PUSH1 0x3 NOT ADD SLT PUSH2 0x20C JUMPI PUSH1 0x20 PUSH1 0x40 MLOAD PUSH3 0xFFFFFF PUSH32 0x0 AND DUP2 MSTORE RETURN JUMPDEST CALLVALUE PUSH2 0x20C JUMPI PUSH1 0x60 CALLDATASIZE PUSH1 0x3 NOT ADD SLT PUSH2 0x20C JUMPI PUSH2 0x1893 PUSH2 0x1B7B JUMP JUMPDEST PUSH2 0x189B PUSH2 0x1B91 JUMP JUMPDEST PUSH1 0x1 PUSH1 0x1 PUSH1 0xA0 SHL SUB DUP3 AND PUSH0 DUP2 DUP2 MSTORE PUSH1 0x1 PUSH1 0x20 SWAP1 DUP2 MSTORE PUSH1 0x40 DUP1 DUP4 KECCAK256 CALLER DUP5 MSTORE SWAP1 SWAP2 MSTORE SWAP1 KECCAK256 SLOAD SWAP3 PUSH1 0x44 CALLDATALOAD SWAP3 SWAP2 PUSH0 NOT DUP6 LT PUSH2 0x18D8 JUMPI JUMPDEST POP PUSH2 0xC22 SWAP4 POP PUSH2 0x1BF3 JUMP JUMPDEST DUP4 DUP6 LT PUSH2 0x193E JUMPI DUP1 ISZERO PUSH2 0x1926 JUMPI CALLER ISZERO PUSH2 0x190E JUMPI PUSH2 0xC22 SWAP5 DUP5 SWAP2 PUSH0 MSTORE PUSH1 0x1 PUSH1 0x20 MSTORE PUSH1 0x40 PUSH0 KECCAK256 CALLER PUSH0 MSTORE PUSH1 0x20 MSTORE SUB PUSH1 0x40 PUSH0 KECCAK256 SSTORE DUP5 PUSH2 0x18CD JUMP JUMPDEST PUSH1 0x40 MLOAD PUSH4 0x4A1406B1 PUSH1 0xE1 SHL DUP2 MSTORE PUSH0 PUSH1 0x4 DUP3 ADD MSTORE PUSH1 0x24 SWAP1 REVERT JUMPDEST PUSH1 0x40 MLOAD PUSH4 0xE602DF05 PUSH1 0xE0 SHL DUP2 MSTORE PUSH0 PUSH1 0x4 DUP3 ADD MSTORE PUSH1 0x24 SWAP1 REVERT JUMPDEST PUSH1 0x40 MLOAD PUSH4 0x7DC7A0D9 PUSH1 0xE1 SHL DUP2 MSTORE CALLER PUSH1 0x4 DUP3 ADD MSTORE PUSH1 0x24 DUP2 ADD DUP7 SWAP1 MSTORE PUSH1 0x44 DUP2 ADD DUP6 SWAP1 MSTORE PUSH1 0x64 SWAP1 REVERT JUMPDEST CALLVALUE PUSH2 0x20C JUMPI PUSH0 CALLDATASIZE PUSH1 0x3 NOT ADD SLT PUSH2 0x20C JUMPI PUSH1 0x20 PUSH1 0x2 SLOAD PUSH1 0x40 MLOAD SWAP1 DUP2 MSTORE RETURN JUMPDEST CALLVALUE PUSH2 0x20C JUMPI PUSH0 CALLDATASIZE PUSH1 0x3 NOT ADD SLT PUSH2 0x20C JUMPI PUSH1 0x40 MLOAD PUSH32 0x0 PUSH1 0x1 PUSH1 0x1 PUSH1 0xA0 SHL SUB AND DUP2 MSTORE PUSH1 0x20 SWAP1 RETURN JUMPDEST CALLVALUE PUSH2 0x20C JUMPI PUSH1 0x40 CALLDATASIZE PUSH1 0x3 NOT ADD SLT PUSH2 0x20C JUMPI PUSH2 0x19DE PUSH2 0x1B7B JUMP JUMPDEST PUSH1 0x24 CALLDATALOAD SWAP1 CALLER ISZERO PUSH2 0x1926 JUMPI PUSH1 0x1 PUSH1 0x1 PUSH1 0xA0 SHL SUB AND SWAP1 DUP2 ISZERO PUSH2 0x190E JUMPI CALLER PUSH0 MSTORE PUSH1 0x1 PUSH1 0x20 MSTORE PUSH1 0x40 PUSH0 KECCAK256 DUP3 PUSH0 MSTORE PUSH1 0x20 MSTORE DUP1 PUSH1 0x40 PUSH0 KECCAK256 SSTORE PUSH1 0x40 MLOAD SWAP1 DUP2 MSTORE PUSH32 0x8C5BE1E5EBEC7D5BD14F71427D1E84F3DD0314C0F7B2291E5B200AC8C7C3B925 PUSH1 0x20 CALLER SWAP3 LOG3 PUSH1 0x20 PUSH1 0x40 MLOAD PUSH1 0x1 DUP2 MSTORE RETURN JUMPDEST CALLVALUE PUSH2 0x20C JUMPI PUSH0 CALLDATASIZE PUSH1 0x3 NOT ADD SLT PUSH2 0x20C JUMPI PUSH1 0x6 SLOAD PUSH1 0x40 DUP1 MLOAD PUSH1 0x1 PUSH1 0x1 PUSH1 0x70 SHL SUB DUP1 DUP5 AND DUP3 MSTORE PUSH1 0x70 SWAP4 SWAP1 SWAP4 SHR SWAP1 SWAP3 AND PUSH1 0x20 DUP4 ADD MSTORE SWAP1 RETURN JUMPDEST CALLVALUE PUSH2 0x20C JUMPI PUSH0 CALLDATASIZE PUSH1 0x3 NOT ADD SLT PUSH2 0x20C JUMPI PUSH0 SWAP1 PUSH1 0x3 SLOAD PUSH1 0x1 DUP2 DUP2 SHR SWAP1 DUP1 DUP4 AND SWAP3 DUP4 ISZERO PUSH2 0x1B2A JUMPI JUMPDEST PUSH1 0x20 SWAP4 DUP5 DUP5 LT DUP2 EQ PUSH2 0xD0B JUMPI DUP4 DUP7 MSTORE SWAP1 DUP2 ISZERO PUSH2 0xCEB JUMPI POP PUSH1 0x1 EQ PUSH2 0x1AD0 JUMPI PUSH2 0x739 DUP5 PUSH2 0xC85 DUP2 DUP9 SUB DUP3 PUSH2 0x1BBD JUMP JUMPDEST PUSH1 0x3 PUSH0 SWAP1 DUP2 MSTORE SWAP3 SWAP5 POP PUSH32 0xC2575A0E9E593C00F959F8C92F12DB2869C3395A3B0502D05E2516446F71F85B JUMPDEST DUP3 DUP5 LT PUSH2 0x1B17 JUMPI POP POP POP DUP2 PUSH2 0x739 SWAP4 PUSH2 0xC85 SWAP3 DUP3 ADD ADD SWAP4 PUSH2 0xC75 JUMP JUMPDEST DUP1 SLOAD DUP6 DUP6 ADD DUP8 ADD MSTORE SWAP3 DUP6 ADD SWAP3 DUP2 ADD PUSH2 0x1AFB JUMP JUMPDEST SWAP2 PUSH1 0x7F AND SWAP2 PUSH2 0x1AA2 JUMP JUMPDEST PUSH1 0x20 DUP1 DUP3 MSTORE DUP3 MLOAD DUP2 DUP4 ADD DUP2 SWAP1 MSTORE SWAP1 SWAP4 SWAP3 PUSH0 JUMPDEST DUP3 DUP2 LT PUSH2 0x1B67 JUMPI POP POP PUSH1 0x40 SWAP3 SWAP4 POP PUSH0 DUP4 DUP3 DUP5 ADD ADD MSTORE PUSH1 0x1F DUP1 NOT SWAP2 ADD AND ADD ADD SWAP1 JUMP JUMPDEST DUP2 DUP2 ADD DUP7 ADD MLOAD DUP5 DUP3 ADD PUSH1 0x40 ADD MSTORE DUP6 ADD PUSH2 0x1B46 JUMP JUMPDEST PUSH1 0x4 CALLDATALOAD SWAP1 PUSH1 0x1 PUSH1 0x1 PUSH1 0xA0 SHL SUB DUP3 AND DUP3 SUB PUSH2 0x20C JUMPI JUMP JUMPDEST PUSH1 0x24 CALLDATALOAD SWAP1 PUSH1 0x1 PUSH1 0x1 PUSH1 0xA0 SHL SUB DUP3 AND DUP3 SUB PUSH2 0x20C JUMPI JUMP JUMPDEST PUSH1 0x64 CALLDATALOAD SWAP1 PUSH1 0x1 PUSH1 0x1 PUSH1 0xA0 SHL SUB DUP3 AND DUP3 SUB PUSH2 0x20C JUMPI JUMP JUMPDEST SWAP1 PUSH1 0x1F DUP1 NOT SWAP2 ADD AND DUP2 ADD SWAP1 DUP2 LT PUSH8 0xFFFFFFFFFFFFFFFF DUP3 GT OR PUSH2 0x1BDF JUMPI PUSH1 0x40 MSTORE JUMP JUMPDEST PUSH4 0x4E487B71 PUSH1 0xE0 SHL PUSH0 MSTORE PUSH1 0x41 PUSH1 0x4 MSTORE PUSH1 0x24 PUSH0 REVERT JUMPDEST SWAP2 PUSH1 0x1 PUSH1 0x1 PUSH1 0xA0 SHL SUB DUP1 DUP5 AND SWAP3 DUP4 ISZERO PUSH2 0x4AE JUMPI AND SWAP3 DUP4 ISZERO PUSH2 0x1C8B JUMPI PUSH0 SWAP1 DUP4 DUP3 MSTORE DUP2 PUSH1 0x20 MSTORE PUSH1 0x40 DUP3 KECCAK256 SLOAD SWAP1 DUP4 DUP3 LT PUSH2 0x1C59 JUMPI POP SWAP2 PUSH1 0x40 DUP3 DUP3 PUSH0 DUP1 MLOAD PUSH1 0x20 PUSH2 0x211F DUP4 CODECOPY DUP2 MLOAD SWAP2 MSTORE SWAP6 DUP8 PUSH1 0x20 SWAP7 MSTORE DUP3 DUP7 MSTORE SUB DUP3 DUP3 KECCAK256 SSTORE DUP7 DUP2 MSTORE KECCAK256 DUP2 DUP2 SLOAD ADD SWAP1 SSTORE PUSH1 0x40 MLOAD SWAP1 DUP2 MSTORE LOG3 JUMP JUMPDEST PUSH1 0x40 MLOAD PUSH4 0x391434E3 PUSH1 0xE2 SHL DUP2 MSTORE PUSH1 0x1 PUSH1 0x1 PUSH1 0xA0 SHL SUB SWAP2 SWAP1 SWAP2 AND PUSH1 0x4 DUP3 ADD MSTORE PUSH1 0x24 DUP2 ADD SWAP2 SWAP1 SWAP2 MSTORE PUSH1 0x44 DUP2 ADD DUP4 SWAP1 MSTORE PUSH1 0x64 SWAP1 REVERT JUMPDEST PUSH1 0x40 MLOAD PUSH4 0xEC442F05 PUSH1 0xE0 SHL DUP2 MSTORE PUSH0 PUSH1 0x4 DUP3 ADD MSTORE PUSH1 0x24 SWAP1 REVERT JUMPDEST SWAP2 SWAP1 DUP3 ADD DUP1 SWAP3 GT PUSH2 0x11C0 JUMPI JUMP JUMPDEST ISZERO PUSH2 0x1CB7 JUMPI JUMP JUMPDEST PUSH1 0x40 MLOAD PUSH3 0x461BCD PUSH1 0xE5 SHL DUP2 MSTORE PUSH1 0x20 PUSH1 0x4 DUP3 ADD MSTORE PUSH1 0x7 PUSH1 0x24 DUP3 ADD MSTORE PUSH7 0x5A45524F5F544F PUSH1 0xC8 SHL PUSH1 0x44 DUP3 ADD MSTORE PUSH1 0x64 SWAP1 REVERT JUMPDEST ISZERO PUSH2 0x1CED JUMPI JUMP JUMPDEST PUSH1 0x40 MLOAD PUSH3 0x461BCD PUSH1 0xE5 SHL DUP2 MSTORE PUSH1 0x20 PUSH1 0x4 DUP3 ADD MSTORE PUSH1 0x12 PUSH1 0x24 DUP3 ADD MSTORE PUSH18 0x125394D551919250D251539517D253941555 PUSH1 0x72 SHL PUSH1 0x44 DUP3 ADD MSTORE PUSH1 0x64 SWAP1 REVERT JUMPDEST DUP2 DUP2 MUL SWAP3 SWAP2 DUP2 ISZERO SWAP2 DUP5 DIV EQ OR ISZERO PUSH2 0x11C0 JUMPI JUMP JUMPDEST DUP2 ISZERO PUSH2 0x1D44 JUMPI DIV SWAP1 JUMP JUMPDEST PUSH4 0x4E487B71 PUSH1 0xE0 SHL PUSH0 MSTORE PUSH1 0x12 PUSH1 0x4 MSTORE PUSH1 0x24 PUSH0 REVERT JUMPDEST ISZERO PUSH2 0x1D5F JUMPI JUMP JUMPDEST PUSH1 0x40 MLOAD PUSH3 0x461BCD PUSH1 0xE5 SHL DUP2 MSTORE PUSH1 0x20 PUSH1 0x4 DUP3 ADD MSTORE PUSH1 0x14 PUSH1 0x24 DUP3 ADD MSTORE PUSH20 0x494E53554646494349454E545F414D4F554E543 PUSH1 0x64 SHL PUSH1 0x44 DUP3 ADD MSTORE PUSH1 0x64 SWAP1 REVERT JUMPDEST ISZERO PUSH2 0x1DA2 JUMPI JUMP JUMPDEST PUSH1 0x40 MLOAD PUSH3 0x461BCD PUSH1 0xE5 SHL DUP2 MSTORE PUSH1 0x20 PUSH1 0x4 DUP3 ADD MSTORE PUSH1 0x14 PUSH1 0x24 DUP3 ADD MSTORE PUSH20 0x494E53554646494349454E545F414D4F554E5431 PUSH1 0x60 SHL PUSH1 0x44 DUP3 ADD MSTORE PUSH1 0x64 SWAP1 REVERT JUMPDEST SWAP2 SWAP1 DUP3 SUB SWAP2 DUP3 GT PUSH2 0x11C0 JUMPI JUMP JUMPDEST PUSH1 0x1 PUSH1 0x1 PUSH1 0xA0 SHL SUB AND SWAP1 DUP2 ISZERO PUSH2 0x1C8B JUMPI PUSH0 DUP1 MLOAD PUSH1 0x20 PUSH2 0x211F DUP4 CODECOPY DUP2 MLOAD SWAP2 MSTORE PUSH1 0x20 DUP3 PUSH2 0x1E19 PUSH0 SWAP5 PUSH1 0x2 SLOAD PUSH2 0x1CA3 JUMP JUMPDEST PUSH1 0x2 SSTORE DUP5 DUP5 MSTORE DUP4 DUP3 MSTORE PUSH1 0x40 DUP5 KECCAK256 DUP2 DUP2 SLOAD ADD SWAP1 SSTORE PUSH1 0x40 MLOAD SWAP1 DUP2 MSTORE LOG3 JUMP JUMPDEST PUSH1 0x40 MLOAD PUSH4 0x23B872DD PUSH1 0xE0 SHL PUSH1 0x20 DUP3 ADD MSTORE PUSH1 0x1 PUSH1 0x1 PUSH1 0xA0 SHL SUB SWAP3 DUP4 AND PUSH1 0x24 DUP3 ADD MSTORE SWAP3 SWAP1 SWAP2 AND PUSH1 0x44 DUP4 ADD MSTORE PUSH1 0x64 DUP1 DUP4 ADD SWAP4 SWAP1 SWAP4 MSTORE SWAP2 DUP2 MSTORE PUSH1 0xA0 DUP2 ADD SWAP2 DUP2 DUP4 LT PUSH8 0xFFFFFFFFFFFFFFFF DUP5 GT OR PUSH2 0x1BDF JUMPI PUSH2 0x1E8E SWAP3 PUSH1 0x40 MSTORE PUSH2 0x1E90 JUMP JUMPDEST JUMP JUMPDEST SWAP1 PUSH0 PUSH1 0x20 SWAP2 DUP3 DUP2 MLOAD SWAP2 ADD DUP3 DUP6 GAS CALL ISZERO PUSH2 0x217 JUMPI PUSH0 MLOAD RETURNDATASIZE PUSH2 0x1EE1 JUMPI POP PUSH1 0x1 PUSH1 0x1 PUSH1 0xA0 SHL SUB DUP2 AND EXTCODESIZE ISZERO JUMPDEST PUSH2 0x1EBF JUMPI POP JUMP JUMPDEST PUSH1 0x40 MLOAD PUSH4 0x5274AFE7 PUSH1 0xE0 SHL DUP2 MSTORE PUSH1 0x1 PUSH1 0x1 PUSH1 0xA0 SHL SUB SWAP1 SWAP2 AND PUSH1 0x4 DUP3 ADD MSTORE PUSH1 0x24 SWAP1 REVERT JUMPDEST PUSH1 0x1 EQ ISZERO PUSH2 0x1EB8 JUMP JUMPDEST PUSH1 0x2 PUSH1 0x5 SLOAD EQ PUSH2 0x1EFB JUMPI PUSH1 0x2 PUSH1 0x5 SSTORE JUMP JUMPDEST PUSH1 0x40 MLOAD PUSH4 0x3EE5AEB5 PUSH1 0xE0 SHL DUP2 MSTORE PUSH1 0x4 SWAP1 REVERT JUMPDEST SWAP1 PUSH1 0x1 PUSH1 0x1 PUSH1 0x70 SHL SUB SWAP1 DUP2 DUP4 GT ISZERO DUP1 PUSH2 0x1FCD JUMPI JUMPDEST ISZERO PUSH2 0x1F9D JUMPI PUSH1 0x6 DUP1 SLOAD PUSH1 0x1 PUSH1 0x1 PUSH1 0xE0 SHL SUB NOT AND SWAP4 DUP4 AND SWAP4 DUP5 OR PUSH1 0x70 SWAP3 DUP4 SHL PUSH14 0xFFFFFFFFFFFFFFFFFFFFFFFFFFFF PUSH1 0x70 SHL AND OR SWAP1 DUP2 SWAP1 SSTORE PUSH1 0x40 DUP1 MLOAD PUSH1 0x1 PUSH1 0x1 PUSH1 0x70 SHL SUB SWAP6 DUP7 AND DUP2 MSTORE SWAP2 SWAP1 SWAP3 SHR SWAP1 SWAP3 AND SWAP1 SWAP3 AND PUSH1 0x20 DUP3 ADD MSTORE PUSH32 0x1C411E9A96E071241C2F21F7726B17AE89E3CAB4C78BE50E062B03A9FFFBBAD1 SWAP2 SWAP1 LOG1 JUMP JUMPDEST PUSH1 0x40 MLOAD PUSH3 0x461BCD PUSH1 0xE5 SHL DUP2 MSTORE PUSH1 0x20 PUSH1 0x4 DUP3 ADD MSTORE PUSH1 0x8 PUSH1 0x24 DUP3 ADD MSTORE PUSH8 0x4F564552464C4F57 PUSH1 0xC0 SHL PUSH1 0x44 DUP3 ADD MSTORE PUSH1 0x64 SWAP1 REVERT JUMPDEST POP DUP2 DUP2 GT ISZERO PUSH2 0x1F21 JUMP JUMPDEST PUSH32 0x0 SWAP1 PUSH1 0x1 PUSH1 0x1 PUSH1 0xA0 SHL SUB DUP3 AND ISZERO DUP1 ISZERO PUSH2 0x205F JUMPI JUMPDEST PUSH2 0x205B JUMPI DUP1 ISZERO PUSH2 0x205B JUMPI PUSH2 0x2048 PUSH2 0x2710 SWAP2 PUSH3 0xFFFFFF PUSH32 0x0 AND SWAP1 PUSH2 0x1D27 JUMP JUMPDEST DIV DUP1 PUSH2 0x2052 JUMPI POP POP JUMP JUMPDEST PUSH2 0x1E8E SWAP2 PUSH2 0x1DEB JUMP JUMPDEST POP POP JUMP JUMPDEST POP PUSH3 0xFFFFFF PUSH32 0x0 AND ISZERO PUSH2 0x200B JUMP JUMPDEST PUSH1 0x40 MLOAD PUSH4 0xA9059CBB PUSH1 0xE0 SHL PUSH1 0x20 DUP3 ADD MSTORE PUSH1 0x1 PUSH1 0x1 PUSH1 0xA0 SHL SUB SWAP1 SWAP3 AND PUSH1 0x24 DUP4 ADD MSTORE PUSH1 0x44 DUP1 DUP4 ADD SWAP4 SWAP1 SWAP4 MSTORE SWAP2 DUP2 MSTORE PUSH1 0x80 DUP2 ADD SWAP2 PUSH8 0xFFFFFFFFFFFFFFFF DUP4 GT DUP3 DUP5 LT OR PUSH2 0x1BDF JUMPI PUSH2 0x1E8E SWAP3 PUSH1 0x40 MSTORE PUSH2 0x1E90 JUMP JUMPDEST ISZERO PUSH2 0x20E3 JUMPI JUMP JUMPDEST PUSH1 0x40 MLOAD PUSH3 0x461BCD PUSH1 0xE5 SHL DUP2 MSTORE PUSH1 0x20 PUSH1 0x4 DUP3 ADD MSTORE PUSH1 0x13 PUSH1 0x24 DUP3 ADD MSTORE PUSH19 0x125394D551919250D251539517D3D555141555 PUSH1 0x6A SHL PUSH1 0x44 DUP3 ADD MSTORE PUSH1 0x64 SWAP1 REVERT INVALID 0xDD CALLCODE MSTORE 0xAD SHL 0xE2 0xC8 SWAP12 PUSH10 0xC2B068FC378DAA952BA7 CALL PUSH4 0xC4A11628 CREATE2 GAS 0x4D CREATE2 0x23 0xB3 0xEF LOG2 PUSH5 0x6970667358 0x22 SLT KECCAK256 0xB3 EXTCODEHASH 0x5C POP 0xC8 SWAP2 CALLDATALOAD 0xC6 0xD7 REVERT JUMPDEST STOP OR 0x29 LT CALLDATACOPY PUSH1 0x8C 0xF7 0x4A MSTORE8 DUP6 OR 0xDF 0xBB 0xBC DELEGATECALL 0xB5 0xAB CALLDATASIZE 0x4A 0x2D PUSH5 0x736F6C6343 STOP ADDMOD EQ STOP CALLER "},"methodIdentifiers":{"addLiquidity(uint256,uint256,uint256,uint256,address)":"e0ab0772","allowance(address,address)":"dd62ed3e","approve(address,uint256)":"095ea7b3","balanceOf(address)":"70a08231","decimals()":"313ce567","factory()":"c45a0155","getReserves()":"0902f1ac","getTokens()":"aa6ca808","name()":"06fdde03","protocolFeeRecipient()":"64df049e","protocolFeeShareBps()":"9040f866","removeLiquidity(uint256,uint256,uint256,address)":"e39b0eb5","skim(address)":"bc25cf77","swap(address,address,uint256,address)":"6e81221c","swap(uint256,uint256,address)":"6d9a640a","swapFeeBps()":"2ffdaf89","symbol()":"95d89b41","sync()":"fff6cae9","token0()":"0dfe1681","token1()":"d21220a7","totalSupply()":"18160ddd","transfer(address,uint256)":"a9059cbb","transferFrom(address,address,uint256)":"23b872dd"}}}}}