{"project/core/ArcExecutionHub.sol":{"ArcExecutionHub":{"abi":[{"inputs":[{"internalType":"address","name":"_arcPool","type":"address"},{"internalType":"address","name":"_lzEndpoint","type":"address"}],"stateMutability":"nonpayable","type":"constructor"},{"inputs":[{"internalType":"address","name":"owner","type":"address"}],"name":"OwnableInvalidOwner","type":"error"},{"inputs":[{"internalType":"address","name":"account","type":"address"}],"name":"OwnableUnauthorizedAccount","type":"error"},{"inputs":[],"name":"ReentrancyGuardReentrantCall","type":"error"},{"anonymous":false,"inputs":[{"indexed":true,"internalType":"address","name":"previousOwner","type":"address"},{"indexed":true,"internalType":"address","name":"newOwner","type":"address"}],"name":"OwnershipTransferred","type":"event"},{"anonymous":false,"inputs":[{"indexed":true,"internalType":"bytes32","name":"requestId","type":"bytes32"},{"indexed":true,"internalType":"uint32","name":"destinationChainId","type":"uint32"},{"indexed":true,"internalType":"address","name":"user","type":"address"},{"indexed":false,"internalType":"uint256","name":"amountOut","type":"uint256"}],"name":"ResultSent","type":"event"},{"anonymous":false,"inputs":[{"indexed":true,"internalType":"bytes32","name":"requestId","type":"bytes32"},{"indexed":false,"internalType":"address","name":"tokenOut","type":"address"},{"indexed":false,"internalType":"uint256","name":"amountOut","type":"uint256"}],"name":"SwapExecuted","type":"event"},{"anonymous":false,"inputs":[{"indexed":true,"internalType":"bytes32","name":"requestId","type":"bytes32"},{"indexed":true,"internalType":"uint32","name":"originChainId","type":"uint32"},{"indexed":true,"internalType":"address","name":"user","type":"address"},{"indexed":false,"internalType":"address","name":"tokenIn","type":"address"},{"indexed":false,"internalType":"address","name":"tokenOut","type":"address"},{"indexed":false,"internalType":"uint256","name":"amountIn","type":"uint256"}],"name":"SwapReceived","type":"event"},{"inputs":[],"name":"arcPool","outputs":[{"internalType":"address","name":"","type":"address"}],"stateMutability":"view","type":"function"},{"inputs":[],"name":"lzEndpoint","outputs":[{"internalType":"address","name":"","type":"address"}],"stateMutability":"view","type":"function"},{"inputs":[{"internalType":"uint16","name":"_srcChainId","type":"uint16"},{"internalType":"bytes","name":"_srcAddress","type":"bytes"},{"internalType":"uint64","name":"_nonce","type":"uint64"},{"internalType":"bytes","name":"_payload","type":"bytes"}],"name":"lzReceive","outputs":[],"stateMutability":"nonpayable","type":"function"},{"inputs":[],"name":"owner","outputs":[{"internalType":"address","name":"","type":"address"}],"stateMutability":"view","type":"function"},{"inputs":[{"internalType":"bytes32","name":"","type":"bytes32"}],"name":"pendingExecutions","outputs":[{"internalType":"uint32","name":"originChainId","type":"uint32"},{"internalType":"address","name":"originRouter","type":"address"},{"internalType":"address","name":"user","type":"address"},{"internalType":"address","name":"tokenOut","type":"address"},{"internalType":"uint256","name":"minAmountOut","type":"uint256"},{"internalType":"bool","name":"completed","type":"bool"}],"stateMutability":"view","type":"function"},{"inputs":[{"internalType":"uint32","name":"","type":"uint32"}],"name":"remoteRouters","outputs":[{"internalType":"address","name":"","type":"address"}],"stateMutability":"view","type":"function"},{"inputs":[],"name":"renounceOwnership","outputs":[],"stateMutability":"nonpayable","type":"function"},{"inputs":[{"internalType":"address","name":"_arcPool","type":"address"}],"name":"setArcPool","outputs":[],"stateMutability":"nonpayable","type":"function"},{"inputs":[{"internalType":"uint32","name":"chainId","type":"uint32"},{"internalType":"address","name":"router","type":"address"}],"name":"setRemoteRouter","outputs":[],"stateMutability":"nonpayable","type":"function"},{"inputs":[{"internalType":"address","name":"newOwner","type":"address"}],"name":"transferOwnership","outputs":[],"stateMutability":"nonpayable","type":"function"}],"evm":{"bytecode":{"linkReferences":{},"object":"60803461015657610bfc90601f38839003908101601f19168201906001600160401b0382118383101761015a578083916040958694855283398101031261015657610055602061004e8361016e565b920161016e565b331561013f575f8054336001600160a01b03198083168217845586519590946001600160a01b03949093859391908416907f8be0079c531659141344cd1fd0a4f28419497f9722a3daafe3b4186f6b6457e09080a360018055169384156101115750169182156100dd57816002541617600255600354161760035551610a7990816101838239f35b835162461bcd60e51b815260206004820152600d60248201526c16915493d7d153911413d25395609a1b6044820152606490fd5b62461bcd60e51b815260206004820152600960248201526816915493d7d413d3d360ba1b6044820152606490fd5b8251631e4fbdf760e01b81525f6004820152602490fd5b5f80fd5b634e487b7160e01b5f52604160045260245ffd5b51906001600160a01b03821682036101565756fe6080806040526004361015610012575f80fd5b5f3560e01c9081621d3567146103495750806332292564146102d25780634dd0d436146102aa5780635a64ee6a14610241578063715018a6146101ea5780638da5cb5b146101c357806391f0bf6214610186578063ae8a42ef1461013a578063b353aaa7146101125763f2fde38b14610089575f80fd5b3461010e57602036600319011261010e576100a2610991565b6100aa6109bb565b6001600160a01b039081169081156100f6575f54826001600160601b0360a01b8216175f55167f8be0079c531659141344cd1fd0a4f28419497f9722a3daafe3b4186f6b6457e05f80a3005b604051631e4fbdf760e01b81525f6004820152602490fd5b5f80fd5b3461010e575f36600319011261010e576003546040516001600160a01b039091168152602090f35b3461010e57602036600319011261010e57610153610991565b61015b6109bb565b6001600160a01b031661016f811515610a08565b6001600160601b0360a01b60025416176002555f80f35b3461010e57602036600319011261010e5763ffffffff6101a461097e565b165f526004602052602060018060a01b0360405f205416604051908152f35b3461010e575f36600319011261010e575f546040516001600160a01b039091168152602090f35b3461010e575f36600319011261010e576102026109bb565b5f80546001600160a01b0319811682556001600160a01b03167f8be0079c531659141344cd1fd0a4f28419497f9722a3daafe3b4186f6b6457e08280a3005b3461010e57604036600319011261010e5761025a61097e565b6024356001600160a01b038116919082900361010e5763ffffffff9061027e6109bb565b610289831515610a08565b165f90815260046020526040902080546001600160a01b0319169091179055005b3461010e575f36600319011261010e576002546040516001600160a01b039091168152602090f35b3461010e57602036600319011261010e576004355f52600560205260c060405f2080549060018060a01b039081600182015416826002830154169060ff6004600385015494015416936040519563ffffffff8116875260201c166020860152604085015260608401526080830152151560a0820152f35b3461010e57608036600319011261010e5760043561ffff811680910361010e5760243567ffffffffffffffff811161010e57610389903690600401610950565b92909160443567ffffffffffffffff81160361010e576064359167ffffffffffffffff831161010e576103c26014933690600401610950565b9390951061091c57505f908152600460205260409020546001600160a01b039081168335909116036108e65782906101009384918101031261010e5760405192830183811067ffffffffffffffff821117610824576040528035835261042a602082016109a7565b9081602085015260408101359163ffffffff8316830361010e57826040860152610456606083016109a7565b6060860152610467608083016109a7565b9081608087015260a083013560a087015260c083013560c087015260e0830135151560e08401350361010e5760e083013560e0870152604051948560c081011067ffffffffffffffff60c0880111176108245763ffffffff60c09586880160405216865260018060a01b03903516602086015260018060a01b0316604085015260018060a01b03166060840152013560808201525f60a082015281515f526005602052600460a060405f209263ffffffff815116845490640100000000600160c01b03602084015160201b169167ffffffffffffffff60c01b161717845560018401600180841b03604083015116906001600160601b03841b91828254161790556002850190600180851b0360608401511690825416179055608081015160038501550151151560ff80198385015416911617910155805163ffffffff60408301511660018060a01b03602084015116917fac0f33449b63cbe1174bfca862b7bae2c189ebb0c71a45684b4f7f10c5e051a6606060018060a01b03818701511660018060a01b0360808801511660a08801519060405192835260208301526040820152a4606081015160025460a083015160405163095ea7b360e01b81526001600160a01b039283166004820152602481019190915291602091839160449183915f91165af180156108db576108a3575b506002546060820151608083015160a084015160c085015160405163d5bcb9b560e01b60208201526001600160a01b0394851660248201529284166044840152606483019190915260848201523060a4808301919091528152911667ffffffffffffffff60e083019081119083111761082457815f929160e084930160405282602083519301915af13d1561089b573d9067ffffffffffffffff82116108245760405191610710601f8201601f1916602001846109e6565b82523d5f602084013e5b156108685760208180518101031261010e576020015160c082015181106108385781515f90815260056020908152604091829020600401805460ff191660011790558351608085015183516001600160a01b039091168152918201849052917f22421962bfaa39dd537a12f6e9a519f79eea832ac6dfd20e0dc3d125c8eac29991a2815163ffffffff6040840151169160018060a01b0360208501511693608060018060a01b039101511690604051918360208401526040830152806060830152606082526080820191821067ffffffffffffffff83111761082457816020917f821350dfdf24ed9af87b5f157aad459046dd1412db043fc2f82f48a59d94c2e7936040528152a4005b634e487b7160e01b5f52604160045260245ffd5b60405162461bcd60e51b8152602060048201526008602482015267534c49505041474560c01b6044820152606490fd5b60405162461bcd60e51b815260206004820152600b60248201526a14d5d05417d1905253115160aa1b6044820152606490fd5b60609061071a565b6020813d6020116108d3575b816108bc602093836109e6565b8101031261010e57518015150361010e5781610658565b3d91506108af565b6040513d5f823e3d90fd5b60405162461bcd60e51b815260206004820152600e60248201526d2aa725a727aba72fa927aaaa22a960911b6044820152606490fd5b62461bcd60e51b815260206004820152600f60248201526e494e56414c49445f4144445245535360881b6044820152606490fd5b9181601f8401121561010e5782359167ffffffffffffffff831161010e576020838186019501011161010e57565b6004359063ffffffff8216820361010e57565b600435906001600160a01b038216820361010e57565b35906001600160a01b038216820361010e57565b5f546001600160a01b031633036109ce57565b60405163118cdaa760e01b8152336004820152602490fd5b90601f8019910116810190811067ffffffffffffffff82111761082457604052565b15610a0f57565b60405162461bcd60e51b815260206004820152600c60248201526b5a45524f5f4144445245535360a01b6044820152606490fdfea2646970667358221220cd425705f6a5f9838c4ea434f4dc90dbf2110e3e5225d9c5c679f5798a449bf364736f6c63430008140033","opcodes":"PUSH1 0x80 CALLVALUE PUSH2 0x156 JUMPI PUSH2 0xBFC SWAP1 PUSH1 0x1F CODESIZE DUP4 SWAP1 SUB SWAP1 DUP2 ADD PUSH1 0x1F NOT AND DUP3 ADD SWAP1 PUSH1 0x1 PUSH1 0x1 PUSH1 0x40 SHL SUB DUP3 GT DUP4 DUP4 LT OR PUSH2 0x15A JUMPI DUP1 DUP4 SWAP2 PUSH1 0x40 SWAP6 DUP7 SWAP5 DUP6 MSTORE DUP4 CODECOPY DUP2 ADD SUB SLT PUSH2 0x156 JUMPI PUSH2 0x55 PUSH1 0x20 PUSH2 0x4E DUP4 PUSH2 0x16E JUMP JUMPDEST SWAP3 ADD PUSH2 0x16E JUMP JUMPDEST CALLER ISZERO PUSH2 0x13F JUMPI PUSH0 DUP1 SLOAD CALLER PUSH1 0x1 PUSH1 0x1 PUSH1 0xA0 SHL SUB NOT DUP1 DUP4 AND DUP3 OR DUP5 SSTORE DUP7 MLOAD SWAP6 SWAP1 SWAP5 PUSH1 0x1 PUSH1 0x1 PUSH1 0xA0 SHL SUB SWAP5 SWAP1 SWAP4 DUP6 SWAP4 SWAP2 SWAP1 DUP5 AND SWAP1 PUSH32 0x8BE0079C531659141344CD1FD0A4F28419497F9722A3DAAFE3B4186F6B6457E0 SWAP1 DUP1 LOG3 PUSH1 0x1 DUP1 SSTORE AND SWAP4 DUP5 ISZERO PUSH2 0x111 JUMPI POP AND SWAP2 DUP3 ISZERO PUSH2 0xDD JUMPI DUP2 PUSH1 0x2 SLOAD AND OR PUSH1 0x2 SSTORE PUSH1 0x3 SLOAD AND OR PUSH1 0x3 SSTORE MLOAD PUSH2 0xA79 SWAP1 DUP2 PUSH2 0x183 DUP3 CODECOPY RETURN JUMPDEST DUP4 MLOAD PUSH3 0x461BCD PUSH1 0xE5 SHL DUP2 MSTORE PUSH1 0x20 PUSH1 0x4 DUP3 ADD MSTORE PUSH1 0xD PUSH1 0x24 DUP3 ADD MSTORE PUSH13 0x16915493D7D153911413D25395 PUSH1 0x9A SHL PUSH1 0x44 DUP3 ADD MSTORE PUSH1 0x64 SWAP1 REVERT JUMPDEST PUSH3 0x461BCD PUSH1 0xE5 SHL DUP2 MSTORE PUSH1 0x20 PUSH1 0x4 DUP3 ADD MSTORE PUSH1 0x9 PUSH1 0x24 DUP3 ADD MSTORE PUSH9 0x16915493D7D413D3D3 PUSH1 0xBA SHL PUSH1 0x44 DUP3 ADD MSTORE PUSH1 0x64 SWAP1 REVERT JUMPDEST DUP3 MLOAD PUSH4 0x1E4FBDF7 PUSH1 0xE0 SHL DUP2 MSTORE PUSH0 PUSH1 0x4 DUP3 ADD MSTORE PUSH1 0x24 SWAP1 REVERT JUMPDEST PUSH0 DUP1 REVERT JUMPDEST PUSH4 0x4E487B71 PUSH1 0xE0 SHL PUSH0 MSTORE PUSH1 0x41 PUSH1 0x4 MSTORE PUSH1 0x24 PUSH0 REVERT JUMPDEST MLOAD SWAP1 PUSH1 0x1 PUSH1 0x1 PUSH1 0xA0 SHL SUB DUP3 AND DUP3 SUB PUSH2 0x156 JUMPI JUMP INVALID PUSH1 0x80 DUP1 PUSH1 0x40 MSTORE PUSH1 0x4 CALLDATASIZE LT ISZERO PUSH2 0x12 JUMPI PUSH0 DUP1 REVERT JUMPDEST PUSH0 CALLDATALOAD PUSH1 0xE0 SHR SWAP1 DUP2 PUSH3 0x1D3567 EQ PUSH2 0x349 JUMPI POP DUP1 PUSH4 0x32292564 EQ PUSH2 0x2D2 JUMPI DUP1 PUSH4 0x4DD0D436 EQ PUSH2 0x2AA JUMPI DUP1 PUSH4 0x5A64EE6A EQ PUSH2 0x241 JUMPI DUP1 PUSH4 0x715018A6 EQ PUSH2 0x1EA JUMPI DUP1 PUSH4 0x8DA5CB5B EQ PUSH2 0x1C3 JUMPI DUP1 PUSH4 0x91F0BF62 EQ PUSH2 0x186 JUMPI DUP1 PUSH4 0xAE8A42EF EQ PUSH2 0x13A JUMPI DUP1 PUSH4 0xB353AAA7 EQ PUSH2 0x112 JUMPI PUSH4 0xF2FDE38B EQ PUSH2 0x89 JUMPI PUSH0 DUP1 REVERT JUMPDEST CALLVALUE PUSH2 0x10E JUMPI PUSH1 0x20 CALLDATASIZE PUSH1 0x3 NOT ADD SLT PUSH2 0x10E JUMPI PUSH2 0xA2 PUSH2 0x991 JUMP JUMPDEST PUSH2 0xAA PUSH2 0x9BB JUMP JUMPDEST PUSH1 0x1 PUSH1 0x1 PUSH1 0xA0 SHL SUB SWAP1 DUP2 AND SWAP1 DUP2 ISZERO PUSH2 0xF6 JUMPI PUSH0 SLOAD DUP3 PUSH1 0x1 PUSH1 0x1 PUSH1 0x60 SHL SUB PUSH1 0xA0 SHL DUP3 AND OR PUSH0 SSTORE AND PUSH32 0x8BE0079C531659141344CD1FD0A4F28419497F9722A3DAAFE3B4186F6B6457E0 PUSH0 DUP1 LOG3 STOP JUMPDEST PUSH1 0x40 MLOAD PUSH4 0x1E4FBDF7 PUSH1 0xE0 SHL DUP2 MSTORE PUSH0 PUSH1 0x4 DUP3 ADD MSTORE PUSH1 0x24 SWAP1 REVERT JUMPDEST PUSH0 DUP1 REVERT JUMPDEST CALLVALUE PUSH2 0x10E JUMPI PUSH0 CALLDATASIZE PUSH1 0x3 NOT ADD SLT PUSH2 0x10E JUMPI PUSH1 0x3 SLOAD PUSH1 0x40 MLOAD PUSH1 0x1 PUSH1 0x1 PUSH1 0xA0 SHL SUB SWAP1 SWAP2 AND DUP2 MSTORE PUSH1 0x20 SWAP1 RETURN JUMPDEST CALLVALUE PUSH2 0x10E JUMPI PUSH1 0x20 CALLDATASIZE PUSH1 0x3 NOT ADD SLT PUSH2 0x10E JUMPI PUSH2 0x153 PUSH2 0x991 JUMP JUMPDEST PUSH2 0x15B PUSH2 0x9BB JUMP JUMPDEST PUSH1 0x1 PUSH1 0x1 PUSH1 0xA0 SHL SUB AND PUSH2 0x16F DUP2 ISZERO ISZERO PUSH2 0xA08 JUMP JUMPDEST PUSH1 0x1 PUSH1 0x1 PUSH1 0x60 SHL SUB PUSH1 0xA0 SHL PUSH1 0x2 SLOAD AND OR PUSH1 0x2 SSTORE PUSH0 DUP1 RETURN JUMPDEST CALLVALUE PUSH2 0x10E JUMPI PUSH1 0x20 CALLDATASIZE PUSH1 0x3 NOT ADD SLT PUSH2 0x10E JUMPI PUSH4 0xFFFFFFFF PUSH2 0x1A4 PUSH2 0x97E JUMP JUMPDEST AND PUSH0 MSTORE PUSH1 0x4 PUSH1 0x20 MSTORE PUSH1 0x20 PUSH1 0x1 DUP1 PUSH1 0xA0 SHL SUB PUSH1 0x40 PUSH0 KECCAK256 SLOAD AND PUSH1 0x40 MLOAD SWAP1 DUP2 MSTORE RETURN JUMPDEST CALLVALUE PUSH2 0x10E JUMPI PUSH0 CALLDATASIZE PUSH1 0x3 NOT ADD SLT PUSH2 0x10E JUMPI PUSH0 SLOAD PUSH1 0x40 MLOAD PUSH1 0x1 PUSH1 0x1 PUSH1 0xA0 SHL SUB SWAP1 SWAP2 AND DUP2 MSTORE PUSH1 0x20 SWAP1 RETURN JUMPDEST CALLVALUE PUSH2 0x10E JUMPI PUSH0 CALLDATASIZE PUSH1 0x3 NOT ADD SLT PUSH2 0x10E JUMPI PUSH2 0x202 PUSH2 0x9BB JUMP JUMPDEST PUSH0 DUP1 SLOAD PUSH1 0x1 PUSH1 0x1 PUSH1 0xA0 SHL SUB NOT DUP2 AND DUP3 SSTORE PUSH1 0x1 PUSH1 0x1 PUSH1 0xA0 SHL SUB AND PUSH32 0x8BE0079C531659141344CD1FD0A4F28419497F9722A3DAAFE3B4186F6B6457E0 DUP3 DUP1 LOG3 STOP JUMPDEST CALLVALUE PUSH2 0x10E JUMPI PUSH1 0x40 CALLDATASIZE PUSH1 0x3 NOT ADD SLT PUSH2 0x10E JUMPI PUSH2 0x25A PUSH2 0x97E JUMP JUMPDEST PUSH1 0x24 CALLDATALOAD PUSH1 0x1 PUSH1 0x1 PUSH1 0xA0 SHL SUB DUP2 AND SWAP2 SWAP1 DUP3 SWAP1 SUB PUSH2 0x10E JUMPI PUSH4 0xFFFFFFFF SWAP1 PUSH2 0x27E PUSH2 0x9BB JUMP JUMPDEST PUSH2 0x289 DUP4 ISZERO ISZERO PUSH2 0xA08 JUMP JUMPDEST AND PUSH0 SWAP1 DUP2 MSTORE PUSH1 0x4 PUSH1 0x20 MSTORE PUSH1 0x40 SWAP1 KECCAK256 DUP1 SLOAD PUSH1 0x1 PUSH1 0x1 PUSH1 0xA0 SHL SUB NOT AND SWAP1 SWAP2 OR SWAP1 SSTORE STOP JUMPDEST CALLVALUE PUSH2 0x10E JUMPI PUSH0 CALLDATASIZE PUSH1 0x3 NOT ADD SLT PUSH2 0x10E JUMPI PUSH1 0x2 SLOAD PUSH1 0x40 MLOAD PUSH1 0x1 PUSH1 0x1 PUSH1 0xA0 SHL SUB SWAP1 SWAP2 AND DUP2 MSTORE PUSH1 0x20 SWAP1 RETURN JUMPDEST CALLVALUE PUSH2 0x10E JUMPI PUSH1 0x20 CALLDATASIZE PUSH1 0x3 NOT ADD SLT PUSH2 0x10E JUMPI PUSH1 0x4 CALLDATALOAD PUSH0 MSTORE PUSH1 0x5 PUSH1 0x20 MSTORE PUSH1 0xC0 PUSH1 0x40 PUSH0 KECCAK256 DUP1 SLOAD SWAP1 PUSH1 0x1 DUP1 PUSH1 0xA0 SHL SUB SWAP1 DUP2 PUSH1 0x1 DUP3 ADD SLOAD AND DUP3 PUSH1 0x2 DUP4 ADD SLOAD AND SWAP1 PUSH1 0xFF PUSH1 0x4 PUSH1 0x3 DUP6 ADD SLOAD SWAP5 ADD SLOAD AND SWAP4 PUSH1 0x40 MLOAD SWAP6 PUSH4 0xFFFFFFFF DUP2 AND DUP8 MSTORE PUSH1 0x20 SHR AND PUSH1 0x20 DUP7 ADD MSTORE PUSH1 0x40 DUP6 ADD MSTORE PUSH1 0x60 DUP5 ADD MSTORE PUSH1 0x80 DUP4 ADD MSTORE ISZERO ISZERO PUSH1 0xA0 DUP3 ADD MSTORE RETURN JUMPDEST CALLVALUE PUSH2 0x10E JUMPI PUSH1 0x80 CALLDATASIZE PUSH1 0x3 NOT ADD SLT PUSH2 0x10E JUMPI PUSH1 0x4 CALLDATALOAD PUSH2 0xFFFF DUP2 AND DUP1 SWAP2 SUB PUSH2 0x10E JUMPI PUSH1 0x24 CALLDATALOAD PUSH8 0xFFFFFFFFFFFFFFFF DUP2 GT PUSH2 0x10E JUMPI PUSH2 0x389 SWAP1 CALLDATASIZE SWAP1 PUSH1 0x4 ADD PUSH2 0x950 JUMP JUMPDEST SWAP3 SWAP1 SWAP2 PUSH1 0x44 CALLDATALOAD PUSH8 0xFFFFFFFFFFFFFFFF DUP2 AND SUB PUSH2 0x10E JUMPI PUSH1 0x64 CALLDATALOAD SWAP2 PUSH8 0xFFFFFFFFFFFFFFFF DUP4 GT PUSH2 0x10E JUMPI PUSH2 0x3C2 PUSH1 0x14 SWAP4 CALLDATASIZE SWAP1 PUSH1 0x4 ADD PUSH2 0x950 JUMP JUMPDEST SWAP4 SWAP1 SWAP6 LT PUSH2 0x91C JUMPI POP PUSH0 SWAP1 DUP2 MSTORE PUSH1 0x4 PUSH1 0x20 MSTORE PUSH1 0x40 SWAP1 KECCAK256 SLOAD PUSH1 0x1 PUSH1 0x1 PUSH1 0xA0 SHL SUB SWAP1 DUP2 AND DUP4 CALLDATALOAD SWAP1 SWAP2 AND SUB PUSH2 0x8E6 JUMPI DUP3 SWAP1 PUSH2 0x100 SWAP4 DUP5 SWAP2 DUP2 ADD SUB SLT PUSH2 0x10E JUMPI PUSH1 0x40 MLOAD SWAP3 DUP4 ADD DUP4 DUP2 LT PUSH8 0xFFFFFFFFFFFFFFFF DUP3 GT OR PUSH2 0x824 JUMPI PUSH1 0x40 MSTORE DUP1 CALLDATALOAD DUP4 MSTORE PUSH2 0x42A PUSH1 0x20 DUP3 ADD PUSH2 0x9A7 JUMP JUMPDEST SWAP1 DUP2 PUSH1 0x20 DUP6 ADD MSTORE PUSH1 0x40 DUP2 ADD CALLDATALOAD SWAP2 PUSH4 0xFFFFFFFF DUP4 AND DUP4 SUB PUSH2 0x10E JUMPI DUP3 PUSH1 0x40 DUP7 ADD MSTORE PUSH2 0x456 PUSH1 0x60 DUP4 ADD PUSH2 0x9A7 JUMP JUMPDEST PUSH1 0x60 DUP7 ADD MSTORE PUSH2 0x467 PUSH1 0x80 DUP4 ADD PUSH2 0x9A7 JUMP JUMPDEST SWAP1 DUP2 PUSH1 0x80 DUP8 ADD MSTORE PUSH1 0xA0 DUP4 ADD CALLDATALOAD PUSH1 0xA0 DUP8 ADD MSTORE PUSH1 0xC0 DUP4 ADD CALLDATALOAD PUSH1 0xC0 DUP8 ADD MSTORE PUSH1 0xE0 DUP4 ADD CALLDATALOAD ISZERO ISZERO PUSH1 0xE0 DUP5 ADD CALLDATALOAD SUB PUSH2 0x10E JUMPI PUSH1 0xE0 DUP4 ADD CALLDATALOAD PUSH1 0xE0 DUP8 ADD MSTORE PUSH1 0x40 MLOAD SWAP5 DUP6 PUSH1 0xC0 DUP2 ADD LT PUSH8 0xFFFFFFFFFFFFFFFF PUSH1 0xC0 DUP9 ADD GT OR PUSH2 0x824 JUMPI PUSH4 0xFFFFFFFF PUSH1 0xC0 SWAP6 DUP7 DUP9 ADD PUSH1 0x40 MSTORE AND DUP7 MSTORE PUSH1 0x1 DUP1 PUSH1 0xA0 SHL SUB SWAP1 CALLDATALOAD AND PUSH1 0x20 DUP7 ADD MSTORE PUSH1 0x1 DUP1 PUSH1 0xA0 SHL SUB AND PUSH1 0x40 DUP6 ADD MSTORE PUSH1 0x1 DUP1 PUSH1 0xA0 SHL SUB AND PUSH1 0x60 DUP5 ADD MSTORE ADD CALLDATALOAD PUSH1 0x80 DUP3 ADD MSTORE PUSH0 PUSH1 0xA0 DUP3 ADD MSTORE DUP2 MLOAD PUSH0 MSTORE PUSH1 0x5 PUSH1 0x20 MSTORE PUSH1 0x4 PUSH1 0xA0 PUSH1 0x40 PUSH0 KECCAK256 SWAP3 PUSH4 0xFFFFFFFF DUP2 MLOAD AND DUP5 SLOAD SWAP1 PUSH5 0x100000000 PUSH1 0x1 PUSH1 0xC0 SHL SUB PUSH1 0x20 DUP5 ADD MLOAD PUSH1 0x20 SHL AND SWAP2 PUSH8 0xFFFFFFFFFFFFFFFF PUSH1 0xC0 SHL AND OR OR DUP5 SSTORE PUSH1 0x1 DUP5 ADD PUSH1 0x1 DUP1 DUP5 SHL SUB PUSH1 0x40 DUP4 ADD MLOAD AND SWAP1 PUSH1 0x1 PUSH1 0x1 PUSH1 0x60 SHL SUB DUP5 SHL SWAP2 DUP3 DUP3 SLOAD AND OR SWAP1 SSTORE PUSH1 0x2 DUP6 ADD SWAP1 PUSH1 0x1 DUP1 DUP6 SHL SUB PUSH1 0x60 DUP5 ADD MLOAD AND SWAP1 DUP3 SLOAD AND OR SWAP1 SSTORE PUSH1 0x80 DUP2 ADD MLOAD PUSH1 0x3 DUP6 ADD SSTORE ADD MLOAD ISZERO ISZERO PUSH1 0xFF DUP1 NOT DUP4 DUP6 ADD SLOAD AND SWAP2 AND OR SWAP2 ADD SSTORE DUP1 MLOAD PUSH4 0xFFFFFFFF PUSH1 0x40 DUP4 ADD MLOAD AND PUSH1 0x1 DUP1 PUSH1 0xA0 SHL SUB PUSH1 0x20 DUP5 ADD MLOAD AND SWAP2 PUSH32 0xAC0F33449B63CBE1174BFCA862B7BAE2C189EBB0C71A45684B4F7F10C5E051A6 PUSH1 0x60 PUSH1 0x1 DUP1 PUSH1 0xA0 SHL SUB DUP2 DUP8 ADD MLOAD AND PUSH1 0x1 DUP1 PUSH1 0xA0 SHL SUB PUSH1 0x80 DUP9 ADD MLOAD AND PUSH1 0xA0 DUP9 ADD MLOAD SWAP1 PUSH1 0x40 MLOAD SWAP3 DUP4 MSTORE PUSH1 0x20 DUP4 ADD MSTORE PUSH1 0x40 DUP3 ADD MSTORE LOG4 PUSH1 0x60 DUP2 ADD MLOAD PUSH1 0x2 SLOAD PUSH1 0xA0 DUP4 ADD MLOAD PUSH1 0x40 MLOAD PUSH4 0x95EA7B3 PUSH1 0xE0 SHL DUP2 MSTORE PUSH1 0x1 PUSH1 0x1 PUSH1 0xA0 SHL SUB SWAP3 DUP4 AND PUSH1 0x4 DUP3 ADD MSTORE PUSH1 0x24 DUP2 ADD SWAP2 SWAP1 SWAP2 MSTORE SWAP2 PUSH1 0x20 SWAP2 DUP4 SWAP2 PUSH1 0x44 SWAP2 DUP4 SWAP2 PUSH0 SWAP2 AND GAS CALL DUP1 ISZERO PUSH2 0x8DB JUMPI PUSH2 0x8A3 JUMPI JUMPDEST POP PUSH1 0x2 SLOAD PUSH1 0x60 DUP3 ADD MLOAD PUSH1 0x80 DUP4 ADD MLOAD PUSH1 0xA0 DUP5 ADD MLOAD PUSH1 0xC0 DUP6 ADD MLOAD PUSH1 0x40 MLOAD PUSH4 0xD5BCB9B5 PUSH1 0xE0 SHL PUSH1 0x20 DUP3 ADD MSTORE PUSH1 0x1 PUSH1 0x1 PUSH1 0xA0 SHL SUB SWAP5 DUP6 AND PUSH1 0x24 DUP3 ADD MSTORE SWAP3 DUP5 AND PUSH1 0x44 DUP5 ADD MSTORE PUSH1 0x64 DUP4 ADD SWAP2 SWAP1 SWAP2 MSTORE PUSH1 0x84 DUP3 ADD MSTORE ADDRESS PUSH1 0xA4 DUP1 DUP4 ADD SWAP2 SWAP1 SWAP2 MSTORE DUP2 MSTORE SWAP2 AND PUSH8 0xFFFFFFFFFFFFFFFF PUSH1 0xE0 DUP4 ADD SWAP1 DUP2 GT SWAP1 DUP4 GT OR PUSH2 0x824 JUMPI DUP2 PUSH0 SWAP3 SWAP2 PUSH1 0xE0 DUP5 SWAP4 ADD PUSH1 0x40 MSTORE DUP3 PUSH1 0x20 DUP4 MLOAD SWAP4 ADD SWAP2 GAS CALL RETURNDATASIZE ISZERO PUSH2 0x89B JUMPI RETURNDATASIZE SWAP1 PUSH8 0xFFFFFFFFFFFFFFFF DUP3 GT PUSH2 0x824 JUMPI PUSH1 0x40 MLOAD SWAP2 PUSH2 0x710 PUSH1 0x1F DUP3 ADD PUSH1 0x1F NOT AND PUSH1 0x20 ADD DUP5 PUSH2 0x9E6 JUMP JUMPDEST DUP3 MSTORE RETURNDATASIZE PUSH0 PUSH1 0x20 DUP5 ADD RETURNDATACOPY JUMPDEST ISZERO PUSH2 0x868 JUMPI PUSH1 0x20 DUP2 DUP1 MLOAD DUP2 ADD SUB SLT PUSH2 0x10E JUMPI PUSH1 0x20 ADD MLOAD PUSH1 0xC0 DUP3 ADD MLOAD DUP2 LT PUSH2 0x838 JUMPI DUP2 MLOAD PUSH0 SWAP1 DUP2 MSTORE PUSH1 0x5 PUSH1 0x20 SWAP1 DUP2 MSTORE PUSH1 0x40 SWAP2 DUP3 SWAP1 KECCAK256 PUSH1 0x4 ADD DUP1 SLOAD PUSH1 0xFF NOT AND PUSH1 0x1 OR SWAP1 SSTORE DUP4 MLOAD PUSH1 0x80 DUP6 ADD MLOAD DUP4 MLOAD PUSH1 0x1 PUSH1 0x1 PUSH1 0xA0 SHL SUB SWAP1 SWAP2 AND DUP2 MSTORE SWAP2 DUP3 ADD DUP5 SWAP1 MSTORE SWAP2 PUSH32 0x22421962BFAA39DD537A12F6E9A519F79EEA832AC6DFD20E0DC3D125C8EAC299 SWAP2 LOG2 DUP2 MLOAD PUSH4 0xFFFFFFFF PUSH1 0x40 DUP5 ADD MLOAD AND SWAP2 PUSH1 0x1 DUP1 PUSH1 0xA0 SHL SUB PUSH1 0x20 DUP6 ADD MLOAD AND SWAP4 PUSH1 0x80 PUSH1 0x1 DUP1 PUSH1 0xA0 SHL SUB SWAP2 ADD MLOAD AND SWAP1 PUSH1 0x40 MLOAD SWAP2 DUP4 PUSH1 0x20 DUP5 ADD MSTORE PUSH1 0x40 DUP4 ADD MSTORE DUP1 PUSH1 0x60 DUP4 ADD MSTORE PUSH1 0x60 DUP3 MSTORE PUSH1 0x80 DUP3 ADD SWAP2 DUP3 LT PUSH8 0xFFFFFFFFFFFFFFFF DUP4 GT OR PUSH2 0x824 JUMPI DUP2 PUSH1 0x20 SWAP2 PUSH32 0x821350DFDF24ED9AF87B5F157AAD459046DD1412DB043FC2F82F48A59D94C2E7 SWAP4 PUSH1 0x40 MSTORE DUP2 MSTORE LOG4 STOP JUMPDEST PUSH4 0x4E487B71 PUSH1 0xE0 SHL PUSH0 MSTORE PUSH1 0x41 PUSH1 0x4 MSTORE PUSH1 0x24 PUSH0 REVERT JUMPDEST PUSH1 0x40 MLOAD PUSH3 0x461BCD PUSH1 0xE5 SHL DUP2 MSTORE PUSH1 0x20 PUSH1 0x4 DUP3 ADD MSTORE PUSH1 0x8 PUSH1 0x24 DUP3 ADD MSTORE PUSH8 0x534C495050414745 PUSH1 0xC0 SHL PUSH1 0x44 DUP3 ADD MSTORE PUSH1 0x64 SWAP1 REVERT JUMPDEST PUSH1 0x40 MLOAD PUSH3 0x461BCD PUSH1 0xE5 SHL DUP2 MSTORE PUSH1 0x20 PUSH1 0x4 DUP3 ADD MSTORE PUSH1 0xB PUSH1 0x24 DUP3 ADD MSTORE PUSH11 0x14D5D05417D19052531151 PUSH1 0xAA SHL PUSH1 0x44 DUP3 ADD MSTORE PUSH1 0x64 SWAP1 REVERT JUMPDEST PUSH1 0x60 SWAP1 PUSH2 0x71A JUMP JUMPDEST PUSH1 0x20 DUP2 RETURNDATASIZE PUSH1 0x20 GT PUSH2 0x8D3 JUMPI JUMPDEST DUP2 PUSH2 0x8BC PUSH1 0x20 SWAP4 DUP4 PUSH2 0x9E6 JUMP JUMPDEST DUP2 ADD SUB SLT PUSH2 0x10E JUMPI MLOAD DUP1 ISZERO ISZERO SUB PUSH2 0x10E JUMPI DUP2 PUSH2 0x658 JUMP JUMPDEST RETURNDATASIZE SWAP2 POP PUSH2 0x8AF JUMP JUMPDEST PUSH1 0x40 MLOAD RETURNDATASIZE PUSH0 DUP3 RETURNDATACOPY RETURNDATASIZE SWAP1 REVERT JUMPDEST PUSH1 0x40 MLOAD PUSH3 0x461BCD PUSH1 0xE5 SHL DUP2 MSTORE PUSH1 0x20 PUSH1 0x4 DUP3 ADD MSTORE PUSH1 0xE PUSH1 0x24 DUP3 ADD MSTORE PUSH14 0x2AA725A727ABA72FA927AAAA22A9 PUSH1 0x91 SHL PUSH1 0x44 DUP3 ADD MSTORE PUSH1 0x64 SWAP1 REVERT JUMPDEST PUSH3 0x461BCD PUSH1 0xE5 SHL DUP2 MSTORE PUSH1 0x20 PUSH1 0x4 DUP3 ADD MSTORE PUSH1 0xF PUSH1 0x24 DUP3 ADD MSTORE PUSH15 0x494E56414C49445F41444452455353 PUSH1 0x88 SHL PUSH1 0x44 DUP3 ADD MSTORE PUSH1 0x64 SWAP1 REVERT JUMPDEST SWAP2 DUP2 PUSH1 0x1F DUP5 ADD SLT ISZERO PUSH2 0x10E JUMPI DUP3 CALLDATALOAD SWAP2 PUSH8 0xFFFFFFFFFFFFFFFF DUP4 GT PUSH2 0x10E JUMPI PUSH1 0x20 DUP4 DUP2 DUP7 ADD SWAP6 ADD ADD GT PUSH2 0x10E JUMPI JUMP JUMPDEST PUSH1 0x4 CALLDATALOAD SWAP1 PUSH4 0xFFFFFFFF DUP3 AND DUP3 SUB PUSH2 0x10E JUMPI JUMP JUMPDEST PUSH1 0x4 CALLDATALOAD SWAP1 PUSH1 0x1 PUSH1 0x1 PUSH1 0xA0 SHL SUB DUP3 AND DUP3 SUB PUSH2 0x10E JUMPI JUMP JUMPDEST CALLDATALOAD SWAP1 PUSH1 0x1 PUSH1 0x1 PUSH1 0xA0 SHL SUB DUP3 AND DUP3 SUB PUSH2 0x10E JUMPI JUMP JUMPDEST PUSH0 SLOAD PUSH1 0x1 PUSH1 0x1 PUSH1 0xA0 SHL SUB AND CALLER SUB PUSH2 0x9CE JUMPI JUMP JUMPDEST PUSH1 0x40 MLOAD PUSH4 0x118CDAA7 PUSH1 0xE0 SHL DUP2 MSTORE CALLER PUSH1 0x4 DUP3 ADD MSTORE PUSH1 0x24 SWAP1 REVERT JUMPDEST SWAP1 PUSH1 0x1F DUP1 NOT SWAP2 ADD AND DUP2 ADD SWAP1 DUP2 LT PUSH8 0xFFFFFFFFFFFFFFFF DUP3 GT OR PUSH2 0x824 JUMPI PUSH1 0x40 MSTORE JUMP JUMPDEST ISZERO PUSH2 0xA0F JUMPI JUMP JUMPDEST PUSH1 0x40 MLOAD PUSH3 0x461BCD PUSH1 0xE5 SHL DUP2 MSTORE PUSH1 0x20 PUSH1 0x4 DUP3 ADD MSTORE PUSH1 0xC PUSH1 0x24 DUP3 ADD MSTORE PUSH12 0x5A45524F5F41444452455353 PUSH1 0xA0 SHL PUSH1 0x44 DUP3 ADD MSTORE PUSH1 0x64 SWAP1 REVERT INVALID LOG2 PUSH5 0x6970667358 0x22 SLT KECCAK256 0xCD TIMESTAMP JUMPI SDIV 0xF6 0xA5 0xF9 DUP4 DUP13 0x4E LOG4 CALLVALUE DELEGATECALL 0xDC SWAP1 0xDB CALLCODE GT 0xE RETURNDATACOPY MSTORE 0x25 0xD9 0xC5 0xC6 PUSH26 0xF5798A449BF364736F6C63430008140033000000000000000000 "},"methodIdentifiers":{"arcPool()":"4dd0d436","lzEndpoint()":"b353aaa7","lzReceive(uint16,bytes,uint64,bytes)":"001d3567","owner()":"8da5cb5b","pendingExecutions(bytes32)":"32292564","remoteRouters(uint32)":"91f0bf62","renounceOwnership()":"715018a6","setArcPool(address)":"ae8a42ef","setRemoteRouter(uint32,address)":"5a64ee6a","transferOwnership(address)":"f2fde38b"}}}}}