{"project/core/LiquidityVault.sol":{"LiquidityVault":{"abi":[{"inputs":[{"internalType":"address","name":"_projectToken","type":"address"},{"internalType":"address","name":"_usdc","type":"address"},{"internalType":"address","name":"_governance","type":"address"},{"internalType":"string","name":"_name","type":"string"},{"internalType":"string","name":"_symbol","type":"string"},{"internalType":"uint24","name":"_swapFeeBps","type":"uint24"},{"internalType":"address","name":"_protocolFeeRecipient","type":"address"},{"internalType":"uint24","name":"_protocolFeeShareBps","type":"uint24"},{"internalType":"address","name":"_gateway","type":"address"}],"stateMutability":"nonpayable","type":"constructor"},{"inputs":[],"name":"DepositsPaused","type":"error"},{"inputs":[{"internalType":"address","name":"spender","type":"address"},{"internalType":"uint256","name":"allowance","type":"uint256"},{"internalType":"uint256","name":"needed","type":"uint256"}],"name":"ERC20InsufficientAllowance","type":"error"},{"inputs":[{"internalType":"address","name":"sender","type":"address"},{"internalType":"uint256","name":"balance","type":"uint256"},{"internalType":"uint256","name":"needed","type":"uint256"}],"name":"ERC20InsufficientBalance","type":"error"},{"inputs":[{"internalType":"address","name":"approver","type":"address"}],"name":"ERC20InvalidApprover","type":"error"},{"inputs":[{"internalType":"address","name":"receiver","type":"address"}],"name":"ERC20InvalidReceiver","type":"error"},{"inputs":[{"internalType":"address","name":"sender","type":"address"}],"name":"ERC20InvalidSender","type":"error"},{"inputs":[{"internalType":"address","name":"spender","type":"address"}],"name":"ERC20InvalidSpender","type":"error"},{"inputs":[],"name":"InsufficientAmount","type":"error"},{"inputs":[],"name":"InsufficientLiquidity","type":"error"},{"inputs":[],"name":"InsufficientOutput","type":"error"},{"inputs":[],"name":"InsufficientShares","type":"error"},{"inputs":[],"name":"InvalidAddress","type":"error"},{"inputs":[],"name":"InvalidRatio","type":"error"},{"inputs":[],"name":"InvalidToken","type":"error"},{"inputs":[],"name":"OnlyFactory","type":"error"},{"inputs":[],"name":"OnlyGateway","type":"error"},{"inputs":[],"name":"OnlyGovernance","type":"error"},{"inputs":[],"name":"ReentrancyGuardReentrantCall","type":"error"},{"inputs":[{"internalType":"address","name":"token","type":"address"}],"name":"SafeERC20FailedOperation","type":"error"},{"anonymous":false,"inputs":[{"indexed":true,"internalType":"address","name":"owner","type":"address"},{"indexed":true,"internalType":"address","name":"spender","type":"address"},{"indexed":false,"internalType":"uint256","name":"value","type":"uint256"}],"name":"Approval","type":"event"},{"anonymous":false,"inputs":[{"indexed":true,"internalType":"address","name":"depositor","type":"address"},{"indexed":false,"internalType":"uint256","name":"projectTokenAmount","type":"uint256"},{"indexed":false,"internalType":"uint256","name":"usdcAmount","type":"uint256"},{"indexed":false,"internalType":"uint256","name":"sharesMinted","type":"uint256"}],"name":"Deposited","type":"event"},{"anonymous":false,"inputs":[{"indexed":false,"internalType":"bool","name":"paused","type":"bool"}],"name":"DepositsPausedUpdated","type":"event"},{"anonymous":false,"inputs":[{"indexed":true,"internalType":"address","name":"previousGovernance","type":"address"},{"indexed":true,"internalType":"address","name":"newGovernance","type":"address"}],"name":"GovernanceTransferred","type":"event"},{"anonymous":false,"inputs":[{"indexed":true,"internalType":"address","name":"gateway","type":"address"},{"indexed":false,"internalType":"uint256","name":"projectTokenAmount","type":"uint256"},{"indexed":false,"internalType":"uint256","name":"usdcAmount","type":"uint256"},{"indexed":false,"internalType":"uint32","name":"destinationChain","type":"uint32"}],"name":"LiquidityAggregated","type":"event"},{"anonymous":false,"inputs":[{"indexed":false,"internalType":"uint256","name":"projectTokenMoved","type":"uint256"},{"indexed":false,"internalType":"uint256","name":"usdcMoved","type":"uint256"}],"name":"LiquidityRebalanced","type":"event"},{"anonymous":false,"inputs":[{"indexed":true,"internalType":"address","name":"gateway","type":"address"},{"indexed":false,"internalType":"uint256","name":"projectTokenAmount","type":"uint256"},{"indexed":false,"internalType":"uint256","name":"usdcAmount","type":"uint256"}],"name":"LiquidityReturned","type":"event"},{"anonymous":false,"inputs":[{"indexed":true,"internalType":"address","name":"oldStrategy","type":"address"},{"indexed":true,"internalType":"address","name":"newStrategy","type":"address"}],"name":"StrategyUpdated","type":"event"},{"anonymous":false,"inputs":[{"indexed":true,"internalType":"address","name":"sender","type":"address"},{"indexed":false,"internalType":"uint256","name":"amount0In","type":"uint256"},{"indexed":false,"internalType":"uint256","name":"amount1In","type":"uint256"},{"indexed":false,"internalType":"uint256","name":"amount0Out","type":"uint256"},{"indexed":false,"internalType":"uint256","name":"amount1Out","type":"uint256"},{"indexed":true,"internalType":"address","name":"to","type":"address"}],"name":"Swap","type":"event"},{"anonymous":false,"inputs":[{"indexed":true,"internalType":"address","name":"from","type":"address"},{"indexed":true,"internalType":"address","name":"to","type":"address"},{"indexed":false,"internalType":"uint256","name":"value","type":"uint256"}],"name":"Transfer","type":"event"},{"anonymous":false,"inputs":[{"indexed":true,"internalType":"address","name":"withdrawer","type":"address"},{"indexed":false,"internalType":"uint256","name":"sharesBurned","type":"uint256"},{"indexed":false,"internalType":"uint256","name":"projectTokenAmount","type":"uint256"},{"indexed":false,"internalType":"uint256","name":"usdcAmount","type":"uint256"}],"name":"Withdrawn","type":"event"},{"inputs":[],"name":"MIN_DEPOSIT","outputs":[{"internalType":"uint256","name":"","type":"uint256"}],"stateMutability":"view","type":"function"},{"inputs":[],"name":"acceptGovernance","outputs":[],"stateMutability":"nonpayable","type":"function"},{"inputs":[{"internalType":"address","name":"owner","type":"address"},{"internalType":"address","name":"spender","type":"address"}],"name":"allowance","outputs":[{"internalType":"uint256","name":"","type":"uint256"}],"stateMutability":"view","type":"function"},{"inputs":[{"internalType":"address","name":"spender","type":"address"},{"internalType":"uint256","name":"value","type":"uint256"}],"name":"approve","outputs":[{"internalType":"bool","name":"","type":"bool"}],"stateMutability":"nonpayable","type":"function"},{"inputs":[{"internalType":"address","name":"token","type":"address"},{"internalType":"uint256","name":"amount","type":"uint256"}],"name":"approveStrategy","outputs":[],"stateMutability":"nonpayable","type":"function"},{"inputs":[{"internalType":"address","name":"account","type":"address"}],"name":"balanceOf","outputs":[{"internalType":"uint256","name":"","type":"uint256"}],"stateMutability":"view","type":"function"},{"inputs":[],"name":"decimals","outputs":[{"internalType":"uint8","name":"","type":"uint8"}],"stateMutability":"view","type":"function"},{"inputs":[{"internalType":"uint256","name":"projectTokenAmount","type":"uint256"},{"internalType":"uint256","name":"usdcAmount","type":"uint256"},{"internalType":"uint256","name":"minShares","type":"uint256"}],"name":"deposit","outputs":[{"internalType":"uint256","name":"shares","type":"uint256"}],"stateMutability":"nonpayable","type":"function"},{"inputs":[],"name":"depositsPaused","outputs":[{"internalType":"bool","name":"","type":"bool"}],"stateMutability":"view","type":"function"},{"inputs":[],"name":"factory","outputs":[{"internalType":"address","name":"","type":"address"}],"stateMutability":"view","type":"function"},{"inputs":[],"name":"gateway","outputs":[{"internalType":"address","name":"","type":"address"}],"stateMutability":"view","type":"function"},{"inputs":[],"name":"getReserves","outputs":[{"internalType":"uint256","name":"projectTokenReserve","type":"uint256"},{"internalType":"uint256","name":"usdcReserve","type":"uint256"}],"stateMutability":"view","type":"function"},{"inputs":[],"name":"getTokens","outputs":[{"internalType":"address","name":"token0","type":"address"},{"internalType":"address","name":"token1","type":"address"}],"stateMutability":"view","type":"function"},{"inputs":[],"name":"governance","outputs":[{"internalType":"address","name":"","type":"address"}],"stateMutability":"view","type":"function"},{"inputs":[],"name":"name","outputs":[{"internalType":"string","name":"","type":"string"}],"stateMutability":"view","type":"function"},{"inputs":[],"name":"pendingGovernance","outputs":[{"internalType":"address","name":"","type":"address"}],"stateMutability":"view","type":"function"},{"inputs":[{"internalType":"uint256","name":"shares","type":"uint256"}],"name":"previewWithdraw","outputs":[{"internalType":"uint256","name":"projectTokenAmount","type":"uint256"},{"internalType":"uint256","name":"usdcAmount","type":"uint256"}],"stateMutability":"view","type":"function"},{"inputs":[],"name":"projectToken","outputs":[{"internalType":"address","name":"","type":"address"}],"stateMutability":"view","type":"function"},{"inputs":[],"name":"protocolFeeRecipient","outputs":[{"internalType":"address","name":"","type":"address"}],"stateMutability":"view","type":"function"},{"inputs":[],"name":"protocolFeeShareBps","outputs":[{"internalType":"uint24","name":"","type":"uint24"}],"stateMutability":"view","type":"function"},{"inputs":[{"internalType":"bytes","name":"data","type":"bytes"}],"name":"rebalance","outputs":[{"internalType":"bytes","name":"","type":"bytes"}],"stateMutability":"nonpayable","type":"function"},{"inputs":[{"internalType":"uint256","name":"projectTokenAmount","type":"uint256"},{"internalType":"uint256","name":"usdcAmount","type":"uint256"}],"name":"returnLiquidity","outputs":[],"stateMutability":"nonpayable","type":"function"},{"inputs":[{"internalType":"bool","name":"paused","type":"bool"}],"name":"setDepositsPaused","outputs":[],"stateMutability":"nonpayable","type":"function"},{"inputs":[{"internalType":"address","name":"newStrategy","type":"address"}],"name":"setStrategy","outputs":[],"stateMutability":"nonpayable","type":"function"},{"inputs":[{"internalType":"uint256","name":"shares","type":"uint256"}],"name":"shareValue","outputs":[{"internalType":"uint256","name":"value0","type":"uint256"},{"internalType":"uint256","name":"value1","type":"uint256"}],"stateMutability":"view","type":"function"},{"inputs":[],"name":"strategy","outputs":[{"internalType":"address","name":"","type":"address"}],"stateMutability":"view","type":"function"},{"inputs":[{"internalType":"address","name":"tokenIn","type":"address"},{"internalType":"uint256","name":"amountIn","type":"uint256"},{"internalType":"uint256","name":"amountOutMin","type":"uint256"},{"internalType":"address","name":"to","type":"address"}],"name":"swap","outputs":[{"internalType":"uint256","name":"amountOut","type":"uint256"}],"stateMutability":"nonpayable","type":"function"},{"inputs":[],"name":"swapFeeBps","outputs":[{"internalType":"uint24","name":"","type":"uint24"}],"stateMutability":"view","type":"function"},{"inputs":[],"name":"symbol","outputs":[{"internalType":"string","name":"","type":"string"}],"stateMutability":"view","type":"function"},{"inputs":[],"name":"totalProjectToken","outputs":[{"internalType":"uint256","name":"","type":"uint256"}],"stateMutability":"view","type":"function"},{"inputs":[],"name":"totalSupply","outputs":[{"internalType":"uint256","name":"","type":"uint256"}],"stateMutability":"view","type":"function"},{"inputs":[],"name":"totalUSDC","outputs":[{"internalType":"uint256","name":"","type":"uint256"}],"stateMutability":"view","type":"function"},{"inputs":[{"internalType":"address","name":"to","type":"address"},{"internalType":"uint256","name":"value","type":"uint256"}],"name":"transfer","outputs":[{"internalType":"bool","name":"","type":"bool"}],"stateMutability":"nonpayable","type":"function"},{"inputs":[{"internalType":"address","name":"from","type":"address"},{"internalType":"address","name":"to","type":"address"},{"internalType":"uint256","name":"value","type":"uint256"}],"name":"transferFrom","outputs":[{"internalType":"bool","name":"","type":"bool"}],"stateMutability":"nonpayable","type":"function"},{"inputs":[{"internalType":"address","name":"newGovernance","type":"address"}],"name":"transferGovernance","outputs":[],"stateMutability":"nonpayable","type":"function"},{"inputs":[],"name":"usdc","outputs":[{"internalType":"address","name":"","type":"address"}],"stateMutability":"view","type":"function"},{"inputs":[{"internalType":"uint256","name":"shares","type":"uint256"},{"internalType":"uint256","name":"minProjectToken","type":"uint256"},{"internalType":"uint256","name":"minUsdc","type":"uint256"}],"name":"withdraw","outputs":[{"internalType":"uint256","name":"projectTokenAmount","type":"uint256"},{"internalType":"uint256","name":"usdcAmount","type":"uint256"}],"stateMutability":"nonpayable","type":"function"},{"inputs":[{"internalType":"uint32","name":"destinationChain","type":"uint32"}],"name":"withdrawForAggregation","outputs":[{"internalType":"uint256","name":"projectTokenAmount","type":"uint256"},{"internalType":"uint256","name":"usdcAmount","type":"uint256"}],"stateMutability":"nonpayable","type":"function"}],"evm":{"bytecode":{"linkReferences":{},"object":"60406101608152346200056d57620024eb9081380380620000208162000571565b93843982016101209182848303126200056d576200003e8462000597565b916020926200004f84870162000597565b906200005d84880162000597565b60608801516001600160401b039691908781116200056d578562000083918b01620005ac565b9460808a0151908882116200056d576200009f918b01620005ac565b93620000ae60a08b016200061c565b93620000bd60c08c0162000597565b95620000cc60e08d016200061c565b97620000dd610100809e0162000597565b9a815181811162000473576003908154906001948583811c9316801562000562575b8b8410146200054e5781908b601f94858111620004f8575b50508b9084831160011462000493575f9262000487575b50505f1982851b1c191690851b1782555b8451928311620004735760049485548581811c9116801562000468575b8b82101462000455579081838695949311620003fe575b508a91841160011462000397575f936200038b575b505082841b925f19911b1c19161782555b6005556001600160a01b039482861615801562000380575b801562000375575b620003665761271062ffffff81818a16101562000334578a1611620002f257505060805260a0521660018060a01b031960065416176006553360c05260e052855283526101409182525191611ebd93846200062e85396080518481816101fd015281816107c401528181610add01528181610c7701528181610f9f0152818161113c015281816112f10152818161145a01526119b9015260a051848181610255015281816105ea0152818161081201528181610b0201528181610ca101528181610f6a015281816112b3015281816113350152818161141501526119e5015260c05184610727015260e0518481816102b301526115430152518381816102f8015281816104b9015261106601525182818161051b015281816105550152610ff6015251818181610eca0152818161137f01526117740152f35b895162461bcd60e51b815291820152601760248201527f50524f544f434f4c5f53484152455f544f4f5f48494748000000000000000000604482015260649150fd5b8b5162461bcd60e51b8152808501849052600c60248201526b08c8a8abea89e9ebe90928e960a31b6044820152606490fd5b50885163e6c4247b60e01b8152fd5b5085851615620001b9565b5085841615620001b1565b015191505f8062000188565b9190859450601f19841692875f528b5f20935f5b8d828210620003e75750508511620003cd575b50505050811b01825562000199565b01519060f8845f19921b161c191690555f808080620003be565b8385015187558998909601959384019301620003ab565b9091929350865f528a5f208380870160051c8201928d88106200044b575b9188918897969594930160051c01915b8281106200043c57505062000173565b5f81558796508891016200042c565b925081926200041c565b602287634e487b7160e01b5f525260245ffd5b90607f16906200015c565b634e487b7160e01b5f52604160045260245ffd5b015190505f806200012e565b5f8681528d8120899550929190601f198516908f5b828210620004e05750508411620004c8575b505050811b0182556200013f565b01515f1983871b60f8161c191690555f8080620004ba565b8385015186558b979095019493840193018f620004a8565b90919250855f5284825f209181860160051c830193861062000544575b918991869594930160051c01915b8281106200053557508d915062000117565b5f815585945089910162000523565b9250819262000515565b634e487b7160e01b5f52602260045260245ffd5b92607f1692620000ff565b5f80fd5b6040519190601f01601f191682016001600160401b038111838210176200047357604052565b51906001600160a01b03821682036200056d57565b919080601f840112156200056d5782516001600160401b0381116200047357602090620005e2601f8201601f1916830162000571565b928184528282870101116200056d575f5b818110620006085750825f9394955001015290565b8581018301518482018401528201620005f3565b519062ffffff821682036200056d5756fe60806040526004361015610011575f80fd5b5f3560e01c8062aeef8a1461192557806306fdde03146118675780630902f1ac14611843578063095ea7b3146117c15780630a28a477146117a3578063116191b61461175f57806318160ddd146117425780631c481e2d146116d65780631dec1515146116b9578063238efcbc1461165157806323b872dd146115675780632ffdaf8914611528578063313ce5671461150d57806333a100ca1461149b578063379bc380146113645780633e413bee146113205780634b60ce77146112dc5780634cc15d64146110fc57806354d18864146110df5780635aa6e675146110b757806360da3e831461109557806364df049e1461105157806370a082311461101a5780639040f86614610fdb57806394fc8a7d14610e9e57806395d89b4114610d97578063974d8c9314610d6d578063a41fe49f14610b82578063a8c62e7614610b5a578063a9059cbb14610b29578063aa6ca80814610abf578063b269add314610756578063c45a015514610712578063d38bfff4146106af578063dd62ed3e14610662578063e1e158a514610646578063f39c38a01461061e5763f3e6ea8a146101ba575f80fd5b3461061a57608036600319011261061a576101d3611bc1565b606435906001600160a01b038216820361061a576101ef611dad565b6001600160a01b03908116917f0000000000000000000000000000000000000000000000000000000000000000918216831415806105e7575b6105d5576001600160a01b038116156105c357602435156105b1576001600160a01b03821683036105aa577f0000000000000000000000000000000000000000000000000000000000000000925b6001600160a01b03831681036105a157600954925b6001600160a01b038116820361059857600a54935b80158015610590575b61046f5762ffffff7f00000000000000000000000000000000000000000000000000000000000000001661271003612710811161057c576102ef61271091602435611cc7565b5f9691900491907f00000000000000000000000000000000000000000000000000000000000000006001600160a01b031615158061054e575b6104f6575b906103458361033f61034b9482611cc7565b92611cba565b90611cda565b9460443586106104e45785156104e457610369602435303387611cf8565b806104b3575b506001600160a01b03821683036104815761038c90600954611cba565b6009558361039c81600a54611dd0565b80600a551061046f576103bc84846020975b6001600160a01b0316611ddd565b6001600160a01b031603610421576040519060243582525f848301525f604083015282606083015260018060a01b0316907fd78ad95fa46c994b6551d0da85fc275fe613ce37657fb8d5e3d130840159d82260803392a35b6001600555604051908152f35b604051905f8252602435848301528260408301525f606083015260018060a01b0316907fd78ad95fa46c994b6551d0da85fc275fe613ce37657fb8d5e3d130840159d82260803392a3610414565b60405163bb55fd2760e01b8152600490fd5b61048d90600a54611cba565b600a558361049d81600954611dd0565b806009551061046f576103bc84846020976103ae565b6104de907f000000000000000000000000000000000000000000000000000000000000000085611ddd565b5f61036f565b60405163bb2875c360e01b8152600490fd5b955061034b906103458361033f61271061054161051584602435611dd0565b62ffffff7f00000000000000000000000000000000000000000000000000000000000000001690611cc7565b049993945050505061032d565b5062ffffff7f0000000000000000000000000000000000000000000000000000000000000000161515610328565b634e487b7160e01b5f52601160045260245ffd5b5084156102a9565b600954936102a0565b600a549261028b565b8192610276565b604051632ca2f52b60e11b8152600490fd5b60405163e6c4247b60e01b8152600490fd5b60405163c1ab6dc160e01b8152600490fd5b507f00000000000000000000000000000000000000000000000000000000000000006001600160a01b0316831415610228565b5f80fd5b3461061a575f36600319011261061a576007546040516001600160a01b039091168152602090f35b3461061a575f36600319011261061a5760206040516103e88152f35b3461061a57604036600319011261061a5761067b611bc1565b610683611bd7565b9060018060a01b038091165f52600160205260405f2091165f52602052602060405f2054604051908152f35b3461061a57602036600319011261061a576106c8611bc1565b6006546001600160a01b03919082163303610700571680156105c3576bffffffffffffffffffffffff60a01b60075416176007555f80f35b6040516354348f0360e01b8152600490fd5b3461061a575f36600319011261061a576040517f00000000000000000000000000000000000000000000000000000000000000006001600160a01b03168152602090f35b3461061a5760208060031936011261061a5767ffffffffffffffff9060043582811161061a573660238201121561061a57806004013583811161061a576024913683838301011161061a576006546001600160a01b0390811633036107005780600854169081156105c357807f000000000000000000000000000000000000000000000000000000000000000016604051926370a0823160e01b9283855230600486015288858981865afa9485156109c4575f95610a90575b507f000000000000000000000000000000000000000000000000000000000000000016946040519084825230600483015289828a818a5afa9788156109c45789925f99610a57575b50915f809492848295604051948593018337810182815203925af13d15610a4e573d988911610a3b5760405198610897601f8201601f19168a018b611bed565b89523d5f898b013e5b15610a005790868692604051938480928582523060048301525afa9586156109c45787925f976109cf575b506040518095819382523060048301525afa9182156109c4575f92610973575b509083604093927f8f9497c27f572ff1a65e8b2c7a0706d466466ae0b5efc78462b5f0021da669569560095582600a558082115f1461096a5761092d91611dd0565b915b808211156109625761094091611dd0565b825191825284820152a161095e604051928284938452830190611b83565b0390f35b50505f610940565b50505f9161092f565b9291508483813d83116109bd575b61098b8183611bed565b8101031261061a57915190917f8f9497c27f572ff1a65e8b2c7a0706d466466ae0b5efc78462b5f0021da669566108eb565b503d610981565b6040513d5f823e3d90fd5b8381949298503d83116109f9575b6109e78183611bed565b8101031261061a5786915195896108cb565b503d6109dd565b60405162461bcd60e51b8152600481018890526014818801527314dd1c985d1959de4818d85b1b0819985a5b195960621b6044820152606490fd5b86634e487b7160e01b5f5260416004525ffd5b606098506108a0565b8b80929a508194509492943d8311610a89575b610a748183611bed565b8101031261061a57905196909188915f610857565b503d610a6a565b9094508881813d8311610ab8575b610aa88183611bed565b8101031261061a5751938a61080f565b503d610a9e565b3461061a575f36600319011261061a57604080516001600160a01b037f0000000000000000000000000000000000000000000000000000000000000000811682527f0000000000000000000000000000000000000000000000000000000000000000166020820152f35b3461061a57604036600319011261061a57610b4f610b45611bc1565b6024359033611c0f565b602060405160018152f35b3461061a575f36600319011261061a576008546040516001600160a01b039091168152602090f35b3461061a57610b9036611b69565b90610b99611dad565b82156105b157335f525f6020528260405f205410610d5b57600254600954610bca82610bc58388611cc7565b611cda565b93610bdc600a5493610bc58589611cc7565b938510908115610d51575b506105b157610c0391610bfb858593611dd0565b600955611dd0565b600a553315610d3957335f525f60205260405f2054838110610d12579280604094335f525f60205203845f205580600254036002555f84518281527fddf252ad1be2c89b69c2b068fc378daa952ba7f163c4a11628f55a4df523b3ef60203392a3610cc6826001600160a01b03610c9d86337f00000000000000000000000000000000000000000000000000000000000000008416611ddd565b33907f000000000000000000000000000000000000000000000000000000000000000016611ddd565b8351908152602081018390526040810182905233907f75e161b3e824b114fc1a33274bd7091918dd4e639cede50b78b15a4eea956a2190606090a2600160055582519182526020820152f35b60405163391434e360e21b8152336004820152602481019190915260448101849052606490fd5b604051634b637e8f60e11b81525f6004820152602490fd5b9050831086610be7565b604051633999656760e01b8152600490fd5b3461061a57602036600319011261061a576040610d8b600435611e5e565b82519182526020820152f35b3461061a575f36600319011261061a576040515f60045490600182811c91818416918215610e94575b6020948585108414610e805785879486865291825f14610e60575050600114610e05575b50610df192500383611bed565b61095e604051928284938452830190611b83565b84915060045f527f8a35acfbc15ff81a39ae7d344fd709f28e8600b4aa8c65c6b64bfe7fe36bd19b905f915b858310610e48575050610df1935082010185610de4565b80548389018501528794508693909201918101610e31565b60ff191685820152610df195151560051b8501019250879150610de49050565b634e487b7160e01b5f52602260045260245ffd5b92607f1692610dc0565b3461061a57602036600319011261061a5760043563ffffffff811680910361061a576001600160a01b037f000000000000000000000000000000000000000000000000000000000000000081811633819003610fc9577f98445114b15007b3103aa94acbe3ce1435b8ef5cfcf78021cc9cd75c747656106060604095610f22611dad565b60095495600a54809688610f97575b81610f64575b5050505f6009555f600a5586519086825285602083015287820152a2600160055582519182526020820152f35b610f8f927f000000000000000000000000000000000000000000000000000000000000000016611ddd565b878581610f37565b610fc48982857f000000000000000000000000000000000000000000000000000000000000000016611ddd565b610f31565b60405163ec76af1360e01b8152600490fd5b3461061a575f36600319011261061a57602060405162ffffff7f0000000000000000000000000000000000000000000000000000000000000000168152f35b3461061a57602036600319011261061a576001600160a01b0361103b611bc1565b165f525f602052602060405f2054604051908152f35b3461061a575f36600319011261061a576040517f00000000000000000000000000000000000000000000000000000000000000006001600160a01b03168152602090f35b3461061a575f36600319011261061a57602060ff600b54166040519015158152f35b3461061a575f36600319011261061a576006546040516001600160a01b039091168152602090f35b3461061a575f36600319011261061a576020600954604051908152f35b3461061a57604036600319011261061a57611115611bc1565b6006546001600160a01b039190821633036107005781600854169081156105c357821691807f00000000000000000000000000000000000000000000000000000000000000001683141590816112af575b506105c357604051636eb1769f60e11b81523060048201526001600160a01b0382166024820152602092908381604481855afa80156109c4575f90611280575b6111b4915060243590611cba565b60405163095ea7b360e01b8582018181526001600160a01b038616602484015260448084019490945292825290939185905f906111f2606488611bed565b86519082875af15f513d82611264575b50501561120b57005b6040519485015260248401525f6044840152604483526080830183811067ffffffffffffffff8211176112505761124e936112499160405282611d53565b611d53565b005b634e487b7160e01b5f52604160045260245ffd5b9091506112785750823b15155b8680611202565b600114611271565b508381813d83116112a8575b6112968183611bed565b8101031261061a576111b490516111a6565b503d61128c565b90507f00000000000000000000000000000000000000000000000000000000000000001682141583611166565b3461061a575f36600319011261061a576040517f00000000000000000000000000000000000000000000000000000000000000006001600160a01b03168152602090f35b3461061a575f36600319011261061a576040517f00000000000000000000000000000000000000000000000000000000000000006001600160a01b03168152602090f35b3461061a57604036600319011261061a576001600160a01b037f00000000000000000000000000000000000000000000000000000000000000008181169160043560243533859003610fc9576113b8611dad565b8115938480611493575b6105b157816040947f19948ff51817cfffb4bea90377e4e0856548543989f12da0067581324ea4ad099615611451575b8161140d575b50505082519182526020820152a26001600555005b61143a9230917f000000000000000000000000000000000000000000000000000000000000000016611cf8565b61144681600a54611cba565b600a558581816113f8565b61147f853085847f000000000000000000000000000000000000000000000000000000000000000016611cf8565b61148b85600954611cba565b6009556113f2565b5081156113c2565b3461061a57602036600319011261061a576114b4611bc1565b6006546001600160a01b0390811633036107005780600854921691826bffffffffffffffffffffffff60a01b821617600855167fe4cec16b1a7e6b7979e923da619a8b1e5fd0f0fb6e5c1cf647f350430ee61ca95f80a3005b3461061a575f36600319011261061a57602060405160128152f35b3461061a575f36600319011261061a57602060405162ffffff7f0000000000000000000000000000000000000000000000000000000000000000168152f35b3461061a57606036600319011261061a57611580611bc1565b611588611bd7565b6001600160a01b0382165f8181526001602090815260408083203384529091529020549260443592915f1985106115c5575b50610b4f9350611c0f565b83851061162b5780156116135733156115fb57610b4f9484915f52600160205260405f20335f526020520360405f2055846115ba565b604051634a1406b160e11b81525f6004820152602490fd5b60405163e602df0560e01b81525f6004820152602490fd5b604051637dc7a0d960e11b81523360048201526024810186905260448101859052606490fd5b3461061a575f36600319011261061a576007546001600160a01b03808216913383900361070057600680546001600160a01b031980821686179092559116600755167f5f56bee8cffbe9a78652a74a60705edede02af10b0bbb888ca44b79a0d42ce805f80a3005b3461061a575f36600319011261061a576020600a54604051908152f35b3461061a57602036600319011261061a5760043580151580910361061a576006546001600160a01b031633036107005760207f9723f28d4abaff5df0f62bfb2418f2aac4a739b259edf209b8dc9944fa85aa789160ff19600b541660ff821617600b55604051908152a1005b3461061a575f36600319011261061a576020600254604051908152f35b3461061a575f36600319011261061a576040517f00000000000000000000000000000000000000000000000000000000000000006001600160a01b03168152602090f35b3461061a57602036600319011261061a576040610d8b600435611e19565b3461061a57604036600319011261061a576117da611bc1565b602435903315611613576001600160a01b03169081156115fb57335f52600160205260405f20825f526020528060405f20556040519081527f8c5be1e5ebec7d5bd14f71427d1e84f3dd0314c0f7b2291e5b200ac8c7c3b92560203392a3602060405160018152f35b3461061a575f36600319011261061a576040600954600a5482519182526020820152f35b3461061a575f36600319011261061a576040515f60035490600182811c9181841691821561191b575b6020948585108414610e805785879486865291825f14610e605750506001146118c05750610df192500383611bed565b84915060035f527fc2575a0e9e593c00f959f8c92f12db2869c3395a3b0502d05e2516446f71f85b905f915b858310611903575050610df1935082010185610de4565b805483890185015287945086939092019181016118ec565b92607f1692611890565b3461061a5761193336611b69565b909161193d611dad565b60ff600b5416611b57576103e8808210908115611b4d575b506105b15760025480611b0a575061196d8382611cc7565b915f6003841115611afb57508260019080821c82810180911161057c5791905b858310611adb575050505b82156105b1575b8210610d5b57611a0a836001600160a01b036119df8430337f00000000000000000000000000000000000000000000000000000000000000008516611cf8565b309033907f000000000000000000000000000000000000000000000000000000000000000016611cf8565b611a1681600954611cba565b600955611a2583600a54611cba565b600a553315611ac3577f91ede45f04a37a7c170f5c1207df3b6bc748dc1e04ad5e917a241d0f52feada382602094611a5f82600254611cba565b600255335f525f865260405f208281540190556040518281525f7fddf252ad1be2c89b69c2b068fc378daa952ba7f163c4a11628f55a4df523b3ef883393a36040805194855260208501919091528301523391606090a26001600555604051908152f35b60405163ec442f0560e01b81525f6004820152602490fd5b90919450611af285611aed8184611cda565b611cba565b821c919061198d565b92156119985760019250611998565b611b36611b2d611b26611b1d8486611cc7565b60095490611cda565b9286611cc7565b600a5490611cda565b80821015611b4657505b9161199f565b9050611b40565b9050831084611955565b60405163deeb694360e01b8152600490fd5b606090600319011261061a57600435906024359060443590565b91908251928382525f5b848110611bad575050825f602080949584010152601f8019910116010190565b602081830181015184830182015201611b8d565b600435906001600160a01b038216820361061a57565b602435906001600160a01b038216820361061a57565b90601f8019910116810190811067ffffffffffffffff82111761125057604052565b916001600160a01b03808416928315610d395716928315611ac3575f9083825281602052604082205490838210611c88575091604082827fddf252ad1be2c89b69c2b068fc378daa952ba7f163c4a11628f55a4df523b3ef958760209652828652038282205586815220818154019055604051908152a3565b60405163391434e360e21b81526001600160a01b03919091166004820152602481019190915260448101839052606490fd5b9190820180921161057c57565b8181029291811591840414171561057c57565b8115611ce4570490565b634e487b7160e01b5f52601260045260245ffd5b6040516323b872dd60e01b60208201526001600160a01b03928316602482015292909116604483015260648083019390935291815260a081019181831067ffffffffffffffff84111761125057611d5192604052611d53565b565b905f602091828151910182855af1156109c4575f513d611da457506001600160a01b0381163b155b611d825750565b604051635274afe760e01b81526001600160a01b039091166004820152602490fd5b60011415611d7b565b600260055414611dbe576002600555565b604051633ee5aeb560e01b8152600490fd5b9190820391821161057c57565b60405163a9059cbb60e01b60208201526001600160a01b03929092166024830152604480830193909352918152611d5191611249606483611bed565b9081158015611e54575b611e4d57611e4a600254610bc5611e4082610bc560095488611cc7565b94600a5490611cc7565b90565b5f91508190565b5060025415611e23565b906002548015611e7f5780610bc5611e40611e4a93610bc560095488611cc7565b505f9150819056fea2646970667358221220b347d04fcac7b3cc8f05e3ad162be192323618f6b336e8a0b8361e91e996393f64736f6c63430008140033","opcodes":"PUSH1 0x40 PUSH2 0x160 DUP2 MSTORE CALLVALUE PUSH3 0x56D JUMPI PUSH3 0x24EB SWAP1 DUP2 CODESIZE SUB DUP1 PUSH3 0x20 DUP2 PUSH3 0x571 JUMP JUMPDEST SWAP4 DUP5 CODECOPY DUP3 ADD PUSH2 0x120 SWAP2 DUP3 DUP5 DUP4 SUB SLT PUSH3 0x56D JUMPI PUSH3 0x3E DUP5 PUSH3 0x597 JUMP JUMPDEST SWAP2 PUSH1 0x20 SWAP3 PUSH3 0x4F DUP5 DUP8 ADD PUSH3 0x597 JUMP JUMPDEST SWAP1 PUSH3 0x5D DUP5 DUP9 ADD PUSH3 0x597 JUMP JUMPDEST PUSH1 0x60 DUP9 ADD MLOAD PUSH1 0x1 PUSH1 0x1 PUSH1 0x40 SHL SUB SWAP7 SWAP2 SWAP1 DUP8 DUP2 GT PUSH3 0x56D JUMPI DUP6 PUSH3 0x83 SWAP2 DUP12 ADD PUSH3 0x5AC JUMP JUMPDEST SWAP5 PUSH1 0x80 DUP11 ADD MLOAD SWAP1 DUP9 DUP3 GT PUSH3 0x56D JUMPI PUSH3 0x9F SWAP2 DUP12 ADD PUSH3 0x5AC JUMP JUMPDEST SWAP4 PUSH3 0xAE PUSH1 0xA0 DUP12 ADD PUSH3 0x61C JUMP JUMPDEST SWAP4 PUSH3 0xBD PUSH1 0xC0 DUP13 ADD PUSH3 0x597 JUMP JUMPDEST SWAP6 PUSH3 0xCC PUSH1 0xE0 DUP14 ADD PUSH3 0x61C JUMP JUMPDEST SWAP8 PUSH3 0xDD PUSH2 0x100 DUP1 SWAP15 ADD PUSH3 0x597 JUMP JUMPDEST SWAP11 DUP2 MLOAD DUP2 DUP2 GT PUSH3 0x473 JUMPI PUSH1 0x3 SWAP1 DUP2 SLOAD SWAP1 PUSH1 0x1 SWAP5 DUP6 DUP4 DUP2 SHR SWAP4 AND DUP1 ISZERO PUSH3 0x562 JUMPI JUMPDEST DUP12 DUP5 LT EQ PUSH3 0x54E JUMPI DUP2 SWAP1 DUP12 PUSH1 0x1F SWAP5 DUP6 DUP2 GT PUSH3 0x4F8 JUMPI JUMPDEST POP POP DUP12 SWAP1 DUP5 DUP4 GT PUSH1 0x1 EQ PUSH3 0x493 JUMPI PUSH0 SWAP3 PUSH3 0x487 JUMPI JUMPDEST POP POP PUSH0 NOT DUP3 DUP6 SHL SHR NOT AND SWAP1 DUP6 SHL OR DUP3 SSTORE JUMPDEST DUP5 MLOAD SWAP3 DUP4 GT PUSH3 0x473 JUMPI PUSH1 0x4 SWAP5 DUP6 SLOAD DUP6 DUP2 DUP2 SHR SWAP2 AND DUP1 ISZERO PUSH3 0x468 JUMPI JUMPDEST DUP12 DUP3 LT EQ PUSH3 0x455 JUMPI SWAP1 DUP2 DUP4 DUP7 SWAP6 SWAP5 SWAP4 GT PUSH3 0x3FE JUMPI JUMPDEST POP DUP11 SWAP2 DUP5 GT PUSH1 0x1 EQ PUSH3 0x397 JUMPI PUSH0 SWAP4 PUSH3 0x38B JUMPI JUMPDEST POP POP DUP3 DUP5 SHL SWAP3 PUSH0 NOT SWAP2 SHL SHR NOT AND OR DUP3 SSTORE JUMPDEST PUSH1 0x5 SSTORE PUSH1 0x1 PUSH1 0x1 PUSH1 0xA0 SHL SUB SWAP5 DUP3 DUP7 AND ISZERO DUP1 ISZERO PUSH3 0x380 JUMPI JUMPDEST DUP1 ISZERO PUSH3 0x375 JUMPI JUMPDEST PUSH3 0x366 JUMPI PUSH2 0x2710 PUSH3 0xFFFFFF DUP2 DUP2 DUP11 AND LT ISZERO PUSH3 0x334 JUMPI DUP11 AND GT PUSH3 0x2F2 JUMPI POP POP PUSH1 0x80 MSTORE PUSH1 0xA0 MSTORE AND PUSH1 0x1 DUP1 PUSH1 0xA0 SHL SUB NOT PUSH1 0x6 SLOAD AND OR PUSH1 0x6 SSTORE CALLER PUSH1 0xC0 MSTORE PUSH1 0xE0 MSTORE DUP6 MSTORE DUP4 MSTORE PUSH2 0x140 SWAP2 DUP3 MSTORE MLOAD SWAP2 PUSH2 0x1EBD SWAP4 DUP5 PUSH3 0x62E DUP6 CODECOPY PUSH1 0x80 MLOAD DUP5 DUP2 DUP2 PUSH2 0x1FD ADD MSTORE DUP2 DUP2 PUSH2 0x7C4 ADD MSTORE DUP2 DUP2 PUSH2 0xADD ADD MSTORE DUP2 DUP2 PUSH2 0xC77 ADD MSTORE DUP2 DUP2 PUSH2 0xF9F ADD MSTORE DUP2 DUP2 PUSH2 0x113C ADD MSTORE DUP2 DUP2 PUSH2 0x12F1 ADD MSTORE DUP2 DUP2 PUSH2 0x145A ADD MSTORE PUSH2 0x19B9 ADD MSTORE PUSH1 0xA0 MLOAD DUP5 DUP2 DUP2 PUSH2 0x255 ADD MSTORE DUP2 DUP2 PUSH2 0x5EA ADD MSTORE DUP2 DUP2 PUSH2 0x812 ADD MSTORE DUP2 DUP2 PUSH2 0xB02 ADD MSTORE DUP2 DUP2 PUSH2 0xCA1 ADD MSTORE DUP2 DUP2 PUSH2 0xF6A ADD MSTORE DUP2 DUP2 PUSH2 0x12B3 ADD MSTORE DUP2 DUP2 PUSH2 0x1335 ADD MSTORE DUP2 DUP2 PUSH2 0x1415 ADD MSTORE PUSH2 0x19E5 ADD MSTORE PUSH1 0xC0 MLOAD DUP5 PUSH2 0x727 ADD MSTORE PUSH1 0xE0 MLOAD DUP5 DUP2 DUP2 PUSH2 0x2B3 ADD MSTORE PUSH2 0x1543 ADD MSTORE MLOAD DUP4 DUP2 DUP2 PUSH2 0x2F8 ADD MSTORE DUP2 DUP2 PUSH2 0x4B9 ADD MSTORE PUSH2 0x1066 ADD MSTORE MLOAD DUP3 DUP2 DUP2 PUSH2 0x51B ADD MSTORE DUP2 DUP2 PUSH2 0x555 ADD MSTORE PUSH2 0xFF6 ADD MSTORE MLOAD DUP2 DUP2 DUP2 PUSH2 0xECA ADD MSTORE DUP2 DUP2 PUSH2 0x137F ADD MSTORE PUSH2 0x1774 ADD MSTORE RETURN JUMPDEST DUP10 MLOAD PUSH3 0x461BCD PUSH1 0xE5 SHL DUP2 MSTORE SWAP2 DUP3 ADD MSTORE PUSH1 0x17 PUSH1 0x24 DUP3 ADD MSTORE PUSH32 0x50524F544F434F4C5F53484152455F544F4F5F48494748000000000000000000 PUSH1 0x44 DUP3 ADD MSTORE PUSH1 0x64 SWAP2 POP REVERT JUMPDEST DUP12 MLOAD PUSH3 0x461BCD PUSH1 0xE5 SHL DUP2 MSTORE DUP1 DUP6 ADD DUP5 SWAP1 MSTORE PUSH1 0xC PUSH1 0x24 DUP3 ADD MSTORE PUSH12 0x8C8A8ABEA89E9EBE90928E9 PUSH1 0xA3 SHL PUSH1 0x44 DUP3 ADD MSTORE PUSH1 0x64 SWAP1 REVERT JUMPDEST POP DUP9 MLOAD PUSH4 0xE6C4247B PUSH1 0xE0 SHL DUP2 MSTORE REVERT JUMPDEST POP DUP6 DUP6 AND ISZERO PUSH3 0x1B9 JUMP JUMPDEST POP DUP6 DUP5 AND ISZERO PUSH3 0x1B1 JUMP JUMPDEST ADD MLOAD SWAP2 POP PUSH0 DUP1 PUSH3 0x188 JUMP JUMPDEST SWAP2 SWAP1 DUP6 SWAP5 POP PUSH1 0x1F NOT DUP5 AND SWAP3 DUP8 PUSH0 MSTORE DUP12 PUSH0 KECCAK256 SWAP4 PUSH0 JUMPDEST DUP14 DUP3 DUP3 LT PUSH3 0x3E7 JUMPI POP POP DUP6 GT PUSH3 0x3CD JUMPI JUMPDEST POP POP POP POP DUP2 SHL ADD DUP3 SSTORE PUSH3 0x199 JUMP JUMPDEST ADD MLOAD SWAP1 PUSH1 0xF8 DUP5 PUSH0 NOT SWAP3 SHL AND SHR NOT AND SWAP1 SSTORE PUSH0 DUP1 DUP1 DUP1 PUSH3 0x3BE JUMP JUMPDEST DUP4 DUP6 ADD MLOAD DUP8 SSTORE DUP10 SWAP9 SWAP1 SWAP7 ADD SWAP6 SWAP4 DUP5 ADD SWAP4 ADD PUSH3 0x3AB JUMP JUMPDEST SWAP1 SWAP2 SWAP3 SWAP4 POP DUP7 PUSH0 MSTORE DUP11 PUSH0 KECCAK256 DUP4 DUP1 DUP8 ADD PUSH1 0x5 SHR DUP3 ADD SWAP3 DUP14 DUP9 LT PUSH3 0x44B JUMPI JUMPDEST SWAP2 DUP9 SWAP2 DUP9 SWAP8 SWAP7 SWAP6 SWAP5 SWAP4 ADD PUSH1 0x5 SHR ADD SWAP2 JUMPDEST DUP3 DUP2 LT PUSH3 0x43C JUMPI POP POP PUSH3 0x173 JUMP JUMPDEST PUSH0 DUP2 SSTORE DUP8 SWAP7 POP DUP9 SWAP2 ADD PUSH3 0x42C JUMP JUMPDEST SWAP3 POP DUP2 SWAP3 PUSH3 0x41C JUMP JUMPDEST PUSH1 0x22 DUP8 PUSH4 0x4E487B71 PUSH1 0xE0 SHL PUSH0 MSTORE MSTORE PUSH1 0x24 PUSH0 REVERT JUMPDEST SWAP1 PUSH1 0x7F AND SWAP1 PUSH3 0x15C JUMP JUMPDEST PUSH4 0x4E487B71 PUSH1 0xE0 SHL PUSH0 MSTORE PUSH1 0x41 PUSH1 0x4 MSTORE PUSH1 0x24 PUSH0 REVERT JUMPDEST ADD MLOAD SWAP1 POP PUSH0 DUP1 PUSH3 0x12E JUMP JUMPDEST PUSH0 DUP7 DUP2 MSTORE DUP14 DUP2 KECCAK256 DUP10 SWAP6 POP SWAP3 SWAP2 SWAP1 PUSH1 0x1F NOT DUP6 AND SWAP1 DUP16 JUMPDEST DUP3 DUP3 LT PUSH3 0x4E0 JUMPI POP POP DUP5 GT PUSH3 0x4C8 JUMPI JUMPDEST POP POP POP DUP2 SHL ADD DUP3 SSTORE PUSH3 0x13F JUMP JUMPDEST ADD MLOAD PUSH0 NOT DUP4 DUP8 SHL PUSH1 0xF8 AND SHR NOT AND SWAP1 SSTORE PUSH0 DUP1 DUP1 PUSH3 0x4BA JUMP JUMPDEST DUP4 DUP6 ADD MLOAD DUP7 SSTORE DUP12 SWAP8 SWAP1 SWAP6 ADD SWAP5 SWAP4 DUP5 ADD SWAP4 ADD DUP16 PUSH3 0x4A8 JUMP JUMPDEST SWAP1 SWAP2 SWAP3 POP DUP6 PUSH0 MSTORE DUP5 DUP3 PUSH0 KECCAK256 SWAP2 DUP2 DUP7 ADD PUSH1 0x5 SHR DUP4 ADD SWAP4 DUP7 LT PUSH3 0x544 JUMPI JUMPDEST SWAP2 DUP10 SWAP2 DUP7 SWAP6 SWAP5 SWAP4 ADD PUSH1 0x5 SHR ADD SWAP2 JUMPDEST DUP3 DUP2 LT PUSH3 0x535 JUMPI POP DUP14 SWAP2 POP PUSH3 0x117 JUMP JUMPDEST PUSH0 DUP2 SSTORE DUP6 SWAP5 POP DUP10 SWAP2 ADD PUSH3 0x523 JUMP JUMPDEST SWAP3 POP DUP2 SWAP3 PUSH3 0x515 JUMP JUMPDEST PUSH4 0x4E487B71 PUSH1 0xE0 SHL PUSH0 MSTORE PUSH1 0x22 PUSH1 0x4 MSTORE PUSH1 0x24 PUSH0 REVERT JUMPDEST SWAP3 PUSH1 0x7F AND SWAP3 PUSH3 0xFF JUMP JUMPDEST PUSH0 DUP1 REVERT JUMPDEST PUSH1 0x40 MLOAD SWAP2 SWAP1 PUSH1 0x1F ADD PUSH1 0x1F NOT AND DUP3 ADD PUSH1 0x1 PUSH1 0x1 PUSH1 0x40 SHL SUB DUP2 GT DUP4 DUP3 LT OR PUSH3 0x473 JUMPI PUSH1 0x40 MSTORE JUMP JUMPDEST MLOAD SWAP1 PUSH1 0x1 PUSH1 0x1 PUSH1 0xA0 SHL SUB DUP3 AND DUP3 SUB PUSH3 0x56D JUMPI JUMP JUMPDEST SWAP2 SWAP1 DUP1 PUSH1 0x1F DUP5 ADD SLT ISZERO PUSH3 0x56D JUMPI DUP3 MLOAD PUSH1 0x1 PUSH1 0x1 PUSH1 0x40 SHL SUB DUP2 GT PUSH3 0x473 JUMPI PUSH1 0x20 SWAP1 PUSH3 0x5E2 PUSH1 0x1F DUP3 ADD PUSH1 0x1F NOT AND DUP4 ADD PUSH3 0x571 JUMP JUMPDEST SWAP3 DUP2 DUP5 MSTORE DUP3 DUP3 DUP8 ADD ADD GT PUSH3 0x56D JUMPI PUSH0 JUMPDEST DUP2 DUP2 LT PUSH3 0x608 JUMPI POP DUP3 PUSH0 SWAP4 SWAP5 SWAP6 POP ADD ADD MSTORE SWAP1 JUMP JUMPDEST DUP6 DUP2 ADD DUP4 ADD MLOAD DUP5 DUP3 ADD DUP5 ADD MSTORE DUP3 ADD PUSH3 0x5F3 JUMP JUMPDEST MLOAD SWAP1 PUSH3 0xFFFFFF DUP3 AND DUP3 SUB PUSH3 0x56D JUMPI JUMP INVALID PUSH1 0x80 PUSH1 0x40 MSTORE PUSH1 0x4 CALLDATASIZE LT ISZERO PUSH2 0x11 JUMPI PUSH0 DUP1 REVERT JUMPDEST PUSH0 CALLDATALOAD PUSH1 0xE0 SHR DUP1 PUSH3 0xAEEF8A EQ PUSH2 0x1925 JUMPI DUP1 PUSH4 0x6FDDE03 EQ PUSH2 0x1867 JUMPI DUP1 PUSH4 0x902F1AC EQ PUSH2 0x1843 JUMPI DUP1 PUSH4 0x95EA7B3 EQ PUSH2 0x17C1 JUMPI DUP1 PUSH4 0xA28A477 EQ PUSH2 0x17A3 JUMPI DUP1 PUSH4 0x116191B6 EQ PUSH2 0x175F JUMPI DUP1 PUSH4 0x18160DDD EQ PUSH2 0x1742 JUMPI DUP1 PUSH4 0x1C481E2D EQ PUSH2 0x16D6 JUMPI DUP1 PUSH4 0x1DEC1515 EQ PUSH2 0x16B9 JUMPI DUP1 PUSH4 0x238EFCBC EQ PUSH2 0x1651 JUMPI DUP1 PUSH4 0x23B872DD EQ PUSH2 0x1567 JUMPI DUP1 PUSH4 0x2FFDAF89 EQ PUSH2 0x1528 JUMPI DUP1 PUSH4 0x313CE567 EQ PUSH2 0x150D JUMPI DUP1 PUSH4 0x33A100CA EQ PUSH2 0x149B JUMPI DUP1 PUSH4 0x379BC380 EQ PUSH2 0x1364 JUMPI DUP1 PUSH4 0x3E413BEE EQ PUSH2 0x1320 JUMPI DUP1 PUSH4 0x4B60CE77 EQ PUSH2 0x12DC JUMPI DUP1 PUSH4 0x4CC15D64 EQ PUSH2 0x10FC JUMPI DUP1 PUSH4 0x54D18864 EQ PUSH2 0x10DF JUMPI DUP1 PUSH4 0x5AA6E675 EQ PUSH2 0x10B7 JUMPI DUP1 PUSH4 0x60DA3E83 EQ PUSH2 0x1095 JUMPI DUP1 PUSH4 0x64DF049E EQ PUSH2 0x1051 JUMPI DUP1 PUSH4 0x70A08231 EQ PUSH2 0x101A JUMPI DUP1 PUSH4 0x9040F866 EQ PUSH2 0xFDB JUMPI DUP1 PUSH4 0x94FC8A7D EQ PUSH2 0xE9E JUMPI DUP1 PUSH4 0x95D89B41 EQ PUSH2 0xD97 JUMPI DUP1 PUSH4 0x974D8C93 EQ PUSH2 0xD6D JUMPI DUP1 PUSH4 0xA41FE49F EQ PUSH2 0xB82 JUMPI DUP1 PUSH4 0xA8C62E76 EQ PUSH2 0xB5A JUMPI DUP1 PUSH4 0xA9059CBB EQ PUSH2 0xB29 JUMPI DUP1 PUSH4 0xAA6CA808 EQ PUSH2 0xABF JUMPI DUP1 PUSH4 0xB269ADD3 EQ PUSH2 0x756 JUMPI DUP1 PUSH4 0xC45A0155 EQ PUSH2 0x712 JUMPI DUP1 PUSH4 0xD38BFFF4 EQ PUSH2 0x6AF JUMPI DUP1 PUSH4 0xDD62ED3E EQ PUSH2 0x662 JUMPI DUP1 PUSH4 0xE1E158A5 EQ PUSH2 0x646 JUMPI DUP1 PUSH4 0xF39C38A0 EQ PUSH2 0x61E JUMPI PUSH4 0xF3E6EA8A EQ PUSH2 0x1BA JUMPI PUSH0 DUP1 REVERT JUMPDEST CALLVALUE PUSH2 0x61A JUMPI PUSH1 0x80 CALLDATASIZE PUSH1 0x3 NOT ADD SLT PUSH2 0x61A JUMPI PUSH2 0x1D3 PUSH2 0x1BC1 JUMP JUMPDEST PUSH1 0x64 CALLDATALOAD SWAP1 PUSH1 0x1 PUSH1 0x1 PUSH1 0xA0 SHL SUB DUP3 AND DUP3 SUB PUSH2 0x61A JUMPI PUSH2 0x1EF PUSH2 0x1DAD JUMP JUMPDEST PUSH1 0x1 PUSH1 0x1 PUSH1 0xA0 SHL SUB SWAP1 DUP2 AND SWAP2 PUSH32 0x0 SWAP2 DUP3 AND DUP4 EQ ISZERO DUP1 PUSH2 0x5E7 JUMPI JUMPDEST PUSH2 0x5D5 JUMPI PUSH1 0x1 PUSH1 0x1 PUSH1 0xA0 SHL SUB DUP2 AND ISZERO PUSH2 0x5C3 JUMPI PUSH1 0x24 CALLDATALOAD ISZERO PUSH2 0x5B1 JUMPI PUSH1 0x1 PUSH1 0x1 PUSH1 0xA0 SHL SUB DUP3 AND DUP4 SUB PUSH2 0x5AA JUMPI PUSH32 0x0 SWAP3 JUMPDEST PUSH1 0x1 PUSH1 0x1 PUSH1 0xA0 SHL SUB DUP4 AND DUP2 SUB PUSH2 0x5A1 JUMPI PUSH1 0x9 SLOAD SWAP3 JUMPDEST PUSH1 0x1 PUSH1 0x1 PUSH1 0xA0 SHL SUB DUP2 AND DUP3 SUB PUSH2 0x598 JUMPI PUSH1 0xA SLOAD SWAP4 JUMPDEST DUP1 ISZERO DUP1 ISZERO PUSH2 0x590 JUMPI JUMPDEST PUSH2 0x46F JUMPI PUSH3 0xFFFFFF PUSH32 0x0 AND PUSH2 0x2710 SUB PUSH2 0x2710 DUP2 GT PUSH2 0x57C JUMPI PUSH2 0x2EF PUSH2 0x2710 SWAP2 PUSH1 0x24 CALLDATALOAD PUSH2 0x1CC7 JUMP JUMPDEST PUSH0 SWAP7 SWAP2 SWAP1 DIV SWAP2 SWAP1 PUSH32 0x0 PUSH1 0x1 PUSH1 0x1 PUSH1 0xA0 SHL SUB AND ISZERO ISZERO DUP1 PUSH2 0x54E JUMPI JUMPDEST PUSH2 0x4F6 JUMPI JUMPDEST SWAP1 PUSH2 0x345 DUP4 PUSH2 0x33F PUSH2 0x34B SWAP5 DUP3 PUSH2 0x1CC7 JUMP JUMPDEST SWAP3 PUSH2 0x1CBA JUMP JUMPDEST SWAP1 PUSH2 0x1CDA JUMP JUMPDEST SWAP5 PUSH1 0x44 CALLDATALOAD DUP7 LT PUSH2 0x4E4 JUMPI DUP6 ISZERO PUSH2 0x4E4 JUMPI PUSH2 0x369 PUSH1 0x24 CALLDATALOAD ADDRESS CALLER DUP8 PUSH2 0x1CF8 JUMP JUMPDEST DUP1 PUSH2 0x4B3 JUMPI JUMPDEST POP PUSH1 0x1 PUSH1 0x1 PUSH1 0xA0 SHL SUB DUP3 AND DUP4 SUB PUSH2 0x481 JUMPI PUSH2 0x38C SWAP1 PUSH1 0x9 SLOAD PUSH2 0x1CBA JUMP JUMPDEST PUSH1 0x9 SSTORE DUP4 PUSH2 0x39C DUP2 PUSH1 0xA SLOAD PUSH2 0x1DD0 JUMP JUMPDEST DUP1 PUSH1 0xA SSTORE LT PUSH2 0x46F JUMPI PUSH2 0x3BC DUP5 DUP5 PUSH1 0x20 SWAP8 JUMPDEST PUSH1 0x1 PUSH1 0x1 PUSH1 0xA0 SHL SUB AND PUSH2 0x1DDD JUMP JUMPDEST PUSH1 0x1 PUSH1 0x1 PUSH1 0xA0 SHL SUB AND SUB PUSH2 0x421 JUMPI PUSH1 0x40 MLOAD SWAP1 PUSH1 0x24 CALLDATALOAD DUP3 MSTORE PUSH0 DUP5 DUP4 ADD MSTORE PUSH0 PUSH1 0x40 DUP4 ADD MSTORE DUP3 PUSH1 0x60 DUP4 ADD MSTORE PUSH1 0x1 DUP1 PUSH1 0xA0 SHL SUB AND SWAP1 PUSH32 0xD78AD95FA46C994B6551D0DA85FC275FE613CE37657FB8D5E3D130840159D822 PUSH1 0x80 CALLER SWAP3 LOG3 JUMPDEST PUSH1 0x1 PUSH1 0x5 SSTORE PUSH1 0x40 MLOAD SWAP1 DUP2 MSTORE RETURN JUMPDEST PUSH1 0x40 MLOAD SWAP1 PUSH0 DUP3 MSTORE PUSH1 0x24 CALLDATALOAD DUP5 DUP4 ADD MSTORE DUP3 PUSH1 0x40 DUP4 ADD MSTORE PUSH0 PUSH1 0x60 DUP4 ADD MSTORE PUSH1 0x1 DUP1 PUSH1 0xA0 SHL SUB AND SWAP1 PUSH32 0xD78AD95FA46C994B6551D0DA85FC275FE613CE37657FB8D5E3D130840159D822 PUSH1 0x80 CALLER SWAP3 LOG3 PUSH2 0x414 JUMP JUMPDEST PUSH1 0x40 MLOAD PUSH4 0xBB55FD27 PUSH1 0xE0 SHL DUP2 MSTORE PUSH1 0x4 SWAP1 REVERT JUMPDEST PUSH2 0x48D SWAP1 PUSH1 0xA SLOAD PUSH2 0x1CBA JUMP JUMPDEST PUSH1 0xA SSTORE DUP4 PUSH2 0x49D DUP2 PUSH1 0x9 SLOAD PUSH2 0x1DD0 JUMP JUMPDEST DUP1 PUSH1 0x9 SSTORE LT PUSH2 0x46F JUMPI PUSH2 0x3BC DUP5 DUP5 PUSH1 0x20 SWAP8 PUSH2 0x3AE JUMP JUMPDEST PUSH2 0x4DE SWAP1 PUSH32 0x0 DUP6 PUSH2 0x1DDD JUMP JUMPDEST PUSH0 PUSH2 0x36F JUMP JUMPDEST PUSH1 0x40 MLOAD PUSH4 0xBB2875C3 PUSH1 0xE0 SHL DUP2 MSTORE PUSH1 0x4 SWAP1 REVERT JUMPDEST SWAP6 POP PUSH2 0x34B SWAP1 PUSH2 0x345 DUP4 PUSH2 0x33F PUSH2 0x2710 PUSH2 0x541 PUSH2 0x515 DUP5 PUSH1 0x24 CALLDATALOAD PUSH2 0x1DD0 JUMP JUMPDEST PUSH3 0xFFFFFF PUSH32 0x0 AND SWAP1 PUSH2 0x1CC7 JUMP JUMPDEST DIV SWAP10 SWAP4 SWAP5 POP POP POP POP PUSH2 0x32D JUMP JUMPDEST POP PUSH3 0xFFFFFF PUSH32 0x0 AND ISZERO ISZERO PUSH2 0x328 JUMP JUMPDEST PUSH4 0x4E487B71 PUSH1 0xE0 SHL PUSH0 MSTORE PUSH1 0x11 PUSH1 0x4 MSTORE PUSH1 0x24 PUSH0 REVERT JUMPDEST POP DUP5 ISZERO PUSH2 0x2A9 JUMP JUMPDEST PUSH1 0x9 SLOAD SWAP4 PUSH2 0x2A0 JUMP JUMPDEST PUSH1 0xA SLOAD SWAP3 PUSH2 0x28B JUMP JUMPDEST DUP2 SWAP3 PUSH2 0x276 JUMP JUMPDEST PUSH1 0x40 MLOAD PUSH4 0x2CA2F52B PUSH1 0xE1 SHL DUP2 MSTORE PUSH1 0x4 SWAP1 REVERT JUMPDEST PUSH1 0x40 MLOAD PUSH4 0xE6C4247B PUSH1 0xE0 SHL DUP2 MSTORE PUSH1 0x4 SWAP1 REVERT JUMPDEST PUSH1 0x40 MLOAD PUSH4 0xC1AB6DC1 PUSH1 0xE0 SHL DUP2 MSTORE PUSH1 0x4 SWAP1 REVERT JUMPDEST POP PUSH32 0x0 PUSH1 0x1 PUSH1 0x1 PUSH1 0xA0 SHL SUB AND DUP4 EQ ISZERO PUSH2 0x228 JUMP JUMPDEST PUSH0 DUP1 REVERT JUMPDEST CALLVALUE PUSH2 0x61A JUMPI PUSH0 CALLDATASIZE PUSH1 0x3 NOT ADD SLT PUSH2 0x61A JUMPI PUSH1 0x7 SLOAD PUSH1 0x40 MLOAD PUSH1 0x1 PUSH1 0x1 PUSH1 0xA0 SHL SUB SWAP1 SWAP2 AND DUP2 MSTORE PUSH1 0x20 SWAP1 RETURN JUMPDEST CALLVALUE PUSH2 0x61A JUMPI PUSH0 CALLDATASIZE PUSH1 0x3 NOT ADD SLT PUSH2 0x61A JUMPI PUSH1 0x20 PUSH1 0x40 MLOAD PUSH2 0x3E8 DUP2 MSTORE RETURN JUMPDEST CALLVALUE PUSH2 0x61A JUMPI PUSH1 0x40 CALLDATASIZE PUSH1 0x3 NOT ADD SLT PUSH2 0x61A JUMPI PUSH2 0x67B PUSH2 0x1BC1 JUMP JUMPDEST PUSH2 0x683 PUSH2 0x1BD7 JUMP JUMPDEST SWAP1 PUSH1 0x1 DUP1 PUSH1 0xA0 SHL SUB DUP1 SWAP2 AND PUSH0 MSTORE PUSH1 0x1 PUSH1 0x20 MSTORE PUSH1 0x40 PUSH0 KECCAK256 SWAP2 AND PUSH0 MSTORE PUSH1 0x20 MSTORE PUSH1 0x20 PUSH1 0x40 PUSH0 KECCAK256 SLOAD PUSH1 0x40 MLOAD SWAP1 DUP2 MSTORE RETURN JUMPDEST CALLVALUE PUSH2 0x61A JUMPI PUSH1 0x20 CALLDATASIZE PUSH1 0x3 NOT ADD SLT PUSH2 0x61A JUMPI PUSH2 0x6C8 PUSH2 0x1BC1 JUMP JUMPDEST PUSH1 0x6 SLOAD PUSH1 0x1 PUSH1 0x1 PUSH1 0xA0 SHL SUB SWAP2 SWAP1 DUP3 AND CALLER SUB PUSH2 0x700 JUMPI AND DUP1 ISZERO PUSH2 0x5C3 JUMPI PUSH12 0xFFFFFFFFFFFFFFFFFFFFFFFF PUSH1 0xA0 SHL PUSH1 0x7 SLOAD AND OR PUSH1 0x7 SSTORE PUSH0 DUP1 RETURN JUMPDEST PUSH1 0x40 MLOAD PUSH4 0x54348F03 PUSH1 0xE0 SHL DUP2 MSTORE PUSH1 0x4 SWAP1 REVERT JUMPDEST CALLVALUE PUSH2 0x61A JUMPI PUSH0 CALLDATASIZE PUSH1 0x3 NOT ADD SLT PUSH2 0x61A JUMPI PUSH1 0x40 MLOAD PUSH32 0x0 PUSH1 0x1 PUSH1 0x1 PUSH1 0xA0 SHL SUB AND DUP2 MSTORE PUSH1 0x20 SWAP1 RETURN JUMPDEST CALLVALUE PUSH2 0x61A JUMPI PUSH1 0x20 DUP1 PUSH1 0x3 NOT CALLDATASIZE ADD SLT PUSH2 0x61A JUMPI PUSH8 0xFFFFFFFFFFFFFFFF SWAP1 PUSH1 0x4 CALLDATALOAD DUP3 DUP2 GT PUSH2 0x61A JUMPI CALLDATASIZE PUSH1 0x23 DUP3 ADD SLT ISZERO PUSH2 0x61A JUMPI DUP1 PUSH1 0x4 ADD CALLDATALOAD DUP4 DUP2 GT PUSH2 0x61A JUMPI PUSH1 0x24 SWAP2 CALLDATASIZE DUP4 DUP4 DUP4 ADD ADD GT PUSH2 0x61A JUMPI PUSH1 0x6 SLOAD PUSH1 0x1 PUSH1 0x1 PUSH1 0xA0 SHL SUB SWAP1 DUP2 AND CALLER SUB PUSH2 0x700 JUMPI DUP1 PUSH1 0x8 SLOAD AND SWAP1 DUP2 ISZERO PUSH2 0x5C3 JUMPI DUP1 PUSH32 0x0 AND PUSH1 0x40 MLOAD SWAP3 PUSH4 0x70A08231 PUSH1 0xE0 SHL SWAP3 DUP4 DUP6 MSTORE ADDRESS PUSH1 0x4 DUP7 ADD MSTORE DUP9 DUP6 DUP10 DUP2 DUP7 GAS STATICCALL SWAP5 DUP6 ISZERO PUSH2 0x9C4 JUMPI PUSH0 SWAP6 PUSH2 0xA90 JUMPI JUMPDEST POP PUSH32 0x0 AND SWAP5 PUSH1 0x40 MLOAD SWAP1 DUP5 DUP3 MSTORE ADDRESS PUSH1 0x4 DUP4 ADD MSTORE DUP10 DUP3 DUP11 DUP2 DUP11 GAS STATICCALL SWAP8 DUP9 ISZERO PUSH2 0x9C4 JUMPI DUP10 SWAP3 PUSH0 SWAP10 PUSH2 0xA57 JUMPI JUMPDEST POP SWAP2 PUSH0 DUP1 SWAP5 SWAP3 DUP5 DUP3 SWAP6 PUSH1 0x40 MLOAD SWAP5 DUP6 SWAP4 ADD DUP4 CALLDATACOPY DUP2 ADD DUP3 DUP2 MSTORE SUB SWAP3 GAS CALL RETURNDATASIZE ISZERO PUSH2 0xA4E JUMPI RETURNDATASIZE SWAP9 DUP10 GT PUSH2 0xA3B JUMPI PUSH1 0x40 MLOAD SWAP9 PUSH2 0x897 PUSH1 0x1F DUP3 ADD PUSH1 0x1F NOT AND DUP11 ADD DUP12 PUSH2 0x1BED JUMP JUMPDEST DUP10 MSTORE RETURNDATASIZE PUSH0 DUP10 DUP12 ADD RETURNDATACOPY JUMPDEST ISZERO PUSH2 0xA00 JUMPI SWAP1 DUP7 DUP7 SWAP3 PUSH1 0x40 MLOAD SWAP4 DUP5 DUP1 SWAP3 DUP6 DUP3 MSTORE ADDRESS PUSH1 0x4 DUP4 ADD MSTORE GAS STATICCALL SWAP6 DUP7 ISZERO PUSH2 0x9C4 JUMPI DUP8 SWAP3 PUSH0 SWAP8 PUSH2 0x9CF JUMPI JUMPDEST POP PUSH1 0x40 MLOAD DUP1 SWAP6 DUP2 SWAP4 DUP3 MSTORE ADDRESS PUSH1 0x4 DUP4 ADD MSTORE GAS STATICCALL SWAP2 DUP3 ISZERO PUSH2 0x9C4 JUMPI PUSH0 SWAP3 PUSH2 0x973 JUMPI JUMPDEST POP SWAP1 DUP4 PUSH1 0x40 SWAP4 SWAP3 PUSH32 0x8F9497C27F572FF1A65E8B2C7A0706D466466AE0B5EFC78462B5F0021DA66956 SWAP6 PUSH1 0x9 SSTORE DUP3 PUSH1 0xA SSTORE DUP1 DUP3 GT PUSH0 EQ PUSH2 0x96A JUMPI PUSH2 0x92D SWAP2 PUSH2 0x1DD0 JUMP JUMPDEST SWAP2 JUMPDEST DUP1 DUP3 GT ISZERO PUSH2 0x962 JUMPI PUSH2 0x940 SWAP2 PUSH2 0x1DD0 JUMP JUMPDEST DUP3 MLOAD SWAP2 DUP3 MSTORE DUP5 DUP3 ADD MSTORE LOG1 PUSH2 0x95E PUSH1 0x40 MLOAD SWAP3 DUP3 DUP5 SWAP4 DUP5 MSTORE DUP4 ADD SWAP1 PUSH2 0x1B83 JUMP JUMPDEST SUB SWAP1 RETURN JUMPDEST POP POP PUSH0 PUSH2 0x940 JUMP JUMPDEST POP POP PUSH0 SWAP2 PUSH2 0x92F JUMP JUMPDEST SWAP3 SWAP2 POP DUP5 DUP4 DUP2 RETURNDATASIZE DUP4 GT PUSH2 0x9BD JUMPI JUMPDEST PUSH2 0x98B DUP2 DUP4 PUSH2 0x1BED JUMP JUMPDEST DUP2 ADD SUB SLT PUSH2 0x61A JUMPI SWAP2 MLOAD SWAP1 SWAP2 PUSH32 0x8F9497C27F572FF1A65E8B2C7A0706D466466AE0B5EFC78462B5F0021DA66956 PUSH2 0x8EB JUMP JUMPDEST POP RETURNDATASIZE PUSH2 0x981 JUMP JUMPDEST PUSH1 0x40 MLOAD RETURNDATASIZE PUSH0 DUP3 RETURNDATACOPY RETURNDATASIZE SWAP1 REVERT JUMPDEST DUP4 DUP2 SWAP5 SWAP3 SWAP9 POP RETURNDATASIZE DUP4 GT PUSH2 0x9F9 JUMPI JUMPDEST PUSH2 0x9E7 DUP2 DUP4 PUSH2 0x1BED JUMP JUMPDEST DUP2 ADD SUB SLT PUSH2 0x61A JUMPI DUP7 SWAP2 MLOAD SWAP6 DUP10 PUSH2 0x8CB JUMP JUMPDEST POP RETURNDATASIZE PUSH2 0x9DD JUMP JUMPDEST PUSH1 0x40 MLOAD PUSH3 0x461BCD PUSH1 0xE5 SHL DUP2 MSTORE PUSH1 0x4 DUP2 ADD DUP9 SWAP1 MSTORE PUSH1 0x14 DUP2 DUP9 ADD MSTORE PUSH20 0x14DD1C985D1959DE4818D85B1B0819985A5B1959 PUSH1 0x62 SHL PUSH1 0x44 DUP3 ADD MSTORE PUSH1 0x64 SWAP1 REVERT JUMPDEST DUP7 PUSH4 0x4E487B71 PUSH1 0xE0 SHL PUSH0 MSTORE PUSH1 0x41 PUSH1 0x4 MSTORE PUSH0 REVERT JUMPDEST PUSH1 0x60 SWAP9 POP PUSH2 0x8A0 JUMP JUMPDEST DUP12 DUP1 SWAP3 SWAP11 POP DUP2 SWAP5 POP SWAP5 SWAP3 SWAP5 RETURNDATASIZE DUP4 GT PUSH2 0xA89 JUMPI JUMPDEST PUSH2 0xA74 DUP2 DUP4 PUSH2 0x1BED JUMP JUMPDEST DUP2 ADD SUB SLT PUSH2 0x61A JUMPI SWAP1 MLOAD SWAP7 SWAP1 SWAP2 DUP9 SWAP2 PUSH0 PUSH2 0x857 JUMP JUMPDEST POP RETURNDATASIZE PUSH2 0xA6A JUMP JUMPDEST SWAP1 SWAP5 POP DUP9 DUP2 DUP2 RETURNDATASIZE DUP4 GT PUSH2 0xAB8 JUMPI JUMPDEST PUSH2 0xAA8 DUP2 DUP4 PUSH2 0x1BED JUMP JUMPDEST DUP2 ADD SUB SLT PUSH2 0x61A JUMPI MLOAD SWAP4 DUP11 PUSH2 0x80F JUMP JUMPDEST POP RETURNDATASIZE PUSH2 0xA9E JUMP JUMPDEST CALLVALUE PUSH2 0x61A JUMPI PUSH0 CALLDATASIZE PUSH1 0x3 NOT ADD SLT PUSH2 0x61A JUMPI PUSH1 0x40 DUP1 MLOAD PUSH1 0x1 PUSH1 0x1 PUSH1 0xA0 SHL SUB PUSH32 0x0 DUP2 AND DUP3 MSTORE PUSH32 0x0 AND PUSH1 0x20 DUP3 ADD MSTORE RETURN JUMPDEST CALLVALUE PUSH2 0x61A JUMPI PUSH1 0x40 CALLDATASIZE PUSH1 0x3 NOT ADD SLT PUSH2 0x61A JUMPI PUSH2 0xB4F PUSH2 0xB45 PUSH2 0x1BC1 JUMP JUMPDEST PUSH1 0x24 CALLDATALOAD SWAP1 CALLER PUSH2 0x1C0F JUMP JUMPDEST PUSH1 0x20 PUSH1 0x40 MLOAD PUSH1 0x1 DUP2 MSTORE RETURN JUMPDEST CALLVALUE PUSH2 0x61A JUMPI PUSH0 CALLDATASIZE PUSH1 0x3 NOT ADD SLT PUSH2 0x61A JUMPI PUSH1 0x8 SLOAD PUSH1 0x40 MLOAD PUSH1 0x1 PUSH1 0x1 PUSH1 0xA0 SHL SUB SWAP1 SWAP2 AND DUP2 MSTORE PUSH1 0x20 SWAP1 RETURN JUMPDEST CALLVALUE PUSH2 0x61A JUMPI PUSH2 0xB90 CALLDATASIZE PUSH2 0x1B69 JUMP JUMPDEST SWAP1 PUSH2 0xB99 PUSH2 0x1DAD JUMP JUMPDEST DUP3 ISZERO PUSH2 0x5B1 JUMPI CALLER PUSH0 MSTORE PUSH0 PUSH1 0x20 MSTORE DUP3 PUSH1 0x40 PUSH0 KECCAK256 SLOAD LT PUSH2 0xD5B JUMPI PUSH1 0x2 SLOAD PUSH1 0x9 SLOAD PUSH2 0xBCA DUP3 PUSH2 0xBC5 DUP4 DUP9 PUSH2 0x1CC7 JUMP JUMPDEST PUSH2 0x1CDA JUMP JUMPDEST SWAP4 PUSH2 0xBDC PUSH1 0xA SLOAD SWAP4 PUSH2 0xBC5 DUP6 DUP10 PUSH2 0x1CC7 JUMP JUMPDEST SWAP4 DUP6 LT SWAP1 DUP2 ISZERO PUSH2 0xD51 JUMPI JUMPDEST POP PUSH2 0x5B1 JUMPI PUSH2 0xC03 SWAP2 PUSH2 0xBFB DUP6 DUP6 SWAP4 PUSH2 0x1DD0 JUMP JUMPDEST PUSH1 0x9 SSTORE PUSH2 0x1DD0 JUMP JUMPDEST PUSH1 0xA SSTORE CALLER ISZERO PUSH2 0xD39 JUMPI CALLER PUSH0 MSTORE PUSH0 PUSH1 0x20 MSTORE PUSH1 0x40 PUSH0 KECCAK256 SLOAD DUP4 DUP2 LT PUSH2 0xD12 JUMPI SWAP3 DUP1 PUSH1 0x40 SWAP5 CALLER PUSH0 MSTORE PUSH0 PUSH1 0x20 MSTORE SUB DUP5 PUSH0 KECCAK256 SSTORE DUP1 PUSH1 0x2 SLOAD SUB PUSH1 0x2 SSTORE PUSH0 DUP5 MLOAD DUP3 DUP2 MSTORE PUSH32 0xDDF252AD1BE2C89B69C2B068FC378DAA952BA7F163C4A11628F55A4DF523B3EF PUSH1 0x20 CALLER SWAP3 LOG3 PUSH2 0xCC6 DUP3 PUSH1 0x1 PUSH1 0x1 PUSH1 0xA0 SHL SUB PUSH2 0xC9D DUP7 CALLER PUSH32 0x0 DUP5 AND PUSH2 0x1DDD JUMP JUMPDEST CALLER SWAP1 PUSH32 0x0 AND PUSH2 0x1DDD JUMP JUMPDEST DUP4 MLOAD SWAP1 DUP2 MSTORE PUSH1 0x20 DUP2 ADD DUP4 SWAP1 MSTORE PUSH1 0x40 DUP2 ADD DUP3 SWAP1 MSTORE CALLER SWAP1 PUSH32 0x75E161B3E824B114FC1A33274BD7091918DD4E639CEDE50B78B15A4EEA956A21 SWAP1 PUSH1 0x60 SWAP1 LOG2 PUSH1 0x1 PUSH1 0x5 SSTORE DUP3 MLOAD SWAP2 DUP3 MSTORE PUSH1 0x20 DUP3 ADD MSTORE RETURN JUMPDEST PUSH1 0x40 MLOAD PUSH4 0x391434E3 PUSH1 0xE2 SHL DUP2 MSTORE CALLER PUSH1 0x4 DUP3 ADD MSTORE PUSH1 0x24 DUP2 ADD SWAP2 SWAP1 SWAP2 MSTORE PUSH1 0x44 DUP2 ADD DUP5 SWAP1 MSTORE PUSH1 0x64 SWAP1 REVERT JUMPDEST PUSH1 0x40 MLOAD PUSH4 0x4B637E8F PUSH1 0xE1 SHL DUP2 MSTORE PUSH0 PUSH1 0x4 DUP3 ADD MSTORE PUSH1 0x24 SWAP1 REVERT JUMPDEST SWAP1 POP DUP4 LT DUP7 PUSH2 0xBE7 JUMP JUMPDEST PUSH1 0x40 MLOAD PUSH4 0x39996567 PUSH1 0xE0 SHL DUP2 MSTORE PUSH1 0x4 SWAP1 REVERT JUMPDEST CALLVALUE PUSH2 0x61A JUMPI PUSH1 0x20 CALLDATASIZE PUSH1 0x3 NOT ADD SLT PUSH2 0x61A JUMPI PUSH1 0x40 PUSH2 0xD8B PUSH1 0x4 CALLDATALOAD PUSH2 0x1E5E JUMP JUMPDEST DUP3 MLOAD SWAP2 DUP3 MSTORE PUSH1 0x20 DUP3 ADD MSTORE RETURN JUMPDEST CALLVALUE PUSH2 0x61A JUMPI PUSH0 CALLDATASIZE PUSH1 0x3 NOT ADD SLT PUSH2 0x61A JUMPI PUSH1 0x40 MLOAD PUSH0 PUSH1 0x4 SLOAD SWAP1 PUSH1 0x1 DUP3 DUP2 SHR SWAP2 DUP2 DUP5 AND SWAP2 DUP3 ISZERO PUSH2 0xE94 JUMPI JUMPDEST PUSH1 0x20 SWAP5 DUP6 DUP6 LT DUP5 EQ PUSH2 0xE80 JUMPI DUP6 DUP8 SWAP5 DUP7 DUP7 MSTORE SWAP2 DUP3 PUSH0 EQ PUSH2 0xE60 JUMPI POP POP PUSH1 0x1 EQ PUSH2 0xE05 JUMPI JUMPDEST POP PUSH2 0xDF1 SWAP3 POP SUB DUP4 PUSH2 0x1BED JUMP JUMPDEST PUSH2 0x95E PUSH1 0x40 MLOAD SWAP3 DUP3 DUP5 SWAP4 DUP5 MSTORE DUP4 ADD SWAP1 PUSH2 0x1B83 JUMP JUMPDEST DUP5 SWAP2 POP PUSH1 0x4 PUSH0 MSTORE PUSH32 0x8A35ACFBC15FF81A39AE7D344FD709F28E8600B4AA8C65C6B64BFE7FE36BD19B SWAP1 PUSH0 SWAP2 JUMPDEST DUP6 DUP4 LT PUSH2 0xE48 JUMPI POP POP PUSH2 0xDF1 SWAP4 POP DUP3 ADD ADD DUP6 PUSH2 0xDE4 JUMP JUMPDEST DUP1 SLOAD DUP4 DUP10 ADD DUP6 ADD MSTORE DUP8 SWAP5 POP DUP7 SWAP4 SWAP1 SWAP3 ADD SWAP2 DUP2 ADD PUSH2 0xE31 JUMP JUMPDEST PUSH1 0xFF NOT AND DUP6 DUP3 ADD MSTORE PUSH2 0xDF1 SWAP6 ISZERO ISZERO PUSH1 0x5 SHL DUP6 ADD ADD SWAP3 POP DUP8 SWAP2 POP PUSH2 0xDE4 SWAP1 POP JUMP JUMPDEST PUSH4 0x4E487B71 PUSH1 0xE0 SHL PUSH0 MSTORE PUSH1 0x22 PUSH1 0x4 MSTORE PUSH1 0x24 PUSH0 REVERT JUMPDEST SWAP3 PUSH1 0x7F AND SWAP3 PUSH2 0xDC0 JUMP JUMPDEST CALLVALUE PUSH2 0x61A JUMPI PUSH1 0x20 CALLDATASIZE PUSH1 0x3 NOT ADD SLT PUSH2 0x61A JUMPI PUSH1 0x4 CALLDATALOAD PUSH4 0xFFFFFFFF DUP2 AND DUP1 SWAP2 SUB PUSH2 0x61A JUMPI PUSH1 0x1 PUSH1 0x1 PUSH1 0xA0 SHL SUB PUSH32 0x0 DUP2 DUP2 AND CALLER DUP2 SWAP1 SUB PUSH2 0xFC9 JUMPI PUSH32 0x98445114B15007B3103AA94ACBE3CE1435B8EF5CFCF78021CC9CD75C74765610 PUSH1 0x60 PUSH1 0x40 SWAP6 PUSH2 0xF22 PUSH2 0x1DAD JUMP JUMPDEST PUSH1 0x9 SLOAD SWAP6 PUSH1 0xA SLOAD DUP1 SWAP7 DUP9 PUSH2 0xF97 JUMPI JUMPDEST DUP2 PUSH2 0xF64 JUMPI JUMPDEST POP POP POP PUSH0 PUSH1 0x9 SSTORE PUSH0 PUSH1 0xA SSTORE DUP7 MLOAD SWAP1 DUP7 DUP3 MSTORE DUP6 PUSH1 0x20 DUP4 ADD MSTORE DUP8 DUP3 ADD MSTORE LOG2 PUSH1 0x1 PUSH1 0x5 SSTORE DUP3 MLOAD SWAP2 DUP3 MSTORE PUSH1 0x20 DUP3 ADD MSTORE RETURN JUMPDEST PUSH2 0xF8F SWAP3 PUSH32 0x0 AND PUSH2 0x1DDD JUMP JUMPDEST DUP8 DUP6 DUP2 PUSH2 0xF37 JUMP JUMPDEST PUSH2 0xFC4 DUP10 DUP3 DUP6 PUSH32 0x0 AND PUSH2 0x1DDD JUMP JUMPDEST PUSH2 0xF31 JUMP JUMPDEST PUSH1 0x40 MLOAD PUSH4 0xEC76AF13 PUSH1 0xE0 SHL DUP2 MSTORE PUSH1 0x4 SWAP1 REVERT JUMPDEST CALLVALUE PUSH2 0x61A JUMPI PUSH0 CALLDATASIZE PUSH1 0x3 NOT ADD SLT PUSH2 0x61A JUMPI PUSH1 0x20 PUSH1 0x40 MLOAD PUSH3 0xFFFFFF PUSH32 0x0 AND DUP2 MSTORE RETURN JUMPDEST CALLVALUE PUSH2 0x61A JUMPI PUSH1 0x20 CALLDATASIZE PUSH1 0x3 NOT ADD SLT PUSH2 0x61A JUMPI PUSH1 0x1 PUSH1 0x1 PUSH1 0xA0 SHL SUB PUSH2 0x103B PUSH2 0x1BC1 JUMP JUMPDEST AND PUSH0 MSTORE PUSH0 PUSH1 0x20 MSTORE PUSH1 0x20 PUSH1 0x40 PUSH0 KECCAK256 SLOAD PUSH1 0x40 MLOAD SWAP1 DUP2 MSTORE RETURN JUMPDEST CALLVALUE PUSH2 0x61A JUMPI PUSH0 CALLDATASIZE PUSH1 0x3 NOT ADD SLT PUSH2 0x61A JUMPI PUSH1 0x40 MLOAD PUSH32 0x0 PUSH1 0x1 PUSH1 0x1 PUSH1 0xA0 SHL SUB AND DUP2 MSTORE PUSH1 0x20 SWAP1 RETURN JUMPDEST CALLVALUE PUSH2 0x61A JUMPI PUSH0 CALLDATASIZE PUSH1 0x3 NOT ADD SLT PUSH2 0x61A JUMPI PUSH1 0x20 PUSH1 0xFF PUSH1 0xB SLOAD AND PUSH1 0x40 MLOAD SWAP1 ISZERO ISZERO DUP2 MSTORE RETURN JUMPDEST CALLVALUE PUSH2 0x61A JUMPI PUSH0 CALLDATASIZE PUSH1 0x3 NOT ADD SLT PUSH2 0x61A JUMPI PUSH1 0x6 SLOAD PUSH1 0x40 MLOAD PUSH1 0x1 PUSH1 0x1 PUSH1 0xA0 SHL SUB SWAP1 SWAP2 AND DUP2 MSTORE PUSH1 0x20 SWAP1 RETURN JUMPDEST CALLVALUE PUSH2 0x61A JUMPI PUSH0 CALLDATASIZE PUSH1 0x3 NOT ADD SLT PUSH2 0x61A JUMPI PUSH1 0x20 PUSH1 0x9 SLOAD PUSH1 0x40 MLOAD SWAP1 DUP2 MSTORE RETURN JUMPDEST CALLVALUE PUSH2 0x61A JUMPI PUSH1 0x40 CALLDATASIZE PUSH1 0x3 NOT ADD SLT PUSH2 0x61A JUMPI PUSH2 0x1115 PUSH2 0x1BC1 JUMP JUMPDEST PUSH1 0x6 SLOAD PUSH1 0x1 PUSH1 0x1 PUSH1 0xA0 SHL SUB SWAP2 SWAP1 DUP3 AND CALLER SUB PUSH2 0x700 JUMPI DUP2 PUSH1 0x8 SLOAD AND SWAP1 DUP2 ISZERO PUSH2 0x5C3 JUMPI DUP3 AND SWAP2 DUP1 PUSH32 0x0 AND DUP4 EQ ISZERO SWAP1 DUP2 PUSH2 0x12AF JUMPI JUMPDEST POP PUSH2 0x5C3 JUMPI PUSH1 0x40 MLOAD PUSH4 0x6EB1769F PUSH1 0xE1 SHL DUP2 MSTORE ADDRESS PUSH1 0x4 DUP3 ADD MSTORE PUSH1 0x1 PUSH1 0x1 PUSH1 0xA0 SHL SUB DUP3 AND PUSH1 0x24 DUP3 ADD MSTORE PUSH1 0x20 SWAP3 SWAP1 DUP4 DUP2 PUSH1 0x44 DUP2 DUP6 GAS STATICCALL DUP1 ISZERO PUSH2 0x9C4 JUMPI PUSH0 SWAP1 PUSH2 0x1280 JUMPI JUMPDEST PUSH2 0x11B4 SWAP2 POP PUSH1 0x24 CALLDATALOAD SWAP1 PUSH2 0x1CBA JUMP JUMPDEST PUSH1 0x40 MLOAD PUSH4 0x95EA7B3 PUSH1 0xE0 SHL DUP6 DUP3 ADD DUP2 DUP2 MSTORE PUSH1 0x1 PUSH1 0x1 PUSH1 0xA0 SHL SUB DUP7 AND PUSH1 0x24 DUP5 ADD MSTORE PUSH1 0x44 DUP1 DUP5 ADD SWAP5 SWAP1 SWAP5 MSTORE SWAP3 DUP3 MSTORE SWAP1 SWAP4 SWAP2 DUP6 SWAP1 PUSH0 SWAP1 PUSH2 0x11F2 PUSH1 0x64 DUP9 PUSH2 0x1BED JUMP JUMPDEST DUP7 MLOAD SWAP1 DUP3 DUP8 GAS CALL PUSH0 MLOAD RETURNDATASIZE DUP3 PUSH2 0x1264 JUMPI JUMPDEST POP POP ISZERO PUSH2 0x120B JUMPI STOP JUMPDEST PUSH1 0x40 MLOAD SWAP5 DUP6 ADD MSTORE PUSH1 0x24 DUP5 ADD MSTORE PUSH0 PUSH1 0x44 DUP5 ADD MSTORE PUSH1 0x44 DUP4 MSTORE PUSH1 0x80 DUP4 ADD DUP4 DUP2 LT PUSH8 0xFFFFFFFFFFFFFFFF DUP3 GT OR PUSH2 0x1250 JUMPI PUSH2 0x124E SWAP4 PUSH2 0x1249 SWAP2 PUSH1 0x40 MSTORE DUP3 PUSH2 0x1D53 JUMP JUMPDEST PUSH2 0x1D53 JUMP JUMPDEST STOP JUMPDEST PUSH4 0x4E487B71 PUSH1 0xE0 SHL PUSH0 MSTORE PUSH1 0x41 PUSH1 0x4 MSTORE PUSH1 0x24 PUSH0 REVERT JUMPDEST SWAP1 SWAP2 POP PUSH2 0x1278 JUMPI POP DUP3 EXTCODESIZE ISZERO ISZERO JUMPDEST DUP7 DUP1 PUSH2 0x1202 JUMP JUMPDEST PUSH1 0x1 EQ PUSH2 0x1271 JUMP JUMPDEST POP DUP4 DUP2 DUP2 RETURNDATASIZE DUP4 GT PUSH2 0x12A8 JUMPI JUMPDEST PUSH2 0x1296 DUP2 DUP4 PUSH2 0x1BED JUMP JUMPDEST DUP2 ADD SUB SLT PUSH2 0x61A JUMPI PUSH2 0x11B4 SWAP1 MLOAD PUSH2 0x11A6 JUMP JUMPDEST POP RETURNDATASIZE PUSH2 0x128C JUMP JUMPDEST SWAP1 POP PUSH32 0x0 AND DUP3 EQ ISZERO DUP4 PUSH2 0x1166 JUMP JUMPDEST CALLVALUE PUSH2 0x61A JUMPI PUSH0 CALLDATASIZE PUSH1 0x3 NOT ADD SLT PUSH2 0x61A JUMPI PUSH1 0x40 MLOAD PUSH32 0x0 PUSH1 0x1 PUSH1 0x1 PUSH1 0xA0 SHL SUB AND DUP2 MSTORE PUSH1 0x20 SWAP1 RETURN JUMPDEST CALLVALUE PUSH2 0x61A JUMPI PUSH0 CALLDATASIZE PUSH1 0x3 NOT ADD SLT PUSH2 0x61A JUMPI PUSH1 0x40 MLOAD PUSH32 0x0 PUSH1 0x1 PUSH1 0x1 PUSH1 0xA0 SHL SUB AND DUP2 MSTORE PUSH1 0x20 SWAP1 RETURN JUMPDEST CALLVALUE PUSH2 0x61A JUMPI PUSH1 0x40 CALLDATASIZE PUSH1 0x3 NOT ADD SLT PUSH2 0x61A JUMPI PUSH1 0x1 PUSH1 0x1 PUSH1 0xA0 SHL SUB PUSH32 0x0 DUP2 DUP2 AND SWAP2 PUSH1 0x4 CALLDATALOAD PUSH1 0x24 CALLDATALOAD CALLER DUP6 SWAP1 SUB PUSH2 0xFC9 JUMPI PUSH2 0x13B8 PUSH2 0x1DAD JUMP JUMPDEST DUP2 ISZERO SWAP4 DUP5 DUP1 PUSH2 0x1493 JUMPI JUMPDEST PUSH2 0x5B1 JUMPI DUP2 PUSH1 0x40 SWAP5 PUSH32 0x19948FF51817CFFFB4BEA90377E4E0856548543989F12DA0067581324EA4AD09 SWAP7 ISZERO PUSH2 0x1451 JUMPI JUMPDEST DUP2 PUSH2 0x140D JUMPI JUMPDEST POP POP POP DUP3 MLOAD SWAP2 DUP3 MSTORE PUSH1 0x20 DUP3 ADD MSTORE LOG2 PUSH1 0x1 PUSH1 0x5 SSTORE STOP JUMPDEST PUSH2 0x143A SWAP3 ADDRESS SWAP2 PUSH32 0x0 AND PUSH2 0x1CF8 JUMP JUMPDEST PUSH2 0x1446 DUP2 PUSH1 0xA SLOAD PUSH2 0x1CBA JUMP JUMPDEST PUSH1 0xA SSTORE DUP6 DUP2 DUP2 PUSH2 0x13F8 JUMP JUMPDEST PUSH2 0x147F DUP6 ADDRESS DUP6 DUP5 PUSH32 0x0 AND PUSH2 0x1CF8 JUMP JUMPDEST PUSH2 0x148B DUP6 PUSH1 0x9 SLOAD PUSH2 0x1CBA JUMP JUMPDEST PUSH1 0x9 SSTORE PUSH2 0x13F2 JUMP JUMPDEST POP DUP2 ISZERO PUSH2 0x13C2 JUMP JUMPDEST CALLVALUE PUSH2 0x61A JUMPI PUSH1 0x20 CALLDATASIZE PUSH1 0x3 NOT ADD SLT PUSH2 0x61A JUMPI PUSH2 0x14B4 PUSH2 0x1BC1 JUMP JUMPDEST PUSH1 0x6 SLOAD PUSH1 0x1 PUSH1 0x1 PUSH1 0xA0 SHL SUB SWAP1 DUP2 AND CALLER SUB PUSH2 0x700 JUMPI DUP1 PUSH1 0x8 SLOAD SWAP3 AND SWAP2 DUP3 PUSH12 0xFFFFFFFFFFFFFFFFFFFFFFFF PUSH1 0xA0 SHL DUP3 AND OR PUSH1 0x8 SSTORE AND PUSH32 0xE4CEC16B1A7E6B7979E923DA619A8B1E5FD0F0FB6E5C1CF647F350430EE61CA9 PUSH0 DUP1 LOG3 STOP JUMPDEST CALLVALUE PUSH2 0x61A JUMPI PUSH0 CALLDATASIZE PUSH1 0x3 NOT ADD SLT PUSH2 0x61A JUMPI PUSH1 0x20 PUSH1 0x40 MLOAD PUSH1 0x12 DUP2 MSTORE RETURN JUMPDEST CALLVALUE PUSH2 0x61A JUMPI PUSH0 CALLDATASIZE PUSH1 0x3 NOT ADD SLT PUSH2 0x61A JUMPI PUSH1 0x20 PUSH1 0x40 MLOAD PUSH3 0xFFFFFF PUSH32 0x0 AND DUP2 MSTORE RETURN JUMPDEST CALLVALUE PUSH2 0x61A JUMPI PUSH1 0x60 CALLDATASIZE PUSH1 0x3 NOT ADD SLT PUSH2 0x61A JUMPI PUSH2 0x1580 PUSH2 0x1BC1 JUMP JUMPDEST PUSH2 0x1588 PUSH2 0x1BD7 JUMP JUMPDEST PUSH1 0x1 PUSH1 0x1 PUSH1 0xA0 SHL SUB DUP3 AND PUSH0 DUP2 DUP2 MSTORE PUSH1 0x1 PUSH1 0x20 SWAP1 DUP2 MSTORE PUSH1 0x40 DUP1 DUP4 KECCAK256 CALLER DUP5 MSTORE SWAP1 SWAP2 MSTORE SWAP1 KECCAK256 SLOAD SWAP3 PUSH1 0x44 CALLDATALOAD SWAP3 SWAP2 PUSH0 NOT DUP6 LT PUSH2 0x15C5 JUMPI JUMPDEST POP PUSH2 0xB4F SWAP4 POP PUSH2 0x1C0F JUMP JUMPDEST DUP4 DUP6 LT PUSH2 0x162B JUMPI DUP1 ISZERO PUSH2 0x1613 JUMPI CALLER ISZERO PUSH2 0x15FB JUMPI PUSH2 0xB4F SWAP5 DUP5 SWAP2 PUSH0 MSTORE PUSH1 0x1 PUSH1 0x20 MSTORE PUSH1 0x40 PUSH0 KECCAK256 CALLER PUSH0 MSTORE PUSH1 0x20 MSTORE SUB PUSH1 0x40 PUSH0 KECCAK256 SSTORE DUP5 PUSH2 0x15BA JUMP JUMPDEST PUSH1 0x40 MLOAD PUSH4 0x4A1406B1 PUSH1 0xE1 SHL DUP2 MSTORE PUSH0 PUSH1 0x4 DUP3 ADD MSTORE PUSH1 0x24 SWAP1 REVERT JUMPDEST PUSH1 0x40 MLOAD PUSH4 0xE602DF05 PUSH1 0xE0 SHL DUP2 MSTORE PUSH0 PUSH1 0x4 DUP3 ADD MSTORE PUSH1 0x24 SWAP1 REVERT JUMPDEST PUSH1 0x40 MLOAD PUSH4 0x7DC7A0D9 PUSH1 0xE1 SHL DUP2 MSTORE CALLER PUSH1 0x4 DUP3 ADD MSTORE PUSH1 0x24 DUP2 ADD DUP7 SWAP1 MSTORE PUSH1 0x44 DUP2 ADD DUP6 SWAP1 MSTORE PUSH1 0x64 SWAP1 REVERT JUMPDEST CALLVALUE PUSH2 0x61A JUMPI PUSH0 CALLDATASIZE PUSH1 0x3 NOT ADD SLT PUSH2 0x61A JUMPI PUSH1 0x7 SLOAD PUSH1 0x1 PUSH1 0x1 PUSH1 0xA0 SHL SUB DUP1 DUP3 AND SWAP2 CALLER DUP4 SWAP1 SUB PUSH2 0x700 JUMPI PUSH1 0x6 DUP1 SLOAD PUSH1 0x1 PUSH1 0x1 PUSH1 0xA0 SHL SUB NOT DUP1 DUP3 AND DUP7 OR SWAP1 SWAP3 SSTORE SWAP2 AND PUSH1 0x7 SSTORE AND PUSH32 0x5F56BEE8CFFBE9A78652A74A60705EDEDE02AF10B0BBB888CA44B79A0D42CE80 PUSH0 DUP1 LOG3 STOP JUMPDEST CALLVALUE PUSH2 0x61A JUMPI PUSH0 CALLDATASIZE PUSH1 0x3 NOT ADD SLT PUSH2 0x61A JUMPI PUSH1 0x20 PUSH1 0xA SLOAD PUSH1 0x40 MLOAD SWAP1 DUP2 MSTORE RETURN JUMPDEST CALLVALUE PUSH2 0x61A JUMPI PUSH1 0x20 CALLDATASIZE PUSH1 0x3 NOT ADD SLT PUSH2 0x61A JUMPI PUSH1 0x4 CALLDATALOAD DUP1 ISZERO ISZERO DUP1 SWAP2 SUB PUSH2 0x61A JUMPI PUSH1 0x6 SLOAD PUSH1 0x1 PUSH1 0x1 PUSH1 0xA0 SHL SUB AND CALLER SUB PUSH2 0x700 JUMPI PUSH1 0x20 PUSH32 0x9723F28D4ABAFF5DF0F62BFB2418F2AAC4A739B259EDF209B8DC9944FA85AA78 SWAP2 PUSH1 0xFF NOT PUSH1 0xB SLOAD AND PUSH1 0xFF DUP3 AND OR PUSH1 0xB SSTORE PUSH1 0x40 MLOAD SWAP1 DUP2 MSTORE LOG1 STOP JUMPDEST CALLVALUE PUSH2 0x61A JUMPI PUSH0 CALLDATASIZE PUSH1 0x3 NOT ADD SLT PUSH2 0x61A JUMPI PUSH1 0x20 PUSH1 0x2 SLOAD PUSH1 0x40 MLOAD SWAP1 DUP2 MSTORE RETURN JUMPDEST CALLVALUE PUSH2 0x61A JUMPI PUSH0 CALLDATASIZE PUSH1 0x3 NOT ADD SLT PUSH2 0x61A JUMPI PUSH1 0x40 MLOAD PUSH32 0x0 PUSH1 0x1 PUSH1 0x1 PUSH1 0xA0 SHL SUB AND DUP2 MSTORE PUSH1 0x20 SWAP1 RETURN JUMPDEST CALLVALUE PUSH2 0x61A JUMPI PUSH1 0x20 CALLDATASIZE PUSH1 0x3 NOT ADD SLT PUSH2 0x61A JUMPI PUSH1 0x40 PUSH2 0xD8B PUSH1 0x4 CALLDATALOAD PUSH2 0x1E19 JUMP JUMPDEST CALLVALUE PUSH2 0x61A JUMPI PUSH1 0x40 CALLDATASIZE PUSH1 0x3 NOT ADD SLT PUSH2 0x61A JUMPI PUSH2 0x17DA PUSH2 0x1BC1 JUMP JUMPDEST PUSH1 0x24 CALLDATALOAD SWAP1 CALLER ISZERO PUSH2 0x1613 JUMPI PUSH1 0x1 PUSH1 0x1 PUSH1 0xA0 SHL SUB AND SWAP1 DUP2 ISZERO PUSH2 0x15FB JUMPI CALLER PUSH0 MSTORE PUSH1 0x1 PUSH1 0x20 MSTORE PUSH1 0x40 PUSH0 KECCAK256 DUP3 PUSH0 MSTORE PUSH1 0x20 MSTORE DUP1 PUSH1 0x40 PUSH0 KECCAK256 SSTORE PUSH1 0x40 MLOAD SWAP1 DUP2 MSTORE PUSH32 0x8C5BE1E5EBEC7D5BD14F71427D1E84F3DD0314C0F7B2291E5B200AC8C7C3B925 PUSH1 0x20 CALLER SWAP3 LOG3 PUSH1 0x20 PUSH1 0x40 MLOAD PUSH1 0x1 DUP2 MSTORE RETURN JUMPDEST CALLVALUE PUSH2 0x61A JUMPI PUSH0 CALLDATASIZE PUSH1 0x3 NOT ADD SLT PUSH2 0x61A JUMPI PUSH1 0x40 PUSH1 0x9 SLOAD PUSH1 0xA SLOAD DUP3 MLOAD SWAP2 DUP3 MSTORE PUSH1 0x20 DUP3 ADD MSTORE RETURN JUMPDEST CALLVALUE PUSH2 0x61A JUMPI PUSH0 CALLDATASIZE PUSH1 0x3 NOT ADD SLT PUSH2 0x61A JUMPI PUSH1 0x40 MLOAD PUSH0 PUSH1 0x3 SLOAD SWAP1 PUSH1 0x1 DUP3 DUP2 SHR SWAP2 DUP2 DUP5 AND SWAP2 DUP3 ISZERO PUSH2 0x191B JUMPI JUMPDEST PUSH1 0x20 SWAP5 DUP6 DUP6 LT DUP5 EQ PUSH2 0xE80 JUMPI DUP6 DUP8 SWAP5 DUP7 DUP7 MSTORE SWAP2 DUP3 PUSH0 EQ PUSH2 0xE60 JUMPI POP POP PUSH1 0x1 EQ PUSH2 0x18C0 JUMPI POP PUSH2 0xDF1 SWAP3 POP SUB DUP4 PUSH2 0x1BED JUMP JUMPDEST DUP5 SWAP2 POP PUSH1 0x3 PUSH0 MSTORE PUSH32 0xC2575A0E9E593C00F959F8C92F12DB2869C3395A3B0502D05E2516446F71F85B SWAP1 PUSH0 SWAP2 JUMPDEST DUP6 DUP4 LT PUSH2 0x1903 JUMPI POP POP PUSH2 0xDF1 SWAP4 POP DUP3 ADD ADD DUP6 PUSH2 0xDE4 JUMP JUMPDEST DUP1 SLOAD DUP4 DUP10 ADD DUP6 ADD MSTORE DUP8 SWAP5 POP DUP7 SWAP4 SWAP1 SWAP3 ADD SWAP2 DUP2 ADD PUSH2 0x18EC JUMP JUMPDEST SWAP3 PUSH1 0x7F AND SWAP3 PUSH2 0x1890 JUMP JUMPDEST CALLVALUE PUSH2 0x61A JUMPI PUSH2 0x1933 CALLDATASIZE PUSH2 0x1B69 JUMP JUMPDEST SWAP1 SWAP2 PUSH2 0x193D PUSH2 0x1DAD JUMP JUMPDEST PUSH1 0xFF PUSH1 0xB SLOAD AND PUSH2 0x1B57 JUMPI PUSH2 0x3E8 DUP1 DUP3 LT SWAP1 DUP2 ISZERO PUSH2 0x1B4D JUMPI JUMPDEST POP PUSH2 0x5B1 JUMPI PUSH1 0x2 SLOAD DUP1 PUSH2 0x1B0A JUMPI POP PUSH2 0x196D DUP4 DUP3 PUSH2 0x1CC7 JUMP JUMPDEST SWAP2 PUSH0 PUSH1 0x3 DUP5 GT ISZERO PUSH2 0x1AFB JUMPI POP DUP3 PUSH1 0x1 SWAP1 DUP1 DUP3 SHR DUP3 DUP2 ADD DUP1 SWAP2 GT PUSH2 0x57C JUMPI SWAP2 SWAP1 JUMPDEST DUP6 DUP4 LT PUSH2 0x1ADB JUMPI POP POP POP JUMPDEST DUP3 ISZERO PUSH2 0x5B1 JUMPI JUMPDEST DUP3 LT PUSH2 0xD5B JUMPI PUSH2 0x1A0A DUP4 PUSH1 0x1 PUSH1 0x1 PUSH1 0xA0 SHL SUB PUSH2 0x19DF DUP5 ADDRESS CALLER PUSH32 0x0 DUP6 AND PUSH2 0x1CF8 JUMP JUMPDEST ADDRESS SWAP1 CALLER SWAP1 PUSH32 0x0 AND PUSH2 0x1CF8 JUMP JUMPDEST PUSH2 0x1A16 DUP2 PUSH1 0x9 SLOAD PUSH2 0x1CBA JUMP JUMPDEST PUSH1 0x9 SSTORE PUSH2 0x1A25 DUP4 PUSH1 0xA SLOAD PUSH2 0x1CBA JUMP JUMPDEST PUSH1 0xA SSTORE CALLER ISZERO PUSH2 0x1AC3 JUMPI PUSH32 0x91EDE45F04A37A7C170F5C1207DF3B6BC748DC1E04AD5E917A241D0F52FEADA3 DUP3 PUSH1 0x20 SWAP5 PUSH2 0x1A5F DUP3 PUSH1 0x2 SLOAD PUSH2 0x1CBA JUMP JUMPDEST PUSH1 0x2 SSTORE CALLER PUSH0 MSTORE PUSH0 DUP7 MSTORE PUSH1 0x40 PUSH0 KECCAK256 DUP3 DUP2 SLOAD ADD SWAP1 SSTORE PUSH1 0x40 MLOAD DUP3 DUP2 MSTORE PUSH0 PUSH32 0xDDF252AD1BE2C89B69C2B068FC378DAA952BA7F163C4A11628F55A4DF523B3EF DUP9 CALLER SWAP4 LOG3 PUSH1 0x40 DUP1 MLOAD SWAP5 DUP6 MSTORE PUSH1 0x20 DUP6 ADD SWAP2 SWAP1 SWAP2 MSTORE DUP4 ADD MSTORE CALLER SWAP2 PUSH1 0x60 SWAP1 LOG2 PUSH1 0x1 PUSH1 0x5 SSTORE PUSH1 0x40 MLOAD SWAP1 DUP2 MSTORE RETURN JUMPDEST PUSH1 0x40 MLOAD PUSH4 0xEC442F05 PUSH1 0xE0 SHL DUP2 MSTORE PUSH0 PUSH1 0x4 DUP3 ADD MSTORE PUSH1 0x24 SWAP1 REVERT JUMPDEST SWAP1 SWAP2 SWAP5 POP PUSH2 0x1AF2 DUP6 PUSH2 0x1AED DUP2 DUP5 PUSH2 0x1CDA JUMP JUMPDEST PUSH2 0x1CBA JUMP JUMPDEST DUP3 SHR SWAP2 SWAP1 PUSH2 0x198D JUMP JUMPDEST SWAP3 ISZERO PUSH2 0x1998 JUMPI PUSH1 0x1 SWAP3 POP PUSH2 0x1998 JUMP JUMPDEST PUSH2 0x1B36 PUSH2 0x1B2D PUSH2 0x1B26 PUSH2 0x1B1D DUP5 DUP7 PUSH2 0x1CC7 JUMP JUMPDEST PUSH1 0x9 SLOAD SWAP1 PUSH2 0x1CDA JUMP JUMPDEST SWAP3 DUP7 PUSH2 0x1CC7 JUMP JUMPDEST PUSH1 0xA SLOAD SWAP1 PUSH2 0x1CDA JUMP JUMPDEST DUP1 DUP3 LT ISZERO PUSH2 0x1B46 JUMPI POP JUMPDEST SWAP2 PUSH2 0x199F JUMP JUMPDEST SWAP1 POP PUSH2 0x1B40 JUMP JUMPDEST SWAP1 POP DUP4 LT DUP5 PUSH2 0x1955 JUMP JUMPDEST PUSH1 0x40 MLOAD PUSH4 0xDEEB6943 PUSH1 0xE0 SHL DUP2 MSTORE PUSH1 0x4 SWAP1 REVERT JUMPDEST PUSH1 0x60 SWAP1 PUSH1 0x3 NOT ADD SLT PUSH2 0x61A JUMPI PUSH1 0x4 CALLDATALOAD SWAP1 PUSH1 0x24 CALLDATALOAD SWAP1 PUSH1 0x44 CALLDATALOAD SWAP1 JUMP JUMPDEST SWAP2 SWAP1 DUP3 MLOAD SWAP3 DUP4 DUP3 MSTORE PUSH0 JUMPDEST DUP5 DUP2 LT PUSH2 0x1BAD JUMPI POP POP DUP3 PUSH0 PUSH1 0x20 DUP1 SWAP5 SWAP6 DUP5 ADD ADD MSTORE PUSH1 0x1F DUP1 NOT SWAP2 ADD AND ADD ADD SWAP1 JUMP JUMPDEST PUSH1 0x20 DUP2 DUP4 ADD DUP2 ADD MLOAD DUP5 DUP4 ADD DUP3 ADD MSTORE ADD PUSH2 0x1B8D JUMP JUMPDEST PUSH1 0x4 CALLDATALOAD SWAP1 PUSH1 0x1 PUSH1 0x1 PUSH1 0xA0 SHL SUB DUP3 AND DUP3 SUB PUSH2 0x61A JUMPI JUMP JUMPDEST PUSH1 0x24 CALLDATALOAD SWAP1 PUSH1 0x1 PUSH1 0x1 PUSH1 0xA0 SHL SUB DUP3 AND DUP3 SUB PUSH2 0x61A JUMPI JUMP JUMPDEST SWAP1 PUSH1 0x1F DUP1 NOT SWAP2 ADD AND DUP2 ADD SWAP1 DUP2 LT PUSH8 0xFFFFFFFFFFFFFFFF DUP3 GT OR PUSH2 0x1250 JUMPI PUSH1 0x40 MSTORE JUMP JUMPDEST SWAP2 PUSH1 0x1 PUSH1 0x1 PUSH1 0xA0 SHL SUB DUP1 DUP5 AND SWAP3 DUP4 ISZERO PUSH2 0xD39 JUMPI AND SWAP3 DUP4 ISZERO PUSH2 0x1AC3 JUMPI PUSH0 SWAP1 DUP4 DUP3 MSTORE DUP2 PUSH1 0x20 MSTORE PUSH1 0x40 DUP3 KECCAK256 SLOAD SWAP1 DUP4 DUP3 LT PUSH2 0x1C88 JUMPI POP SWAP2 PUSH1 0x40 DUP3 DUP3 PUSH32 0xDDF252AD1BE2C89B69C2B068FC378DAA952BA7F163C4A11628F55A4DF523B3EF SWAP6 DUP8 PUSH1 0x20 SWAP7 MSTORE DUP3 DUP7 MSTORE SUB DUP3 DUP3 KECCAK256 SSTORE DUP7 DUP2 MSTORE KECCAK256 DUP2 DUP2 SLOAD ADD SWAP1 SSTORE PUSH1 0x40 MLOAD SWAP1 DUP2 MSTORE LOG3 JUMP JUMPDEST PUSH1 0x40 MLOAD PUSH4 0x391434E3 PUSH1 0xE2 SHL DUP2 MSTORE PUSH1 0x1 PUSH1 0x1 PUSH1 0xA0 SHL SUB SWAP2 SWAP1 SWAP2 AND PUSH1 0x4 DUP3 ADD MSTORE PUSH1 0x24 DUP2 ADD SWAP2 SWAP1 SWAP2 MSTORE PUSH1 0x44 DUP2 ADD DUP4 SWAP1 MSTORE PUSH1 0x64 SWAP1 REVERT JUMPDEST SWAP2 SWAP1 DUP3 ADD DUP1 SWAP3 GT PUSH2 0x57C JUMPI JUMP JUMPDEST DUP2 DUP2 MUL SWAP3 SWAP2 DUP2 ISZERO SWAP2 DUP5 DIV EQ OR ISZERO PUSH2 0x57C JUMPI JUMP JUMPDEST DUP2 ISZERO PUSH2 0x1CE4 JUMPI DIV SWAP1 JUMP JUMPDEST PUSH4 0x4E487B71 PUSH1 0xE0 SHL PUSH0 MSTORE PUSH1 0x12 PUSH1 0x4 MSTORE PUSH1 0x24 PUSH0 REVERT JUMPDEST PUSH1 0x40 MLOAD PUSH4 0x23B872DD PUSH1 0xE0 SHL PUSH1 0x20 DUP3 ADD MSTORE PUSH1 0x1 PUSH1 0x1 PUSH1 0xA0 SHL SUB SWAP3 DUP4 AND PUSH1 0x24 DUP3 ADD MSTORE SWAP3 SWAP1 SWAP2 AND PUSH1 0x44 DUP4 ADD MSTORE PUSH1 0x64 DUP1 DUP4 ADD SWAP4 SWAP1 SWAP4 MSTORE SWAP2 DUP2 MSTORE PUSH1 0xA0 DUP2 ADD SWAP2 DUP2 DUP4 LT PUSH8 0xFFFFFFFFFFFFFFFF DUP5 GT OR PUSH2 0x1250 JUMPI PUSH2 0x1D51 SWAP3 PUSH1 0x40 MSTORE PUSH2 0x1D53 JUMP JUMPDEST JUMP JUMPDEST SWAP1 PUSH0 PUSH1 0x20 SWAP2 DUP3 DUP2 MLOAD SWAP2 ADD DUP3 DUP6 GAS CALL ISZERO PUSH2 0x9C4 JUMPI PUSH0 MLOAD RETURNDATASIZE PUSH2 0x1DA4 JUMPI POP PUSH1 0x1 PUSH1 0x1 PUSH1 0xA0 SHL SUB DUP2 AND EXTCODESIZE ISZERO JUMPDEST PUSH2 0x1D82 JUMPI POP JUMP JUMPDEST PUSH1 0x40 MLOAD PUSH4 0x5274AFE7 PUSH1 0xE0 SHL DUP2 MSTORE PUSH1 0x1 PUSH1 0x1 PUSH1 0xA0 SHL SUB SWAP1 SWAP2 AND PUSH1 0x4 DUP3 ADD MSTORE PUSH1 0x24 SWAP1 REVERT JUMPDEST PUSH1 0x1 EQ ISZERO PUSH2 0x1D7B JUMP JUMPDEST PUSH1 0x2 PUSH1 0x5 SLOAD EQ PUSH2 0x1DBE JUMPI PUSH1 0x2 PUSH1 0x5 SSTORE JUMP JUMPDEST PUSH1 0x40 MLOAD PUSH4 0x3EE5AEB5 PUSH1 0xE0 SHL DUP2 MSTORE PUSH1 0x4 SWAP1 REVERT JUMPDEST SWAP2 SWAP1 DUP3 SUB SWAP2 DUP3 GT PUSH2 0x57C JUMPI JUMP JUMPDEST PUSH1 0x40 MLOAD PUSH4 0xA9059CBB PUSH1 0xE0 SHL PUSH1 0x20 DUP3 ADD MSTORE PUSH1 0x1 PUSH1 0x1 PUSH1 0xA0 SHL SUB SWAP3 SWAP1 SWAP3 AND PUSH1 0x24 DUP4 ADD MSTORE PUSH1 0x44 DUP1 DUP4 ADD SWAP4 SWAP1 SWAP4 MSTORE SWAP2 DUP2 MSTORE PUSH2 0x1D51 SWAP2 PUSH2 0x1249 PUSH1 0x64 DUP4 PUSH2 0x1BED JUMP JUMPDEST SWAP1 DUP2 ISZERO DUP1 ISZERO PUSH2 0x1E54 JUMPI JUMPDEST PUSH2 0x1E4D JUMPI PUSH2 0x1E4A PUSH1 0x2 SLOAD PUSH2 0xBC5 PUSH2 0x1E40 DUP3 PUSH2 0xBC5 PUSH1 0x9 SLOAD DUP9 PUSH2 0x1CC7 JUMP JUMPDEST SWAP5 PUSH1 0xA SLOAD SWAP1 PUSH2 0x1CC7 JUMP JUMPDEST SWAP1 JUMP JUMPDEST PUSH0 SWAP2 POP DUP2 SWAP1 JUMP JUMPDEST POP PUSH1 0x2 SLOAD ISZERO PUSH2 0x1E23 JUMP JUMPDEST SWAP1 PUSH1 0x2 SLOAD DUP1 ISZERO PUSH2 0x1E7F JUMPI DUP1 PUSH2 0xBC5 PUSH2 0x1E40 PUSH2 0x1E4A SWAP4 PUSH2 0xBC5 PUSH1 0x9 SLOAD DUP9 PUSH2 0x1CC7 JUMP JUMPDEST POP PUSH0 SWAP2 POP DUP2 SWAP1 JUMP INVALID LOG2 PUSH5 0x6970667358 0x22 SLT KECCAK256 0xB3 SELFBALANCE 0xD0 0x4F 0xCA 0xC7 0xB3 0xCC DUP16 SDIV 0xE3 0xAD AND 0x2B 0xE1 SWAP3 ORIGIN CALLDATASIZE XOR 0xF6 0xB3 CALLDATASIZE 0xE8 LOG0 0xB8 CALLDATASIZE 0x1E SWAP2 0xE9 SWAP7 CODECOPY EXTCODEHASH PUSH5 0x736F6C6343 STOP ADDMOD EQ STOP CALLER "},"methodIdentifiers":{"MIN_DEPOSIT()":"e1e158a5","acceptGovernance()":"238efcbc","allowance(address,address)":"dd62ed3e","approve(address,uint256)":"095ea7b3","approveStrategy(address,uint256)":"4cc15d64","balanceOf(address)":"70a08231","decimals()":"313ce567","deposit(uint256,uint256,uint256)":"00aeef8a","depositsPaused()":"60da3e83","factory()":"c45a0155","gateway()":"116191b6","getReserves()":"0902f1ac","getTokens()":"aa6ca808","governance()":"5aa6e675","name()":"06fdde03","pendingGovernance()":"f39c38a0","previewWithdraw(uint256)":"0a28a477","projectToken()":"4b60ce77","protocolFeeRecipient()":"64df049e","protocolFeeShareBps()":"9040f866","rebalance(bytes)":"b269add3","returnLiquidity(uint256,uint256)":"379bc380","setDepositsPaused(bool)":"1c481e2d","setStrategy(address)":"33a100ca","shareValue(uint256)":"974d8c93","strategy()":"a8c62e76","swap(address,uint256,uint256,address)":"f3e6ea8a","swapFeeBps()":"2ffdaf89","symbol()":"95d89b41","totalProjectToken()":"54d18864","totalSupply()":"18160ddd","totalUSDC()":"1dec1515","transfer(address,uint256)":"a9059cbb","transferFrom(address,address,uint256)":"23b872dd","transferGovernance(address)":"d38bfff4","usdc()":"3e413bee","withdraw(uint256,uint256,uint256)":"a41fe49f","withdrawForAggregation(uint32)":"94fc8a7d"}}}}}