{"project/core/FluxaGateway.sol":{"FluxaGateway":{"abi":[{"inputs":[{"internalType":"address","name":"_token","type":"address"},{"internalType":"bool","name":"_isSource","type":"bool"},{"internalType":"uint32","name":"_chainId","type":"uint32"},{"internalType":"address","name":"_coordinator","type":"address"},{"internalType":"address","name":"_usdcAggregator","type":"address"},{"internalType":"address","name":"_usdc","type":"address"}],"stateMutability":"nonpayable","type":"constructor"},{"inputs":[{"internalType":"address","name":"owner","type":"address"}],"name":"OwnableInvalidOwner","type":"error"},{"inputs":[{"internalType":"address","name":"account","type":"address"}],"name":"OwnableUnauthorizedAccount","type":"error"},{"inputs":[],"name":"ReentrancyGuardReentrantCall","type":"error"},{"inputs":[{"internalType":"address","name":"token","type":"address"}],"name":"SafeERC20FailedOperation","type":"error"},{"anonymous":false,"inputs":[{"indexed":true,"internalType":"address","name":"oldCoordinator","type":"address"},{"indexed":true,"internalType":"address","name":"newCoordinator","type":"address"}],"name":"CoordinatorUpdated","type":"event"},{"anonymous":false,"inputs":[{"indexed":true,"internalType":"uint32","name":"destChain","type":"uint32"},{"indexed":false,"internalType":"uint256","name":"flxAmount","type":"uint256"},{"indexed":false,"internalType":"uint256","name":"usdcAmount","type":"uint256"}],"name":"LiquidityAggregationInitiated","type":"event"},{"anonymous":false,"inputs":[{"indexed":false,"internalType":"uint256","name":"flxAmount","type":"uint256"},{"indexed":false,"internalType":"uint256","name":"usdcAmount","type":"uint256"}],"name":"LiquidityRepopulated","type":"event"},{"anonymous":false,"inputs":[{"indexed":true,"internalType":"address","name":"previousOwner","type":"address"},{"indexed":true,"internalType":"address","name":"newOwner","type":"address"}],"name":"OwnershipTransferred","type":"event"},{"anonymous":false,"inputs":[{"indexed":true,"internalType":"address","name":"depositor","type":"address"},{"indexed":false,"internalType":"uint256","name":"amount","type":"uint256"},{"indexed":false,"internalType":"uint32","name":"sourceChain","type":"uint32"},{"indexed":false,"internalType":"uint32","name":"destinationChain","type":"uint32"},{"indexed":false,"internalType":"address","name":"destinationRecipient","type":"address"},{"indexed":false,"internalType":"uint256","name":"nonce","type":"uint256"}],"name":"TokenDeposited","type":"event"},{"anonymous":false,"inputs":[{"indexed":true,"internalType":"uint32","name":"sourceChain","type":"uint32"},{"indexed":true,"internalType":"address","name":"recipient","type":"address"},{"indexed":false,"internalType":"uint256","name":"amount","type":"uint256"},{"indexed":false,"internalType":"uint256","name":"nonce","type":"uint256"}],"name":"TokensReleased","type":"event"},{"anonymous":false,"inputs":[{"indexed":true,"internalType":"address","name":"vault","type":"address"}],"name":"VaultSet","type":"event"},{"anonymous":false,"inputs":[{"indexed":true,"internalType":"address","name":"wrappedToken","type":"address"}],"name":"WrappedTokenUpdated","type":"event"},{"anonymous":false,"inputs":[{"indexed":true,"internalType":"address","name":"burner","type":"address"},{"indexed":false,"internalType":"uint256","name":"amount","type":"uint256"},{"indexed":false,"internalType":"uint32","name":"destinationChain","type":"uint32"},{"indexed":false,"internalType":"uint32","name":"originChain","type":"uint32"},{"indexed":false,"internalType":"address","name":"originRecipient","type":"address"},{"indexed":false,"internalType":"uint256","name":"nonce","type":"uint256"}],"name":"WrappedTokensBurned","type":"event"},{"anonymous":false,"inputs":[{"indexed":true,"internalType":"uint32","name":"sourceChain","type":"uint32"},{"indexed":true,"internalType":"address","name":"recipient","type":"address"},{"indexed":false,"internalType":"uint256","name":"amount","type":"uint256"},{"indexed":false,"internalType":"uint256","name":"nonce","type":"uint256"}],"name":"WrappedTokensMinted","type":"event"},{"inputs":[],"name":"PROCESSING_DELAY","outputs":[{"internalType":"uint256","name":"","type":"uint256"}],"stateMutability":"view","type":"function"},{"inputs":[],"name":"accumulatedFees","outputs":[{"internalType":"uint256","name":"","type":"uint256"}],"stateMutability":"view","type":"function"},{"inputs":[{"internalType":"uint32","name":"destChain","type":"uint32"}],"name":"aggregateLiquidity","outputs":[{"internalType":"uint256","name":"flxAmount","type":"uint256"},{"internalType":"uint256","name":"usdcAmount","type":"uint256"}],"stateMutability":"nonpayable","type":"function"},{"inputs":[{"internalType":"uint256","name":"amount","type":"uint256"},{"internalType":"uint32","name":"originChain","type":"uint32"},{"internalType":"address","name":"originRecipient","type":"address"},{"internalType":"uint256","name":"priorityFee","type":"uint256"}],"name":"burnForUnwrap","outputs":[{"internalType":"uint256","name":"nonce","type":"uint256"}],"stateMutability":"nonpayable","type":"function"},{"inputs":[{"internalType":"uint32","name":"","type":"uint32"}],"name":"burnNonces","outputs":[{"internalType":"uint256","name":"","type":"uint256"}],"stateMutability":"view","type":"function"},{"inputs":[],"name":"chainId","outputs":[{"internalType":"uint32","name":"","type":"uint32"}],"stateMutability":"view","type":"function"},{"inputs":[],"name":"coordinator","outputs":[{"internalType":"address","name":"","type":"address"}],"stateMutability":"view","type":"function"},{"inputs":[{"internalType":"uint256","name":"amount","type":"uint256"},{"internalType":"uint32","name":"destinationChain","type":"uint32"},{"internalType":"address","name":"destinationRecipient","type":"address"},{"internalType":"uint256","name":"priorityFee","type":"uint256"}],"name":"depositForWrap","outputs":[{"internalType":"uint256","name":"nonce","type":"uint256"}],"stateMutability":"nonpayable","type":"function"},{"inputs":[{"internalType":"uint32","name":"","type":"uint32"}],"name":"depositNonces","outputs":[{"internalType":"uint256","name":"","type":"uint256"}],"stateMutability":"view","type":"function"},{"inputs":[],"name":"getAccumulatedFees","outputs":[{"internalType":"uint256","name":"","type":"uint256"}],"stateMutability":"view","type":"function"},{"inputs":[{"internalType":"uint32","name":"destChain","type":"uint32"}],"name":"getDepositNonce","outputs":[{"internalType":"uint256","name":"","type":"uint256"}],"stateMutability":"view","type":"function"},{"inputs":[],"name":"getPendingBurnsCount","outputs":[{"internalType":"uint256","name":"","type":"uint256"}],"stateMutability":"view","type":"function"},{"inputs":[],"name":"getPendingDepositsCount","outputs":[{"internalType":"uint256","name":"","type":"uint256"}],"stateMutability":"view","type":"function"},{"inputs":[],"name":"getTotalLocked","outputs":[{"internalType":"uint256","name":"","type":"uint256"}],"stateMutability":"view","type":"function"},{"inputs":[{"internalType":"uint32","name":"sourceChain","type":"uint32"}],"name":"getTotalWrapped","outputs":[{"internalType":"uint256","name":"","type":"uint256"}],"stateMutability":"view","type":"function"},{"inputs":[{"internalType":"uint32","name":"sourceChain","type":"uint32"},{"internalType":"uint256","name":"nonce","type":"uint256"}],"name":"isNonceProcessed","outputs":[{"internalType":"bool","name":"","type":"bool"}],"stateMutability":"view","type":"function"},{"inputs":[],"name":"isSource","outputs":[{"internalType":"bool","name":"","type":"bool"}],"stateMutability":"view","type":"function"},{"inputs":[{"internalType":"uint256[]","name":"indices","type":"uint256[]"}],"name":"markBurnsProcessed","outputs":[],"stateMutability":"nonpayable","type":"function"},{"inputs":[{"internalType":"uint256[]","name":"indices","type":"uint256[]"}],"name":"markDepositsProcessed","outputs":[],"stateMutability":"nonpayable","type":"function"},{"inputs":[{"internalType":"uint32","name":"sourceChain","type":"uint32"},{"internalType":"address","name":"recipient","type":"address"},{"internalType":"uint256","name":"amount","type":"uint256"},{"internalType":"uint256","name":"nonce","type":"uint256"}],"name":"mintWrapped","outputs":[],"stateMutability":"nonpayable","type":"function"},{"inputs":[],"name":"owner","outputs":[{"internalType":"address","name":"","type":"address"}],"stateMutability":"view","type":"function"},{"inputs":[{"internalType":"uint256","name":"","type":"uint256"}],"name":"pendingBurns","outputs":[{"internalType":"uint32","name":"destChain","type":"uint32"},{"internalType":"address","name":"recipient","type":"address"},{"internalType":"uint256","name":"amount","type":"uint256"},{"internalType":"uint256","name":"nonce","type":"uint256"},{"internalType":"uint256","name":"timestamp","type":"uint256"},{"internalType":"uint256","name":"priorityFee","type":"uint256"},{"internalType":"bool","name":"processed","type":"bool"}],"stateMutability":"view","type":"function"},{"inputs":[{"internalType":"uint256","name":"","type":"uint256"}],"name":"pendingDeposits","outputs":[{"internalType":"uint32","name":"sourceChain","type":"uint32"},{"internalType":"address","name":"recipient","type":"address"},{"internalType":"uint256","name":"amount","type":"uint256"},{"internalType":"uint256","name":"nonce","type":"uint256"},{"internalType":"uint256","name":"timestamp","type":"uint256"},{"internalType":"uint256","name":"priorityFee","type":"uint256"},{"internalType":"bool","name":"processed","type":"bool"}],"stateMutability":"view","type":"function"},{"inputs":[],"name":"processPendingBurnsInfo","outputs":[{"internalType":"uint256[]","name":"readyIndices","type":"uint256[]"},{"internalType":"uint32[]","name":"destChains","type":"uint32[]"},{"internalType":"address[]","name":"recipients","type":"address[]"},{"internalType":"uint256[]","name":"amounts","type":"uint256[]"},{"internalType":"uint256[]","name":"nonces","type":"uint256[]"},{"internalType":"uint256[]","name":"priorityFees","type":"uint256[]"}],"stateMutability":"view","type":"function"},{"inputs":[],"name":"processPendingDepositsInfo","outputs":[{"internalType":"uint256[]","name":"readyIndices","type":"uint256[]"},{"internalType":"uint32[]","name":"sourceChains","type":"uint32[]"},{"internalType":"address[]","name":"recipients","type":"address[]"},{"internalType":"uint256[]","name":"amounts","type":"uint256[]"},{"internalType":"uint256[]","name":"nonces","type":"uint256[]"},{"internalType":"uint256[]","name":"priorityFees","type":"uint256[]"}],"stateMutability":"view","type":"function"},{"inputs":[{"internalType":"uint32","name":"","type":"uint32"},{"internalType":"uint256","name":"","type":"uint256"}],"name":"processedNonces","outputs":[{"internalType":"bool","name":"","type":"bool"}],"stateMutability":"view","type":"function"},{"inputs":[{"internalType":"uint32","name":"destChain","type":"uint32"},{"internalType":"address","name":"recipient","type":"address"},{"internalType":"uint256","name":"amount","type":"uint256"},{"internalType":"uint256","name":"nonce","type":"uint256"}],"name":"releaseTokens","outputs":[],"stateMutability":"nonpayable","type":"function"},{"inputs":[],"name":"renounceOwnership","outputs":[],"stateMutability":"nonpayable","type":"function"},{"inputs":[{"internalType":"uint256","name":"flxAmount","type":"uint256"},{"internalType":"uint256","name":"usdcAmount","type":"uint256"}],"name":"repopulateVault","outputs":[],"stateMutability":"nonpayable","type":"function"},{"inputs":[{"internalType":"address","name":"_coordinator","type":"address"}],"name":"setCoordinator","outputs":[],"stateMutability":"nonpayable","type":"function"},{"inputs":[{"internalType":"address","name":"_vault","type":"address"}],"name":"setVault","outputs":[],"stateMutability":"nonpayable","type":"function"},{"inputs":[{"internalType":"address","name":"_wrappedToken","type":"address"}],"name":"setWrappedToken","outputs":[],"stateMutability":"nonpayable","type":"function"},{"inputs":[],"name":"token","outputs":[{"internalType":"address","name":"","type":"address"}],"stateMutability":"view","type":"function"},{"inputs":[],"name":"totalLocked","outputs":[{"internalType":"uint256","name":"","type":"uint256"}],"stateMutability":"view","type":"function"},{"inputs":[{"internalType":"uint32","name":"","type":"uint32"}],"name":"totalWrapped","outputs":[{"internalType":"uint256","name":"","type":"uint256"}],"stateMutability":"view","type":"function"},{"inputs":[{"internalType":"address","name":"newOwner","type":"address"}],"name":"transferOwnership","outputs":[],"stateMutability":"nonpayable","type":"function"},{"inputs":[],"name":"usdc","outputs":[{"internalType":"address","name":"","type":"address"}],"stateMutability":"view","type":"function"},{"inputs":[],"name":"usdcAggregator","outputs":[{"internalType":"address","name":"","type":"address"}],"stateMutability":"view","type":"function"},{"inputs":[],"name":"vault","outputs":[{"internalType":"address","name":"","type":"address"}],"stateMutability":"view","type":"function"},{"inputs":[{"internalType":"address","name":"recipient","type":"address"},{"internalType":"uint256","name":"amount","type":"uint256"}],"name":"withdrawFees","outputs":[],"stateMutability":"nonpayable","type":"function"},{"inputs":[],"name":"wrappedToken","outputs":[{"internalType":"address","name":"","type":"address"}],"stateMutability":"view","type":"function"}],"evm":{"bytecode":{"linkReferences":{},"object":"610120346200027557601f6200272938819003918201601f1916830191906001600160401b0383118484101762000279578160c09285926040958652833981010312620002755762000051826200028d565b91602081015192831515840362000275578282015163ffffffff81168103620002755762000082606084016200028d565b906200009f60a062000097608087016200028d565b95016200028d565b9533156200025e575f549360018060a01b03199333858716175f55875160018060a01b0396873391167f8be0079c531659141344cd1fd0a4f28419497f9722a3daafe3b4186f6b6457e05f80a360018055868316156200022f57508516948515620001f857881615620001c85760805260a05260c052600254161760025560e052610100918252516124869182620002a383396080518281816101f601528181610668015281816109b901528181610c5d0152610d90015260a0518281816105ac0152818161090e01528181610cc6015281816112d60152818161144a0152611a03015260c0518281816107ff01528181610a0e0152611546015260e0518281816104d80152818161052a015261172c0152518181816104fa01528181610c2c01526113ff0152f35b865162461bcd60e51b81526020600482015260096024820152685a45524f5f5553444360b81b6044820152606490fd5b875162461bcd60e51b815260206004820152601060248201526f2d22a927afa1a7a7a92224a720aa27a960811b6044820152606490fd5b62461bcd60e51b815260206004820152600a6024820152692d22a927afaa27a5a2a760b11b6044820152606490fd5b8551631e4fbdf760e01b81525f6004820152602490fd5b5f80fd5b634e487b7160e01b5f52604160045260245ffd5b51906001600160a01b0382168203620002755756fe60406080815260049081361015610014575f80fd5b5f91823560e01c908163076cbd03146119cb57816307a07c81146119ac5781630a009097146119835781632028a12a1461175b57816329716df81461171757816329d1e8b5146116fb5781632d3a10cc14610dfe578163376bd0141461142e5781633e413bee146113ea57816345533b28146107ae578163498d7615146106d05781634ac64739146113bd578163568914121461139e578163587f5ed71461137f5781635df45a371461137f57816362d5c1a6146112b0578163679cf18c14610f285781636817031b14610e8a578163715018a614610e31578163741fea9414610dfe5781637840275614610c8957816381ed3bc014610b3957816387b48931146108ef5781638da5cb5b146108c75781638ea981171461084c578163996c6cc3146108235781639a8a0592146107e25781639ba7bd97146107ae578163a793279414610712578163aaa9a61c146106d0578163ad3b1b4714610605578163c376258f146105d1578163d41af76914610594578163db708da514610404578163e2af71501461039c578163eb2acaa61461031f578163f2fde38b1461028d57508063f4732da61461026f578063fa9c5f4d14610251578063fbfa77cf146102295763fc0c546a146101e3575f80fd5b34610225578160031936011261022557517f00000000000000000000000000000000000000000000000000000000000000006001600160a01b03168152602090f35b5080fd5b503461022557816003193601126102255760095490516001600160a01b039091168152602090f35b5034610225578160031936011261022557602090600a549051908152f35b50346102255781600319360112610225576020906003549051908152f35b90503461031b57602036600319011261031b576102a8611bb7565b906102b1611e16565b6001600160a01b039182169283156103055750505f54826bffffffffffffffffffffffff60a01b8216175f55167f8be0079c531659141344cd1fd0a4f28419497f9722a3daafe3b4186f6b6457e05f80a380f35b51631e4fbdf760e01b8152908101849052602490fd5b8280fd5b83346103995761032e36611dc9565b61034360018060a01b03600254163314611e7c565b825b818110610350578380f35b8061036c610362610394938587612404565b35600b5411612414565b600561038261037c838688612404565b35611d90565b5001805460ff19166001179055612277565b610345565b80fd5b8334610399576103ab36611dc9565b6103c060018060a01b03600254163314611e7c565b825b8181106103cd578380f35b806103e96103df6103ff938587612404565b35600a5411612414565b60056103826103f9838688612404565b35611d43565b6103c2565b8391503461022557602036600319011261022557610420611ba0565b9060018060a01b0361043781600254163314611e7c565b61043f612000565b8463ffffffff6024836009541695610458871515611ebb565b87845197889485936394fc8a7d60e01b85521680988401525af192831561058a57848094610551575b50508280151580610526575b6104d2575b50507fde439a36d021648d227ad9ac04b36e01c99d01d6474597b2d2fdc5aabd1c7d19848051858152846020820152a26001805582519182526020820152f35b61051f917f0000000000000000000000000000000000000000000000000000000000000000907f000000000000000000000000000000000000000000000000000000000000000016611f58565b8482610492565b50817f000000000000000000000000000000000000000000000000000000000000000016151561048d565b91935093508484813d8311610583575b61056b8183611f36565b81010312610399575060208351930151918580610481565b503d610561565b85513d86823e3d90fd5b505034610225578160031936011261022557602090517f000000000000000000000000000000000000000000000000000000000000000015158152f35b505034610225576020366003190112610225578060209263ffffffff6105f5611ba0565b1681526006845220549051908152f35b83915034610225578260031936011261022557610620611bb7565b6024359161062c611e16565b6001600160a01b0390610642838316151561223a565b831515806106c4575b15610690575061068d93945061066383600c54612399565b600c557f000000000000000000000000000000000000000000000000000000000000000016611f58565b80f35b606490602087519162461bcd60e51b8352820152600e60248201526d1253959053125117d05353d5539560921b6044820152fd5b50600c5484111561064b565b50503461022557806003193601126102255760ff8160209363ffffffff6106f5611ba0565b168152600785528181206024358252855220541690519015158152f35b82843461039957602036600319011261039957823590600a54821015610399575061073f6107aa91611d43565b50805460018201546002830154600384015496840154600590940154955163ffffffff841681526001600160a01b03602094851c169381019390935260408301919091526060820152608081019490945260a084015260ff909116151560c0830152819060e0820190565b0390f35b505034610225576020366003190112610225578060209263ffffffff6107d2611ba0565b1681526005845220549051908152f35b5050346102255781600319360112610225576020905163ffffffff7f0000000000000000000000000000000000000000000000000000000000000000168152f35b50503461022557816003193601126102255760085490516001600160a01b039091168152602090f35b833461039957602036600319011261039957610866611bb7565b61086e611e16565b6001600160a01b0390811690610885821515611e41565b600254826bffffffffffffffffffffffff60a01b821617600255167fe73ccba5c53e91a1e91298739cd456da0ef0db1a3548dcd4561ea86f413ec8a98380a380f35b505034610225578160031936011261022557905490516001600160a01b039091168152602090f35b838334610225576108ff36611d08565b9490610909612000565b6109327f000000000000000000000000000000000000000000000000000000000000000061218e565b61093d8415156121c7565b63ffffffff80841692610951841515612201565b6001600160a01b03838116949061096986151561223a565b6109738a89612023565b908951916323b872dd60e01b602084015233602484015230604484015260648301526064825260a0820182811067ffffffffffffffff821117610b26578a526109de91907f000000000000000000000000000000000000000000000000000000000000000016611f9b565b6109ea87600354612023565b60035588610b12575b8152600560205286812097885498610a0a8a612277565b90557f000000000000000000000000000000000000000000000000000000000000000094885193610a3a85611f1a565b861684526020840152868884015288606084015242608084015260a08301528060c0830152600a5490600160401b821015610aff5750602098507fc6789791b12509f93abf7d35eb1bc0bafe7db266ad33845dd7d1825baddda1a1949392610ab6610af293610ab08460018d9601600a55611d43565b90612285565b875196875263ffffffff93841660208801529390921660408601526001600160a01b0390921660608501526080840152339290819060a0820190565b0390a26001805551908152f35b634e487b7160e01b815260418a52602490fd5b610b1e89600c54612023565b600c556109f3565b60418d634e487b7160e01b5f525260245ffd5b9190503461031b578060031936011261031b578135836024359360018060a01b03610b6981600254163314611e7c565b610b71612000565b8060095416610b81811515611ebb565b8480610c56575b505085610c20575b6009541690813b1561031b5783604484928388519586948593626f378760e71b85528401528a60248401525af18015610c1657610bfe575b50507f945fb2214087baf45dc65c5a87fa8fa99e269753699c4fa80f51fdf5aee59c729282519182526020820152a16001805580f35b610c0790611ef2565b610c1257835f610bc8565b8380fd5b84513d84823e3d90fd5b610c51868260095416837f000000000000000000000000000000000000000000000000000000000000000016612044565b610b90565b610c8291837f000000000000000000000000000000000000000000000000000000000000000016612044565b5f84610b88565b9190503461031b57610c9a36611bcd565b9091939294610ca7612000565b6002546001600160a01b039590610cc19087163314611e7c565b610cea7f000000000000000000000000000000000000000000000000000000000000000061218e565b610cf58415156121c7565b63ffffffff86821697610d0989151561223a565b169586895260209260078452868a20858b528452610d2d60ff888c2054161561231a565b8560035410610dc55750847f9361b7addb6db23979a6abc46e64492d941b969ea4a77e367eabee0fb19ef4979695949392610db592898c5260078552878c20868d528552878c20600160ff19825416179055610d8b83600354612399565b6003557f000000000000000000000000000000000000000000000000000000000000000016611f58565b8351928352820152a36001805580f35b865162461bcd60e51b81529081018490526013602482015272125394d551919250d251539517d313d0d2d151606a1b6044820152606490fd5b90503461031b57602036600319011261031b57602092829163ffffffff610e23611ba0565b168252845220549051908152f35b8334610399578060031936011261039957610e4a611e16565b5f80546001600160a01b0319811682556001600160a01b03167f8be0079c531659141344cd1fd0a4f28419497f9722a3daafe3b4186f6b6457e08280a380f35b90503461031b57602036600319011261031b57610ea5611bb7565b610ead611e16565b6001600160a01b0316918215610ef8575050600980546001600160a01b031916821790557fe7ae49f883c825b05681b3e00e8be6fdea9ed2a8a45e4c6ecb9390fc44cce6158280a280f35b906020606492519162461bcd60e51b8352820152600a60248201526916915493d7d59055531560b21b6044820152fd5b90503461031b578260031936011261031b57600b548391825b82811061123b5750610f52836123be565b92610f5c816123be565b94610f66826123be565b90610f70836123be565b92610f7a816123be565b94610f84826123be565b968a8b5b82811061113057505050895b828110610faf575050506107aa959697505196879687611c3b565b6001810180821161111d575b838110610fd15750610fcc90612277565b610f94565b80610fdf610ff5928b6123f0565b51610fea848c6123f0565b5110610ffa57612277565b610fbb565b611004818c6123f0565b518b61101b8361101487846123f0565b51926123f0565b52611026848d6123f0565b5263ffffffff61105b848e8361103c86836123f0565b51169361104983836123f0565b511661105586836123f0565b526123f0565b526001600160a01b038061106f838a6123f0565b51169061107c858a6123f0565b5116611088838a6123f0565b5261109384896123f0565b5261109e81896123f0565b516110a9848a6123f0565b516110b4838b6123f0565b526110bf848a6123f0565b526110ca818a6123f0565b516110d5848b6123f0565b516110e0838c6123f0565b526110eb848b6123f0565b526110f6818b6123f0565b51611101848c6123f0565b5161110c838d6123f0565b52611117848c6123f0565b52612277565b634e487b7160e01b8c526011835260248cfd5b8a60ff600561113e84611d90565b500154161580611203575b61115d575b5061115890612277565b610f88565b828261117061115894956111fa946123f0565b528d61118d8263ffffffff61118488611d90565b505416926123f0565b5261119784611d90565b505460201c6001600160a01b03166111af828b6123f0565b5260016111bb85611d90565b5001546111c8828c6123f0565b5260026111d485611d90565b5001546111e1828d6123f0565b528b61111782886111f188611d90565b500154926123f0565b9190508a61114e565b5050600361121082611d90565b500154600a8101809111611228578b90421015611149565b634e487b7160e01b8e526011855260248efd5b60ff600561124883611d90565b50015416158061127b575b611266575b61126190612277565b610f41565b9261127361126191612277565b939050611258565b50600361128782611d90565b500154600a810180911161129d57421015611253565b634e487b7160e01b875260118352602487fd5b90503461031b57602036600319011261031b576112cb611bb7565b916112d4611e16565b7f00000000000000000000000000000000000000000000000000000000000000006113485750506001600160a01b031661130f811515611e41565b600880546001600160a01b031916821790557f8f2a55b17d47ef80fe6483454245272f3a6ba3418e50c84d26e9565ae25864e28280a280f35b906020606492519162461bcd60e51b8352820152601160248201527014d3d55490d157d393d7d5d49054141151607a1b6044820152fd5b505034610225578160031936011261022557602090600c549051908152f35b5050346102255781600319360112610225576020906003549051908152f35b82843461039957602036600319011261039957823590600b54821015610399575061073f6107aa91611d90565b505034610225578160031936011261022557517f00000000000000000000000000000000000000000000000000000000000000006001600160a01b03168152602090f35b8383346102255761143e36611d08565b9490611448612000565b7f00000000000000000000000000000000000000000000000000000000000000006116c6576114788415156121c7565b63ffffffff8084169761148c891515612201565b6001600160a01b0383811694906114a486151561223a565b80600854166114b481151561235a565b803b1561031b578951632770a7eb60e21b80825233868301908152602081018c9052909392859183919082908490829060400103925af180156116bc579084916116a8575b50508a611631575b5050898152602099828b528789832054106115f757808252828b5288822061152a898254612399565b9055815260068a52878120988954996115428b612277565b90557f00000000000000000000000000000000000000000000000000000000000000009589519461157286611f1a565b871685528b850152878985015289606085015242608085015260a08401528060c0840152600b5491600160401b8310156115e45750507f8e8057b194e4523f2d4440a74d209bc1c9bbc5899b031de05a6cd96b469e9131949392610ab6610af293610ab08460018d9601600b55611d90565b634e487b7160e01b825260419052602490fd5b885162461bcd60e51b81528084018c90526014602482015273125394d551919250d251539517d5d4905414115160621b6044820152606490fd5b6008541690813b1561031b57895190815233848201908152602081018c90529091839183919082908490829060400103925af1801561169e5790829161168a575b505061168089600c54612023565b600c558a80611501565b61169390611ef2565b61039957808b611672565b89513d84823e3d90fd5b6116b190611ef2565b61031b57828d6114f9565b8b513d86823e3d90fd5b845162461bcd60e51b8152602081890152600f60248201526e2727aa2fa222a9aa24a720aa24a7a760891b6044820152606490fd5b50503461022557816003193601126102255760209051600a8152f35b505034610225578160031936011261022557517f00000000000000000000000000000000000000000000000000000000000000006001600160a01b03168152602090f35b90503461031b578260031936011261031b57600a80548492835b82811061190f5750611786846123be565b93611790816123be565b9561179a826123be565b916117a4816123be565b936117ae826123be565b956117b8836123be565b978b908c5b83811061181a5750505050895b8281106117e5575050506107aa959697505196879687611c3b565b6001810180821161111d575b838110611807575061180290612277565b6117ca565b80610fdf611815928b6123f0565b6117f1565b8c8c60ff600561182985611d43565b5001541615806118d6575b611849575b505061184490612277565b6117bd565b936118cc918361185d8361184496986123f0565b526118708263ffffffff61118489611d43565b5261187a85611d43565b505460201c6001600160a01b0316611892828c6123f0565b52600161189e86611d43565b5001546118ab828d6123f0565b528b6118bc8260026111f189611d43565b528c61111782896111f189611d43565b9290508c8c611839565b50505060036118e482611d43565b5001548281018091116118fc578c8e91421015611834565b634e487b7160e01b8f526011865260248ffd5b60ff600561191c83611d43565b50015416158061194f575b61193a575b61193590612277565b611775565b9361194761193591612277565b94905061192c565b50600361195b82611d43565b50015484810180911161197057421015611927565b634e487b7160e01b885260118352602488fd5b50503461022557816003193601126102255760025490516001600160a01b039091168152602090f35b505034610225578160031936011261022557602090600b549051908152f35b838334610225576119db36611bcd565b6119e794929394612000565b6002546001600160a01b039790611a019089163314611e7c565b7f0000000000000000000000000000000000000000000000000000000000000000611b7357611a318315156121c7565b63ffffffff88861696611a4588151561223a565b169485885260209860078a52858920848a528a52611a6960ff878b2054161561231a565b611a788160085416151561235a565b86895260078a52858920848a528a52858920600160ff19825416179055868952828a52858920611aa9868254612023565b90556008541691823b15611b6f5785516340c10f1960e01b81526001600160a01b03909216908201908152602081018590529091889183919082908490829060400103925af18015611b6557611b30575b507f6ed61f71c4b4978050d5d326fe478d3014bd7045f7a526a3fa07c67e700b17b7939495968351928352820152a36001805580f35b95611b5d7f6ed61f71c4b4978050d5d326fe478d3014bd7045f7a526a3fa07c67e700b17b7959697611ef2565b959493611afa565b84513d89823e3d90fd5b8880fd5b606490602085519162461bcd60e51b835282015260076024820152664e4f545f41524360c81b6044820152fd5b6004359063ffffffff82168203611bb357565b5f80fd5b600435906001600160a01b0382168203611bb357565b6080906003190112611bb35760043563ffffffff81168103611bb357906024356001600160a01b0381168103611bb357906044359060643590565b9081518082526020808093019301915f5b828110611c27575050505090565b835185529381019392810192600101611c19565b94929695939190611c549060c0875260c0870190611c08565b90602091868103838801528280835192838152019201905f5b818110611cee5750505085810360408701528180895192838152019801915f5b828110611cd1575050505090611cb286611cc09386611cce9899036060880152611c08565b908482036080860152611c08565b9160a0818403910152611c08565b90565b83516001600160a01b03168a529881019892810192600101611c8d565b825163ffffffff1684529284019291840191600101611c6d565b6080906003190112611bb3576004359060243563ffffffff81168103611bb357906044356001600160a01b0381168103611bb3579060643590565b600a54811015611d7c57600690600a5f52027fc65a7bb8d6351c1cf70c95a316cc6a92839c986682d98bc35f958f4883f9d2a801905f90565b634e487b7160e01b5f52603260045260245ffd5b600b54811015611d7c57600690600b5f52027f0175b7a638427703f0dbe7bb9bbf987a2551717b34e79f33b5b1008d1fa01db901905f90565b906020600319830112611bb35760043567ffffffffffffffff92838211611bb35780602383011215611bb3578160040135938411611bb35760248460051b83010111611bb3576024019190565b5f546001600160a01b03163303611e2957565b60405163118cdaa760e01b8152336004820152602490fd5b15611e4857565b60405162461bcd60e51b815260206004820152600c60248201526b5a45524f5f4144445245535360a01b6044820152606490fd5b15611e8357565b60405162461bcd60e51b815260206004820152601060248201526f27a7262cafa1a7a7a92224a720aa27a960811b6044820152606490fd5b15611ec257565b60405162461bcd60e51b81526020600482015260086024820152671393d7d59055531560c21b6044820152606490fd5b67ffffffffffffffff8111611f0657604052565b634e487b7160e01b5f52604160045260245ffd5b60e0810190811067ffffffffffffffff821117611f0657604052565b90601f8019910116810190811067ffffffffffffffff821117611f0657604052565b60405163a9059cbb60e01b60208201526001600160a01b03929092166024830152604480830193909352918152611f9991611f94606483611f36565b611f9b565b565b905f602091828151910182855af115611ff5575f513d611fec57506001600160a01b0381163b155b611fca5750565b604051635274afe760e01b81526001600160a01b039091166004820152602490fd5b60011415611fc3565b6040513d5f823e3d90fd5b600260015414612011576002600155565b604051633ee5aeb560e01b8152600490fd5b9190820180921161203057565b634e487b7160e01b5f52601160045260245ffd5b604051636eb1769f60e11b81523060048201526001600160a01b03838116602483018190526020959184169490929091908681604481895afa908115611ff5575f9161215f575b509061209691612023565b60405163095ea7b360e01b8782018181526001600160a01b0394909416602483015260448083019390935291815294909186905f906120d6606489611f36565b87519082885af1903d5f519083612140575b505050156120f8575b5050505050565b6040519485015260248401525f6044840152604483526080830183811067ffffffffffffffff821117611f065761213693611f949160405282611f9b565b5f808080806120f1565b9192509061215557503b15155b5f80806120e8565b600191501461214d565b908782813d8311612187575b6121758183611f36565b8101031261039957505161209661208b565b503d61216b565b1561219557565b60405162461bcd60e51b815260206004820152600a6024820152694e4f545f534f5552434560b01b6044820152606490fd5b156121ce57565b60405162461bcd60e51b815260206004820152600b60248201526a16915493d7d05353d5539560aa1b6044820152606490fd5b1561220857565b60405162461bcd60e51b815260206004820152600a6024820152692d22a927afa1a420a4a760b11b6044820152606490fd5b1561224157565b60405162461bcd60e51b815260206004820152600e60248201526d16915493d7d49150d2541251539560921b6044820152606490fd5b5f1981146120305760010190565b9061230757600560c09163ffffffff8451168154908063ffffffff1983161783556401000000006001861b03602087015160201b169167ffffffffffffffff861b161717815560408401516001820155606084015160028201556080840151600382015560a0840151600482015501910151151560ff80198354169116179055565b634e487b7160e01b5f525f60045260245ffd5b1561232157565b60405162461bcd60e51b81526020600482015260116024820152701053149150511657d41493d0d154d4d151607a1b6044820152606490fd5b1561236157565b60405162461bcd60e51b815260206004820152601060248201526f2727afaba920a82822a22faa27a5a2a760811b6044820152606490fd5b9190820391821161203057565b67ffffffffffffffff8111611f065760051b60200190565b906123c8826123a6565b6123d56040519182611f36565b82815280926123e6601f19916123a6565b0190602036910137565b8051821015611d7c5760209160051b010190565b9190811015611d7c5760051b0190565b1561241b57565b60405162461bcd60e51b815260206004820152600d60248201526c0929cac82989288be929c888ab609b1b6044820152606490fdfea2646970667358221220ffb76d0ee92fc9c84e2f5eca923312318a0cd07322346bfdf52053ed4840ee9e64736f6c63430008140033","opcodes":"PUSH2 0x120 CALLVALUE PUSH3 0x275 JUMPI PUSH1 0x1F PUSH3 0x2729 CODESIZE DUP2 SWAP1 SUB SWAP2 DUP3 ADD PUSH1 0x1F NOT AND DUP4 ADD SWAP2 SWAP1 PUSH1 0x1 PUSH1 0x1 PUSH1 0x40 SHL SUB DUP4 GT DUP5 DUP5 LT OR PUSH3 0x279 JUMPI DUP2 PUSH1 0xC0 SWAP3 DUP6 SWAP3 PUSH1 0x40 SWAP6 DUP7 MSTORE DUP4 CODECOPY DUP2 ADD SUB SLT PUSH3 0x275 JUMPI PUSH3 0x51 DUP3 PUSH3 0x28D JUMP JUMPDEST SWAP2 PUSH1 0x20 DUP2 ADD MLOAD SWAP3 DUP4 ISZERO ISZERO DUP5 SUB PUSH3 0x275 JUMPI DUP3 DUP3 ADD MLOAD PUSH4 0xFFFFFFFF DUP2 AND DUP2 SUB PUSH3 0x275 JUMPI PUSH3 0x82 PUSH1 0x60 DUP5 ADD PUSH3 0x28D JUMP JUMPDEST SWAP1 PUSH3 0x9F PUSH1 0xA0 PUSH3 0x97 PUSH1 0x80 DUP8 ADD PUSH3 0x28D JUMP JUMPDEST SWAP6 ADD PUSH3 0x28D JUMP JUMPDEST SWAP6 CALLER ISZERO PUSH3 0x25E JUMPI PUSH0 SLOAD SWAP4 PUSH1 0x1 DUP1 PUSH1 0xA0 SHL SUB NOT SWAP4 CALLER DUP6 DUP8 AND OR PUSH0 SSTORE DUP8 MLOAD PUSH1 0x1 DUP1 PUSH1 0xA0 SHL SUB SWAP7 DUP8 CALLER SWAP2 AND PUSH32 0x8BE0079C531659141344CD1FD0A4F28419497F9722A3DAAFE3B4186F6B6457E0 PUSH0 DUP1 LOG3 PUSH1 0x1 DUP1 SSTORE DUP7 DUP4 AND ISZERO PUSH3 0x22F JUMPI POP DUP6 AND SWAP5 DUP6 ISZERO PUSH3 0x1F8 JUMPI DUP9 AND ISZERO PUSH3 0x1C8 JUMPI PUSH1 0x80 MSTORE PUSH1 0xA0 MSTORE PUSH1 0xC0 MSTORE PUSH1 0x2 SLOAD AND OR PUSH1 0x2 SSTORE PUSH1 0xE0 MSTORE PUSH2 0x100 SWAP2 DUP3 MSTORE MLOAD PUSH2 0x2486 SWAP2 DUP3 PUSH3 0x2A3 DUP4 CODECOPY PUSH1 0x80 MLOAD DUP3 DUP2 DUP2 PUSH2 0x1F6 ADD MSTORE DUP2 DUP2 PUSH2 0x668 ADD MSTORE DUP2 DUP2 PUSH2 0x9B9 ADD MSTORE DUP2 DUP2 PUSH2 0xC5D ADD MSTORE PUSH2 0xD90 ADD MSTORE PUSH1 0xA0 MLOAD DUP3 DUP2 DUP2 PUSH2 0x5AC ADD MSTORE DUP2 DUP2 PUSH2 0x90E ADD MSTORE DUP2 DUP2 PUSH2 0xCC6 ADD MSTORE DUP2 DUP2 PUSH2 0x12D6 ADD MSTORE DUP2 DUP2 PUSH2 0x144A ADD MSTORE PUSH2 0x1A03 ADD MSTORE PUSH1 0xC0 MLOAD DUP3 DUP2 DUP2 PUSH2 0x7FF ADD MSTORE DUP2 DUP2 PUSH2 0xA0E ADD MSTORE PUSH2 0x1546 ADD MSTORE PUSH1 0xE0 MLOAD DUP3 DUP2 DUP2 PUSH2 0x4D8 ADD MSTORE DUP2 DUP2 PUSH2 0x52A ADD MSTORE PUSH2 0x172C ADD MSTORE MLOAD DUP2 DUP2 DUP2 PUSH2 0x4FA ADD MSTORE DUP2 DUP2 PUSH2 0xC2C ADD MSTORE PUSH2 0x13FF ADD MSTORE RETURN JUMPDEST DUP7 MLOAD PUSH3 0x461BCD PUSH1 0xE5 SHL DUP2 MSTORE PUSH1 0x20 PUSH1 0x4 DUP3 ADD MSTORE PUSH1 0x9 PUSH1 0x24 DUP3 ADD MSTORE PUSH9 0x5A45524F5F55534443 PUSH1 0xB8 SHL PUSH1 0x44 DUP3 ADD MSTORE PUSH1 0x64 SWAP1 REVERT JUMPDEST DUP8 MLOAD PUSH3 0x461BCD PUSH1 0xE5 SHL DUP2 MSTORE PUSH1 0x20 PUSH1 0x4 DUP3 ADD MSTORE PUSH1 0x10 PUSH1 0x24 DUP3 ADD MSTORE PUSH16 0x2D22A927AFA1A7A7A92224A720AA27A9 PUSH1 0x81 SHL PUSH1 0x44 DUP3 ADD MSTORE PUSH1 0x64 SWAP1 REVERT JUMPDEST PUSH3 0x461BCD PUSH1 0xE5 SHL DUP2 MSTORE PUSH1 0x20 PUSH1 0x4 DUP3 ADD MSTORE PUSH1 0xA PUSH1 0x24 DUP3 ADD MSTORE PUSH10 0x2D22A927AFAA27A5A2A7 PUSH1 0xB1 SHL PUSH1 0x44 DUP3 ADD MSTORE PUSH1 0x64 SWAP1 REVERT JUMPDEST DUP6 MLOAD PUSH4 0x1E4FBDF7 PUSH1 0xE0 SHL DUP2 MSTORE PUSH0 PUSH1 0x4 DUP3 ADD MSTORE PUSH1 0x24 SWAP1 REVERT JUMPDEST PUSH0 DUP1 REVERT JUMPDEST PUSH4 0x4E487B71 PUSH1 0xE0 SHL PUSH0 MSTORE PUSH1 0x41 PUSH1 0x4 MSTORE PUSH1 0x24 PUSH0 REVERT JUMPDEST MLOAD SWAP1 PUSH1 0x1 PUSH1 0x1 PUSH1 0xA0 SHL SUB DUP3 AND DUP3 SUB PUSH3 0x275 JUMPI JUMP INVALID PUSH1 0x40 PUSH1 0x80 DUP2 MSTORE PUSH1 0x4 SWAP1 DUP2 CALLDATASIZE LT ISZERO PUSH2 0x14 JUMPI PUSH0 DUP1 REVERT JUMPDEST PUSH0 SWAP2 DUP3 CALLDATALOAD PUSH1 0xE0 SHR SWAP1 DUP2 PUSH4 0x76CBD03 EQ PUSH2 0x19CB JUMPI DUP2 PUSH4 0x7A07C81 EQ PUSH2 0x19AC JUMPI DUP2 PUSH4 0xA009097 EQ PUSH2 0x1983 JUMPI DUP2 PUSH4 0x2028A12A EQ PUSH2 0x175B JUMPI DUP2 PUSH4 0x29716DF8 EQ PUSH2 0x1717 JUMPI DUP2 PUSH4 0x29D1E8B5 EQ PUSH2 0x16FB JUMPI DUP2 PUSH4 0x2D3A10CC EQ PUSH2 0xDFE JUMPI DUP2 PUSH4 0x376BD014 EQ PUSH2 0x142E JUMPI DUP2 PUSH4 0x3E413BEE EQ PUSH2 0x13EA JUMPI DUP2 PUSH4 0x45533B28 EQ PUSH2 0x7AE JUMPI DUP2 PUSH4 0x498D7615 EQ PUSH2 0x6D0 JUMPI DUP2 PUSH4 0x4AC64739 EQ PUSH2 0x13BD JUMPI DUP2 PUSH4 0x56891412 EQ PUSH2 0x139E JUMPI DUP2 PUSH4 0x587F5ED7 EQ PUSH2 0x137F JUMPI DUP2 PUSH4 0x5DF45A37 EQ PUSH2 0x137F JUMPI DUP2 PUSH4 0x62D5C1A6 EQ PUSH2 0x12B0 JUMPI DUP2 PUSH4 0x679CF18C EQ PUSH2 0xF28 JUMPI DUP2 PUSH4 0x6817031B EQ PUSH2 0xE8A JUMPI DUP2 PUSH4 0x715018A6 EQ PUSH2 0xE31 JUMPI DUP2 PUSH4 0x741FEA94 EQ PUSH2 0xDFE JUMPI DUP2 PUSH4 0x78402756 EQ PUSH2 0xC89 JUMPI DUP2 PUSH4 0x81ED3BC0 EQ PUSH2 0xB39 JUMPI DUP2 PUSH4 0x87B48931 EQ PUSH2 0x8EF JUMPI DUP2 PUSH4 0x8DA5CB5B EQ PUSH2 0x8C7 JUMPI DUP2 PUSH4 0x8EA98117 EQ PUSH2 0x84C JUMPI DUP2 PUSH4 0x996C6CC3 EQ PUSH2 0x823 JUMPI DUP2 PUSH4 0x9A8A0592 EQ PUSH2 0x7E2 JUMPI DUP2 PUSH4 0x9BA7BD97 EQ PUSH2 0x7AE JUMPI DUP2 PUSH4 0xA7932794 EQ PUSH2 0x712 JUMPI DUP2 PUSH4 0xAAA9A61C EQ PUSH2 0x6D0 JUMPI DUP2 PUSH4 0xAD3B1B47 EQ PUSH2 0x605 JUMPI DUP2 PUSH4 0xC376258F EQ PUSH2 0x5D1 JUMPI DUP2 PUSH4 0xD41AF769 EQ PUSH2 0x594 JUMPI DUP2 PUSH4 0xDB708DA5 EQ PUSH2 0x404 JUMPI DUP2 PUSH4 0xE2AF7150 EQ PUSH2 0x39C JUMPI DUP2 PUSH4 0xEB2ACAA6 EQ PUSH2 0x31F JUMPI DUP2 PUSH4 0xF2FDE38B EQ PUSH2 0x28D JUMPI POP DUP1 PUSH4 0xF4732DA6 EQ PUSH2 0x26F JUMPI DUP1 PUSH4 0xFA9C5F4D EQ PUSH2 0x251 JUMPI DUP1 PUSH4 0xFBFA77CF EQ PUSH2 0x229 JUMPI PUSH4 0xFC0C546A EQ PUSH2 0x1E3 JUMPI PUSH0 DUP1 REVERT JUMPDEST CALLVALUE PUSH2 0x225 JUMPI DUP2 PUSH1 0x3 NOT CALLDATASIZE ADD SLT PUSH2 0x225 JUMPI MLOAD PUSH32 0x0 PUSH1 0x1 PUSH1 0x1 PUSH1 0xA0 SHL SUB AND DUP2 MSTORE PUSH1 0x20 SWAP1 RETURN JUMPDEST POP DUP1 REVERT JUMPDEST POP CALLVALUE PUSH2 0x225 JUMPI DUP2 PUSH1 0x3 NOT CALLDATASIZE ADD SLT PUSH2 0x225 JUMPI PUSH1 0x9 SLOAD SWAP1 MLOAD PUSH1 0x1 PUSH1 0x1 PUSH1 0xA0 SHL SUB SWAP1 SWAP2 AND DUP2 MSTORE PUSH1 0x20 SWAP1 RETURN JUMPDEST POP CALLVALUE PUSH2 0x225 JUMPI DUP2 PUSH1 0x3 NOT CALLDATASIZE ADD SLT PUSH2 0x225 JUMPI PUSH1 0x20 SWAP1 PUSH1 0xA SLOAD SWAP1 MLOAD SWAP1 DUP2 MSTORE RETURN JUMPDEST POP CALLVALUE PUSH2 0x225 JUMPI DUP2 PUSH1 0x3 NOT CALLDATASIZE ADD SLT PUSH2 0x225 JUMPI PUSH1 0x20 SWAP1 PUSH1 0x3 SLOAD SWAP1 MLOAD SWAP1 DUP2 MSTORE RETURN JUMPDEST SWAP1 POP CALLVALUE PUSH2 0x31B JUMPI PUSH1 0x20 CALLDATASIZE PUSH1 0x3 NOT ADD SLT PUSH2 0x31B JUMPI PUSH2 0x2A8 PUSH2 0x1BB7 JUMP JUMPDEST SWAP1 PUSH2 0x2B1 PUSH2 0x1E16 JUMP JUMPDEST PUSH1 0x1 PUSH1 0x1 PUSH1 0xA0 SHL SUB SWAP2 DUP3 AND SWAP3 DUP4 ISZERO PUSH2 0x305 JUMPI POP POP PUSH0 SLOAD DUP3 PUSH12 0xFFFFFFFFFFFFFFFFFFFFFFFF PUSH1 0xA0 SHL DUP3 AND OR PUSH0 SSTORE AND PUSH32 0x8BE0079C531659141344CD1FD0A4F28419497F9722A3DAAFE3B4186F6B6457E0 PUSH0 DUP1 LOG3 DUP1 RETURN JUMPDEST MLOAD PUSH4 0x1E4FBDF7 PUSH1 0xE0 SHL DUP2 MSTORE SWAP1 DUP2 ADD DUP5 SWAP1 MSTORE PUSH1 0x24 SWAP1 REVERT JUMPDEST DUP3 DUP1 REVERT JUMPDEST DUP4 CALLVALUE PUSH2 0x399 JUMPI PUSH2 0x32E CALLDATASIZE PUSH2 0x1DC9 JUMP JUMPDEST PUSH2 0x343 PUSH1 0x1 DUP1 PUSH1 0xA0 SHL SUB PUSH1 0x2 SLOAD AND CALLER EQ PUSH2 0x1E7C JUMP JUMPDEST DUP3 JUMPDEST DUP2 DUP2 LT PUSH2 0x350 JUMPI DUP4 DUP1 RETURN JUMPDEST DUP1 PUSH2 0x36C PUSH2 0x362 PUSH2 0x394 SWAP4 DUP6 DUP8 PUSH2 0x2404 JUMP JUMPDEST CALLDATALOAD PUSH1 0xB SLOAD GT PUSH2 0x2414 JUMP JUMPDEST PUSH1 0x5 PUSH2 0x382 PUSH2 0x37C DUP4 DUP7 DUP9 PUSH2 0x2404 JUMP JUMPDEST CALLDATALOAD PUSH2 0x1D90 JUMP JUMPDEST POP ADD DUP1 SLOAD PUSH1 0xFF NOT AND PUSH1 0x1 OR SWAP1 SSTORE PUSH2 0x2277 JUMP JUMPDEST PUSH2 0x345 JUMP JUMPDEST DUP1 REVERT JUMPDEST DUP4 CALLVALUE PUSH2 0x399 JUMPI PUSH2 0x3AB CALLDATASIZE PUSH2 0x1DC9 JUMP JUMPDEST PUSH2 0x3C0 PUSH1 0x1 DUP1 PUSH1 0xA0 SHL SUB PUSH1 0x2 SLOAD AND CALLER EQ PUSH2 0x1E7C JUMP JUMPDEST DUP3 JUMPDEST DUP2 DUP2 LT PUSH2 0x3CD JUMPI DUP4 DUP1 RETURN JUMPDEST DUP1 PUSH2 0x3E9 PUSH2 0x3DF PUSH2 0x3FF SWAP4 DUP6 DUP8 PUSH2 0x2404 JUMP JUMPDEST CALLDATALOAD PUSH1 0xA SLOAD GT PUSH2 0x2414 JUMP JUMPDEST PUSH1 0x5 PUSH2 0x382 PUSH2 0x3F9 DUP4 DUP7 DUP9 PUSH2 0x2404 JUMP JUMPDEST CALLDATALOAD PUSH2 0x1D43 JUMP JUMPDEST PUSH2 0x3C2 JUMP JUMPDEST DUP4 SWAP2 POP CALLVALUE PUSH2 0x225 JUMPI PUSH1 0x20 CALLDATASIZE PUSH1 0x3 NOT ADD SLT PUSH2 0x225 JUMPI PUSH2 0x420 PUSH2 0x1BA0 JUMP JUMPDEST SWAP1 PUSH1 0x1 DUP1 PUSH1 0xA0 SHL SUB PUSH2 0x437 DUP2 PUSH1 0x2 SLOAD AND CALLER EQ PUSH2 0x1E7C JUMP JUMPDEST PUSH2 0x43F PUSH2 0x2000 JUMP JUMPDEST DUP5 PUSH4 0xFFFFFFFF PUSH1 0x24 DUP4 PUSH1 0x9 SLOAD AND SWAP6 PUSH2 0x458 DUP8 ISZERO ISZERO PUSH2 0x1EBB JUMP JUMPDEST DUP8 DUP5 MLOAD SWAP8 DUP9 SWAP5 DUP6 SWAP4 PUSH4 0x94FC8A7D PUSH1 0xE0 SHL DUP6 MSTORE AND DUP1 SWAP9 DUP5 ADD MSTORE GAS CALL SWAP3 DUP4 ISZERO PUSH2 0x58A JUMPI DUP5 DUP1 SWAP5 PUSH2 0x551 JUMPI JUMPDEST POP POP DUP3 DUP1 ISZERO ISZERO DUP1 PUSH2 0x526 JUMPI JUMPDEST PUSH2 0x4D2 JUMPI JUMPDEST POP POP PUSH32 0xDE439A36D021648D227AD9AC04B36E01C99D01D6474597B2D2FDC5AABD1C7D19 DUP5 DUP1 MLOAD DUP6 DUP2 MSTORE DUP5 PUSH1 0x20 DUP3 ADD MSTORE LOG2 PUSH1 0x1 DUP1 SSTORE DUP3 MLOAD SWAP2 DUP3 MSTORE PUSH1 0x20 DUP3 ADD MSTORE RETURN JUMPDEST PUSH2 0x51F SWAP2 PUSH32 0x0 SWAP1 PUSH32 0x0 AND PUSH2 0x1F58 JUMP JUMPDEST DUP5 DUP3 PUSH2 0x492 JUMP JUMPDEST POP DUP2 PUSH32 0x0 AND ISZERO ISZERO PUSH2 0x48D JUMP JUMPDEST SWAP2 SWAP4 POP SWAP4 POP DUP5 DUP5 DUP2 RETURNDATASIZE DUP4 GT PUSH2 0x583 JUMPI JUMPDEST PUSH2 0x56B DUP2 DUP4 PUSH2 0x1F36 JUMP JUMPDEST DUP2 ADD SUB SLT PUSH2 0x399 JUMPI POP PUSH1 0x20 DUP4 MLOAD SWAP4 ADD MLOAD SWAP2 DUP6 DUP1 PUSH2 0x481 JUMP JUMPDEST POP RETURNDATASIZE PUSH2 0x561 JUMP JUMPDEST DUP6 MLOAD RETURNDATASIZE DUP7 DUP3 RETURNDATACOPY RETURNDATASIZE SWAP1 REVERT JUMPDEST POP POP CALLVALUE PUSH2 0x225 JUMPI DUP2 PUSH1 0x3 NOT CALLDATASIZE ADD SLT PUSH2 0x225 JUMPI PUSH1 0x20 SWAP1 MLOAD PUSH32 0x0 ISZERO ISZERO DUP2 MSTORE RETURN JUMPDEST POP POP CALLVALUE PUSH2 0x225 JUMPI PUSH1 0x20 CALLDATASIZE PUSH1 0x3 NOT ADD SLT PUSH2 0x225 JUMPI DUP1 PUSH1 0x20 SWAP3 PUSH4 0xFFFFFFFF PUSH2 0x5F5 PUSH2 0x1BA0 JUMP JUMPDEST AND DUP2 MSTORE PUSH1 0x6 DUP5 MSTORE KECCAK256 SLOAD SWAP1 MLOAD SWAP1 DUP2 MSTORE RETURN JUMPDEST DUP4 SWAP2 POP CALLVALUE PUSH2 0x225 JUMPI DUP3 PUSH1 0x3 NOT CALLDATASIZE ADD SLT PUSH2 0x225 JUMPI PUSH2 0x620 PUSH2 0x1BB7 JUMP JUMPDEST PUSH1 0x24 CALLDATALOAD SWAP2 PUSH2 0x62C PUSH2 0x1E16 JUMP JUMPDEST PUSH1 0x1 PUSH1 0x1 PUSH1 0xA0 SHL SUB SWAP1 PUSH2 0x642 DUP4 DUP4 AND ISZERO ISZERO PUSH2 0x223A JUMP JUMPDEST DUP4 ISZERO ISZERO DUP1 PUSH2 0x6C4 JUMPI JUMPDEST ISZERO PUSH2 0x690 JUMPI POP PUSH2 0x68D SWAP4 SWAP5 POP PUSH2 0x663 DUP4 PUSH1 0xC SLOAD PUSH2 0x2399 JUMP JUMPDEST PUSH1 0xC SSTORE PUSH32 0x0 AND PUSH2 0x1F58 JUMP JUMPDEST DUP1 RETURN JUMPDEST PUSH1 0x64 SWAP1 PUSH1 0x20 DUP8 MLOAD SWAP2 PUSH3 0x461BCD PUSH1 0xE5 SHL DUP4 MSTORE DUP3 ADD MSTORE PUSH1 0xE PUSH1 0x24 DUP3 ADD MSTORE PUSH14 0x1253959053125117D05353D55395 PUSH1 0x92 SHL PUSH1 0x44 DUP3 ADD MSTORE REVERT JUMPDEST POP PUSH1 0xC SLOAD DUP5 GT ISZERO PUSH2 0x64B JUMP JUMPDEST POP POP CALLVALUE PUSH2 0x225 JUMPI DUP1 PUSH1 0x3 NOT CALLDATASIZE ADD SLT PUSH2 0x225 JUMPI PUSH1 0xFF DUP2 PUSH1 0x20 SWAP4 PUSH4 0xFFFFFFFF PUSH2 0x6F5 PUSH2 0x1BA0 JUMP JUMPDEST AND DUP2 MSTORE PUSH1 0x7 DUP6 MSTORE DUP2 DUP2 KECCAK256 PUSH1 0x24 CALLDATALOAD DUP3 MSTORE DUP6 MSTORE KECCAK256 SLOAD AND SWAP1 MLOAD SWAP1 ISZERO ISZERO DUP2 MSTORE RETURN JUMPDEST DUP3 DUP5 CALLVALUE PUSH2 0x399 JUMPI PUSH1 0x20 CALLDATASIZE PUSH1 0x3 NOT ADD SLT PUSH2 0x399 JUMPI DUP3 CALLDATALOAD SWAP1 PUSH1 0xA SLOAD DUP3 LT ISZERO PUSH2 0x399 JUMPI POP PUSH2 0x73F PUSH2 0x7AA SWAP2 PUSH2 0x1D43 JUMP JUMPDEST POP DUP1 SLOAD PUSH1 0x1 DUP3 ADD SLOAD PUSH1 0x2 DUP4 ADD SLOAD PUSH1 0x3 DUP5 ADD SLOAD SWAP7 DUP5 ADD SLOAD PUSH1 0x5 SWAP1 SWAP5 ADD SLOAD SWAP6 MLOAD PUSH4 0xFFFFFFFF DUP5 AND DUP2 MSTORE PUSH1 0x1 PUSH1 0x1 PUSH1 0xA0 SHL SUB PUSH1 0x20 SWAP5 DUP6 SHR AND SWAP4 DUP2 ADD SWAP4 SWAP1 SWAP4 MSTORE PUSH1 0x40 DUP4 ADD SWAP2 SWAP1 SWAP2 MSTORE PUSH1 0x60 DUP3 ADD MSTORE PUSH1 0x80 DUP2 ADD SWAP5 SWAP1 SWAP5 MSTORE PUSH1 0xA0 DUP5 ADD MSTORE PUSH1 0xFF SWAP1 SWAP2 AND ISZERO ISZERO PUSH1 0xC0 DUP4 ADD MSTORE DUP2 SWAP1 PUSH1 0xE0 DUP3 ADD SWAP1 JUMP JUMPDEST SUB SWAP1 RETURN JUMPDEST POP POP CALLVALUE PUSH2 0x225 JUMPI PUSH1 0x20 CALLDATASIZE PUSH1 0x3 NOT ADD SLT PUSH2 0x225 JUMPI DUP1 PUSH1 0x20 SWAP3 PUSH4 0xFFFFFFFF PUSH2 0x7D2 PUSH2 0x1BA0 JUMP JUMPDEST AND DUP2 MSTORE PUSH1 0x5 DUP5 MSTORE KECCAK256 SLOAD SWAP1 MLOAD SWAP1 DUP2 MSTORE RETURN JUMPDEST POP POP CALLVALUE PUSH2 0x225 JUMPI DUP2 PUSH1 0x3 NOT CALLDATASIZE ADD SLT PUSH2 0x225 JUMPI PUSH1 0x20 SWAP1 MLOAD PUSH4 0xFFFFFFFF PUSH32 0x0 AND DUP2 MSTORE RETURN JUMPDEST POP POP CALLVALUE PUSH2 0x225 JUMPI DUP2 PUSH1 0x3 NOT CALLDATASIZE ADD SLT PUSH2 0x225 JUMPI PUSH1 0x8 SLOAD SWAP1 MLOAD PUSH1 0x1 PUSH1 0x1 PUSH1 0xA0 SHL SUB SWAP1 SWAP2 AND DUP2 MSTORE PUSH1 0x20 SWAP1 RETURN JUMPDEST DUP4 CALLVALUE PUSH2 0x399 JUMPI PUSH1 0x20 CALLDATASIZE PUSH1 0x3 NOT ADD SLT PUSH2 0x399 JUMPI PUSH2 0x866 PUSH2 0x1BB7 JUMP JUMPDEST PUSH2 0x86E PUSH2 0x1E16 JUMP JUMPDEST PUSH1 0x1 PUSH1 0x1 PUSH1 0xA0 SHL SUB SWAP1 DUP2 AND SWAP1 PUSH2 0x885 DUP3 ISZERO ISZERO PUSH2 0x1E41 JUMP JUMPDEST PUSH1 0x2 SLOAD DUP3 PUSH12 0xFFFFFFFFFFFFFFFFFFFFFFFF PUSH1 0xA0 SHL DUP3 AND OR PUSH1 0x2 SSTORE AND PUSH32 0xE73CCBA5C53E91A1E91298739CD456DA0EF0DB1A3548DCD4561EA86F413EC8A9 DUP4 DUP1 LOG3 DUP1 RETURN JUMPDEST POP POP CALLVALUE PUSH2 0x225 JUMPI DUP2 PUSH1 0x3 NOT CALLDATASIZE ADD SLT PUSH2 0x225 JUMPI SWAP1 SLOAD SWAP1 MLOAD PUSH1 0x1 PUSH1 0x1 PUSH1 0xA0 SHL SUB SWAP1 SWAP2 AND DUP2 MSTORE PUSH1 0x20 SWAP1 RETURN JUMPDEST DUP4 DUP4 CALLVALUE PUSH2 0x225 JUMPI PUSH2 0x8FF CALLDATASIZE PUSH2 0x1D08 JUMP JUMPDEST SWAP5 SWAP1 PUSH2 0x909 PUSH2 0x2000 JUMP JUMPDEST PUSH2 0x932 PUSH32 0x0 PUSH2 0x218E JUMP JUMPDEST PUSH2 0x93D DUP5 ISZERO ISZERO PUSH2 0x21C7 JUMP JUMPDEST PUSH4 0xFFFFFFFF DUP1 DUP5 AND SWAP3 PUSH2 0x951 DUP5 ISZERO ISZERO PUSH2 0x2201 JUMP JUMPDEST PUSH1 0x1 PUSH1 0x1 PUSH1 0xA0 SHL SUB DUP4 DUP2 AND SWAP5 SWAP1 PUSH2 0x969 DUP7 ISZERO ISZERO PUSH2 0x223A JUMP JUMPDEST PUSH2 0x973 DUP11 DUP10 PUSH2 0x2023 JUMP JUMPDEST SWAP1 DUP10 MLOAD SWAP2 PUSH4 0x23B872DD PUSH1 0xE0 SHL PUSH1 0x20 DUP5 ADD MSTORE CALLER PUSH1 0x24 DUP5 ADD MSTORE ADDRESS PUSH1 0x44 DUP5 ADD MSTORE PUSH1 0x64 DUP4 ADD MSTORE PUSH1 0x64 DUP3 MSTORE PUSH1 0xA0 DUP3 ADD DUP3 DUP2 LT PUSH8 0xFFFFFFFFFFFFFFFF DUP3 GT OR PUSH2 0xB26 JUMPI DUP11 MSTORE PUSH2 0x9DE SWAP2 SWAP1 PUSH32 0x0 AND PUSH2 0x1F9B JUMP JUMPDEST PUSH2 0x9EA DUP8 PUSH1 0x3 SLOAD PUSH2 0x2023 JUMP JUMPDEST PUSH1 0x3 SSTORE DUP9 PUSH2 0xB12 JUMPI JUMPDEST DUP2 MSTORE PUSH1 0x5 PUSH1 0x20 MSTORE DUP7 DUP2 KECCAK256 SWAP8 DUP9 SLOAD SWAP9 PUSH2 0xA0A DUP11 PUSH2 0x2277 JUMP JUMPDEST SWAP1 SSTORE PUSH32 0x0 SWAP5 DUP9 MLOAD SWAP4 PUSH2 0xA3A DUP6 PUSH2 0x1F1A JUMP JUMPDEST DUP7 AND DUP5 MSTORE PUSH1 0x20 DUP5 ADD MSTORE DUP7 DUP9 DUP5 ADD MSTORE DUP9 PUSH1 0x60 DUP5 ADD MSTORE TIMESTAMP PUSH1 0x80 DUP5 ADD MSTORE PUSH1 0xA0 DUP4 ADD MSTORE DUP1 PUSH1 0xC0 DUP4 ADD MSTORE PUSH1 0xA SLOAD SWAP1 PUSH1 0x1 PUSH1 0x40 SHL DUP3 LT ISZERO PUSH2 0xAFF JUMPI POP PUSH1 0x20 SWAP9 POP PUSH32 0xC6789791B12509F93ABF7D35EB1BC0BAFE7DB266AD33845DD7D1825BADDDA1A1 SWAP5 SWAP4 SWAP3 PUSH2 0xAB6 PUSH2 0xAF2 SWAP4 PUSH2 0xAB0 DUP5 PUSH1 0x1 DUP14 SWAP7 ADD PUSH1 0xA SSTORE PUSH2 0x1D43 JUMP JUMPDEST SWAP1 PUSH2 0x2285 JUMP JUMPDEST DUP8 MLOAD SWAP7 DUP8 MSTORE PUSH4 0xFFFFFFFF SWAP4 DUP5 AND PUSH1 0x20 DUP9 ADD MSTORE SWAP4 SWAP1 SWAP3 AND PUSH1 0x40 DUP7 ADD MSTORE PUSH1 0x1 PUSH1 0x1 PUSH1 0xA0 SHL SUB SWAP1 SWAP3 AND PUSH1 0x60 DUP6 ADD MSTORE PUSH1 0x80 DUP5 ADD MSTORE CALLER SWAP3 SWAP1 DUP2 SWAP1 PUSH1 0xA0 DUP3 ADD SWAP1 JUMP JUMPDEST SUB SWAP1 LOG2 PUSH1 0x1 DUP1 SSTORE MLOAD SWAP1 DUP2 MSTORE RETURN JUMPDEST PUSH4 0x4E487B71 PUSH1 0xE0 SHL DUP2 MSTORE PUSH1 0x41 DUP11 MSTORE PUSH1 0x24 SWAP1 REVERT JUMPDEST PUSH2 0xB1E DUP10 PUSH1 0xC SLOAD PUSH2 0x2023 JUMP JUMPDEST PUSH1 0xC SSTORE PUSH2 0x9F3 JUMP JUMPDEST PUSH1 0x41 DUP14 PUSH4 0x4E487B71 PUSH1 0xE0 SHL PUSH0 MSTORE MSTORE PUSH1 0x24 PUSH0 REVERT JUMPDEST SWAP2 SWAP1 POP CALLVALUE PUSH2 0x31B JUMPI DUP1 PUSH1 0x3 NOT CALLDATASIZE ADD SLT PUSH2 0x31B JUMPI DUP2 CALLDATALOAD DUP4 PUSH1 0x24 CALLDATALOAD SWAP4 PUSH1 0x1 DUP1 PUSH1 0xA0 SHL SUB PUSH2 0xB69 DUP2 PUSH1 0x2 SLOAD AND CALLER EQ PUSH2 0x1E7C JUMP JUMPDEST PUSH2 0xB71 PUSH2 0x2000 JUMP JUMPDEST DUP1 PUSH1 0x9 SLOAD AND PUSH2 0xB81 DUP2 ISZERO ISZERO PUSH2 0x1EBB JUMP JUMPDEST DUP5 DUP1 PUSH2 0xC56 JUMPI JUMPDEST POP POP DUP6 PUSH2 0xC20 JUMPI JUMPDEST PUSH1 0x9 SLOAD AND SWAP1 DUP2 EXTCODESIZE ISZERO PUSH2 0x31B JUMPI DUP4 PUSH1 0x44 DUP5 SWAP3 DUP4 DUP9 MLOAD SWAP6 DUP7 SWAP5 DUP6 SWAP4 PUSH3 0x6F3787 PUSH1 0xE7 SHL DUP6 MSTORE DUP5 ADD MSTORE DUP11 PUSH1 0x24 DUP5 ADD MSTORE GAS CALL DUP1 ISZERO PUSH2 0xC16 JUMPI PUSH2 0xBFE JUMPI JUMPDEST POP POP PUSH32 0x945FB2214087BAF45DC65C5A87FA8FA99E269753699C4FA80F51FDF5AEE59C72 SWAP3 DUP3 MLOAD SWAP2 DUP3 MSTORE PUSH1 0x20 DUP3 ADD MSTORE LOG1 PUSH1 0x1 DUP1 SSTORE DUP1 RETURN JUMPDEST PUSH2 0xC07 SWAP1 PUSH2 0x1EF2 JUMP JUMPDEST PUSH2 0xC12 JUMPI DUP4 PUSH0 PUSH2 0xBC8 JUMP JUMPDEST DUP4 DUP1 REVERT JUMPDEST DUP5 MLOAD RETURNDATASIZE DUP5 DUP3 RETURNDATACOPY RETURNDATASIZE SWAP1 REVERT JUMPDEST PUSH2 0xC51 DUP7 DUP3 PUSH1 0x9 SLOAD AND DUP4 PUSH32 0x0 AND PUSH2 0x2044 JUMP JUMPDEST PUSH2 0xB90 JUMP JUMPDEST PUSH2 0xC82 SWAP2 DUP4 PUSH32 0x0 AND PUSH2 0x2044 JUMP JUMPDEST PUSH0 DUP5 PUSH2 0xB88 JUMP JUMPDEST SWAP2 SWAP1 POP CALLVALUE PUSH2 0x31B JUMPI PUSH2 0xC9A CALLDATASIZE PUSH2 0x1BCD JUMP JUMPDEST SWAP1 SWAP2 SWAP4 SWAP3 SWAP5 PUSH2 0xCA7 PUSH2 0x2000 JUMP JUMPDEST PUSH1 0x2 SLOAD PUSH1 0x1 PUSH1 0x1 PUSH1 0xA0 SHL SUB SWAP6 SWAP1 PUSH2 0xCC1 SWAP1 DUP8 AND CALLER EQ PUSH2 0x1E7C JUMP JUMPDEST PUSH2 0xCEA PUSH32 0x0 PUSH2 0x218E JUMP JUMPDEST PUSH2 0xCF5 DUP5 ISZERO ISZERO PUSH2 0x21C7 JUMP JUMPDEST PUSH4 0xFFFFFFFF DUP7 DUP3 AND SWAP8 PUSH2 0xD09 DUP10 ISZERO ISZERO PUSH2 0x223A JUMP JUMPDEST AND SWAP6 DUP7 DUP10 MSTORE PUSH1 0x20 SWAP3 PUSH1 0x7 DUP5 MSTORE DUP7 DUP11 KECCAK256 DUP6 DUP12 MSTORE DUP5 MSTORE PUSH2 0xD2D PUSH1 0xFF DUP9 DUP13 KECCAK256 SLOAD AND ISZERO PUSH2 0x231A JUMP JUMPDEST DUP6 PUSH1 0x3 SLOAD LT PUSH2 0xDC5 JUMPI POP DUP5 PUSH32 0x9361B7ADDB6DB23979A6ABC46E64492D941B969EA4A77E367EABEE0FB19EF497 SWAP7 SWAP6 SWAP5 SWAP4 SWAP3 PUSH2 0xDB5 SWAP3 DUP10 DUP13 MSTORE PUSH1 0x7 DUP6 MSTORE DUP8 DUP13 KECCAK256 DUP7 DUP14 MSTORE DUP6 MSTORE DUP8 DUP13 KECCAK256 PUSH1 0x1 PUSH1 0xFF NOT DUP3 SLOAD AND OR SWAP1 SSTORE PUSH2 0xD8B DUP4 PUSH1 0x3 SLOAD PUSH2 0x2399 JUMP JUMPDEST PUSH1 0x3 SSTORE PUSH32 0x0 AND PUSH2 0x1F58 JUMP JUMPDEST DUP4 MLOAD SWAP3 DUP4 MSTORE DUP3 ADD MSTORE LOG3 PUSH1 0x1 DUP1 SSTORE DUP1 RETURN JUMPDEST DUP7 MLOAD PUSH3 0x461BCD PUSH1 0xE5 SHL DUP2 MSTORE SWAP1 DUP2 ADD DUP5 SWAP1 MSTORE PUSH1 0x13 PUSH1 0x24 DUP3 ADD MSTORE PUSH19 0x125394D551919250D251539517D313D0D2D151 PUSH1 0x6A SHL PUSH1 0x44 DUP3 ADD MSTORE PUSH1 0x64 SWAP1 REVERT JUMPDEST SWAP1 POP CALLVALUE PUSH2 0x31B JUMPI PUSH1 0x20 CALLDATASIZE PUSH1 0x3 NOT ADD SLT PUSH2 0x31B JUMPI PUSH1 0x20 SWAP3 DUP3 SWAP2 PUSH4 0xFFFFFFFF PUSH2 0xE23 PUSH2 0x1BA0 JUMP JUMPDEST AND DUP3 MSTORE DUP5 MSTORE KECCAK256 SLOAD SWAP1 MLOAD SWAP1 DUP2 MSTORE RETURN JUMPDEST DUP4 CALLVALUE PUSH2 0x399 JUMPI DUP1 PUSH1 0x3 NOT CALLDATASIZE ADD SLT PUSH2 0x399 JUMPI PUSH2 0xE4A PUSH2 0x1E16 JUMP JUMPDEST PUSH0 DUP1 SLOAD PUSH1 0x1 PUSH1 0x1 PUSH1 0xA0 SHL SUB NOT DUP2 AND DUP3 SSTORE PUSH1 0x1 PUSH1 0x1 PUSH1 0xA0 SHL SUB AND PUSH32 0x8BE0079C531659141344CD1FD0A4F28419497F9722A3DAAFE3B4186F6B6457E0 DUP3 DUP1 LOG3 DUP1 RETURN JUMPDEST SWAP1 POP CALLVALUE PUSH2 0x31B JUMPI PUSH1 0x20 CALLDATASIZE PUSH1 0x3 NOT ADD SLT PUSH2 0x31B JUMPI PUSH2 0xEA5 PUSH2 0x1BB7 JUMP JUMPDEST PUSH2 0xEAD PUSH2 0x1E16 JUMP JUMPDEST PUSH1 0x1 PUSH1 0x1 PUSH1 0xA0 SHL SUB AND SWAP2 DUP3 ISZERO PUSH2 0xEF8 JUMPI POP POP PUSH1 0x9 DUP1 SLOAD PUSH1 0x1 PUSH1 0x1 PUSH1 0xA0 SHL SUB NOT AND DUP3 OR SWAP1 SSTORE PUSH32 0xE7AE49F883C825B05681B3E00E8BE6FDEA9ED2A8A45E4C6ECB9390FC44CCE615 DUP3 DUP1 LOG2 DUP1 RETURN JUMPDEST SWAP1 PUSH1 0x20 PUSH1 0x64 SWAP3 MLOAD SWAP2 PUSH3 0x461BCD PUSH1 0xE5 SHL DUP4 MSTORE DUP3 ADD MSTORE PUSH1 0xA PUSH1 0x24 DUP3 ADD MSTORE PUSH10 0x16915493D7D590555315 PUSH1 0xB2 SHL PUSH1 0x44 DUP3 ADD MSTORE REVERT JUMPDEST SWAP1 POP CALLVALUE PUSH2 0x31B JUMPI DUP3 PUSH1 0x3 NOT CALLDATASIZE ADD SLT PUSH2 0x31B JUMPI PUSH1 0xB SLOAD DUP4 SWAP2 DUP3 JUMPDEST DUP3 DUP2 LT PUSH2 0x123B JUMPI POP PUSH2 0xF52 DUP4 PUSH2 0x23BE JUMP JUMPDEST SWAP3 PUSH2 0xF5C DUP2 PUSH2 0x23BE JUMP JUMPDEST SWAP5 PUSH2 0xF66 DUP3 PUSH2 0x23BE JUMP JUMPDEST SWAP1 PUSH2 0xF70 DUP4 PUSH2 0x23BE JUMP JUMPDEST SWAP3 PUSH2 0xF7A DUP2 PUSH2 0x23BE JUMP JUMPDEST SWAP5 PUSH2 0xF84 DUP3 PUSH2 0x23BE JUMP JUMPDEST SWAP7 DUP11 DUP12 JUMPDEST DUP3 DUP2 LT PUSH2 0x1130 JUMPI POP POP POP DUP10 JUMPDEST DUP3 DUP2 LT PUSH2 0xFAF JUMPI POP POP POP PUSH2 0x7AA SWAP6 SWAP7 SWAP8 POP MLOAD SWAP7 DUP8 SWAP7 DUP8 PUSH2 0x1C3B JUMP JUMPDEST PUSH1 0x1 DUP2 ADD DUP1 DUP3 GT PUSH2 0x111D JUMPI JUMPDEST DUP4 DUP2 LT PUSH2 0xFD1 JUMPI POP PUSH2 0xFCC SWAP1 PUSH2 0x2277 JUMP JUMPDEST PUSH2 0xF94 JUMP JUMPDEST DUP1 PUSH2 0xFDF PUSH2 0xFF5 SWAP3 DUP12 PUSH2 0x23F0 JUMP JUMPDEST MLOAD PUSH2 0xFEA DUP5 DUP13 PUSH2 0x23F0 JUMP JUMPDEST MLOAD LT PUSH2 0xFFA JUMPI PUSH2 0x2277 JUMP JUMPDEST PUSH2 0xFBB JUMP JUMPDEST PUSH2 0x1004 DUP2 DUP13 PUSH2 0x23F0 JUMP JUMPDEST MLOAD DUP12 PUSH2 0x101B DUP4 PUSH2 0x1014 DUP8 DUP5 PUSH2 0x23F0 JUMP JUMPDEST MLOAD SWAP3 PUSH2 0x23F0 JUMP JUMPDEST MSTORE PUSH2 0x1026 DUP5 DUP14 PUSH2 0x23F0 JUMP JUMPDEST MSTORE PUSH4 0xFFFFFFFF PUSH2 0x105B DUP5 DUP15 DUP4 PUSH2 0x103C DUP7 DUP4 PUSH2 0x23F0 JUMP JUMPDEST MLOAD AND SWAP4 PUSH2 0x1049 DUP4 DUP4 PUSH2 0x23F0 JUMP JUMPDEST MLOAD AND PUSH2 0x1055 DUP7 DUP4 PUSH2 0x23F0 JUMP JUMPDEST MSTORE PUSH2 0x23F0 JUMP JUMPDEST MSTORE PUSH1 0x1 PUSH1 0x1 PUSH1 0xA0 SHL SUB DUP1 PUSH2 0x106F DUP4 DUP11 PUSH2 0x23F0 JUMP JUMPDEST MLOAD AND SWAP1 PUSH2 0x107C DUP6 DUP11 PUSH2 0x23F0 JUMP JUMPDEST MLOAD AND PUSH2 0x1088 DUP4 DUP11 PUSH2 0x23F0 JUMP JUMPDEST MSTORE PUSH2 0x1093 DUP5 DUP10 PUSH2 0x23F0 JUMP JUMPDEST MSTORE PUSH2 0x109E DUP2 DUP10 PUSH2 0x23F0 JUMP JUMPDEST MLOAD PUSH2 0x10A9 DUP5 DUP11 PUSH2 0x23F0 JUMP JUMPDEST MLOAD PUSH2 0x10B4 DUP4 DUP12 PUSH2 0x23F0 JUMP JUMPDEST MSTORE PUSH2 0x10BF DUP5 DUP11 PUSH2 0x23F0 JUMP JUMPDEST MSTORE PUSH2 0x10CA DUP2 DUP11 PUSH2 0x23F0 JUMP JUMPDEST MLOAD PUSH2 0x10D5 DUP5 DUP12 PUSH2 0x23F0 JUMP JUMPDEST MLOAD PUSH2 0x10E0 DUP4 DUP13 PUSH2 0x23F0 JUMP JUMPDEST MSTORE PUSH2 0x10EB DUP5 DUP12 PUSH2 0x23F0 JUMP JUMPDEST MSTORE PUSH2 0x10F6 DUP2 DUP12 PUSH2 0x23F0 JUMP JUMPDEST MLOAD PUSH2 0x1101 DUP5 DUP13 PUSH2 0x23F0 JUMP JUMPDEST MLOAD PUSH2 0x110C DUP4 DUP14 PUSH2 0x23F0 JUMP JUMPDEST MSTORE PUSH2 0x1117 DUP5 DUP13 PUSH2 0x23F0 JUMP JUMPDEST MSTORE PUSH2 0x2277 JUMP JUMPDEST PUSH4 0x4E487B71 PUSH1 0xE0 SHL DUP13 MSTORE PUSH1 0x11 DUP4 MSTORE PUSH1 0x24 DUP13 REVERT JUMPDEST DUP11 PUSH1 0xFF PUSH1 0x5 PUSH2 0x113E DUP5 PUSH2 0x1D90 JUMP JUMPDEST POP ADD SLOAD AND ISZERO DUP1 PUSH2 0x1203 JUMPI JUMPDEST PUSH2 0x115D JUMPI JUMPDEST POP PUSH2 0x1158 SWAP1 PUSH2 0x2277 JUMP JUMPDEST PUSH2 0xF88 JUMP JUMPDEST DUP3 DUP3 PUSH2 0x1170 PUSH2 0x1158 SWAP5 SWAP6 PUSH2 0x11FA SWAP5 PUSH2 0x23F0 JUMP JUMPDEST MSTORE DUP14 PUSH2 0x118D DUP3 PUSH4 0xFFFFFFFF PUSH2 0x1184 DUP9 PUSH2 0x1D90 JUMP JUMPDEST POP SLOAD AND SWAP3 PUSH2 0x23F0 JUMP JUMPDEST MSTORE PUSH2 0x1197 DUP5 PUSH2 0x1D90 JUMP JUMPDEST POP SLOAD PUSH1 0x20 SHR PUSH1 0x1 PUSH1 0x1 PUSH1 0xA0 SHL SUB AND PUSH2 0x11AF DUP3 DUP12 PUSH2 0x23F0 JUMP JUMPDEST MSTORE PUSH1 0x1 PUSH2 0x11BB DUP6 PUSH2 0x1D90 JUMP JUMPDEST POP ADD SLOAD PUSH2 0x11C8 DUP3 DUP13 PUSH2 0x23F0 JUMP JUMPDEST MSTORE PUSH1 0x2 PUSH2 0x11D4 DUP6 PUSH2 0x1D90 JUMP JUMPDEST POP ADD SLOAD PUSH2 0x11E1 DUP3 DUP14 PUSH2 0x23F0 JUMP JUMPDEST MSTORE DUP12 PUSH2 0x1117 DUP3 DUP9 PUSH2 0x11F1 DUP9 PUSH2 0x1D90 JUMP JUMPDEST POP ADD SLOAD SWAP3 PUSH2 0x23F0 JUMP JUMPDEST SWAP2 SWAP1 POP DUP11 PUSH2 0x114E JUMP JUMPDEST POP POP PUSH1 0x3 PUSH2 0x1210 DUP3 PUSH2 0x1D90 JUMP JUMPDEST POP ADD SLOAD PUSH1 0xA DUP2 ADD DUP1 SWAP2 GT PUSH2 0x1228 JUMPI DUP12 SWAP1 TIMESTAMP LT ISZERO PUSH2 0x1149 JUMP JUMPDEST PUSH4 0x4E487B71 PUSH1 0xE0 SHL DUP15 MSTORE PUSH1 0x11 DUP6 MSTORE PUSH1 0x24 DUP15 REVERT JUMPDEST PUSH1 0xFF PUSH1 0x5 PUSH2 0x1248 DUP4 PUSH2 0x1D90 JUMP JUMPDEST POP ADD SLOAD AND ISZERO DUP1 PUSH2 0x127B JUMPI JUMPDEST PUSH2 0x1266 JUMPI JUMPDEST PUSH2 0x1261 SWAP1 PUSH2 0x2277 JUMP JUMPDEST PUSH2 0xF41 JUMP JUMPDEST SWAP3 PUSH2 0x1273 PUSH2 0x1261 SWAP2 PUSH2 0x2277 JUMP JUMPDEST SWAP4 SWAP1 POP PUSH2 0x1258 JUMP JUMPDEST POP PUSH1 0x3 PUSH2 0x1287 DUP3 PUSH2 0x1D90 JUMP JUMPDEST POP ADD SLOAD PUSH1 0xA DUP2 ADD DUP1 SWAP2 GT PUSH2 0x129D JUMPI TIMESTAMP LT ISZERO PUSH2 0x1253 JUMP JUMPDEST PUSH4 0x4E487B71 PUSH1 0xE0 SHL DUP8 MSTORE PUSH1 0x11 DUP4 MSTORE PUSH1 0x24 DUP8 REVERT JUMPDEST SWAP1 POP CALLVALUE PUSH2 0x31B JUMPI PUSH1 0x20 CALLDATASIZE PUSH1 0x3 NOT ADD SLT PUSH2 0x31B JUMPI PUSH2 0x12CB PUSH2 0x1BB7 JUMP JUMPDEST SWAP2 PUSH2 0x12D4 PUSH2 0x1E16 JUMP JUMPDEST PUSH32 0x0 PUSH2 0x1348 JUMPI POP POP PUSH1 0x1 PUSH1 0x1 PUSH1 0xA0 SHL SUB AND PUSH2 0x130F DUP2 ISZERO ISZERO PUSH2 0x1E41 JUMP JUMPDEST PUSH1 0x8 DUP1 SLOAD PUSH1 0x1 PUSH1 0x1 PUSH1 0xA0 SHL SUB NOT AND DUP3 OR SWAP1 SSTORE PUSH32 0x8F2A55B17D47EF80FE6483454245272F3A6BA3418E50C84D26E9565AE25864E2 DUP3 DUP1 LOG2 DUP1 RETURN JUMPDEST SWAP1 PUSH1 0x20 PUSH1 0x64 SWAP3 MLOAD SWAP2 PUSH3 0x461BCD PUSH1 0xE5 SHL DUP4 MSTORE DUP3 ADD MSTORE PUSH1 0x11 PUSH1 0x24 DUP3 ADD MSTORE PUSH17 0x14D3D55490D157D393D7D5D49054141151 PUSH1 0x7A SHL PUSH1 0x44 DUP3 ADD MSTORE REVERT JUMPDEST POP POP CALLVALUE PUSH2 0x225 JUMPI DUP2 PUSH1 0x3 NOT CALLDATASIZE ADD SLT PUSH2 0x225 JUMPI PUSH1 0x20 SWAP1 PUSH1 0xC SLOAD SWAP1 MLOAD SWAP1 DUP2 MSTORE RETURN JUMPDEST POP POP CALLVALUE PUSH2 0x225 JUMPI DUP2 PUSH1 0x3 NOT CALLDATASIZE ADD SLT PUSH2 0x225 JUMPI PUSH1 0x20 SWAP1 PUSH1 0x3 SLOAD SWAP1 MLOAD SWAP1 DUP2 MSTORE RETURN JUMPDEST DUP3 DUP5 CALLVALUE PUSH2 0x399 JUMPI PUSH1 0x20 CALLDATASIZE PUSH1 0x3 NOT ADD SLT PUSH2 0x399 JUMPI DUP3 CALLDATALOAD SWAP1 PUSH1 0xB SLOAD DUP3 LT ISZERO PUSH2 0x399 JUMPI POP PUSH2 0x73F PUSH2 0x7AA SWAP2 PUSH2 0x1D90 JUMP JUMPDEST POP POP CALLVALUE PUSH2 0x225 JUMPI DUP2 PUSH1 0x3 NOT CALLDATASIZE ADD SLT PUSH2 0x225 JUMPI MLOAD PUSH32 0x0 PUSH1 0x1 PUSH1 0x1 PUSH1 0xA0 SHL SUB AND DUP2 MSTORE PUSH1 0x20 SWAP1 RETURN JUMPDEST DUP4 DUP4 CALLVALUE PUSH2 0x225 JUMPI PUSH2 0x143E CALLDATASIZE PUSH2 0x1D08 JUMP JUMPDEST SWAP5 SWAP1 PUSH2 0x1448 PUSH2 0x2000 JUMP JUMPDEST PUSH32 0x0 PUSH2 0x16C6 JUMPI PUSH2 0x1478 DUP5 ISZERO ISZERO PUSH2 0x21C7 JUMP JUMPDEST PUSH4 0xFFFFFFFF DUP1 DUP5 AND SWAP8 PUSH2 0x148C DUP10 ISZERO ISZERO PUSH2 0x2201 JUMP JUMPDEST PUSH1 0x1 PUSH1 0x1 PUSH1 0xA0 SHL SUB DUP4 DUP2 AND SWAP5 SWAP1 PUSH2 0x14A4 DUP7 ISZERO ISZERO PUSH2 0x223A JUMP JUMPDEST DUP1 PUSH1 0x8 SLOAD AND PUSH2 0x14B4 DUP2 ISZERO ISZERO PUSH2 0x235A JUMP JUMPDEST DUP1 EXTCODESIZE ISZERO PUSH2 0x31B JUMPI DUP10 MLOAD PUSH4 0x2770A7EB PUSH1 0xE2 SHL DUP1 DUP3 MSTORE CALLER DUP7 DUP4 ADD SWAP1 DUP2 MSTORE PUSH1 0x20 DUP2 ADD DUP13 SWAP1 MSTORE SWAP1 SWAP4 SWAP3 DUP6 SWAP2 DUP4 SWAP2 SWAP1 DUP3 SWAP1 DUP5 SWAP1 DUP3 SWAP1 PUSH1 0x40 ADD SUB SWAP3 GAS CALL DUP1 ISZERO PUSH2 0x16BC JUMPI SWAP1 DUP5 SWAP2 PUSH2 0x16A8 JUMPI JUMPDEST POP POP DUP11 PUSH2 0x1631 JUMPI JUMPDEST POP POP DUP10 DUP2 MSTORE PUSH1 0x20 SWAP10 DUP3 DUP12 MSTORE DUP8 DUP10 DUP4 KECCAK256 SLOAD LT PUSH2 0x15F7 JUMPI DUP1 DUP3 MSTORE DUP3 DUP12 MSTORE DUP9 DUP3 KECCAK256 PUSH2 0x152A DUP10 DUP3 SLOAD PUSH2 0x2399 JUMP JUMPDEST SWAP1 SSTORE DUP2 MSTORE PUSH1 0x6 DUP11 MSTORE DUP8 DUP2 KECCAK256 SWAP9 DUP10 SLOAD SWAP10 PUSH2 0x1542 DUP12 PUSH2 0x2277 JUMP JUMPDEST SWAP1 SSTORE PUSH32 0x0 SWAP6 DUP10 MLOAD SWAP5 PUSH2 0x1572 DUP7 PUSH2 0x1F1A JUMP JUMPDEST DUP8 AND DUP6 MSTORE DUP12 DUP6 ADD MSTORE DUP8 DUP10 DUP6 ADD MSTORE DUP10 PUSH1 0x60 DUP6 ADD MSTORE TIMESTAMP PUSH1 0x80 DUP6 ADD MSTORE PUSH1 0xA0 DUP5 ADD MSTORE DUP1 PUSH1 0xC0 DUP5 ADD MSTORE PUSH1 0xB SLOAD SWAP2 PUSH1 0x1 PUSH1 0x40 SHL DUP4 LT ISZERO PUSH2 0x15E4 JUMPI POP POP PUSH32 0x8E8057B194E4523F2D4440A74D209BC1C9BBC5899B031DE05A6CD96B469E9131 SWAP5 SWAP4 SWAP3 PUSH2 0xAB6 PUSH2 0xAF2 SWAP4 PUSH2 0xAB0 DUP5 PUSH1 0x1 DUP14 SWAP7 ADD PUSH1 0xB SSTORE PUSH2 0x1D90 JUMP JUMPDEST PUSH4 0x4E487B71 PUSH1 0xE0 SHL DUP3 MSTORE PUSH1 0x41 SWAP1 MSTORE PUSH1 0x24 SWAP1 REVERT JUMPDEST DUP9 MLOAD PUSH3 0x461BCD PUSH1 0xE5 SHL DUP2 MSTORE DUP1 DUP5 ADD DUP13 SWAP1 MSTORE PUSH1 0x14 PUSH1 0x24 DUP3 ADD MSTORE PUSH20 0x125394D551919250D251539517D5D49054141151 PUSH1 0x62 SHL PUSH1 0x44 DUP3 ADD MSTORE PUSH1 0x64 SWAP1 REVERT JUMPDEST PUSH1 0x8 SLOAD AND SWAP1 DUP2 EXTCODESIZE ISZERO PUSH2 0x31B JUMPI DUP10 MLOAD SWAP1 DUP2 MSTORE CALLER DUP5 DUP3 ADD SWAP1 DUP2 MSTORE PUSH1 0x20 DUP2 ADD DUP13 SWAP1 MSTORE SWAP1 SWAP2 DUP4 SWAP2 DUP4 SWAP2 SWAP1 DUP3 SWAP1 DUP5 SWAP1 DUP3 SWAP1 PUSH1 0x40 ADD SUB SWAP3 GAS CALL DUP1 ISZERO PUSH2 0x169E JUMPI SWAP1 DUP3 SWAP2 PUSH2 0x168A JUMPI JUMPDEST POP POP PUSH2 0x1680 DUP10 PUSH1 0xC SLOAD PUSH2 0x2023 JUMP JUMPDEST PUSH1 0xC SSTORE DUP11 DUP1 PUSH2 0x1501 JUMP JUMPDEST PUSH2 0x1693 SWAP1 PUSH2 0x1EF2 JUMP JUMPDEST PUSH2 0x399 JUMPI DUP1 DUP12 PUSH2 0x1672 JUMP JUMPDEST DUP10 MLOAD RETURNDATASIZE DUP5 DUP3 RETURNDATACOPY RETURNDATASIZE SWAP1 REVERT JUMPDEST PUSH2 0x16B1 SWAP1 PUSH2 0x1EF2 JUMP JUMPDEST PUSH2 0x31B JUMPI DUP3 DUP14 PUSH2 0x14F9 JUMP JUMPDEST DUP12 MLOAD RETURNDATASIZE DUP7 DUP3 RETURNDATACOPY RETURNDATASIZE SWAP1 REVERT JUMPDEST DUP5 MLOAD PUSH3 0x461BCD PUSH1 0xE5 SHL DUP2 MSTORE PUSH1 0x20 DUP2 DUP10 ADD MSTORE PUSH1 0xF PUSH1 0x24 DUP3 ADD MSTORE PUSH15 0x2727AA2FA222A9AA24A720AA24A7A7 PUSH1 0x89 SHL PUSH1 0x44 DUP3 ADD MSTORE PUSH1 0x64 SWAP1 REVERT JUMPDEST POP POP CALLVALUE PUSH2 0x225 JUMPI DUP2 PUSH1 0x3 NOT CALLDATASIZE ADD SLT PUSH2 0x225 JUMPI PUSH1 0x20 SWAP1 MLOAD PUSH1 0xA DUP2 MSTORE RETURN JUMPDEST POP POP CALLVALUE PUSH2 0x225 JUMPI DUP2 PUSH1 0x3 NOT CALLDATASIZE ADD SLT PUSH2 0x225 JUMPI MLOAD PUSH32 0x0 PUSH1 0x1 PUSH1 0x1 PUSH1 0xA0 SHL SUB AND DUP2 MSTORE PUSH1 0x20 SWAP1 RETURN JUMPDEST SWAP1 POP CALLVALUE PUSH2 0x31B JUMPI DUP3 PUSH1 0x3 NOT CALLDATASIZE ADD SLT PUSH2 0x31B JUMPI PUSH1 0xA DUP1 SLOAD DUP5 SWAP3 DUP4 JUMPDEST DUP3 DUP2 LT PUSH2 0x190F JUMPI POP PUSH2 0x1786 DUP5 PUSH2 0x23BE JUMP JUMPDEST SWAP4 PUSH2 0x1790 DUP2 PUSH2 0x23BE JUMP JUMPDEST SWAP6 PUSH2 0x179A DUP3 PUSH2 0x23BE JUMP JUMPDEST SWAP2 PUSH2 0x17A4 DUP2 PUSH2 0x23BE JUMP JUMPDEST SWAP4 PUSH2 0x17AE DUP3 PUSH2 0x23BE JUMP JUMPDEST SWAP6 PUSH2 0x17B8 DUP4 PUSH2 0x23BE JUMP JUMPDEST SWAP8 DUP12 SWAP1 DUP13 JUMPDEST DUP4 DUP2 LT PUSH2 0x181A JUMPI POP POP POP POP DUP10 JUMPDEST DUP3 DUP2 LT PUSH2 0x17E5 JUMPI POP POP POP PUSH2 0x7AA SWAP6 SWAP7 SWAP8 POP MLOAD SWAP7 DUP8 SWAP7 DUP8 PUSH2 0x1C3B JUMP JUMPDEST PUSH1 0x1 DUP2 ADD DUP1 DUP3 GT PUSH2 0x111D JUMPI JUMPDEST DUP4 DUP2 LT PUSH2 0x1807 JUMPI POP PUSH2 0x1802 SWAP1 PUSH2 0x2277 JUMP JUMPDEST PUSH2 0x17CA JUMP JUMPDEST DUP1 PUSH2 0xFDF PUSH2 0x1815 SWAP3 DUP12 PUSH2 0x23F0 JUMP JUMPDEST PUSH2 0x17F1 JUMP JUMPDEST DUP13 DUP13 PUSH1 0xFF PUSH1 0x5 PUSH2 0x1829 DUP6 PUSH2 0x1D43 JUMP JUMPDEST POP ADD SLOAD AND ISZERO DUP1 PUSH2 0x18D6 JUMPI JUMPDEST PUSH2 0x1849 JUMPI JUMPDEST POP POP PUSH2 0x1844 SWAP1 PUSH2 0x2277 JUMP JUMPDEST PUSH2 0x17BD JUMP JUMPDEST SWAP4 PUSH2 0x18CC SWAP2 DUP4 PUSH2 0x185D DUP4 PUSH2 0x1844 SWAP7 SWAP9 PUSH2 0x23F0 JUMP JUMPDEST MSTORE PUSH2 0x1870 DUP3 PUSH4 0xFFFFFFFF PUSH2 0x1184 DUP10 PUSH2 0x1D43 JUMP JUMPDEST MSTORE PUSH2 0x187A DUP6 PUSH2 0x1D43 JUMP JUMPDEST POP SLOAD PUSH1 0x20 SHR PUSH1 0x1 PUSH1 0x1 PUSH1 0xA0 SHL SUB AND PUSH2 0x1892 DUP3 DUP13 PUSH2 0x23F0 JUMP JUMPDEST MSTORE PUSH1 0x1 PUSH2 0x189E DUP7 PUSH2 0x1D43 JUMP JUMPDEST POP ADD SLOAD PUSH2 0x18AB DUP3 DUP14 PUSH2 0x23F0 JUMP JUMPDEST MSTORE DUP12 PUSH2 0x18BC DUP3 PUSH1 0x2 PUSH2 0x11F1 DUP10 PUSH2 0x1D43 JUMP JUMPDEST MSTORE DUP13 PUSH2 0x1117 DUP3 DUP10 PUSH2 0x11F1 DUP10 PUSH2 0x1D43 JUMP JUMPDEST SWAP3 SWAP1 POP DUP13 DUP13 PUSH2 0x1839 JUMP JUMPDEST POP POP POP PUSH1 0x3 PUSH2 0x18E4 DUP3 PUSH2 0x1D43 JUMP JUMPDEST POP ADD SLOAD DUP3 DUP2 ADD DUP1 SWAP2 GT PUSH2 0x18FC JUMPI DUP13 DUP15 SWAP2 TIMESTAMP LT ISZERO PUSH2 0x1834 JUMP JUMPDEST PUSH4 0x4E487B71 PUSH1 0xE0 SHL DUP16 MSTORE PUSH1 0x11 DUP7 MSTORE PUSH1 0x24 DUP16 REVERT JUMPDEST PUSH1 0xFF PUSH1 0x5 PUSH2 0x191C DUP4 PUSH2 0x1D43 JUMP JUMPDEST POP ADD SLOAD AND ISZERO DUP1 PUSH2 0x194F JUMPI JUMPDEST PUSH2 0x193A JUMPI JUMPDEST PUSH2 0x1935 SWAP1 PUSH2 0x2277 JUMP JUMPDEST PUSH2 0x1775 JUMP JUMPDEST SWAP4 PUSH2 0x1947 PUSH2 0x1935 SWAP2 PUSH2 0x2277 JUMP JUMPDEST SWAP5 SWAP1 POP PUSH2 0x192C JUMP JUMPDEST POP PUSH1 0x3 PUSH2 0x195B DUP3 PUSH2 0x1D43 JUMP JUMPDEST POP ADD SLOAD DUP5 DUP2 ADD DUP1 SWAP2 GT PUSH2 0x1970 JUMPI TIMESTAMP LT ISZERO PUSH2 0x1927 JUMP JUMPDEST PUSH4 0x4E487B71 PUSH1 0xE0 SHL DUP9 MSTORE PUSH1 0x11 DUP4 MSTORE PUSH1 0x24 DUP9 REVERT JUMPDEST POP POP CALLVALUE PUSH2 0x225 JUMPI DUP2 PUSH1 0x3 NOT CALLDATASIZE ADD SLT PUSH2 0x225 JUMPI PUSH1 0x2 SLOAD SWAP1 MLOAD PUSH1 0x1 PUSH1 0x1 PUSH1 0xA0 SHL SUB SWAP1 SWAP2 AND DUP2 MSTORE PUSH1 0x20 SWAP1 RETURN JUMPDEST POP POP CALLVALUE PUSH2 0x225 JUMPI DUP2 PUSH1 0x3 NOT CALLDATASIZE ADD SLT PUSH2 0x225 JUMPI PUSH1 0x20 SWAP1 PUSH1 0xB SLOAD SWAP1 MLOAD SWAP1 DUP2 MSTORE RETURN JUMPDEST DUP4 DUP4 CALLVALUE PUSH2 0x225 JUMPI PUSH2 0x19DB CALLDATASIZE PUSH2 0x1BCD JUMP JUMPDEST PUSH2 0x19E7 SWAP5 SWAP3 SWAP4 SWAP5 PUSH2 0x2000 JUMP JUMPDEST PUSH1 0x2 SLOAD PUSH1 0x1 PUSH1 0x1 PUSH1 0xA0 SHL SUB SWAP8 SWAP1 PUSH2 0x1A01 SWAP1 DUP10 AND CALLER EQ PUSH2 0x1E7C JUMP JUMPDEST PUSH32 0x0 PUSH2 0x1B73 JUMPI PUSH2 0x1A31 DUP4 ISZERO ISZERO PUSH2 0x21C7 JUMP JUMPDEST PUSH4 0xFFFFFFFF DUP9 DUP7 AND SWAP7 PUSH2 0x1A45 DUP9 ISZERO ISZERO PUSH2 0x223A JUMP JUMPDEST AND SWAP5 DUP6 DUP9 MSTORE PUSH1 0x20 SWAP9 PUSH1 0x7 DUP11 MSTORE DUP6 DUP10 KECCAK256 DUP5 DUP11 MSTORE DUP11 MSTORE PUSH2 0x1A69 PUSH1 0xFF DUP8 DUP12 KECCAK256 SLOAD AND ISZERO PUSH2 0x231A JUMP JUMPDEST PUSH2 0x1A78 DUP2 PUSH1 0x8 SLOAD AND ISZERO ISZERO PUSH2 0x235A JUMP JUMPDEST DUP7 DUP10 MSTORE PUSH1 0x7 DUP11 MSTORE DUP6 DUP10 KECCAK256 DUP5 DUP11 MSTORE DUP11 MSTORE DUP6 DUP10 KECCAK256 PUSH1 0x1 PUSH1 0xFF NOT DUP3 SLOAD AND OR SWAP1 SSTORE DUP7 DUP10 MSTORE DUP3 DUP11 MSTORE DUP6 DUP10 KECCAK256 PUSH2 0x1AA9 DUP7 DUP3 SLOAD PUSH2 0x2023 JUMP JUMPDEST SWAP1 SSTORE PUSH1 0x8 SLOAD AND SWAP2 DUP3 EXTCODESIZE ISZERO PUSH2 0x1B6F JUMPI DUP6 MLOAD PUSH4 0x40C10F19 PUSH1 0xE0 SHL DUP2 MSTORE PUSH1 0x1 PUSH1 0x1 PUSH1 0xA0 SHL SUB SWAP1 SWAP3 AND SWAP1 DUP3 ADD SWAP1 DUP2 MSTORE PUSH1 0x20 DUP2 ADD DUP6 SWAP1 MSTORE SWAP1 SWAP2 DUP9 SWAP2 DUP4 SWAP2 SWAP1 DUP3 SWAP1 DUP5 SWAP1 DUP3 SWAP1 PUSH1 0x40 ADD SUB SWAP3 GAS CALL DUP1 ISZERO PUSH2 0x1B65 JUMPI PUSH2 0x1B30 JUMPI JUMPDEST POP PUSH32 0x6ED61F71C4B4978050D5D326FE478D3014BD7045F7A526A3FA07C67E700B17B7 SWAP4 SWAP5 SWAP6 SWAP7 DUP4 MLOAD SWAP3 DUP4 MSTORE DUP3 ADD MSTORE LOG3 PUSH1 0x1 DUP1 SSTORE DUP1 RETURN JUMPDEST SWAP6 PUSH2 0x1B5D PUSH32 0x6ED61F71C4B4978050D5D326FE478D3014BD7045F7A526A3FA07C67E700B17B7 SWAP6 SWAP7 SWAP8 PUSH2 0x1EF2 JUMP JUMPDEST SWAP6 SWAP5 SWAP4 PUSH2 0x1AFA JUMP JUMPDEST DUP5 MLOAD RETURNDATASIZE DUP10 DUP3 RETURNDATACOPY RETURNDATASIZE SWAP1 REVERT JUMPDEST DUP9 DUP1 REVERT JUMPDEST PUSH1 0x64 SWAP1 PUSH1 0x20 DUP6 MLOAD SWAP2 PUSH3 0x461BCD PUSH1 0xE5 SHL DUP4 MSTORE DUP3 ADD MSTORE PUSH1 0x7 PUSH1 0x24 DUP3 ADD MSTORE PUSH7 0x4E4F545F415243 PUSH1 0xC8 SHL PUSH1 0x44 DUP3 ADD MSTORE REVERT JUMPDEST PUSH1 0x4 CALLDATALOAD SWAP1 PUSH4 0xFFFFFFFF DUP3 AND DUP3 SUB PUSH2 0x1BB3 JUMPI JUMP JUMPDEST PUSH0 DUP1 REVERT JUMPDEST PUSH1 0x4 CALLDATALOAD SWAP1 PUSH1 0x1 PUSH1 0x1 PUSH1 0xA0 SHL SUB DUP3 AND DUP3 SUB PUSH2 0x1BB3 JUMPI JUMP JUMPDEST PUSH1 0x80 SWAP1 PUSH1 0x3 NOT ADD SLT PUSH2 0x1BB3 JUMPI PUSH1 0x4 CALLDATALOAD PUSH4 0xFFFFFFFF DUP2 AND DUP2 SUB PUSH2 0x1BB3 JUMPI SWAP1 PUSH1 0x24 CALLDATALOAD PUSH1 0x1 PUSH1 0x1 PUSH1 0xA0 SHL SUB DUP2 AND DUP2 SUB PUSH2 0x1BB3 JUMPI SWAP1 PUSH1 0x44 CALLDATALOAD SWAP1 PUSH1 0x64 CALLDATALOAD SWAP1 JUMP JUMPDEST SWAP1 DUP2 MLOAD DUP1 DUP3 MSTORE PUSH1 0x20 DUP1 DUP1 SWAP4 ADD SWAP4 ADD SWAP2 PUSH0 JUMPDEST DUP3 DUP2 LT PUSH2 0x1C27 JUMPI POP POP POP POP SWAP1 JUMP JUMPDEST DUP4 MLOAD DUP6 MSTORE SWAP4 DUP2 ADD SWAP4 SWAP3 DUP2 ADD SWAP3 PUSH1 0x1 ADD PUSH2 0x1C19 JUMP JUMPDEST SWAP5 SWAP3 SWAP7 SWAP6 SWAP4 SWAP2 SWAP1 PUSH2 0x1C54 SWAP1 PUSH1 0xC0 DUP8 MSTORE PUSH1 0xC0 DUP8 ADD SWAP1 PUSH2 0x1C08 JUMP JUMPDEST SWAP1 PUSH1 0x20 SWAP2 DUP7 DUP2 SUB DUP4 DUP9 ADD MSTORE DUP3 DUP1 DUP4 MLOAD SWAP3 DUP4 DUP2 MSTORE ADD SWAP3 ADD SWAP1 PUSH0 JUMPDEST DUP2 DUP2 LT PUSH2 0x1CEE JUMPI POP POP POP DUP6 DUP2 SUB PUSH1 0x40 DUP8 ADD MSTORE DUP2 DUP1 DUP10 MLOAD SWAP3 DUP4 DUP2 MSTORE ADD SWAP9 ADD SWAP2 PUSH0 JUMPDEST DUP3 DUP2 LT PUSH2 0x1CD1 JUMPI POP POP POP POP SWAP1 PUSH2 0x1CB2 DUP7 PUSH2 0x1CC0 SWAP4 DUP7 PUSH2 0x1CCE SWAP9 SWAP10 SUB PUSH1 0x60 DUP9 ADD MSTORE PUSH2 0x1C08 JUMP JUMPDEST SWAP1 DUP5 DUP3 SUB PUSH1 0x80 DUP7 ADD MSTORE PUSH2 0x1C08 JUMP JUMPDEST SWAP2 PUSH1 0xA0 DUP2 DUP5 SUB SWAP2 ADD MSTORE PUSH2 0x1C08 JUMP JUMPDEST SWAP1 JUMP JUMPDEST DUP4 MLOAD PUSH1 0x1 PUSH1 0x1 PUSH1 0xA0 SHL SUB AND DUP11 MSTORE SWAP9 DUP2 ADD SWAP9 SWAP3 DUP2 ADD SWAP3 PUSH1 0x1 ADD PUSH2 0x1C8D JUMP JUMPDEST DUP3 MLOAD PUSH4 0xFFFFFFFF AND DUP5 MSTORE SWAP3 DUP5 ADD SWAP3 SWAP2 DUP5 ADD SWAP2 PUSH1 0x1 ADD PUSH2 0x1C6D JUMP JUMPDEST PUSH1 0x80 SWAP1 PUSH1 0x3 NOT ADD SLT PUSH2 0x1BB3 JUMPI PUSH1 0x4 CALLDATALOAD SWAP1 PUSH1 0x24 CALLDATALOAD PUSH4 0xFFFFFFFF DUP2 AND DUP2 SUB PUSH2 0x1BB3 JUMPI SWAP1 PUSH1 0x44 CALLDATALOAD PUSH1 0x1 PUSH1 0x1 PUSH1 0xA0 SHL SUB DUP2 AND DUP2 SUB PUSH2 0x1BB3 JUMPI SWAP1 PUSH1 0x64 CALLDATALOAD SWAP1 JUMP JUMPDEST PUSH1 0xA SLOAD DUP2 LT ISZERO PUSH2 0x1D7C JUMPI PUSH1 0x6 SWAP1 PUSH1 0xA PUSH0 MSTORE MUL PUSH32 0xC65A7BB8D6351C1CF70C95A316CC6A92839C986682D98BC35F958F4883F9D2A8 ADD SWAP1 PUSH0 SWAP1 JUMP JUMPDEST PUSH4 0x4E487B71 PUSH1 0xE0 SHL PUSH0 MSTORE PUSH1 0x32 PUSH1 0x4 MSTORE PUSH1 0x24 PUSH0 REVERT JUMPDEST PUSH1 0xB SLOAD DUP2 LT ISZERO PUSH2 0x1D7C JUMPI PUSH1 0x6 SWAP1 PUSH1 0xB PUSH0 MSTORE MUL PUSH32 0x175B7A638427703F0DBE7BB9BBF987A2551717B34E79F33B5B1008D1FA01DB9 ADD SWAP1 PUSH0 SWAP1 JUMP JUMPDEST SWAP1 PUSH1 0x20 PUSH1 0x3 NOT DUP4 ADD SLT PUSH2 0x1BB3 JUMPI PUSH1 0x4 CALLDATALOAD PUSH8 0xFFFFFFFFFFFFFFFF SWAP3 DUP4 DUP3 GT PUSH2 0x1BB3 JUMPI DUP1 PUSH1 0x23 DUP4 ADD SLT ISZERO PUSH2 0x1BB3 JUMPI DUP2 PUSH1 0x4 ADD CALLDATALOAD SWAP4 DUP5 GT PUSH2 0x1BB3 JUMPI PUSH1 0x24 DUP5 PUSH1 0x5 SHL DUP4 ADD ADD GT PUSH2 0x1BB3 JUMPI PUSH1 0x24 ADD SWAP2 SWAP1 JUMP JUMPDEST PUSH0 SLOAD PUSH1 0x1 PUSH1 0x1 PUSH1 0xA0 SHL SUB AND CALLER SUB PUSH2 0x1E29 JUMPI JUMP JUMPDEST PUSH1 0x40 MLOAD PUSH4 0x118CDAA7 PUSH1 0xE0 SHL DUP2 MSTORE CALLER PUSH1 0x4 DUP3 ADD MSTORE PUSH1 0x24 SWAP1 REVERT JUMPDEST ISZERO PUSH2 0x1E48 JUMPI JUMP JUMPDEST PUSH1 0x40 MLOAD PUSH3 0x461BCD PUSH1 0xE5 SHL DUP2 MSTORE PUSH1 0x20 PUSH1 0x4 DUP3 ADD MSTORE PUSH1 0xC PUSH1 0x24 DUP3 ADD MSTORE PUSH12 0x5A45524F5F41444452455353 PUSH1 0xA0 SHL PUSH1 0x44 DUP3 ADD MSTORE PUSH1 0x64 SWAP1 REVERT JUMPDEST ISZERO PUSH2 0x1E83 JUMPI JUMP JUMPDEST PUSH1 0x40 MLOAD PUSH3 0x461BCD PUSH1 0xE5 SHL DUP2 MSTORE PUSH1 0x20 PUSH1 0x4 DUP3 ADD MSTORE PUSH1 0x10 PUSH1 0x24 DUP3 ADD MSTORE PUSH16 0x27A7262CAFA1A7A7A92224A720AA27A9 PUSH1 0x81 SHL PUSH1 0x44 DUP3 ADD MSTORE PUSH1 0x64 SWAP1 REVERT JUMPDEST ISZERO PUSH2 0x1EC2 JUMPI JUMP JUMPDEST PUSH1 0x40 MLOAD PUSH3 0x461BCD PUSH1 0xE5 SHL DUP2 MSTORE PUSH1 0x20 PUSH1 0x4 DUP3 ADD MSTORE PUSH1 0x8 PUSH1 0x24 DUP3 ADD MSTORE PUSH8 0x1393D7D590555315 PUSH1 0xC2 SHL PUSH1 0x44 DUP3 ADD MSTORE PUSH1 0x64 SWAP1 REVERT JUMPDEST PUSH8 0xFFFFFFFFFFFFFFFF DUP2 GT PUSH2 0x1F06 JUMPI PUSH1 0x40 MSTORE JUMP JUMPDEST PUSH4 0x4E487B71 PUSH1 0xE0 SHL PUSH0 MSTORE PUSH1 0x41 PUSH1 0x4 MSTORE PUSH1 0x24 PUSH0 REVERT JUMPDEST PUSH1 0xE0 DUP2 ADD SWAP1 DUP2 LT PUSH8 0xFFFFFFFFFFFFFFFF DUP3 GT OR PUSH2 0x1F06 JUMPI PUSH1 0x40 MSTORE JUMP JUMPDEST SWAP1 PUSH1 0x1F DUP1 NOT SWAP2 ADD AND DUP2 ADD SWAP1 DUP2 LT PUSH8 0xFFFFFFFFFFFFFFFF DUP3 GT OR PUSH2 0x1F06 JUMPI PUSH1 0x40 MSTORE JUMP JUMPDEST PUSH1 0x40 MLOAD PUSH4 0xA9059CBB PUSH1 0xE0 SHL PUSH1 0x20 DUP3 ADD MSTORE PUSH1 0x1 PUSH1 0x1 PUSH1 0xA0 SHL SUB SWAP3 SWAP1 SWAP3 AND PUSH1 0x24 DUP4 ADD MSTORE PUSH1 0x44 DUP1 DUP4 ADD SWAP4 SWAP1 SWAP4 MSTORE SWAP2 DUP2 MSTORE PUSH2 0x1F99 SWAP2 PUSH2 0x1F94 PUSH1 0x64 DUP4 PUSH2 0x1F36 JUMP JUMPDEST PUSH2 0x1F9B JUMP JUMPDEST JUMP JUMPDEST SWAP1 PUSH0 PUSH1 0x20 SWAP2 DUP3 DUP2 MLOAD SWAP2 ADD DUP3 DUP6 GAS CALL ISZERO PUSH2 0x1FF5 JUMPI PUSH0 MLOAD RETURNDATASIZE PUSH2 0x1FEC JUMPI POP PUSH1 0x1 PUSH1 0x1 PUSH1 0xA0 SHL SUB DUP2 AND EXTCODESIZE ISZERO JUMPDEST PUSH2 0x1FCA JUMPI POP JUMP JUMPDEST PUSH1 0x40 MLOAD PUSH4 0x5274AFE7 PUSH1 0xE0 SHL DUP2 MSTORE PUSH1 0x1 PUSH1 0x1 PUSH1 0xA0 SHL SUB SWAP1 SWAP2 AND PUSH1 0x4 DUP3 ADD MSTORE PUSH1 0x24 SWAP1 REVERT JUMPDEST PUSH1 0x1 EQ ISZERO PUSH2 0x1FC3 JUMP JUMPDEST PUSH1 0x40 MLOAD RETURNDATASIZE PUSH0 DUP3 RETURNDATACOPY RETURNDATASIZE SWAP1 REVERT JUMPDEST PUSH1 0x2 PUSH1 0x1 SLOAD EQ PUSH2 0x2011 JUMPI PUSH1 0x2 PUSH1 0x1 SSTORE JUMP JUMPDEST PUSH1 0x40 MLOAD PUSH4 0x3EE5AEB5 PUSH1 0xE0 SHL DUP2 MSTORE PUSH1 0x4 SWAP1 REVERT JUMPDEST SWAP2 SWAP1 DUP3 ADD DUP1 SWAP3 GT PUSH2 0x2030 JUMPI JUMP JUMPDEST PUSH4 0x4E487B71 PUSH1 0xE0 SHL PUSH0 MSTORE PUSH1 0x11 PUSH1 0x4 MSTORE PUSH1 0x24 PUSH0 REVERT JUMPDEST PUSH1 0x40 MLOAD PUSH4 0x6EB1769F PUSH1 0xE1 SHL DUP2 MSTORE ADDRESS PUSH1 0x4 DUP3 ADD MSTORE PUSH1 0x1 PUSH1 0x1 PUSH1 0xA0 SHL SUB DUP4 DUP2 AND PUSH1 0x24 DUP4 ADD DUP2 SWAP1 MSTORE PUSH1 0x20 SWAP6 SWAP2 DUP5 AND SWAP5 SWAP1 SWAP3 SWAP1 SWAP2 SWAP1 DUP7 DUP2 PUSH1 0x44 DUP2 DUP10 GAS STATICCALL SWAP1 DUP2 ISZERO PUSH2 0x1FF5 JUMPI PUSH0 SWAP2 PUSH2 0x215F JUMPI JUMPDEST POP SWAP1 PUSH2 0x2096 SWAP2 PUSH2 0x2023 JUMP JUMPDEST PUSH1 0x40 MLOAD PUSH4 0x95EA7B3 PUSH1 0xE0 SHL DUP8 DUP3 ADD DUP2 DUP2 MSTORE PUSH1 0x1 PUSH1 0x1 PUSH1 0xA0 SHL SUB SWAP5 SWAP1 SWAP5 AND PUSH1 0x24 DUP4 ADD MSTORE PUSH1 0x44 DUP1 DUP4 ADD SWAP4 SWAP1 SWAP4 MSTORE SWAP2 DUP2 MSTORE SWAP5 SWAP1 SWAP2 DUP7 SWAP1 PUSH0 SWAP1 PUSH2 0x20D6 PUSH1 0x64 DUP10 PUSH2 0x1F36 JUMP JUMPDEST DUP8 MLOAD SWAP1 DUP3 DUP9 GAS CALL SWAP1 RETURNDATASIZE PUSH0 MLOAD SWAP1 DUP4 PUSH2 0x2140 JUMPI JUMPDEST POP POP POP ISZERO PUSH2 0x20F8 JUMPI JUMPDEST POP POP POP POP POP JUMP JUMPDEST PUSH1 0x40 MLOAD SWAP5 DUP6 ADD MSTORE PUSH1 0x24 DUP5 ADD MSTORE PUSH0 PUSH1 0x44 DUP5 ADD MSTORE PUSH1 0x44 DUP4 MSTORE PUSH1 0x80 DUP4 ADD DUP4 DUP2 LT PUSH8 0xFFFFFFFFFFFFFFFF DUP3 GT OR PUSH2 0x1F06 JUMPI PUSH2 0x2136 SWAP4 PUSH2 0x1F94 SWAP2 PUSH1 0x40 MSTORE DUP3 PUSH2 0x1F9B JUMP JUMPDEST PUSH0 DUP1 DUP1 DUP1 DUP1 PUSH2 0x20F1 JUMP JUMPDEST SWAP2 SWAP3 POP SWAP1 PUSH2 0x2155 JUMPI POP EXTCODESIZE ISZERO ISZERO JUMPDEST PUSH0 DUP1 DUP1 PUSH2 0x20E8 JUMP JUMPDEST PUSH1 0x1 SWAP2 POP EQ PUSH2 0x214D JUMP JUMPDEST SWAP1 DUP8 DUP3 DUP2 RETURNDATASIZE DUP4 GT PUSH2 0x2187 JUMPI JUMPDEST PUSH2 0x2175 DUP2 DUP4 PUSH2 0x1F36 JUMP JUMPDEST DUP2 ADD SUB SLT PUSH2 0x399 JUMPI POP MLOAD PUSH2 0x2096 PUSH2 0x208B JUMP JUMPDEST POP RETURNDATASIZE PUSH2 0x216B JUMP JUMPDEST ISZERO PUSH2 0x2195 JUMPI JUMP JUMPDEST PUSH1 0x40 MLOAD PUSH3 0x461BCD PUSH1 0xE5 SHL DUP2 MSTORE PUSH1 0x20 PUSH1 0x4 DUP3 ADD MSTORE PUSH1 0xA PUSH1 0x24 DUP3 ADD MSTORE PUSH10 0x4E4F545F534F55524345 PUSH1 0xB0 SHL PUSH1 0x44 DUP3 ADD MSTORE PUSH1 0x64 SWAP1 REVERT JUMPDEST ISZERO PUSH2 0x21CE JUMPI JUMP JUMPDEST PUSH1 0x40 MLOAD PUSH3 0x461BCD PUSH1 0xE5 SHL DUP2 MSTORE PUSH1 0x20 PUSH1 0x4 DUP3 ADD MSTORE PUSH1 0xB PUSH1 0x24 DUP3 ADD MSTORE PUSH11 0x16915493D7D05353D55395 PUSH1 0xAA SHL PUSH1 0x44 DUP3 ADD MSTORE PUSH1 0x64 SWAP1 REVERT JUMPDEST ISZERO PUSH2 0x2208 JUMPI JUMP JUMPDEST PUSH1 0x40 MLOAD PUSH3 0x461BCD PUSH1 0xE5 SHL DUP2 MSTORE PUSH1 0x20 PUSH1 0x4 DUP3 ADD MSTORE PUSH1 0xA PUSH1 0x24 DUP3 ADD MSTORE PUSH10 0x2D22A927AFA1A420A4A7 PUSH1 0xB1 SHL PUSH1 0x44 DUP3 ADD MSTORE PUSH1 0x64 SWAP1 REVERT JUMPDEST ISZERO PUSH2 0x2241 JUMPI JUMP JUMPDEST PUSH1 0x40 MLOAD PUSH3 0x461BCD PUSH1 0xE5 SHL DUP2 MSTORE PUSH1 0x20 PUSH1 0x4 DUP3 ADD MSTORE PUSH1 0xE PUSH1 0x24 DUP3 ADD MSTORE PUSH14 0x16915493D7D49150D25412515395 PUSH1 0x92 SHL PUSH1 0x44 DUP3 ADD MSTORE PUSH1 0x64 SWAP1 REVERT JUMPDEST PUSH0 NOT DUP2 EQ PUSH2 0x2030 JUMPI PUSH1 0x1 ADD SWAP1 JUMP JUMPDEST SWAP1 PUSH2 0x2307 JUMPI PUSH1 0x5 PUSH1 0xC0 SWAP2 PUSH4 0xFFFFFFFF DUP5 MLOAD AND DUP2 SLOAD SWAP1 DUP1 PUSH4 0xFFFFFFFF NOT DUP4 AND OR DUP4 SSTORE PUSH5 0x100000000 PUSH1 0x1 DUP7 SHL SUB PUSH1 0x20 DUP8 ADD MLOAD PUSH1 0x20 SHL AND SWAP2 PUSH8 0xFFFFFFFFFFFFFFFF DUP7 SHL AND OR OR DUP2 SSTORE PUSH1 0x40 DUP5 ADD MLOAD PUSH1 0x1 DUP3 ADD SSTORE PUSH1 0x60 DUP5 ADD MLOAD PUSH1 0x2 DUP3 ADD SSTORE PUSH1 0x80 DUP5 ADD MLOAD PUSH1 0x3 DUP3 ADD SSTORE PUSH1 0xA0 DUP5 ADD MLOAD PUSH1 0x4 DUP3 ADD SSTORE ADD SWAP2 ADD MLOAD ISZERO ISZERO PUSH1 0xFF DUP1 NOT DUP4 SLOAD AND SWAP2 AND OR SWAP1 SSTORE JUMP JUMPDEST PUSH4 0x4E487B71 PUSH1 0xE0 SHL PUSH0 MSTORE PUSH0 PUSH1 0x4 MSTORE PUSH1 0x24 PUSH0 REVERT JUMPDEST ISZERO PUSH2 0x2321 JUMPI JUMP JUMPDEST PUSH1 0x40 MLOAD PUSH3 0x461BCD PUSH1 0xE5 SHL DUP2 MSTORE PUSH1 0x20 PUSH1 0x4 DUP3 ADD MSTORE PUSH1 0x11 PUSH1 0x24 DUP3 ADD MSTORE PUSH17 0x1053149150511657D41493D0D154D4D151 PUSH1 0x7A SHL PUSH1 0x44 DUP3 ADD MSTORE PUSH1 0x64 SWAP1 REVERT JUMPDEST ISZERO PUSH2 0x2361 JUMPI JUMP JUMPDEST PUSH1 0x40 MLOAD PUSH3 0x461BCD PUSH1 0xE5 SHL DUP2 MSTORE PUSH1 0x20 PUSH1 0x4 DUP3 ADD MSTORE PUSH1 0x10 PUSH1 0x24 DUP3 ADD MSTORE PUSH16 0x2727AFABA920A82822A22FAA27A5A2A7 PUSH1 0x81 SHL PUSH1 0x44 DUP3 ADD MSTORE PUSH1 0x64 SWAP1 REVERT JUMPDEST SWAP2 SWAP1 DUP3 SUB SWAP2 DUP3 GT PUSH2 0x2030 JUMPI JUMP JUMPDEST PUSH8 0xFFFFFFFFFFFFFFFF DUP2 GT PUSH2 0x1F06 JUMPI PUSH1 0x5 SHL PUSH1 0x20 ADD SWAP1 JUMP JUMPDEST SWAP1 PUSH2 0x23C8 DUP3 PUSH2 0x23A6 JUMP JUMPDEST PUSH2 0x23D5 PUSH1 0x40 MLOAD SWAP2 DUP3 PUSH2 0x1F36 JUMP JUMPDEST DUP3 DUP2 MSTORE DUP1 SWAP3 PUSH2 0x23E6 PUSH1 0x1F NOT SWAP2 PUSH2 0x23A6 JUMP JUMPDEST ADD SWAP1 PUSH1 0x20 CALLDATASIZE SWAP2 ADD CALLDATACOPY JUMP JUMPDEST DUP1 MLOAD DUP3 LT ISZERO PUSH2 0x1D7C JUMPI PUSH1 0x20 SWAP2 PUSH1 0x5 SHL ADD ADD SWAP1 JUMP JUMPDEST SWAP2 SWAP1 DUP2 LT ISZERO PUSH2 0x1D7C JUMPI PUSH1 0x5 SHL ADD SWAP1 JUMP JUMPDEST ISZERO PUSH2 0x241B JUMPI JUMP JUMPDEST PUSH1 0x40 MLOAD PUSH3 0x461BCD PUSH1 0xE5 SHL DUP2 MSTORE PUSH1 0x20 PUSH1 0x4 DUP3 ADD MSTORE PUSH1 0xD PUSH1 0x24 DUP3 ADD MSTORE PUSH13 0x929CAC82989288BE929C888AB PUSH1 0x9B SHL PUSH1 0x44 DUP3 ADD MSTORE PUSH1 0x64 SWAP1 REVERT INVALID LOG2 PUSH5 0x6970667358 0x22 SLT KECCAK256 SELFDESTRUCT 0xB7 PUSH14 0xEE92FC9C84E2F5ECA923312318A 0xC 0xD0 PUSH20 0x22346BFDF52053ED4840EE9E64736F6C63430008 EQ STOP CALLER "},"methodIdentifiers":{"PROCESSING_DELAY()":"29d1e8b5","accumulatedFees()":"587f5ed7","aggregateLiquidity(uint32)":"db708da5","burnForUnwrap(uint256,uint32,address,uint256)":"376bd014","burnNonces(uint32)":"c376258f","chainId()":"9a8a0592","coordinator()":"0a009097","depositForWrap(uint256,uint32,address,uint256)":"87b48931","depositNonces(uint32)":"45533b28","getAccumulatedFees()":"5df45a37","getDepositNonce(uint32)":"9ba7bd97","getPendingBurnsCount()":"07a07c81","getPendingDepositsCount()":"fa9c5f4d","getTotalLocked()":"f4732da6","getTotalWrapped(uint32)":"2d3a10cc","isNonceProcessed(uint32,uint256)":"498d7615","isSource()":"d41af769","markBurnsProcessed(uint256[])":"eb2acaa6","markDepositsProcessed(uint256[])":"e2af7150","mintWrapped(uint32,address,uint256,uint256)":"076cbd03","owner()":"8da5cb5b","pendingBurns(uint256)":"4ac64739","pendingDeposits(uint256)":"a7932794","processPendingBurnsInfo()":"679cf18c","processPendingDepositsInfo()":"2028a12a","processedNonces(uint32,uint256)":"aaa9a61c","releaseTokens(uint32,address,uint256,uint256)":"78402756","renounceOwnership()":"715018a6","repopulateVault(uint256,uint256)":"81ed3bc0","setCoordinator(address)":"8ea98117","setVault(address)":"6817031b","setWrappedToken(address)":"62d5c1a6","token()":"fc0c546a","totalLocked()":"56891412","totalWrapped(uint32)":"741fea94","transferOwnership(address)":"f2fde38b","usdc()":"3e413bee","usdcAggregator()":"29716df8","vault()":"fbfa77cf","withdrawFees(address,uint256)":"ad3b1b47","wrappedToken()":"996c6cc3"}}}}}