{
  "_format": "hh3-artifact-1",
  "contractName": "ArcExecutionHub",
  "sourceName": "core/ArcExecutionHub.sol",
  "abi": [
    {
      "inputs": [
        {
          "internalType": "address",
          "name": "_arcPool",
          "type": "address"
        },
        {
          "internalType": "address",
          "name": "_lzEndpoint",
          "type": "address"
        }
      ],
      "stateMutability": "nonpayable",
      "type": "constructor"
    },
    {
      "inputs": [
        {
          "internalType": "address",
          "name": "owner",
          "type": "address"
        }
      ],
      "name": "OwnableInvalidOwner",
      "type": "error"
    },
    {
      "inputs": [
        {
          "internalType": "address",
          "name": "account",
          "type": "address"
        }
      ],
      "name": "OwnableUnauthorizedAccount",
      "type": "error"
    },
    {
      "inputs": [],
      "name": "ReentrancyGuardReentrantCall",
      "type": "error"
    },
    {
      "anonymous": false,
      "inputs": [
        {
          "indexed": true,
          "internalType": "address",
          "name": "previousOwner",
          "type": "address"
        },
        {
          "indexed": true,
          "internalType": "address",
          "name": "newOwner",
          "type": "address"
        }
      ],
      "name": "OwnershipTransferred",
      "type": "event"
    },
    {
      "anonymous": false,
      "inputs": [
        {
          "indexed": true,
          "internalType": "bytes32",
          "name": "requestId",
          "type": "bytes32"
        },
        {
          "indexed": true,
          "internalType": "uint32",
          "name": "destinationChainId",
          "type": "uint32"
        },
        {
          "indexed": true,
          "internalType": "address",
          "name": "user",
          "type": "address"
        },
        {
          "indexed": false,
          "internalType": "uint256",
          "name": "amountOut",
          "type": "uint256"
        }
      ],
      "name": "ResultSent",
      "type": "event"
    },
    {
      "anonymous": false,
      "inputs": [
        {
          "indexed": true,
          "internalType": "bytes32",
          "name": "requestId",
          "type": "bytes32"
        },
        {
          "indexed": false,
          "internalType": "address",
          "name": "tokenOut",
          "type": "address"
        },
        {
          "indexed": false,
          "internalType": "uint256",
          "name": "amountOut",
          "type": "uint256"
        }
      ],
      "name": "SwapExecuted",
      "type": "event"
    },
    {
      "anonymous": false,
      "inputs": [
        {
          "indexed": true,
          "internalType": "bytes32",
          "name": "requestId",
          "type": "bytes32"
        },
        {
          "indexed": true,
          "internalType": "uint32",
          "name": "originChainId",
          "type": "uint32"
        },
        {
          "indexed": true,
          "internalType": "address",
          "name": "user",
          "type": "address"
        },
        {
          "indexed": false,
          "internalType": "address",
          "name": "tokenIn",
          "type": "address"
        },
        {
          "indexed": false,
          "internalType": "address",
          "name": "tokenOut",
          "type": "address"
        },
        {
          "indexed": false,
          "internalType": "uint256",
          "name": "amountIn",
          "type": "uint256"
        }
      ],
      "name": "SwapReceived",
      "type": "event"
    },
    {
      "inputs": [],
      "name": "arcPool",
      "outputs": [
        {
          "internalType": "address",
          "name": "",
          "type": "address"
        }
      ],
      "stateMutability": "view",
      "type": "function"
    },
    {
      "inputs": [],
      "name": "lzEndpoint",
      "outputs": [
        {
          "internalType": "address",
          "name": "",
          "type": "address"
        }
      ],
      "stateMutability": "view",
      "type": "function"
    },
    {
      "inputs": [
        {
          "internalType": "uint16",
          "name": "_srcChainId",
          "type": "uint16"
        },
        {
          "internalType": "bytes",
          "name": "_srcAddress",
          "type": "bytes"
        },
        {
          "internalType": "uint64",
          "name": "_nonce",
          "type": "uint64"
        },
        {
          "internalType": "bytes",
          "name": "_payload",
          "type": "bytes"
        }
      ],
      "name": "lzReceive",
      "outputs": [],
      "stateMutability": "nonpayable",
      "type": "function"
    },
    {
      "inputs": [],
      "name": "owner",
      "outputs": [
        {
          "internalType": "address",
          "name": "",
          "type": "address"
        }
      ],
      "stateMutability": "view",
      "type": "function"
    },
    {
      "inputs": [
        {
          "internalType": "bytes32",
          "name": "",
          "type": "bytes32"
        }
      ],
      "name": "pendingExecutions",
      "outputs": [
        {
          "internalType": "uint32",
          "name": "originChainId",
          "type": "uint32"
        },
        {
          "internalType": "address",
          "name": "originRouter",
          "type": "address"
        },
        {
          "internalType": "address",
          "name": "user",
          "type": "address"
        },
        {
          "internalType": "address",
          "name": "tokenOut",
          "type": "address"
        },
        {
          "internalType": "uint256",
          "name": "minAmountOut",
          "type": "uint256"
        },
        {
          "internalType": "bool",
          "name": "completed",
          "type": "bool"
        }
      ],
      "stateMutability": "view",
      "type": "function"
    },
    {
      "inputs": [
        {
          "internalType": "uint32",
          "name": "",
          "type": "uint32"
        }
      ],
      "name": "remoteRouters",
      "outputs": [
        {
          "internalType": "address",
          "name": "",
          "type": "address"
        }
      ],
      "stateMutability": "view",
      "type": "function"
    },
    {
      "inputs": [],
      "name": "renounceOwnership",
      "outputs": [],
      "stateMutability": "nonpayable",
      "type": "function"
    },
    {
      "inputs": [
        {
          "internalType": "address",
          "name": "_arcPool",
          "type": "address"
        }
      ],
      "name": "setArcPool",
      "outputs": [],
      "stateMutability": "nonpayable",
      "type": "function"
    },
    {
      "inputs": [
        {
          "internalType": "uint32",
          "name": "chainId",
          "type": "uint32"
        },
        {
          "internalType": "address",
          "name": "router",
          "type": "address"
        }
      ],
      "name": "setRemoteRouter",
      "outputs": [],
      "stateMutability": "nonpayable",
      "type": "function"
    },
    {
      "inputs": [
        {
          "internalType": "address",
          "name": "newOwner",
          "type": "address"
        }
      ],
      "name": "transferOwnership",
      "outputs": [],
      "stateMutability": "nonpayable",
      "type": "function"
    }
  ],
  "bytecode": "0x60803461015657610bfc90601f38839003908101601f19168201906001600160401b0382118383101761015a578083916040958694855283398101031261015657610055602061004e8361016e565b920161016e565b331561013f575f8054336001600160a01b03198083168217845586519590946001600160a01b03949093859391908416907f8be0079c531659141344cd1fd0a4f28419497f9722a3daafe3b4186f6b6457e09080a360018055169384156101115750169182156100dd57816002541617600255600354161760035551610a7990816101838239f35b835162461bcd60e51b815260206004820152600d60248201526c16915493d7d153911413d25395609a1b6044820152606490fd5b62461bcd60e51b815260206004820152600960248201526816915493d7d413d3d360ba1b6044820152606490fd5b8251631e4fbdf760e01b81525f6004820152602490fd5b5f80fd5b634e487b7160e01b5f52604160045260245ffd5b51906001600160a01b03821682036101565756fe6080806040526004361015610012575f80fd5b5f3560e01c9081621d3567146103495750806332292564146102d25780634dd0d436146102aa5780635a64ee6a14610241578063715018a6146101ea5780638da5cb5b146101c357806391f0bf6214610186578063ae8a42ef1461013a578063b353aaa7146101125763f2fde38b14610089575f80fd5b3461010e57602036600319011261010e576100a2610991565b6100aa6109bb565b6001600160a01b039081169081156100f6575f54826001600160601b0360a01b8216175f55167f8be0079c531659141344cd1fd0a4f28419497f9722a3daafe3b4186f6b6457e05f80a3005b604051631e4fbdf760e01b81525f6004820152602490fd5b5f80fd5b3461010e575f36600319011261010e576003546040516001600160a01b039091168152602090f35b3461010e57602036600319011261010e57610153610991565b61015b6109bb565b6001600160a01b031661016f811515610a08565b6001600160601b0360a01b60025416176002555f80f35b3461010e57602036600319011261010e5763ffffffff6101a461097e565b165f526004602052602060018060a01b0360405f205416604051908152f35b3461010e575f36600319011261010e575f546040516001600160a01b039091168152602090f35b3461010e575f36600319011261010e576102026109bb565b5f80546001600160a01b0319811682556001600160a01b03167f8be0079c531659141344cd1fd0a4f28419497f9722a3daafe3b4186f6b6457e08280a3005b3461010e57604036600319011261010e5761025a61097e565b6024356001600160a01b038116919082900361010e5763ffffffff9061027e6109bb565b610289831515610a08565b165f90815260046020526040902080546001600160a01b0319169091179055005b3461010e575f36600319011261010e576002546040516001600160a01b039091168152602090f35b3461010e57602036600319011261010e576004355f52600560205260c060405f2080549060018060a01b039081600182015416826002830154169060ff6004600385015494015416936040519563ffffffff8116875260201c166020860152604085015260608401526080830152151560a0820152f35b3461010e57608036600319011261010e5760043561ffff811680910361010e5760243567ffffffffffffffff811161010e57610389903690600401610950565b92909160443567ffffffffffffffff81160361010e576064359167ffffffffffffffff831161010e576103c26014933690600401610950565b9390951061091c57505f908152600460205260409020546001600160a01b039081168335909116036108e65782906101009384918101031261010e5760405192830183811067ffffffffffffffff821117610824576040528035835261042a602082016109a7565b9081602085015260408101359163ffffffff8316830361010e57826040860152610456606083016109a7565b6060860152610467608083016109a7565b9081608087015260a083013560a087015260c083013560c087015260e0830135151560e08401350361010e5760e083013560e0870152604051948560c081011067ffffffffffffffff60c0880111176108245763ffffffff60c09586880160405216865260018060a01b03903516602086015260018060a01b0316604085015260018060a01b03166060840152013560808201525f60a082015281515f526005602052600460a060405f209263ffffffff815116845490640100000000600160c01b03602084015160201b169167ffffffffffffffff60c01b161717845560018401600180841b03604083015116906001600160601b03841b91828254161790556002850190600180851b0360608401511690825416179055608081015160038501550151151560ff80198385015416911617910155805163ffffffff60408301511660018060a01b03602084015116917fac0f33449b63cbe1174bfca862b7bae2c189ebb0c71a45684b4f7f10c5e051a6606060018060a01b03818701511660018060a01b0360808801511660a08801519060405192835260208301526040820152a4606081015160025460a083015160405163095ea7b360e01b81526001600160a01b039283166004820152602481019190915291602091839160449183915f91165af180156108db576108a3575b506002546060820151608083015160a084015160c085015160405163d5bcb9b560e01b60208201526001600160a01b0394851660248201529284166044840152606483019190915260848201523060a4808301919091528152911667ffffffffffffffff60e083019081119083111761082457815f929160e084930160405282602083519301915af13d1561089b573d9067ffffffffffffffff82116108245760405191610710601f8201601f1916602001846109e6565b82523d5f602084013e5b156108685760208180518101031261010e576020015160c082015181106108385781515f90815260056020908152604091829020600401805460ff191660011790558351608085015183516001600160a01b039091168152918201849052917f22421962bfaa39dd537a12f6e9a519f79eea832ac6dfd20e0dc3d125c8eac29991a2815163ffffffff6040840151169160018060a01b0360208501511693608060018060a01b039101511690604051918360208401526040830152806060830152606082526080820191821067ffffffffffffffff83111761082457816020917f821350dfdf24ed9af87b5f157aad459046dd1412db043fc2f82f48a59d94c2e7936040528152a4005b634e487b7160e01b5f52604160045260245ffd5b60405162461bcd60e51b8152602060048201526008602482015267534c49505041474560c01b6044820152606490fd5b60405162461bcd60e51b815260206004820152600b60248201526a14d5d05417d1905253115160aa1b6044820152606490fd5b60609061071a565b6020813d6020116108d3575b816108bc602093836109e6565b8101031261010e57518015150361010e5781610658565b3d91506108af565b6040513d5f823e3d90fd5b60405162461bcd60e51b815260206004820152600e60248201526d2aa725a727aba72fa927aaaa22a960911b6044820152606490fd5b62461bcd60e51b815260206004820152600f60248201526e494e56414c49445f4144445245535360881b6044820152606490fd5b9181601f8401121561010e5782359167ffffffffffffffff831161010e576020838186019501011161010e57565b6004359063ffffffff8216820361010e57565b600435906001600160a01b038216820361010e57565b35906001600160a01b038216820361010e57565b5f546001600160a01b031633036109ce57565b60405163118cdaa760e01b8152336004820152602490fd5b90601f8019910116810190811067ffffffffffffffff82111761082457604052565b15610a0f57565b60405162461bcd60e51b815260206004820152600c60248201526b5a45524f5f4144445245535360a01b6044820152606490fdfea2646970667358221220cd425705f6a5f9838c4ea434f4dc90dbf2110e3e5225d9c5c679f5798a449bf364736f6c63430008140033",
  "linkReferences": {},
  "deployedLinkReferences": {},
  "immutableReferences": {},
  "inputSourceName": "project/core/ArcExecutionHub.sol",
  "buildInfoId": "solc-0_8_20-d28463d23b44ac532776f4a9192ef718a5c6bac4"
}