{
  "_format": "hh3-artifact-1",
  "contractName": "ArcAMMFactory",
  "sourceName": "core/ArcAMMFactory.sol",
  "abi": [
    {
      "inputs": [
        {
          "internalType": "address",
          "name": "_feeToSetter",
          "type": "address"
        },
        {
          "internalType": "uint24",
          "name": "_defaultSwapFeeBps",
          "type": "uint24"
        },
        {
          "internalType": "uint24",
          "name": "_defaultProtocolFeeShareBps",
          "type": "uint24"
        }
      ],
      "stateMutability": "nonpayable",
      "type": "constructor"
    },
    {
      "anonymous": false,
      "inputs": [
        {
          "indexed": false,
          "internalType": "uint24",
          "name": "swapFeeBps",
          "type": "uint24"
        },
        {
          "indexed": false,
          "internalType": "uint24",
          "name": "protocolFeeShareBps",
          "type": "uint24"
        }
      ],
      "name": "DefaultFeesUpdated",
      "type": "event"
    },
    {
      "anonymous": false,
      "inputs": [
        {
          "indexed": true,
          "internalType": "address",
          "name": "newFeeToSetter",
          "type": "address"
        }
      ],
      "name": "FeeToSetterUpdated",
      "type": "event"
    },
    {
      "anonymous": false,
      "inputs": [
        {
          "indexed": true,
          "internalType": "address",
          "name": "newFeeTo",
          "type": "address"
        }
      ],
      "name": "FeeToUpdated",
      "type": "event"
    },
    {
      "anonymous": false,
      "inputs": [
        {
          "indexed": true,
          "internalType": "address",
          "name": "token0",
          "type": "address"
        },
        {
          "indexed": true,
          "internalType": "address",
          "name": "token1",
          "type": "address"
        },
        {
          "indexed": false,
          "internalType": "address",
          "name": "pair",
          "type": "address"
        },
        {
          "indexed": false,
          "internalType": "uint256",
          "name": "index",
          "type": "uint256"
        }
      ],
      "name": "PairCreated",
      "type": "event"
    },
    {
      "inputs": [
        {
          "internalType": "uint256",
          "name": "",
          "type": "uint256"
        }
      ],
      "name": "allPairs",
      "outputs": [
        {
          "internalType": "address",
          "name": "",
          "type": "address"
        }
      ],
      "stateMutability": "view",
      "type": "function"
    },
    {
      "inputs": [],
      "name": "allPairsLength",
      "outputs": [
        {
          "internalType": "uint256",
          "name": "",
          "type": "uint256"
        }
      ],
      "stateMutability": "view",
      "type": "function"
    },
    {
      "inputs": [
        {
          "internalType": "address",
          "name": "tokenA",
          "type": "address"
        },
        {
          "internalType": "address",
          "name": "tokenB",
          "type": "address"
        }
      ],
      "name": "createPair",
      "outputs": [
        {
          "internalType": "address",
          "name": "pair",
          "type": "address"
        }
      ],
      "stateMutability": "nonpayable",
      "type": "function"
    },
    {
      "inputs": [
        {
          "internalType": "address",
          "name": "tokenA",
          "type": "address"
        },
        {
          "internalType": "address",
          "name": "tokenB",
          "type": "address"
        },
        {
          "internalType": "uint24",
          "name": "swapFeeBps",
          "type": "uint24"
        },
        {
          "internalType": "uint24",
          "name": "protocolFeeShareBps",
          "type": "uint24"
        }
      ],
      "name": "createPairWithFees",
      "outputs": [
        {
          "internalType": "address",
          "name": "pair",
          "type": "address"
        }
      ],
      "stateMutability": "nonpayable",
      "type": "function"
    },
    {
      "inputs": [],
      "name": "defaultProtocolFeeShareBps",
      "outputs": [
        {
          "internalType": "uint24",
          "name": "",
          "type": "uint24"
        }
      ],
      "stateMutability": "view",
      "type": "function"
    },
    {
      "inputs": [],
      "name": "defaultSwapFeeBps",
      "outputs": [
        {
          "internalType": "uint24",
          "name": "",
          "type": "uint24"
        }
      ],
      "stateMutability": "view",
      "type": "function"
    },
    {
      "inputs": [],
      "name": "feeTo",
      "outputs": [
        {
          "internalType": "address",
          "name": "",
          "type": "address"
        }
      ],
      "stateMutability": "view",
      "type": "function"
    },
    {
      "inputs": [],
      "name": "feeToSetter",
      "outputs": [
        {
          "internalType": "address",
          "name": "",
          "type": "address"
        }
      ],
      "stateMutability": "view",
      "type": "function"
    },
    {
      "inputs": [
        {
          "internalType": "address",
          "name": "",
          "type": "address"
        },
        {
          "internalType": "address",
          "name": "",
          "type": "address"
        }
      ],
      "name": "getPair",
      "outputs": [
        {
          "internalType": "address",
          "name": "",
          "type": "address"
        }
      ],
      "stateMutability": "view",
      "type": "function"
    },
    {
      "inputs": [
        {
          "internalType": "address",
          "name": "tokenA",
          "type": "address"
        },
        {
          "internalType": "address",
          "name": "tokenB",
          "type": "address"
        }
      ],
      "name": "getPool",
      "outputs": [
        {
          "internalType": "address",
          "name": "",
          "type": "address"
        }
      ],
      "stateMutability": "view",
      "type": "function"
    },
    {
      "inputs": [
        {
          "internalType": "uint24",
          "name": "_defaultSwapFeeBps",
          "type": "uint24"
        },
        {
          "internalType": "uint24",
          "name": "_defaultProtocolFeeShareBps",
          "type": "uint24"
        }
      ],
      "name": "setDefaultFees",
      "outputs": [],
      "stateMutability": "nonpayable",
      "type": "function"
    },
    {
      "inputs": [
        {
          "internalType": "address",
          "name": "_feeTo",
          "type": "address"
        }
      ],
      "name": "setFeeTo",
      "outputs": [],
      "stateMutability": "nonpayable",
      "type": "function"
    },
    {
      "inputs": [
        {
          "internalType": "address",
          "name": "_feeToSetter",
          "type": "address"
        }
      ],
      "name": "setFeeToSetter",
      "outputs": [],
      "stateMutability": "nonpayable",
      "type": "function"
    }
  ],
  "bytecode": "0x6080346101a257601f61323d38819003918201601f191683019291906001600160401b038411838510176101a65781606092849260409687528339810103126101a25780516001600160a01b03811691908290036101a25761006e83610067602084016101ba565b92016101ba565b91801561015e5761271062ffffff81818516101561011a578416116100c7576001549262ffffff60b81b9060b81b169260018060d01b031916179062ffffff60a01b9060a01b1617176001555161307290816101cb8239f35b835162461bcd60e51b815260206004820152602660248201527f417263414d4d466163746f72793a2050524f544f434f4c5f53484152455f544f60448201526509ebe90928e960d31b6064820152608490fd5b855162461bcd60e51b815260206004820152601b60248201527f417263414d4d466163746f72793a204645455f544f4f5f4849474800000000006044820152606490fd5b835162461bcd60e51b815260206004820152601b60248201527f417263414d4d466163746f72793a205a45524f5f4144445245535300000000006044820152606490fd5b5f80fd5b634e487b7160e01b5f52604160045260245ffd5b519062ffffff821682036101a25756fe6080604090808252600436101562000015575f80fd5b5f91823560e01c918263017e7e58146200050657508163094b741514620004db57816312fb31c414620004b25781631e3dd18b146200046a5781632321d1821462000441578163531aa03e1462000139578163574f2ba3146200042057816382ac72c214620003c657816394883ec31462000269578163a2e74af614620001ea578163c9c65396146200018f578163e6a439051462000139575063f46901ed14620000be575f80fd5b34620001365760203660031901126200013657620000db62000576565b6001546001600160a01b039190620000f790831633146200085c565b16806bffffffffffffffffffffffff60a01b8354161782557f9887df018dfa75103faf0f1388028e55a1124783c285d8d2cbcf62a067a6b8448280a280f35b80fd5b9050346200018b57806003193601126200018b57602091816200015b62000576565b916200016662000591565b6001600160a01b03938416825260028652828220908416825285522054915191168152f35b5080fd5b9050346200018b57806003193601126200018b57602090620001d9620001b462000576565b620001be62000591565b906001549162ffffff808460b81c169360a01c16916200064d565b90516001600160a01b039091168152f35b82346200013657602036600319011262000136576200020862000576565b600154906001600160a01b03906200022433838516146200085c565b1680916200023482151562000600565b6001600160a01b031916176001557f021a5d032b24a495206270942f8c755327f3b27539f23099539ff95e2500b28d8280a280f35b8234620001365781600319360112620001365762ffffff9160043583811690818103620003c25760243594851690818603620003be57600154620002b8336001600160a01b038316146200085c565b612710808510156200037a57831162000327577f1a85b6bd8c8cf85755c9b6ab0e2c8409bcc6e71dac8eba6d0024fb2e82e43fbb959662ffffff60b81b9060b81b169162ffffff60a01b9060a01b169065ffffffffffff60a01b1916171760015582519182526020820152a180f35b845162461bcd60e51b815260206004820152602660248201527f417263414d4d466163746f72793a2050524f544f434f4c5f53484152455f544f60448201526509ebe90928e960d31b6064820152608490fd5b855162461bcd60e51b815260206004820152601b60248201527f417263414d4d466163746f72793a204645455f544f4f5f4849474800000000006044820152606490fd5b8480fd5b8380fd5b9050346200018b5760803660031901126200018b57620003e562000576565b620003ef62000591565b6044359162ffffff948584168403620001365760643595861686036200013657509160209491620001d9936200064d565b9050346200018b57816003193601126200018b576020906003549051908152f35b9050346200018b57816003193601126200018b5760209062ffffff60015460b81c169051908152f35b9050346200018b5760203660031901126200018b57600435916003548310156200013657506200049c6020926200052c565b60018060a01b0391549060031b1c169051908152f35b9050346200018b57816003193601126200018b5760209062ffffff60015460a01c169051908152f35b9050346200018b57816003193601126200018b5760015490516001600160a01b039091168152602090f35b8390346200018b57816003193601126200018b5790546001600160a01b03168152602090f35b600354811015620005625760035f527fc2575a0e9e593c00f959f8c92f12db2869c3395a3b0502d05e2516446f71f85b01905f90565b634e487b7160e01b5f52603260045260245ffd5b600435906001600160a01b03821682036200058d57565b5f80fd5b602435906001600160a01b03821682036200058d57565b15620005b057565b60405162461bcd60e51b815260206004820152602260248201527f417263414d4d466163746f72793a204944454e544943414c5f41444452455353604482015261455360f01b6064820152608490fd5b156200060857565b60405162461bcd60e51b815260206004820152601b60248201527f417263414d4d466163746f72793a205a45524f5f4144445245535300000000006044820152606490fd5b6001600160a01b03949391929190859081851682821662000691818314156200067681620005a8565b8215158062000852575b6200068b9062000600565b620005a8565b10156200084b575b1691825f526020916002835260409187835f20961695865f52845287835f2054166200080757875f541690835192612793918285019185831067ffffffffffffffff841117620007e95760a0948694620008aa86398984528a8985015262ffffff8093168885015260608401521660808201520301905ff08015620007fd57861695835f5260028352815f20855f528352815f206bffffffffffffffffffffffff60a01b90888282541617905560028452825f20855f52845287835f209182541617905560035468010000000000000000811015620007e9578060016200078492016003556200052c565b819291549060031b9189831b921b1916179055600354915f198301928311620007d5577f0d3648bd0f6ba80134a33ba9275ac585d9d315f0ad8355cddefde31afa28d0e992825191888352820152a3565b634e487b7160e01b5f52601160045260245ffd5b634e487b7160e01b5f52604160045260245ffd5b50513d5f823e3d90fd5b825162461bcd60e51b815260048101859052601a60248201527f417263414d4d466163746f72793a20504149525f4558495354530000000000006044820152606490fd5b9362000699565b5083151562000680565b156200086457565b60405162461bcd60e51b815260206004820152601860248201527f417263414d4d466163746f72793a20464f5242494444454e00000000000000006044820152606490fdfe61014034620005d4576001600160401b03601f6200279338819003828101601f199081168601939290919085851187861017620004e3578160a09288926040978852833981010312620005d4576200005785620005f8565b60209162000067838801620005f8565b92620000758689016200060d565b946200009260806200008a60608c01620005f8565b9a016200060d565b976200009d620005d8565b91600a835269041726320414d4d204c560b41b84840152620000be620005d8565b90600682526504152432d4c560d41b85830152835191838311620004e35760039283546001968782811c92168015620005c9575b89831014620005b557818584931162000562575b50889085831160011462000503575f92620004f7575b50505f1982861b1c191690861b1783555b8051938411620004e35760049687548681811c91168015620004d8575b88821014620004c5579081848796959493116200046c575b50879285116001146200040857505f93620003fc575b505082841b925f19911b1c19161783555b6005556001600160a01b038481169290841691828414620003ba5782151580620003b0575b156200037f5761271062ffffff81818a1610156200034d578a16116200030b57505033608052101562000304575b60a05260c05260e052610100928352610120918252519061217492836200061f843960805183818161098101526109d5015260a0518381816101590152818161029d0152818161056a01528181610a3e01528181610bb001528181610e0001528181610e5d01528181610fef0152818161125101528181611366015281816114440152611996015260c0518381816101a0015281816102c00152818161058d0152818161093d01528181610a1a01528181610bd501528181610e8e0152818161104301528181611287015281816112f3015281816113a90152611467015260e051838181610f2401528181610f6e01528181611562015281816115ac01526118560152518281816117f10152611fd9015251818181610d440152818161202201526120660152f35b90620001dc565b875162461bcd60e51b815291820152601760248201527f50524f544f434f4c5f53484152455f544f4f5f48494748000000000000000000604482015260649150fd5b895162461bcd60e51b8152808501849052600c60248201526b08c8a8abea89e9ebe90928e960a31b6044820152606490fd5b875162461bcd60e51b815291820152600c60248201526b5a45524f5f4144445245535360a01b604482015260649150fd5b50831515620001ae565b875162461bcd60e51b815291820152601360248201527f4944454e544943414c5f41444452455353455300000000000000000000000000604482015260649150fd5b015191505f8062000178565b8695939291931692885f52875f20935f5b898282106200045557505085116200043b575b50505050811b01835562000189565b01519060f8845f19921b161c191690555f8080806200042c565b838501518755899890960195938401930162000419565b909192939450885f52875f208480880160051c8201928a8910620004bb575b918991899897969594930160051c01915b828110620004ac57505062000162565b5f81558897508991016200049c565b925081926200048b565b602289634e487b7160e01b5f525260245ffd5b90607f16906200014a565b634e487b7160e01b5f52604160045260245ffd5b015190505f806200011c565b908a89941691875f528a5f20925f5b8c8282106200054b575050841162000533575b505050811b0183556200012d565b01515f1983881b60f8161c191690555f808062000525565b8385015186558c9790950194938401930162000512565b909150855f52885f208580850160051c8201928b8610620005ab575b918a91869594930160051c01915b8281106200059c57505062000106565b5f81558594508a91016200058c565b925081926200057e565b634e487b7160e01b5f52602260045260245ffd5b91607f1691620000f2565b5f80fd5b60408051919082016001600160401b03811183821017620004e357604052565b51906001600160a01b0382168203620005d457565b519062ffffff82168203620005d45756fe6080806040526004361015610012575f80fd5b5f3560e01c90816306fdde0314611a7c575080630902f1ac14611a47578063095ea7b3146119c55780630dfe16811461198157806318160ddd1461196457806323b872dd1461187a5780632ffdaf891461183b578063313ce5671461182057806364df049e146117dc5780636d9a640a146113d15780636e81221c14610d9f57806370a0823114610d685780639040f86614610d2957806395d89b4114610c2d578063a9059cbb14610bfc578063aa6ca80814610b92578063bc25cf77146109b0578063c45a01551461096c578063d21220a714610928578063dd62ed3e146108db578063e0ab0772146104fc578063e39b0eb5146102535763fff6cae914610119575f80fd5b3461020c575f36600319011261020c57610131611eea565b6040516370a0823160e01b8082523060048301526001600160a01b03916020919082816024817f000000000000000000000000000000000000000000000000000000000000000088165afa9182156102175783915f93610222575b5060246040518096819382523060048301527f0000000000000000000000000000000000000000000000000000000000000000165afa918215610217575f926101e1575b6101da8383611f0d565b6001600555005b90915082813d8311610210575b6101f88183611bbd565b8101031261020c576101da9151905f6101d0565b5f80fd5b503d6101ee565b6040513d5f823e3d90fd5b8281939294503d831161024c575b61023a8183611bbd565b8101031261020c57829051915f61018c565b503d610230565b3461020c57608036600319011261020c5760043561026f611ba7565b90610278611eea565b6001600160a01b039180831691610290831515611cb0565b80156104c65760065492847f000000000000000000000000000000000000000000000000000000000000000016947f00000000000000000000000000000000000000000000000000000000000000001660025433156104ae57335f526020935f855260405f20548181106104865791610350826103609361038f95335f525f8a520360405f205580600254036002555f6040518281525f8051602061211f8339815191528a3392a36001600160701b0361035584610350838e1685611d27565b611d3a565b9a60701c1690611d27565b8095610370602435891015611d58565b61037e604435831015611d9b565b61038988828b61208c565b8361208c565b6040519583876024816370a0823160e01b948582523060048301525afa968715610217575f97610457575b50839060246040518094819382523060048301525afa908115610217575f91610429575b506103eb90604096611f0d565b845184815283838201527fdccd412f0b1252819cb1fd330b93224ca42612892bb3f4f789976e6d81936496863392a360016005558351928352820152f35b90508281813d8311610450575b6104408183611bbd565b8101031261020c575160406103de565b503d610436565b9096508381813d831161047f575b61046f8183611bbd565b8101031261020c575195836103ba565b503d610465565b60405163391434e360e21b815233600482015260248101919091526044810191909152606490fd5b604051634b637e8f60e11b81525f6004820152602490fd5b60405162461bcd60e51b815260206004820152600e60248201526d5a45524f5f4c495155494449545960901b6044820152606490fd5b3461020c5760a036600319011261020c576024803590600435906001600160a01b03906084359082821680830361020c5761054090610539611eea565b1515611cb0565b831515806108d2575b61055290611ce6565b600654936001600160701b038086169560701c1692847f000000000000000000000000000000000000000000000000000000000000000016947f000000000000000000000000000000000000000000000000000000000000000016918615806108ca575b1561087f5796935b6105ca88303389611e35565b6105d685303386611e35565b60025496876108495750506105eb8488611d27565b5f600382111561083b57508060019080821c8281018091116108285791905b838310610808575050505b6103e71981019081116107f557956103e8908181018091116107e2575f8051602061211f83398151915260206001935f9360025584845283825260408420818154019055604051908152a35b851561079e578561067a9161067582611fd7565b611deb565b6040519384926370a0823160e01b91828552306004860152848260209687935afa958615610217575f9661076d575b509083916040518094819382523060048301525afa918215610217575f9261073d575b50506106db9061073993611f0d565b604080518581526020810183905290810184905233907fb4c03061fb5b7fed76389d5af8f2e0ddb09f8c70d1333abbb62582835e10accb90606090a26001600555604051938493846040919493926060820195825260208201520152565b0390f35b90809250813d8311610766575b6107548183611bbd565b8101031261020c5751826106db6106cc565b503d61074a565b919095508382813d8311610797575b6107868183611bbd565b8101031261020c57905194836106a9565b503d61077c565b60405162461bcd60e51b815260206004820152601d818501527f494e53554646494349454e545f4c49515549444954595f4d494e5445440000006044820152606490fd5b84634e487b7160e01b5f5260116004525ffd5b83634e487b7160e01b5f5260116004525ffd5b9091925061081f8361081a8184611d3a565b611ca3565b821c919061060a565b86634e487b7160e01b5f5260116004525ffd5b901561061557506001610615565b90610350610861610868936103508b8d9c979c611d27565b9387611d27565b8082101561087857505b94610661565b9050610872565b61088d876103508784611d27565b978089116108ab57506108a4606435891015611d9b565b96936105be565b9750506108bc84610350888a611d27565b6108a4604435821015611d58565b5084156105b6565b50841515610549565b3461020c57604036600319011261020c576108f4611b7b565b6108fc611b91565b9060018060a01b038091165f52600160205260405f2091165f52602052602060405f2054604051908152f35b3461020c575f36600319011261020c576040517f00000000000000000000000000000000000000000000000000000000000000006001600160a01b03168152602090f35b3461020c575f36600319011261020c576040517f00000000000000000000000000000000000000000000000000000000000000006001600160a01b03168152602090f35b3461020c5760208060031936011261020c576109ca611b7b565b6001600160a01b03907f000000000000000000000000000000000000000000000000000000000000000082163303610b5e57610a04611eea565b6040516370a0823160e01b8082523060048301527f00000000000000000000000000000000000000000000000000000000000000008416937f00000000000000000000000000000000000000000000000000000000000000001691908582602481865afa918215610217575f92610b2f575b506040519081523060048201528581602481885afa958615610217575f96610aff575b50506001600160701b039183836006541692838111610ae9575b5050505060065460701c1692838111610acd576001600555005b610ae093610ada91611dde565b9161208c565b808080806101da565b610af693610ada91611dde565b84808381610ab3565b9080929650813d8311610b28575b610b178183611bbd565b8101031261020c5751938580610a99565b503d610b0d565b9091508581813d8311610b57575b610b478183611bbd565b8101031261020c57519086610a76565b503d610b3d565b60405162461bcd60e51b815260048101849052600c60248201526b4f4e4c595f464143544f525960a01b6044820152606490fd5b3461020c575f36600319011261020c57604080516001600160a01b037f0000000000000000000000000000000000000000000000000000000000000000811682527f0000000000000000000000000000000000000000000000000000000000000000166020820152f35b3461020c57604036600319011261020c57610c22610c18611b7b565b6024359033611bf3565b602060405160018152f35b3461020c575f36600319011261020c576040515f90600454600181811c90808316928315610d1f575b6020938484108114610d0b57838652908115610ceb5750600114610c91575b61073984610c8581880382611bbd565b60405191829182611b34565b60045f9081529294507f8a35acfbc15ff81a39ae7d344fd709f28e8600b4aa8c65c6b64bfe7fe36bd19b5b828410610cd8575050508161073993610c859282010193610c75565b8054858501870152928501928101610cbc565b60ff1916858501525050151560051b8201019150610c8581610739610c75565b634e487b7160e01b5f52602260045260245ffd5b91607f1691610c56565b3461020c575f36600319011261020c57602060405162ffffff7f0000000000000000000000000000000000000000000000000000000000000000168152f35b3461020c57602036600319011261020c576001600160a01b03610d89611b7b565b165f525f602052602060405f2054604051908152f35b3461020c57608036600319011261020c57610db8611b7b565b610dc0611b91565b610dc8611ba7565b91610dd1611eea565b610de56001600160a01b0384161515611cb0565b610df26044351515611ce6565b6001600160a01b03908116907f00000000000000000000000000000000000000000000000000000000000000001681148061139b575b156112f15750506001905b600654906001600160701b038083169260701c16821515806112e8575b156112b4578315611285577f00000000000000000000000000000000000000000000000000000000000000006001600160a01b03165b841561124f577f00000000000000000000000000000000000000000000000000000000000000006001600160a01b0316916024906020905b871561124857865b88156112405750925b6040516370a0823160e01b815230600482015292839182906001600160a01b03165afa908115610217575f9161120e575b50610f166044356001600160701b038716611ca3565b116111d45761271062ffffff7f0000000000000000000000000000000000000000000000000000000000000000168103116111c05782610fd392610fbb610fce96610fb56001600160701b03612710610f9862ffffff7f0000000000000000000000000000000000000000000000000000000000000000168203604435611d27565b049616956001600160701b03610fae8883611d27565b9316611ca3565b90611d3a565b95869384151590816111b6575b506120dc565b61208c565b6040516370a0823160e01b8152306004820152926020846024817f00000000000000000000000000000000000000000000000000000000000000006001600160a01b03165afa938415610217575f94611182575b506040516370a0823160e01b81523060048201526020816024817f00000000000000000000000000000000000000000000000000000000000000006001600160a01b03165afa908115610217575f9161114f575b5061108890602095611f0d565b8015611127577fd78ad95fa46c994b6551d0da85fc275fe613ce37657fb8d5e3d130840159d822604435915b801561111e575f935b8115611117575f915b1561110e576110fe865b60405193849360018060a01b0316973397859094939260609260808301968352602083015260408201520152565b0390a36001600555604051908152f35b6110fe5f6110d0565b85916110c6565b604435936110bd565b7fd78ad95fa46c994b6551d0da85fc275fe613ce37657fb8d5e3d130840159d8225f916110b4565b90506020813d60201161117a575b8161116a60209383611bbd565b8101031261020c5751602061107b565b3d915061115d565b9093506020813d6020116111ae575b8161119e60209383611bbd565b8101031261020c57519284611027565b3d9150611191565b9050841089610fc8565b634e487b7160e01b5f52601160045260245ffd5b60405162461bcd60e51b8152602060048201526012602482015271125394155517d393d517d49150d15255915160721b6044820152606490fd5b90506020813d602011611238575b8161122960209383611bbd565b8101031261020c575186610f00565b3d915061121c565b905092610ecf565b8096610ec6565b7f00000000000000000000000000000000000000000000000000000000000000006001600160a01b031691602490602090610ebe565b7f00000000000000000000000000000000000000000000000000000000000000006001600160a01b0316610e86565b60405162461bcd60e51b815260206004820152600c60248201526b4e4f5f4c495155494449545960a01b6044820152606490fd5b50801515610e50565b7f00000000000000000000000000000000000000000000000000000000000000006001600160a01b0316149081611364575b5015611330575f90610e33565b60405162461bcd60e51b815260206004820152600c60248201526b24a72b20a624a22fa820a4a960a11b6044820152606490fd5b7f00000000000000000000000000000000000000000000000000000000000000006001600160a01b03908116911614905082611323565b506001600160a01b038281167f000000000000000000000000000000000000000000000000000000000000000090911614610e28565b3461020c57606036600319011261020c576001600160a01b036044358181169081810361020c57611400611eea565b6004358015801580916117d1575b611417906120dc565b611422841515611cb0565b600654926001600160701b039182851692838510806117c1575b1561178357877f000000000000000000000000000000000000000000000000000000000000000016977f00000000000000000000000000000000000000000000000000000000000000001691611773575b6024978835938480611762575b50506040519182916370a0823160e01b90818452306004850152838c60209586935afa938415610217575f94611733575b5082908b6040518097819382523060048301525afa938415610217575f94611704575b506114f98787611dde565b8311156116fd5761151361150d8888611dde565b84611dde565b975b60701c16946115248587611dde565b8411156116f65761153e6115388688611dde565b85611dde565b955b8815801580916116ed575b61155490611ce6565b156116e65761271062ffffff7f00000000000000000000000000000000000000000000000000000000000000001681038181116116d357611595908b611d27565b04905b868989156116b75750506127109162ffffff7f0000000000000000000000000000000000000000000000000000000000000000168303908382116116a45761160b896115ff6116048e6115ff8f996115f6611611996116179c611d27565b04965b8b611ca3565b611dde565b9386611ca3565b90611d27565b92611d27565b1161167d57509161164e611673927fd78ad95fa46c994b6551d0da85fc275fe613ce37657fb8d5e3d130840159d822969594611f0d565b6040519384933397859094939260609260808301968352602083015260408201520152565b0390a36001600555005b60649060018a6040519262461bcd60e51b84526004840152820152604b60f81b6044820152fd5b8d634e487b7160e01b5f5260116004525ffd5b9261160b611611926115ff611604611617976115ff5f966115f9565b8c634e487b7160e01b5f5260116004525ffd5b5f90611598565b5087151561154b565b5f95611540565b5f97611515565b9093508181813d831161172c575b61171c8183611bbd565b8101031261020c5751928a6114ee565b503d611712565b9093508281813d831161175b575b61174b8183611bbd565b8101031261020c575192826114cb565b503d611741565b61176c918561208c565b898461149a565b61177e85848a61208c565b61148d565b60405162461bcd60e51b8152602060048201526016602482015275494e53554646494349454e545f4c495155494449545960501b6044820152606490fd5b50808660701c166024351061143c565b50602435151561140e565b3461020c575f36600319011261020c576040517f00000000000000000000000000000000000000000000000000000000000000006001600160a01b03168152602090f35b3461020c575f36600319011261020c57602060405160128152f35b3461020c575f36600319011261020c57602060405162ffffff7f0000000000000000000000000000000000000000000000000000000000000000168152f35b3461020c57606036600319011261020c57611893611b7b565b61189b611b91565b6001600160a01b0382165f8181526001602090815260408083203384529091529020549260443592915f1985106118d8575b50610c229350611bf3565b83851061193e57801561192657331561190e57610c229484915f52600160205260405f20335f526020520360405f2055846118cd565b604051634a1406b160e11b81525f6004820152602490fd5b60405163e602df0560e01b81525f6004820152602490fd5b604051637dc7a0d960e11b81523360048201526024810186905260448101859052606490fd5b3461020c575f36600319011261020c576020600254604051908152f35b3461020c575f36600319011261020c576040517f00000000000000000000000000000000000000000000000000000000000000006001600160a01b03168152602090f35b3461020c57604036600319011261020c576119de611b7b565b602435903315611926576001600160a01b031690811561190e57335f52600160205260405f20825f526020528060405f20556040519081527f8c5be1e5ebec7d5bd14f71427d1e84f3dd0314c0f7b2291e5b200ac8c7c3b92560203392a3602060405160018152f35b3461020c575f36600319011261020c57600654604080516001600160701b03808416825260709390931c909216602083015290f35b3461020c575f36600319011261020c575f90600354600181811c90808316928315611b2a575b6020938484108114610d0b57838652908115610ceb5750600114611ad05761073984610c8581880382611bbd565b60035f9081529294507fc2575a0e9e593c00f959f8c92f12db2869c3395a3b0502d05e2516446f71f85b5b828410611b17575050508161073993610c859282010193610c75565b8054858501870152928501928101611afb565b91607f1691611aa2565b602080825282518183018190529093925f5b828110611b6757505060409293505f838284010152601f8019910116010190565b818101860151848201604001528501611b46565b600435906001600160a01b038216820361020c57565b602435906001600160a01b038216820361020c57565b606435906001600160a01b038216820361020c57565b90601f8019910116810190811067ffffffffffffffff821117611bdf57604052565b634e487b7160e01b5f52604160045260245ffd5b916001600160a01b038084169283156104ae5716928315611c8b575f9083825281602052604082205490838210611c59575091604082825f8051602061211f833981519152958760209652828652038282205586815220818154019055604051908152a3565b60405163391434e360e21b81526001600160a01b03919091166004820152602481019190915260448101839052606490fd5b60405163ec442f0560e01b81525f6004820152602490fd5b919082018092116111c057565b15611cb757565b60405162461bcd60e51b81526020600482015260076024820152665a45524f5f544f60c81b6044820152606490fd5b15611ced57565b60405162461bcd60e51b8152602060048201526012602482015271125394d551919250d251539517d25394155560721b6044820152606490fd5b818102929181159184041417156111c057565b8115611d44570490565b634e487b7160e01b5f52601260045260245ffd5b15611d5f57565b60405162461bcd60e51b81526020600482015260146024820152730494e53554646494349454e545f414d4f554e54360641b6044820152606490fd5b15611da257565b60405162461bcd60e51b8152602060048201526014602482015273494e53554646494349454e545f414d4f554e543160601b6044820152606490fd5b919082039182116111c057565b6001600160a01b0316908115611c8b575f8051602061211f833981519152602082611e195f94600254611ca3565b60025584845283825260408420818154019055604051908152a3565b6040516323b872dd60e01b60208201526001600160a01b03928316602482015292909116604483015260648083019390935291815260a081019181831067ffffffffffffffff841117611bdf57611e8e92604052611e90565b565b905f602091828151910182855af115610217575f513d611ee157506001600160a01b0381163b155b611ebf5750565b604051635274afe760e01b81526001600160a01b039091166004820152602490fd5b60011415611eb8565b600260055414611efb576002600555565b604051633ee5aeb560e01b8152600490fd5b906001600160701b03908183111580611fcd575b15611f9d57600680546001600160e01b031916938316938417607092831b6dffffffffffffffffffffffffffff60701b161790819055604080516001600160701b0395861681529190921c90921690921660208201527f1c411e9a96e071241c2f21f7726b17ae89e3cab4c78be50e062b03a9fffbbad19190a1565b60405162461bcd60e51b81526020600482015260086024820152674f564552464c4f5760c01b6044820152606490fd5b5081811115611f21565b7f0000000000000000000000000000000000000000000000000000000000000000906001600160a01b03821615801561205f575b61205b57801561205b576120486127109162ffffff7f00000000000000000000000000000000000000000000000000000000000000001690611d27565b0480612052575050565b611e8e91611deb565b5050565b5062ffffff7f0000000000000000000000000000000000000000000000000000000000000000161561200b565b60405163a9059cbb60e01b60208201526001600160a01b039092166024830152604480830193909352918152608081019167ffffffffffffffff831182841017611bdf57611e8e92604052611e90565b156120e357565b60405162461bcd60e51b8152602060048201526013602482015272125394d551919250d251539517d3d555141555606a1b6044820152606490fdfeddf252ad1be2c89b69c2b068fc378daa952ba7f163c4a11628f55a4df523b3efa2646970667358221220b33f5c50c89135c6d7fd5b0017291037608cf74a538517dfbbbcf4b5ab364a2d64736f6c63430008140033a2646970667358221220cbf220ffda0f0324f3337a94983e53b17ed5760256e1bf233485be5d816fe5f664736f6c63430008140033",
  "linkReferences": {},
  "deployedLinkReferences": {},
  "immutableReferences": {},
  "inputSourceName": "project/core/ArcAMMFactory.sol",
  "buildInfoId": "solc-0_8_20-d28463d23b44ac532776f4a9192ef718a5c6bac4"
}