{
  "_format": "hh3-artifact-1",
  "contractName": "VaultFactory",
  "sourceName": "core/VaultFactory.sol",
  "abi": [
    {
      "inputs": [
        {
          "internalType": "address",
          "name": "_usdc",
          "type": "address"
        },
        {
          "internalType": "address",
          "name": "_feeRecipient",
          "type": "address"
        },
        {
          "internalType": "uint24",
          "name": "_swapFeeBps",
          "type": "uint24"
        },
        {
          "internalType": "address",
          "name": "_gateway",
          "type": "address"
        }
      ],
      "stateMutability": "nonpayable",
      "type": "constructor"
    },
    {
      "inputs": [],
      "name": "FeeTooHigh",
      "type": "error"
    },
    {
      "inputs": [],
      "name": "InvalidAddress",
      "type": "error"
    },
    {
      "inputs": [],
      "name": "OnlyGovernance",
      "type": "error"
    },
    {
      "inputs": [],
      "name": "VaultExists",
      "type": "error"
    },
    {
      "anonymous": false,
      "inputs": [
        {
          "indexed": true,
          "internalType": "address",
          "name": "newFeeRecipient",
          "type": "address"
        }
      ],
      "name": "FeeRecipientUpdated",
      "type": "event"
    },
    {
      "anonymous": false,
      "inputs": [
        {
          "indexed": true,
          "internalType": "address",
          "name": "oldGateway",
          "type": "address"
        },
        {
          "indexed": true,
          "internalType": "address",
          "name": "newGateway",
          "type": "address"
        }
      ],
      "name": "GatewayUpdated",
      "type": "event"
    },
    {
      "anonymous": false,
      "inputs": [
        {
          "indexed": true,
          "internalType": "address",
          "name": "previousGovernance",
          "type": "address"
        },
        {
          "indexed": true,
          "internalType": "address",
          "name": "newGovernance",
          "type": "address"
        }
      ],
      "name": "GovernanceTransferred",
      "type": "event"
    },
    {
      "anonymous": false,
      "inputs": [
        {
          "indexed": false,
          "internalType": "uint256",
          "name": "newFeeBps",
          "type": "uint256"
        }
      ],
      "name": "ProtocolFeeUpdated",
      "type": "event"
    },
    {
      "anonymous": false,
      "inputs": [
        {
          "indexed": true,
          "internalType": "address",
          "name": "projectToken",
          "type": "address"
        },
        {
          "indexed": true,
          "internalType": "address",
          "name": "vault",
          "type": "address"
        },
        {
          "indexed": false,
          "internalType": "uint256",
          "name": "index",
          "type": "uint256"
        }
      ],
      "name": "VaultCreated",
      "type": "event"
    },
    {
      "inputs": [],
      "name": "acceptGovernance",
      "outputs": [],
      "stateMutability": "nonpayable",
      "type": "function"
    },
    {
      "inputs": [
        {
          "internalType": "uint256",
          "name": "",
          "type": "uint256"
        }
      ],
      "name": "allVaults",
      "outputs": [
        {
          "internalType": "address",
          "name": "",
          "type": "address"
        }
      ],
      "stateMutability": "view",
      "type": "function"
    },
    {
      "inputs": [],
      "name": "allVaultsLength",
      "outputs": [
        {
          "internalType": "uint256",
          "name": "",
          "type": "uint256"
        }
      ],
      "stateMutability": "view",
      "type": "function"
    },
    {
      "inputs": [
        {
          "internalType": "address",
          "name": "projectToken",
          "type": "address"
        },
        {
          "internalType": "string",
          "name": "name",
          "type": "string"
        },
        {
          "internalType": "string",
          "name": "symbol",
          "type": "string"
        }
      ],
      "name": "createVault",
      "outputs": [
        {
          "internalType": "address",
          "name": "vault",
          "type": "address"
        }
      ],
      "stateMutability": "nonpayable",
      "type": "function"
    },
    {
      "inputs": [],
      "name": "feeRecipient",
      "outputs": [
        {
          "internalType": "address",
          "name": "",
          "type": "address"
        }
      ],
      "stateMutability": "view",
      "type": "function"
    },
    {
      "inputs": [],
      "name": "gateway",
      "outputs": [
        {
          "internalType": "address",
          "name": "",
          "type": "address"
        }
      ],
      "stateMutability": "view",
      "type": "function"
    },
    {
      "inputs": [
        {
          "internalType": "address",
          "name": "",
          "type": "address"
        }
      ],
      "name": "getVault",
      "outputs": [
        {
          "internalType": "address",
          "name": "",
          "type": "address"
        }
      ],
      "stateMutability": "view",
      "type": "function"
    },
    {
      "inputs": [
        {
          "internalType": "uint256",
          "name": "index",
          "type": "uint256"
        }
      ],
      "name": "getVaultByIndex",
      "outputs": [
        {
          "internalType": "address",
          "name": "vault",
          "type": "address"
        },
        {
          "internalType": "address",
          "name": "projectToken",
          "type": "address"
        }
      ],
      "stateMutability": "view",
      "type": "function"
    },
    {
      "inputs": [],
      "name": "governance",
      "outputs": [
        {
          "internalType": "address",
          "name": "",
          "type": "address"
        }
      ],
      "stateMutability": "view",
      "type": "function"
    },
    {
      "inputs": [],
      "name": "pendingGovernance",
      "outputs": [
        {
          "internalType": "address",
          "name": "",
          "type": "address"
        }
      ],
      "stateMutability": "view",
      "type": "function"
    },
    {
      "inputs": [],
      "name": "protocolFeeBps",
      "outputs": [
        {
          "internalType": "uint256",
          "name": "",
          "type": "uint256"
        }
      ],
      "stateMutability": "view",
      "type": "function"
    },
    {
      "inputs": [
        {
          "internalType": "address",
          "name": "newFeeRecipient",
          "type": "address"
        }
      ],
      "name": "setFeeRecipient",
      "outputs": [],
      "stateMutability": "nonpayable",
      "type": "function"
    },
    {
      "inputs": [
        {
          "internalType": "address",
          "name": "newGateway",
          "type": "address"
        }
      ],
      "name": "setGateway",
      "outputs": [],
      "stateMutability": "nonpayable",
      "type": "function"
    },
    {
      "inputs": [
        {
          "internalType": "uint256",
          "name": "newFeeBps",
          "type": "uint256"
        }
      ],
      "name": "setProtocolFee",
      "outputs": [],
      "stateMutability": "nonpayable",
      "type": "function"
    },
    {
      "inputs": [],
      "name": "swapFeeBps",
      "outputs": [
        {
          "internalType": "uint24",
          "name": "",
          "type": "uint24"
        }
      ],
      "stateMutability": "view",
      "type": "function"
    },
    {
      "inputs": [
        {
          "internalType": "address",
          "name": "newGovernance",
          "type": "address"
        }
      ],
      "name": "transferGovernance",
      "outputs": [],
      "stateMutability": "nonpayable",
      "type": "function"
    },
    {
      "inputs": [],
      "name": "usdc",
      "outputs": [
        {
          "internalType": "address",
          "name": "",
          "type": "address"
        }
      ],
      "stateMutability": "view",
      "type": "function"
    }
  ],
  "bytecode": "0x60a03461010d57601f61300038819003918201601f19168301916001600160401b038311848410176101115780849260809460405283398101031261010d5761004781610125565b9061005460208201610125565b9060408101519062ffffff821680920361010d5760606100749101610125565b6001600160a01b0392909190848416158015610103575b6100f157839060018060a01b03199533875f5416175f5560805216846005541617600555600a60065562ffffff19600754161760075516906002541617600255604051612ec6908161013a823960805181818161052b0152818161069601526107200152f35b60405163e6c4247b60e01b8152600490fd5b508381161561008b565b5f80fd5b634e487b7160e01b5f52604160045260245ffd5b51906001600160a01b038216820361010d5756fe608060408181526004918236101562000016575f80fd5b5f92833560e01c9182630eb9af38146200083257508163116191b61462000807578163238efcbc14620007965781632ffdaf89146200077057816335659fb8146200074f5781633e413bee14620007095781634690484014620006de5781634cd1857714620006be578163515d61ec14620004425781635aa6e6751462000418578163787dce3d14620003945781638c3d609014620002da57816390646b4a14620002525781639094a91e146200020a578163d38bfff414620001b5578163e74b981b146200011c575063f39c38a014620000ef575f80fd5b34620001185781600319360112620001185760015490516001600160a01b039091168152602090f35b5080fd5b905034620001b1576020366003190112620001b1576200013b6200086e565b83546001600160a01b03919082163303620001a1571691821562000194575050600580546001600160a01b031916821790557f7a7b5a0a132f9e0581eb8527f66eae9ee89c2a3e79d4ac7e41a1f1f4d48a7fc28280a280f35b5163e6c4247b60e01b8152fd5b83516354348f0360e01b81528390fd5b8280fd5b905034620001b1576020366003190112620001b157620001d46200086e565b83546001600160a01b03919082163303620001a15716918215620001945750506001600160601b0360a01b600154161760015580f35b8284346200024f5760203660031901126200024f57823592548310156200024f5750620002396020926200091b565b905491519160018060a01b039160031b1c168152f35b80fd5b91905034620001b1576020366003190112620001b157620002726200086e565b835490926001600160a01b0392909183163303620002cd57505080600254921691826001600160601b0360a01b821617600255167f68e84423772dadc3e4047f8b5bd221ddb02dc67796e7852533fd976947d86c518380a380f35b516354348f0360e01b8152fd5b83915034620001185760209081600319360112620001b157620002fe81356200091b565b90548551634b60ce7760e01b815260039290921b1c6001600160a01b039081169490928490839081885afa9182156200038857819262000347575b505084519384521690820152f35b9091508381813d831162000380575b62000362818362000889565b810103126200011857519082821682036200024f5750858062000339565b503d62000356565b508551903d90823e3d90fd5b91905034620001b1576020366003190112620001b1578254823592906001600160a01b031633036200040a576103e88311620003fc5750816020917fd10d75876659a287a59a6ccfa2e3fff42f84d94b542837acd30bc184d562de409360065551908152a180f35b905163cd4e616760e01b8152fd5b90516354348f0360e01b8152fd5b5050346200011857816003193601126200011857905490516001600160a01b039091168152602090f35b838334620001185760603660031901126200011857620004616200086e565b9167ffffffffffffffff906024358281116200011857620004869036908701620008c0565b91604435818111620001b157620004a19036908801620008c0565b6001600160a01b03958616938415801562000692575b620006825784845260036020528686852054166200067257868454169262ffffff9283600754169389600554169060065416918a60025416948a51976124eb808a01968a8810908811176200065f5792620005658a99989795938f938f8f9562000574966101009b998f620009a690398a527f00000000000000000000000000000000000000000000000000000000000000001660208a015288015261012080606089015287019062000965565b90858203608087015262000965565b9560a084015260c083015260e08201520152039082f0801562000653578416938282526003602052838220856001600160601b0360a01b8254161790558554680100000000000000008110156200064057806001620005d6920188556200091b565b819291549060031b9187831b921b19161790558454905f1982019182116200062d576020858581867f0b045af6aff86dd2cda5342fd0329a354dc66759ff1eda00d7ecf13a76c7fb3b85888551908152a351908152f35b634e487b7160e01b815260118652602490fd5b634e487b7160e01b835260418752602483fd5b508251903d90823e3d90fd5b634e487b7160e01b8b5260418f5260248bfd5b855163108e5c5f60e21b81528890fd5b855163e6c4247b60e01b81528890fd5b50867f0000000000000000000000000000000000000000000000000000000000000000168514620004b7565b905034620001b15782600319360112620001b15760209250549051908152f35b505034620001185781600319360112620001185760055490516001600160a01b039091168152602090f35b5050346200011857816003193601126200011857517f00000000000000000000000000000000000000000000000000000000000000006001600160a01b03168152602090f35b50503462000118578160031936011262000118576020906006549051908152f35b505034620001185781600319360112620001185760209062ffffff600754169051908152f35b905034620001b15782600319360112620001b1576001546001600160a01b038082169390929033859003620002cd57505083546001600160a01b031980821685178655909116600155167f5f56bee8cffbe9a78652a74a60705edede02af10b0bbb888ca44b79a0d42ce808380a380f35b505034620001185781600319360112620001185760025490516001600160a01b039091168152602090f35b84908434620001b1576020366003190112620001b1576020926001600160a01b03919082620008606200086e565b168152600385522054168152f35b600435906001600160a01b03821682036200088557565b5f80fd5b90601f8019910116810190811067ffffffffffffffff821117620008ac57604052565b634e487b7160e01b5f52604160045260245ffd5b81601f82011215620008855780359067ffffffffffffffff8211620008ac5760405192620008f9601f8401601f19166020018562000889565b828452602083830101116200088557815f926020809301838601378301015290565b600454811015620009515760045f527f8a35acfbc15ff81a39ae7d344fd709f28e8600b4aa8c65c6b64bfe7fe36bd19b01905f90565b634e487b7160e01b5f52603260045260245ffd5b91908251928382525f5b84811062000990575050825f602080949584010152601f8019910116010190565b6020818301810151848301820152016200096f56fe60406101608152346200056d57620024eb9081380380620000208162000571565b93843982016101209182848303126200056d576200003e8462000597565b916020926200004f84870162000597565b906200005d84880162000597565b60608801516001600160401b039691908781116200056d578562000083918b01620005ac565b9460808a0151908882116200056d576200009f918b01620005ac565b93620000ae60a08b016200061c565b93620000bd60c08c0162000597565b95620000cc60e08d016200061c565b97620000dd610100809e0162000597565b9a815181811162000473576003908154906001948583811c9316801562000562575b8b8410146200054e5781908b601f94858111620004f8575b50508b9084831160011462000493575f9262000487575b50505f1982851b1c191690851b1782555b8451928311620004735760049485548581811c9116801562000468575b8b82101462000455579081838695949311620003fe575b508a91841160011462000397575f936200038b575b505082841b925f19911b1c19161782555b6005556001600160a01b039482861615801562000380575b801562000375575b620003665761271062ffffff81818a16101562000334578a1611620002f257505060805260a0521660018060a01b031960065416176006553360c05260e052855283526101409182525191611ebd93846200062e85396080518481816101fd015281816107c401528181610add01528181610c7701528181610f9f0152818161113c015281816112f10152818161145a01526119b9015260a051848181610255015281816105ea0152818161081201528181610b0201528181610ca101528181610f6a015281816112b3015281816113350152818161141501526119e5015260c05184610727015260e0518481816102b301526115430152518381816102f8015281816104b9015261106601525182818161051b015281816105550152610ff6015251818181610eca0152818161137f01526117740152f35b895162461bcd60e51b815291820152601760248201527f50524f544f434f4c5f53484152455f544f4f5f48494748000000000000000000604482015260649150fd5b8b5162461bcd60e51b8152808501849052600c60248201526b08c8a8abea89e9ebe90928e960a31b6044820152606490fd5b50885163e6c4247b60e01b8152fd5b5085851615620001b9565b5085841615620001b1565b015191505f8062000188565b9190859450601f19841692875f528b5f20935f5b8d828210620003e75750508511620003cd575b50505050811b01825562000199565b01519060f8845f19921b161c191690555f808080620003be565b8385015187558998909601959384019301620003ab565b9091929350865f528a5f208380870160051c8201928d88106200044b575b9188918897969594930160051c01915b8281106200043c57505062000173565b5f81558796508891016200042c565b925081926200041c565b602287634e487b7160e01b5f525260245ffd5b90607f16906200015c565b634e487b7160e01b5f52604160045260245ffd5b015190505f806200012e565b5f8681528d8120899550929190601f198516908f5b828210620004e05750508411620004c8575b505050811b0182556200013f565b01515f1983871b60f8161c191690555f8080620004ba565b8385015186558b979095019493840193018f620004a8565b90919250855f5284825f209181860160051c830193861062000544575b918991869594930160051c01915b8281106200053557508d915062000117565b5f815585945089910162000523565b9250819262000515565b634e487b7160e01b5f52602260045260245ffd5b92607f1692620000ff565b5f80fd5b6040519190601f01601f191682016001600160401b038111838210176200047357604052565b51906001600160a01b03821682036200056d57565b919080601f840112156200056d5782516001600160401b0381116200047357602090620005e2601f8201601f1916830162000571565b928184528282870101116200056d575f5b818110620006085750825f9394955001015290565b8581018301518482018401528201620005f3565b519062ffffff821682036200056d5756fe60806040526004361015610011575f80fd5b5f3560e01c8062aeef8a1461192557806306fdde03146118675780630902f1ac14611843578063095ea7b3146117c15780630a28a477146117a3578063116191b61461175f57806318160ddd146117425780631c481e2d146116d65780631dec1515146116b9578063238efcbc1461165157806323b872dd146115675780632ffdaf8914611528578063313ce5671461150d57806333a100ca1461149b578063379bc380146113645780633e413bee146113205780634b60ce77146112dc5780634cc15d64146110fc57806354d18864146110df5780635aa6e675146110b757806360da3e831461109557806364df049e1461105157806370a082311461101a5780639040f86614610fdb57806394fc8a7d14610e9e57806395d89b4114610d97578063974d8c9314610d6d578063a41fe49f14610b82578063a8c62e7614610b5a578063a9059cbb14610b29578063aa6ca80814610abf578063b269add314610756578063c45a015514610712578063d38bfff4146106af578063dd62ed3e14610662578063e1e158a514610646578063f39c38a01461061e5763f3e6ea8a146101ba575f80fd5b3461061a57608036600319011261061a576101d3611bc1565b606435906001600160a01b038216820361061a576101ef611dad565b6001600160a01b03908116917f0000000000000000000000000000000000000000000000000000000000000000918216831415806105e7575b6105d5576001600160a01b038116156105c357602435156105b1576001600160a01b03821683036105aa577f0000000000000000000000000000000000000000000000000000000000000000925b6001600160a01b03831681036105a157600954925b6001600160a01b038116820361059857600a54935b80158015610590575b61046f5762ffffff7f00000000000000000000000000000000000000000000000000000000000000001661271003612710811161057c576102ef61271091602435611cc7565b5f9691900491907f00000000000000000000000000000000000000000000000000000000000000006001600160a01b031615158061054e575b6104f6575b906103458361033f61034b9482611cc7565b92611cba565b90611cda565b9460443586106104e45785156104e457610369602435303387611cf8565b806104b3575b506001600160a01b03821683036104815761038c90600954611cba565b6009558361039c81600a54611dd0565b80600a551061046f576103bc84846020975b6001600160a01b0316611ddd565b6001600160a01b031603610421576040519060243582525f848301525f604083015282606083015260018060a01b0316907fd78ad95fa46c994b6551d0da85fc275fe613ce37657fb8d5e3d130840159d82260803392a35b6001600555604051908152f35b604051905f8252602435848301528260408301525f606083015260018060a01b0316907fd78ad95fa46c994b6551d0da85fc275fe613ce37657fb8d5e3d130840159d82260803392a3610414565b60405163bb55fd2760e01b8152600490fd5b61048d90600a54611cba565b600a558361049d81600954611dd0565b806009551061046f576103bc84846020976103ae565b6104de907f000000000000000000000000000000000000000000000000000000000000000085611ddd565b5f61036f565b60405163bb2875c360e01b8152600490fd5b955061034b906103458361033f61271061054161051584602435611dd0565b62ffffff7f00000000000000000000000000000000000000000000000000000000000000001690611cc7565b049993945050505061032d565b5062ffffff7f0000000000000000000000000000000000000000000000000000000000000000161515610328565b634e487b7160e01b5f52601160045260245ffd5b5084156102a9565b600954936102a0565b600a549261028b565b8192610276565b604051632ca2f52b60e11b8152600490fd5b60405163e6c4247b60e01b8152600490fd5b60405163c1ab6dc160e01b8152600490fd5b507f00000000000000000000000000000000000000000000000000000000000000006001600160a01b0316831415610228565b5f80fd5b3461061a575f36600319011261061a576007546040516001600160a01b039091168152602090f35b3461061a575f36600319011261061a5760206040516103e88152f35b3461061a57604036600319011261061a5761067b611bc1565b610683611bd7565b9060018060a01b038091165f52600160205260405f2091165f52602052602060405f2054604051908152f35b3461061a57602036600319011261061a576106c8611bc1565b6006546001600160a01b03919082163303610700571680156105c3576bffffffffffffffffffffffff60a01b60075416176007555f80f35b6040516354348f0360e01b8152600490fd5b3461061a575f36600319011261061a576040517f00000000000000000000000000000000000000000000000000000000000000006001600160a01b03168152602090f35b3461061a5760208060031936011261061a5767ffffffffffffffff9060043582811161061a573660238201121561061a57806004013583811161061a576024913683838301011161061a576006546001600160a01b0390811633036107005780600854169081156105c357807f000000000000000000000000000000000000000000000000000000000000000016604051926370a0823160e01b9283855230600486015288858981865afa9485156109c4575f95610a90575b507f000000000000000000000000000000000000000000000000000000000000000016946040519084825230600483015289828a818a5afa9788156109c45789925f99610a57575b50915f809492848295604051948593018337810182815203925af13d15610a4e573d988911610a3b5760405198610897601f8201601f19168a018b611bed565b89523d5f898b013e5b15610a005790868692604051938480928582523060048301525afa9586156109c45787925f976109cf575b506040518095819382523060048301525afa9182156109c4575f92610973575b509083604093927f8f9497c27f572ff1a65e8b2c7a0706d466466ae0b5efc78462b5f0021da669569560095582600a558082115f1461096a5761092d91611dd0565b915b808211156109625761094091611dd0565b825191825284820152a161095e604051928284938452830190611b83565b0390f35b50505f610940565b50505f9161092f565b9291508483813d83116109bd575b61098b8183611bed565b8101031261061a57915190917f8f9497c27f572ff1a65e8b2c7a0706d466466ae0b5efc78462b5f0021da669566108eb565b503d610981565b6040513d5f823e3d90fd5b8381949298503d83116109f9575b6109e78183611bed565b8101031261061a5786915195896108cb565b503d6109dd565b60405162461bcd60e51b8152600481018890526014818801527314dd1c985d1959de4818d85b1b0819985a5b195960621b6044820152606490fd5b86634e487b7160e01b5f5260416004525ffd5b606098506108a0565b8b80929a508194509492943d8311610a89575b610a748183611bed565b8101031261061a57905196909188915f610857565b503d610a6a565b9094508881813d8311610ab8575b610aa88183611bed565b8101031261061a5751938a61080f565b503d610a9e565b3461061a575f36600319011261061a57604080516001600160a01b037f0000000000000000000000000000000000000000000000000000000000000000811682527f0000000000000000000000000000000000000000000000000000000000000000166020820152f35b3461061a57604036600319011261061a57610b4f610b45611bc1565b6024359033611c0f565b602060405160018152f35b3461061a575f36600319011261061a576008546040516001600160a01b039091168152602090f35b3461061a57610b9036611b69565b90610b99611dad565b82156105b157335f525f6020528260405f205410610d5b57600254600954610bca82610bc58388611cc7565b611cda565b93610bdc600a5493610bc58589611cc7565b938510908115610d51575b506105b157610c0391610bfb858593611dd0565b600955611dd0565b600a553315610d3957335f525f60205260405f2054838110610d12579280604094335f525f60205203845f205580600254036002555f84518281527fddf252ad1be2c89b69c2b068fc378daa952ba7f163c4a11628f55a4df523b3ef60203392a3610cc6826001600160a01b03610c9d86337f00000000000000000000000000000000000000000000000000000000000000008416611ddd565b33907f000000000000000000000000000000000000000000000000000000000000000016611ddd565b8351908152602081018390526040810182905233907f75e161b3e824b114fc1a33274bd7091918dd4e639cede50b78b15a4eea956a2190606090a2600160055582519182526020820152f35b60405163391434e360e21b8152336004820152602481019190915260448101849052606490fd5b604051634b637e8f60e11b81525f6004820152602490fd5b9050831086610be7565b604051633999656760e01b8152600490fd5b3461061a57602036600319011261061a576040610d8b600435611e5e565b82519182526020820152f35b3461061a575f36600319011261061a576040515f60045490600182811c91818416918215610e94575b6020948585108414610e805785879486865291825f14610e60575050600114610e05575b50610df192500383611bed565b61095e604051928284938452830190611b83565b84915060045f527f8a35acfbc15ff81a39ae7d344fd709f28e8600b4aa8c65c6b64bfe7fe36bd19b905f915b858310610e48575050610df1935082010185610de4565b80548389018501528794508693909201918101610e31565b60ff191685820152610df195151560051b8501019250879150610de49050565b634e487b7160e01b5f52602260045260245ffd5b92607f1692610dc0565b3461061a57602036600319011261061a5760043563ffffffff811680910361061a576001600160a01b037f000000000000000000000000000000000000000000000000000000000000000081811633819003610fc9577f98445114b15007b3103aa94acbe3ce1435b8ef5cfcf78021cc9cd75c747656106060604095610f22611dad565b60095495600a54809688610f97575b81610f64575b5050505f6009555f600a5586519086825285602083015287820152a2600160055582519182526020820152f35b610f8f927f000000000000000000000000000000000000000000000000000000000000000016611ddd565b878581610f37565b610fc48982857f000000000000000000000000000000000000000000000000000000000000000016611ddd565b610f31565b60405163ec76af1360e01b8152600490fd5b3461061a575f36600319011261061a57602060405162ffffff7f0000000000000000000000000000000000000000000000000000000000000000168152f35b3461061a57602036600319011261061a576001600160a01b0361103b611bc1565b165f525f602052602060405f2054604051908152f35b3461061a575f36600319011261061a576040517f00000000000000000000000000000000000000000000000000000000000000006001600160a01b03168152602090f35b3461061a575f36600319011261061a57602060ff600b54166040519015158152f35b3461061a575f36600319011261061a576006546040516001600160a01b039091168152602090f35b3461061a575f36600319011261061a576020600954604051908152f35b3461061a57604036600319011261061a57611115611bc1565b6006546001600160a01b039190821633036107005781600854169081156105c357821691807f00000000000000000000000000000000000000000000000000000000000000001683141590816112af575b506105c357604051636eb1769f60e11b81523060048201526001600160a01b0382166024820152602092908381604481855afa80156109c4575f90611280575b6111b4915060243590611cba565b60405163095ea7b360e01b8582018181526001600160a01b038616602484015260448084019490945292825290939185905f906111f2606488611bed565b86519082875af15f513d82611264575b50501561120b57005b6040519485015260248401525f6044840152604483526080830183811067ffffffffffffffff8211176112505761124e936112499160405282611d53565b611d53565b005b634e487b7160e01b5f52604160045260245ffd5b9091506112785750823b15155b8680611202565b600114611271565b508381813d83116112a8575b6112968183611bed565b8101031261061a576111b490516111a6565b503d61128c565b90507f00000000000000000000000000000000000000000000000000000000000000001682141583611166565b3461061a575f36600319011261061a576040517f00000000000000000000000000000000000000000000000000000000000000006001600160a01b03168152602090f35b3461061a575f36600319011261061a576040517f00000000000000000000000000000000000000000000000000000000000000006001600160a01b03168152602090f35b3461061a57604036600319011261061a576001600160a01b037f00000000000000000000000000000000000000000000000000000000000000008181169160043560243533859003610fc9576113b8611dad565b8115938480611493575b6105b157816040947f19948ff51817cfffb4bea90377e4e0856548543989f12da0067581324ea4ad099615611451575b8161140d575b50505082519182526020820152a26001600555005b61143a9230917f000000000000000000000000000000000000000000000000000000000000000016611cf8565b61144681600a54611cba565b600a558581816113f8565b61147f853085847f000000000000000000000000000000000000000000000000000000000000000016611cf8565b61148b85600954611cba565b6009556113f2565b5081156113c2565b3461061a57602036600319011261061a576114b4611bc1565b6006546001600160a01b0390811633036107005780600854921691826bffffffffffffffffffffffff60a01b821617600855167fe4cec16b1a7e6b7979e923da619a8b1e5fd0f0fb6e5c1cf647f350430ee61ca95f80a3005b3461061a575f36600319011261061a57602060405160128152f35b3461061a575f36600319011261061a57602060405162ffffff7f0000000000000000000000000000000000000000000000000000000000000000168152f35b3461061a57606036600319011261061a57611580611bc1565b611588611bd7565b6001600160a01b0382165f8181526001602090815260408083203384529091529020549260443592915f1985106115c5575b50610b4f9350611c0f565b83851061162b5780156116135733156115fb57610b4f9484915f52600160205260405f20335f526020520360405f2055846115ba565b604051634a1406b160e11b81525f6004820152602490fd5b60405163e602df0560e01b81525f6004820152602490fd5b604051637dc7a0d960e11b81523360048201526024810186905260448101859052606490fd5b3461061a575f36600319011261061a576007546001600160a01b03808216913383900361070057600680546001600160a01b031980821686179092559116600755167f5f56bee8cffbe9a78652a74a60705edede02af10b0bbb888ca44b79a0d42ce805f80a3005b3461061a575f36600319011261061a576020600a54604051908152f35b3461061a57602036600319011261061a5760043580151580910361061a576006546001600160a01b031633036107005760207f9723f28d4abaff5df0f62bfb2418f2aac4a739b259edf209b8dc9944fa85aa789160ff19600b541660ff821617600b55604051908152a1005b3461061a575f36600319011261061a576020600254604051908152f35b3461061a575f36600319011261061a576040517f00000000000000000000000000000000000000000000000000000000000000006001600160a01b03168152602090f35b3461061a57602036600319011261061a576040610d8b600435611e19565b3461061a57604036600319011261061a576117da611bc1565b602435903315611613576001600160a01b03169081156115fb57335f52600160205260405f20825f526020528060405f20556040519081527f8c5be1e5ebec7d5bd14f71427d1e84f3dd0314c0f7b2291e5b200ac8c7c3b92560203392a3602060405160018152f35b3461061a575f36600319011261061a576040600954600a5482519182526020820152f35b3461061a575f36600319011261061a576040515f60035490600182811c9181841691821561191b575b6020948585108414610e805785879486865291825f14610e605750506001146118c05750610df192500383611bed565b84915060035f527fc2575a0e9e593c00f959f8c92f12db2869c3395a3b0502d05e2516446f71f85b905f915b858310611903575050610df1935082010185610de4565b805483890185015287945086939092019181016118ec565b92607f1692611890565b3461061a5761193336611b69565b909161193d611dad565b60ff600b5416611b57576103e8808210908115611b4d575b506105b15760025480611b0a575061196d8382611cc7565b915f6003841115611afb57508260019080821c82810180911161057c5791905b858310611adb575050505b82156105b1575b8210610d5b57611a0a836001600160a01b036119df8430337f00000000000000000000000000000000000000000000000000000000000000008516611cf8565b309033907f000000000000000000000000000000000000000000000000000000000000000016611cf8565b611a1681600954611cba565b600955611a2583600a54611cba565b600a553315611ac3577f91ede45f04a37a7c170f5c1207df3b6bc748dc1e04ad5e917a241d0f52feada382602094611a5f82600254611cba565b600255335f525f865260405f208281540190556040518281525f7fddf252ad1be2c89b69c2b068fc378daa952ba7f163c4a11628f55a4df523b3ef883393a36040805194855260208501919091528301523391606090a26001600555604051908152f35b60405163ec442f0560e01b81525f6004820152602490fd5b90919450611af285611aed8184611cda565b611cba565b821c919061198d565b92156119985760019250611998565b611b36611b2d611b26611b1d8486611cc7565b60095490611cda565b9286611cc7565b600a5490611cda565b80821015611b4657505b9161199f565b9050611b40565b9050831084611955565b60405163deeb694360e01b8152600490fd5b606090600319011261061a57600435906024359060443590565b91908251928382525f5b848110611bad575050825f602080949584010152601f8019910116010190565b602081830181015184830182015201611b8d565b600435906001600160a01b038216820361061a57565b602435906001600160a01b038216820361061a57565b90601f8019910116810190811067ffffffffffffffff82111761125057604052565b916001600160a01b03808416928315610d395716928315611ac3575f9083825281602052604082205490838210611c88575091604082827fddf252ad1be2c89b69c2b068fc378daa952ba7f163c4a11628f55a4df523b3ef958760209652828652038282205586815220818154019055604051908152a3565b60405163391434e360e21b81526001600160a01b03919091166004820152602481019190915260448101839052606490fd5b9190820180921161057c57565b8181029291811591840414171561057c57565b8115611ce4570490565b634e487b7160e01b5f52601260045260245ffd5b6040516323b872dd60e01b60208201526001600160a01b03928316602482015292909116604483015260648083019390935291815260a081019181831067ffffffffffffffff84111761125057611d5192604052611d53565b565b905f602091828151910182855af1156109c4575f513d611da457506001600160a01b0381163b155b611d825750565b604051635274afe760e01b81526001600160a01b039091166004820152602490fd5b60011415611d7b565b600260055414611dbe576002600555565b604051633ee5aeb560e01b8152600490fd5b9190820391821161057c57565b60405163a9059cbb60e01b60208201526001600160a01b03929092166024830152604480830193909352918152611d5191611249606483611bed565b9081158015611e54575b611e4d57611e4a600254610bc5611e4082610bc560095488611cc7565b94600a5490611cc7565b90565b5f91508190565b5060025415611e23565b906002548015611e7f5780610bc5611e40611e4a93610bc560095488611cc7565b505f9150819056fea2646970667358221220b347d04fcac7b3cc8f05e3ad162be192323618f6b336e8a0b8361e91e996393f64736f6c63430008140033a2646970667358221220167a23a6db157b26d63712b30aa79b8a46549542834f37cc8016f0473fbeef6664736f6c63430008140033",
  "linkReferences": {},
  "deployedLinkReferences": {},
  "immutableReferences": {
    "9799": [
      {
        "length": 32,
        "start": 1323
      },
      {
        "length": 32,
        "start": 1686
      },
      {
        "length": 32,
        "start": 1824
      }
    ]
  },
  "inputSourceName": "project/core/VaultFactory.sol",
  "buildInfoId": "solc-0_8_20-d28463d23b44ac532776f4a9192ef718a5c6bac4"
}