{
  "_format": "hh3-artifact-1",
  "contractName": "VaultFactory",
  "sourceName": "core/VaultFactory.sol",
  "abi": [
    {
      "inputs": [
        {
          "internalType": "address",
          "name": "_usdc",
          "type": "address"
        },
        {
          "internalType": "address",
          "name": "_feeRecipient",
          "type": "address"
        },
        {
          "internalType": "uint24",
          "name": "_swapFeeBps",
          "type": "uint24"
        }
      ],
      "stateMutability": "nonpayable",
      "type": "constructor"
    },
    {
      "inputs": [],
      "name": "FeeTooHigh",
      "type": "error"
    },
    {
      "inputs": [],
      "name": "InvalidAddress",
      "type": "error"
    },
    {
      "inputs": [],
      "name": "OnlyGovernance",
      "type": "error"
    },
    {
      "inputs": [],
      "name": "VaultExists",
      "type": "error"
    },
    {
      "anonymous": false,
      "inputs": [
        {
          "indexed": true,
          "internalType": "address",
          "name": "newFeeRecipient",
          "type": "address"
        }
      ],
      "name": "FeeRecipientUpdated",
      "type": "event"
    },
    {
      "anonymous": false,
      "inputs": [
        {
          "indexed": true,
          "internalType": "address",
          "name": "previousGovernance",
          "type": "address"
        },
        {
          "indexed": true,
          "internalType": "address",
          "name": "newGovernance",
          "type": "address"
        }
      ],
      "name": "GovernanceTransferred",
      "type": "event"
    },
    {
      "anonymous": false,
      "inputs": [
        {
          "indexed": false,
          "internalType": "uint256",
          "name": "newFeeBps",
          "type": "uint256"
        }
      ],
      "name": "ProtocolFeeUpdated",
      "type": "event"
    },
    {
      "anonymous": false,
      "inputs": [
        {
          "indexed": true,
          "internalType": "address",
          "name": "projectToken",
          "type": "address"
        },
        {
          "indexed": true,
          "internalType": "address",
          "name": "vault",
          "type": "address"
        },
        {
          "indexed": false,
          "internalType": "uint256",
          "name": "index",
          "type": "uint256"
        }
      ],
      "name": "VaultCreated",
      "type": "event"
    },
    {
      "inputs": [],
      "name": "acceptGovernance",
      "outputs": [],
      "stateMutability": "nonpayable",
      "type": "function"
    },
    {
      "inputs": [
        {
          "internalType": "uint256",
          "name": "",
          "type": "uint256"
        }
      ],
      "name": "allVaults",
      "outputs": [
        {
          "internalType": "address",
          "name": "",
          "type": "address"
        }
      ],
      "stateMutability": "view",
      "type": "function"
    },
    {
      "inputs": [],
      "name": "allVaultsLength",
      "outputs": [
        {
          "internalType": "uint256",
          "name": "",
          "type": "uint256"
        }
      ],
      "stateMutability": "view",
      "type": "function"
    },
    {
      "inputs": [
        {
          "internalType": "address",
          "name": "projectToken",
          "type": "address"
        },
        {
          "internalType": "string",
          "name": "name",
          "type": "string"
        },
        {
          "internalType": "string",
          "name": "symbol",
          "type": "string"
        }
      ],
      "name": "createVault",
      "outputs": [
        {
          "internalType": "address",
          "name": "vault",
          "type": "address"
        }
      ],
      "stateMutability": "nonpayable",
      "type": "function"
    },
    {
      "inputs": [],
      "name": "feeRecipient",
      "outputs": [
        {
          "internalType": "address",
          "name": "",
          "type": "address"
        }
      ],
      "stateMutability": "view",
      "type": "function"
    },
    {
      "inputs": [
        {
          "internalType": "address",
          "name": "",
          "type": "address"
        }
      ],
      "name": "getVault",
      "outputs": [
        {
          "internalType": "address",
          "name": "",
          "type": "address"
        }
      ],
      "stateMutability": "view",
      "type": "function"
    },
    {
      "inputs": [
        {
          "internalType": "uint256",
          "name": "index",
          "type": "uint256"
        }
      ],
      "name": "getVaultByIndex",
      "outputs": [
        {
          "internalType": "address",
          "name": "vault",
          "type": "address"
        },
        {
          "internalType": "address",
          "name": "projectToken",
          "type": "address"
        }
      ],
      "stateMutability": "view",
      "type": "function"
    },
    {
      "inputs": [],
      "name": "governance",
      "outputs": [
        {
          "internalType": "address",
          "name": "",
          "type": "address"
        }
      ],
      "stateMutability": "view",
      "type": "function"
    },
    {
      "inputs": [],
      "name": "pendingGovernance",
      "outputs": [
        {
          "internalType": "address",
          "name": "",
          "type": "address"
        }
      ],
      "stateMutability": "view",
      "type": "function"
    },
    {
      "inputs": [],
      "name": "protocolFeeBps",
      "outputs": [
        {
          "internalType": "uint256",
          "name": "",
          "type": "uint256"
        }
      ],
      "stateMutability": "view",
      "type": "function"
    },
    {
      "inputs": [
        {
          "internalType": "address",
          "name": "newFeeRecipient",
          "type": "address"
        }
      ],
      "name": "setFeeRecipient",
      "outputs": [],
      "stateMutability": "nonpayable",
      "type": "function"
    },
    {
      "inputs": [
        {
          "internalType": "uint256",
          "name": "newFeeBps",
          "type": "uint256"
        }
      ],
      "name": "setProtocolFee",
      "outputs": [],
      "stateMutability": "nonpayable",
      "type": "function"
    },
    {
      "inputs": [],
      "name": "swapFeeBps",
      "outputs": [
        {
          "internalType": "uint24",
          "name": "",
          "type": "uint24"
        }
      ],
      "stateMutability": "view",
      "type": "function"
    },
    {
      "inputs": [
        {
          "internalType": "address",
          "name": "newGovernance",
          "type": "address"
        }
      ],
      "name": "transferGovernance",
      "outputs": [],
      "stateMutability": "nonpayable",
      "type": "function"
    },
    {
      "inputs": [],
      "name": "usdc",
      "outputs": [
        {
          "internalType": "address",
          "name": "",
          "type": "address"
        }
      ],
      "stateMutability": "view",
      "type": "function"
    }
  ],
  "bytecode": "0x60a0346100f057601f612c0338819003918201601f19168301916001600160401b038311848410176100f4578084926060946040528339810103126100f05761004781610108565b604061005560208401610108565b9201519162ffffff83168093036100f0576001600160a01b03908282161580156100e6575b6100d45760018060a01b03199233845f5416175f5560805216906004541617600455600a60055562ffffff196006541617600655604051612ae6908161011d8239608051818181610483015281816105f2015261067c0152f35b60405163e6c4247b60e01b8152600490fd5b508181161561007a565b5f80fd5b634e487b7160e01b5f52604160045260245ffd5b51906001600160a01b03821682036100f05756fe608060408181526004918236101562000016575f80fd5b5f92833560e01c9182630eb9af38146200077057508163238efcbc14620006f25781632ffdaf8914620006cc57816335659fb814620006ab5781633e413bee146200066557816346904840146200063b5781634cd18577146200061a578163515d61ec14620003a55781635aa6e675146200037b578163787dce3d14620002f75781638c3d6090146200023d5781639094a91e14620001f4578163d38bfff4146200019a578163e74b981b1462000104575063f39c38a014620000d7575f80fd5b34620001005781600319360112620001005760015490516001600160a01b039091168152602090f35b5080fd5b90503462000196576020366003190112620001965762000123620007ac565b83546001600160a01b0391908216330362000186571691821562000179575080546001600160a01b031916821790557f7a7b5a0a132f9e0581eb8527f66eae9ee89c2a3e79d4ac7e41a1f1f4d48a7fc28280a280f35b5163e6c4247b60e01b8152fd5b83516354348f0360e01b81528390fd5b8280fd5b905034620001965760203660031901126200019657620001b9620007ac565b83546001600160a01b03919082163303620001865716918215620001795750506bffffffffffffffffffffffff60a01b600154161760015580f35b90503462000196576020366003190112620001965735916003548310156200023a57506200022460209262000859565b60018060a01b0391549060031b1c169051908152f35b80fd5b83915034620001005760209081600319360112620001965762000261813562000859565b90548551634b60ce7760e01b815260039290921b1c6001600160a01b039081169490928490839081885afa918215620002eb578192620002aa575b505084519384521690820152f35b9091508381813d8311620002e3575b620002c58183620007c7565b810103126200010057519082821682036200023a575085806200029c565b503d620002b9565b508551903d90823e3d90fd5b919050346200019657602036600319011262000196578254823592906001600160a01b031633036200036d576103e883116200035f5750816020917fd10d75876659a287a59a6ccfa2e3fff42f84d94b542837acd30bc184d562de409360055551908152a180f35b905163cd4e616760e01b8152fd5b90516354348f0360e01b8152fd5b5050346200010057816003193601126200010057905490516001600160a01b039091168152602090f35b838334620001005760603660031901126200010057620003c4620007ac565b9167ffffffffffffffff906024358281116200010057620003e99036908701620007fe565b916044358181116200019657620004049036908801620007fe565b6001600160a01b039586169384158015620005ee575b620005de578484526002602052868685205416620005ce57868454169262ffffff806006541693898b54169160055416938951966121cd8089019589871090871117620005ba5792620004bd60e09593620004cc938f8f908f8e9d9c9b998e620008e4903989527f0000000000000000000000000000000000000000000000000000000000000000166020890152870152610100806060880152860190620008a3565b908482036080860152620008a3565b9460a083015260c08201520152039082f08015620005ae578416938282526002602052838220856bffffffffffffffffffffffff60a01b825416179055600354680100000000000000008110156200059b5780600162000530920160035562000859565b819291549060031b9187831b921b1916179055600354905f19820191821162000588576020858581867f0b045af6aff86dd2cda5342fd0329a354dc66759ff1eda00d7ecf13a76c7fb3b85888551908152a351908152f35b634e487b7160e01b815260118652602490fd5b634e487b7160e01b835260418752602483fd5b508251903d90823e3d90fd5b50634e487b7160e01b895260418d52602489fd5b855163108e5c5f60e21b81528890fd5b855163e6c4247b60e01b81528890fd5b50867f00000000000000000000000000000000000000000000000000000000000000001685146200041a565b50503462000100578160031936011262000100576020906003549051908152f35b90503462000196578260031936011262000196575490516001600160a01b03909116815260209150f35b5050346200010057816003193601126200010057517f00000000000000000000000000000000000000000000000000000000000000006001600160a01b03168152602090f35b50503462000100578160031936011262000100576020906005549051908152f35b505034620001005781600319360112620001005760209062ffffff600654169051908152f35b90503462000196578260031936011262000196576001546001600160a01b0380821693909290338590036200076357505083546001600160a01b031980821685178655909116600155167f5f56bee8cffbe9a78652a74a60705edede02af10b0bbb888ca44b79a0d42ce808380a380f35b516354348f0360e01b8152fd5b849084346200019657602036600319011262000196576020926001600160a01b039190826200079e620007ac565b168152600285522054168152f35b600435906001600160a01b0382168203620007c357565b5f80fd5b90601f8019910116810190811067ffffffffffffffff821117620007ea57604052565b634e487b7160e01b5f52604160045260245ffd5b81601f82011215620007c35780359067ffffffffffffffff8211620007ea576040519262000837601f8401601f191660200185620007c7565b82845260208383010111620007c357815f926020809301838601378301015290565b6003548110156200088f5760035f527fc2575a0e9e593c00f959f8c92f12db2869c3395a3b0502d05e2516446f71f85b01905f90565b634e487b7160e01b5f52603260045260245ffd5b91908251928382525f5b848110620008ce575050825f602080949584010152601f8019910116010190565b602081830181015184830182015201620008ad56fe60406101408152346200052857620021cd908138038062000020816200052c565b93843982019061010092838184031262000528576200003f8162000552565b9260206200004f81840162000552565b6200005c85850162000552565b60608501516001600160401b0397919291908881116200052857856200008491880162000567565b946080870151908982116200052857620000a091880162000567565b620000ae60a08801620005d7565b95620000cb60e0620000c360c08b0162000552565b9901620005d7565b9981518181116200042e576003908154906001948583811c931680156200051d575b8b841014620005095781908b601f94858111620004b3575b50508b908483116001146200044e575f9262000442575b50505f1982851b1c191690851b1782555b84519283116200042e5760049485548581811c9116801562000423575b8b82101462000410579081838695949311620003b9575b508a91841160011462000352575f9362000346575b505082841b925f19911b1c19161782555b6005556001600160a01b03948286161580156200033b575b801562000330575b620003215761271062ffffff81818a161015620002ef578b1611620002ad57505060805260a0521660018060a01b031960065416176006553360c05260e05283526101209182525190611be49283620005e984396080518381816101dc015281816107a301528181610abc01528181610c5601528181610fde0152818161119301526116e0015260a051838181610234015281816105c9015281816107f101528181610ae101528181610c8001528181611155015281816111d7015261170c015260c05183610706015260e05183818161029201526112ae0152518281816102d7015281816104980152610f080152518181816104fa015281816105340152610e980152f35b885162461bcd60e51b815291820152601760248201527f50524f544f434f4c5f53484152455f544f4f5f48494748000000000000000000604482015260649150fd5b8a5162461bcd60e51b8152808501849052600c60248201526b08c8a8abea89e9ebe90928e960a31b6044820152606490fd5b50875163e6c4247b60e01b8152fd5b5085851615620001a7565b50858416156200019f565b015191505f8062000176565b9190859450601f19841692875f528b5f20935f5b8d828210620003a2575050851162000388575b50505050811b01825562000187565b01519060f8845f19921b161c191690555f80808062000379565b838501518755899890960195938401930162000366565b9091929350865f528a5f208380870160051c8201928d881062000406575b9188918897969594930160051c01915b828110620003f757505062000161565b5f8155879650889101620003e7565b92508192620003d7565b602287634e487b7160e01b5f525260245ffd5b90607f16906200014a565b634e487b7160e01b5f52604160045260245ffd5b015190505f806200011c565b5f8681528d8120899550929190601f198516908f5b8282106200049b575050841162000483575b505050811b0182556200012d565b01515f1983871b60f8161c191690555f808062000475565b8385015186558b979095019493840193018f62000463565b90919250855f5284825f209181860160051c8301938610620004ff575b918991869594930160051c01915b828110620004f057508d915062000105565b5f8155859450899101620004de565b92508192620004d0565b634e487b7160e01b5f52602260045260245ffd5b92607f1692620000ed565b5f80fd5b6040519190601f01601f191682016001600160401b038111838210176200042e57604052565b51906001600160a01b03821682036200052857565b919080601f84011215620005285782516001600160401b0381116200042e576020906200059d601f8201601f191683016200052c565b9281845282828701011162000528575f5b818110620005c35750825f9394955001015290565b8581018301518482018401528201620005ae565b519062ffffff82168203620005285756fe60806040526004361015610011575f80fd5b5f3560e01c8062aeef8a1461164c57806306fdde031461158e5780630902f1ac1461156a578063095ea7b3146114e85780630a28a477146114ca57806318160ddd146114ad5780631c481e2d146114415780631dec151514611424578063238efcbc146113bc57806323b872dd146112d25780632ffdaf8914611293578063313ce5671461127857806333a100ca146112065780633e413bee146111c25780634b60ce771461117e5780634cc15d6414610f9e57806354d1886414610f815780635aa6e67514610f5957806360da3e8314610f3757806364df049e14610ef357806370a0823114610ebc5780639040f86614610e7d57806395d89b4114610d76578063974d8c9314610d4c578063a41fe49f14610b61578063a8c62e7614610b39578063a9059cbb14610b08578063aa6ca80814610a9e578063b269add314610735578063c45a0155146106f1578063d38bfff41461068e578063dd62ed3e14610641578063e1e158a514610625578063f39c38a0146105fd5763f3e6ea8a14610199575f80fd5b346105f95760803660031901126105f9576101b26118e8565b606435906001600160a01b03821682036105f9576101ce611ad4565b6001600160a01b03908116917f0000000000000000000000000000000000000000000000000000000000000000918216831415806105c6575b6105b4576001600160a01b038116156105a25760243515610590576001600160a01b0382168303610589577f0000000000000000000000000000000000000000000000000000000000000000925b6001600160a01b038316810361058057600954925b6001600160a01b038116820361057757600a54935b8015801561056f575b61044e5762ffffff7f00000000000000000000000000000000000000000000000000000000000000001661271003612710811161055b576102ce612710916024356119ee565b5f9691900491907f00000000000000000000000000000000000000000000000000000000000000006001600160a01b031615158061052d575b6104d5575b906103248361031e61032a94826119ee565b926119e1565b90611a01565b9460443586106104c35785156104c357610348602435303387611a1f565b80610492575b506001600160a01b03821683036104605761036b906009546119e1565b6009558361037b81600a54611af7565b80600a551061044e5761039b84846020975b6001600160a01b0316611b04565b6001600160a01b031603610400576040519060243582525f848301525f604083015282606083015260018060a01b0316907fd78ad95fa46c994b6551d0da85fc275fe613ce37657fb8d5e3d130840159d82260803392a35b6001600555604051908152f35b604051905f8252602435848301528260408301525f606083015260018060a01b0316907fd78ad95fa46c994b6551d0da85fc275fe613ce37657fb8d5e3d130840159d82260803392a36103f3565b60405163bb55fd2760e01b8152600490fd5b61046c90600a546119e1565b600a558361047c81600954611af7565b806009551061044e5761039b848460209761038d565b6104bd907f000000000000000000000000000000000000000000000000000000000000000085611b04565b5f61034e565b60405163bb2875c360e01b8152600490fd5b955061032a906103248361031e6127106105206104f484602435611af7565b62ffffff7f000000000000000000000000000000000000000000000000000000000000000016906119ee565b049993945050505061030c565b5062ffffff7f0000000000000000000000000000000000000000000000000000000000000000161515610307565b634e487b7160e01b5f52601160045260245ffd5b508415610288565b6009549361027f565b600a549261026a565b8192610255565b604051632ca2f52b60e11b8152600490fd5b60405163e6c4247b60e01b8152600490fd5b60405163c1ab6dc160e01b8152600490fd5b507f00000000000000000000000000000000000000000000000000000000000000006001600160a01b0316831415610207565b5f80fd5b346105f9575f3660031901126105f9576007546040516001600160a01b039091168152602090f35b346105f9575f3660031901126105f95760206040516103e88152f35b346105f95760403660031901126105f95761065a6118e8565b6106626118fe565b9060018060a01b038091165f52600160205260405f2091165f52602052602060405f2054604051908152f35b346105f95760203660031901126105f9576106a76118e8565b6006546001600160a01b039190821633036106df571680156105a2576bffffffffffffffffffffffff60a01b60075416176007555f80f35b6040516354348f0360e01b8152600490fd5b346105f9575f3660031901126105f9576040517f00000000000000000000000000000000000000000000000000000000000000006001600160a01b03168152602090f35b346105f9576020806003193601126105f95767ffffffffffffffff906004358281116105f957366023820112156105f95780600401358381116105f957602491368383830101116105f9576006546001600160a01b0390811633036106df5780600854169081156105a257807f000000000000000000000000000000000000000000000000000000000000000016604051926370a0823160e01b9283855230600486015288858981865afa9485156109a3575f95610a6f575b507f000000000000000000000000000000000000000000000000000000000000000016946040519084825230600483015289828a818a5afa9788156109a35789925f99610a36575b50915f809492848295604051948593018337810182815203925af13d15610a2d573d988911610a1a5760405198610876601f8201601f19168a018b611914565b89523d5f898b013e5b156109df5790868692604051938480928582523060048301525afa9586156109a35787925f976109ae575b506040518095819382523060048301525afa9182156109a3575f92610952575b509083604093927f8f9497c27f572ff1a65e8b2c7a0706d466466ae0b5efc78462b5f0021da669569560095582600a558082115f146109495761090c91611af7565b915b808211156109415761091f91611af7565b825191825284820152a161093d6040519282849384528301906118aa565b0390f35b50505f61091f565b50505f9161090e565b9291508483813d831161099c575b61096a8183611914565b810103126105f957915190917f8f9497c27f572ff1a65e8b2c7a0706d466466ae0b5efc78462b5f0021da669566108ca565b503d610960565b6040513d5f823e3d90fd5b8381949298503d83116109d8575b6109c68183611914565b810103126105f95786915195896108aa565b503d6109bc565b60405162461bcd60e51b8152600481018890526014818801527314dd1c985d1959de4818d85b1b0819985a5b195960621b6044820152606490fd5b86634e487b7160e01b5f5260416004525ffd5b6060985061087f565b8b80929a508194509492943d8311610a68575b610a538183611914565b810103126105f957905196909188915f610836565b503d610a49565b9094508881813d8311610a97575b610a878183611914565b810103126105f95751938a6107ee565b503d610a7d565b346105f9575f3660031901126105f957604080516001600160a01b037f0000000000000000000000000000000000000000000000000000000000000000811682527f0000000000000000000000000000000000000000000000000000000000000000166020820152f35b346105f95760403660031901126105f957610b2e610b246118e8565b6024359033611936565b602060405160018152f35b346105f9575f3660031901126105f9576008546040516001600160a01b039091168152602090f35b346105f957610b6f36611890565b90610b78611ad4565b821561059057335f525f6020528260405f205410610d3a57600254600954610ba982610ba483886119ee565b611a01565b93610bbb600a5493610ba485896119ee565b938510908115610d30575b5061059057610be291610bda858593611af7565b600955611af7565b600a553315610d1857335f525f60205260405f2054838110610cf1579280604094335f525f60205203845f205580600254036002555f84518281527fddf252ad1be2c89b69c2b068fc378daa952ba7f163c4a11628f55a4df523b3ef60203392a3610ca5826001600160a01b03610c7c86337f00000000000000000000000000000000000000000000000000000000000000008416611b04565b33907f000000000000000000000000000000000000000000000000000000000000000016611b04565b8351908152602081018390526040810182905233907f75e161b3e824b114fc1a33274bd7091918dd4e639cede50b78b15a4eea956a2190606090a2600160055582519182526020820152f35b60405163391434e360e21b8152336004820152602481019190915260448101849052606490fd5b604051634b637e8f60e11b81525f6004820152602490fd5b9050831086610bc6565b604051633999656760e01b8152600490fd5b346105f95760203660031901126105f9576040610d6a600435611b85565b82519182526020820152f35b346105f9575f3660031901126105f9576040515f60045490600182811c91818416918215610e73575b6020948585108414610e5f5785879486865291825f14610e3f575050600114610de4575b50610dd092500383611914565b61093d6040519282849384528301906118aa565b84915060045f527f8a35acfbc15ff81a39ae7d344fd709f28e8600b4aa8c65c6b64bfe7fe36bd19b905f915b858310610e27575050610dd0935082010185610dc3565b80548389018501528794508693909201918101610e10565b60ff191685820152610dd095151560051b8501019250879150610dc39050565b634e487b7160e01b5f52602260045260245ffd5b92607f1692610d9f565b346105f9575f3660031901126105f957602060405162ffffff7f0000000000000000000000000000000000000000000000000000000000000000168152f35b346105f95760203660031901126105f9576001600160a01b03610edd6118e8565b165f525f602052602060405f2054604051908152f35b346105f9575f3660031901126105f9576040517f00000000000000000000000000000000000000000000000000000000000000006001600160a01b03168152602090f35b346105f9575f3660031901126105f957602060ff600b54166040519015158152f35b346105f9575f3660031901126105f9576006546040516001600160a01b039091168152602090f35b346105f9575f3660031901126105f9576020600954604051908152f35b346105f95760403660031901126105f957610fb76118e8565b6006546001600160a01b039190821633036106df5781600854169081156105a257821691807f0000000000000000000000000000000000000000000000000000000000000000168314159081611151575b506105a257604051636eb1769f60e11b81523060048201526001600160a01b0382166024820152602092908381604481855afa80156109a3575f90611122575b6110569150602435906119e1565b60405163095ea7b360e01b8582018181526001600160a01b038616602484015260448084019490945292825290939185905f90611094606488611914565b86519082875af15f513d82611106575b5050156110ad57005b6040519485015260248401525f6044840152604483526080830183811067ffffffffffffffff8211176110f2576110f0936110eb9160405282611a7a565b611a7a565b005b634e487b7160e01b5f52604160045260245ffd5b90915061111a5750823b15155b86806110a4565b600114611113565b508381813d831161114a575b6111388183611914565b810103126105f9576110569051611048565b503d61112e565b90507f00000000000000000000000000000000000000000000000000000000000000001682141583611008565b346105f9575f3660031901126105f9576040517f00000000000000000000000000000000000000000000000000000000000000006001600160a01b03168152602090f35b346105f9575f3660031901126105f9576040517f00000000000000000000000000000000000000000000000000000000000000006001600160a01b03168152602090f35b346105f95760203660031901126105f95761121f6118e8565b6006546001600160a01b0390811633036106df5780600854921691826bffffffffffffffffffffffff60a01b821617600855167fe4cec16b1a7e6b7979e923da619a8b1e5fd0f0fb6e5c1cf647f350430ee61ca95f80a3005b346105f9575f3660031901126105f957602060405160128152f35b346105f9575f3660031901126105f957602060405162ffffff7f0000000000000000000000000000000000000000000000000000000000000000168152f35b346105f95760603660031901126105f9576112eb6118e8565b6112f36118fe565b6001600160a01b0382165f8181526001602090815260408083203384529091529020549260443592915f198510611330575b50610b2e9350611936565b83851061139657801561137e57331561136657610b2e9484915f52600160205260405f20335f526020520360405f205584611325565b604051634a1406b160e11b81525f6004820152602490fd5b60405163e602df0560e01b81525f6004820152602490fd5b604051637dc7a0d960e11b81523360048201526024810186905260448101859052606490fd5b346105f9575f3660031901126105f9576007546001600160a01b0380821691338390036106df57600680546001600160a01b031980821686179092559116600755167f5f56bee8cffbe9a78652a74a60705edede02af10b0bbb888ca44b79a0d42ce805f80a3005b346105f9575f3660031901126105f9576020600a54604051908152f35b346105f95760203660031901126105f9576004358015158091036105f9576006546001600160a01b031633036106df5760207f9723f28d4abaff5df0f62bfb2418f2aac4a739b259edf209b8dc9944fa85aa789160ff19600b541660ff821617600b55604051908152a1005b346105f9575f3660031901126105f9576020600254604051908152f35b346105f95760203660031901126105f9576040610d6a600435611b40565b346105f95760403660031901126105f9576115016118e8565b60243590331561137e576001600160a01b031690811561136657335f52600160205260405f20825f526020528060405f20556040519081527f8c5be1e5ebec7d5bd14f71427d1e84f3dd0314c0f7b2291e5b200ac8c7c3b92560203392a3602060405160018152f35b346105f9575f3660031901126105f9576040600954600a5482519182526020820152f35b346105f9575f3660031901126105f9576040515f60035490600182811c91818416918215611642575b6020948585108414610e5f5785879486865291825f14610e3f5750506001146115e75750610dd092500383611914565b84915060035f527fc2575a0e9e593c00f959f8c92f12db2869c3395a3b0502d05e2516446f71f85b905f915b85831061162a575050610dd0935082010185610dc3565b80548389018501528794508693909201918101611613565b92607f16926115b7565b346105f95761165a36611890565b9091611664611ad4565b60ff600b541661187e576103e8808210908115611874575b506105905760025480611831575061169483826119ee565b915f600384111561182257508260019080821c82810180911161055b5791905b858310611802575050505b8215610590575b8210610d3a57611731836001600160a01b036117068430337f00000000000000000000000000000000000000000000000000000000000000008516611a1f565b309033907f000000000000000000000000000000000000000000000000000000000000000016611a1f565b61173d816009546119e1565b60095561174c83600a546119e1565b600a5533156117ea577f91ede45f04a37a7c170f5c1207df3b6bc748dc1e04ad5e917a241d0f52feada382602094611786826002546119e1565b600255335f525f865260405f208281540190556040518281525f7fddf252ad1be2c89b69c2b068fc378daa952ba7f163c4a11628f55a4df523b3ef883393a36040805194855260208501919091528301523391606090a26001600555604051908152f35b60405163ec442f0560e01b81525f6004820152602490fd5b90919450611819856118148184611a01565b6119e1565b821c91906116b4565b92156116bf57600192506116bf565b61185d61185461184d61184484866119ee565b60095490611a01565b92866119ee565b600a5490611a01565b8082101561186d57505b916116c6565b9050611867565b905083108461167c565b60405163deeb694360e01b8152600490fd5b60609060031901126105f957600435906024359060443590565b91908251928382525f5b8481106118d4575050825f602080949584010152601f8019910116010190565b6020818301810151848301820152016118b4565b600435906001600160a01b03821682036105f957565b602435906001600160a01b03821682036105f957565b90601f8019910116810190811067ffffffffffffffff8211176110f257604052565b916001600160a01b03808416928315610d1857169283156117ea575f90838252816020526040822054908382106119af575091604082827fddf252ad1be2c89b69c2b068fc378daa952ba7f163c4a11628f55a4df523b3ef958760209652828652038282205586815220818154019055604051908152a3565b60405163391434e360e21b81526001600160a01b03919091166004820152602481019190915260448101839052606490fd5b9190820180921161055b57565b8181029291811591840414171561055b57565b8115611a0b570490565b634e487b7160e01b5f52601260045260245ffd5b6040516323b872dd60e01b60208201526001600160a01b03928316602482015292909116604483015260648083019390935291815260a081019181831067ffffffffffffffff8411176110f257611a7892604052611a7a565b565b905f602091828151910182855af1156109a3575f513d611acb57506001600160a01b0381163b155b611aa95750565b604051635274afe760e01b81526001600160a01b039091166004820152602490fd5b60011415611aa2565b600260055414611ae5576002600555565b604051633ee5aeb560e01b8152600490fd5b9190820391821161055b57565b60405163a9059cbb60e01b60208201526001600160a01b03929092166024830152604480830193909352918152611a78916110eb606483611914565b9081158015611b7b575b611b7457611b71600254610ba4611b6782610ba4600954886119ee565b94600a54906119ee565b90565b5f91508190565b5060025415611b4a565b906002548015611ba65780610ba4611b67611b7193610ba4600954886119ee565b505f9150819056fea264697066735822122009b3f31d5545bca965d7915df7f023bc4b8e6ff16685128007ce5b3af257e66664736f6c63430008140033a26469706673582212200785c6b2e36e3c9b827427ba7b270a4a34b7781c720e78efdf60062f5af0d04c64736f6c63430008140033",
  "linkReferences": {},
  "deployedLinkReferences": {},
  "immutableReferences": {
    "6545": [
      {
        "length": 32,
        "start": 1155
      },
      {
        "length": 32,
        "start": 1522
      },
      {
        "length": 32,
        "start": 1660
      }
    ]
  },
  "inputSourceName": "project/core/VaultFactory.sol",
  "buildInfoId": "solc-0_8_20-a8cbf2a69aedf980ee152c67bcdacb8ac43f79c8"
}