{
  "_format": "hh3-artifact-1",
  "contractName": "FluxaGateway",
  "sourceName": "core/FluxaGateway.sol",
  "abi": [
    {
      "inputs": [
        {
          "internalType": "address",
          "name": "_token",
          "type": "address"
        },
        {
          "internalType": "bool",
          "name": "_isSource",
          "type": "bool"
        },
        {
          "internalType": "uint32",
          "name": "_chainId",
          "type": "uint32"
        },
        {
          "internalType": "address",
          "name": "_coordinator",
          "type": "address"
        },
        {
          "internalType": "address",
          "name": "_usdcAggregator",
          "type": "address"
        },
        {
          "internalType": "address",
          "name": "_usdc",
          "type": "address"
        }
      ],
      "stateMutability": "nonpayable",
      "type": "constructor"
    },
    {
      "inputs": [
        {
          "internalType": "address",
          "name": "owner",
          "type": "address"
        }
      ],
      "name": "OwnableInvalidOwner",
      "type": "error"
    },
    {
      "inputs": [
        {
          "internalType": "address",
          "name": "account",
          "type": "address"
        }
      ],
      "name": "OwnableUnauthorizedAccount",
      "type": "error"
    },
    {
      "inputs": [],
      "name": "ReentrancyGuardReentrantCall",
      "type": "error"
    },
    {
      "inputs": [
        {
          "internalType": "address",
          "name": "token",
          "type": "address"
        }
      ],
      "name": "SafeERC20FailedOperation",
      "type": "error"
    },
    {
      "anonymous": false,
      "inputs": [
        {
          "indexed": true,
          "internalType": "address",
          "name": "oldCoordinator",
          "type": "address"
        },
        {
          "indexed": true,
          "internalType": "address",
          "name": "newCoordinator",
          "type": "address"
        }
      ],
      "name": "CoordinatorUpdated",
      "type": "event"
    },
    {
      "anonymous": false,
      "inputs": [
        {
          "indexed": true,
          "internalType": "uint32",
          "name": "destChain",
          "type": "uint32"
        },
        {
          "indexed": false,
          "internalType": "uint256",
          "name": "flxAmount",
          "type": "uint256"
        },
        {
          "indexed": false,
          "internalType": "uint256",
          "name": "usdcAmount",
          "type": "uint256"
        }
      ],
      "name": "LiquidityAggregationInitiated",
      "type": "event"
    },
    {
      "anonymous": false,
      "inputs": [
        {
          "indexed": false,
          "internalType": "uint256",
          "name": "flxAmount",
          "type": "uint256"
        },
        {
          "indexed": false,
          "internalType": "uint256",
          "name": "usdcAmount",
          "type": "uint256"
        }
      ],
      "name": "LiquidityRepopulated",
      "type": "event"
    },
    {
      "anonymous": false,
      "inputs": [
        {
          "indexed": true,
          "internalType": "address",
          "name": "previousOwner",
          "type": "address"
        },
        {
          "indexed": true,
          "internalType": "address",
          "name": "newOwner",
          "type": "address"
        }
      ],
      "name": "OwnershipTransferred",
      "type": "event"
    },
    {
      "anonymous": false,
      "inputs": [
        {
          "indexed": true,
          "internalType": "address",
          "name": "depositor",
          "type": "address"
        },
        {
          "indexed": false,
          "internalType": "uint256",
          "name": "amount",
          "type": "uint256"
        },
        {
          "indexed": false,
          "internalType": "uint32",
          "name": "sourceChain",
          "type": "uint32"
        },
        {
          "indexed": false,
          "internalType": "uint32",
          "name": "destinationChain",
          "type": "uint32"
        },
        {
          "indexed": false,
          "internalType": "address",
          "name": "destinationRecipient",
          "type": "address"
        },
        {
          "indexed": false,
          "internalType": "uint256",
          "name": "nonce",
          "type": "uint256"
        }
      ],
      "name": "TokenDeposited",
      "type": "event"
    },
    {
      "anonymous": false,
      "inputs": [
        {
          "indexed": true,
          "internalType": "uint32",
          "name": "sourceChain",
          "type": "uint32"
        },
        {
          "indexed": true,
          "internalType": "address",
          "name": "recipient",
          "type": "address"
        },
        {
          "indexed": false,
          "internalType": "uint256",
          "name": "amount",
          "type": "uint256"
        },
        {
          "indexed": false,
          "internalType": "uint256",
          "name": "nonce",
          "type": "uint256"
        }
      ],
      "name": "TokensReleased",
      "type": "event"
    },
    {
      "anonymous": false,
      "inputs": [
        {
          "indexed": true,
          "internalType": "address",
          "name": "vault",
          "type": "address"
        }
      ],
      "name": "VaultSet",
      "type": "event"
    },
    {
      "anonymous": false,
      "inputs": [
        {
          "indexed": true,
          "internalType": "address",
          "name": "wrappedToken",
          "type": "address"
        }
      ],
      "name": "WrappedTokenUpdated",
      "type": "event"
    },
    {
      "anonymous": false,
      "inputs": [
        {
          "indexed": true,
          "internalType": "address",
          "name": "burner",
          "type": "address"
        },
        {
          "indexed": false,
          "internalType": "uint256",
          "name": "amount",
          "type": "uint256"
        },
        {
          "indexed": false,
          "internalType": "uint32",
          "name": "destinationChain",
          "type": "uint32"
        },
        {
          "indexed": false,
          "internalType": "uint32",
          "name": "originChain",
          "type": "uint32"
        },
        {
          "indexed": false,
          "internalType": "address",
          "name": "originRecipient",
          "type": "address"
        },
        {
          "indexed": false,
          "internalType": "uint256",
          "name": "nonce",
          "type": "uint256"
        }
      ],
      "name": "WrappedTokensBurned",
      "type": "event"
    },
    {
      "anonymous": false,
      "inputs": [
        {
          "indexed": true,
          "internalType": "uint32",
          "name": "sourceChain",
          "type": "uint32"
        },
        {
          "indexed": true,
          "internalType": "address",
          "name": "recipient",
          "type": "address"
        },
        {
          "indexed": false,
          "internalType": "uint256",
          "name": "amount",
          "type": "uint256"
        },
        {
          "indexed": false,
          "internalType": "uint256",
          "name": "nonce",
          "type": "uint256"
        }
      ],
      "name": "WrappedTokensMinted",
      "type": "event"
    },
    {
      "inputs": [],
      "name": "PROCESSING_DELAY",
      "outputs": [
        {
          "internalType": "uint256",
          "name": "",
          "type": "uint256"
        }
      ],
      "stateMutability": "view",
      "type": "function"
    },
    {
      "inputs": [],
      "name": "accumulatedFees",
      "outputs": [
        {
          "internalType": "uint256",
          "name": "",
          "type": "uint256"
        }
      ],
      "stateMutability": "view",
      "type": "function"
    },
    {
      "inputs": [
        {
          "internalType": "uint32",
          "name": "destChain",
          "type": "uint32"
        }
      ],
      "name": "aggregateLiquidity",
      "outputs": [
        {
          "internalType": "uint256",
          "name": "flxAmount",
          "type": "uint256"
        },
        {
          "internalType": "uint256",
          "name": "usdcAmount",
          "type": "uint256"
        }
      ],
      "stateMutability": "nonpayable",
      "type": "function"
    },
    {
      "inputs": [
        {
          "internalType": "uint256",
          "name": "amount",
          "type": "uint256"
        },
        {
          "internalType": "uint32",
          "name": "originChain",
          "type": "uint32"
        },
        {
          "internalType": "address",
          "name": "originRecipient",
          "type": "address"
        },
        {
          "internalType": "uint256",
          "name": "priorityFee",
          "type": "uint256"
        }
      ],
      "name": "burnForUnwrap",
      "outputs": [
        {
          "internalType": "uint256",
          "name": "nonce",
          "type": "uint256"
        }
      ],
      "stateMutability": "nonpayable",
      "type": "function"
    },
    {
      "inputs": [
        {
          "internalType": "uint32",
          "name": "",
          "type": "uint32"
        }
      ],
      "name": "burnNonces",
      "outputs": [
        {
          "internalType": "uint256",
          "name": "",
          "type": "uint256"
        }
      ],
      "stateMutability": "view",
      "type": "function"
    },
    {
      "inputs": [],
      "name": "chainId",
      "outputs": [
        {
          "internalType": "uint32",
          "name": "",
          "type": "uint32"
        }
      ],
      "stateMutability": "view",
      "type": "function"
    },
    {
      "inputs": [],
      "name": "coordinator",
      "outputs": [
        {
          "internalType": "address",
          "name": "",
          "type": "address"
        }
      ],
      "stateMutability": "view",
      "type": "function"
    },
    {
      "inputs": [
        {
          "internalType": "uint256",
          "name": "amount",
          "type": "uint256"
        },
        {
          "internalType": "uint32",
          "name": "destinationChain",
          "type": "uint32"
        },
        {
          "internalType": "address",
          "name": "destinationRecipient",
          "type": "address"
        },
        {
          "internalType": "uint256",
          "name": "priorityFee",
          "type": "uint256"
        }
      ],
      "name": "depositForWrap",
      "outputs": [
        {
          "internalType": "uint256",
          "name": "nonce",
          "type": "uint256"
        }
      ],
      "stateMutability": "nonpayable",
      "type": "function"
    },
    {
      "inputs": [
        {
          "internalType": "uint32",
          "name": "",
          "type": "uint32"
        }
      ],
      "name": "depositNonces",
      "outputs": [
        {
          "internalType": "uint256",
          "name": "",
          "type": "uint256"
        }
      ],
      "stateMutability": "view",
      "type": "function"
    },
    {
      "inputs": [],
      "name": "getAccumulatedFees",
      "outputs": [
        {
          "internalType": "uint256",
          "name": "",
          "type": "uint256"
        }
      ],
      "stateMutability": "view",
      "type": "function"
    },
    {
      "inputs": [
        {
          "internalType": "uint32",
          "name": "destChain",
          "type": "uint32"
        }
      ],
      "name": "getDepositNonce",
      "outputs": [
        {
          "internalType": "uint256",
          "name": "",
          "type": "uint256"
        }
      ],
      "stateMutability": "view",
      "type": "function"
    },
    {
      "inputs": [],
      "name": "getPendingBurnsCount",
      "outputs": [
        {
          "internalType": "uint256",
          "name": "",
          "type": "uint256"
        }
      ],
      "stateMutability": "view",
      "type": "function"
    },
    {
      "inputs": [],
      "name": "getPendingDepositsCount",
      "outputs": [
        {
          "internalType": "uint256",
          "name": "",
          "type": "uint256"
        }
      ],
      "stateMutability": "view",
      "type": "function"
    },
    {
      "inputs": [],
      "name": "getTotalLocked",
      "outputs": [
        {
          "internalType": "uint256",
          "name": "",
          "type": "uint256"
        }
      ],
      "stateMutability": "view",
      "type": "function"
    },
    {
      "inputs": [
        {
          "internalType": "uint32",
          "name": "sourceChain",
          "type": "uint32"
        }
      ],
      "name": "getTotalWrapped",
      "outputs": [
        {
          "internalType": "uint256",
          "name": "",
          "type": "uint256"
        }
      ],
      "stateMutability": "view",
      "type": "function"
    },
    {
      "inputs": [
        {
          "internalType": "uint32",
          "name": "sourceChain",
          "type": "uint32"
        },
        {
          "internalType": "uint256",
          "name": "nonce",
          "type": "uint256"
        }
      ],
      "name": "isNonceProcessed",
      "outputs": [
        {
          "internalType": "bool",
          "name": "",
          "type": "bool"
        }
      ],
      "stateMutability": "view",
      "type": "function"
    },
    {
      "inputs": [],
      "name": "isSource",
      "outputs": [
        {
          "internalType": "bool",
          "name": "",
          "type": "bool"
        }
      ],
      "stateMutability": "view",
      "type": "function"
    },
    {
      "inputs": [
        {
          "internalType": "uint256[]",
          "name": "indices",
          "type": "uint256[]"
        }
      ],
      "name": "markBurnsProcessed",
      "outputs": [],
      "stateMutability": "nonpayable",
      "type": "function"
    },
    {
      "inputs": [
        {
          "internalType": "uint256[]",
          "name": "indices",
          "type": "uint256[]"
        }
      ],
      "name": "markDepositsProcessed",
      "outputs": [],
      "stateMutability": "nonpayable",
      "type": "function"
    },
    {
      "inputs": [
        {
          "internalType": "uint32",
          "name": "sourceChain",
          "type": "uint32"
        },
        {
          "internalType": "address",
          "name": "recipient",
          "type": "address"
        },
        {
          "internalType": "uint256",
          "name": "amount",
          "type": "uint256"
        },
        {
          "internalType": "uint256",
          "name": "nonce",
          "type": "uint256"
        }
      ],
      "name": "mintWrapped",
      "outputs": [],
      "stateMutability": "nonpayable",
      "type": "function"
    },
    {
      "inputs": [],
      "name": "owner",
      "outputs": [
        {
          "internalType": "address",
          "name": "",
          "type": "address"
        }
      ],
      "stateMutability": "view",
      "type": "function"
    },
    {
      "inputs": [
        {
          "internalType": "uint256",
          "name": "",
          "type": "uint256"
        }
      ],
      "name": "pendingBurns",
      "outputs": [
        {
          "internalType": "uint32",
          "name": "destChain",
          "type": "uint32"
        },
        {
          "internalType": "address",
          "name": "recipient",
          "type": "address"
        },
        {
          "internalType": "uint256",
          "name": "amount",
          "type": "uint256"
        },
        {
          "internalType": "uint256",
          "name": "nonce",
          "type": "uint256"
        },
        {
          "internalType": "uint256",
          "name": "timestamp",
          "type": "uint256"
        },
        {
          "internalType": "uint256",
          "name": "priorityFee",
          "type": "uint256"
        },
        {
          "internalType": "bool",
          "name": "processed",
          "type": "bool"
        }
      ],
      "stateMutability": "view",
      "type": "function"
    },
    {
      "inputs": [
        {
          "internalType": "uint256",
          "name": "",
          "type": "uint256"
        }
      ],
      "name": "pendingDeposits",
      "outputs": [
        {
          "internalType": "uint32",
          "name": "sourceChain",
          "type": "uint32"
        },
        {
          "internalType": "address",
          "name": "recipient",
          "type": "address"
        },
        {
          "internalType": "uint256",
          "name": "amount",
          "type": "uint256"
        },
        {
          "internalType": "uint256",
          "name": "nonce",
          "type": "uint256"
        },
        {
          "internalType": "uint256",
          "name": "timestamp",
          "type": "uint256"
        },
        {
          "internalType": "uint256",
          "name": "priorityFee",
          "type": "uint256"
        },
        {
          "internalType": "bool",
          "name": "processed",
          "type": "bool"
        }
      ],
      "stateMutability": "view",
      "type": "function"
    },
    {
      "inputs": [],
      "name": "processPendingBurnsInfo",
      "outputs": [
        {
          "internalType": "uint256[]",
          "name": "readyIndices",
          "type": "uint256[]"
        },
        {
          "internalType": "uint32[]",
          "name": "destChains",
          "type": "uint32[]"
        },
        {
          "internalType": "address[]",
          "name": "recipients",
          "type": "address[]"
        },
        {
          "internalType": "uint256[]",
          "name": "amounts",
          "type": "uint256[]"
        },
        {
          "internalType": "uint256[]",
          "name": "nonces",
          "type": "uint256[]"
        },
        {
          "internalType": "uint256[]",
          "name": "priorityFees",
          "type": "uint256[]"
        }
      ],
      "stateMutability": "view",
      "type": "function"
    },
    {
      "inputs": [],
      "name": "processPendingDepositsInfo",
      "outputs": [
        {
          "internalType": "uint256[]",
          "name": "readyIndices",
          "type": "uint256[]"
        },
        {
          "internalType": "uint32[]",
          "name": "sourceChains",
          "type": "uint32[]"
        },
        {
          "internalType": "address[]",
          "name": "recipients",
          "type": "address[]"
        },
        {
          "internalType": "uint256[]",
          "name": "amounts",
          "type": "uint256[]"
        },
        {
          "internalType": "uint256[]",
          "name": "nonces",
          "type": "uint256[]"
        },
        {
          "internalType": "uint256[]",
          "name": "priorityFees",
          "type": "uint256[]"
        }
      ],
      "stateMutability": "view",
      "type": "function"
    },
    {
      "inputs": [
        {
          "internalType": "uint32",
          "name": "",
          "type": "uint32"
        },
        {
          "internalType": "uint256",
          "name": "",
          "type": "uint256"
        }
      ],
      "name": "processedNonces",
      "outputs": [
        {
          "internalType": "bool",
          "name": "",
          "type": "bool"
        }
      ],
      "stateMutability": "view",
      "type": "function"
    },
    {
      "inputs": [
        {
          "internalType": "uint32",
          "name": "destChain",
          "type": "uint32"
        },
        {
          "internalType": "address",
          "name": "recipient",
          "type": "address"
        },
        {
          "internalType": "uint256",
          "name": "amount",
          "type": "uint256"
        },
        {
          "internalType": "uint256",
          "name": "nonce",
          "type": "uint256"
        }
      ],
      "name": "releaseTokens",
      "outputs": [],
      "stateMutability": "nonpayable",
      "type": "function"
    },
    {
      "inputs": [],
      "name": "renounceOwnership",
      "outputs": [],
      "stateMutability": "nonpayable",
      "type": "function"
    },
    {
      "inputs": [
        {
          "internalType": "uint256",
          "name": "flxAmount",
          "type": "uint256"
        },
        {
          "internalType": "uint256",
          "name": "usdcAmount",
          "type": "uint256"
        }
      ],
      "name": "repopulateVault",
      "outputs": [],
      "stateMutability": "nonpayable",
      "type": "function"
    },
    {
      "inputs": [
        {
          "internalType": "address",
          "name": "_coordinator",
          "type": "address"
        }
      ],
      "name": "setCoordinator",
      "outputs": [],
      "stateMutability": "nonpayable",
      "type": "function"
    },
    {
      "inputs": [
        {
          "internalType": "address",
          "name": "_vault",
          "type": "address"
        }
      ],
      "name": "setVault",
      "outputs": [],
      "stateMutability": "nonpayable",
      "type": "function"
    },
    {
      "inputs": [
        {
          "internalType": "address",
          "name": "_wrappedToken",
          "type": "address"
        }
      ],
      "name": "setWrappedToken",
      "outputs": [],
      "stateMutability": "nonpayable",
      "type": "function"
    },
    {
      "inputs": [],
      "name": "token",
      "outputs": [
        {
          "internalType": "address",
          "name": "",
          "type": "address"
        }
      ],
      "stateMutability": "view",
      "type": "function"
    },
    {
      "inputs": [],
      "name": "totalLocked",
      "outputs": [
        {
          "internalType": "uint256",
          "name": "",
          "type": "uint256"
        }
      ],
      "stateMutability": "view",
      "type": "function"
    },
    {
      "inputs": [
        {
          "internalType": "uint32",
          "name": "",
          "type": "uint32"
        }
      ],
      "name": "totalWrapped",
      "outputs": [
        {
          "internalType": "uint256",
          "name": "",
          "type": "uint256"
        }
      ],
      "stateMutability": "view",
      "type": "function"
    },
    {
      "inputs": [
        {
          "internalType": "address",
          "name": "newOwner",
          "type": "address"
        }
      ],
      "name": "transferOwnership",
      "outputs": [],
      "stateMutability": "nonpayable",
      "type": "function"
    },
    {
      "inputs": [],
      "name": "usdc",
      "outputs": [
        {
          "internalType": "address",
          "name": "",
          "type": "address"
        }
      ],
      "stateMutability": "view",
      "type": "function"
    },
    {
      "inputs": [],
      "name": "usdcAggregator",
      "outputs": [
        {
          "internalType": "address",
          "name": "",
          "type": "address"
        }
      ],
      "stateMutability": "view",
      "type": "function"
    },
    {
      "inputs": [],
      "name": "vault",
      "outputs": [
        {
          "internalType": "address",
          "name": "",
          "type": "address"
        }
      ],
      "stateMutability": "view",
      "type": "function"
    },
    {
      "inputs": [
        {
          "internalType": "address",
          "name": "recipient",
          "type": "address"
        },
        {
          "internalType": "uint256",
          "name": "amount",
          "type": "uint256"
        }
      ],
      "name": "withdrawFees",
      "outputs": [],
      "stateMutability": "nonpayable",
      "type": "function"
    },
    {
      "inputs": [],
      "name": "wrappedToken",
      "outputs": [
        {
          "internalType": "address",
          "name": "",
          "type": "address"
        }
      ],
      "stateMutability": "view",
      "type": "function"
    }
  ],
  "bytecode": "0x610120346200027557601f6200272938819003918201601f1916830191906001600160401b0383118484101762000279578160c09285926040958652833981010312620002755762000051826200028d565b91602081015192831515840362000275578282015163ffffffff81168103620002755762000082606084016200028d565b906200009f60a062000097608087016200028d565b95016200028d565b9533156200025e575f549360018060a01b03199333858716175f55875160018060a01b0396873391167f8be0079c531659141344cd1fd0a4f28419497f9722a3daafe3b4186f6b6457e05f80a360018055868316156200022f57508516948515620001f857881615620001c85760805260a05260c052600254161760025560e052610100918252516124869182620002a383396080518281816101f601528181610668015281816109b901528181610c5d0152610d90015260a0518281816105ac0152818161090e01528181610cc6015281816112d60152818161144a0152611a03015260c0518281816107ff01528181610a0e0152611546015260e0518281816104d80152818161052a015261172c0152518181816104fa01528181610c2c01526113ff0152f35b865162461bcd60e51b81526020600482015260096024820152685a45524f5f5553444360b81b6044820152606490fd5b875162461bcd60e51b815260206004820152601060248201526f2d22a927afa1a7a7a92224a720aa27a960811b6044820152606490fd5b62461bcd60e51b815260206004820152600a6024820152692d22a927afaa27a5a2a760b11b6044820152606490fd5b8551631e4fbdf760e01b81525f6004820152602490fd5b5f80fd5b634e487b7160e01b5f52604160045260245ffd5b51906001600160a01b0382168203620002755756fe60406080815260049081361015610014575f80fd5b5f91823560e01c908163076cbd03146119cb57816307a07c81146119ac5781630a009097146119835781632028a12a1461175b57816329716df81461171757816329d1e8b5146116fb5781632d3a10cc14610dfe578163376bd0141461142e5781633e413bee146113ea57816345533b28146107ae578163498d7615146106d05781634ac64739146113bd578163568914121461139e578163587f5ed71461137f5781635df45a371461137f57816362d5c1a6146112b0578163679cf18c14610f285781636817031b14610e8a578163715018a614610e31578163741fea9414610dfe5781637840275614610c8957816381ed3bc014610b3957816387b48931146108ef5781638da5cb5b146108c75781638ea981171461084c578163996c6cc3146108235781639a8a0592146107e25781639ba7bd97146107ae578163a793279414610712578163aaa9a61c146106d0578163ad3b1b4714610605578163c376258f146105d1578163d41af76914610594578163db708da514610404578163e2af71501461039c578163eb2acaa61461031f578163f2fde38b1461028d57508063f4732da61461026f578063fa9c5f4d14610251578063fbfa77cf146102295763fc0c546a146101e3575f80fd5b34610225578160031936011261022557517f00000000000000000000000000000000000000000000000000000000000000006001600160a01b03168152602090f35b5080fd5b503461022557816003193601126102255760095490516001600160a01b039091168152602090f35b5034610225578160031936011261022557602090600a549051908152f35b50346102255781600319360112610225576020906003549051908152f35b90503461031b57602036600319011261031b576102a8611bb7565b906102b1611e16565b6001600160a01b039182169283156103055750505f54826bffffffffffffffffffffffff60a01b8216175f55167f8be0079c531659141344cd1fd0a4f28419497f9722a3daafe3b4186f6b6457e05f80a380f35b51631e4fbdf760e01b8152908101849052602490fd5b8280fd5b83346103995761032e36611dc9565b61034360018060a01b03600254163314611e7c565b825b818110610350578380f35b8061036c610362610394938587612404565b35600b5411612414565b600561038261037c838688612404565b35611d90565b5001805460ff19166001179055612277565b610345565b80fd5b8334610399576103ab36611dc9565b6103c060018060a01b03600254163314611e7c565b825b8181106103cd578380f35b806103e96103df6103ff938587612404565b35600a5411612414565b60056103826103f9838688612404565b35611d43565b6103c2565b8391503461022557602036600319011261022557610420611ba0565b9060018060a01b0361043781600254163314611e7c565b61043f612000565b8463ffffffff6024836009541695610458871515611ebb565b87845197889485936394fc8a7d60e01b85521680988401525af192831561058a57848094610551575b50508280151580610526575b6104d2575b50507fde439a36d021648d227ad9ac04b36e01c99d01d6474597b2d2fdc5aabd1c7d19848051858152846020820152a26001805582519182526020820152f35b61051f917f0000000000000000000000000000000000000000000000000000000000000000907f000000000000000000000000000000000000000000000000000000000000000016611f58565b8482610492565b50817f000000000000000000000000000000000000000000000000000000000000000016151561048d565b91935093508484813d8311610583575b61056b8183611f36565b81010312610399575060208351930151918580610481565b503d610561565b85513d86823e3d90fd5b505034610225578160031936011261022557602090517f000000000000000000000000000000000000000000000000000000000000000015158152f35b505034610225576020366003190112610225578060209263ffffffff6105f5611ba0565b1681526006845220549051908152f35b83915034610225578260031936011261022557610620611bb7565b6024359161062c611e16565b6001600160a01b0390610642838316151561223a565b831515806106c4575b15610690575061068d93945061066383600c54612399565b600c557f000000000000000000000000000000000000000000000000000000000000000016611f58565b80f35b606490602087519162461bcd60e51b8352820152600e60248201526d1253959053125117d05353d5539560921b6044820152fd5b50600c5484111561064b565b50503461022557806003193601126102255760ff8160209363ffffffff6106f5611ba0565b168152600785528181206024358252855220541690519015158152f35b82843461039957602036600319011261039957823590600a54821015610399575061073f6107aa91611d43565b50805460018201546002830154600384015496840154600590940154955163ffffffff841681526001600160a01b03602094851c169381019390935260408301919091526060820152608081019490945260a084015260ff909116151560c0830152819060e0820190565b0390f35b505034610225576020366003190112610225578060209263ffffffff6107d2611ba0565b1681526005845220549051908152f35b5050346102255781600319360112610225576020905163ffffffff7f0000000000000000000000000000000000000000000000000000000000000000168152f35b50503461022557816003193601126102255760085490516001600160a01b039091168152602090f35b833461039957602036600319011261039957610866611bb7565b61086e611e16565b6001600160a01b0390811690610885821515611e41565b600254826bffffffffffffffffffffffff60a01b821617600255167fe73ccba5c53e91a1e91298739cd456da0ef0db1a3548dcd4561ea86f413ec8a98380a380f35b505034610225578160031936011261022557905490516001600160a01b039091168152602090f35b838334610225576108ff36611d08565b9490610909612000565b6109327f000000000000000000000000000000000000000000000000000000000000000061218e565b61093d8415156121c7565b63ffffffff80841692610951841515612201565b6001600160a01b03838116949061096986151561223a565b6109738a89612023565b908951916323b872dd60e01b602084015233602484015230604484015260648301526064825260a0820182811067ffffffffffffffff821117610b26578a526109de91907f000000000000000000000000000000000000000000000000000000000000000016611f9b565b6109ea87600354612023565b60035588610b12575b8152600560205286812097885498610a0a8a612277565b90557f000000000000000000000000000000000000000000000000000000000000000094885193610a3a85611f1a565b861684526020840152868884015288606084015242608084015260a08301528060c0830152600a5490600160401b821015610aff5750602098507fc6789791b12509f93abf7d35eb1bc0bafe7db266ad33845dd7d1825baddda1a1949392610ab6610af293610ab08460018d9601600a55611d43565b90612285565b875196875263ffffffff93841660208801529390921660408601526001600160a01b0390921660608501526080840152339290819060a0820190565b0390a26001805551908152f35b634e487b7160e01b815260418a52602490fd5b610b1e89600c54612023565b600c556109f3565b60418d634e487b7160e01b5f525260245ffd5b9190503461031b578060031936011261031b578135836024359360018060a01b03610b6981600254163314611e7c565b610b71612000565b8060095416610b81811515611ebb565b8480610c56575b505085610c20575b6009541690813b1561031b5783604484928388519586948593626f378760e71b85528401528a60248401525af18015610c1657610bfe575b50507f945fb2214087baf45dc65c5a87fa8fa99e269753699c4fa80f51fdf5aee59c729282519182526020820152a16001805580f35b610c0790611ef2565b610c1257835f610bc8565b8380fd5b84513d84823e3d90fd5b610c51868260095416837f000000000000000000000000000000000000000000000000000000000000000016612044565b610b90565b610c8291837f000000000000000000000000000000000000000000000000000000000000000016612044565b5f84610b88565b9190503461031b57610c9a36611bcd565b9091939294610ca7612000565b6002546001600160a01b039590610cc19087163314611e7c565b610cea7f000000000000000000000000000000000000000000000000000000000000000061218e565b610cf58415156121c7565b63ffffffff86821697610d0989151561223a565b169586895260209260078452868a20858b528452610d2d60ff888c2054161561231a565b8560035410610dc55750847f9361b7addb6db23979a6abc46e64492d941b969ea4a77e367eabee0fb19ef4979695949392610db592898c5260078552878c20868d528552878c20600160ff19825416179055610d8b83600354612399565b6003557f000000000000000000000000000000000000000000000000000000000000000016611f58565b8351928352820152a36001805580f35b865162461bcd60e51b81529081018490526013602482015272125394d551919250d251539517d313d0d2d151606a1b6044820152606490fd5b90503461031b57602036600319011261031b57602092829163ffffffff610e23611ba0565b168252845220549051908152f35b8334610399578060031936011261039957610e4a611e16565b5f80546001600160a01b0319811682556001600160a01b03167f8be0079c531659141344cd1fd0a4f28419497f9722a3daafe3b4186f6b6457e08280a380f35b90503461031b57602036600319011261031b57610ea5611bb7565b610ead611e16565b6001600160a01b0316918215610ef8575050600980546001600160a01b031916821790557fe7ae49f883c825b05681b3e00e8be6fdea9ed2a8a45e4c6ecb9390fc44cce6158280a280f35b906020606492519162461bcd60e51b8352820152600a60248201526916915493d7d59055531560b21b6044820152fd5b90503461031b578260031936011261031b57600b548391825b82811061123b5750610f52836123be565b92610f5c816123be565b94610f66826123be565b90610f70836123be565b92610f7a816123be565b94610f84826123be565b968a8b5b82811061113057505050895b828110610faf575050506107aa959697505196879687611c3b565b6001810180821161111d575b838110610fd15750610fcc90612277565b610f94565b80610fdf610ff5928b6123f0565b51610fea848c6123f0565b5110610ffa57612277565b610fbb565b611004818c6123f0565b518b61101b8361101487846123f0565b51926123f0565b52611026848d6123f0565b5263ffffffff61105b848e8361103c86836123f0565b51169361104983836123f0565b511661105586836123f0565b526123f0565b526001600160a01b038061106f838a6123f0565b51169061107c858a6123f0565b5116611088838a6123f0565b5261109384896123f0565b5261109e81896123f0565b516110a9848a6123f0565b516110b4838b6123f0565b526110bf848a6123f0565b526110ca818a6123f0565b516110d5848b6123f0565b516110e0838c6123f0565b526110eb848b6123f0565b526110f6818b6123f0565b51611101848c6123f0565b5161110c838d6123f0565b52611117848c6123f0565b52612277565b634e487b7160e01b8c526011835260248cfd5b8a60ff600561113e84611d90565b500154161580611203575b61115d575b5061115890612277565b610f88565b828261117061115894956111fa946123f0565b528d61118d8263ffffffff61118488611d90565b505416926123f0565b5261119784611d90565b505460201c6001600160a01b03166111af828b6123f0565b5260016111bb85611d90565b5001546111c8828c6123f0565b5260026111d485611d90565b5001546111e1828d6123f0565b528b61111782886111f188611d90565b500154926123f0565b9190508a61114e565b5050600361121082611d90565b500154600a8101809111611228578b90421015611149565b634e487b7160e01b8e526011855260248efd5b60ff600561124883611d90565b50015416158061127b575b611266575b61126190612277565b610f41565b9261127361126191612277565b939050611258565b50600361128782611d90565b500154600a810180911161129d57421015611253565b634e487b7160e01b875260118352602487fd5b90503461031b57602036600319011261031b576112cb611bb7565b916112d4611e16565b7f00000000000000000000000000000000000000000000000000000000000000006113485750506001600160a01b031661130f811515611e41565b600880546001600160a01b031916821790557f8f2a55b17d47ef80fe6483454245272f3a6ba3418e50c84d26e9565ae25864e28280a280f35b906020606492519162461bcd60e51b8352820152601160248201527014d3d55490d157d393d7d5d49054141151607a1b6044820152fd5b505034610225578160031936011261022557602090600c549051908152f35b5050346102255781600319360112610225576020906003549051908152f35b82843461039957602036600319011261039957823590600b54821015610399575061073f6107aa91611d90565b505034610225578160031936011261022557517f00000000000000000000000000000000000000000000000000000000000000006001600160a01b03168152602090f35b8383346102255761143e36611d08565b9490611448612000565b7f00000000000000000000000000000000000000000000000000000000000000006116c6576114788415156121c7565b63ffffffff8084169761148c891515612201565b6001600160a01b0383811694906114a486151561223a565b80600854166114b481151561235a565b803b1561031b578951632770a7eb60e21b80825233868301908152602081018c9052909392859183919082908490829060400103925af180156116bc579084916116a8575b50508a611631575b5050898152602099828b528789832054106115f757808252828b5288822061152a898254612399565b9055815260068a52878120988954996115428b612277565b90557f00000000000000000000000000000000000000000000000000000000000000009589519461157286611f1a565b871685528b850152878985015289606085015242608085015260a08401528060c0840152600b5491600160401b8310156115e45750507f8e8057b194e4523f2d4440a74d209bc1c9bbc5899b031de05a6cd96b469e9131949392610ab6610af293610ab08460018d9601600b55611d90565b634e487b7160e01b825260419052602490fd5b885162461bcd60e51b81528084018c90526014602482015273125394d551919250d251539517d5d4905414115160621b6044820152606490fd5b6008541690813b1561031b57895190815233848201908152602081018c90529091839183919082908490829060400103925af1801561169e5790829161168a575b505061168089600c54612023565b600c558a80611501565b61169390611ef2565b61039957808b611672565b89513d84823e3d90fd5b6116b190611ef2565b61031b57828d6114f9565b8b513d86823e3d90fd5b845162461bcd60e51b8152602081890152600f60248201526e2727aa2fa222a9aa24a720aa24a7a760891b6044820152606490fd5b50503461022557816003193601126102255760209051600a8152f35b505034610225578160031936011261022557517f00000000000000000000000000000000000000000000000000000000000000006001600160a01b03168152602090f35b90503461031b578260031936011261031b57600a80548492835b82811061190f5750611786846123be565b93611790816123be565b9561179a826123be565b916117a4816123be565b936117ae826123be565b956117b8836123be565b978b908c5b83811061181a5750505050895b8281106117e5575050506107aa959697505196879687611c3b565b6001810180821161111d575b838110611807575061180290612277565b6117ca565b80610fdf611815928b6123f0565b6117f1565b8c8c60ff600561182985611d43565b5001541615806118d6575b611849575b505061184490612277565b6117bd565b936118cc918361185d8361184496986123f0565b526118708263ffffffff61118489611d43565b5261187a85611d43565b505460201c6001600160a01b0316611892828c6123f0565b52600161189e86611d43565b5001546118ab828d6123f0565b528b6118bc8260026111f189611d43565b528c61111782896111f189611d43565b9290508c8c611839565b50505060036118e482611d43565b5001548281018091116118fc578c8e91421015611834565b634e487b7160e01b8f526011865260248ffd5b60ff600561191c83611d43565b50015416158061194f575b61193a575b61193590612277565b611775565b9361194761193591612277565b94905061192c565b50600361195b82611d43565b50015484810180911161197057421015611927565b634e487b7160e01b885260118352602488fd5b50503461022557816003193601126102255760025490516001600160a01b039091168152602090f35b505034610225578160031936011261022557602090600b549051908152f35b838334610225576119db36611bcd565b6119e794929394612000565b6002546001600160a01b039790611a019089163314611e7c565b7f0000000000000000000000000000000000000000000000000000000000000000611b7357611a318315156121c7565b63ffffffff88861696611a4588151561223a565b169485885260209860078a52858920848a528a52611a6960ff878b2054161561231a565b611a788160085416151561235a565b86895260078a52858920848a528a52858920600160ff19825416179055868952828a52858920611aa9868254612023565b90556008541691823b15611b6f5785516340c10f1960e01b81526001600160a01b03909216908201908152602081018590529091889183919082908490829060400103925af18015611b6557611b30575b507f6ed61f71c4b4978050d5d326fe478d3014bd7045f7a526a3fa07c67e700b17b7939495968351928352820152a36001805580f35b95611b5d7f6ed61f71c4b4978050d5d326fe478d3014bd7045f7a526a3fa07c67e700b17b7959697611ef2565b959493611afa565b84513d89823e3d90fd5b8880fd5b606490602085519162461bcd60e51b835282015260076024820152664e4f545f41524360c81b6044820152fd5b6004359063ffffffff82168203611bb357565b5f80fd5b600435906001600160a01b0382168203611bb357565b6080906003190112611bb35760043563ffffffff81168103611bb357906024356001600160a01b0381168103611bb357906044359060643590565b9081518082526020808093019301915f5b828110611c27575050505090565b835185529381019392810192600101611c19565b94929695939190611c549060c0875260c0870190611c08565b90602091868103838801528280835192838152019201905f5b818110611cee5750505085810360408701528180895192838152019801915f5b828110611cd1575050505090611cb286611cc09386611cce9899036060880152611c08565b908482036080860152611c08565b9160a0818403910152611c08565b90565b83516001600160a01b03168a529881019892810192600101611c8d565b825163ffffffff1684529284019291840191600101611c6d565b6080906003190112611bb3576004359060243563ffffffff81168103611bb357906044356001600160a01b0381168103611bb3579060643590565b600a54811015611d7c57600690600a5f52027fc65a7bb8d6351c1cf70c95a316cc6a92839c986682d98bc35f958f4883f9d2a801905f90565b634e487b7160e01b5f52603260045260245ffd5b600b54811015611d7c57600690600b5f52027f0175b7a638427703f0dbe7bb9bbf987a2551717b34e79f33b5b1008d1fa01db901905f90565b906020600319830112611bb35760043567ffffffffffffffff92838211611bb35780602383011215611bb3578160040135938411611bb35760248460051b83010111611bb3576024019190565b5f546001600160a01b03163303611e2957565b60405163118cdaa760e01b8152336004820152602490fd5b15611e4857565b60405162461bcd60e51b815260206004820152600c60248201526b5a45524f5f4144445245535360a01b6044820152606490fd5b15611e8357565b60405162461bcd60e51b815260206004820152601060248201526f27a7262cafa1a7a7a92224a720aa27a960811b6044820152606490fd5b15611ec257565b60405162461bcd60e51b81526020600482015260086024820152671393d7d59055531560c21b6044820152606490fd5b67ffffffffffffffff8111611f0657604052565b634e487b7160e01b5f52604160045260245ffd5b60e0810190811067ffffffffffffffff821117611f0657604052565b90601f8019910116810190811067ffffffffffffffff821117611f0657604052565b60405163a9059cbb60e01b60208201526001600160a01b03929092166024830152604480830193909352918152611f9991611f94606483611f36565b611f9b565b565b905f602091828151910182855af115611ff5575f513d611fec57506001600160a01b0381163b155b611fca5750565b604051635274afe760e01b81526001600160a01b039091166004820152602490fd5b60011415611fc3565b6040513d5f823e3d90fd5b600260015414612011576002600155565b604051633ee5aeb560e01b8152600490fd5b9190820180921161203057565b634e487b7160e01b5f52601160045260245ffd5b604051636eb1769f60e11b81523060048201526001600160a01b03838116602483018190526020959184169490929091908681604481895afa908115611ff5575f9161215f575b509061209691612023565b60405163095ea7b360e01b8782018181526001600160a01b0394909416602483015260448083019390935291815294909186905f906120d6606489611f36565b87519082885af1903d5f519083612140575b505050156120f8575b5050505050565b6040519485015260248401525f6044840152604483526080830183811067ffffffffffffffff821117611f065761213693611f949160405282611f9b565b5f808080806120f1565b9192509061215557503b15155b5f80806120e8565b600191501461214d565b908782813d8311612187575b6121758183611f36565b8101031261039957505161209661208b565b503d61216b565b1561219557565b60405162461bcd60e51b815260206004820152600a6024820152694e4f545f534f5552434560b01b6044820152606490fd5b156121ce57565b60405162461bcd60e51b815260206004820152600b60248201526a16915493d7d05353d5539560aa1b6044820152606490fd5b1561220857565b60405162461bcd60e51b815260206004820152600a6024820152692d22a927afa1a420a4a760b11b6044820152606490fd5b1561224157565b60405162461bcd60e51b815260206004820152600e60248201526d16915493d7d49150d2541251539560921b6044820152606490fd5b5f1981146120305760010190565b9061230757600560c09163ffffffff8451168154908063ffffffff1983161783556401000000006001861b03602087015160201b169167ffffffffffffffff861b161717815560408401516001820155606084015160028201556080840151600382015560a0840151600482015501910151151560ff80198354169116179055565b634e487b7160e01b5f525f60045260245ffd5b1561232157565b60405162461bcd60e51b81526020600482015260116024820152701053149150511657d41493d0d154d4d151607a1b6044820152606490fd5b1561236157565b60405162461bcd60e51b815260206004820152601060248201526f2727afaba920a82822a22faa27a5a2a760811b6044820152606490fd5b9190820391821161203057565b67ffffffffffffffff8111611f065760051b60200190565b906123c8826123a6565b6123d56040519182611f36565b82815280926123e6601f19916123a6565b0190602036910137565b8051821015611d7c5760209160051b010190565b9190811015611d7c5760051b0190565b1561241b57565b60405162461bcd60e51b815260206004820152600d60248201526c0929cac82989288be929c888ab609b1b6044820152606490fdfea2646970667358221220ffb76d0ee92fc9c84e2f5eca923312318a0cd07322346bfdf52053ed4840ee9e64736f6c63430008140033",
  "linkReferences": {},
  "deployedLinkReferences": {},
  "immutableReferences": {
    "5270": [
      {
        "length": 32,
        "start": 502
      },
      {
        "length": 32,
        "start": 1640
      },
      {
        "length": 32,
        "start": 2489
      },
      {
        "length": 32,
        "start": 3165
      },
      {
        "length": 32,
        "start": 3472
      }
    ],
    "5273": [
      {
        "length": 32,
        "start": 1452
      },
      {
        "length": 32,
        "start": 2318
      },
      {
        "length": 32,
        "start": 3270
      },
      {
        "length": 32,
        "start": 4822
      },
      {
        "length": 32,
        "start": 5194
      },
      {
        "length": 32,
        "start": 6659
      }
    ],
    "5276": [
      {
        "length": 32,
        "start": 2047
      },
      {
        "length": 32,
        "start": 2574
      },
      {
        "length": 32,
        "start": 5446
      }
    ],
    "5310": [
      {
        "length": 32,
        "start": 1240
      },
      {
        "length": 32,
        "start": 1322
      },
      {
        "length": 32,
        "start": 5932
      }
    ],
    "5316": [
      {
        "length": 32,
        "start": 1274
      },
      {
        "length": 32,
        "start": 3116
      },
      {
        "length": 32,
        "start": 5119
      }
    ]
  },
  "inputSourceName": "project/core/FluxaGateway.sol",
  "buildInfoId": "solc-0_8_20-d28463d23b44ac532776f4a9192ef718a5c6bac4"
}